S0100000465743505F4D4B332E73726563BA
S113000058C3000080C300007EC300007CC300000E
S11300107AC3000078C3000076C3000074C30000F4
S113002072C3000070C300006EC300000C94402F24
S11300306AC300000C945C2F66C3000064C3000014
S11300400C94182F60C300005EC300005CC3000062
S11300500C94DC2F58C3000056C3000054C30000A6
S113006052C3000050C300004EC300004CC3000044
S11300704AC3000048C3000046C3000044C3000054
S113008042C3000040C300003EC300007B0B820B50
S1130090CF0CF20BCF0CCF0CCF0CC70CCF0CCF0C6A
S11300A0CF0CCF0CCF0CCF0CCF0CCF0CCF0CCF0C74
S11300B0CF0CCF0CCF0CCF0CCF0CCF0CCF0CCF0C64
S11300C0CF0CCF0CCF0CCF0CCF0CCF0CCF0CCF0C54
S11300D0CF0CCF0CCF0CCF0CCF0CCF0CCF0CCF0C44
S11300E0CF0CCF0CCF0CCF0CCF0CCF0CCF0CCF0C34
S11300F0780C7E0C8F0CA00CB50C1426E724F62487
S1130100F124F124F124F124F124F124F124F12443
S1130110F124F1242226F124F124F1249D24F12454
S1130120F624F124F124E52573277527752775270F
S113013075277527752771277527752775277527DF
S11301407527782777276127632765276727692716
S11301506B276D276F272B333B333B333B333B33C9
S11301603B333B333B333B333B333B333B333B331B
S11301703B333B333B333B333B333B333B333B330B
S11301803B333B333B333B333B333B333B333B33FB
S11301903B333B333B333B333B333B333B333B33EB
S11301A03B333B333B333B333B333B333B333B33DB
S11301B03B333B333B333B333B333B333B330733FF
S11301C03B333B333B333B333B333B333B33CE3229
S11301D0CA323B33F1323B333B33DB323B333B33C9
S11301E01B335C3C823CA93CD13CF83C223D4B3D5A
S11301F0753DEC3D163E05A84CCDB2D44EB938360B
S1130200A9020C50B9918688083CA6AAAA2ABE0065
S11302100000803F07634236B79BD8A71A39685657
S113022018AEBAAB558C1D3CB7CC5763BD6DEDFD14
S1130230753EF6177231BF000000803F08000000D1
S1130240BE922449123EABAAAA2ABECDCCCC4C3EC7
S113025000000080BEABAAAAAA3E00000000BF00B6
S11302600000803F0000000000084178D3BB4387B2
S1130270D1133D190E3CC3BD4282AD2B3E68EC82C6
S113028076BED98FE1A93E4C80EFFFBE01C4FF7F4B
S11302903F000000000000E0F8FCFE1E070707070F
S11302A01EFEFCF8F00000070F3F3F7C707070707A
S11302B07C3F1F1F0700000000060707FFFFFFFF2A
S11302C00000000000000000000000007F7F7F7F2E
S11302D000000000000000383C3E3E0F070707CF37
S11302E0FFFEFE3800000040406070787C7E7F771F
S11302F073717070000000181C1E1E0FC7C7E7FF43
S1130300FEBE9C000000000C1C3C3C7870707079B0
S11303107F3F1F0F0000000080C0E070381C1EFFEC
S1130320FFFFFF0000000607070706060606067F14
S11303307F7F7F06060000000000F0FFFFFFE7E775
S1130340E7E7C7870000000038787170707070703C
S1130350393F3F1F0F000080E0F0F8FC7F7F6F679C
S1130360E1E1C0800000000F1F3F3F7870707070A3
S1130370783F3F1F0F00000707070707C7E7F7FF8E
S11303807F3F1F0703010020387C7E3F0F070300D7
S11303900000000000000000001CBEFEFFE7C3C315
S11303A0E7FFFEBE1C0000000E3F3F7F71606060EF
S11303B0717F3F3F0F000078FCFEFE8F07070707A1
S11303C08FFEFEFCF800000000014343737B7F7F37
S11303D01F0F0703000000005F0000000700070074
S11303E0147F147F14242A7F2A122313086462368C
S11303F0495522500005030000001C224100004121
S1130400221C0014083E081408083E080800503056
S113041000000808080808006060000020100804B4
S1130420023E5149453E00427F40004261514946E7
S11304302141454B311814127F1027454545393C5D
S11304404A49493001710905033649494936064983
S113045049291E00363600000056360000081422D2
S11304604100141414141400412214080201510907
S113047006324979413E7E1111117E7F4949493640
S11304803E414141227F4141221C7F494949417FEC
S1130490090909013E4149497A7F0808087F00415A
S11304A07F41002040413F017F081422417F4040AA
S11304B040407F020C027F7F0408107F3E4141418F
S11304C03E7F090909063E4151215E7F09192946EB
S11304D0464949493101017F01013F4040403F1FE6
S11304E02040201F3F4038403F631408146307082E
S11304F07008076151494543007F414100020408E7
S113050010200041417F00040201020440404040A9
S113051040000102040020545454787F4844443875
S11305203844444420384444487F385454541808C8
S11305307E0901020C5252523E7F080404780044A2
S11305407D40002040443D007F1028440000417F4E
S113055040007C041804787C08040478384444443B
S1130560387C14141408081414187C7C0804040837
S11305704854545420043F4440203C4040207C1CB8
S11305802040201C3C4030403C44281028440C505F
S113059050503C4464544C44000836410000007FF1
S11305A00000004136080010080810086E616E0053
S11305B0696E660000407A10F35A00A0724E180962
S11305C00010A5D4E80000E87648170000E40B54B6
S11305D0020000CA9A3B000000E1F5050000809685
S11305E09800000040420F000000A08601000000B7
S11305F0102700000000E803000000006400000071
S113060000000A00000000000100000000002C7639
S1130610D888DC674F0823DFC1DFAE59E1B1B79654
S1130620E5E3E453C63AE651997696E8E6C28426B1
S1130630EB898C9B62ED407C6FFCEFBC9C9F40F28D
S1130640BAA56FA5F490055A2AF75C936B6CF96709
S11306506DC11BFCE0E40D47FEF520E6B500D0EDCE
S1130660902E0300943577050080841E0800002036
S11306704E0A000000C80C333333330F986E1283D4
S11306801141EF8D2114893BE65516CFFEE6DB18A8
S1130690D1844B381BF77C1D901DA4BBE42420326D
S11306A084725E228100C9F124ECA1E53D275D40FE
S11306B0804011241FBECFEFD0E4DEBFCDBF14E0D5
S11306C0A0E0B1E0E4EBFDE900E00BBF02C007905D
S11306D00D92AE34B107D9F72EE0AEE4B4E001C018
S11306E01D92A538B207E1F713E0C8E5D3E004C0D2
S11306F02197FE010E94564AC735D107C9F70E94C7
S1130700BC390C94CE4E7CCC8E960C944426089521
S11307100F931F93CF93DF93062F142FEC01AE9604
S1130720CE010E9445266EEECE010E944D26602F1A
S1130730CE010E944D26612FCE010E944D26CE018E
S11307400E944926DF91CF911F910F9108951F9325
S1130750CF93DF93162FEC01AE96CE010E9445266F
S11307606EEECE010E944D26612FCE010E944D26D1
S1130770CE010E9445266FEECE010E944D2660E018
S1130780CE010E945D26182FCE010E944926812F9A
S1130790DF91CF911F9108951F93CF93DF93162F6D
S11307A0EC01AE96CE010E9445266EEECE010E946B
S11307B04D26612FCE010E944D26CE010E94452672
S11307C06FEECE010E944D2660E0CE010E945D26B0
S11307D0182FCE010E944926812FDF91CF911F91BE
S11307E008950F931F93CF93DF938C01D62FAFDF20
S11307F0C82F61E06D0FC801CFDF2C2FCC0F330B56
S1130800322F2227A901480F511DCA01DF91CF9130
S11308101F910F9108950F931F93CF93DF938C0132
S1130820D62FBADFC82F61E06D0FC801B5DF2C2FBA
S113083030E0322F2227A901480F511DCA01DF9150
S1130840CF911F910F910895EF92FF920F931F93F1
S1130850CF93DF937C01162F7ADFC82F61E0610FFD
S1130860C7019ADFD82F62E0610FC70195DF4D2FD2
S113087050E060E070E0762F652F542F4427480F36
S1130880511D611D711D8C2F90E0A0E0B0E0DC01D2
S1130890992788278A019B01080F191F2A1F3B1FCC
S11308A0C901B801DF91CF911F910F91FF90EF9093
S11308B00895CF93DF93EC016AEA93DF998B888BD9
S11308C06CEACE018EDF9B8B8A8B6EEACE0189DFC8
S11308D09D8B8C8B60EBCE019EDF99A388A362EB8A
S11308E0CE0199DF9BA38AA364EBCE0194DF9DA381
S11308F08CA366EBCE0175DF9F8B8E8B68EBCE01EC
S113090070DF998F888F6AEBCE016BDF9B8F8A8FA4
S11309106CEBCE0166DF9D8F8C8F6EEBCE0161DFB9
S11309209F8F8E8FDF91CF910895CF93DF93EC014A
S11309308E960E9440261EA21FA218A619A61AA6C9
S11309401BA61CA61DA680E090E5ADE7B4E48C834D
S11309509D83AE83BF83CE01ACDFDF91CF91089539
S11309602F923F924F925F926F927F928F929F92BB
S1130970AF92BF92CF92DF92EF92FF920F931F93A9
S1130980CF93DF93CDB7DEB728970FB6F894DEBFC9
S11309900FBECDBF2C014EE264EFBADE8FE097E2CA
S11309A00197F1F700C0000066EFC2011ADFF201FF
S11309B024A135A1821B930B6C0142A153A1AC2C41
S11309C0BD2CC12CD12CE12CF12C00E010E0242F03
S11309D0352F40E050E060E070E080E090E00E945D
S11309E0784A0FE00E94B24B29833A834B835C839D
S11309F06D837E838F839887F201358D248D932FA9
S1130A00990F990B492F592F692F792F892F0BE0B3
S1130A100E94994B622E732E842E952EB62FA72FEB
S1130A20282E392E378D268D932F990F990B492F08
S1130A30592F692F792F892FA980BA80CB80DC8028
S1130A40ED80FE800F8118850E94D04BA22EB32E1C
S1130A50C42ED52EE62EF72E082F192F262D372D2E
S1130A60482D592D6B2F7A2F822D932D0E94CB4A1E
S1130A70822E932EA42EB52E89819A81AB81BC81BE
S1130A80880D991DAA1DBB1DF20186A397A3A0A7DB
S1130A90B1A7BC01CD01685F7F4F8F4F9F4F0E946C
S1130AA0E04320E030E040E85DE30E94F94420E0C8
S1130AB030E040E251E40E944543F20160877187CF
S1130AC08287938728960FB6F894DEBF0FBECDBFFA
S1130AD0DF91CF911F910F91FF90EF90DF90CF9016
S1130AE0BF90AF909F908F907F906F905F904F904A
S1130AF03F902F9008952F923F924F925F926F9262
S1130B007F928F929F92AF92BF92CF92DF92EF9299
S1130B10FF920F931F93CF93DF93CDB7DEB7A297C6
S1130B200FB6F894DEBF0FBECDBF1C0119DF44EF32
S1130B3064EFC101EDDD8FE19BEC0197F1F700C09B
S1130B40000066EFC10180DE5B016C01E12CF12C39
S1130B5087016C87BD86CE86DF86E88AF98A0A8B90
S1130B601B8BF10186A197A1A0A5B1A52C013D0184
S1130B70F0EA4F1AFFE05F0A61087108630152014D
S1130B80DD0CAA08BA2C6501A982BA82CB82DC8268
S1130B90A42CB52CC62CD72CE980FE2C0E2D1E2D92
S1130BA0242D352D462D572D602F702F802F9E2DEF
S1130BB00E94784A0CE00E94B24B2C8B3D8B4E8BEA
S1130BC05F8B6A8F7B8F8C8F9D8FD10159963C915F
S1130BD0599758962C91932F990F990BAC88BD88EF
S1130BE0C42ED52EE62EF72E082F1D8D492F592FF2
S1130BF0692F792F892F0E94784A29873A874B8752
S1130C00588F862E972E8F8F9E8FF10133892289DC
S1130C10932F990F990BA42CB52CC62CD72CE980B3
S1130C20FE2C0E2D1E2D492F592F692F792F892F18
S1130C300E94784AA22EB32EC42ED52EE62EF72E6D
S1130C40182FA92FF10180899189FC01EE0FFF1F54
S1130C50EE0FFF1FFAA3E9A3EF2FEE0FEE0B29858A
S1130C603A854B85588D682D792D8F8D9E8D0BE09F
S1130C700E94B24BB22F3A87842E952E6E8F788FB6
S1130C808B87F92F2A2D3B2D4C2D5D2D6E2D7F2D1D
S1130C90812F9A2F0E94B24BA22EB32EC42ED52E92
S1130CA0E62EF72E082F192F2B2F3A85482D592D74
S1130CB06E8D788D8B859F2F0E94D04BA22EB32EE4
S1130CC0C42ED52EE62EF72E082F192F29A13AA1CE
S1130CD04E2F5E2F6E2F7E2F8E2F9E2F0E94D04B75
S1130CE003E00E94994BA2E00E94D94B29873A87DE
S1130CF04B87588F698F7E8F8F8F98A3D10155961C
S1130D003C91559754962C91932F990F990BA42CA1
S1130D10B52CC62CD72CE980FE2C0E2D1E2D492F68
S1130D20592F692F792F892F0E94784A722E432ECA
S1130D30542E652E862E972E89A39983F101B788A8
S1130D40A6881B2D110F110BC12ED12EE12EF12ED1
S1130D50012F2C893D894E895F896A8D7B8D8C8D0D
S1130D609D8D0E94784AA22EB32EC42ED52EE62E37
S1130D70F72E182FB92F272D342D452D562D682DDC
S1130D80792D89A199810DE00E94B24B622E832EA8
S1130D90942E552E762EA72FF82FE92F2A2D3B2D92
S1130DA04C2D5D2D6E2D7F2D812F9B2F00E10E94F8
S1130DB0B24BA22EB32EC42ED52EE62EF72E082F1C
S1130DC0192F262D382D492D552D672D7A2F8F2F2C
S1130DD09E2F0E94D04BA2E00E94D94B02E00E94B9
S1130DE0B24B30584F4F5F4F6F4F7F4F8F4F9F4FD6
S1130DF0D1019096ED91FC9191975F01C12CD12C7A
S1130E00E12CF12C8701E983BA82CB82DC82ED826A
S1130E10FE820F831887C12CD12CE12CF12C00E029
S1130E2010E00E94784A0FE00E94B44B622E532EC9
S1130E30442E59836C8B7D8B8E8B9F8B2C853D85AB
S1130E404E855F8560E070E080E090E005E00E9400
S1130E50B24B822E932EE42F752EB62FA72F8C879C
S1130E60F92F29853A854B85588D698D7E8D8F8D17
S1130E7098A102E00E94B24BA22EB32EC42ED52E0E
S1130E80E62EF72E082F192F282D392D4E2F572DEA
S1130E906B2F7A2F8C859F2F0E94E54B822E932EE9
S1130EA04A875987B62FA72FF82FE92F03E00E940E
S1130EB0994BA82CB92CCA84D984EB2EFA2E0F2F67
S1130EC01E2F0E94E54BA22EB32EC42ED52EE62E45
S1130ED0F72E782E192F03E00E94994B072D0E94BC
S1130EE0E54B03E00E94994BA82CB92CCA84D98401
S1130EF0EB2EFA2E0F2F1E2F0E94E54B02E00E94CC
S1130F00994B0F2F0E94E54B01E00E94994B0F2F44
S1130F100E94E54B01E00E94994B822E932EF42F00
S1130F20752EB62FA72F89879A872F3F0FEF30078B
S1130F3040070FE75007610571058105910509F028
S1130F40B0F401E00E94994BA62CB52CC42CD98096
S1130F50EC88FD880E891F890E94F64A29833A830A
S1130F604B835C836D837E838F83988724C0A62CF8
S1130F70B52CC42CD980EC88FD880E891F89282DB6
S1130F80392D4F2F572D6B2F7A2F89859A850E94E3
S1130F90F64AA22EB32EC42ED52EE62EF72E082FF7
S1130FA0192F0E94784A29833A834B835C836D838B
S1130FB07E838F83988729813A814B815C816D81FF
S1130FC07E818F81988508E00E94B24BA22EB32EB9
S1130FD0C42ED52EE62EF72E082F192F0E94784AFC
S1130FE0A22EB32EC42ED52EE62EF72EE82F192FBF
S1130FF003E00E94994B0E2F0E94E54BA22EB32EC4
S1131000C42ED52EE62EF72EE82F192F03E00E94CA
S1131010994B0E2F0E94E54BA22EB32EC42ED52E33
S1131020E62EF72EE82F192F05E00E94994B0E2F7C
S11310300E94E54B01E00E94994B722E532E642EC0
S1131040F52F462EB72FA82F998729813A814B81F6
S11310505C816D817E818F81988505E00E94994B2A
S1131060A980BA80CB80DC80ED80FE800F8118855A
S11310700E94D04B03E00E94994B0F810E94E54BE4
S113108002E00E94994B0F810E94E54BA22EB32EE1
S1131090C42ED52EE62EF72EE82F192F03E00E943A
S11310A0994B0E2F0E94E54B0E94524B00E10E9487
S11310B0B24B822E932EA42EB52E750164011FEC23
S11310C0C10E1EE0D11EE11CF11C272D352D462D2D
S11310D05F2F642D7B2F8A2F99850E94B24B422E5D
S11310E0532E642E752ED701C601840D951DA61DA1
S11310F0B71D689413F8B595A79597958795169499
S1131100D1F729813A814B815C81280F391F4A1F0D
S11311105B1FCA01B901D1019A962D933D934D935A
S11311205C939D970E94E04320E030E048EC52E459
S11311300E944543F1016083718382839383A29665
S11311400FB6F894DEBF0FBECDBFDF91CF911F91D4
S11311500F91FF90EF90DF90CF90BF90AF909F9052
S11311608F907F906F905F904F903F902F90089555
S1131170CF93DF93EC01BFDC2C813D814E815F81F5
S1131180688179818A819B810E9445432EEA3CEDE6
S113119042E45EE30E945C459B01AC0160E070E0C8
S11311A080E89FE30E94DD4220E03AE24DE257E40A
S11311B00E94F9446C877D878E879F87DF91CF914A
S11311C008951CBC84B18F7584B92C9A08958EBD82
S11311D00DB407FEFDCF8EB508952C9A8FEFF7CF8F
S11311E008952C988FEFF3DF82E380934F048FEF01
S11311F0EEDF8F3F41F080914F048111F8CFEDDF96
S113120080E090E0089581E090E008950F931F93AB
S1131210CF93DF93EC018B0184E1809350048FEF33
S1131220D6DF8F3F39F4909150049111F8CF80E0CC
S113123090E020C08E3FE1F4F8948FEF8EBD0DB4A2
S113124007FEFDCF9EB598838EBD0DB407FEFDCF7E
S113125022969EB5FE01319790830250110971F7D1
S113126078948FEFB4DF8FEFB2DF81E090E002C0BB
S113127080E090E0DF91CF911F910F910895FF924C
S11312800F931F93CF93DF93C82FD42F152F062FBF
S1131290F72E88234CF440E050E0BA0187E3EFDFF7
S11312A0823008F03CC0CF77CC30F1F096DF99DF84
S11312B0892BC1F08C2F80648ADF8F2D88DF802FEB
S11312C086DF812F84DF8D2F82DFCC2329F121C09B
S11312D08FEF7DDFCAE08FEF7ADF882304F5C150FA
S11312E0D1F71DC08FEF1BC08CE471DF8F2D6FDF32
S11312F0802F6DDF812F6BDF8D2F69DF81E067DF4A
S1131300CC3031F3E7CF87E862DFE4CF81E05FDF01
S1131310E1CFC830C1F3FACF85E959DFDBCFDF91E4
S1131320CF911F910F91FF9008951F93CF93DF9357
S1131330EC01162F92E390934F048FEF48DF8F3F19
S113134031F090914F049111F8CF80E028C0812FA3
S11313503EDF1D3F11F1F8949E013E5F88818EBDF2
S11313600DB407FEFDCF2296FE01319780818EBD1C
S11313700DB407FEFDCF2C173D0781F778948FEF4E
S113138026DF8FEF24DF8FEF22DF282F2F7181E0FC
S113139090E0253021F080E002C081E090E0DF9110
S11313A0CF911F910895CF92DF92EF92FF920F9306
S11313B01F93CF93DF9300D000D0CDB7DEB7811158
S11313C09BC0FFDE8091060182FF03C0809106016D
S11313D09EC084B1806B84B926982C9A81E08DBD1F
S11313E082E58CBD1AE08FEFF2DE1150E1F740E0A8
S11313F050E0BA0180E043DF813009F084C084E624
S1131400809350044AEA51E060E070E088E037DFFE
S1131410813009F03FC0CE0101966C017E0195E058
S1131420E90EF11C86018FEFD2DEF80181938F0162
S1131430EE15FF05C1F78B81813009F064C08C8102
S11314408A3A09F060C080915004882341F040E05A
S113145050E060E070E489EA12DF8111F4CF8091FA
S11314605004882309F44FC040E050E0BA018AE3F5
S113147006DF811148C0760114E01C0D8FEFA7DE52
S1131480F70181937F011E13F9CF898186FD36C050
S113149084E035C040E050E0BA0189EAF0DE8230F1
S11314A018F001E011E002C002E019EA9091500442
S11314B0992339F040E050E0BA01812FE0DE811138
S11314C0F5CF809150048823F1F040E052E060E0D1
S11314D070E080E1D4DE811116C000934E047DDEFD
S11314E0002331F0809106018E7F8093060101C0B4
S11314F068DE809106010BC081E009C08CE0809316
S11315004E046BDEEFCF10924E0467DEF1CF0F90E6
S11315100F900F900F90DF91CF911F910F91FF903B
S1131520EF90DF90CF900895811103C08091060160
S1131530089581E00895FF920F931F93CF93DF9353
S1131540EB0181113FC00115110509F43DC08091E3
S1131550060180FD3BC080914E0483FD09C0012E2D
S113156019E0220F331F441F551F1A95D1F7102D70
S11315700230110528F40F2EF1E1FF2EF02D04C0E6
S11315800F2EF2E1FF2EF02DBA01A9018F2D77DE87
S1131590811112C060E072E0CE0138DE892B21F0A7
S11315A0DE5F01501109B1F782E1F81205C040E095
S11315B050E0BA018CE063DE10DE81E0012B39F4E7
S11315C080E005C084E003C084E001C083E0DF91D3
S11315D0CF911F910F91FF900895CF92DF92EF92D8
S11315E0FF920F931F93CF93DF93EB0169017A016D
S11315F0811151C00115110509F44FC080910601F4
S113160080FD4DC08091060182FD4BC080914E0447
S113161083FD09C00B2EB9E0CC0CDD1CEE1CFF1CB5
S1131620BA95D1F7B02D0130110589F4B701A6019F
S113163088E125DE811129C06EEFCE0176DE31E02E
S113164020E0892B09F030E0032F122F1EC0867092
S113165029F0A80160E070E087E911DEB701A60176
S113166089E10DDE811111C06CEFCE015EDE892BA4
S113167021F0DE5F01501109B9F76DEF80E090E0D1
S113168054DE892B11F401E010E0A7DD81E0012B89
S113169049F480E007C084E005C084E003C083E02F
S11316A001C082E0DF91CF911F910F91FF90EF90E5
S11316B0DF90CF900895EF92FF920F931F93CF93F3
S11316C0DF93CDB7DEB760970FB6F894DEBF0FBED9
S11316D0CDBF81117CC18091060180FD7AC17A0160
S11316E0062F10E00733110508F059C1F801EA5B31
S11316F0FF4F0C94564A75DD11E0892B09F464C13F
S113170010E062C140E050E0BA0189E0B8DD811127
S113171048C160E170E0CE01019678DD892B09F4BF
S113172042C189818295869586958370813031F591
S113173088858F7390E0A0E0B0E0DC0199278827CA
S11317400196A11DB11D298530E0322F22274A853B
S1131750240F311D820F931FA11DB11D072E7AE0A6
S1131760880F991FAA1FBB1F7A95D1F7702DF70117
S113177080839183A283B38310E026C189858295F7
S1131780869586958370288590E0F4E02F9F800DE0
S1131790911D11249C012F5F3F4F8F81837090E036
S11317A0982F8827990F990F820F931FA0E0B0E01C
S11317B03E813F702B85221F2227221F320F2A854C
S11317C02370220F230F275004C0880F991FAA1FCC
S11317D0BB1F2A95D2F7F70180839183A283B38339
S11317E010E0F2C010914E0412FF2AC040E050E015
S11317F0BA018DE844DD8111D8C08FEFE8DC60E1E7
S113180070E0CE01019602DD892B09F4D0C010E30B
S11318108FEFDDDC1150E1F72B8522952F7080E1ED
S113182090E0A0E0B0E004C0880F991FAA1FBB1F7E
S11318302A95D2F7F70180839183A283B383C4C02E
S113184040E050E0BA0189E01ADD8111B2C060E1E4
S113185070E0CE010196DADC892B09F4ACC011FFEB
S113186020C08C85881F8827881F90E001962B85CF
S11318702F73820F911D820F911D2E85229526951F
S113188026952370215002C0880F991F2A95E2F7EC
S1131890A0E0B0E0F70180839183A283B38310E0DA
S11318A093C08C85282F237082958695877090E04D
S11318B0F8E02F9F800D911D112401962B852C7724
S11318C030E035952795359527952F5F3F4F829FBB
S11318D0A001839F500D929F500D1124CA01A0E0D6
S11318E0B0E0F70180839183A283B38310E06CC0DE
S11318F080914E04FA01808310E066C040E050E01D
S1131900BA0189E0BCDC811158C060E170E0C70114
S11319107DDC11E0892B09F457C010E055C040E08C
S113192050E0BA018AE0ABDC811149C060E170E0AB
S1131930C7016CDC11E0892B09F446C010E044C0F7
S113194040E050E0BA018AE39ADC81113AC0870191
S1131950F4E0EF0EF11C8FEF3ADCF80181938F0174
S1131960EE15FF05C1F710E02FC040E050E0BA01CA
S11319708DE885DC811127C08FEF29DC60E470E0FD
S1131980C70144DC11E0892BF9F010E01DC019DC1B
S11319908091060181608093060110E015C014E077
S11319A013C011E011C011E00FC011E00DC011E02F
S11319B00BC011E009C011E007C011E005C011E03F
S11319C003C011E001C011E008DC812F03C084E0F2
S11319D001C083E060960FB6F894DEBF0FBECDBFA2
S11319E0DF91CF911F910F91FF90EF900895809117
S11319F05004882319F081508093500480914F043F
S1131A00882319F0815080934F04809106018093BC
S1131A10060108959C5F0C9444260895FC019C5F84
S1131A201192E817F907E1F708951F93CF93DF9315
S1131A30162FEC01DC5FCE010E94452668E7CE013B
S1131A400E944D2660E0CE010E944D26612FCE01FA
S1131A500E944D26CE010E944926DF91CF911F910D
S1131A600895CF93DF93EC016EEADFDF65EDCE01DD
S1131A70DCDF60E8CE01D9DF68EACE01D6DF6FE3B0
S1131A80CE01D3DF63EDCE01D0DF60E0CE01CDDF48
S1131A9060E4CE01CADF6DE8CE01C7DF64E1CE01A8
S1131AA0C4DF60E2CE01C1DF60E0CE01BEDF61EAE7
S1131AB0CE01BBDF68ECCE01B8DF6AEDCE01B5DF45
S1131AC062E1CE01B2DF61E8CE01AFDF6FECCE019F
S1131AD0ACDF69EDCE01A9DF61EFCE01A6DF6BEDCE
S1131AE0CE01A3DF60E4CE01A0DF64EACE019DDF76
S1131AF066EACE019ADF6FEACE0197DFDF91CF91DC
S1131B000895CF93DF93EC019C5F0E944026CE01A1
S1131B10A8DFCE0183DFDF91CF910895EF92FF928A
S1131B200F931F93CF93DF93EC0161E27EDF60E0BC
S1131B30CE017BDF6FE7CE0178DF62E2CE0175DF95
S1131B4060E0CE0172DF67E0CE016FDF8E011C5FC3
S1131B50C8010E94452668E7C8010E944D2660E43A
S1131B60C8010E944D2678016991C8010E944D2642
S1131B70CE15DF05C9F7C8010E944926DF91CF9130
S1131B801F910F91FF90EF9008956623ACF14034BC
S1131B9098F5211119C0242F26952695269550E8ED
S1131BA0259F90011124260F311DFC01E20FF31F24
S1131BB0477081E090E002C0880F991F4A95E2F7D0
S1131BC09081892B80830895242F26952695269528
S1131BD030E8239FF0011124E60FF11DE80FF91FEF
S1131BE0477081E090E002C0880F991F4A95E2F7A0
S1131BF080959081892380830895FF920F931F938A
S1131C00CF93DF93222369F0C42FF62E8C01D22FB9
S1131C10D40F20E04C2F6F2DC801B7DFCF5FCD1359
S1131C20F8CFDF91CF911F910F91FF900895FF920C
S1131C300F931F93CF93DF93222369F0F42EC62FC3
S1131C408C01D22FD60F20E04F2D6C2FC8019DDFC1
S1131C50CF5FCD13F8CFDF91CF911F910F91FF90FC
S1131C6008955F926F927F928F929F92AF92BF92EC
S1131C70CF92DF92EF92FF920F931F93CF93DF9354
S1131C806C01762E842EC22FA22EA61AA394D02FD6
S1131C90D41BEE2029F0B12C1A141B0424F12EC0FD
S1131CA02A2DC5DF2A2D402F672DC601C0DF2D2F19
S1131CB0482D672DC601A1DF2D2F482D6C2FC6019D
S1131CC09CDF1CC04C2F480D20E0692DC6015DDF50
S1131CD021960C171D07B4F78FEFE81AF80AEA14D7
S1131CE0FB043CF00BC0E12CF12C0D2F10E0512C27
S1131CF0612CC52DD62D972C9E0CE4CFDF91CF916E
S1131D001F910F91FF90EF90DF90CF90BF90AF9015
S1131D109F908F907F906F905F9008950F931F9383
S1131D20CF93DF93613208F43EC0A42FB0E0022FBA
S1131D3006950695069530E8039F800111246152AB
S1131D4070E0FB01EE0FFF1FEE0FFF1FE60FF71F02
S1131D50EA52FC4FAD01400F511FEC01C40FD51FD7
S1131D6000581F4FA00FB11FA80FB91F4B5F5F4F43
S1131D70480F591F2770649170E0022E02C0660F4D
S1131D80771F0A94E2F79881962B9993672F772708
S1131D906115710519F08C91682B6C93319611962D
S1131DA0C417D50741F7DF91CF911F910F91089583
S1131DB0CF92DF92EF92FF920F931F93CF93DF9313
S1131DC06A3008F066C050E0022F06950695069525
S1131DD010E0D801B695BA2FAA27B795A7950F5F3B
S1131DE01F4F1695102F0027179507957D0130E892
S1131DF0E30EF11CE40EF51EE80EF91EEA01C00F15
S1131E00D11F6097C80FD91F040F151F00591F4F0A
S1131E10080F191FA40FB51FA80FB91F80E2689FF0
S1131E20B001112440E050E02770FA01E60FF71FDB
S1131E30EA56FD4FE491F0E0022E02C0EE0FFF1FC0
S1131E400A94E2F7403168F48C918E2B8C93CF2E58
S1131E50DD24C114D10489F0F70180818C298083A9
S1131E600CC088818E2B8883CF2EDD24C114D1042D
S1131E7021F0F80180818C2980834F5F5F4FFFEF51
S1131E80EF1AFF0A21960F5F1F4F1196403251053A
S1131E9061F6DF91CF911F910F91FF90EF90DF904A
S1131EA0CF9008952F923F924F925F926F927F92BC
S1131EB08F929F92AF92BF92CF92DF92EF92FF9256
S1131EC00F931F93CF93DF93CDB7DEB727970FB64A
S1131ED0F894DEBF0FBECDBF9F838E836D83342EF7
S1131EE0002309F426C1622F70E080E090E00E9494
S1131EF0E04320E030E040EC50E40E94F9442BED54
S1131F003FE049E450E40E94F94420E030E044E337
S1131F1053E40E9445432BED3FE049EC5FE30E940C
S1131F20DD426B017C010E9442434B015C01C7010D
S1131F30B6010E94A8452B013C0100E010E0B80165
S1131F40012E000C880B990B0E94E0436B017C016D
S1131F50A30192010E94F94420E030E048EF51E4EB
S1131F600E94DE420E94B243262EA5019401C701BD
S1131F70B6010E94F94420E030E048EF51E40E94A9
S1131F80DE420E94B24320E0422D8E819F81FDDD1E
S1131F900F5F1F4F0931110591F6632D70E080E04A
S1131FA090E00E94E04369837A838B839C8320E0E2
S1131FB030E040EC50E40E94F9442BED3FE049E46A
S1131FC050E40E94F94420E030E044E353E40E94EA
S1131FD045432BED3FE049EC5FE30E94DD426B019A
S1131FE07C010E9442432B013C01C701B6010E94BF
S1131FF0A8454B015C0100E010E0B801012E000C83
S1132000880B990B0E94E0436B017C01A5019401AC
S11320100E94F94420E030E048EF51E40E94DE429F
S11320200E94B243362EA3019201C701B6010E9459
S1132030F94420E030E048EF51E40E94DE420E947F
S1132040B24320E0432D8E819F819FDD0F5F1F4FA0
S11320500531110591F62D81622F70E080E090E04A
S11320600E94E04320E030E040EF51E40E94F94454
S11320706B017C0120E030E040E05FE369817A811C
S11320808B819C810E94F9449B01AC01C701B6017C
S11320900E94DE422BED3FE049E450E40E94F94403
S11320A020E030E044E353E40E9445432BED3FE05D
S11320B049EC5FE30E94DD426B017C010E944243D4
S11320C04B015C01C701B6010E94A8452B013C01EC
S11320D000E010E0B801012E000C880B990B0E945F
S11320E0E0436B017C01A30192010E94F94420E0CA
S11320F030E048EF51E40E94DE420E94B243362EA3
S1132100A5019401C701B6010E94F94420E030E022
S113211048EF51E40E94DE420E94B24320E0432D86
S11321208E819F8132DD0F5F1F4F0D30110591F6B7
S1132130CBC0642F70E080E090E00E94E0436983AC
S11321407A838B839C8320E030E040EC50E40E944F
S1132150F9442BED3FE049E450E40E94F94420E0C7
S113216030E044E353E40E9445432BED3FE049EC67
S11321705FE30E94DD426B017C010E9442432B011C
S11321803C01C701B6010E94A8454B015C0100E077
S113219010E0B801012E000C880B990B0E94E0435B
S11321A06B017C01A50194010E94F94420E030E018
S11321B048EF51E40E94DE420E94B243362EA3014E
S11321C09201C701B6010E94F94420E030E048EFD3
S11321D051E40E94DE420E94B24320E0432D8E81EE
S11321E09F81D3DC0F5F1F4F0931110591F6ED81FB
S11321F06E2F70E080E090E00E94E04320E030E049
S113220040EF51E40E94F9446B017C0120E030E08E
S113221040E05FE369817A818B819C810E94F9446B
S11322209B01AC01C701B6010E94DE422BED3FE0E9
S113223049E450E40E94F94420E030E044E353E4EC
S11322400E9445432BED3FE049EC5FE30E94DD42F1
S11322506B017C010E9442434B015C01C701B60142
S11322600E94A8452B013C0100E010E0B801012EBA
S1132270000C880B990B0E94E0436B017C01A301C5
S113228092010E94F94420E030E048EF51E40E94BA
S1132290DE420E94B243362EA5019401C701B60165
S11322A00E94F94420E030E048EF51E40E94DE420D
S11322B00E94B24320E0432D8E819F8166DC0F5F34
S11322C01F4F0131110591F620E04AE161E38E814F
S11322D09F8124DD20E040E262E38E819F811EDD48
S11322E02CE14AE363E38E819F8118DD28E34DE10D
S11322F066E38E819F8112DD2CE140E069E38E81EB
S11323009F810CDD20E048E06CE28E819F813DDC02
S113231020E042E165E38E819F8137DC20E04CE2DE
S113232065E38E819F8131DC20E045E36BE28E81A1
S11323309F812BDC20E045E361E18E819F8125DCD8
S113234020E04CE268E08E819F811FDC20E041E1C7
S113235068E08E819F8119DC20E048E062E18E8193
S11323609F8113DC27960FB6F894DEBF0FBECDBF56
S1132370DF91CF911F910F91FF90EF90DF90CF905D
S1132380BF90AF909F908F907F906F905F904F9091
S11323903F902F900895CF92DF92EF920F93CF93B7
S11323A0DF936C01D42FC22F8FEF860F8A3060F435
S11323B0EE24E39406E0020F6BE0640F262F41E065
S11323C04C0FC6014EDC48C065316CF4EE24E39436
S11323D006E0020F2BE0240F41E04C0F6AE06D0F82
S11323E0C6013FDC39C06F316CF4EE24E39406E09F
S11323F0020F2BE0240F41E04C0F68E06D0FC60183
S113240030DC2AC069326CF4EE24E39406E0020F57
S11324102BE0240F41E04C0F66E06D0FC60121DC78
S11324201BC063336CF4EE24E39406E0020F2BE04C
S1132430240F41E04C0F64E06D0FC60112DC0CC0A8
S1132440EE24E39406E0020F2BE0240F41E04C0F4E
S113245062E06D0FC60105DC07E00C0F2CE02D0FC8
S113246061E06D0FE12C4C2FC601FBDB42E04C0F09
S113247020E06D2FC60189DB43E04C0F20E06D2F77
S1132480C60183DB44E04C0F20E06D2FC6017DDBE9
S1132490DF91CF910F91EF90DF90CF900895CF927D
S11324A0DF92EF920F931F93CF93DF936C01162F5C
S11324B0C42FD22F07E0020F27E0240FE12C4D2F69
S11324C06C2FCFDB113069F403E00D0F26E02C0FE5
S11324D041E04D0F61E06C0FEE24E394C601C1DBD3
S11324E00EC0133061F406E00D0F26E02C0F41E01E
S11324F04D0F61E06C0FEE24E394C601B2DBDF9173
S1132500CF911F910F91EF90DF90CF9008954115D7
S1132510510551F0A62FB72FFC01480F591F9D916B
S11325209193E417F507D9F708950F931F93DC01EE
S1132530FB01938D692F70E0762F6627828D682BBF
S113254080E090E02C91233079F4058910E0102F7D
S113255000272489022B20E030E09801112700276E
S1132560602B712B822B932B1F910F910895CF9386
S1132570DF93EC01A881B9811097F9F04C914132B5
S113258058F04A3331F1FD0131969F019191913216
S113259028F09A33D1F704C0942F9D019A3381F423
S11325A0CD0101962817390771F4403379F4129656
S11325B0B983A88380E090E00EC08FEF9FEF0BC03B
S11325C080E090E008C08FEF9FEF05C08FEF9FEF92
S11325D002C09D01E5CFDF91CF9108958F929F9224
S11325E0AF92BF92CF92DF92EF92FF920F931F931D
S11325F0CF93DF93FC012481222309F446C0EC012C
S1132600C2A4D3A4E4A4F5A45C01FEE2AF0EB11C01
S113261001E010E0A7019601B50189810E94ED0A4D
S1132620811135C01C828E8D9F8DA8A1B9A1B701DF
S1132630A601481B590B6A0B7B0B8E899F89A88DB9
S1132640B98D481759076A077B0718F58B80912CB9
S113265082E088169104F8F08E899F89A88DB98D3F
S1132660C80ED91EEA1EFB1E01E010E0A701960168
S1132670B50189810E94ED0AE1E08E1A9108F1E02A
S11326808F16910449F780E007C080E005C081E01F
S113269003C080E001C080E0DF91CF911F910F91D2
S11326A0FF90EF90DF90CF90BF90AF909F908F906E
S11326B008958F929F92AF92BF92FF920F931F93B0
S11326C0CF93DF93EC014A015B018AA59BA5ACA5DE
S11326D0BDA584179507A607B707E1F0CE017EDFF5
S11326E0F82E811118C001E010E0A5019401BE018B
S11326F0625D7F4F89810E949B0A882331F0FF2409
S1132700F39488248A94982C54018AA69BA6ACA698
S1132710BDA601C0F12C8F2DDF91CF911F910F9198
S1132720FF90BF90AF909F908F900895CF93DF93C9
S1132730EC011C828FEF9FEFDC018AA79BA7ACA75B
S1132740BDA7CE01B6DF811151C0FE01E35DFD4F8F
S1132750808190E0982F882731972081822B8535BE
S11327609A4A09F045C0E55CF140208131978081A7
S113277090E0A0E0B0E0DC0199278827B22B3297E3
S11327802081822B3196408150E0542F442760E011
S113279070E0842B952BA62BB72BBB278634914452
S11327A0A445B10539F17E9680813197408150E08E
S11327B060E070E0BA0155274427782B3297808176
S11327C0482BCF57DF4F888190E0982F8827A0E0CF
S11327D0B0E0482B592B6A2B7B2B772781E04634BA
S11327E051446445710539F480E005C083E003C0B9
S11327F082E001C080E0DF91CF9108950097C9F095
S1132800DC01ED91FC9111973097A9F020812223EE
S1132810A1F02681378112968D919C9113972817E8
S1132820390769F481810E94940A80FF0AC089E013
S1132830089589E0089589E0089589E0089589E07C
S1132840089580E008952F923F924F925F926F9285
S11328507F928F929F92AF92BF92CF92DF92EF922C
S1132860FF920F931F93CF93DF93CDB7DEB76D978E
S11328700FB6F894DEBF0FBECDBF6C01CB01B42EF2
S1132880D6011D921C9273DE7C0199230CF4D7C2ED
S1132890FC01EE0FFF1FED5AFB4F00811181011562
S11328A0110509F4CEC2F60111830083D8018C917D
S11328B0882369F011968C910E94940A80FD07C0C8
S11328C0BB2009F4C0C282FFC0C28AE065C3F8011C
S11328D01082E1828E2D0E94D30980FDB8C2BB20F4
S11328E009F4D5C282FDB5C2D2C2DF0117978C911B
S11328F08823B9F01496CC908081D12CE12CF12C52
S1132900F82A12968C91E82A1197AC91B0E0BA2F6C
S1132910AA27CD01A0E0B0E0C82AD92AEA2AFB2AD6
S113292004C0C82CD92CE72EF62ED901CD92DD9205
S1132930ED92FD929D017096E417F507B1F64E01F4
S1132940B1E18B0E911C6894772471F8F501C19064
S1132950D190E190F1905F01C114D104E104F1043C
S113296039F0B701A601C801E1DE811102C00DC032
S1132970872DA814B90451F703C0C12CD12C7601BA
S1132980833009F468C2811168C2D801DA968C9147
S1132990DA9790E0982F8827D9962C91822B81156D
S11329A0924009F05CC2F801EB5BFF4F8080912CF0
S11329B0982C882431978081882AA12CB12C8114E9
S11329C09104A104B104E9F4719680813197808067
S11329D0912CA12CB12C540199248824B82A329723
S11329E08081A5019401282BDA01C90131968080E8
S11329F0912C982C8824A12CB12C882A992AAA2AB3
S1132A00BB2AD80156968D929D92AD92BC9259974D
S1132A10DE96AC91F801A3838FEF8A0F823008F021
S1132A2020C2F3ADF98B2F2FF8012283222309F45E
S1132A301AC2822F90E09C012150310982239323F2
S1132A40892B09F012C2E05CFF4F808190E0982F3F
S1132A508827F80127AD1C01222A31862086C1016E
S1132A608F709927892B09F002C2EE5BFF4F4080DB
S1132A70512C542C442431978081482A612C712C88
S1132A804114510461047104D1F47096808131972A
S1132A904080512C612C712C320155244424782A15
S1132AA032978081482A3196808190E0982F882738
S1132AB0AC0160E070E0442A552A662A772AF801BE
S1132AC085ADE82FF0E03E2F2227F80184ADF9010F
S1132AD0E82B309709F4CDC1B0E0A50194010E9420
S1132AE06E4A6A8F7B8F8C8F9D8F9F0140E050E0F0
S1132AF02E8B3F8B488F598FC101929582958F7091
S1132B0089279F708927280F391F411D511DDA011C
S1132B10C9012A8D3B8D4C8D5D8D280F391F4A1FAD
S1132B205B1F2A8B3B8B4C8B5D8B421653066406D2
S1132B30750608F4A0C1C301B201621B730B840BB8
S1132B40950BE9892E2F30E040E050E00E94344A92
S1132B50DA01C901211531054105510509F48DC179
S1132B60263FFFE03F074105510518F0E2E0E98BFD
S1132B7002C0F1E0F98B863F9F4FA105B10508F033
S1132B809DC129013A0182E0480E511C611C711C4F
S1132B90D80152964D925D926D927C925597F801B0
S1132BA0C28ED38EE48EF58E8E899F89A88DB98DC1
S1132BB08C0D9D1DAE1DBF1D868F978FA0A3B1A345
S1132BC04A895B896C897D894C0D5D1D6E1D7F1D55
S1132BD046A357A360A771A7F989F33009F044C04D
S1132BE0232809F04CC1F801E35AFF4F20813197A3
S1132BF0808190E0A0E0B0E0DC0199278827B22B27
S1132C0032972081AC01BD01422B31968081282F5F
S1132C1030E0922F8827A0E0B0E0842B952BA62BE0
S1132C20B72BF80182A393A3A4A3B5A3440C551C0A
S1132C30661C771C440C551C661C771CFFEF4F0E5A
S1132C40F1E05F1E611C711C032E39E076946794D9
S1132C50579447943A95D1F7302D84149504A604DB
S1132C60B70408F40EC156C1232809F40CC12A8DF7
S1132C703B8D4C8D5D8D820F931FA41FB51FF801F2
S1132C8082A393A3A4A3B5A3F989F23029F4440C35
S1132C90551C661C771C6AC1A3E0B0E0A301920135
S1132CA00E946E4ADC01CB01B695A795979587954E
S1132CB021E04222552466247724480E591E6A1EB8
S1132CC07B1E54C1B701A6014F5F5F4F6F4F7F4F0B
S1132CD0C801EFDC811196C0D80115961C92F80149
S1132CE0E35DFD4F808190E0982F88273197208104
S1132CF0822B85359A4A09F088C0F80121A980A958
S1132D0090E0A0E0B0E0DC0199278827B22B26A54B
S1132D10AC01BD01422B27A530E0922F8827A0E00B
S1132D20B0E0842B952BA62BB72B82359245A14678
S1132D30B14409F06DC0F801EB5EFD4F208131977D
S1132D40808190E0A0E0B0E0DC0199278827B22BD5
S1132D5032972081AC01BD01422B3196208130E0B5
S1132D60922F8827A0E0B0E0842B952BA62BB72BBD
S1132D7082379247A144B14609F04DC0369620816E
S1132D803197808190E0A0E0B0E0DC0199278827AA
S1132D90B22B32972081AC01BD01422B31962081A8
S1132DA030E0922F8827A0E0B0E0842B952BA62B4F
S1132DB0B72BF80186879787A08BB18BE35EFD4F15
S1132DC020813197808190E0A0E0B0E0DC01992778
S1132DD08827B22B32972081AC01BD01422B31965A
S1132DE0208130E0922F8827A0E0B0E0842B952B3F
S1132DF0A62BB72BF80182879387A487B587F3E0C6
S1132E00F98B0BC0E3E0E98B08C0F3E0F98B05C054
S1132E10E3E0E98B02C0F3E0F98BE989D801EC9394
S1132E20809151049091520401969093520480939E
S1132E30510417969C938E93169780E0ADC08BE057
S1132E40ABC08CE0A9C080E0A7C080E0A5C083E04F
S1132E50A3C08AE0A1C081E09FC08DE09DC08DE049
S1132E609BC08DE099C08DE097C08DE095C08DE04A
S1132E7093C08DE091C08DE08FC08DE08DC08DE05A
S1132E808BC08DE089C08DE087C08DE085C040E0B7
S1132E9050E0BA01C8014ADC813009F06ECD9E01D0
S1132EA02F5F3F4F5901F801E950FE4FA801495CDB
S1132EB05D4F812C912C70E060E017CD29013A011F
S1132EC062E0460E511C611C711CD80152964D9251
S1132ED05D926D927C925597F801C28ED38EE48EEA
S1132EE0F58E8E899F89A88DB98D8C0D9D1DAE1D83
S1132EF0BF1D868F978FA0A3B1A38A899B89AC89B4
S1132F00BD898C0D9D1DAE1DBF1D86A397A3A0A7D3
S1132F10B1A766CE8FEF9FEFDC01F8018687978714
S1132F20A08BB18B82879387A487B58780E885833C
S1132F30E15AFF4F808190E0982F882731972081B4
S1132F40822B019709F4BECEF3E0F98B66CF8FEFA5
S1132F509FEFDC01F80186879787A08BB18B82876E
S1132F609387A487B58780E8858357CFFFEF4F0EFB
S1132F70F1E05F1E611C711C032E39E076946794A6
S1132F80579447943A95D1F7302D84149504A604A8
S1132F90B70408F47ACFDBCF6D960FB6F894DEBF92
S1132FA00FBECDBFDF91CF911F910F91FF90EF9096
S1132FB0DF90CF90BF90AF909F908F907F906F9055
S1132FC05F904F903F902F900895CF92DF92EF92B1
S1132FD0FF92FC019A01AB012250310941095109C8
S1132FE0C288D388E488F58882E0C81AD108E10849
S1132FF0F1082C153D054E055F0568F4A281B0E08B
S11330000E946E4AC6A0D7A0E0A4F1A46C0D7D1D59
S11330108E1D9F1D03C060E070E0CB01FF90EF9018
S1133020DF90CF900895AF92BF92CF92DF92EF924C
S1133030FF920F931F93CF93DF93EC016A017B01FF
S1133040423051056105710508F4C3C08A899B8922
S1133050AC89BD89481759076A077B0708F0BEC0C9
S11330608881823009F44BC0833009F46CC081300C
S113307009F0B9C08A0116950795040F151FC801F8
S1133080892F992786954E8D5F8D68A179A1480F68
S1133090591F611D711DCE010CDB8111A9C058019E
S11330A08FEFA81AB80A1170FE01E00FF11F16A5E0
S11330B0C501892F992786954E8D5F8D68A179A1C9
S11330C0480F591F611D711DCE01F3DA811194C09F
S11330D081E0B822CA0DDB1D8EA5612F70E0782B2C
S11330E0C0FE09C0729562956F7067277F7067276D
S11330F080E090E08CC07F7080E090E088C0452F35
S1133100562F672F77278E8D9F8DA8A1B9A1480FC1
S1133110591F6A1F7B1FCE01CCDA811171C0CC0C00
S1133120DD1CEE1CFF1CE894C0F881E0D822EE24DC
S1133130FF24FE01EC0DFD1D66A587A570E0782B2C
S113314080E090E064C08E8D9F8DA8A1B9A16894A1
S113315016F876956795579547951694D1F7480FC5
S1133160591F6A1F7B1FCE01A4DA81114DC0CC0CFC
S1133170DD1CEE1CFF1CCC0CDD1CEE1CFF1C8CEFBC
S1133180C82281E0D822EE24FF24F601BE96EC0F7B
S1133190FD1F22816381862F90E0A0E0B0E0B82F6C
S11331A0AA2799278827AC01BD01622B818190E071
S11331B0982F8827A0E0B0E0842B952BA62BB72B63
S11331C0FE01EC0DFD1D26A5822BBC01CD019F70D7
S11331D01EC061E070E080E090E019C061E070E042
S11331E080E090E014C061E070E080E090E00FC007
S11331F06FEF7FEFCB010BC06FEF7FEFCB0107C009
S11332006FEF7FEFCB0103C06FEF7FEFCB01DF9157
S1133210CF911F910F91FF90EF90DF90CF90BF90CF
S1133220AF900895AF92BF92CF92DF92EF92FF9248
S11332300F931F93CF93DF93EC018B017D836C83FA
S1133240CE80DF80E884F98481E0C816D104E104EB
S1133250F10409F48AC0E881F98182899389A489F7
S1133260B589C816D906EA06FB0608F080C0C11461
S1133270D104E104F104C1F48081833041F482A1DA
S113328093A1A4A1B5A10097A105B10559F4808526
S113329091850817190708F06CC062A173A184A175
S11332A095A135C06C017D01A28080E1A89E5001EA
S11332B011240A151B0530F1B701A60188819981F3
S11332C0B2DE6B017C018FEFC816D806E806F8065B
S11332D009F451C082E0C816D104E104F10408F4F1
S11332E04CC0E881F98182899389A489B589C8167B
S11332F0D906EA06FB0608F042C00A191B090A159A
S11333001B05D0F6B701A601888199815EDECA86C5
S1133310DB86EC86FD86611571058105910589F1D1
S11333209801329522952F7023273F702327DC01C3
S1133330CB01820F931FA11DB11D8E879F87A88B80
S1133340B98B0F701127000F111F02951295107F72
S11333501027007F1027025D1F4F88819981800FFD
S1133360911F9B8B8A8B80E00DC082E00BC082E0B2
S113337009C082E007C081E005C082E003C082E0AA
S113338001C082E0DF91CF911F910F91FF90EF90E8
S1133390DF90CF90BF90AF9008954F925F926F925D
S11333A07F928F929F92AF92BF92CF92DF92EF92D1
S11333B0FF920F931F93CF93DF93EC016A017B017C
S11333C028013901423051056105710508F4D8C05E
S11333D08A899B89AC89BD89481759076A077B0785
S11333E008F0D0C08881823009F462C0833009F4C7
S11333F085C0813009F0C8C05A01B694A794A40EC0
S1133400B51EC501892F992786954E8D5F8D68A1BC
S113341079A1480F591F611D711DCE014AD9182F7A
S11334208111D0C045018FEF881A980AA1E0BA2211
S1133430C0FE20C0FE01EA0DFB1D86A5282F2F70BB
S1133440B0E14B9EC0011124822B86A781E08C83BE
S11334504E8D5F8D68A179A1C401892F9927869526
S1133460480F591F611D711DCE0123D9882309F40A
S113347091C08CC0FE01EA0DFB1D46A681E08C8341
S11334804E8D5F8D68A179A1C401892F99278695F6
S1133490480F591F611D711DCE010BD9882309F4F2
S11334A084C076C0EC0FFD1F46A681E08C838AC0E1
S11334B0452F562F672F77278E8D9F8DA8A1B9A1F1
S11334C0480F591F6A1F7B1FCE01F3D8182F811193
S11334D079C0CC0CDD1CEE1CFF1CE894C0F831E074
S11334E0D322EE24FF24FE01EC0DFD1D46A6FE01B1
S11334F0EC0DFD1D57A681E08C8364C08E8D9F8DDD
S1133500A8A1B9A1689416F876956795579547953B
S11335101694D1F7480F591F6A1F7B1FCE01C9D8D3
S1133520182F81114FC0CC0CDD1CEE1CFF1CCC0CE1
S1133530DD1CEE1CFF1C8CEFC82281E0D822EE2497
S1133540FF24F601BE96EC0FFD1F838190E0A0E0FE
S1133550B0E0B82FAA2799278827CC0EDD1E88272C
S11335609927AA27B07F482A592A6A2A7B2AD60192
S11335709E964C9251826282738281E08C8322C037
S113358012E020C012E01EC012E01CC0182F1AC0A6
S1133590182F18C0F401F170689413F876946794A6
S11335A0579447941694D1F77DCFF401F170DE015E
S11335B0AE0FBF1F9E969C91907F852D8F70492ED4
S11335C0482A70CF812FDF91CF911F910F91FF90E7
S11335D0EF90DF90CF90BF90AF909F908F907F90AF
S11335E06F905F904F9008952F923F924F925F9209
S11335F06F927F928F929F92AF92BF92CF92DF92FF
S1133600EF92FF920F931F93CF93DF93EC012A0164
S11336103B014115510561057105B9F48A849B8408
S1133620AC84BD8481149104A104B10459F18A8944
S11336309B89AC89BD8988169906AA06BB0630F118
S1133640812C912C5401839421C0EDDC6B017C010D
S1133650623071058105910508F496C08FEFC81694
S1133660D806E806F80609F494C08A899B89AC89CF
S1133670BD89C816D906EA06FB0608F48FC05301B3
S1133680420104C0812C912C54018394750164017E
S11336906894222421F8312C00E010E02FEFC21AA4
S11336A0D20AE20AF20A8A899B89AC89BD89C816C2
S11336B0D906EA06FB0658F082E088169104A104B4
S11336C0B10408F470C0C22CD32CE02EF12EB70143
S11336D0A601CE01A8DC611571058105910599F05B
S11336E06F3F2FEF72078207920709F461C06130C0
S11336F071058105910509F460C0C814D904EA0470
S1133700FB0461F65FC08C2C9D2CAE2CBF2C0FEFFC
S11337101FEF2FEF3FE0B701A601CE013EDE81117E
S11337202CC0411451046104710451F00C2D1D2D61
S11337302E2D3F2DB301A201CE012FDE81111DC01C
S11337408A869B86AC86BD868E859F85A889B98925
S11337508F3F2FEF9207A207B207C9F10197A10982
S1133760B1098E879F87A88BB98B8D8181608D83EA
S11337706C2D7D2D8E2D9F2D33C0813069F161E03C
S113378070E080E090E02CC061E070E080E090E0C8
S113379027C06FEF7FEF8FEF9FEF22C06C2D7D2D41
S11337A08E2D9F2D1DC060E070E080E090E018C079
S11337B06FEF7FEF8FEF9FEF13C061E070E080E069
S11337C090E00EC060E070E080E090E009C06C2DF5
S11337D07D2D8E2D9F2D04C06FEF7FEF8FEF9FEF18
S11337E0DF91CF911F910F91FF90EF90DF90CF90D9
S11337F0BF90AF909F908F907F906F905F904F900D
S11338003F902F9008957F928F929F92AF92BF9294
S1133810CF92DF92EF92FF920F931F93CF93DF9398
S1133820DC011496CD91DC911597219609F403C11E
S11338301E968D909D90AD90BC90519781149104EB
S1133840A104B10409F4F9C07B018C016E01BFE04D
S1133850CB22DD24C114D10409F0D1C0EFEF8E1ABC
S11338609E0AAE0ABE0ADC011E968D929D92AD920E
S1133870BC9251971A964D915D916D917C911D97D3
S1133880411551056105710549F4ED91FC9180855F
S11338909185C817D90708F0D2C0B1C0DC01ED91F9
S11338A0FC91228130E021503109CE01929582951C
S11338B08F7089279F70892728233923232B09F0A8
S11338C09EC0CF01B0DB4B015C0162307105810504
S11338D0910508F4B6C06F3F7F4F8F4F9F4F09F497
S11338E0B2C0D801ED91FC9182899389A489B589EC
S11338F088169906AA06BB0608F470C0EF2809F4D6
S1133900A4C0D8011A964D915D916D917C911D973B
S1133910CF016ADE4B015C016115710581059105DA
S113392009F495C0613071058105910509F491C0D0
S11339306F3F7F4F8F4F9F4F09F48DC0D8018D91FA
S11339409C910E94EE12811188C0F80180819181BE
S1133950FC01BE96825D9D4F1192E817F907E1F7CD
S1133960D801ED90FC90B501A401C7012EDBF7014D
S113397062A773A784A795A7E12CF12C77247394ED
S113398019C07482D8018D919C910E94EE1281110C
S113399066C0D801ED91FC9182A593A5A4A5B5A517
S11339A00196A11DB11D82A793A7A4A7B5A7BFEF38
S11339B0EB1AFB0AD801ED91FC91828190E0E816A4
S11339C0F906F8F282A593A5A4A5B5A58E199F09B9
S11339D0A109B10982A793A7A4A7B5A7F801828674
S11339E09386A486B586B501A40180819181EDDA20
S11339F0D8011E966D937D938D939C935197F801F6
S1133A00D583C483CC0CDD1CCC0CDD1CCC0CDD1CA0
S1133A10CC0CDD1CCC0CDD1CFEE2CF0ED11CD8017D
S1133A208D919C911197C80ED91E5396DC92CE921B
S1133A30529780E015C084E013C084E011C084E094
S1133A400FC082E00DC081E00BC084E009C087E0B4
S1133A5007C082E005C081E003C081E001C081E0CD
S1133A60DF91CF911F910F91FF90EF90DF90CF9056
S1133A70BF90AF909F908F907F9008951F93CF93A6
S1133A80DF9300D000D000D0CDB7DEB79C838B830A
S1133A907E836D83142F7A836983CE0101960E94FD
S1133AA0B712992334F1FC01EE0FFF1FED5AFB4FBF
S1133AB00190F081E02D309709F01082EB81FC81B8
S1133AC03097E9F010822B813C81880F991FFC010B
S1133AD0ED5AFB4F31832083232B69F0113069F4B5
S1133AE040E0BE016B5F7F4FCE0103960E9423141A
S1133AF00EC08BE00CC080E00AC080E008C0880FD4
S1133B00991FFC01ED5AFB4F1182108280E026962A
S1133B100FB6F894DEBF0FBECDBFDF91CF911F91DA
S1133B2008952F923F924F925F926F927F928F925D
S1133B309F92AF92BF92CF92DF92EF92FF920F9338
S1133B401F93CF93DF93CDB7DEB7AE970FB6F8943C
S1133B50DEBF0FBECDBF7CA36BA3009709F483C265
S1133B604DA31C01DC011D921C924E71BE016D5DC2
S1133B707F4FCE0101960E942314811103C3CE010D
S1133B8047969E8B8D8BCBA0DCA0F60180818F3273
S1133B9011F08C3519F4FFEFCF1ADF0A2DA12F7124
S1133BA029A71F82188619861A86D6018C9180321D
S1133BB068F460E070E0CE01019634DB1C8A1B8A55
S1133BC0E12CF12C882309F491C287C26894BB24A8
S1133BD0B5F8A12C712C6894662463F8512C412CFF
S1133BE06AA65EA6F601AF0181918F32E1F38C35AE
S1133BF0D1F30D891E89F801C8010B96B192E8171B
S1133C00F907E1F76A01EA2CF72C8A2D972D862C07
S1133C10952C742DDA0101966D91613208F43CC241
S1133C206F3209F43EC26C3509F43BC26E3209F4BA
S1133C301CC2E814F90408F079C20AC0770F770FA0
S1133C40EAA4FEA40F2EFBE08F2EF02D912CE3CFDF
S1133C5066230CF010C27360E62FF0E0EA56FF4FC3
S1133C60608109C28191882309F40FC290E048174A
S1133C705907C1F786E077C2726006C02FE9260FA4
S1133C802A3110F471606052F801EE0DFF1D60835B
S1133C90F70131967F01BFCFEF2809F447C2D8015D
S1133CA02C91253E11F4E5E0EC93F8E08F16910495
S1133CB019F4792F770F770F972F9370913009F4B8
S1133CC08061972F9C70943009F48860D8011B960A
S1133CD08C936A2D772DCE010196A4DA8111ECC163
S1133CE04F85588969897A8989819A810E945913F3
S1133CF08111E2C16B897C89FB0180818823D1F029
S1133D00838583FD0FC04D895E89DA019B01255FA0
S1133D103F4F04C0E217F30709F4C8C191918D9194
S1133D209817C1F36A2D772DCE0101966CDD882397
S1133D30B9F2C2C1ED89FE89938592FD0DC285E079
S1133D4012C2DB011B968C9184FF08C289819A817F
S1133D500E9495126F83788789879A8743CF811150
S1133D60EFC144C060E070E0CE0101965BDA8111DE
S1133D7006C24F85588969897A8989819A810E9406
S1133D8059138111FCC1EB89FC898081853E51F076
S1133D90882341F061E070E0CE01019634DD882390
S1133DA041F3EDC14F85588969897A8989819A815E
S1133DB00E9459138111CAC1EB89FC89CF018096F5
S1133DC01192E817F907E1F76D897E894BE050E01D
S1133DD08B899C890E948712E981FA8181E084831E
S1133DE0B9A5B860B9A7EB88FC8808C0F70183853A
S1133DF0817109F082C1FDA1F2FD81C129A523FFD2
S1133E00DBC00E94F830D7011E966C931E97472F93
S1133E1055271F964C931F974C01AA24BB245096F8
S1133E208C925097092F11272227332751960C93F0
S1133E30519756966C93569757964C935797589616
S1133E408C92589759960C9359971B961C921B97D2
S1133E505C961C925C975D961C925D975E961C9294
S1133E605E975F961C92C980DA80B701C6010E94F2
S1133E7095124B015C01F701128E138E148A158A78
S1133E8081E0D60114968C93149781149104A104B3
S1133E90B10409F491C09A962D913D914D915C9194
S1133EA09D972AA73BA74CA75DA7B2E08B16910468
S1133EB0A104B10408F428C1F60182899389A48974
S1133EC0B58988169906AA06BB0608F01FC18DA2FB
S1133ED09EA2AFA2B8A63FC04DA15EA16FA178A5D6
S1133EE0C601A1D82B013C0161157105810591051D
S1133EF009F440C0613071058105910509F408C1D8
S1133F006F3F7F4F8F4F9F4F09F404C100E010E0D3
S1133F1098014DA15EA16FA178A5C6013EDA811179
S1133F20FAC0F60186859785A089B1898F3FFFEF96
S1133F309F07AF07BF0759F00196A11DB11DF601F8
S1133F4086879787A08BB18B8581816085834DA2FD
S1133F505EA26FA278A6F60182899389A489B589A5
S1133F602DA13EA14FA158A5281739074A075B0781
S1133F7008F4B2CF89819A8131E0831A9108A108AB
S1133F80B108DC011A968D929D92AD92BC921D9758
S1133F904AA55BA56CA57DA50E945913882379F0D9
S1133FA0F1C08111BFC0F701838584FDB8C0FDA1B4
S1133FB0F1FF02C080FDB5C029A523FF03C039A5C8
S1133FC0306239A7E981FA8182A593A5A4A5B5A594
S1133FD0F101828F938FA48FB58FF78EE68EE9A5BA
S1133FE0D1011496EC93149715961C9209811A81A9
S1133FF0B701C8010E949512D1011E966D937D935D
S11340008D939C935197F701278D868D90E0A0E0C6
S1134010B0E0DC0199278827B22B248DAC01BD01C7
S1134020422B258D30E0922F8827A0E0B0E0842B2E
S1134030952BA62BB72BF10182879387A487B5878D
S11340401682178210861186168A178A108E118E90
S113405011830083D80116968D919C9117979383B1
S1134060828380E08FC089E08DC0E8E08E169104E1
S113407009F4E4CD75C0462F50E04232510509F4ED
S113408071C0E8E0F1E09C01EDCDC9012FEB260FF2
S11340902A3108F4F1CDF2CDC80ED91E972F84E051
S11340A0FBCDC80ED91E972F842DF6CDDA011B96B1
S11340B08C9182FF46CE0DC0ED89FE8993858430B4
S11340C009F43BCEEB88FC889DA19C7109F047CE96
S11340D068CF7B01672B29F409C00DA10C7181F510
S11340E021C08DA18C7109F081CE5DCF0DA10C7121
S11340F051F5E12CF12C86E015C087E001C088E081
S1134100882309F459CF3EC082E005C082E003C091
S113411082E001C081E0882309F451CF33C084E0F8
S113412001C087E0882309F45ACF2CC0EB88FC88AF
S113413086E0D3CFB9A5B860B9A7EB88FC88F2CFE5
S11341408430C1F70FCE86E001C087E0E9A5E860BE
S1134150E9A7EB88FC88E6CF84E005C085E003C0CE
S113416086E001C086E0EB88FC889DA19C7141F744
S113417018CFF9A5F860F9A7EB88FC88D3CF843071
S113418021F3F7CFAE960FB6F894DEBF0FBECDBFC6
S1134190DF91CF911F910F91FF90EF90DF90CF901F
S11341A0BF90AF909F908F907F906F905F904F9053
S11341B03F902F9008953F924F925F926F927F921B
S11341C08F929F92AF92BF92CF92DF92EF92FF9223
S11341D00F931F93CF93DF9300D000D000D0CDB7BF
S11341E0DEB79E838D834B016A015901D9011D926B
S11341F01C920E94FE138111C0C1ED81FE81858154
S11342008111BBC1848181FFB7C186819781A0855B
S1134210B185AC01BD014C0D5D1D611D711D4817BB
S113422059076A077B0708F48AC1C114D10409F449
S113423086C1B096FC83EB83ED81FE8186819781F4
S1134240A085B185AC01BD01517066277727452B48
S1134250462B472B09F032C1E080F180F70122811F
S11342602150AC01BD01032E39E076956795579531
S113427047953A95D1F7302D322E342209F052C0A9
S1134280892B8A2B8B2B99F4AD81BE811E966D915F
S11342907D918D919C9151976115710581059105D1
S11342A0A1F440E050E0BA01C7019ED908C0ED81F5
S11342B0FE814289538964897589C70195D961153D
S11342C071058105910509F43AC1613071058105D3
S11342D0910531F482E0AD81BE8115968C934DC178
S11342E06F3FBFEF7B078B079B0729F481E0ED81CC
S11342F0FE81858342C1AD81BE8152966D937D93CB
S11343008D939C9355971E964D905D906D907C90E7
S1134310519745284628472829F4FD016687778761
S1134320808B918BAD81BE8114968C91149786FFFE
S11343301EC056962D913D914D915C915997ED91EA
S1134340FC9101E010E06B817C8181810E94ED0A87
S1134350882329F081E0ED81FE8185830EC1AD8142
S1134360BE8114968C9114978F7B14968C93ED8157
S1134370FE810190F081E02DFA83E983AD81BE8155
S113438052964D915D916D917C915597CF010E940C
S1134390E517611571058105910529F482E0ED8128
S11343A0FE818583EAC02B013C01430C511C611C36
S11343B0711C7601EF2CFF24E694E114F10409F456
S11343C04AC0A981BA8112964C91242F30E0C701CA
S11343D0830D911D2817390718F47901E318F108A2
S11343E08701A3019201B401E981FA8181810E94CC
S11343F0ED0A882331F081E0AD81BE8115968C935E
S1134400BCC0ED81FE8186899789A08DB18D841908
S11344109509A609B709A70160E070E0841795071C
S1134420A607B707A0F4982F8827990FB401680F3F
S1134430791F40E052E08B819C810E948712AD81FC
S1134440BE8114968C9114978F7B14968C93FE2CBA
S1134450EE24FF0C58C0ED81FE8186899789A08DDA
S1134460B18D84159505A605B70501F146815781DF
S11344706085718582859385A485B585481759071C
S11344806A077B0798F401E010E0A30192016B81B5
S11344907C81A981BA8111968C910E949B0A882300
S11344A029F081E0ED81FE81858367C0AD81BE8105
S11344B056964D925D926D927C925997ED81FE8154
S11344C086819781A085B185AC01517020E032E0EE
S11344D0241B350B76012C153D0508F479019170E8
S11344E0AA27BB278096A701B4012D813E81820FA4
S11344F0931F0E948712AD81BE8114968C911497EC
S1134500806414968C938E0C9F1CED81FE818681B1
S11345109781A085B1858E0D9F1DA11DB11D868338
S11345209783A087B187D5018D919C9111978E0DAA
S11345309F1D8D939C93CE18DF0809F07DCEED81ED
S1134540FE8186819781A085B185428553856485E6
S11345507585481759076A077B0720F48287938774
S1134560A487B587AD81BE8114968C91149780621F
S113457014968C9380E001C087E026960FB6F894D9
S1134580DEBF0FBECDBFDF91CF911F910F91FF9082
S1134590EF90DF90CF90BF90AF909F908F907F90DF
S11345A06F905F904F903F900895EF92FF920F931A
S11345B01F93CF93DF9300D0CDB7DEB7FC012281E8
S11345C0338133236CF18C017901FFEFEF1AFF0A79
S11345D0FC01E20FF31F66838DE3E816F104C4F0D7
S11345E09E012F5F3F4FA701B8016A5F7F4FF8011B
S11345F080819181E0DD81E090E029813A81E216B9
S1134600F30611F480E090E0EE24FF24E81AF90A9E
S1134610F801F382E28284819581019695838483F3
S11346200F900F90DF91CF911F910F91FF90EF901A
S113463008950F931F93CF93DF93EC010E94FE1311
S11346408111B5C08C8185FFB4C086FF13C02E894B
S11346503F89488D598DE881F98101E010E0BE0160
S1134660605E7F4F81810E94ED0A8111A4C08C811C
S11346708F7B8C834A8D5B8D6C8D7D8D8881998138
S11346800E945913811199C00E8D1F8DF8018385E5
S1134690806283878A85848F8B85858F8C85868FBE
S11346A08D85878F8E859F85A889B989828F938F01
S11346B0CD01AA27BB27848B958B0E94F830F80183
S11346C0668B778B808F918F128A138A8C818F7D72
S11346D08C83E881F98181E084830990D881C02D9D
S11346E0CE010E94EE1281116AC08881833009F0E4
S11346F053C08D81813009F04FC0BE01625D7F4F90
S1134700FB01CE01825D9D4F1192E817F907E1F795
S113471085E5FE01E45DFD4F80838AEA319680835E
S113472082E58EA78FA781E688AB91E499AB22E757
S11347307B972083319620833196908331968083B2
S11347403E852F85988989893196308331962083D7
S113475031969083319680833A852B859C858D850F
S113476031963083319620833196908331968083BD
S11347708A8D9B8DAC8DBD8D9C01AD012F5F3F4F0C
S11347804F4F5F4F2AA73BA74CA75DA701E010E05E
S113479089810E94ED0A1D8240E050E060E0898139
S11347A00E945B0B91E081110BC090E009C0982F2F
S11347B007C090E005C091E003C0982F01C0982F76
S11347C0892FDF91CF911F910F910895CF93DF939C
S11347D0EC012FDF811107C0CE010E94FE1381116D
S11347E002C019821882DF91CF9108952F923F92CF
S11347F04F925F926F927F928F929F92AF92BF92ED
S1134800CF92DF92EF92FF920F931F93CF93DF9398
S1134810CDB7DEB7CC55D1090FB6F894DEBF0FBEC5
S1134820CDBFE596EEACFFACE597E3968EAD9FADBC
S1134830E3979C8B8B8B1E8A1D8A188E1F8A2E01F0
S113484025E7420E511C212C0F2EF7E03F2EF02DB0
S1134850D7016C91662309F48EC1653239F0BFEF3C
S1134860EB1AFB0ACE014396A0DEF2CFF701D1800A
S1134870F0E3DF1209C0D7011296DC90F7013396FA
S11348807F017724739411C0FDE2DF1629F022E042
S1134890E20EF11C712C09C0D7011296DC90F701CD
S11348A033967F016894772471F880ED8D0D8A30FA
S11348B0F0F4022D10E08D2D9801220F331F000F0C
S11348C0111F000F111F000F111F020F131F080FDC
S11348D0111D00531109FFEFEF1AFF0AF701319779
S11348E0808190ED980F9A3038F3D82E02C0022DB3
S11348F010E08D2D8F7D8C3441F4272D2460722E91
S1134900D701DC90F70131967F01DD2009F433C132
S11349108FE98D0D8A3118F430EE3D0D01C03D2D27
S1134920832F90E0FC01E254F109E731F10508F02E
S113493058C0E358FF4F0C94564AF201A080B1804E
S1134940F2E04F0E511CD5016C91662309F438C175
S1134950F5013196C22CD12CBFEFCB1ADB0A819121
S11349608111FACF2AC1C22CD12C66246394712CF4
S1134970460160E2CE01439618DEEFEF8E1A9E0ADE
S113498080169106B0F393012C193D096901C00EFC
S1134990D11ED5016C91662359F0BFEFAB1ABB0A47
S11349A0CE01439602DEF50161915F016111F8CFFA
S11349B0C016D10608F04CCF60E2CE014396F5DD77
S11349C0FFEFCF1ADF0AC016D106B0F341CF820140
S11349D00E5F1F4FD2016C91CE014396E6DD280194
S11349E037CF6D2DCE014396E0DD32CF72FE0EC07F
S11349F0AAE001C0A0E1F20160817181828193810A
S1134A00B4E04B0E511C343431F519C0AAE03434EF
S1134A1061F4F20160817181072E000C880B990BFF
S1134A2092012E5F3F4F29010AC0F201608171811A
S1134A3080E090E092012E5F3F4F29010CC0992342
S1134A4054F490958095709561957F4F8F4F9F4F4B
S1134A50372D3860732EAE014D5F5F4F5A01822CA3
S1134A60912C2A2F30E040E050E06D962CAF3DAF02
S1134A704EAF5FAF6D97970178011D2D69016D965B
S1134A802CAD3DAD4EAD5FAD6D970E94344AF62F0F
S1134A90E62F622F732F842F952FFA3030F01837BA
S1134AA011F0E32D01C0E7E2EF0F3FEF831A930A01
S1134AB0E05DD501ED935D016115710581059105F9
S1134AC021F0B0E18B169104D1F68701760173FED3
S1134AD00CC0E3E0F0E0EC0FFD1FE80DF91D2DE242
S1134AE02083A4014F5F5F4F4A0170FC04C06894A7
S1134AF0662465F804C00F2EF0E36F2EF02D71FCD0
S1134B0015C064015FEFC51AD50A8016910608F432
S1134B1065C00DC08FEFC81AD80AC016D10608F4B4
S1134B2058C068019FEFC91AD90A01C064010F2E49
S1134B30F3E0AF2EB12CF02DAC0EBD1EA80CB91CA9
S1134B40A1E08A1A9108F50162915F01CE014396B2
S1134B502CDD81149104A1F7C016D10608F078CE9B
S1134B60662DCE01439621DDFFEFCF1ADF0AC01672
S1134B70D106B0F36DCE4D895E895523ACF09E010C
S1134B802F5F3F4FBE01675E7F4F8B899C8913DB8C
S1134B9081110DC02D893E8989819A812817390791
S1134BA049F48F89988D52C08FEF9FEF4FC08FEFDC
S1134BB09FEF4CC08FEF9FEF49C071FE19C0EDCE3F
S1134BC071FE1FC0C22CD12CF3CE72FC13CFA0E116
S1134BD02CCF662DCE014396E8DC9CCF662DCE010A
S1134BE04396E3DC640196CFD5016C916301D5CE85
S1134BF03601BFEF6B1A7B0AC016D10608F4B8CE93
S1134C00F3CF0115110509F0AECECC24C394D12CF9
S1134C10CFCEF201608171818281938192012C5FF8
S1134C203F4F2901A2E017CF72FCF3CFA2E0EFCEF1
S1134C30D2016D917D918D919C91F20134962F0159
S1134C40A8E009CF72FCF4CFA8E0EFCEC45ADF4F3E
S1134C500FB6F894DEBF0FBECDBFDF91CF911F9189
S1134C600F91FF90EF90DF90CF90BF90AF909F9007
S1134C708F907F906F905F904F903F902F9008950A
S1134C8082E08093B8000895089584EA8093BC007C
S1134C90089584E98093BC000895ECEBF0E08081F2
S1134CA08823ECF76093BB0084E88093BC00ECEBB2
S1134CB0F0E080818823ECF70895662321F084ECEA
S1134CC08093BC0003C084E88093BC00ECEBF0E06C
S1134CD080818823ECF78091BB0008952AB1206677
S1134CE02AB928B1237F28B927B12C6027B92AB162
S1134CF0237E2AB9FC010C961192E817F907E1F713
S1134D0008950895FB01808190E0042E02C09595DA
S1134D1087950A94E2F780FF05C081E0F90180835A
S1134D2080E00895F9018081813071F4FB01608194
S1134D3070E0FB0102C0F595E7954A95E2F7E0FDC6
S1134D4003C0F90110820895F901108280E00895EA
S1134D501F93CF93DF93EC01439A82E08A95F1F796
S1134D6000C09E012E5F3F4F44E069E270E0CE0137
S1134D70C9DF811114C09E012F5F3F4F43E069E2F8
S1134D8070E0CE01BFDF81110CC09E0142E069E2F8
S1134D9070E0CE01B7DF882331F011E305C013E3DF
S1134DA003C012E301C010E24398429A82E08A955C
S1134DB0F1F700C09E012B5F3F4F44E069E270E0D1
S1134DC0CE01A0DF811116C09E012C5F3F4F43E04E
S1134DD069E270E0CE0196DF81110EC09E012D5F65
S1134DE03F4F42E069E270E0CE018CDF882329F076
S1134DF014E303C016E301C015E342985E9A82E00F
S1134E008A95F1F700C09E01285F3F4F44E069E2B4
S1134E1070E0CE0177DF811116C09E01295F3F4FFC
S1134E2043E069E270E0CE016DDF81110EC09E01A6
S1134E302A5F3F4F42E069E270E0CE0163DF8823DE
S1134E4029F017E303C019E301C018E35E985D9AE3
S1134E5082E08A95F1F700C09E01255F3F4F44E050
S1134E6069E270E0CE014EDF811116C09E01265F1B
S1134E703F4F43E069E270E0CE0144DF81110EC090
S1134E809E01275F3F4F42E069E270E0CE013ADFC6
S1134E90882329F01AE203C013E201C010E35D98ED
S1134EA0812FDF91CF911F91089552DF482F50E059
S1134EB0FA01B397E731F105C0F4EC56FF4F0C94B7
S1134EC0564A85E7089581E408958CE608958FE6AF
S1134ED0089582E7089589E5089584E6089588E5AC
S1134EE0089585E608958DE6089580E2089582E4A4
S1134EF00895CF93DF93EC01CE012ADF80538A30EB
S1134F00D8F7DF91CF9108954696BECE08950F93BA
S1134F101F93CF93DF93062F142FEC016696CE01D7
S1134F20B4DE6AE3CE01B9DE602FCE01B6DE612FB6
S1134F30CE01B3DECE01ADDEDF91CF911F910F9193
S1134F40089540E06EE2E3CF0895CF93DF93EC0140
S1134F5047E460E2DCDF40E061E2CE01D8DF40E814
S1134F6064E2CE01D4DFCE01ECDFDF91CF9108956E
S1134F70CF93DF93EC01469683DE1F821E82188650
S1134F8019861A861B861C861D861E861F86198A0C
S1134F90188A1A8A1B8A1C8A1D8ADE01A152BF4FF5
S1134FA01D921D921D921C921397FE01ED51FF4F0D
S1134FB0108211821282138234968BE190E09183E5
S1134FC08083198218821B821A821D821C82E05DF2
S1134FD0F1099D011192119211921192E217F307B6
S1134FE0C9F7CE01B2DFDF91CF91089580E0089533
S1134FF0FC01DB019C91953639F481A5813011F4D3
S113500011A602C081E081A780E0089580E00895A0
S113501080E008950F93CF93DF93EC018F89988DEF
S11350200E940E0DE881F9810190F081E02DCE01FE
S11350300995E881F9810280F381E02DCE0109957B
S1135040E98DFA8D09A52289418960898F89988D16
S11350500E94520FE98DFA8D608160532DE046E481
S11350608F89988D0E94D80EE98DFA8D61816053E5
S11350702DE046E58F89988D0E94D80EE98DFA8D32
S11350806381605322E246E48F89988D0E94D80E92
S1135090E98DFA8D6481605322E246E58F89988D0B
S11350A00E94D80E8F89988D0E948E0DDF91CF912A
S11350B00F910895CF93DF93EC018F89988D0E940F
S11350C00E0D8F89988D0E948E0DDF91CF910895DA
S11350D0EF92FF920F931F93CF937C01C1E400E002
S11350E010E0D7015996ED91FC915A97E00FF11F0A
S11350F028E34C2F608557968D919C9158970E9478
S11351008E0E0F5F1F4FCA5FC13759F7CF911F91A2
S11351100F91FF90EF900895EF92FF920F931F93DA
S1135120CF937C01C0E500E010E0D7015996ED91E2
S1135130FC915A97E00FF11F28E34C2F6085579696
S11351408D919C9158970E948E0E0F5F1F4FCA5FDE
S1135150C03859F7CF911F910F91FF90EF900895A8
S11351608F929F92AF92BF92EF92FF920F931F93F1
S1135170CF93DF93EC018F89988D0E940E0DE88107
S1135180F9810190F081E02DCE010995E881F98142
S11351900280F381E02DCE01099520E847E360E029
S11351A08F89988D0E94170E25E44FE060E08F8967
S11351B0988D0E94170E2BE347E065E48F89988D44
S11351C00E94170E20E140E065E48F89988D0E94CB
S11351D0FD0D21E447E26FE38F89988D0E94170E3D
S11351E020E340E16FE38F89988D0E94FD0D21E457
S11351F048E16FE38F89988D0E94170EE98DFA8D2F
S11352006081605320E040E08F89988D0E94D80E21
S1135210E98DFA8D6181605320E040E18F89988D9A
S11352200E94D80EE98DFA8D6381605320E045E237
S11352308F89988D0E94D80EE98DFA8D6481605310
S113524020E045E38F89988D0E94D80E7E0122E0EC
S1135250E20EF11C8091B2088F938091B1088F9374
S11352608091B0088F938091AF088F9386E991E085
S11352709F938F93FF92EF920E94414E8E8B18E082
S1135280181B8DB79EB708960FB6F8949EBF0FBE35
S11352908DBF1830F8F4012F0295007F8E89FE012E
S11352A0E10FF11DE80FF11D369760816E3239F47C
S11352B020E2402F8F89988D0E948E0E07C0605384
S11352C028E1402F8F89988D0E94D80E1F5F005FC0
S11352D0183021F720E030E04AE754E46091AB084D
S11352E07091AC088091AD089091AE080E9445433E
S11352F09F938F937F936F938CE991E09F938F9308
S1135300FF92EF920E94414E8E8B2DB73EB7285FDD
S11353103F4F0FB6F8943EBF0FBE2DBF882389F0D0
S113532006E410E0FE01E10FF11D20E1402F62814F
S11353308F89988D0E948E0E1F5F0A5F8E891817C1
S113534088F38091AA088F938091A9088F93809104
S1135350A8088F938091A7088F9383EA91E09F9385
S11353608F93FF92EF920E94414E8E8B2DB73EB7E2
S1135370285F3F4F0FB6F8943EBF0FBE2DBF882362
S113538089F006E410E0FE01E10FF11D28E2402F50
S113539062818F89988D0E948E0E1F5F0A5F8E89AD
S11353A0181788F38090A3089090A408A090A508EB
S11353B0B090A608C501B4012CE330E040E050E011
S11353C00E94344A1F926F931F922F93C501B40118
S11353D020E13EE040E050E00E94344A1F922F93C7
S11353E08CEA91E09F938F93FF92EF920E94414E3B
S11353F08E8B2DB73EB7265F3F4F0FB6F8943EBF56
S11354000FBE2DBF882389F006E410E0FE01E10FF2
S1135410F11D20E3402F62818F89988D0E948E0EAA
S11354201F5F0A5F8E89181788F36091A308709133
S1135430A4088091A5089091A608611571058105BD
S11354409105B1F41F921F921F921F9283EA91E07B
S11354509F938F93FF92EF920E94414E8E8B8DB754
S11354609EB708960FB6F8949EBF0FBE8DBF2AC094
S11354700E94DE439B01AC016091AB087091AC08C3
S11354808091AD089091AE080E94454326E636E629
S113549046E650E40E94F9449F938F937F936F9361
S11354A083EA91E09F938F93FF92EF920E94414E83
S11354B08E8B2DB73EB7285F3F4F0FB6F8943EBF93
S11354C00FBE2DBF8E89882389F00BE410E0FE0106
S11354D0E10FF11D28E0402F62818F89988D0E9491
S11354E08E0E1F5F0A5F8E89181788F38F89988D37
S11354F00E948E0DDF91CF911F910F91FF90EF903D
S1135500BF90AF909F908F9008952F923F924F92AB
S11355105F926F927F928F929F92AF92BF92CF923F
S1135520DF92EF92FF920F931F93CF93DF93CDB748
S1135530DEB72A970FB6F894DEBF0FBECDBF9A87A9
S11355408987DC0157968D919C9158970E940E0D86
S1135550A985BA85ED91FC9111970190F081E02D18
S1135560CD010995A985BA85ED91FC911197028029
S1135570F381E02DCD010995C090E108D090E208B7
S1135580E090E308F090E408C701B6010E94AD433F
S1135590A62E062E000C770B880B990B0E94E04375
S11355A09B01AC01C701B6010E94DD4220E030E05E
S11355B040E752E40E94F94469837A838B839C8395
S11355C00E94AD43B62E4090CD085090CE08609016
S11355D0CF087090D008C301B2010E94AD436B01A3
S11355E07C01072E000C880B990B0E94E0439B0161
S11355F0AC01C301B2010E94DD4220E030E040E78B
S113560052E40E94F9442B013C010E94AD43962EC2
S1135610062E000C770B880B990B0E94E0439B012C
S1135620AC01C301B2010E94DD4220E030E040E75A
S113563052E40E94F944162F872E382E292E6984AD
S11356407A84B2E06B0E711C6B2D0B2C000C770B63
S1135650880B990B0E94E0439B01AC0169817A811C
S11356608B819C810E94DD4220E030E040E752E4DF
S11356700E94F9449F938F937F936F938B2D0B2CF0
S1135680000C990B9F93BF928A2D0A2C000C990B46
S11356909F93AF928BEB91E09F938F937F926F9246
S11356A00E94414EE985FA85868B0FB6F894DEBFD9
S11356B00FBECDBF8823C1F000E0B12CE985FA8587
S11356C0EB0DF11D20E1402F6281A985BA85579623
S11356D08D919C9158970E948E0EB3940A5FE98530
S11356E0FA858689B81650F32F923F928F921F93B2
S11356F0892D092C000C990B9F939F92DF92CF92D6
S113570081ED91E09F938F937F926F920E94414E1F
S1135710A985BA8556968C930FB6F894DEBF0FBE52
S1135720CDBF8823C1F010E0F12CE985FA85EF0D97
S1135730F11D28E1412F6281A985BA8557968D9183
S11357409C9158970E948E0EF3941A5FE985FA850E
S11357508689F81650F38091BC088F938091BB081A
S11357608F938091BA088F938091B9088F9386EEB6
S113577091E09F938F937F926F920E94414EA985EF
S1135780BA8556968C930FB6F894DEBF0FBECDBF84
S11357908823C1F010E0F12CE985FA85EF0DF11DA5
S11357A020E2412F6281A985BA8557968D919C91FB
S11357B058970E948E0EF3941A5FE985FA858689BC
S11357C0F81650F38091B3081F928F938091B40818
S11357D01F928F938091B5081F928F938091B60882
S11357E01F928F938091B7081F928F938091B8086E
S11357F01F928F9380EF91E09F938F937F926F928C
S11358000E94414EA985BA8556968C930FB6F8949A
S1135810DEBF0FBECDBF8823C1F010E0F12CE985B7
S1135820FA85EF0DF11D28E2412F6281A985BA8521
S113583057968D919C9158970E948E0EF3941A5FFF
S1135840E985FA858689F81650F3EDE3F9E0838556
S11358508F9382858F9381858F9380858F938381A6
S11358608F9382818F9381818F9380818F938EE038
S113587092E09F938F937F926F920E94414EA985ED
S1135880BA8556968C930FB6F894DEBF0FBECDBF83
S11358908823C1F010E0F12CE985FA85EF0DF11DA4
S11358A020E3412F6281A985BA8557968D919C91F9
S11358B058970E948E0EF3941A5FE985FA858689BB
S11358C0F81650F3EDE3F9E087858F9386858F937F
S11358D085858F9384858F9385E192E09F938F9341
S11358E07F926F920E94414EA985BA8556968C93F9
S11358F00FB6F894DEBF0FBECDBF8823C1F000E021
S113590010E0E985FA85E10FF11D28E3402F62815B
S1135910A985BA8557968D919C9158970E948E0EB1
S11359201F5F0A5FE985FA858689181750F3A985F0
S1135930BA8557968D919C9158970E948E0D2A9600
S11359400FB6F894DEBF0FBECDBFDF91CF911F918C
S11359500F91FF90EF90DF90CF90BF90AF909F900A
S11359608F907F906F905F904F903F902F9008950D
S1135970EF92FF920F931F93CF93DF93EC018F89E4
S1135980988D0E940E0DE881F9810190F081E02D3F
S1135990CE010995E881F9810280F381E02DCE01E1
S11359A009957E0182E0E80EF11C85E598E6A2E700
S11359B0B0E08A839B83AC83BD8383E08E8B0CE051
S11359C010E0FE01E10FF11D20E1402F62818F897B
S11359D0988D0E948E0E1F5F0A5F8E89181788F3B8
S11359E086E0EBE1F2E0D70101900D928A95E1F7B0
S11359F085E08E8B0CE010E0FE01E10FF11D28E143
S1135A00402F62818F89988D0E948E0E1F5F0A5FDE
S1135A108E89181788F388E0E1E2F2E0D70101905B
S1135A200D928A95E1F787E08E8B0CE010E0FE0181
S1135A30E10FF11D20E2402F62818F89988D0E9431
S1135A408E0E1F5F0A5F8E89181788F38EE0E9E2D5
S1135A50F2E0D70101900D928A95E1F78DE08E8BEB
S1135A600CE010E0FE01E10FF11D28E2402F6281FD
S1135A708F89988D0E948E0E1F5F0A5F8E8918177A
S1135A8088F38CE0E7E3F2E0D70101900D928A9568
S1135A90E1F78BE08E8B0CE010E0FE01E10FF11DCD
S1135AA020E3402F62818F89988D0E948E0E1F5FA4
S1135AB00A5F8E89181788F32DA1220F220F220F57
S1135AC0205F40E06EE38F89988D0E948E0E8F894F
S1135AD0988D0E948E0DDF91CF911F910F91FF90B1
S1135AE0EF900895EF92FF920F931F93CF93DF935C
S1135AF0EC018F89988D0E940E0D7E0122E0E20E4A
S1135B00F11C8FE0E3E4F2E0D70101900D928A9555
S1135B10E1F78EE08E8B00E010E0FE01E10FF11D55
S1135B2020E0402F62818F89988D0E948E0E1F5F26
S1135B300A5F8E89181788F38FE0E2E5F2E0D70157
S1135B4001900D928A95E1F78EE08E8B00E010E0D3
S1135B50FE01E10FF11D28E0402F62818F89988DAD
S1135B600E948E0E1F5F0A5F8E89181788F380E4E7
S1135B708F9384E48F938AE78F9381EE8F9381E6EA
S1135B8092E09F938F93FF92EF920E94414E8E8BEF
S1135B902DB73EB7285F3F4F0FB6F8943EBF0FBEF8
S1135BA02DBF882389F000E010E0FE01E10FF11D14
S1135BB020E2402F62818F89988D0E948E0E1F5F94
S1135BC00A5F8E89181788F38F89988D0E948E0D2D
S1135BD0DF91CF911F910F91FF90EF900895ECE723
S1135BE0F0E090818F71907E892B8083EAE7F0E06A
S1135BF0808180648083808186FDFDCF80917800E0
S1135C00909179000895CF92DF92EF92FF9280E015
S1135C10E6DFBC0180E090E00E94DE4320E030EC4F
S1135C204FE754E40E9445432CE53FE842E550E445
S1135C300E94F9442DE031E740E050E40E94F94429
S1135C406093390970933A0980933B0990933C0916
S1135C5026E636E646E650E40E94DD4228E939E9C4
S1135C6049E15FE30E94454320E030E048EC52E420
S1135C700E94F9446B017C0120E030E040E251E4F1
S1135C800E94F9440E94B2438DEC689F812D112437
S1135C90869586958695880F282F220F220F820FCE
S1135CA0962F981B953070F0C701B6010E94B2433D
S1135CB070E06F5F7F4F072E000C880B990B0E94DA
S1135CC0E04309C0C701B6010E94B24370E080E01E
S1135CD090E00E94DE430E94AD43862FFF90EF9038
S1135CE0DF90CF900895EF92FF920F931F93CF937D
