:1000000058C3000080C300007EC300007CC3000012
:100010007AC3000078C3000076C3000074C30000F8
:1000200072C3000070C300006EC300000C94202C4B
:100030006AC300000C943C2C66C3000064C300003B
:100040000C94F82B60C300005EC300005CC300008A
:100050000C944D2C58C3000056C3000054C300003C
:1000600052C3000050C300004EC300004CC3000048
:100070004AC3000048C3000046C3000044C3000058
:1000800042C3000040C300003EC30000A409AB0906
:10009000F80A1B0AF80AF80AF80AF00AF80AF80A35
:1000A000F80AF80AF80AF80AF80AF80AF80AF80A40
:1000B000F80AF80AF80AF80AF80AF80AF80AF80A30
:1000C000F80AF80AF80AF80AF80AF80AF80AF80A20
:1000D000F80AF80AF80AF80AF80AF80AF80AF80A10
:1000E000F80AF80AF80AF80AF80AF80AF80AF80A00
:1000F000A10AA70AB80AC90ADE0A2123F4210322A9
:10010000FE21FE21FE21FE21FE21FE21FE21FE21F7
:10011000FE21FE212F23FE21FE21FE21AA21FE2108
:100120000322FE21FE21F2228024822482248224C2
:100130008224822482247E24822482248224822493
:100140008224852484246E247024722474247624CA
:1001500078247A247C249B2FAB2FAB2FAB2FAB2F93
:10016000AB2FAB2FAB2FAB2FAB2FAB2FAB2FAB2FBF
:10017000AB2FAB2FAB2FAB2FAB2FAB2FAB2FAB2FAF
:10018000AB2FAB2FAB2FAB2FAB2FAB2FAB2FAB2F9F
:10019000AB2FAB2FAB2FAB2FAB2FAB2FAB2FAB2F8F
:1001A000AB2FAB2FAB2FAB2FAB2FAB2FAB2FAB2F7F
:1001B000AB2FAB2FAB2FAB2FAB2FAB2FAB2F772FA3
:1001C000AB2FAB2FAB2FAB2FAB2FAB2FAB2F3E2FCC
:1001D0003A2FAB2F612FAB2FAB2F4B2FAB2FAB2F6A
:1001E0008B2FC738ED3814393C3963398D39B6391E
:1001F000E039573A813A05A84CCDB2D44EB93836D9
:10020000A9020C50B9918688083CA6AAAA2ABE0069
:100210000000803F07634236B79BD8A71A3968565B
:1002200018AEBAAB558C1D3CB7CC5763BD6DEDFD18
:10023000753EF6177231BF000000803F08000000D5
:10024000BE922449123EABAAAA2ABECDCCCC4C3ECB
:1002500000000080BEABAAAAAA3E00000000BF00BA
:100260000000803F0000000000084178D3BB4387B6
:10027000D1133D190E3CC3BD4282AD2B3E68EC82CA
:1002800076BED98FE1A93E4C80EFFFBE01C4FF7F4F
:100290003F000000000000E0F8FCFE1E0707070713
:1002A0001EFEFCF8F00000070F3F3F7C707070707E
:1002B0007C3F1F1F0700000000060707FFFFFFFF2E
:1002C0000000000000000000000000007F7F7F7F32
:1002D00000000000000000383C3E3E0F070707CF3B
:1002E000FFFEFE3800000040406070787C7E7F7723
:1002F00073717070000000181C1E1E0FC7C7E7FF47
:10030000FEBE9C000000000C1C3C3C7870707079B4
:100310007F3F1F0F0000000080C0E070381C1EFFF0
:10032000FFFFFF0000000607070706060606067F18
:100330007F7F7F06060000000000F0FFFFFFE7E779
:10034000E7E7C78700000000387871707070707040
:10035000393F3F1F0F000080E0F0F8FC7F7F6F67A0
:10036000E1E1C0800000000F1F3F3F7870707070A7
:10037000783F3F1F0F00000707070707C7E7F7FF92
:100380007F3F1F0703010020387C7E3F0F070300DB
:100390000000000000000000001CBEFEFFE7C3C319
:1003A000E7FFFEBE1C0000000E3F3F7F71606060F3
:1003B000717F3F3F0F000078FCFEFE8F07070707A5
:1003C0008FFEFEFCF800000000014343737B7F7F3B
:1003D0001F0F0703000000005F0000000700070078
:1003E000147F147F14242A7F2A1223130864623690
:1003F000495522500005030000001C224100004125
:10040000221C0014083E081408083E08080050305A
:1004100000000808080808006060000020100804B8
:10042000023E5149453E00427F40004261514946EB
:100430002141454B311814127F1027454545393C61
:100440004A49493001710905033649494936064987
:1004500049291E00363600000056360000081422D6
:10046000410014141414140041221408020151090B
:1004700006324979413E7E1111117E7F4949493644
:100480003E414141227F4141221C7F494949417FF0
:10049000090909013E4149497A7F0808087F00415E
:1004A0007F41002040413F017F081422417F4040AE
:1004B00040407F020C027F7F0408107F3E41414193
:1004C0003E7F090909063E4151215E7F09192946EF
:1004D000464949493101017F01013F4040403F1FEA
:1004E0002040201F3F4038403F6314081463070832
:1004F0007008076151494543007F414100020408EB
:1005000010200041417F00040201020440404040AD
:1005100040000102040020545454787F4844443879
:100520003844444420384444487F385454541808CC
:100530007E0901020C5252523E7F080404780044A6
:100540007D40002040443D007F1028440000417F52
:1005500040007C041804787C08040478384444443F
:10056000387C14141408081414187C7C080404083B
:100570004854545420043F4440203C4040207C1CBC
:100580002040201C3C4030403C44281028440C5063
:1005900050503C4464544C44000836410000007FF5
:1005A0000000004136080010080810086E616E0057
:1005B000696E660000407A10F35A00A0724E180966
:1005C0000010A5D4E80000E87648170000E40B54BA
:1005D000020000CA9A3B000000E1F5050000809689
:1005E0009800000040420F000000A08601000000BB
:1005F000102700000000E803000000006400000075
:1006000000000A00000000000100000000002C763D
:10061000D888DC674F0823DFC1DFAE59E1B1B79658
:10062000E5E3E453C63AE651997696E8E6C28426B5
:10063000EB898C9B62ED407C6FFCEFBC9C9F40F291
:10064000BAA56FA5F490055A2AF75C936B6CF9670D
:100650006DC11BFCE0E40D47FEF520E6B500D0EDD2
:10066000902E0300943577050080841E080000203A
:100670004E0A000000C80C333333330F986E1283D8
:100680001141EF8D2114893BE65516CFFEE6DB18AC
:10069000D1844B381BF77C1D901DA4BBE424203271
:1006A00084725E228100C9F124ECA1E53D27143D4E
:1006B000373D11241FBECFEFD0E4DEBFCDBF14E025
:1006C000A0E0B1E0E8E9F4E900E00BBF02C0079068
:1006D0000D92A832B107D9F72EE0A8E2B4E001C02C
:1006E0001D92AF35B207E1F713E0C8E5D3E004C0CF
:1006F0002197FE010E943847C735D107C9F70E94EC
:1007000027360C94404A7CCC8E960C945123089545
:100710000F931F93CF93DF93062F142FEC01AE9608
:10072000CE010E9452236EEECE010E945A23602F0A
:10073000CE010E945A23612FCE010E945A23CE017E
:100740000E945623DF91CF911F910F9108950F932F
:100750001F93CF93DF93EC018C01025D1F4FC80103
:100760000E9452236EEEC8010E945A236AEAC80111
:100770000E945A23C8010E9452236FEEC8010E94B2
:100780005A2361E0C8010E946A23188A898B61E0BC
:10079000C8010E946A2328893989280F311D398BA5
:1007A000288B61E0C8010E946A231A8A8B8B61E062
:1007B000C8010E946A232A893B89280F311D3B8B7F
:1007C0002A8B61E0C8010E946A231C8A8D8B61E03C
:1007D000C8010E946A232C893D89280F311D3D8B59
:1007E0002C8B61E0C8010E946A2318A289A361E0F2
:1007F000C8010E946A2328A139A1280F311D39A3FD
:1008000028A361E0C8010E946A231AA28BA361E0B9
:10081000C8010E946A232AA13BA1280F311D3BA3D6
:100820002AA361E0C8010E946A231CA28DA361E093
:10083000C8010E946A232CA13DA1280F311D3DA3B0
:100840002CA361E0C8010E946A231E8A8F8B61E09D
:10085000C8010E946A232E893F89280F311D3F8BD2
:100860002E8B61E0C8010E946A23188E898F61E097
:10087000C8010E946A23288D398D280F311D398FB8
:10088000288F61E0C8010E946A231A8E8B8F61E075
:10089000C8010E946A232A8D3B8D280F311D3B8F92
:1008A0002A8F61E0C8010E946A231C8E8D8F61E04F
:1008B000C8010E946A232C8D3D8D280F311D3D8F6C
:1008C0002C8F61E0C8010E946A231E8E8F8F60E02A
:1008D000C8010E946A232E8D3F8D280F311D3F8F46
:1008E0002E8FC8010E945623DF91CF911F910F9147
:1008F0000895CF93DF93EC018E960E944D231EA2A4
:100900001FA218A619A61AA61BA61CA61DA680E043
:1009100090E5ADE7B4E48C839D83AE83BF83CE01C5
:1009200016DFDF91CF9108958F929F92AF92BF9281
:10093000CF92DF92EF92FF920F931F93CF93DF93AB
:100940008C014EE264EFE4DE8FE097E20197F1F76D
:1009500000C00000E801AE96CE010E9452236EEE68
:10096000CE010E945A2366EFCE010E945A23CE0187
:100970000E9452236FEECE010E945A2361E0CE0105
:100980000E946A23C82ED12CDC2CCC240D2C000C08
:10099000EE08FF0860E0CE010E946A23C80ED11C59
:1009A000E11CF11CCE010E945623F80184A195A1FF
:1009B000A7019601281B390B41095109A2A1B3A136
:1009C0000E9450476B017C010B2EBFE0F594E79429
:1009D000D794C794BA95D1F7B02D848D60E070E0BC
:1009E000782F770F770F770F072E000C880B990B56
:1009F000268D378D4901330FAA08BB08A501940144
:100A00002C0D3D1D4E1D5F1D0E941C47D701C601C8
:100A1000820F931FA41FB51FF80186A397A3A0A759
:100A2000B1A7BC01CD01685F7F4F8F4F9F4F0E94E0
:100A3000954020E030E040E85DE30E94B04120E0D6
:100A400030E040E251E40E94FC3FF801608771878A
:100A500082879387DF91CF911F910F91FF90EF9045
:100A6000DF90CF90BF90AF909F908F9008952F927E
:100A70003F924F925F926F927F928F929F92AF922E
:100A8000BF92CF92DF92EF92FF920F931F93CF937B
:100A9000DF9300D000D0CDB7DEB71C0145DF44EFB7
:100AA00064EFC10135DE8FE19BEC0197F1F700C0E7
:100AB000000071019EE2E90EF11CC7010E94522361
:100AC0006EEEC7010E945A2366EFC7010E945A23A7
:100AD000C7010E9452236FEEC7010E945A2361E0B2
:100AE000C7010E946A23482E512C612C712C3201BF
:100AF0005524442461E0C7010E946A23882E912C6A
:100B0000982C8824092C000CAA08BB08840C951C7E
:100B1000A61CB71C60E0C7010E946A23880E911CC6
:100B2000A11CB11CC7010E945623F10146A057A089
:100B300060A471A4F0EA4F1AFFE05F0A610871082F
:100B4000A3019201C301B2010E94EB469B01AC01DB
:100B5000012E1CE055954795379527951A95D1F7A5
:100B6000102D29833A834B835C83F101A08DB18DD5
:100B70000E945A476B017C01A289B389A3019201AB
:100B80000E945A4720893189220F331F220F331FB9
:100B90008901330F220B330B0B2EBBE0F594E79446
:100BA000D794C794BA95D1F7B02DAB01BC01032EF1
:100BB0003BE075956795579547953A95D1F7302D58
:100BC000C40ED51EE61EF71EC00ED11EE21EF31E79
:100BD000CC0CDD1CEE1CFF1CCC0CDD1CEE1CFF1C29
:100BE000CC0CDD1CEE1CFF1CF2E0CF0ED11CE11C76
:100BF000F11CF101A489B589A30192010E945A4711
:100C00002B013C01A689B78929813A814B815C81FE
:100C10000E945A47930182010F2EFDE035952795DA
:100C200017950795FA95D1F7F02DDC01CB01072E2A
:100C30007AE0B595A795979587957A95D1F7702D18
:100C4000800F911FA21FB31F0296A11DB11DB59564
:100C5000A79597958795B595A795979587959C01A5
:100C6000AD0130584F4F5F4FA0A1B1A10E94504736
:100C70002B013C01032E3FE07694679457944794F0
:100C80003A95D1F7302DB501A401689414F8759503
:100C90006795579547951694D1F7D701C601FF2060
:100CA0001CF40396A11DB11DB595A7959795879541
:100CB000B595A795979587959A01AB01281B390B98
:100CC0004A0B5B0BAAE6B8E10E94504799235CF0FF
:100CD000660F771F881F991FA30192010E94FA4691
:100CE00069017A010AC0A30192010E94FA466901D2
:100CF0007A01CC0CDD1CEE1CFF1C9927F7FC9A95A1
:100D00008F2D7E2D6D2D9B01AC010E94EB469B012A
:100D1000AC01AEEDBBE00E9450474B015C01A3E487
:100D2000B3EEA70196010E945C47072E7AE0B594C6
:100D3000A794979487947A95D1F7702DBB2797FD48
:100D4000B095AB2F880D991DAA1DBB1D8153914FE6
:100D5000AF4FBF4F689413F8B695A79597958795B1
:100D60001694D1F7BC01CD016C0D7D1D8E1D9F1D0C
:100D7000F10162A773A784A795A70E94954020E080
:100D800030E048EC52E40E94FC3FF1016083718343
:100D9000828393830F900F900F900F90DF91CF91EC
:100DA0001F910F91FF90EF90DF90CF90BF90AF9089
:100DB0009F908F907F906F905F904F903F902F907B
:100DC0000895CF93DF93EC0152DE2C813D814E815B
:100DD0005F81688179818A819B810E94FC3F2EEA34
:100DE0003CED42E45EE30E9413429B01AC0160E0F3
:100DF00070E080E89FE30E94943F20E03AE24DE2F9
:100E000057E40E94B0416C877D878E879F87DF9172
:100E1000CF9108951CBC84B18F7584B92C9A089524
:100E20008EBD0DB407FEFDCF8EB508952C9A8FEFC1
:100E3000F7CF08952C988FEFF3DF82E38093290496
:100E40008FEFEEDF8F3F41F0809129048111F8CFC1
:100E5000EDDF80E090E0089581E090E008950F9349
:100E60001F93CF93DF93EC018B0184E180932A04DD
:100E70008FEFD6DF8F3F39F490912A049111F8CF8C
:100E800080E090E020C08E3FE1F4F8948FEF8EBDBB
:100E90000DB407FEFDCF9EB598838EBD0DB407FE41
:100EA000FDCF22969EB5FE01319790830250110925
:100EB00071F778948FEFB4DF8FEFB2DF81E090E0CD
:100EC00002C080E090E0DF91CF911F910F910895D3
:100ED000FF920F931F93CF93DF93C82FD42F152F1B
:100EE000062FF72E88234CF440E050E0BA0187E348
:100EF000EFDF823008F03CC0CF77CC30F1F096DFE6
:100F000099DF892BC1F08C2F80648ADF8F2D88DFD9
:100F1000802F86DF812F84DF8D2F82DFCC2329F184
:100F200021C08FEF7DDFCAE08FEF7ADF882304F5E1
:100F3000C150D1F71DC08FEF1BC08CE471DF8F2D26
:100F40006FDF802F6DDF812F6BDF8D2F69DF81E0F9
:100F500067DFCC3031F3E7CF87E862DFE4CF81E0B1
:100F60005FDFE1CFC830C1F3FACF85E959DFDBCFCE
:100F7000DF91CF911F910F91FF9008951F93CF9311
:100F8000DF93EC01162F92E3909329048FEF48DF53
:100F90008F3F31F0909129049111F8CF80E028C063
:100FA000812F3EDF1D3F11F1F8949E013E5F888145
:100FB0008EBD0DB407FEFDCF2296FE0131978081D4
:100FC0008EBD0DB407FEFDCF2C173D0781F7789439
:100FD0008FEF26DF8FEF24DF8FEF22DF282F2F7197
:100FE00081E090E0253021F080E002C081E090E0D7
:100FF000DF91CF911F910895CF92DF92EF92FF92F0
:101000000F931F93CF93DF9300D000D0CDB7DEB7FF
:1010100081119BC0FFDE8091060182FF03C0809199
:1010200006019EC084B1806B84B926982C9A81E019
:101030008DBD82E58CBD1AE08FEFF2DE1150E1F735
:1010400040E050E0BA0180E043DF813009F084C025
:1010500084E680932A044AEA51E060E070E088E088
:1010600037DF813009F03FC0CE0101966C017E016F
:1010700095E0E90EF11C86018FEFD2DEF801819335
:101080008F01EE15FF05C1F78B81813009F064C037
:101090008C818A3A09F060C080912A04882341F04B
:1010A00040E050E060E070E489EA12DF8111F4CFA3
:1010B00080912A04882309F44FC040E050E0BA012F
:1010C0008AE306DF811148C0760114E01C0D8FEF22
:1010D000A7DEF70181937F011E13F9CF898186FD79
:1010E00036C084E035C040E050E0BA0189EAF0DE65
:1010F000823018F001E011E002C002E019EA90919C
:101100002A04992339F040E050E0BA01812FE0DE53
:101110008111F5CF80912A048823F1F040E052E05C
:1011200060E070E080E1D4DE811116C000932804F5
:101130007DDE002331F0809106018E7F80930601D1
:1011400001C068DE809106010BC081E009C08CE01F
:10115000809328046BDEEFCF1092280467DEF1CF76
:101160000F900F900F900F90DF91CF911F910F91E3
:10117000FF90EF90DF90CF900895811103C0809190
:101180000601089581E00895FF920F931F93CF9376
:10119000DF93EB0181113FC00115110509F43DC03A
:1011A0008091060180FD3BC08091280483FD09C029
:1011B000012E19E0220F331F441F551F1A95D1F736
:1011C000102D0230110528F40F2EF1E1FF2EF02D25
:1011D00004C00F2EF2E1FF2EF02DBA01A9018F2DD0
:1011E00077DE811112C060E072E0CE0138DE892B1B
:1011F00021F0DE5F01501109B1F782E1F81205C05C
:1012000040E050E0BA018CE063DE10DE81E0012BAB
:1012100039F480E005C084E003C084E001C083E0CD
:10122000DF91CF911F910F91FF900895CF92DF92A0
:10123000EF92FF920F931F93CF93DF93EB0169011E
:101240007A01811151C00115110509F44FC0809137
:10125000060180FD4DC08091060182FD4BC080914A
:10126000280483FD09C00B2EB9E0CC0CDD1CEE1C5C
:10127000FF1CBA95D1F7B02D0130110589F4B701E3
:10128000A60188E125DE811129C06EEFCE0176DE50
:1012900031E020E0892B09F030E0032F122F1EC02F
:1012A000867029F0A80160E070E087E911DEB701DF
:1012B000A60189E10DDE811111C06CEFCE015EDE69
:1012C000892B21F0DE5F01501109B9F76DEF80E045
:1012D00090E054DE892B11F401E010E0A7DD81E0FD
:1012E000012B49F480E007C084E005C084E003C01E
:1012F00083E001C082E0DF91CF911F910F91FF90B9
:10130000EF90DF90CF900895EF92FF920F931F938D
:10131000CF93DF93CDB7DEB760970FB6F894DEBFFB
:101320000FBECDBF81117CC18091060180FD7AC1C5
:101330007A01062F10E00733110508F059C1F801B2
:10134000EA5BFF4F0C94384775DD11E0892B09F4F7
:1013500064C110E062C140E050E0BA0189E0B8DD4C
:10136000811148C160E170E0CE01019678DD892BE2
:1013700009F442C189818295869586958370813072
:1013800031F588858F7390E0A0E0B0E0DC0199270B
:1013900088270196A11DB11D298530E0322F222713
:1013A0004A85240F311D820F931FA11DB11D072EE9
:1013B0007AE0880F991FAA1FBB1F7A95D1F7702D6D
:1013C000F70180839183A283B38310E026C18985CE
:1013D0008295869586958370288590E0F4E02F9F0E
:1013E000800D911D11249C012F5F3F4F8F818370D1
:1013F00090E0982F8827990F990F820F931FA0E0F4
:10140000B0E03E813F702B85221F2227221F320F22
:101410002A852370220F230F275004C0880F991F9D
:10142000AA1FBB1F2A95D2F7F70180839183A2835D
:10143000B38310E0F2C01091280412FF2AC040E0EC
:1014400050E0BA018DE844DD8111D8C08FEFE8DCAF
:1014500060E170E0CE01019602DD892B09F4D0C075
:1014600010E38FEFDDDC1150E1F72B8522952F7013
:1014700080E190E0A0E0B0E004C0880F991FAA1FAF
:10148000BB1F2A95D2F7F70180839183A283B38390
:10149000C4C040E050E0BA0189E01ADD8111B2C059
:1014A00060E170E0CE010196DADC892B09F4ACC072
:1014B00011FF20C08C85881F8827881F90E0019627
:1014C0002B852F73820F911D820F911D2E852295E2
:1014D000269526952370215002C0880F991F2A95C2
:1014E000E2F7A0E0B0E0F70180839183A283B383A9
:1014F00010E093C08C85282F237082958695877085
:1015000090E0F8E02F9F800D911D112401962B850E
:101510002C7730E035952795359527952F5F3F4FF0
:10152000829FA001839F500D929F500D1124CA01EC
:10153000A0E0B0E0F70180839183A283B38310E041
:101540006CC080912804FA01808310E066C040E0FE
:1015500050E0BA0189E0BCDC811158C060E170E064
:10156000C7017DDC11E0892B09F457C010E055C09C
:1015700040E050E0BA018AE0ABDC811149C060E193
:1015800070E0C7016CDC11E0892B09F446C010E063
:1015900044C040E050E0BA018AE39ADC81113AC0CD
:1015A0008701F4E0EF0EF11C8FEF3ADCF801819334
:1015B0008F01EE15FF05C1F710E02FC040E050E0AD
:1015C000BA018DE885DC811127C08FEF29DC60E44A
:1015D00070E0C70144DC11E0892BF9F010E01DC078
:1015E00019DC8091060181608093060110E015C02E
:1015F00014E013C011E011C011E00FC011E00DC0E4
:1016000011E00BC011E009C011E007C011E005C0F6
:1016100011E003C011E001C011E008DC812F03C01C
:1016200084E001C083E060960FB6F894DEBF0FBE81
:10163000CDBFDF91CF911F910F91FF90EF90089553
:1016400080912A04882319F0815080932A04809184
:101650002904882319F08150809329048091060180
:101660008093060108959C5F0C9451230895FC011A
:101670009C5F1192E817F907E1F708951F93CF9344
:10168000DF93162FEC01DC5FCE010E94522368E746
:10169000CE010E945A2360E0CE010E945A23612F9E
:1016A000CE010E945A23CE010E945623DF91CF9192
:1016B0001F910895CF93DF93EC016EEADFDF65EDB4
:1016C000CE01DCDF60E8CE01D9DF68EACE01D6DFEB
:1016D0006FE3CE01D3DF63EDCE01D0DF60E0CE015A
:1016E000CDDF60E4CE01CADF6DE8CE01C7DF64E183
:1016F000CE01C4DF60E2CE01C1DF60E0CE01BEDF1B
:1017000061EACE01BBDF68ECCE01B8DF6AEDCE0145
:10171000B5DF62E1CE01B2DF61E8CE01AFDF6FEC91
:10172000CE01ACDF69EDCE01A9DF61EFCE01A6DF0E
:101730006BEDCE01A3DF60E4CE01A0DF64EACE0151
:101740009DDF66EACE019ADF6FEACE0197DFDF9177
:10175000CF910895CF93DF93EC019C5F0E944D23BE
:10176000CE01A8DFCE0183DFDF91CF910895EF9204
:10177000FF920F931F93CF93DF93EC0161E27EDF23
:1017800060E0CE017BDF6FE7CE0178DF62E2CE0161
:1017900075DF60E0CE0172DF67E0CE016FDF8E01A2
:1017A0001C5FC8010E94522368E7C8010E945A23A7
:1017B00060E4C8010E945A2378016991C8010E941F
:1017C0005A23CE15DF05C9F7C8010E945623DF91C1
:1017D000CF911F910F91FF90EF9008956623ACF188
:1017E000403498F5211119C0242F26952695269569
:1017F00050E8259F90011124260F311DFC01E20FB6
:10180000F31F477081E090E002C0880F991F4A954E
:10181000E2F79081892B80830895242F26952695C1
:10182000269530E8239FF0011124E60FF11DE80F03
:10183000F91F477081E090E002C0880F991F4A9518
:10184000E2F780959081892380830895FF920F931A
:101850001F93CF93DF93222369F0C42FF62E8C01C0
:10186000D22FD40F20E04C2F6F2DC801B7DFCF5FF0
:10187000CD13F8CFDF91CF911F910F91FF90089575
:10188000FF920F931F93CF93DF93222369F0F42EDF
:10189000C62F8C01D22FD60F20E04F2D6C2FC80100
:1018A0009DDFCF5FCD13F8CFDF91CF911F910F91C7
:1018B000FF9008950F931F93CF93DF93613208F445
:1018C0003EC0A42FB0E0022F06950695069530E89D
:1018D000039F80011124615270E0FB01EE0FFF1F96
:1018E000EE0FFF1FE60FF71FEA52FC4FAD01400F4E
:1018F000511FEC01C40FD51F00581F4FA00FB11F7F
:10190000A80FB91F4B5F5F4F480F591F2770649195
:1019100070E0022E02C0660F771F0A94E2F79881EA
:10192000962B9993672F77276115710519F08C9184
:10193000682B6C9331961196C417D50741F7DF9148
:10194000CF911F910F910895CF92DF92EF92FF9266
:101950000F931F93CF93DF936A3008F066C050E077
:10196000022F06950695069510E0D801B695BA2F78
:10197000AA27B795A7950F5F1F4F1695102F002721
:10198000179507957D0130E8E30EF11CE40EF51E76
:10199000E80EF91EEA01C00FD11F6097C80FD91FCA
:1019A000040F151F00591F4F080F191FA40FB51F53
:1019B000A80FB91F80E2689FB001112440E050E0F9
:1019C0002770FA01E60FF71FEA56FD4FE491F0E0A9
:1019D000022E02C0EE0FFF1F0A94E2F7403168F4B6
:1019E0008C918E2B8C93CF2EDD24C114D10489F0E1
:1019F000F70180818C2980830CC088818E2B88839D
:101A0000CF2EDD24C114D10421F0F80180818C296E
:101A100080834F5F5F4FFFEFEF1AFF0A21960F5F42
:101A20001F4F11964032510561F6DF91CF911F9102
:101A30000F91FF90EF90DF90CF9008952F923F92FB
:101A40004F925F926F927F928F929F92AF92BF92CE
:101A5000CF92DF92EF92FF920F931F93CF93DF937A
:101A6000CDB7DEB727970FB6F894DEBF0FBECDBF58
:101A70009F838E836D83342E002309F426C1622F49
:101A800070E080E090E00E94974020E030E040EC81
:101A900050E40E94B0412BED3FE049E450E40E9445
:101AA000B04120E030E044E353E40E94FC3F2BEDE2
:101AB0003FE049EC5FE30E94943F6B017C010E9490
:101AC000F93F4B015C01C701B6010E945F422B0147
:101AD0003C0100E010E0B801012E000C880B990BCE
:101AE0000E9497406B017C01A30192010E94B041CA
:101AF00020E030E048EF51E40E94953F0E946940A9
:101B0000262EA5019401C701B6010E94B04120E034
:101B100030E048EF51E40E94953F0E94694020E088
:101B2000422D8E819F815ADE0F5F1F4F09311105B3
:101B300091F6632D70E080E090E00E949740698309
:101B40007A838B839C8320E030E040EC50E40E9459
:101B5000B0412BED3FE049E450E40E94B04120E069
:101B600030E044E353E40E94FC3F2BED3FE049ECBE
:101B70005FE30E94943F6B017C010E94F93F2B01BF
:101B80003C01C701B6010E945F424B015C0100E0CD
:101B900010E0B801012E000C880B990B0E949740B1
:101BA0006B017C01A50194010E94B04120E030E06E
:101BB00048EF51E40E94953F0E946940362EA301F0
:101BC0009201C701B6010E94B04120E030E048EF29
:101BD00051E40E94953F0E94694020E0432D8E8190
:101BE0009F81FCDD0F5F1F4F0531110591F62D819F
:101BF000622F70E080E090E00E94974020E030E0AB
:101C000040EF51E40E94B0416B017C0120E030E0E4
:101C100040E05FE369817A818B819C810E94B041C1
:101C20009B01AC01C701B6010E94953F2BED3FE03F
:101C300049E450E40E94B04120E030E044E353E442
:101C40000E94FC3F2BED3FE049EC5FE30E94943F94
:101C50006B017C010E94F93F4B015C01C701B60199
:101C60000E945F422B013C0100E010E0B801012E10
:101C7000000C880B990B0E9497406B017C01A3011B
:101C800092010E94B04120E030E048EF51E40E9410
:101C9000953F0E946940362EA5019401C701B60107
:101CA0000E94B04120E030E048EF51E40E94953FAF
:101CB0000E94694020E0432D8E819F818FDD0F5F60
:101CC0001F4F0D30110591F6CBC0642F70E080E0FE
:101CD00090E00E94974069837A838B839C8320E005
:101CE00030E040EC50E40E94B0412BED3FE049E48D
:101CF00050E40E94B04120E030E044E353E40E940D
:101D0000FC3F2BED3FE049EC5FE30E94943F6B0109
:101D10007C010E94F93F2B013C01C701B6010E94E2
:101D20005F424B015C0100E010E0B801012E000CA5
:101D3000880B990B0E9497406B017C01A5019401CF
:101D40000E94B04120E030E048EF51E40E94953F0E
:101D50000E946940362EA3019201C701B6010E947C
:101D6000B04120E030E048EF51E40E94953F0E94EE
:101D7000694020E0432D8E819F8130DD0F5F1F4F32
:101D80000931110591F6ED816E2F70E080E090E051
:101D90000E94974020E030E040EF51E40E94B041C3
:101DA0006B017C0120E030E040E05FE369817A81F3
:101DB0008B819C810E94B0419B01AC01C701B6019F
:101DC0000E94953F2BED3FE049E450E40E94B04172
:101DD00020E030E044E353E40E94FC3F2BED3FE081
:101DE00049EC5FE30E94943F6B017C010E94F93F44
:101DF0004B015C01C701B6010E945F422B013C010F
:101E000000E010E0B801012E000C880B990B0E9435
:101E100097406B017C01A30192010E94B04120E038
:101E200030E048EF51E40E94953F0E946940362E11
:101E3000A5019401C701B6010E94B04120E030E045
:101E400048EF51E40E94953F0E94694020E0432DF5
:101E50008E819F81C3DC0F5F1F4F0131110591F609
:101E600020E04AE161E38E819F8124DD20E040E2B1
:101E700062E38E819F811EDD2CE14AE363E38E8164
:101E80009F8118DD28E34DE166E38E819F8112DD9D
:101E90002CE140E069E38E819F810CDD20E048E089
:101EA0006CE28E819F819ADC20E042E165E38E81C5
:101EB0009F8194DC20E04CE265E38E819F818EDC83
:101EC00020E045E36BE28E819F8188DC20E045E3E2
:101ED00061E18E819F8182DC20E04CE268E08E81AE
:101EE0009F817CDC20E041E168E08E819F8176DC8F
:101EF00020E048E062E18E819F8170DC27960FB67A
:101F0000F894DEBF0FBECDBFDF91CF911F910F912F
:101F1000FF90EF90DF90CF90BF90AF909F908F9009
:101F20007F906F905F904F903F902F900895411554
:101F3000510551F0A62FB72FFC01480F591F9D9155
:101F40009193E417F507D9F708950F931F93DC01D8
:101F5000FB01938D692F70E0762F6627828D682BA9
:101F600080E090E02C91233079F4058910E0102F67
:101F700000272489022B20E030E098011127002758
:101F8000602B712B822B932B1F910F910895CF9370
:101F9000DF93EC01A881B9811097F9F04C9141329F
:101FA00058F04A3331F1FD0131969F019191913200
:101FB00028F09A33D1F704C0942F9D019A3381F40D
:101FC000CD0101962817390771F4403379F4129640
:101FD000B983A88380E090E00EC08FEF9FEF0BC025
:101FE00080E090E008C08FEF9FEF05C08FEF9FEF7C
:101FF00002C09D01E5CFDF91CF9108958F929F920E
:10200000AF92BF92CF92DF92EF92FF920F931F9306
:10201000CF93DF93FC012481222309F444C0EC0117
:10202000C2A4D3A4E4A4F5A45C01FEE2AF0EB11CEB
:1020300001E010E0A7019601B5018981F7D881116F
:1020400034C01C828E8D9F8DA8A1B9A1B701A601B5
:10205000481B590B6A0B7B0B8E899F89A88DB98D04
:10206000481759076A077B0710F58B80912C82E08F
:1020700088169104F0F08E899F89A88DB98DC80EBD
:10208000D91EEA1EFB1E01E010E0A7019601B50172
:102090008981CCD8E1E08E1A9108F1E08F16910485
:1020A00051F780E007C080E005C081E003C080E018
:1020B00001C080E0DF91CF911F910F91FF90EF90D1
:1020C000DF90CF90BF90AF909F908F9008958F92A8
:1020D0009F92AF92BF92FF920F931F93CF93DF9384
:1020E000EC014A015B018AA59BA5ACA5BDA584179F
:1020F0009507A607B707D9F0CE0180DFF82E81112A
:1021000017C001E010E0A5019401BE01625D7F4FA0
:1021100089813AD8882331F0FF24F39488248A9463
:10212000982C54018AA69BA6ACA6BDA601C0F12C92
:102130008F2DDF91CF911F910F91FF90BF90AF90A6
:102140009F908F900895CF93DF93EC011C828FEFC7
:102150009FEFDC018AA79BA7ACA7BDA7CE01B7DF85
:10216000811151C0FE01E35DFD4F808190E0982F09
:10217000882731972081822B85359A4A09F045C0FE
:10218000E55CF14020813197808190E0A0E0B0E0F3
:10219000DC0199278827B22B32972081822B319638
:1021A000408150E0542F442760E070E0842B952B51
:1021B000A62BB72BBB2786349144A445B10539F132
:1021C0007E9680813197408150E060E070E0BA01F6
:1021D00055274427782B32978081482BCF57DF4FE4
:1021E000888190E0982F8827A0E0B0E0482B592BF9
:1021F0006A2B7B2B772781E0463451446445710577
:1022000039F480E005C083E003C082E001C080E0D3
:10221000DF91CF9108950097C9F0DC01ED91FC9119
:1022200011973097A9F020812223A1F026813781D0
:1022300012968D919C9113972817390769F4818123
:102240000E94BD0880FF0AC089E0089589E00895D2
:1022500089E0089589E0089589E0089580E008956F
:102260002F923F924F925F926F927F928F929F92A6
:10227000AF92BF92CF92DF92EF92FF920F931F9394
:10228000CF93DF93CDB7DEB76D970FB6F894DEBF6F
:102290000FBECDBF6C01CB01B42ED6011D921C9296
:1022A00076DE7C0199230CF4D7C2FC01EE0FFF1FF0
:1022B000E35DFB4F008111810115110509F4CEC2C8
:1022C000F60111830083D8018C91882369F011965F
:1022D0008C910E94BD0880FD07C0BB2009F4C0C2DC
:1022E00082FFC0C28AE065C3F8011082E1828E2DB0
:1022F0000E94FC0780FDB8C2BB2009F4D5C282FD54
:10230000B5C2D2C2DF0117978C918823B9F0149619
:10231000CC908081D12CE12CF12CF82A12968C9152
:10232000E82A1197AC91B0E0BA2FAA27CD01A0E01E
:10233000B0E0C82AD92AEA2AFB2A04C0C82CD92C22
:10234000E72EF62ED901CD92DD92ED92FD929D0100
:102350007096E417F507B1F64E01B1E18B0E911CB2
:102360006894772471F8F501C190D190E190F190D3
:102370005F01C114D104E104F10439F0B701A601F1
:10238000C801E1DE811102C00DC0872DA814B90477
:1023900051F703C0C12CD12C7601833009F468C2F7
:1023A000811168C2D801DA968C91DA9790E0982F63
:1023B0008827D9962C91822B8115924009F05CC216
:1023C000F801EB5BFF4F8080912C982C882431978B
:1023D0008081882AA12CB12C81149104A104B1041C
:1023E000E9F47196808131978080912CA12CB12CD9
:1023F000540199248824B82A32978081A501940138
:10240000282BDA01C90131968080912C982C8824E0
:10241000A12CB12C882A992AAA2ABB2AD80156961F
:102420008D929D92AD92BC925997DE96AC91F80137
:10243000A3838FEF8A0F823008F020C2F3ADF98BAF
:102440002F2FF8012283222309F41AC2822F90E051
:102450009C012150310982239323892B09F012C258
:10246000E05CFF4F808190E0982F8827F80127AD2E
:102470001C01222A31862086C1018F709927892B61
:1024800009F002C2EE5BFF4F4080512C542C4424D3
:1024900031978081482A612C712C411451046104C8
:1024A0007104D1F47096808131974080512C612C59
:1024B000712C320155244424782A32978081482A8D
:1024C0003196808190E0982F8827AC0160E070E021
:1024D000442A552A662A772AF80185ADE82FF0E0CC
:1024E0003E2F2227F80184ADF901E82B309709F43B
:1024F000CDC1B0E0A50194010E9450476A8F7B8F47
:102500008C8F9D8F9F0140E050E02E8B3F8B488F3A
:10251000598FC101929582958F7089279F70892765
:10252000280F391F411D511DDA01C9012A8D3B8D2C
:102530004C8D5D8D280F391F4A1F5B1F2A8B3B8BEB
:102540004C8B5D8B421653066406750608F4A0C1D9
:10255000C301B201621B730B840B950BE9892E2F0B
:1025600030E040E050E00E94FA46DA01C90121154E
:1025700031054105510509F48DC1263FFFE03F07B4
:102580004105510518F0E2E0E98B02C0F1E0F98B5A
:10259000863F9F4FA105B10508F09DC129013A0171
:1025A00082E0480E511C611C711CD80152964D925C
:1025B0005D926D927C925597F801C28ED38EE48E17
:1025C000F58E8E899F89A88DB98D8C0D9D1DAE1DB0
:1025D000BF1D868F978FA0A3B1A34A895B896C89A1
:1025E0007D894C0D5D1D6E1D7F1D46A357A360A701
:1025F00071A7F989F33009F044C0232809F04CC1D0
:10260000F801E35AFF4F20813197808190E0A0E0EC
:10261000B0E0DC0199278827B22B32972081AC01EA
:10262000BD01422B31968081282F30E0922F8827E0
:10263000A0E0B0E0842B952BA62BB72BF80182A34A
:1026400093A3A4A3B5A3440C551C661C771C440C8F
:10265000551C661C771CFFEF4F0EF1E05F1E611CDE
:10266000711C032E39E076946794579447943A95F9
:10267000D1F7302D84149504A604B70408F40EC1D4
:1026800056C1232809F40CC12A8D3B8D4C8D5D8DDC
:10269000820F931FA41FB51FF80182A393A3A4A3C5
:1026A000B5A3F989F23029F4440C551C661C771C3B
:1026B0006AC1A3E0B0E0A30192010E945047DC018F
:1026C000CB01B695A7959795879521E04222552491
:1026D00066247724480E591E6A1E7B1E54C1B7011A
:1026E000A6014F5F5F4F6F4F7F4FC801F0DC811134
:1026F00096C0D80115961C92F801E35DFD4F8081CC
:1027000090E0982F882731972081822B85359A4A2F
:1027100009F088C0F80121A980A990E0A0E0B0E00C
:10272000DC0199278827B22B26A5AC01BD01422BDD
:1027300027A530E0922F8827A0E0B0E0842B952BCE
:10274000A62BB72B82359245A146B14409F06DC046
:10275000F801EB5EFD4F20813197808190E0A0E091
:10276000B0E0DC0199278827B22B32972081AC0199
:10277000BD01422B3196208130E0922F8827A0E0C6
:10278000B0E0842B952BA62BB72B82379247A14420
:10279000B14609F04DC0369620813197808190E096
:1027A000A0E0B0E0DC0199278827B22B3297208186
:1027B000AC01BD01422B3196208130E0922F882759
:1027C000A0E0B0E0842B952BA62BB72BF8018687D1
:1027D0009787A08BB18BE35EFD4F2081319780817D
:1027E00090E0A0E0B0E0DC0199278827B22B329777
:1027F0002081AC01BD01422B3196208130E0922F27
:102800008827A0E0B0E0842B952BA62BB72BF801EE
:1028100082879387A487B587F3E0F98B0BC0E3E049
:10282000E98B08C0F3E0F98B05C0E3E0E98B02C057
:10283000F3E0F98BE989D801EC9380912B04909116
:102840002C04019690932C0480932B0417969C9350
:102850008E93169780E0ADC08BE0ABC08CE0A9C032
:1028600080E0A7C080E0A5C083E0A3C08AE0A1C04B
:1028700081E09FC08DE09DC08DE09BC08DE099C040
:102880008DE097C08DE095C08DE093C08DE091C044
:102890008DE08FC08DE08DC08DE08BC08DE089C054
:1028A0008DE087C08DE085C040E050E0BA01C801EE
:1028B0004ADC813009F06ECD9E012F5F3F4F5901F8
:1028C000F801E950FE4FA801495C5D4F812C912C25
:1028D00070E060E017CD29013A0162E0460E511C1C
:1028E000611C711CD80152964D925D926D927C9242
:1028F0005597F801C28ED38EE48EF58E8E899F890E
:10290000A88DB98D8C0D9D1DAE1DBF1D868F978F17
:10291000A0A3B1A38A899B89AC89BD898C0D9D1D1B
:10292000AE1DBF1D86A397A3A0A7B1A766CE8FEF4C
:102930009FEFDC01F80186879787A08BB18B828798
:102940009387A487B58780E88583E15AFF4F80810C
:1029500090E0982F882731972081822B019709F4E6
:10296000BECEF3E0F98B66CF8FEF9FEFDC01F8016D
:1029700086879787A08BB18B82879387A487B5873B
:1029800080E8858357CFFFEF4F0EF1E05F1E611C9B
:10299000711C032E39E076946794579447943A95C6
:1029A000D1F7302D84149504A604B70408F47ACF27
:1029B000DBCF6D960FB6F894DEBF0FBECDBFDF91B3
:1029C000CF911F910F91FF90EF90DF90CF90BF902C
:1029D000AF909F908F907F906F905F904F903F90BF
:1029E0002F900895CF92DF92EF92FF92FC019A010F
:1029F000AB012250310941095109C288D388E488CA
:102A0000F58882E0C81AD108E108F1082C153D05C7
:102A10004E055F0568F4A281B0E00E945047C6A051
:102A2000D7A0E0A4F1A46C0D7D1D8E1D9F1D03C0D9
:102A300060E070E0CB01FF90EF90DF90CF900895C1
:102A4000AF92BF92CF92DF92EF92FF920F931F93BC
:102A5000CF93DF93EC016A017B01423051056105A0
:102A6000710508F4C3C08A899B89AC89BD89481760
:102A700059076A077B0708F0BEC08881823009F4D5
:102A80004BC0833009F46CC0813009F0B9C08A01B1
:102A900016950795040F151FC801892F992786954C
:102AA0004E8D5F8D68A179A1480F591F611D711D61
:102AB000CE010DDB8111A9C058018FEFA81AB80A09
:102AC0001170FE01E00FF11F16A5C501892F99278E
:102AD00086954E8D5F8D68A179A1480F591F611DA4
:102AE000711DCE01F4DA811194C081E0B822CA0DC3
:102AF000DB1D8EA5612F70E0782BC0FE09C072959A
:102B000062956F7067277F70672780E090E08CC0C8
:102B10007F7080E090E088C0452F562F672F772781
:102B20008E8D9F8DA8A1B9A1480F591F6A1F7B1FC9
:102B3000CE01CDDA811171C0CC0CDD1CEE1CFF1C66
:102B4000E894C0F881E0D822EE24FF24FE01EC0DC9
:102B5000FD1D66A587A570E0782B80E090E064C03D
:102B60008E8D9F8DA8A1B9A1689416F8769567956A
:102B7000579547951694D1F7480F591F6A1F7B1F29
:102B8000CE01A5DA81114DC0CC0CDD1CEE1CFF1C62
:102B9000CC0CDD1CEE1CFF1C8CEFC82281E0D8227F
:102BA000EE24FF24F601BE96EC0FFD1F2281638107
:102BB000862F90E0A0E0B0E0B82FAA2799278827B9
:102BC000AC01BD01622B818190E0982F8827A0E0A5
:102BD000B0E0842B952BA62BB72BFE01EC0DFD1D31
:102BE00026A5822BBC01CD019F701EC061E070E064
:102BF00080E090E019C061E070E080E090E014C0F7
:102C000061E070E080E090E00FC06FEF7FEFCB01FC
:102C10000BC06FEF7FEFCB0107C06FEF7FEFCB01F2
:102C200003C06FEF7FEFCB01DF91CF911F910F9129
:102C3000FF90EF90DF90CF90BF90AF900895AF924C
:102C4000BF92CF92DF92EF92FF920F931F93CF9399
:102C5000DF93EC018B017D836C83CE80DF80E88481
:102C6000F98481E0C816D104E104F10409F48AC0B2
:102C7000E881F98182899389A489B589C816D90622
:102C8000EA06FB0608F080C0C114D104E104F10497
:102C9000C1F48081833041F482A193A1A4A1B5A1A4
:102CA0000097A105B10559F480859185081719078A
:102CB00008F06CC062A173A184A195A135C06C011C
:102CC0007D01A28080E1A89E500111240A151B05F8
:102CD00030F1B701A60188819981B2DE6B017C01D8
:102CE0008FEFC816D806E806F80609F451C082E04E
:102CF000C816D104E104F10408F44CC0E881F9815C
:102D000082899389A489B589C816D906EA06FB0683
:102D100008F042C00A191B090A151B05D0F6B701B5
:102D2000A601888199815EDECA86DB86EC86FD86F7
:102D3000611571058105910589F1980132952295FA
:102D40002F7023273F702327DC01CB01820F931FB5
:102D5000A11DB11D8E879F87A88BB98B0F7011277E
:102D6000000F111F02951295107F1027007F10276A
:102D7000025D1F4F88819981800F911F9B8B8A8BE9
:102D800080E00DC082E00BC082E009C082E007C095
:102D900081E005C082E003C082E001C082E0DF91F3
:102DA000CF911F910F91FF90EF90DF90CF90BF9048
:102DB000AF9008954F925F926F927F928F929F9201
:102DC000AF92BF92CF92DF92EF92FF920F931F9339
:102DD000CF93DF93EC016A017B0128013901423076
:102DE00051056105710508F4D8C08A899B89AC89B1
:102DF000BD89481759076A077B0708F0D0C088814A
:102E0000823009F462C0833009F485C0813009F052
:102E1000C8C05A01B694A794A40EB51EC501892F47
:102E2000992786954E8D5F8D68A179A1480F591F0E
:102E3000611D711DCE014BD9182F8111D0C04501E4
:102E40008FEF881A980AA1E0BA22C0FE20C0FE01C6
:102E5000EA0DFB1D86A5282F2F70B0E14B9EC00107
:102E60001124822B86A781E08C834E8D5F8D68A113
:102E700079A1C401892F99278695480F591F611D93
:102E8000711DCE0124D9882309F491C08CC0FE01A4
:102E9000EA0DFB1D46A681E08C834E8D5F8D68A1F7
:102EA00079A1C401892F99278695480F591F611D63
:102EB000711DCE010CD9882309F484C076C0EC0FB3
:102EC000FD1F46A681E08C838AC0452F562F672FB1
:102ED00077278E8D9F8DA8A1B9A1480F591F6A1F12
:102EE0007B1FCE01F4D8182F811179C0CC0CDD1CCA
:102EF000EE1CFF1CE894C0F831E0D322EE24FF243E
:102F0000FE01EC0DFD1D46A6FE01EC0DFD1D57A6B4
:102F100081E08C8364C08E8D9F8DA8A1B9A1689437
:102F200016F876956795579547951694D1F7480FFB
:102F3000591F6A1F7B1FCE01CAD8182F81114FC09D
:102F4000CC0CDD1CEE1CFF1CCC0CDD1CEE1CFF1C95
:102F50008CEFC82281E0D822EE24FF24F601BE9631
:102F6000EC0FFD1F838190E0A0E0B0E0B82FAA270E
:102F700099278827CC0EDD1E88279927AA27B07F9E
:102F8000482A592A6A2A7B2AD6019E964C92518257
:102F90006282738281E08C8322C012E020C012E042
:102FA0001EC012E01CC0182F1AC0182F18C0F40140
:102FB000F170689413F87694679457944794169434
:102FC000D1F77DCFF401F170DE01AE0FBF1F9E96E9
:102FD0009C91907F852D8F70492E482A70CF812F2C
:102FE000DF91CF911F910F91FF90EF90DF90CF90E5
:102FF000BF90AF909F908F907F906F905F904F9019
:1030000008952F923F924F925F926F927F928F928C
:103010009F92AF92BF92CF92DF92EF92FF920F9367
:103020001F93CF93DF93EC012A013B01411551051A
:1030300061057105B9F48A849B84AC84BD848114D4
:103040009104A104B10459F18A899B89AC89BD8995
:1030500088169906AA06BB0630F1812C912C5401E2
:10306000839421C0EDDC6B017C0162307105810528
:10307000910508F496C08FEFC816D806E806F80642
:1030800009F494C08A899B89AC89BD89C816D90680
:10309000EA06FB0608F48FC05301420104C0812CEC
:1030A000912C54018394750164016894222421F8C1
:1030B000312C00E010E02FEFC21AD20AE20AF20A25
:1030C0008A899B89AC89BD89C816D906EA06FB06A0
:1030D00058F082E088169104A104B10408F470C08D
:1030E000C22CD32CE02EF12EB701A601CE01A8DC14
:1030F000611571058105910599F06F3F2FEF7207FA
:103100008207920709F461C061307105810591055C
:1031100009F460C0C814D904EA04FB0461F65FC076
:103120008C2C9D2CAE2CBF2C0FEF1FEF2FEF3FE010
:10313000B701A601CE013EDE81112CC0411451041D
:103140006104710451F00C2D1D2D2E2D3F2DB30166
:10315000A201CE012FDE81111DC08A869B86AC861E
:10316000BD868E859F85A889B9898F3F2FEF9207ED
:10317000A207B207C9F10197A109B1098E879F87FC
:10318000A88BB98B8D8181608D836C2D7D2D8E2DCB
:103190009F2D33C0813069F161E070E080E090E004
:1031A0002CC061E070E080E090E027C06FEF7FEF1F
:1031B0008FEF9FEF22C06C2D7D2D8E2D9F2D1DC07A
:1031C00060E070E080E090E018C06FEF7FEF8FEF7D
:1031D0009FEF13C061E070E080E090E00EC060E01F
:1031E00070E080E090E009C06C2D7D2D8E2D9F2D2C
:1031F00004C06FEF7FEF8FEF9FEFDF91CF911F91B3
:103200000F91FF90EF90DF90CF90BF90AF909F9085
:103210008F907F906F905F904F903F902F90089588
:103220007F928F929F92AF92BF92CF92DF92EF9256
:10323000FF920F931F93CF93DF93DC011496CD91F0
:10324000DC911597219609F403C11E968D909D90EF
:10325000AD90BC90519781149104A104B10409F47C
:10326000F9C07B018C016E01BFE0CB22DD24C114CB
:10327000D10409F0D1C0EFEF8E1A9E0AAE0ABE0A41
:10328000DC011E968D929D92AD92BC9251971A963A
:103290004D915D916D917C911D9741155105610591
:1032A000710549F4ED91FC9180859185C817D90786
:1032B00008F0D2C0B1C0DC01ED91FC91228130E078
:1032C00021503109CE01929582958F7089279F7088
:1032D000892728233923232B09F09EC0CF01B0DB97
:1032E0004B015C01623071058105910508F4B6C09F
:1032F0006F3F7F4F8F4F9F4F09F4B2C0D801ED91C0
:10330000FC9182899389A489B58988169906AA06B1
:10331000BB0608F470C0EF2809F4A4C0D8011A96BF
:103320004D915D916D917C911D97CF016ADE4B01AE
:103330005C01611571058105910509F495C0613045
:1033400071058105910509F491C06F3F7F4F8F4F43
:103350009F4F09F48DC0D8018D919C910E94FE0F62
:10336000811188C0F80180819181FC01BE96825D47
:103370009D4F1192E817F907E1F7D801ED90FC9005
:10338000B501A401C7012EDBF70162A773A784A7CB
:1033900095A7E12CF12C7724739419C07482D8017D
:1033A0008D919C910E94FE0F811166C0D801ED9114
:1033B000FC9182A593A5A4A5B5A50196A11DB11D5B
:1033C00082A793A7A4A7B5A7BFEFEB1AFB0AD80162
:1033D000ED91FC91828190E0E816F906F8F282A561
:1033E00093A5A4A5B5A58E199F09A109B10982A726
:1033F00093A7A4A7B5A7F80182869386A486B5866D
:10340000B501A40180819181EDDAD8011E966D93FA
:103410007D938D939C935197F801D583C483CC0CF5
:10342000DD1CCC0CDD1CCC0CDD1CCC0CDD1CCC0C58
:10343000DD1CFEE2CF0ED11CD8018D919C9111971D
:10344000C80ED91E5396DC92CE92529780E015C0DA
:1034500084E013C084E011C084E00FC082E00DC09E
:1034600081E00BC084E009C087E007C082E005C0AE
:1034700081E003C081E001C081E0DF91CF911F9125
:103480000F91FF90EF90DF90CF90BF90AF909F9003
:103490008F907F9008951F93CF93DF9300D000D03B
:1034A00000D0CDB7DEB79C838B837E836D83142FD2
:1034B0007A836983CE0101960E94C70F992334F164
:1034C000FC01EE0FFF1FE35DFB4F0190F081E02D4B
:1034D000309709F01082EB81FC813097E9F010827F
:1034E0002B813C81880F991FFC01E35DFB4F3183E9
:1034F0002083232B69F0113069F440E0BE016B5F3B
:103500007F4FCE0103960E9430110EC08BE00CC09D
:1035100080E00AC080E008C0880F991FFC01E35DCD
:10352000FB4F1182108280E026960FB6F894DEBF22
:103530000FBECDBFDF91CF911F9108952F923F9283
:103540004F925F926F927F928F929F92AF92BF92B3
:10355000CF92DF92EF92FF920F931F93CF93DF935F
:10356000CDB7DEB7AE970FB6F894DEBF0FBECDBFB6
:103570007CA36BA3009709F483C24DA31C01DC015B
:103580001D921C924E71BE016D5D7F4FCE01019662
:103590000E943011811103C3CE0147969E8B8D8B03
:1035A000CBA0DCA0F60180818F3211F08C3519F4AC
:1035B000FFEFCF1ADF0A2DA12F7129A71F821886CE
:1035C00019861A86D6018C91803268F460E070E02A
:1035D000CE01019634DB1C8A1B8AE12CF12C882356
:1035E00009F491C287C26894BB24B5F8A12C712C50
:1035F0006894662463F8512C412C6AA65EA6F601F5
:10360000AF0181918F32E1F38C35D1F30D891E89A1
:10361000F801C8010B96B192E817F907E1F76A01C2
:10362000EA2CF72C8A2D972D862C952C742DDA01F7
:1036300001966D91613208F43CC26F3209F43EC2CA
:103640006C3509F43BC26E3209F41CC2E814F9046B
:1036500008F079C20AC0770F770FEAA4FEA40F2EF4
:10366000FBE08F2EF02D912CE3CF66230CF010C2DF
:103670007360E62FF0E0EA56FF4F608109C2819146
:10368000882309F40FC290E048175907C1F786E074
:1036900077C2726006C02FE9260F2A3110F47160DC
:1036A0006052F801EE0DFF1D6083F70131967F0136
:1036B000BFCFEF2809F447C2D8012C91253E11F461
:1036C000E5E0EC93F8E08F16910419F4792F770F69
:1036D000770F972F9370913009F48061972F9C702A
:1036E000943009F48860D8011B968C936A2D772D4D
:1036F000CE010196A4DA8111ECC14F855889698900
:103700007A8989819A810E9467108111E2C16B894F
:103710007C89FB0180818823D1F0838583FD0FC0E4
:103720004D895E89DA019B01255F3F4F04C0E21796
:10373000F30709F4C8C191918D919817C1F36A2DCF
:10374000772DCE0101966CDD8823B9F2C2C1ED89D7
:10375000FE89938592FD0DC285E012C2DB011B96A6
:103760008C9184FF08C289819A810E94A50F6F8382
:10377000788789879A8743CF8111EFC144C060E081
:1037800070E0CE0101965BDA811106C24F8558893F
:1037900069897A8989819A810E9467108111FCC1A7
:1037A000EB89FC898081853E51F0882341F061E0FE
:1037B00070E0CE01019634DD882341F3EDC14F85E1
:1037C000588969897A8989819A810E946710811153
:1037D000CAC1EB89FC89CF0180961192E817F907DD
:1037E000E1F76D897E894BE050E08B899C890E94CE
:1037F000970FE981FA8181E08483B9A5B860B9A700
:10380000EB88FC8808C0F7018385817109F082C1CB
:10381000FDA1F2FD81C129A523FFDBC00E94692D16
:10382000D7011E966C931E97472F55271F964C93D2
:103830001F974C01AA24BB2450968C925097092FB5
:1038400011272227332751960C93519756966C9344
:10385000569757964C93579758968C9258975996D7
:103860000C9359971B961C921B975C961C925C9725
:103870005D961C925D975E961C925E975F961C9279
:10388000C980DA80B701C6010E94A50F4B015C0117
:10389000F701128E138E148A158A81E0D6011496D0
:1038A0008C93149781149104A104B10409F491C07C
:1038B0009A962D913D914D915C919D972AA73BA79A
:1038C0004CA75DA7B2E08B169104A104B10408F4E3
:1038D00028C1F60182899389A489B5898816990639
:1038E000AA06BB0608F01FC18DA29EA2AFA2B8A671
:1038F0003FC04DA15EA16FA178A5C601A1D82B0143
:103900003C01611571058105910509F440C06130E4
:1039100071058105910509F408C16F3F7F4F8F4FF5
:103920009F4F09F404C100E010E098014DA15EA191
:103930006FA178A5C6013EDA8111FAC0F60186852D
:103940009785A089B1898F3FFFEF9F07AF07BF071A
:1039500059F00196A11DB11DF60186879787A08BAE
:10396000B18B8581816085834DA25EA26FA278A60E
:10397000F60182899389A489B5892DA13EA14FA121
:1039800058A5281739074A075B0708F4B2CF898181
:103990009A8131E0831A9108A108B108DC011A96D6
:1039A0008D929D92AD92BC921D974AA55BA56CA588
:1039B0007DA50E946710882379F0F1C08111BFC0F6
:1039C000F701838584FDB8C0FDA1F1FF02C080FD31
:1039D000B5C029A523FF03C039A5306239A7E98105
:1039E000FA8182A593A5A4A5B5A5F101828F938F35
:1039F000A48FB58FF78EE68EE9A5D1011496EC93CE
:103A0000149715961C9209811A81B701C8010E946A
:103A1000A50FD1011E966D937D938D939C93519725
:103A2000F701278D868D90E0A0E0B0E0DC019927BA
:103A30008827B22B248DAC01BD01422B258D30E0AF
:103A4000922F8827A0E0B0E0842B952BA62BB72BD4
:103A5000F10182879387A487B58716821782108623
:103A60001186168A178A108E118E11830083D80151
:103A700016968D919C9117979383828380E08FC0D7
:103A800089E08DC0E8E08E16910409F4E4CD75C09C
:103A9000462F50E04232510509F471C0E8E0F1E0F0
:103AA0009C01EDCDC9012FEB260F2A3108F4F1CD91
:103AB000F2CDC80ED91E972F84E0FBCDC80ED91EBB
:103AC000972F842DF6CDDA011B968C9182FF46CE7E
:103AD0000DC0ED89FE899385843009F43BCEEB88D7
:103AE000FC889DA19C7109F047CE68CF7B01672BB4
:103AF00029F409C00DA10C7181F521C08DA18C7133
:103B000009F081CE5DCF0DA10C7151F5E12CF12CA6
:103B100086E015C087E001C088E0882309F459CF0A
:103B20003EC082E005C082E003C082E001C081E0C7
:103B3000882309F451CF33C084E001C087E0882393
:103B400009F45ACF2CC0EB88FC8886E0D3CFB9A506
:103B5000B860B9A7EB88FC88F2CF8430C1F70FCEEC
:103B600086E001C087E0E9A5E860E9A7EB88FC886A
:103B7000E6CF84E005C085E003C086E001C086E0B2
:103B8000EB88FC889DA19C7141F718CFF9A5F860DE
:103B9000F9A7EB88FC88D3CF843021F3F7CFAE961A
:103BA0000FB6F894DEBF0FBECDBFDF91CF911F914E
:103BB0000F91FF90EF90DF90CF90BF90AF909F90CC
:103BC0008F907F906F905F904F903F902F900895CF
:103BD0003F924F925F926F927F928F929F92AF929D
:103BE000BF92CF92DF92EF92FF920F931F93CF93EA
:103BF000DF9300D000D000D0CDB7DEB79E838D8399
:103C00004B016A015901D9011D921C920E940B11AE
:103C10008111C0C1ED81FE8185818111BBC184818B
:103C200081FFB7C186819781A085B185AC01BD01B7
:103C30004C0D5D1D611D711D481759076A077B07F3
:103C400008F48AC1C114D10409F486C1B096FC837A
:103C5000EB83ED81FE8186819781A085B185AC01E2
:103C6000BD01517066277727452B462B472B09F05E
:103C700032C1E080F180F70122812150AC01BD0109
:103C8000032E39E076956795579547953A95D1F784
:103C9000302D322E342209F052C0892B8A2B8B2BE7
:103CA00099F4AD81BE811E966D917D918D919C910F
:103CB00051976115710581059105A1F440E050E02F
:103CC000BA01C7019ED908C0ED81FE81428953899E
:103CD00064897589C70195D96115710581059105BB
:103CE00009F43AC1613071058105910531F482E032
:103CF000AD81BE8115968C934DC16F3FBFEF7B07A1
:103D00008B079B0729F481E0ED81FE81858342C109
:103D1000AD81BE8152966D937D938D939C93559703
:103D20001E964D905D906D907C9051974528462849
:103D3000472829F4FD0166877787808B918BAD81B9
:103D4000BE8114968C91149786FF1EC056962D91B5
:103D50003D914D915C915997ED91FC9101E010E0FE
:103D60006B817C8181810E941609882329F081E082
:103D7000ED81FE8185830EC1AD81BE8114968C914B
:103D800014978F7B14968C93ED81FE810190F081C6
:103D9000E02DFA83E983AD81BE8152964D915D910C
:103DA0006D917C915597CF010E94F21461157105B8
:103DB0008105910529F482E0ED81FE818583EAC0C9
:103DC0002B013C01430C511C611C711C7601EF2C32
:103DD000FF24E694E114F10409F44AC0A981BA81F0
:103DE00012964C91242F30E0C701830D911D2817A6
:103DF000390718F47901E318F1088701A30192014A
:103E0000B401E981FA8181810E941609882331F089
:103E100081E0AD81BE8115968C93BCC0ED81FE81A1
:103E200086899789A08DB18D84199509A609B7094E
:103E3000A70160E070E084179507A607B707A0F414
:103E4000982F8827990FB401680F791F40E052E03E
:103E50008B819C810E94970FAD81BE8114968C91BD
:103E600014978F7B14968C93FE2CEE24FF0C58C075
:103E7000ED81FE8186899789A08DB18D8415950588
:103E8000A605B70501F14681578160857185828558
:103E90009385A485B585481759076A077B0798F469
:103EA00001E010E0A30192016B817C81A981BA81BC
:103EB00011968C910E94C408882329F081E0ED813D
:103EC000FE81858367C0AD81BE8156964D925D921D
:103ED0006D927C925997ED81FE8186819781A085B4
:103EE000B185AC01517020E032E0241B350B760126
:103EF0002C153D0508F479019170AA27BB278096FF
:103F0000A701B4012D813E81820F931F0E94970F5C
:103F1000AD81BE8114968C911497806414968C9315
:103F20008E0C9F1CED81FE8186819781A085B185D5
:103F30008E0D9F1DA11DB11D86839783A087B1871C
:103F4000D5018D919C9111978E0D9F1D8D939C9302
:103F5000CE18DF0809F07DCEED81FE818681978144
:103F6000A085B185428553856485758548175907B5
:103F70006A077B0720F482879387A487B587AD8182
:103F8000BE8114968C911497806214968C9380E075
:103F900001C087E026960FB6F894DEBF0FBECDBFF6
:103FA000DF91CF911F910F91FF90EF90DF90CF9015
:103FB000BF90AF909F908F907F906F905F904F9049
:103FC0003F900895EF92FF920F931F93CF93DF934B
:103FD00000D0CDB7DEB7FC012281338133236CF1F1
:103FE0008C017901FFEFEF1AFF0AFC01E20FF31FCA
:103FF00066838DE3E816F104C4F09E012F5F3F4F06
:10400000A701B8016A5F7F4FF80180819181E0DDEF
:1040100081E090E029813A81E216F30611F480E014
:1040200090E0EE24FF24E81AF90AF801F382E28214
:10403000848195810196958384830F900F90DF9101
:10404000CF911F910F91FF90EF9008950F931F93C1
:10405000CF93DF93EC010E940B118111B5C08C81CD
:1040600085FFB4C086FF13C02E893F89488D598DC6
:10407000E881F98101E010E0BE01605E7F4F81813F
:104080000E9416098111A4C08C818F7B8C834A8D7C
:104090005B8D6C8D7D8D888199810E946710811167
:1040A00099C00E8D1F8DF8018385806283878A8574
:1040B000848F8B85858F8C85868F8D85878F8E8568
:1040C0009F85A889B989828F938FCD01AA27BB27A5
:1040D000848B958B0E94692DF801668B778B808F7E
:1040E000918F128A138A8C818F7D8C83E881F9816C
:1040F00081E084830990D881C02DCE010E94FE0FFB
:1041000081116AC08881833009F053C08D8181306C
:1041100009F04FC0BE01625D7F4FFB01CE01825DA1
:104120009D4F1192E817F907E1F785E5FE01E45D7F
:10413000FD4F80838AEA3196808382E58EA78FA720
:1041400081E688AB91E499AB22E77B972083319697
:10415000208331969083319680833E852F85988980
:1041600089893196308331962083319690833196B8
:1041700080833A852B859C858D8531963083319659
:10418000208331969083319680838A8D9B8DAC8D70
:10419000BD8D9C01AD012F5F3F4F4F4F5F4F2AA751
:1041A0003BA74CA75DA701E010E089810E9416099A
:1041B0001D8240E050E060E089810E94840991E026
:1041C00081110BC090E009C0982F07C090E005C096
:1041D00091E003C0982F01C0982F892FDF91CF91D4
:1041E0001F910F910895CF93DF93EC012FDF811181
:1041F00007C0CE010E940B11811102C019821882E2
:10420000DF91CF9108952F923F924F925F926F92DC
:104210007F928F929F92AF92BF92CF92DF92EF9256
:10422000FF920F931F93CF93DF93CDB7DEB7CC559B
:10423000D1090FB6F894DEBF0FBECDBFE596EEAC48
:10424000FFACE597E3968EAD9FADE3979C8B8B8B90
:104250001E8A1D8A188E1F8A2E0125E7420E511CC8
:10426000212C0F2EF7E03F2EF02DD7016C91662305
:1042700009F48EC1653239F0BFEFEB1AFB0ACE01AB
:104280004396A0DEF2CFF701D180F0E3DF1209C040
:10429000D7011296DC90F70133967F01772473944F
:1042A00011C0FDE2DF1629F022E0E20EF11C712CB4
:1042B00009C0D7011296DC90F70133967F0168940C
:1042C000772471F880ED8D0D8A30F0F4022D10E026
:1042D0008D2D9801220F331F000F111F000F111F8A
:1042E000000F111F020F131F080F111D005311099A
:1042F000FFEFEF1AFF0AF7013197808190ED980FD9
:104300009A3038F3D82E02C0022D10E08D2D8F7D0B
:104310008C3441F4272D2460722ED701DC90F701F4
:1043200031967F01DD2009F433C18FE98D0D8A318B
:1043300018F430EE3D0D01C03D2D832F90E0FC01BF
:10434000E254F109E731F10508F058C0E358FF4F96
:104350000C943847F201A080B180F2E04F0E511C5E
:10436000D5016C91662309F438C1F5013196C22C50
:10437000D12CBFEFCB1ADB0A81918111FACF2AC170
:10438000C22CD12C66246394712C460160E2CE01CC
:10439000439618DEEFEF8E1A9E0A80169106B0F350
:1043A00093012C193D096901C00ED11ED5016C91F4
:1043B000662359F0BFEFAB1ABB0ACE01439602DE6B
:1043C000F50161915F016111F8CFC016D10608F0C7
:1043D0004CCF60E2CE014396F5DDFFEFCF1ADF0A46
:1043E000C016D106B0F341CF82010E5F1F4FD2013C
:1043F0006C91CE014396E6DD280137CF6D2DCE01BD
:104400004396E0DD32CF72FE0EC0AAE001C0A0E10B
:10441000F2016081718182819381B4E04B0E511C65
:10442000343431F519C0AAE0343461F4F20160810A
:104430007181072E000C880B990B92012E5F3F4F64
:1044400029010AC0F2016081718180E090E092014F
:104450002E5F3F4F29010CC0992354F4909580950D
:10446000709561957F4F8F4F9F4F372D3860732E1A
:10447000AE014D5F5F4F5A01822C912C2A2F30E004
:1044800040E050E06D962CAF3DAF4EAF5FAF6D9703
:10449000970178011D2D69016D962CAD3DAD4EAD96
:1044A0005FAD6D970E94FA46F62FE62F622F732FAD
:1044B000842F952FFA3030F0183711F0E32D01C01A
:1044C000E7E2EF0F3FEF831A930AE05DD501ED932A
:1044D0005D01611571058105910521F0B0E18B1633
:1044E0009104D1F68701760173FE0CC0E3E0F0E0A1
:1044F000EC0FFD1FE80DF91D2DE22083A4014F5F95
:104500005F4F4A0170FC04C06894662465F804C0DB
:104510000F2EF0E36F2EF02D71FC15C064015FEFDC
:10452000C51AD50A8016910608F465C00DC08FEF34
:10453000C81AD80AC016D10608F458C068019FEFFF
:10454000C91AD90A01C064010F2EF3E0AF2EB12CB5
:10455000F02DAC0EBD1EA80CB91CA1E08A1A910862
:10456000F50162915F01CE0143962CDD8114910427
:10457000A1F7C016D10608F078CE662DCE0143967D
:1045800021DDFFEFCF1ADF0AC016D106B0F36DCEE2
:104590004D895E895523ACF09E012F5F3F4FBE01D0
:1045A000675E7F4F8B899C8913DB81110DC02D893C
:1045B0003E8989819A812817390749F48F89988D16
:1045C00052C08FEF9FEF4FC08FEF9FEF4CC08FEF28
:1045D0009FEF49C071FE19C0EDCE71FE1FC0C22C05
:1045E000D12CF3CE72FC13CFA0E12CCF662DCE01DF
:1045F0004396E8DC9CCF662DCE014396E3DC640154
:1046000096CFD5016C916301D5CE3601BFEF6B1A01
:104610007B0AC016D10608F4B8CEF3CF01151105F8
:1046200009F0AECECC24C394D12CCFCEF201608160
:1046300071818281938192012C5F3F4F2901A2E019
:1046400017CF72FCF3CFA2E0EFCED2016D917D9136
:104650008D919C91F20134962F01A8E009CF72FC54
:10466000F4CFA8E0EFCEC45ADF4F0FB6F894DEBF08
:104670000FBECDBFDF91CF911F910F91FF90EF90B3
:10468000DF90CF90BF90AF909F908F907F906F9072
:104690005F904F903F902F90089582E08093B800F4
:1046A0000895089584EA8093BC00089584E9809376
:1046B000BC000895ECEBF0E080818823ECF7609378
:1046C000BB0084E88093BC00ECEBF0E080818823A1
:1046D000ECF70895662321F084EC8093BC0003C0BE
:1046E00084E88093BC00ECEBF0E080818823ECF759
:1046F0008091BB0008952AB120662AB928B1237F92
:1047000028B927B12C6027B92AB1237E2AB9FC0128
:104710000C961192E817F907E1F708950895FB0147
:10472000808190E0042E02C0959587950A94E2F767
:1047300080FF05C081E0F901808380E00895F901E0
:104740008081813071F4FB01608170E0FB0102C067
:10475000F595E7954A95E2F7E0FD03C0F90110826F
:104760000895F901108280E008951F93CF93DF939D
:10477000EC01439A82E08A95F1F700C09E012E5F1A
:104780003F4F44E069E270E0CE01C9DF811114C0FF
:104790009E012F5F3F4F43E069E270E0CE01BFDF33
:1047A00081110CC09E0142E069E270E0CE01B7DFEA
:1047B000882331F011E305C013E303C012E301C005
:1047C00010E24398429A82E08A95F1F700C09E0178
:1047D0002B5F3F4F44E069E270E0CE01A0DF811122
:1047E00016C09E012C5F3F4F43E069E270E0CE01AE
:1047F00096DF81110EC09E012D5F3F4F42E069E2BE
:1048000070E0CE018CDF882329F014E303C016E3A7
:1048100001C015E342985E9A82E08A95F1F700C0E4
:104820009E01285F3F4F44E069E270E0CE0177DFF0
:10483000811116C09E01295F3F4F43E069E270E09D
:10484000CE016DDF81110EC09E012A5F3F4F42E015
:1048500069E270E0CE0163DF882329F017E303C02B
:1048600019E301C018E35E985D9A82E08A95F1F73A
:1048700000C09E01255F3F4F44E069E270E0CE0139
:104880004EDF811116C09E01265F3F4F43E069E273
:1048900070E0CE0144DF81110EC09E01275F3F4FC3
:1048A00042E069E270E0CE013ADF882329F01AE2A3
:1048B00003C013E201C010E35D98812FDF91CF9117
:1048C0001F91089552DF482F50E0FA01B397E73166
:1048D000F105C0F4EC56FF4F0C94384785E7089576
:1048E00081E408958CE608958FE6089582E708959F
:1048F00089E5089584E6089588E5089585E6089594
:104900008DE6089580E2089582E40895CF93DF93C1
:10491000EC01CE012ADF80538A30D8F7DF91CF91A6
:1049200008954696BECE08950F931F93CF93DF93BD
:10493000062F142FEC016696CE01B4DE6AE3CE0199
:10494000B9DE602FCE01B6DE612FCE01B3DECE011F
:10495000ADDEDF91CF911F910F91089540E06EE29F
:10496000E3CF0895CF93DF93EC0147E460E2DCDF0F
:1049700040E061E2CE01D8DF40E864E2CE01D4DF5E
:10498000CE01ECDFDF91CF910895CF93DF93EC015F
:10499000469683DE1F821E82188619861A861B861B
:1049A0001C861D861E861F86198A188A1A8A1B8AEB
:1049B0001C8A1D8ADE01A152BF4F1D921D921D92BD
:1049C0001C921397FE01ED51FF4F1082118212824B
:1049D000138234968BE190E0918380831982188250
:1049E0001B821A821D821C82E05DF1099D011192D9
:1049F000119211921192E217F307C9F7CE01B2DFBB
:104A0000DF91CF91089580E00895FC01DB019C9136
:104A1000953639F481A5813011F411A602C081E0E8
:104A200081A780E0089580E0089580E00895CF9305
:104A3000DF93EC018F89988D0E94370B8F89988DB9
:104A40000E94B70BDF91CF910895EF92FF920F93E1
:104A50001F93CF93DF93EC018F89988D0E94370BC2
:104A60007E0122E0E20EF11C8FE0E6E9F1E0D701E1
:104A700001900D928A95E1F78EE08E8B00E010E0B8
:104A8000FE01E10FF11D20E0402F62818F89988D9A
:104A90000E945A0C1F5F0A5F8E89181788F38FE0F7
:104AA000E5EAF1E0D70101900D928A95E1F78EE0F9
:104AB0008E8B00E010E0FE01E10FF11D28E0402F99
:104AC00062818F89988D0E945A0C1F5F0A5F8E89C0
:104AD000181788F380E48F9383E48F9383E38F9395
:104AE0008F9384EB91E09F938F93FF92EF920E94BC
:104AF000B3498E8B2DB73EB7285F3F4F0FB6F89462
:104B00003EBF0FBE2DBF882389F000E010E0FE01FC
:104B1000E10FF11D20E2402F62818F89988D0E9464
:104B20005A0C1F5F0A5F8E89181788F38F89988D3A
:104B30000E94B70BDF91CF911F910F91FF90EF90E3
:104B40000895ECE7F0E090818F71907E892B80834F
:104B5000EAE7F0E0808180648083808186FDFDCF7C
:104B600080917800909179000895CF92DF92EF9232
:104B7000FF9280E0E6DFBC0180E090E00E9495407B
:104B800020E030EC4FE754E40E94FC3F2CE53FE886
:104B900042E550E40E94B0412DE031E740E050E4AE
:104BA0000E94B04160931309709314098093150912
:104BB0009093160926E636E646E650E40E94943FB6
:104BC00028E939E949E15FE30E94FC3F20E030E059
:104BD00048EC52E40E94B0416B017C0120E030E0DF
:104BE00040E251E40E94B0410E9469408DEC689F10
:104BF000812D1124869586958695880F282F220F62
:104C0000220F820F962F981B953070F0C701B601C6
:104C10000E94694070E06F5F7F4F072E000C880B89
:104C2000990B0E94974009C0C701B6010E946940D4
:104C300070E080E090E00E9495400E946440862FE2
:104C4000FF90EF90DF90CF900895CF92DF92EF9298
:104C5000FF920F931F93CF93DF93EC018F89988D71
:104C60000E94370B10E0E12CF12CE98DFA8DEE0D4E
:104C7000FF1D20E0412F60818F89988D0E945A0C82
:104C80002FEFE21AF20A1A5F103379F76EDF7E0116
:104C900032E0E30EF11C282F082E000C330B3F935B
:104CA0008F9382EC91E09F938F93FF92EF920E94FB
:104CB000B3498E8B15E1181B0F900F900F900F903A
:104CC0000F900F90153108F05BC1012F000F010FFD
:104CD000000F8E89FE01E10FF11DE80FF11D7397A2
:104CE00020E0402F60818F89988D0E945A0C1F5FB1
:104CF0000A5F153171F744C1E98DFA8DEC0DFD1D88
:104D000028E3412F60858F89988D0E945A0C8FEF80
:104D1000C81AD80A1A5F103879F78091BE088F93A5
:104D20008091BD088F938091BC088F938091BB08C0
:104D30008F938CEC91E09F938F93FF92EF920E9460
:104D4000B3498E8B2DB73EB7285F3F4F0FB6F8940F
:104D50003EBF0FBE2DBF882389F000E010E0FE01AA
:104D6000E10FF11D20E1402F62818F89988D0E9413
:104D70005A0C1F5F0A5F8E89181788F38091AA0862
:104D80008F938091A9088F938091A8088F93809129
:104D9000A7088F9386ED91E09F938F93FF92EF92F8
:104DA0000E94B3498E8B2DB73EB7285F3F4F0FB699
:104DB000F8943EBF0FBE2DBF882389F000E010E0BD
:104DC000FE01E10FF11D28E1402F62818F89988D4E
:104DD0000E945A0C1F5F0A5F8E89181788F3809112
:104DE00096088F93809195088F93809194088F9364
:104DF000809193088F9380EE91E09F938F93FF9221
:104E0000EF920E94B3498E8B2DB73EB7285F3F4F7C
:104E10000FB6F8943EBF0FBE2DBF882389F000E087
:104E200010E0FE01E10FF11D20E2402F62818F8929
:104E3000988D0E945A0C1F5F0A5F8E89181788F39D
:104E400080918D081F928F9380918E081F928F936F
:104E500080918F081F928F93809190081F928F935B
:104E6000809191081F928F93809192081F928F9347
:104E70008AEE91E09F938F93FF92EF920E94B34945
:104E80008E8B2DB73EB7205F3F4F0FB6F8943EBFD5
:104E90000FBE2DBF882389F000E010E0FE01E10F76
:104EA000F11D28E2402F62818F89988D0E945A0C53
:104EB0001F5F0A5F8E89181788F3E7E1F9E08381A5
:104EC0008F9382818F9381818F9380818F9388E0EC
:104ED00092E09F938F93FF92EF920E94B3498E8B43
:104EE0002DB73EB7285F3F4F0FB6F8943EBF0FBEB9
:104EF0002DBF882389F000E010E0FE01E10FF11DD5
:104F000020E3402F62818F89988D0E945A0C1F5F89
:104F10000A5F8E89181788F3E7E1F9E087858F9398
:104F200086858F9385858F9384858F9388E092E023
:104F30009F938F93FF92EF920E94B3498E8B2DB770
:104F40003EB7285F3F4F0FB6F8943EBF0FBE2DBF50
:104F5000882389F000E010E0FE01E10FF11D28E355
:104F6000402F62818F89988D0E945A0C1F5F0A5FC3
:104F70008E89181788F38F89988D0E94B70B04C00B
:104F800010E5C12CD12CB8CEDF91CF911F910F919C
:104F9000FF90EF90DF90CF900895AF92BF92CF92A5
:104FA000DF92EF92FF920F931F93CF93DF93EC0169
:104FB0008F89988D0E94370BD8DD5E0122E0A20E0A
:104FC000B11C282F082E000C330B3F938F938EE0DB
:104FD00092E09F938F93BF92AF920E94B3498E8BC2
:104FE00095E1092F081B0F900F900F900F900F90D5
:104FF0000F90053108F0D4C1E02EEE0CE00E1E2D0E
:10500000110F8E89FE01E00FF11DE80FF11D73975E
:1050100020E0412F60818F89988D0E945A0C0F5F8C
:105020001A5F053171F7BCC1E98DFA8DEC0DFD1DDC
:1050300028E3412F60858F89988D0E945A0C3FEF9D
:10504000C31AD30A1A5F103879F720E847E360E003
:105050008F89988D0E94400C25E44FE060E08F8995
:10506000988D0E94400C2BE347E065E48F89988D72
:105070000E94400C20E140E065E48F89988D0E94F9
:10508000260C21E447E26FE38F89988D0E94400C43
:1050900020E340E16FE38F89988D0E94260C21E484
:1050A00048E16FE38F89988D0E94400CE98DFA8D5D
:1050B0006081605320E040E08F89988D0E94A40CAD
:1050C000E98DFA8D6181605320E040E18F89988DF0
:1050D0000E94A40CE98DFA8D6381605320E045E2C3
:1050E0008F89988D0E94A40CE98DFA8D648160539C
:1050F00020E045E38F89988D0E94A40C80918C0854
:105100008F9380918B088F9380918A088F938091E1
:1051100089088F9389E192E09F938F93BF92AF921A
:105120000E94B3498E8B98E0092F081B8DB79EB75C
:1051300008960FB6F8949EBF0FBE8DBF0830F8F4E6
:10514000102F1295107F8E89FE01E00FF11DE80FE0
:10515000F11D369760816E3239F420E2412F8F893C
:10516000988D0E945A0C07C0605328E1412F8F8907
:10517000988D0E94A40C0F5F105F083021F720E08B
:1051800030E04AE754E46091850870918608809188
:105190008708909188080E94FC3F9F938F937F938C
:1051A0006F938FE192E09F938F93BF92AF920E9493
:1051B000B3498E8B2DB73EB7285F3F4F0FB6F8949B
:1051C0003EBF0FBE2DBF882389F016E4F12CFE01EF
:1051D000EF0DF11D20E1412F62818F89988D0E9492
:1051E0005A0CF3941A5F8E89F81688F3809184081C
:1051F0008F93809183088F93809182088F93809101
:1052000081088F9386E292E09F938F93BF92AF9233
:105210000E94B3498E8B2DB73EB7285F3F4F0FB624
:10522000F8943EBF0FBE2DBF882389F016E4F12C01
:10523000FE01EF0DF11D28E2412F62818F89988DCB
:105240000E945A0CF3941A5F8E89F81688F3C09066
:105250007D08D0907E08E0907F08F0908008C7011C
:10526000B6012CE330E040E050E00E94FA461F9285
:105270006F931F922F93C701B60120E13EE040E0FB
:1052800050E00E94FA461F922F938FE292E09F9384
:105290008F93BF92AF920E94B3498E8B2DB73EB7CA
:1052A000265F3F4F0FB6F8943EBF0FBE2DBF882339
:1052B00089F016E4F12CFE01EF0DF11D20E3412FE2
:1052C00062818F89988D0E945A0CF3941A5F8E899F
:1052D000F81688F360917D0870917E0880917F08B0
:1052E000909180086115710581059105B1F41F92B7
:1052F0001F921F921F9286E292E09F938F93BF921C
:10530000AF920E94B3498E8B8DB79EB708960FB6A9
:10531000F8949EBF0FBE8DBF2AC00E9495409B018E
:10532000AC01609185087091860880918708909102
:1053300088080E94FC3F26E636E646E650E40E94D6
:10534000B0419F938F937F936F9386E292E09F93F8
:105350008F93BF92AF920E94B3498E8B2DB73EB709
:10536000285F3F4F0FB6F8943EBF0FBE2DBF8E890A
:10537000882389F00BE410E0FE01E10FF11D28E025
:10538000402F62818F89988D0E945A0C1F5F0A5F9F
:105390008E89181788F38F89988D0E94B70B04C0E7
:1053A00010E5C12CD12C40CEDF91CF911F910F91F0
:1053B000FF90EF90DF90CF90BF90AF900895EF9265
:1053C000FF920F931F93CF93DF93EC018F89988DFA
:1053D0000E94370B11E4E12CF12CE98DFA8DEE0DD2
:1053E000FF1D20E0412F60818F89988D0E945A0C0B
:1053F0008FEFE81AF80A1A5F1F3579F7B6DB282F06
:10540000082E000C330B3F938F9384E192E09F931F
:105410008F93CE0102969F938F930E94B3498E8BF8
:1054200015E1181B0F900F900F900F900F900F9099
:10543000153108F05FC0012F000F010F000F8E899A
:10544000FE01E10FF11DE80FF11D739720E0402FE1
:1054500060818F89988D0E945A0C1F5F0A5F1531F9
:1054600071F748C0E98DFA8DEE0DFF1D28E3412F3D
:1054700060858F89988D0E945A0C8FEFE81AF80A80
:105480001A5F113779F7E98DFA8D09A522894189CB
:1054900060898F89988D0E941E0DE98DFA8D60813B
:1054A00060532DE046E48F89988D0E94A40CE98D0D
:1054B000FA8D618160532DE046E58F89988D0E94B9
:1054C000A40CE98DFA8D6381605322E246E48F8952
:1054D000988D0E94A40CE98DFA8D6481605322E2BC
:1054E00046E58F89988D0E94A40C8F89988D0E9423
:1054F000B70B04C011E4E12CF12CB4CFDF91CF91B4
:105500001F910F91FF90EF900895CF92DF92EF924D
:10551000FF920F931F93CF93DF93EC018F89988DA8
:105520000E94370B10E0E12CF12CE98DFA8DEE0D85
:10553000FF1D20E0412F60818F89988D0E945A0CB9
:105540008FEFE81AF80A1A5F103379F70EDB7E0145
:1055500092E0E90EF11C282F082E000C330B3F932C
:105560008F9382EC91E09F938F93FF92EF920E9432
:10557000B3498E8B15E1181B0F900F900F900F9071
:105580000F900F90153108F0BFC0012F000F010FD1
:10559000000F8E89FE01E10FF11DE80FF11D7397D9
:1055A00020E0402F60818F89988D0E945A0C1F5FE8
:1055B0000A5F153171F7A8C0E98DFA8DEC0DFD1D5C
:1055C00028E3412F60858F89988D0E945A0C8FEFB8
:1055D000C81AD80A1A5F103879F785E598E6A2E765
:1055E000B0E08A839B83AC83BD8383E08E8B0CE029
:1055F00010E0FE01E10FF11D20E1402F62818F8953
:10560000988D0E945A0C1F5F0A5F8E89181788F3C5
:1056100086E0EEE3F2E0D70101900D928A95E1F782
:1056200085E08E8B0CE010E0FE01E10FF11D28E11A
:10563000402F62818F89988D0E945A0C1F5F0A5FEC
:105640008E89181788F388E0E4E4F2E0D70101902E
:105650000D928A95E1F787E08E8B0CE010E0FE0159
:10566000E10FF11D20E2402F62818F89988D0E9409
:105670005A0C1F5F0A5F8E89181788F38EE0ECE4DE
:10568000F2E0D70101900D928A95E1F78DE08E8BC3
:105690000CE010E0FE01E10FF11D28E2402F6281D5
:1056A0008F89988D0E945A0C1F5F0A5F8E89181788
:1056B00088F38CE0EAE5F2E0D70101900D928A953B
:1056C000E1F78BE08E8B0CE010E0FE01E10FF11DA5
:1056D00020E3402F62818F89988D0E945A0C1F5FB2
:1056E0000A5F8E89181788F32DA1220F220F220F2F
:1056F000205F40E06EE38F89988D0E945A0C8F895D
:10570000988D0E94B70B04C010E5C12CD12C54CF4A
:10571000DF91CF911F910F91FF90EF90DF90CF908D
:105720000895F894F999FECF92BD81BD60BDFA9AB3
:10573000F99A78940895CF93DF93EC01FB0190815F
:10574000953609F041C0E98DFA8D80919208808BE1
:10575000E98DFA8D80919108818BE98DFA8D809188
:105760009008828BE98DFA8D80918F08848BE98D6A
:10577000FA8D80918E08868BE98DFA8D80918D0847
:10578000878B898D9A8D0E94933EE98DFA8D618970
:1057900080E090E0C6DFE98DFA8D608981E090E0DD
:1057A000C0DFE98DFA8D648982E090E0BADFE98D8F
:1057B000FA8D668983E090E0B4DFE98DFA8D678920
:1057C00084E090E0AEDF07C0913411F4449A03C046
:1057D000923409F4449880E0DF91CF910895F894D1
:1057E000F999FECF92BD81BDF89A789480B508955D
:1057F0001F920F920FB60F9211240BB60F922F9398
:105800003F934F935F936F937F938F939F93AF9348
:10581000BF93EF93FF930E94200BFF91EF91BF91F5
:10582000AF919F918F917F916F915F914F913F9138
:105830002F910F900BBE0F900FBE0F901F901895D9
:105840001F920F920FB60F9211240BB60F928F93E7
:10585000EF93FF93ECE3FEE082898F5F828B808D74
:105860008260808FFF91EF918F910F900BBE0F9010
:105870000FBE0F901F9018951F920F920FB60F92A8
:1058800011248F9380910B09816080930B098F9174
:105890000F900FBE0F901F9018951F920F920FB68A
:1058A0000F9211240BB60F922F938F939F93EF9328
:1058B000FF932091C600243251F480910809982F5B
:1058C0009C7029F41092BF08816080930809909120
:1058D000080990FF3CC08091BF08E82FF0E0E05439
:1058E000F74F20838F5F8093BF08893420F09E7F1D
:1058F000909308092CC08331C9F48091C4088D3479
:1059000089F48091C508833469F48091D208813488
:1059100029F09D7F90619093080919C0926090933F
:10592000080915C09C7F9093080911C08A3239F488
:1059300094FF0DC09E7E98609093080908C086343D
:1059400031F491FF04C09C7F946090930809FF910B
:10595000EF919F918F912F910F900BBE0F900FBEE3
:105960000F901F9018951092890810928A08109233
:105970008B0810928C08109285081092860810925D
:10598000870810928808109281081092820810925D
:1059900083081092840810927D0810927E0810925D
:1059A0007F08109280080895FB018081853609F4F4
:1059B000DADF80E00895FC01208130E0062E02C08D
:1059C000359527950A94E2F720FF16C0EFE0F7E23D
:1059D0003197F1F700C00000FC01808190E002C027
:1059E000959587956A95E2F780FD08C0F2E0FA95F3
:1059F000F1F700C081E0089580E0089580E0089507
:105A0000CF92DF92EF92FF92CF93DF93E4E8F0E042
:105A1000C081D181118210822BED3FE049E450E436
:105A20000E94B04126E636E646E650E40E94B041C8
:105A30006B017C01BE0180E090E00E94954020E077
:105A400030E040E05EE30E94B0412DEB37E346E8F2
:105A50005AE30E94B0412AE037ED43EA5BE30E943B
:105A6000953F9B01AC01C701B6010E94FC3F20910C
:105A7000890830918A0840918B0850918C080E94C7
:105A8000953F20E030E040E05FE30E94B0416B01D1
:105A90007C0120E030E040E253E40E94A5418823ED
:105AA0004CF4C0928908D0928A08E0928B08F09258
:105AB0008C0808C01092890810928A0810928B08EE
:105AC00010928C08DF91CF91FF90EF90DF90CF90F4
:105AD00008950F931F93ECE3FEE02489868990E0FC
