S0100000465743505F4D4B332E73726563BA
S113000058C3000080C300007EC300007CC300000E
S11300107AC3000078C3000076C3000074C30000F4
S113002072C3000070C300006EC300000C94612B07
S11300306AC300000C947D2B66C3000064C30000F7
S11300400C94392B60C300005EC300005CC3000045
S11300500C948E2B58C3000056C3000054C30000F8
S113006052C3000050C300004EC300004CC3000044
S11300704AC3000048C3000046C3000044C3000054
S113008042C3000040C300003EC300004A095109B6
S11300909E0AC1099E0A9E0A9E0A960A9E0A9E0A02
S11300A09E0A9E0A9E0A9E0A9E0A9E0A9E0A9E0A0C
S11300B09E0A9E0A9E0A9E0A9E0A9E0A9E0A9E0AFC
S11300C09E0A9E0A9E0A9E0A9E0A9E0A9E0A9E0AEC
S11300D09E0A9E0A9E0A9E0A9E0A9E0A9E0A9E0ADC
S11300E09E0A9E0A9E0A9E0A9E0A9E0A9E0A9E0ACC
S11300F0470A4D0A5E0A6F0A840AC7229A21A92177
S1130100A421A421A421A421A421A421A421A421C3
S1130110A421A421D522A421A421A4215021A421D5
S1130120A921A421A421982226242824282428248F
S1130130282428242824242428242824282428245F
S113014028242B242A241424162418241A241C2496
S11301501E2420242224DB2EEB2EEB2EEB2EEB2E62
S1130160EB2EEB2EEB2EEB2EEB2EEB2EEB2EEB2EC3
S1130170EB2EEB2EEB2EEB2EEB2EEB2EEB2EEB2EB3
S1130180EB2EEB2EEB2EEB2EEB2EEB2EEB2EEB2EA3
S1130190EB2EEB2EEB2EEB2EEB2EEB2EEB2EEB2E93
S11301A0EB2EEB2EEB2EEB2EEB2EEB2EEB2EEB2E83
S11301B0EB2EEB2EEB2EEB2EEB2EEB2EEB2EB72EA7
S11301C0EB2EEB2EEB2EEB2EEB2EEB2EEB2E7E2ED0
S11301D07A2EEB2EA12EEB2EEB2E8B2EEB2EEB2E6E
S11301E0CB2E7A37A037C737EF37163840386938FF
S11301F093380A39343905A84CCDB2D44EB93836BF
S1130200A9020C50B9918688083CA6AAAA2ABE0065
S11302100000803F07634236B79BD8A71A39685657
S113022018AEBAAB558C1D3CB7CC5763BD6DEDFD14
S1130230753EF6177231BF000000803F08000000D1
S1130240BE922449123EABAAAA2ABECDCCCC4C3EC7
S113025000000080BEABAAAAAA3E00000000BF00B6
S11302600000803F0000000000084178D3BB4387B2
S1130270D1133D190E3CC3BD4282AD2B3E68EC82C6
S113028076BED98FE1A93E4C80EFFFBE01C4FF7F4B
S11302903F000000000000E0F8FCFE1E070707070F
S11302A01EFEFCF8F00000070F3F3F7C707070707A
S11302B07C3F1F1F0700000000060707FFFFFFFF2A
S11302C00000000000000000000000007F7F7F7F2E
S11302D000000000000000383C3E3E0F070707CF37
S11302E0FFFEFE3800000040406070787C7E7F771F
S11302F073717070000000181C1E1E0FC7C7E7FF43
S1130300FEBE9C000000000C1C3C3C7870707079B0
S11303107F3F1F0F0000000080C0E070381C1EFFEC
S1130320FFFFFF0000000607070706060606067F14
S11303307F7F7F06060000000000F0FFFFFFE7E775
S1130340E7E7C7870000000038787170707070703C
S1130350393F3F1F0F000080E0F0F8FC7F7F6F679C
S1130360E1E1C0800000000F1F3F3F7870707070A3
S1130370783F3F1F0F00000707070707C7E7F7FF8E
S11303807F3F1F0703010020387C7E3F0F070300D7
S11303900000000000000000001CBEFEFFE7C3C315
S11303A0E7FFFEBE1C0000000E3F3F7F71606060EF
S11303B0717F3F3F0F000078FCFEFE8F07070707A1
S11303C08FFEFEFCF800000000014343737B7F7F37
S11303D01F0F0703000000005F0000000700070074
S11303E0147F147F14242A7F2A122313086462368C
S11303F0495522500005030000001C224100004121
S1130400221C0014083E081408083E080800503056
S113041000000808080808006060000020100804B4
S1130420023E5149453E00427F40004261514946E7
S11304302141454B311814127F1027454545393C5D
S11304404A49493001710905033649494936064983
S113045049291E00363600000056360000081422D2
S11304604100141414141400412214080201510907
S113047006324979413E7E1111117E7F4949493640
S11304803E414141227F4141221C7F494949417FEC
S1130490090909013E4149497A7F0808087F00415A
S11304A07F41002040413F017F081422417F4040AA
S11304B040407F020C027F7F0408107F3E4141418F
S11304C03E7F090909063E4151215E7F09192946EB
S11304D0464949493101017F01013F4040403F1FE6
S11304E02040201F3F4038403F631408146307082E
S11304F07008076151494543007F414100020408E7
S113050010200041417F00040201020440404040A9
S113051040000102040020545454787F4844443875
S11305203844444420384444487F385454541808C8
S11305307E0901020C5252523E7F080404780044A2
S11305407D40002040443D007F1028440000417F4E
S113055040007C041804787C08040478384444443B
S1130560387C14141408081414187C7C0804040837
S11305704854545420043F4440203C4040207C1CB8
S11305802040201C3C4030403C44281028440C505F
S113059050503C4464544C44000836410000007FF1
S11305A00000004136080010080810086E616E0053
S11305B0696E660000407A10F35A00A0724E180962
S11305C00010A5D4E80000E87648170000E40B54B6
S11305D0020000CA9A3B000000E1F5050000809685
S11305E09800000040420F000000A08601000000B7
S11305F0102700000000E803000000006400000071
S113060000000A00000000000100000000002C7639
S1130610D888DC674F0823DFC1DFAE59E1B1B79654
S1130620E5E3E453C63AE651997696E8E6C28426B1
S1130630EB898C9B62ED407C6FFCEFBC9C9F40F28D
S1130640BAA56FA5F490055A2AF75C936B6CF96709
S11306506DC11BFCE0E40D47FEF520E6B500D0EDCE
S1130660902E0300943577050080841E0800002036
S11306704E0A000000C80C333333330F986E1283D4
S11306801141EF8D2114893BE65516CFFEE6DB18A8
S1130690D1844B381BF77C1D901DA4BBE42420326D
S11306A084725E228100C9F124ECA1E53D27C83B98
S11306B0EB3B11241FBECFEFD0E4DEBFCDBF14E06F
S11306C0A0E0B1E0E0E0F2E900E00BBF02C0079077
S11306D00D92A232B107D9F72EE0A2E2B4E001C034
S11306E01D92A533B207E1F713E0C8E5D3E004C0D7
S11306F02197FE010E94EC45C735D107C9F70E9436
S1130700DC340C94F4487CCC8A960C94F72208953B
S11307100F931F93CF93DF93062F142FEC01AA9608
S1130720CE010E94F8226EEECE010E940023602FBB
S1130730CE010E940023612FCE010E940023CE012E
S11307400E94FC22DF91CF911F910F9108950F9386
S11307501F93CF93DF93EC018C01065D1F4FC801FB
S11307600E94F8226EEEC8010E9400236AEAC801C2
S11307700E940023C8010E94F8226FEEC8010E9463
S1130780002361E0C8010E9410231C868D8761E06C
S1130790C8010E9410232C853D85280F311D3D87FB
S11307A02C8761E0C8010E9410231E868F8761E0B8
S11307B0C8010E9410232E853F85280F311D3F87D5
S11307C02E8761E0C8010E941023188A898B61E09A
S11307D0C8010E94102328893989280F311D398BBB
S11307E0288B61E0C8010E9410231C8E8D8F61E06C
S11307F0C8010E9410232C8D3D8D280F311D3D8F83
S11308002C8F61E0C8010E9410231E8E8F8F61E03F
S1130810C8010E9410232E8D3F8D280F311D3F8F5C
S11308202E8F61E0C8010E94102318A289A361E001
S1130830C8010E94102328A139A1280F311D39A312
S113084028A361E0C8010E9410231A8A8B8B61E0FF
S1130850C8010E9410232A893B89280F311D3B8B34
S11308602A8B61E0C8010E9410231C8A8D8B61E0F1
S1130870C8010E9410232C893D89280F311D3D8B0E
S11308802C8B61E0C8010E9410231E8A8F8B61E0CB
S1130890C8010E9410232E893F89280F311D3F8BE8
S11308A02E8B61E0C8010E941023188E898F61E0AD
S11308B0C8010E941023288D398D280F311D398FCE
S11308C0288F61E0C8010E9410231A8E8B8F60E08C
S11308D0C8010E9410232A8D3B8D280F311D3B8FA8
S11308E02A8FC8010E94FC22DF91CF911F910F91A2
S11308F00895CF93DF93EC018A960E94F3221AA203
S11309001BA21CA21DA21EA21FA218A619A6CE01DC
S11309101EDFDF91CF9108958F929F92AF92BF9285
S1130920CF92DF92EF92FF920F931F93CF93DF93B7
S11309308C014EE264EFECDE8FE097E20197F1F771
S113094000C00000E801AA96CE010E94F8226EEED3
S1130950CE010E94002366EFCE010E940023CE0147
S11309600E94F8226FEECE010E94002361E0CE01C6
S11309700E941023C82ED12CDC2CCC240D2C000C6E
S1130980EE08FF0860E0CE010E941023C80ED11CBF
S1130990E11CF11CCE010E94FC22F80180A191A16E
S11309A0A7019601281B390B41095109A68DB78D62
S11309B00E9404466B017C010B2EBFE0F594E79482
S11309C0D794C794BA95D1F7B02D808D60E070E0CC
S11309D0782F770F770F770F072E000C880B990B62
S11309E0228D338D4901330FAA08BB08A501940158
S11309F02C0D3D1D4E1D5F1D0E94D045D701C60123
S1130A00820F931FA41FB51FF80182A393A3A4A36D
S1130A10B5A30896A11DB11DBC01CD01689413F8BE
S1130A2096958795779567951694D1F70E94493FD7
S1130A3020E030E040E251E40E94B03EF8016483DB
S1130A40758386839783DF91CF911F910F91FF90D8
S1130A50EF90DF90CF90BF90AF909F908F900895CC
S1130A602F923F924F925F926F927F928F929F92BA
S1130A70AF92BF92CF92DF92EF92FF920F931F93A8
S1130A80CF93DF93CDB7DEB728970FB6F894DEBFC8
S1130A900FBECDBF1C0140DF44EF64EFC10138DE5F
S1130AA08FE19BEC0197F1F700C0000071019AE21D
S1130AB0E90EF11CC7010E94F8226EEEC7010E94E4
S1130AC0002366EFC7010E940023C7010E94F82299
S1130AD06FEEC7010E94002361E0C7010E9410234A
S1130AE061E0C7010E941023D82E60E0C7010E9474
S1130AF010232D2D30E0322F2227A901330F660B4E
S1130B00770B8A019B01080F111D211D311D0983DB
S1130B101A832B833C83C7010E94FC22F101C2A0EB
S1130B20D3A0E4A0F5A0F0EACF1AFFE0DF0AE108C1
S1130B30F108A7019601C701B6010E949F452B0148
S1130B403C01F101A089B1890E940E464B015C0170
S1130B50072E7DE0B594A794979487947A95D1F75E
S1130B60702DA289B389A3019201012E1CE0559531
S1130B704795379527951A95D1F7102D0E940E4663
S1130B80BB2797FDB095AB2F880D991DAA1DBB1DE2
S1130B900296A11DB11DB595A79597958795B59515
S1130BA0A795979587959C01AD0130584F4F5F4F9E
S1130BB0A48DB58D0E9404468B019C010F2EFFE08D
S1130BC03695279517950795FA95D1F7F02D0D834E
S1130BD01E832F83388784849584092C000CAA08EB
S1130BE0BB08880C991CAA1CBB1C880C991CAA1C49
S1130BF0BB1CA489B589A30192010E940E462B0156
S1130C003C01032E37E175946794579447943A95C1
S1130C10D1F7302DA685B785A70196010E940E460F
S1130C20DC01CB01072E7BE0B595A79597958795B9
S1130C307A95D1F7702D480E591E6A1E7B1E840CBE
S1130C40951CA61CB71C880C991CAA1CBB1C2981CA
S1130C503A814B815C81281939094A095B09AAE662
S1130C60B8E10E94044699236CF0660F771F881F31
S1130C70991F2D813E814F8158850E94AE4569019F
S1130C807A010CC02D813E814F8158850E94AE456A
S1130C9069017A01CC0CDD1CEE1CFF1C9927F7FCC2
S1130CA09A958F2D7E2D6D2D9B01AC010E949F4541
S1130CB09B01AC01AEEDBBE00E9404464C01BB2499
S1130CC097FCB094AB2CA3E4B3EEA70196010E9469
S1130CD01046BB2797FDB095AB2F880D991DAA1D13
S1130CE0BB1D8153914FAF4FBF4F689413F8B59517
S1130CF0A795979587951694D1F7BC01CD016C0DF6
S1130D007D1D8E1D9F1DF10166A377A380A791A76A
S1130D100E94493F20E030E048EC52E40E94B03E9B
S1130D20F101608371838283938328960FB6F894CC
S1130D30DEBF0FBECDBFDF91CF911F910F91FF900A
S1130D40EF90DF90CF90BF90AF909F908F907F9067
S1130D506F905F904F903F902F90089581CE0895AB
S1130D601CBC84B18F7584B92C9A08958EBD0DB4C2
S1130D7007FEFDCF8EB508952C9A8FEFF7CF089517
S1130D802C988FEFF3DF82E3809323048FEFEEDF61
S1130D908F3F41F0809123048111F8CFEDDF80E093
S1130DA090E0089581E090E008950F931F93CF930E
S1130DB0DF93EC018B0184E1809324048FEFD6DF71
S1130DC08F3F39F4909124049111F8CF80E090E0A2
S1130DD020C08E3FE1F4F8948FEF8EBD0DB407FE72
S1130DE0FDCF9EB598838EBD0DB407FEFDCF229630
S1130DF09EB5FE01319790830250110971F77894E2
S1130E008FEFB4DF8FEFB2DF81E090E002C080E0CB
S1130E1090E0DF91CF911F910F910895FF920F936E
S1130E201F93CF93DF93C82FD42F152F062FF72EA0
S1130E3088234CF440E050E0BA0187E3EFDF8230CE
S1130E4008F03CC0CF77CC30F1F096DF99DF892BE6
S1130E50C1F08C2F80648ADF8F2D88DF802F86DF9E
S1130E60812F84DF8D2F82DFCC2329F121C08FEFE6
S1130E707DDFCAE08FEF7ADF882304F5C150D1F714
S1130E801DC08FEF1BC08CE471DF8F2D6FDF802FAF
S1130E906DDF812F6BDF8D2F69DF81E067DFCC3061
S1130EA031F3E7CF87E862DFE4CF81E05FDFE1CFB2
S1130EB0C830C1F3FACF85E959DFDBCFDF91CF9199
S1130EC01F910F91FF9008951F93CF93DF93EC012F
S1130ED0162F92E3909323048FEF48DF8F3F31F076
S1130EE0909123049111F8CF80E028C0812F3EDF38
S1130EF01D3F11F1F8949E013E5F88818EBD0DB4B3
S1130F0007FEFDCF2296FE01319780818EBD0DB480
S1130F1007FEFDCF2C173D0781F778948FEF26DF6E
S1130F208FEF24DF8FEF22DF282F2F7181E090E0F5
S1130F30253021F080E002C081E090E0DF91CF9184
S1130F401F910895CF92DF92EF92FF920F931F9318
S1130F50CF93DF9300D000D0CDB7DEB781119BC013
S1130F60FFDE8091060182FF03C0809106019EC0CE
S1130F7084B1806B84B926982C9A81E08DBD82E57A
S1130F808CBD1AE08FEFF2DE1150E1F740E050E043
S1130F90BA0180E043DF813009F084C084E68093A5
S1130FA024044AEA51E060E070E088E037DF8130F1
S1130FB009F03FC0CE0101966C017E0195E0E90E77
S1130FC0F11C86018FEFD2DEF80181938F01EE15BB
S1130FD0FF05C1F78B81813009F064C08C818A3AA6
S1130FE009F060C080912404882341F040E050E07F
S1130FF060E070E489EA12DF8111F4CF8091240467
S1131000882309F44FC040E050E0BA018AE306DFC8
S1131010811148C0760114E01C0D8FEFA7DEF701A3
S113102081937F011E13F9CF898186FD36C084E048
S113103035C040E050E0BA0189EAF0DE823018F0B1
S113104001E011E002C002E019EA9091240499231E
S113105039F040E050E0BA01812FE0DE8111F5CF94
S1131060809124048823F1F040E052E060E070E0D5
S113107080E1D4DE811116C0009322047DDE0023BA
S113108031F0809106018E7F8093060101C068DEF5
S1131090809106010BC081E009C08CE0809322049A
S11310A06BDEEFCF1092220467DEF1CF0F900F902A
S11310B00F900F90DF91CF911F910F91FF90EF90C0
S11310C0DF90CF900895811103C0809106010895A7
S11310D081E00895FF920F931F93CF93DF93EB0169
S11310E081113FC00115110509F43DC0809106012D
S11310F080FD3BC08091220483FD09C0012E19E0CC
S1131100220F331F441F551F1A95D1F7102D02309B
S1131110110528F40F2EF1E1FF2EF02D04C00F2E3F
S1131120F2E1FF2EF02DBA01A9018F2D77DE811196
S113113012C060E072E0CE0138DE892B21F0DE5F60
S113114001501109B1F782E1F81205C040E050E006
S1131150BA018CE063DE10DE81E0012B39F480E01B
S113116005C084E003C084E001C083E0DF91CF9137
S11311701F910F91FF900895CF92DF92EF92FF920B
S11311800F931F93CF93DF93EB0169017A018111D0
S113119051C00115110509F44FC08091060180FD6D
S11311A04DC08091060182FD4BC08091220483FDD5
S11311B009C00B2EB9E0CC0CDD1CEE1CFF1CBA954B
S11311C0D1F7B02D0130110589F4B701A60188E1EA
S11311D025DE811129C06EEFCE0176DE31E020E0FC
S11311E0892B09F030E0032F122F1EC0867029F0DE
S11311F0A80160E070E087E911DEB701A60189E18A
S11312000DDE811111C06CEFCE015EDE892B21F061
S1131210DE5F01501109B9F76DEF80E090E054DE14
S1131220892B11F401E010E0A7DD81E0012B49F4E2
S113123080E007C084E005C084E003C083E001C00F
S113124082E0DF91CF911F910F91FF90EF90DF909B
S1131250CF900895EF92FF920F931F93CF93DF9354
S1131260CDB7DEB760970FB6F894DEBF0FBECDBF23
S113127081117CC18091060180FD7AC17A01062F1B
S113128010E00733110508F059C1F801EA5BFF4F7C
S11312900C94EC4575DD11E0892B09F464C110E070
S11312A062C140E050E0BA0189E0B8DD811148C173
S11312B060E170E0CE01019678DD892B09F442C12A
S11312C089818295869586958370813031F58885EC
S11312D08F7390E0A0E0B0E0DC01992788270196A5
S11312E0A11DB11D298530E0322F22274A85240F04
S11312F0311D820F931FA11DB11D072E7AE0880FA7
S1131300991FAA1FBB1F7A95D1F7702DF70180830F
S11313109183A283B38310E026C189858295869543
S113132086958370288590E0F4E02F9F800D911DB1
S113133011249C012F5F3F4F8F81837090E0982F81
S11313408827990F990F820F931FA0E0B0E03E8188
S11313503F702B85221F2227221F320F2A852370DC
S1131360220F230F275004C0880F991FAA1FBB1FE9
S11313702A95D2F7F70180839183A283B38310E087
S1131380F2C01091220412FF2AC040E050E0BA01DA
S11313908DE844DD8111D8C08FEFE8DC60E170E0B6
S11313A0CE01019602DD892B09F4D0C010E38FEF42
S11313B0DDDC1150E1F72B8522952F7080E190E060
S11313C0A0E0B0E004C0880F991FAA1FBB1F2A9594
S11313D0D2F7F70180839183A283B383C4C040E032
S11313E050E0BA0189E01ADD8111B2C060E170E019
S11313F0CE010196DADC892B09F4ACC011FF20C0C0
S11314008C85881F8827881F90E001962B852F7371
S1131410820F911D820F911D2E852295269526956A
S11314202370215002C0880F991F2A95E2F7A0E08B
S1131430B0E0F70180839183A283B38310E093C06B
S11314408C85282F237082958695877090E0F8E02C
S11314502F9F800D911D112401962B852C7730E050
S113146035952795359527952F5F3F4F829FA0018E
S1131470839F500D929F500D1124CA01A0E0B0E04B
S1131480F70180839183A283B38310E06CC08091C1
S11314902204FA01808310E066C040E050E0BA0103
S11314A089E0BCDC811158C060E170E0C7017DDCDB
S11314B011E0892B09F457C010E055C040E050E01A
S11314C0BA018AE0ABDC811149C060E170E0C70178
S11314D06CDC11E0892B09F446C010E044C040E004
S11314E050E0BA018AE39ADC81113AC08701F4E042
S11314F0EF0EF11C8FEF3ADCF80181938F01EE15AA
S1131500FF05C1F710E02FC040E050E0BA018DE8BC
S113151085DC811127C08FEF29DC60E470E0C7010E
S113152044DC11E0892BF9F010E01DC019DC809136
S1131530060181608093060110E015C014E013C019
S113154011E011C011E00FC011E00DC011E00BC09B
S113155011E009C011E007C011E005C011E003C0AB
S113156011E001C011E008DC812F03C084E001C058
S113157083E060960FB6F894DEBF0FBECDBFDF9157
S1131580CF911F910F91FF90EF90089580912404C3
S1131590882319F0815080932404809123048823A4
S11315A019F08150809323048091060180930601F1
S11315B008959C5F0C94F7220895FC019C5F11929E
S11315C0E817F907E1F708951F93CF93DF93162FD8
S11315D0EC01DC5FCE010E94F82268E7CE010E9494
S11315E0002360E0CE010E940023612FCE010E94FF
S11315F00023CE010E94FC22DF91CF911F91089518
S1131600CF93DF93EC016EEADFDF65EDCE01DCDF23
S113161060E8CE01D9DF68EACE01D6DF6FE3CE0100
S1131620D3DF63EDCE01D0DF60E0CE01CDDF60E437
S1131630CE01CADF6DE8CE01C7DF64E1CE01C4DFAD
S113164060E2CE01C1DF60E0CE01BEDF61EACE011F
S1131650BBDF68ECCE01B8DF6AEDCE01B5DF62E135
S1131660CE01B2DF61E8CE01AFDF6FECCE01ACDFBB
S113167069EDCE01A9DF61EFCE01A6DF6BEDCE01EE
S1131680A3DF60E4CE01A0DF64EACE019DDF66EA59
S1131690CE019ADF6FEACE0197DFDF91CF910895F3
S11316A0CF93DF93EC019C5F0E94F322CE01A8DF6D
S11316B0CE0183DFDF91CF910895EF92FF920F93D4
S11316C01F93CF93DF93EC0161E27EDF60E0CE01F4
S11316D07BDF6FE7CE0178DF62E2CE0175DF60E089
S11316E0CE0172DF67E0CE016FDF8E011C5FC8019F
S11316F00E94F82268E7C8010E94002360E4C80140
S11317000E94002378016991C8010E940023CE152C
S1131710DF05C9F7C8010E94FC22DF91CF911F9118
S11317200F91FF90EF9008956623ACF1403498F543
S1131730211119C0242F26952695269550E8259F1A
S113174090011124260F311DFC01E20FF31F477095
S113175081E090E002C0880F991F4A95E2F79081DA
S1131760892B80830895242F26952695269530E885
S1131770239FF0011124E60FF11DE80FF91F4770B4
S113178081E090E002C0880F991F4A95E2F78095A6
S11317909081892380830895FF920F931F93CF93A1
S11317A0DF93222369F0C42FF62E8C01D22FD40F9D
S11317B020E04C2F6F2DC801B7DFCF5FCD13F8CFDA
S11317C0DF91CF911F910F91FF900895FF920F9396
S11317D01F93CF93DF93222369F0F42EC62F8C013D
S11317E0D22FD60F20E04F2D6C2FC8019DDFCF5F85
S11317F0CD13F8CFDF91CF911F910F91FF900895F2
S11318000F931F93CF93DF93613208F43EC0A42F4C
S1131810B0E0022F06950695069530E8039F8001F7
S11318201124615270E0FB01EE0FFF1FEE0FFF1F4A
S1131830E60FF71FEA52FC4FAD01400F511FEC01B8
S1131840C40FD51F00581F4FA00FB11FA80FB91FF9
S11318504B5F5F4F480F591F2770649170E0022E51
S113186002C0660F771F0A94E2F79881962B99932A
S1131870672F77276115710519F08C91682B6C938C
S113188031961196C417D50741F7DF91CF911F9177
S11318900F910895CF92DF92EF92FF920F931F93CF
S11318A0CF93DF936A3008F066C050E0022F0695AC
S11318B00695069510E0D801B695BA2FAA27B795D4
S11318C0A7950F5F1F4F1695102F002717950795A3
S11318D07D0130E8E30EF11CE40EF51EE80EF91E5E
S11318E0EA01C00FD11F6097C80FD91F040F151F3D
S11318F000591F4F080F191FA40FB51FA80FB91FB8
S113190080E2689FB001112440E050E02770FA01A2
S1131910E60FF71FEA56FD4FE491F0E0022E02C0F5
S1131920EE0FFF1F0A94E2F7403168F48C918E2B7E
S11319308C93CF2EDD24C114D10489F0F70180816A
S11319408C2980830CC088818E2B8883CF2EDD2444
S1131950C114D10421F0F80180818C2980834F5F68
S11319605F4FFFEFEF1AFF0A21960F5F1F4F11968B
S11319704032510561F6DF91CF911F910F91FF9095
S1131980EF90DF90CF9008952F923F924F925F9205
S11319906F927F928F929F92AF92BF92CF92DF927B
S11319A0EF92FF920F931F93CF93DF93CDB7DEB7E0
S11319B027970FB6F894DEBF0FBECDBF9F838E83EB
S11319C06D83342E002309F426C1622F70E080E079
S11319D090E00E944B3F20E030E040EC50E40E9455
S11319E064402BED3FE049E450E40E94644020E071
S11319F030E044E353E40E94B03E2BED3FE049EC79
S1131A005FE30E94483E6B017C010E94AD3E4B01A6
S1131A105C01C701B6010E9413412B013C0100E0A7
S1131A2010E0B801012E000C880B990B0E944B3F6B
S1131A306B017C01A30192010E94644020E030E02C
S1131A4048EF51E40E94493E0E941D3F262EA50105
S1131A509401C701B6010E94644020E030E048EFE1
S1131A6051E40E94493E0E941D3F20E0422D8E8198
S1131A709F815ADE0F5F1F4F0931110591F6632DC7
S1131A8070E080E090E00E944B3F69837A838B830F
S1131A909C8320E030E040EC50E40E9464402BED55
S1131AA03FE049E450E40E94644020E030E044E335
S1131AB053E40E94B03E2BED3FE049EC5FE30E940B
S1131AC0483E6B017C010E94AD3E2B013C01C701E5
S1131AD0B6010E9413414B015C0100E010E0B80123
S1131AE0012E000C880B990B0E944B3F6B017C016B
S1131AF0A50194010E94644020E030E048EF51E4E5
S1131B000E94493E0E941D3F362EA3019201C70147
S1131B10B6010E94644020E030E048EF51E40E94A6
S1131B20493E0E941D3F20E0432D8E819F81FCDDB4
S1131B300F5F1F4F0531110591F62D81622F70E063
S1131B4080E090E00E944B3F20E030E040EF51E421
S1131B500E9464406B017C0120E030E040E05FE3E0
S1131B6069817A818B819C810E9464409B01AC01D4
S1131B70C701B6010E94493E2BED3FE049E450E421
S1131B800E94644020E030E044E353E40E94B03E0D
S1131B902BED3FE049EC5FE30E94483E6B017C0182
S1131BA00E94AD3E4B015C01C701B6010E94134186
S1131BB02B013C0100E010E0B801012E000C880B61
S1131BC0990B0E944B3F6B017C01A30192010E947F
S1131BD0644020E030E048EF51E40E94493E0E9416
S1131BE01D3F362EA5019401C701B6010E94644031
S1131BF020E030E048EF51E40E94493E0E941D3F3E
S1131C0020E0432D8E819F818FDD0F5F1F4F0D30AC
S1131C10110591F6CBC0642F70E080E090E00E9443
S1131C204B3F69837A838B839C8320E030E040ECD4
S1131C3050E40E9464402BED3FE049E450E40E94EC
S1131C40644020E030E044E353E40E94B03E2BEDD6
S1131C503FE049EC5FE30E94483E6B017C010E9437
S1131C60AD3E2B013C01C701B6010E9413414B015B
S1131C705C0100E010E0B801012E000C880B990B08
S1131C800E944B3F6B017C01A50194010E946440BA
S1131C9020E030E048EF51E40E94493E0E941D3F9D
S1131CA0362EA3019201C701B6010E94644020E0D0
S1131CB030E048EF51E40E94493E0E941D3F20E07D
S1131CC0432D8E819F8130DD0F5F1F4F0931110538
S1131CD091F6ED816E2F70E080E090E00E944B3F22
S1131CE020E030E040EF51E40E9464406B017C014D
S1131CF020E030E040E05FE369817A818B819C8160
S1131D000E9464409B01AC01C701B6010E94493E98
S1131D102BED3FE049E450E40E94644020E030E0D1
S1131D2044E353E40E94B03E2BED3FE049EC5FE313
S1131D300E94483E6B017C010E94AD3E4B015C0158
S1131D40C701B6010E9413412B013C0100E010E0E1
S1131D50B801012E000C880B990B0E944B3F6B01BC
S1131D607C01A30192010E94644020E030E048EF2E
S1131D7051E40E94493E0E941D3F362EA501940164
S1131D80C701B6010E94644020E030E048EF51E40E
S1131D900E94493E0E941D3F20E0432D8E819F8179
S1131DA0C3DC0F5F1F4F0131110591F620E04AE1BA
S1131DB061E38E819F8124DD20E040E262E38E8135
S1131DC09F811EDD2CE14AE363E38E819F8118DD50
S1131DD028E34DE166E38E819F8112DD2CE140E032
S1131DE069E38E819F810CDD20E048E06CE28E8106
S1131DF09F819ADC20E042E165E38E819F8194DC3F
S1131E0020E04CE265E38E819F818EDC20E045E397
S1131E106BE28E819F8188DC20E045E361E18E8165
S1131E209F8182DC20E04CE268E08E819F817CDC33
S1131E3020E041E168E08E819F8176DC20E048E08B
S1131E4062E18E819F8170DC27960FB6F894DEBF25
S1131E500FBECDBFDF91CF911F910F91FF90EF90F7
S1131E60DF90CF90BF90AF909F908F907F906F90B6
S1131E705F904F903F902F9008954115510551F078
S1131E80A62FB72FFC01480F591F9D919193E4177A
S1131E90F507D9F708950F931F93DC01FB01938D88
S1131EA0692F70E0762F6627828D682B80E090E0A2
S1131EB02C91233079F4058910E0102F0027248910
S1131EC0022B20E030E0980111270027602B712BB2
S1131ED0822B932B1F910F910895CF93DF93EC01E5
S1131EE0A881B9811097F9F04C91413258F04A33E6
S1131EF031F1FD0131969F019191913228F09A338D
S1131F00D1F704C0942F9D019A3381F4CD01019639
S1131F102817390771F4403379F41296B983A883EA
S1131F2080E090E00EC08FEF9FEF0BC080E090E068
S1131F3008C08FEF9FEF05C08FEF9FEF02C09D0198
S1131F40E5CFDF91CF9108958F929F92AF92BF9288
S1131F50CF92DF92EF92FF920F931F93CF93DF9371
S1131F60FC012481222309F444C0EC01C2A4D3A4BB
S1131F70E4A4F5A45C01FEE2AF0EB11C01E010E0A4
S1131F80A7019601B5018981F7D8811134C01C825B
S1131F908E8D9F8DA8A1B9A1B701A601481B590B2D
S1131FA06A0B7B0B8E899F89A88DB98D48175907B9
S1131FB06A077B0710F58B80912C82E088169104C8
S1131FC0F0F08E899F89A88DB98DC80ED91EEA1E9E
S1131FD0FB1E01E010E0A7019601B5018981CCD870
S1131FE0E1E08E1A9108F1E08F16910451F780E038
S1131FF007C080E005C081E003C080E001C080E04C
S1132000DF91CF911F910F91FF90EF90DF90CF90D0
S1132010BF90AF909F908F9008958F929F92AF92B0
S1132020BF92FF920F931F93CF93DF93EC014A016A
S11320305B018AA59BA5ACA5BDA584179507A6073A
S1132040B707D9F0CE0180DFF82E811117C001E067
S113205010E0A5019401BE01625D7F4F89813AD8E9
S1132060882331F0FF24F39488248A94982C540113
S11320708AA69BA6ACA6BDA601C0F12C8F2DDF912C
S1132080CF911F910F91FF90BF90AF909F908F9031
S11320900895CF93DF93EC011C828FEF9FEFDC0157
S11320A08AA79BA7ACA7BDA7CE01B7DF811151C0FA
S11320B0FE01E35DFD4F808190E0982F88273197E2
S11320C02081822B85359A4A09F045C0E55CF140B0
S11320D020813197808190E0A0E0B0E0DC01992775
S11320E08827B22B32972081822B3196408150E091
S11320F0542F442760E070E0842B952BA62BB72B3C
S1132100BB2786349144A445B10539F17E9680817C
S11321103197408150E060E070E0BA0155274427D0
S1132120782B32978081482BCF57DF4F888190E0FE
S1132130982F8827A0E0B0E0482B592B6A2B7B2BE3
S1132140772781E0463451446445710539F480E0D1
S113215005C083E003C082E001C080E0DF91CF913D
S113216008950097C9F0DC01ED91FC911197309727
S1132170A9F020812223A1F02681378112968D9126
S11321809C9113972817390769F481810E94630889
S113219080FF0AC089E0089589E0089589E00895E0
S11321A089E0089589E0089580E008952F923F9290
S11321B04F925F926F927F928F929F92AF92BF9253
S11321C0CF92DF92EF92FF920F931F93CF93DF93FF
S11321D0CDB7DEB76D970FB6F894DEBF0FBECDBF97
S11321E06C01CB01B42ED6011D921C9276DE7C01CB
S11321F099230CF4D7C2FC01EE0FFF1FE95DFB4FDE
S1132200008111810115110509F4CEC2F601118373
S11322100083D8018C91882369F011968C910E94D7
S1132220630880FD07C0BB2009F4C0C282FFC0C29E
S11322308AE065C3F8011082E1828E2D0E94A20714
S113224080FDB8C2BB2009F4D5C282FDB5C2D2C29A
S1132250DF0117978C918823B9F01496CC90808174
S1132260D12CE12CF12CF82A12968C91E82A1197A2
S1132270AC91B0E0BA2FAA27CD01A0E0B0E0C82A03
S1132280D92AEA2AFB2A04C0C82CD92CE72EF62E18
S1132290D901CD92DD92ED92FD929D017096E417E5
S11322A0F507B1F64E01B1E18B0E911C68947724C9
S11322B071F8F501C190D190E190F1905F01C114E2
S11322C0D104E104F10439F0B701A601C801E1DE4B
S11322D0811102C00DC0872DA814B90451F703C0A1
S11322E0C12CD12C7601833009F468C2811168C2F3
S11322F0D801DA968C91DA9790E0982F8827D996AE
S11323002C91822B8115924009F05CC2F801EB5BA1
S1132310FF4F8080912C982C882431978081882AC3
S1132320A12CB12C81149104A104B104E9F4719697
S1132330808131978080912CA12CB12C5401992457
S11323408824B82A32978081A5019401282BDA01C8
S1132350C90131968080912C982C8824A12CB12C11
S1132360882A992AAA2ABB2AD80156968D929D9228
S1132370AD92BC925997DE96AC91F801A3838FEF8E
S11323808A0F823008F020C2F3ADF98B2F2FF801A9
S11323902283222309F41AC2822F90E09C01215047
S11323A0310982239323892B09F012C2E05CFF4F89
S11323B0808190E0982F8827F80127AD1C01222AFC
S11323C031862086C1018F709927892B09F002C2BA
S11323D0EE5BFF4F4080512C542C44243197808174
S11323E0482A612C712C4114510461047104D1F404
S11323F07096808131974080512C612C712C320170
S113240055244424782A32978081482A3196808141
S113241090E0982F8827AC0160E070E0442A552AA8
S1132420662A772AF80185ADE82FF0E03E2F2227AF
S1132430F80184ADF901E82B309709F4CDC1B0E07F
S1132440A50194010E9404466A8F7B8F8C8F9D8F17
S11324509F0140E050E02E8B3F8B488F598FC10184
S1132460929582958F7089279F708927280F391F2D
S1132470411D511DDA01C9012A8D3B8D4C8D5D8DA5
S1132480280F391F4A1F5B1F2A8B3B8B4C8B5D8B9C
S1132490421653066406750608F4A0C1C301B201CE
S11324A0621B730B840B950BE9892E2F30E040E0FF
S11324B050E00E94AE45DA01C901211531054105FC
S11324C0510509F48DC1263FFFE03F074105510541
S11324D018F0E2E0E98B02C0F1E0F98B863F9F4FF0
S11324E0A105B10508F09DC129013A0182E0480E19
S11324F0511C611C711CD80152964D925D926D92D3
S11325007C925597F801C28ED38EE48EF58E8E8917
S11325109F89A88DB98D8C0D9D1DAE1DBF1D868F05
S1132520978FA0A3B1A34A895B896C897D894C0DDF
S11325305D1D6E1D7F1D46A357A360A771A7F98972
S1132540F33009F044C0232809F04CC1F801E35AE0
S1132550FF4F20813197808190E0A0E0B0E0DC0162
S113256099278827B22B32972081AC01BD01422BD9
S113257031968081282F30E0922F8827A0E0B0E0A8
S1132580842B952BA62BB72BF80182A393A3A4A38A
S1132590B5A3440C551C661C771C440C551C661CC6
S11325A0771CFFEF4F0EF1E05F1E611C711C032EC0
S11325B039E076946794579447943A95D1F7302D3F
S11325C084149504A604B70408F40EC156C1232844
S11325D009F40CC12A8D3B8D4C8D5D8D820F931FA8
S11325E0A41FB51FF80182A393A3A4A3B5A3F989DB
S11325F0F23029F4440C551C661C771C6AC1A3E014
S1132600B0E0A30192010E940446DC01CB01B6951F
S1132610A7959795879521E042225524662477242F
S1132620480E591E6A1E7B1E54C1B701A6014F5F96
S11326305F4F6F4F7F4FC801F0DC811196C0D80106
S113264015961C92F801E35DFD4F808190E0982F70
S1132650882731972081822B85359A4A09F088C0D2
S1132660F80121A980A990E0A0E0B0E0DC0199275D
S11326708827B22B26A5AC01BD01422B27A530E04B
S1132680922F8827A0E0B0E0842B952BA62BB72BA4
S113269082359245A146B14409F06DC0F801EB5E64
S11326A0FD4F20813197808190E0A0E0B0E0DC0113
S11326B099278827B22B32972081AC01BD01422B88
S11326C03196208130E0922F8827A0E0B0E0842B5F
S11326D0952BA62BB72B82379247A144B14609F01C
S11326E04DC0369620813197808190E0A0E0B0E023
S11326F0DC0199278827B22B32972081AC01BD01D8
S1132700422B3196208130E0922F8827A0E0B0E060
S1132710842B952BA62BB72BF80186879787A08B44
S1132720B18BE35EFD4F20813197808190E0A0E082
S1132730B0E0DC0199278827B22B32972081AC01C5
S1132740BD01422B3196208130E0922F8827A0E0F2
S1132750B0E0842B952BA62BB72BF80182879387A7
S1132760A487B587F3E0F98B0BC0E3E0E98B08C0DD
S1132770F3E0F98B05C0E3E0E98B02C0F3E0F98BE9
S1132780E989D801EC93809125049091260401965F
S1132790909326048093250417969C938E93169702
S11327A080E0ADC08BE0ABC08CE0A9C080E0A7C0E6
S11327B080E0A5C083E0A3C08AE0A1C081E09FC0FF
S11327C08DE09DC08DE09BC08DE099C08DE097C0E9
S11327D08DE095C08DE093C08DE091C08DE08FC0F9
S11327E08DE08DC08DE08BC08DE089C08DE087C009
S11327F08DE085C040E050E0BA01C8014ADC813078
S113280009F06ECD9E012F5F3F4F5901F801E95049
S1132810FE4FA801495C5D4F812C912C70E060E073
S113282017CD29013A0162E0460E511C611C711C4E
S1132830D80152964D925D926D927C925597F80113
S1132840C28ED38EE48EF58E8E899F89A88DB98D24
S11328508C0D9D1DAE1DBF1D868F978FA0A3B1A3A8
S11328608A899B89AC89BD898C0D9D1DAE1DBF1DB8
S113287086A397A3A0A7B1A766CE8FEF9FEFDC0135
S1132880F80186879787A08BB18B82879387A4876B
S1132890B58780E88583E15AFF4F808190E0982FC7
S11328A0882731972081822B019709F4BECEF3E06B
S11328B0F98B66CF8FEF9FEFDC01F801868797874E
S11328C0A08BB18B82879387A487B58780E88583A3
S11328D057CFFFEF4F0EF1E05F1E611C711C032EFA
S11328E039E076946794579447943A95D1F7302D0C
S11328F084149504A604B70408F47ACFDBCF6D964C
S11329000FB6F894DEBF0FBECDBFDF91CF911F91FC
S11329100F91FF90EF90DF90CF90BF90AF909F907A
S11329208F907F906F905F904F903F902F9008957D
S1132930CF92DF92EF92FF92FC019A01AB012250F9
S1132940310941095109C288D388E488F58882E0B5
S1132950C81AD108E108F1082C153D054E055F059C
S113296068F4A281B0E00E940446C6A0D7A0E0A407
S1132970F1A46C0D7D1D8E1D9F1D03C060E070E0F1
S1132980CB01FF90EF90DF90CF900895AF92BF926C
S1132990CF92DF92EF92FF920F931F93CF93DF9327
S11329A0EC016A017B01423051056105710508F4AF
S11329B0C3C08A899B89AC89BD89481759076A07AE
S11329C07B0708F0BEC08881823009F44BC0833095
S11329D009F46CC0813009F0B9C08A0116950795D5
S11329E0040F151FC801892F992786954E8D5F8D79
S11329F068A179A1480F591F611D711DCE010DDB1E
S1132A008111A9C058018FEFA81AB80A1170FE01EC
S1132A10E00FF11F16A5C501892F992786954E8DC4
S1132A205F8D68A179A1480F591F611D711DCE01E9
S1132A30F4DA811194C081E0B822CA0DDB1D8EA5A1
S1132A40612F70E0782BC0FE09C0729562956F709B
S1132A5067277F70672780E090E08CC07F7080E0FC
S1132A6090E088C0452F562F672F77278E8D9F8D36
S1132A70A8A1B9A1480F591F6A1F7B1FCE01CDDA47
S1132A80811171C0CC0CDD1CEE1CFF1CE894C0F855
S1132A9081E0D822EE24FF24FE01EC0DFD1D66A585
S1132AA087A570E0782B80E090E064C08E8D9F8DC8
S1132AB0A8A1B9A1689416F8769567955795479596
S1132AC01694D1F7480F591F6A1F7B1FCE01A5DA50
S1132AD081114DC0CC0CDD1CEE1CFF1CCC0CDD1C8C
S1132AE0EE1CFF1C8CEFC82281E0D822EE24FF24C8
S1132AF0F601BE96EC0FFD1F22816381862F90E0C4
S1132B00A0E0B0E0B82FAA2799278827AC01BD011F
S1132B10622B818190E0982F8827A0E0B0E0842B7D
S1132B20952BA62BB72BFE01EC0DFD1D26A5822BA4
S1132B30BC01CD019F701EC061E070E080E090E0B8
S1132B4019C061E070E080E090E014C061E070E0E2
S1132B5080E090E00FC06FEF7FEFCB010BC06FEF11
S1132B607FEFCB0107C06FEF7FEFCB0103C06FEFA7
S1132B707FEFCB01DF91CF911F910F91FF90EF90E9
S1132B80DF90CF90BF90AF900895AF92BF92CF9255
S1132B90DF92EF92FF920F931F93CF93DF93EC0199
S1132BA08B017D836C83CE80DF80E884F98481E0AF
S1132BB0C816D104E104F10409F48AC0E881F9815A
S1132BC082899389A489B589C816D906EA06FB06C1
S1132BD008F080C0C114D104E104F104C1F480817F
S1132BE0833041F482A193A1A4A1B5A10097A105CA
S1132BF0B10559F4808591850817190708F06CC050
S1132C0062A173A184A195A135C06C017D01A2804C
S1132C1080E1A89E500111240A151B0530F1B7016B
S1132C20A60188819981B2DE6B017C018FEFC81601
S1132C30D806E806F80609F451C082E0C816D104A3
S1132C40E104F10408F44CC0E881F9818289938994
S1132C50A489B589C816D906EA06FB0608F042C05D
S1132C600A191B090A151B05D0F6B701A6018881AC
S1132C7099815EDECA86DB86EC86FD866115710568
S1132C808105910589F19801329522952F702327AA
S1132C903F702327DC01CB01820F931FA11DB11DBF
S1132CA08E879F87A88BB98B0F701127000F111F78
S1132CB002951295107F1027007F1027025D1F4F89
S1132CC088819981800F911F9B8B8A8B80E00DC036
S1132CD082E00BC082E009C082E007C081E005C049
S1132CE082E003C082E001C082E0DF91CF911F91B6
S1132CF00F91FF90EF90DF90CF90BF90AF90089529
S1132D004F925F926F927F928F929F92AF92BF92F7
S1132D10CF92DF92EF92FF920F931F93CF93DF93A3
S1132D20EC016A017B01280139014230510561053A
S1132D30710508F4D8C08A899B89AC89BD89481774
S1132D4059076A077B0708F0D0C08881823009F4EC
S1132D5062C0833009F485C0813009F0C8C05A01CB
S1132D60B694A794A40EB51EC501892F99278695FC
S1132D704E8D5F8D68A179A1480F591F611D711D8A
S1132D80CE014BD9182F8111D0C045018FEF881A7D
S1132D90980AA1E0BA22C0FE20C0FE01EA0DFB1D84
S1132DA086A5282F2F70B0E14B9EC0011124822BE1
S1132DB086A781E08C834E8D5F8D68A179A1C401C3
S1132DC0892F99278695480F591F611D711DCE01C2
S1132DD024D9882309F491C08CC0FE01EA0DFB1D9F
S1132DE046A681E08C834E8D5F8D68A179A1C401D4
S1132DF0892F99278695480F591F611D711DCE0192
S1132E000CD9882309F484C076C0EC0FFD1F46A6B4
S1132E1081E08C838AC0452F562F672F77278E8DAC
S1132E209F8DA8A1B9A1480F591F6A1F7B1FCE010E
S1132E30F4D8182F811179C0CC0CDD1CEE1CFF1CBA
S1132E40E894C0F831E0D322EE24FF24FE01EC0D17
S1132E50FD1D46A6FE01EC0DFD1D57A681E08C83E9
S1132E6064C08E8D9F8DA8A1B9A1689416F876953B
S1132E706795579547951694D1F7480F591F6A1FC0
S1132E807B1FCE01CAD8182F81114FC0CC0CDD1C7A
S1132E90EE1CFF1CCC0CDD1CEE1CFF1C8CEFC822AE
S1132EA081E0D822EE24FF24F601BE96EC0FFD1F2C
S1132EB0838190E0A0E0B0E0B82FAA279927882763
S1132EC0CC0EDD1E88279927AA27B07F482A592AC5
S1132ED06A2A7B2AD6019E964C9251826282738220
S1132EE081E08C8322C012E020C012E01EC012E0F8
S1132EF01CC0182F1AC0182F18C0F401F170689460
S1132F0013F876946794579447941694D1F77DCF29
S1132F10F401F170DE01AE0FBF1F9E969C91907F6D
S1132F20852D8F70492E482A70CF812FDF91CF9144
S1132F301F910F91FF90EF90DF90CF90BF90AF90D3
S1132F409F908F907F906F905F904F9008952F92F5
S1132F503F924F925F926F927F928F929F92AF9225
S1132F60BF92CF92DF92EF92FF920F931F93CF9372
S1132F70DF93EC012A013B014115510561057105FF
S1132F80B9F48A849B84AC84BD8481149104A10423
S1132F90B10459F18A899B89AC89BD89881699063F
S1132FA0AA06BB0630F1812C912C5401839421C0D4
S1132FB0EDDC6B017C01623071058105910508F43B
S1132FC096C08FEFC816D806E806F80609F494C030
S1132FD08A899B89AC89BD89C816D906EA06FB068D
S1132FE008F48FC05301420104C0812C912C540178
S1132FF08394750164016894222421F8312C00E043
S113300010E02FEFC21AD20AE20AF20A8A899B89D7
S1133010AC89BD89C816D906EA06FB0658F082E0D9
S113302088169104A104B10408F470C0C22CD32CF6
S1133030E02EF12EB701A601CE01A8DC61157105C1
S11330408105910599F06F3F2FEF72078207920770
S113305009F461C0613071058105910509F460C00E
S1133060C814D904EA04FB0461F65FC08C2C9D2CBF
S1133070AE2CBF2C0FEF1FEF2FEF3FE0B701A601DF
S1133080CE013EDE81112CC041145104610471044F
S113309051F00C2D1D2D2E2D3F2DB301A201CE017B
S11330A02FDE81111DC08A869B86AC86BD868E85E7
S11330B09F85A889B9898F3F2FEF9207A207B2078E
S11330C0C9F10197A109B1098E879F87A88BB98B94
S11330D08D8181608D836C2D7D2D8E2D9F2D33C030
S11330E0813069F161E070E080E090E02CC061E043
S11330F070E080E090E027C06FEF7FEF8FEF9FEFED
S113310022C06C2D7D2D8E2D9F2D1DC060E070E0A2
S113311080E090E018C06FEF7FEF8FEF9FEF13C058
S113312061E070E080E090E00EC060E070E080E07C
S113313090E009C06C2D7D2D8E2D9F2D04C06FEF66
S11331407FEF8FEF9FEFDF91CF911F910F91FF9052
S1133150EF90DF90CF90BF90AF909F908F907F9033
S11331606F905F904F903F902F9008957F928F9231
S11331709F92AF92BF92CF92DF92EF92FF920F9302
S11331801F93CF93DF93DC011496CD91DC911597B7
S1133190219609F403C11E968D909D90AD90BC902C
S11331A0519781149104A104B10409F4F9C07B017D
S11331B08C016E01BFE0CB22DD24C114D10409F0DF
S11331C0D1C0EFEF8E1A9E0AAE0ABE0ADC011E962B
S11331D08D929D92AD92BC9251971A964D915D91AC
S11331E06D917C911D97411551056105710549F457
S11331F0ED91FC9180859185C817D90708F0D2C05C
S1133200B1C0DC01ED91FC91228130E02150310903
S1133210CE01929582958F7089279F7089272823E4
S11332203923232B09F09EC0CF01B0DB4B015C0195
S1133230623071058105910508F4B6C06F3F7F4F78
S11332408F4F9F4F09F4B2C0D801ED91FC91828950
S11332509389A489B58988169906AA06BB0608F439
S113326070C0EF2809F4A4C0D8011A964D915D915D
S11332706D917C911D97CF016ADE4B015C01611554
S113328071058105910509F495C0613071058105C9
S1133290910509F491C06F3F7F4F8F4F9F4F09F401
S11332A08DC0D8018D919C910E94A40F811188C07A
S11332B0F80180819181FC01BE96825D9D4F11923F
S11332C0E817F907E1F7D801ED90FC90B501A401E6
S11332D0C7012EDBF70162A773A784A795A7E12C8A
S11332E0F12C7724739419C07482D8018D919C9128
S11332F00E94A40F811166C0D801ED91FC9182A5B2
S113330093A5A4A5B5A50196A11DB11D82A793A758
S1133310A4A7B5A7BFEFEB1AFB0AD801ED91FC9166
S1133320828190E0E816F906F8F282A593A5A4A597
S1133330B5A58E199F09A109B10982A793A7A4A7CE
S1133340B5A7F80182869386A486B586B501A40143
S113335080819181EDDAD8011E966D937D938D93D2
S11333609C935197F801D583C483CC0CDD1CCC0C01
S1133370DD1CCC0CDD1CCC0CDD1CCC0CDD1CFEE2FD
S1133380CF0ED11CD8018D919C911197C80ED91ED6
S11333905396DC92CE92529780E015C084E013C01D
S11333A084E011C084E00FC082E00DC081E00BC056
S11333B084E009C087E007C082E005C081E003C063
S11333C081E001C081E0DF91CF911F910F91FF90C7
S11333D0EF90DF90CF90BF90AF909F908F907F90B1
S11333E008951F93CF93DF9300D000D000D0CDB7C2
S11333F0DEB79C838B837E836D83142F7A836983EA
S1133400CE0101960E946D0F992334F1FC01EE0F59
S1133410FF1FE95DFB4F0190F081E02D309709F02B
S11334201082EB81FC813097E9F010822B813C8182
S1133430880F991FFC01E95DFB4F31832083232B07
S113344069F0113069F440E0BE016B5F7F4FCE013B
S113345003960E94D6100EC08BE00CC080E00AC018
S113346080E008C0880F991FFC01E95DFB4F1182C1
S1133470108280E026960FB6F894DEBF0FBECDBF53
S1133480DF91CF911F9108952F923F924F925F92B7
S11334906F927F928F929F92AF92BF92CF92DF9260
S11334A0EF92FF920F931F93CF93DF93CDB7DEB7C5
S11334B0AE970FB6F894DEBF0FBECDBF7CA36BA34F
S11334C0009709F483C24DA31C01DC011D921C92D8
S11334D04E71BE016D5D7F4FCE0101960E94D610E4
S11334E0811103C3CE0147969E8B8D8BCBA0DCA0AC
S11334F0F60180818F3211F08C3519F4FFEFCF1A69
S1133500DF0A2DA12F7129A71F82188619861A8612
S1133510D6018C91803268F460E070E0CE010196AF
S113352034DB1C8A1B8AE12CF12C882309F491C218
S113353087C26894BB24B5F8A12C712C68946624C6
S113354063F8512C412C6AA65EA6F601AF01819165
S11335508F32E1F38C35D1F30D891E89F801C8014E
S11335600B96B192E817F907E1F76A01EA2CF72CF8
S11335708A2D972D862C952C742DDA0101966D9148
S1133580613208F43CC26F3209F43EC26C3509F46E
S11335903BC26E3209F41CC2E814F90408F079C283
S11335A00AC0770F770FEAA4FEA40F2EFBE08F2E3C
S11335B0F02D912CE3CF66230CF010C27360E62F3C
S11335C0F0E0EA56FF4F608109C28191882309F433
S11335D00FC290E048175907C1F786E077C27260BE
S11335E006C02FE9260F2A3110F471606052F801E9
S11335F0EE0DFF1D6083F70131967F01BFCFEF28E9
S113360009F447C2D8012C91253E11F4E5E0EC936E
S1133610F8E08F16910419F4792F770F770F972F0D
S11336209370913009F48061972F9C70943009F461
S11336308860D8011B968C936A2D772DCE01019654
S1133640A4DA8111ECC14F85588969897A89898105
S11336509A810E940D108111E2C16B897C89FB0162
S113366080818823D1F0838583FD0FC04D895E89D5
S1133670DA019B01255F3F4F04C0E217F30709F409
S1133680C8C191918D919817C1F36A2D772DCE0100
S113369001966CDD8823B9F2C2C1ED89FE89938558
S11336A092FD0DC285E012C2DB011B968C9184FF52
S11336B008C289819A810E944B0F6F83788789871A
S11336C09A8743CF8111EFC144C060E070E0CE011E
S11336D001965BDA811106C24F85588969897A8916
S11336E089819A810E940D108111FCC1EB89FC89AA
S11336F08081853E51F0882341F061E070E0CE0185
S1133700019634DD882341F3EDC14F8558896989D9
S11337107A8989819A810E940D108111CAC1EB892D
S1133720FC89CF0180961192E817F907E1F76D89BA
S11337307E894BE050E08B899C890E943D0FE98192
S1133740FA8181E08483B9A5B860B9A7EB88FC88C5
S113375008C0F7018385817109F082C1FDA1F2FDE2
S113376081C129A523FFDBC00E94AA2CD7011E9684
S11337706C931E97472F55271F964C931F974C0108
S1133780AA24BB2450968C925097092F11272227E4
S1133790332751960C93519756966C935697579698
S11337A04C93579758968C92589759960C935997CF
S11337B01B961C921B975C961C925C975D961C92C0
S11337C05D975E961C925E975F961C92C980DA8024
S11337D0B701C6010E944B0F4B015C01F701128E29
S11337E0138E148A158A81E0D60114968C9314974B
S11337F081149104A104B10409F491C09A962D9105
S11338003D914D915C919D972AA73BA74CA75DA73D
S1133810B2E08B169104A104B10408F428C1F601A6
S113382082899389A489B58988169906AA06BB0654
S113383008F01FC18DA29EA2AFA2B8A63FC04DA1A1
S11338405EA16FA178A5C601A1D82B013C01611529
S113385071058105910509F440C061307105810548
S1133860910509F408C16F3F7F4F8F4F9F4F09F4B3
S113387004C100E010E098014DA15EA16FA178A5FC
S1133880C6013EDA8111FAC0F60186859785A089C2
S1133890B1898F3FFFEF9F07AF07BF0759F001962C
S11338A0A11DB11DF60186879787A08BB18B8581F9
S11338B0816085834DA25EA26FA278A6F6018289FB
S11338C09389A489B5892DA13EA14FA158A5281794
S11338D039074A075B0708F4B2CF89819A8131E03E
S11338E0831A9108A108B108DC011A968D929D9261
S11338F0AD92BC921D974AA55BA56CA57DA50E94BF
S11339000D10882379F0F1C08111BFC0F7018385C0
S113391084FDB8C0FDA1F1FF02C080FDB5C029A59A
S113392023FF03C039A5306239A7E981FA8182A552
S113393093A5A4A5B5A5F101828F938FA48FB58F0C
S1133940F78EE68EE9A5D1011496EC93149715969B
S11339501C9209811A81B701C8010E944B0FD10141
S11339601E966D937D938D939C935197F701278DAC
S1133970868D90E0A0E0B0E0DC0199278827B22B87
S1133980248DAC01BD01422B258D30E0922F882778
S1133990A0E0B0E0842B952BA62BB72BF1018287F6
S11339A09387A487B5871682178210861186168A94
S11339B0178A108E118E11830083D80116968D916B
S11339C09C9117979383828380E08FC089E08DC098
S11339D0E8E08E16910409F4E4CD75C0462F50E05A
S11339E04232510509F471C0E8E0F1E09C01EDCDEB
S11339F0C9012FEB260F2A3108F4F1CDF2CDC80E00
S1133A00D91E972F84E0FBCDC80ED91E972F842D85
S1133A10F6CDDA011B968C9182FF46CE0DC0ED895E
S1133A20FE899385843009F43BCEEB88FC889DA104
S1133A309C7109F047CE68CF7B01672B29F409C03C
S1133A400DA10C7181F521C08DA18C7109F081CE7D
S1133A505DCF0DA10C7151F5E12CF12C86E015C060
S1133A6087E001C088E0882309F459CF3EC082E092
S1133A7005C082E003C082E001C081E0882309F42C
S1133A8051CF33C084E001C087E0882309F45ACFC2
S1133A902CC0EB88FC8886E0D3CFB9A5B860B9A761
S1133AA0EB88FC88F2CF8430C1F70FCE86E001C0EA
S1133AB087E0E9A5E860E9A7EB88FC88E6CF84E025
S1133AC005C085E003C086E001C086E0EB88FC8881
S1133AD09DA19C7141F718CFF9A5F860F9A7EB886F
S1133AE0FC88D3CF843021F3F7CFAE960FB6F89489
S1133AF0DEBF0FBECDBFDF91CF911F910F91FF901D
S1133B00EF90DF90CF90BF90AF909F908F907F9079
S1133B106F905F904F903F902F9008953F924F92F7
S1133B205F926F927F928F929F92AF92BF92CF9249
S1133B30DF92EF92FF920F931F93CF93DF9300D006
S1133B4000D000D0CDB7DEB79E838D834B016A01D0
S1133B505901D9011D921C920E94B1108111C0C15A
S1133B60ED81FE8185818111BBC1848181FFB7C153
S1133B7086819781A085B185AC01BD014C0D5D1D89
S1133B80611D711D481759076A077B0708F48AC12C
S1133B90C114D10409F486C1B096FC83EB83ED8192
S1133BA0FE8186819781A085B185AC01BD015170EC
S1133BB066277727452B462B472B09F032C1E08037
S1133BC0F180F70122812150AC01BD01032E39E0BF
S1133BD076956795579547953A95D1F7302D322EBE
S1133BE0342209F052C0892B8A2B8B2B99F4AD8196
S1133BF0BE811E966D917D918D919C915197611519
S1133C00710581059105A1F440E050E0BA01C701B6
S1133C109ED908C0ED81FE814289538964897589E2
S1133C20C70195D9611571058105910509F43AC15A
S1133C30613071058105910531F482E0AD81BE8169
S1133C4015968C934DC16F3FBFEF7B078B079B0786
S1133C5029F481E0ED81FE81858342C1AD81BE817D
S1133C6052966D937D938D939C9355971E964D908C
S1133C705D906D907C90519745284628472829F4FB
S1133C80FD0166877787808B918BAD81BE81149609
S1133C908C91149786FF1EC056962D913D914D919F
S1133CA05C915997ED91FC9101E010E06B817C816E
S1133CB081810E94BC08882329F081E0ED81FE8186
S1133CC085830EC1AD81BE8114968C9114978F7B30
S1133CD014968C93ED81FE810190F081E02DFA839E
S1133CE0E983AD81BE8152964D915D916D917C9138
S1133CF05597CF010E9498146115710581059105AE
S1133D0029F482E0ED81FE818583EAC02B013C0128
S1133D10430C511C611C711C7601EF2CFF24E694AA
S1133D20E114F10409F44AC0A981BA8112964C91B4
S1133D30242F30E0C701830D911D2817390718F48B
S1133D407901E318F1088701A3019201B401E98123
S1133D50FA8181810E94BC08882331F081E0AD8121
S1133D60BE8115968C93BCC0ED81FE8186899789AE
S1133D70A08DB18D84199509A609B709A70160E042
S1133D8070E084179507A607B707A0F4982F882733
S1133D90990FB401680F791F40E052E08B819C8138
S1133DA00E943D0FAD81BE8114968C9114978F7B38
S1133DB014968C93FE2CEE24FF0C58C0ED81FE81EA
S1133DC086899789A08DB18D84159505A605B705BB
S1133DD001F1468157816085718582859385A4852B
S1133DE0B585481759076A077B0798F401E010E086
S1133DF0A30192016B817C81A981BA8111968C9176
S1133E000E946A08882329F081E0ED81FE81858380
S1133E1067C0AD81BE8156964D925D926D927C9243
S1133E205997ED81FE8186819781A085B185AC018A
S1133E30517020E032E0241B350B76012C153D0532
S1133E4008F479019170AA27BB278096A701B401D1
S1133E502D813E81820F931F0E943D0FAD81BE8153
S1133E6014968C911497806414968C938E0C9F1CDA
S1133E70ED81FE8186819781A085B1858E0D9F1D80
S1133E80A11DB11D86839783A087B187D5018D912C
S1133E909C9111978E0D9F1D8D939C93CE18DF08D6
S1133EA009F07DCEED81FE8186819781A085B18563
S1133EB04285538564857585481759076A077B07CA
S1133EC020F482879387A487B587AD81BE81149639
S1133ED08C911497806214968C9380E001C087E0E3
S1133EE026960FB6F894DEBF0FBECDBFDF91CF91FB
S1133EF01F910F91FF90EF90DF90CF90BF90AF9004
S1133F009F908F907F906F905F904F903F90089517
S1133F10EF92FF920F931F93CF93DF9300D0CDB70F
S1133F20DEB7FC012281338133236CF18C017901EA
S1133F30FFEFEF1AFF0AFC01E20FF31F66838DE324
S1133F40E816F104C4F09E012F5F3F4FA701B801AA
S1133F506A5F7F4FF80180819181E0DD81E090E02C
S1133F6029813A81E216F30611F480E090E0EE2410
S1133F70FF24E81AF90AF801F382E2828481958128
S1133F800196958384830F900F90DF91CF911F91B9
S1133F900F91FF90EF9008950F931F93CF93DF93AA
S1133FA0EC010E94B1108111B5C08C8185FFB4C0B1
S1133FB086FF13C02E893F89488D598DE881F98188
S1133FC001E010E0BE01605E7F4F81810E94BC0869
S1133FD08111A4C08C818F7B8C834A8D5B8D6C8D09
S1133FE07D8D888199810E940D10811199C00E8D5B
S1133FF01F8DF8018385806283878A85848F8B85F2
S1134000858F8C85868F8D85878F8E859F85A889E2
S1134010B989828F938FCD01AA27BB27848B958B77
S11340200E94AA2CF801668B778B808F918F128A5D
S1134030138A8C818F7D8C83E881F98181E084836C
S11340400990D881C02DCE010E94A40F81116AC0AD
S11340508881833009F053C08D81813009F04FC0CD
S1134060BE01625D7F4FFB01CE01825D9D4F1192C7
S1134070E817F907E1F785E5FE01E45DFD4F80836C
S11340808AEA3196808382E58EA78FA781E688AB82
S113409091E499AB22E77B97208331962083319674
S11340A09083319680833E852F85988989893196BE
S11340B030833196208331969083319680833A857C
S11340C02B859C858D85319630833196208331965E
S11340D09083319680838A8D9B8DAC8DBD8D9C01A0
S11340E0AD012F5F3F4F4F4F5F4F2AA73BA74CA710
S11340F05DA701E010E089810E94BC081D8240E0B8
S113410050E060E089810E942A0991E081110BC08E
S113411090E009C0982F07C090E005C091E003C06B
S1134120982F01C0982F892FDF91CF911F910F9164
S11341300895CF93DF93EC012FDF811107C0CE01E7
S11341400E94B110811102C019821882DF91CF91AF
S113415008952F923F924F925F926F927F928F9227
S11341609F92AF92BF92CF92DF92EF92FF920F9302
S11341701F93CF93DF93CDB7DEB7CC55D1090FB6DC
S1134180F894DEBF0FBECDBFE596EEACFFACE5976D
S1134190E3968EAD9FADE3979C8B8B8B1E8A1D8A15
S11341A0188E1F8A2E0125E7420E511C212C0F2E3A
S11341B0F7E03F2EF02DD7016C91662309F48EC1F0
S11341C0653239F0BFEFEB1AFB0ACE014396A0DE4D
S11341D0F2CFF701D180F0E3DF1209C0D7011296C4
S11341E0DC90F70133967F017724739411C0FDE2CC
S11341F0DF1629F022E0E20EF11C712C09C0D70170
S11342001296DC90F70133967F016894772471F855
S113421080ED8D0D8A30F0F4022D10E08D2D980183
S1134220220F331F000F111F000F111F000F111F4A
S1134230020F131F080F111D00531109FFEFEF1A8E
S1134240FF0AF7013197808190ED980F9A3038F387
S1134250D82E02C0022D10E08D2D8F7D8C3441F4B8
S1134260272D2460722ED701DC90F70131967F014F
S1134270DD2009F433C18FE98D0D8A3118F430EE55
S11342803D0D01C03D2D832F90E0FC01E254F10966
S1134290E731F10508F058C0E358FF4F0C94EC45A2
S11342A0F201A080B180F2E04F0E511CD5016C9157
S11342B0662309F438C1F5013196C22CD12CBFEF25
S11342C0CB1ADB0A81918111FACF2AC1C22CD12CDD
S11342D066246394712C460160E2CE01439618DE95
S11342E0EFEF8E1A9E0A80169106B0F393012C19F3
S11342F03D096901C00ED11ED5016C91662359F0A8
S1134300BFEFAB1ABB0ACE01439602DEF501619101
S11343105F016111F8CFC016D10608F04CCF60E2FE
S1134320CE014396F5DDFFEFCF1ADF0AC016D106A2
S1134330B0F341CF82010E5F1F4FD2016C91CE01C9
S11343404396E6DD280137CF6D2DCE014396E0DD9F
S113435032CF72FE0EC0AAE001C0A0E1F20160817A
S1134360718182819381B4E04B0E511C343431F558
S113437019C0AAE0343461F4F20160817181072E1E
S1134380000C880B990B92012E5F3F4F29010AC044
S1134390F2016081718180E090E092012E5F3F4FD5
S11343A029010CC0992354F49095809570956195DA
S11343B07F4F8F4F9F4F372D3860732EAE014D5F67
S11343C05F4F5A01822C912C2A2F30E040E050E0BC
S11343D06D962CAF3DAF4EAF5FAF6D9797017801EF
S11343E01D2D69016D962CAD3DAD4EAD5FAD6D9744
S11343F00E94AE45F62FE62F622F732F842F952F40
S1134400FA3030F0183711F0E32D01C0E7E2EF0F76
S11344103FEF831A930AE05DD501ED935D016115C9
S113442071058105910521F0B0E18B169104D1F657
S11344308701760173FE0CC0E3E0F0E0EC0FFD1F92
S1134440E80DF91D2DE22083A4014F5F5F4F4A015F
S113445070FC04C06894662465F804C00F2EF0E371
S11344606F2EF02D71FC15C064015FEFC51AD50ADB
S11344708016910608F465C00DC08FEFC81AD80ADB
S1134480C016D10608F458C068019FEFC91AD90AAA
S113449001C064010F2EF3E0AF2EB12CF02DAC0E51
S11344A0BD1EA80CB91CA1E08A1A9108F5016291FD
S11344B05F01CE0143962CDD81149104A1F7C0164F
S11344C0D10608F078CE662DCE01439621DDFFEFAC
S11344D0CF1ADF0AC016D106B0F36DCE4D895E89BE
S11344E05523ACF09E012F5F3F4FBE01675E7F4FA7
S11344F08B899C8913DB81110DC02D893E898981AB
S11345009A812817390749F48F89988D52C08FEF03
S11345109FEF4FC08FEF9FEF4CC08FEF9FEF49C0CD
S113452071FE19C0EDCE71FE1FC0C22CD12CF3CE8A
S113453072FC13CFA0E12CCF662DCE014396E8DCAC
S11345409CCF662DCE014396E3DC640196CFD50162
S11345506C916301D5CE3601BFEF6B1A7B0AC0168E
S1134560D10608F4B8CEF3CF0115110509F0AECE8B
S1134570CC24C394D12CCFCEF2016081718182818D
S1134580938192012C5F3F4F2901A2E017CF72FC67
S1134590F3CFA2E0EFCED2016D917D918D919C91EC
S11345A0F20134962F01A8E009CF72FCF4CFA8E001
S11345B0EFCEC45ADF4F0FB6F894DEBF0FBECDBFA7
S11345C0DF91CF911F910F91FF90EF90DF90CF90EB
S11345D0BF90AF909F908F907F906F905F904F901F
S11345E03F902F90089582E08093B8000895089535
S11345F084EA8093BC00089584E98093BC00089504
S1134600ECEBF0E080818823ECF76093BB0084E856
S11346108093BC00ECEBF0E080818823ECF70895F4
S1134620662321F084EC8093BC0003C084E880936B
S1134630BC00ECEBF0E080818823ECF78091BB00B8
S113464008952AB120662AB928B1237F28B927B151
S11346502C6027B92AB1237E2AB9FC010C96119249
S1134660E817F907E1F708950895FB01808190E0C8
S1134670042E02C0959587950A94E2F780FF05C041
S113468081E0F901808380E00895F901808181301F
S113469071F4FB01608170E0FB0102C0F595E795C0
S11346A04A95E2F7E0FD03C0F90110820895F9018B
S11346B0108280E008951F93CF93DF93EC01439A17
S11346C082E08A95F1F700C09E012E5F3F4F44E0DF
S11346D069E270E0CE01C9DF811114C09E012F5F31
S11346E03F4F43E069E270E0CE01BFDF81110CC0AF
S11346F09E0142E069E270E0CE01B7DF882331F029
S113470011E305C013E303C012E301C010E24398B0
S1134710429A82E08A95F1F700C09E012B5F3F4FD9
S113472044E069E270E0CE01A0DF811116C09E0171
S11347302C5F3F4F43E069E270E0CE0196DF8111C8
S11347400EC09E012D5F3F4F42E069E270E0CE0152
S11347508CDF882329F014E303C016E301C015E3BA
S113476042985E9A82E08A95F1F700C09E01285F24
S11347703F4F44E069E270E0CE0177DF811116C05B
S11347809E01295F3F4F43E069E270E0CE016DDF97
S113479081110EC09E012A5F3F4F42E069E270E042
S11347A0CE0163DF882329F017E303C019E301C0B6
S11347B018E35E985D9A82E08A95F1F700C09E0145
S11347C0255F3F4F44E069E270E0CE014EDF811186
S11347D016C09E01265F3F4F43E069E270E0CE01C0
S11347E044DF81110EC09E01275F3F4F42E069E222
S11347F070E0CE013ADF882329F01AE203C013E205
S113480001C010E35D98812FDF91CF911F9108952E
S113481052DF482F50E0FA01B397E731F105C0F4B5
S1134820EC56FF4F0C94EC4585E7089581E4089518
S11348308CE608958FE6089582E7089589E5089542
S113484084E6089588E5089585E608958DE608953B
S113485080E2089582E40895CF93DF93EC01CE01C2
S11348602ADF80538A30D8F7DF91CF910895469696
S1134870BECE08950F931F93CF93DF93062F142F6B
S1134880EC016696CE01B4DE6AE3CE01B9DE602F98
S1134890CE01B6DE612FCE01B3DECE01ADDEDF91F7
S11348A0CF911F910F91089540E06EE2E3CF0895F8
S11348B0CF93DF93EC0147E460E2DCDF40E061E2A8
S11348C0CE01D8DF40E864E2CE01D4DFCE01ECDFD4
S11348D0DF91CF910895CF93DF93EC01469683DE69
S11348E01F821E82188619861A861B861C861D86C0
S11348F01E861F86198A188A1A8A1B8A1C8A1D8A90
S1134900DE01A152BF4F1D921D921D921C9213975E
S1134910FE01ED51FF4F10821182128213823496F0
S11349208BE190E091838083198218821B821A8222
S11349301D821C82E05DF1099D0111921192119278
S11349401192E217F307C9F7CE01B2DFDF91CF91DD
S1134950089580E00895FC01DB019C91953639F4BB
S113496081A5813011F411A602C081E081A780E005
S1134970089580E0089580E00895CF93DF93EC01DB
S11349808F89988D0E94DD0A8F89988D0E945D0B16
S1134990DF91CF910895EF92FF920F931F93CF93DE
S11349A0DF93EC018F89988D0E94DD0A7E0122E05D
S11349B0E20EF11C8FE0E6E9F1E0D70101900D92DF
S11349C08A95E1F78EE08E8B00E010E0FE01E10FA6
S11349D0F11D20E0402F62818F89988D0E94000C88
S11349E01F5F0A5F8E89181788F38FE0E5EAF1E00C
S11349F0D70101900D928A95E1F78EE08E8B00E04D
S1134A0010E0FE01E10FF11D28E0402F62818F8943
S1134A10988D0E94000C1F5F0A5F8E89181788F317
S1134A2080E48F9381E48F938BEE8F9385E88F934B
S1134A3084EB91E09F938F93FF92EF920E946748DB
S1134A408E8B2DB73EB7285F3F4F0FB6F8943EBF0D
S1134A500FBE2DBF882389F000E010E0FE01E10FB6
S1134A60F11D20E2402F62818F89988D0E94000CF5
S1134A701F5F0A5F8E89181788F38F89988D0E94AB
S1134A805D0BDF91CF911F910F91FF90EF900895EF
S1134A90ECE7F0E090818F71907E892B8083EAE7C8
S1134AA0F0E0808180648083808186FDFDCF8091E9
S1134AB07800909179000895CF92DF92EF92FF925F
S1134AC080E0E6DFBC0180E090E00E94493F20E006
S1134AD030EC4FE754E40E94B03E2CE53FE842E559
S1134AE050E40E9464402DE031E740E050E40E942D
S1134AF064406093ED087093EE088093EF08909300
S1134B00F00826E636E646E650E40E94483E28E9E8
S1134B1039E949E15FE30E94B03E20E030E048EC2F
S1134B2052E40E9464406B017C0120E030E040E2EA
S1134B3051E40E9464400E941D3F8DEC689F812DCA
S1134B401124869586958695880F282F220F220F8B
S1134B50820F962F981B953070F0C701B6010E9402
S1134B601D3F70E06F5F7F4F072E000C880B990B81
S1134B700E944B3F09C0C701B6010E941D3F70E06F
S1134B8080E090E00E94493F0E94183F862FFF90EA
S1134B90EF90DF90CF900895CF92DF92EF92FF9243
S1134BA00F931F93CF93DF93EC018F89988D0E940D
S1134BB0DD0A10E0E12CF12CE98DFA8DEE0DFF1DDC
S1134BC020E0412F60818F89988D0E94000C8FEF27
S1134BD0E81AF80A1A5F103379F76EDF7E0192E063
S1134BE0E90EF11C282F082E000C330B3F938F93F2
S1134BF082EC91E09F938F93FF92EF920E9467481B
S1134C008E8B15E1181B0F900F900F900F900F9043
S1134C100F90153108F0BFC0012F000F010F000FD6
S1134C208E89FE01E10FF11DE80FF11D739720E05D
S1134C30402F60818F89988D0E94000C1F5F0A5F4E
S1134C40153171F7A8C0E98DFA8DEC0DFD1D28E32F
S1134C50412F60858F89988D0E94000C8FEFC81AB0
S1134C60D80A1A5F103879F785E598E6A2E7B0E02C
S1134C708A839B83AC83BD8383E08E8B0CE010E03E
S1134C80FE01E10FF11D20E1402F62818F89988D93
S1134C900E94000C1F5F0A5F8E89181788F386E054
S1134CA0ECECF1E0D70101900D928A95E1F785E0F3
S1134CB08E8B0CE010E0FE01E10FF11D28E1402F86
S1134CC062818F89988D0E94000C1F5F0A5F8E8914
S1134CD0181788F388E0E2EDF1E0D70101900D9216
S1134CE08A95E1F787E08E8B0CE010E0FE01E10F7E
S1134CF0F11D20E2402F62818F89988D0E94000C63
S1134D001F5F0A5F8E89181788F38EE0EAEDF1E0E1
S1134D10D70101900D928A95E1F78DE08E8B0CE01E
S1134D2010E0FE01E10FF11D28E2402F62818F891E
S1134D30988D0E94000C1F5F0A5F8E89181788F3F4
S1134D408CE0E8EEF1E0D70101900D928A95E1F74D
S1134D508BE08E8B0CE010E0FE01E10FF11D20E3EF
S1134D60402F62818F89988D0E94000C1F5F0A5F1B
S1134D708E89181788F32DA1220F220F220F205F8E
S1134D8040E06EE38F89988D0E94000C8F89988D86
S1134D900E945D0B04C010E5C12CD12C54CFDF91CF
S1134DA0CF911F910F91FF90EF90DF90CF900895D6
S1134DB0AF92BF92CF92DF92EF92FF920F931F9325
S1134DC0CF93DF93EC018F89988D0E94DD0A74DE06
S1134DD05E0122E0A20EB11C282F082E000C330B1A
S1134DE03F938F9384EF91E09F938F93BF92AF9201
S1134DF00E9467488E8B95E1092F081B0F900F9036
S1134E000F900F900F900F90053108F0D4C1E02E51
S1134E10EE0CE00E1E2D110F8E89FE01E00FF11D28
S1134E20E80FF11D739720E0412F60818F89988DE1
S1134E300E94000C0F5F1A5F053171F7BCC1E98D48
S1134E40FA8DEC0DFD1D28E3412F60858F89988D27
S1134E500E94000C3FEFC31AD30A1A5F103879F787
S1134E6020E847E360E08F89988D0E94E60B25E4F3
S1134E704FE060E08F89988D0E94E60B2BE347E0BA
S1134E8065E48F89988D0E94E60B20E140E065E49B
S1134E908F89988D0E94CC0B21E447E26FE38F89C0
S1134EA0988D0E94E60B20E340E16FE38F89988D93
S1134EB00E94CC0B21E448E16FE38F89988D0E9416
S1134EC0E60BE98DFA8D6081605320E040E08F8924
S1134ED0988D0E944A0CE98DFA8D6181605320E01F
S1134EE040E18F89988D0E944A0CE98DFA8D638187
S1134EF0605320E045E28F89988D0E944A0CE98D29
S1134F00FA8D6481605320E045E38F89988D0E9477
S1134F104A0C809186088F93809185088F938091A5
S1134F2084088F93809183088F938FEF91E09F93F0
S1134F308F93BF92AF920E9467488E8B98E0092F9F
S1134F40081B8DB79EB708960FB6F8949EBF0FBE88
S1134F508DBF0830F8F4102F1295107F8E89FE0152
S1134F60E00FF11DE80FF11D369760816E3239F4C0
S1134F7020E2412F8F89988D0E94000C07C0605356
S1134F8028E1412F8F89988D0E944A0C0F5F105F92
S1134F90083021F720E030E04AE754E460917F08CC
S1134FA07091800880918108909182080E94B03E9F
S1134FB09F938F937F936F9385E092E09F938F935A
S1134FC0BF92AF920E9467488E8B2DB73EB7285F81
S1134FD03F4F0FB6F8943EBF0FBE2DBF882389F014
S1134FE016E4F12CFE01EF0DF11D20E1412F628149
S1134FF08F89988D0E94000CF3941A5F8E89F8169D
S113500088F380917E088F9380917D088F9380919F
S11350107C088F9380917B088F938CE092E09F9320
S11350208F93BF92AF920E9467488E8B2DB73EB785
S1135030285F3F4F0FB6F8943EBF0FBE2DBF8823A5
S113504089F016E4F12CFE01EF0DF11D28E2412F49
S113505062818F89988D0E94000CF3941A5F8E8967
S1135060F81688F3C0907708D0907808E090790813
S1135070F0907A08C701B6012CE330E040E050E03C
S11350800E94AE451F926F931F922F93C701B601E2
S113509020E13EE040E050E00E94AE451F922F9395
S11350A085E192E09F938F93BF92AF920E946748ED
S11350B08E8B2DB73EB7265F3F4F0FB6F8943EBF99
S11350C00FBE2DBF882389F016E4F12CFE01EF0DED
S11350D0F11D20E3412F62818F89988D0E94000C7D
S11350E0F3941A5F8E89F81688F3609177087091AB
S11350F078088091790890917A0861157105810585
S11351009105B1F41F921F921F921F928CE092E0BE
S11351109F938F93BF92AF920E9467488E8B8DB7F7
S11351209EB708960FB6F8949EBF0FBE8DBF2AC0D7
S11351300E94493F9B01AC0160917F0870918008F7
S113514080918108909182080E94B03E26E636E65E
S113515046E650E40E9464409F938F937F936F933D
S11351608CE092E09F938F93BF92AF920E94674826
S11351708E8B2DB73EB7285F3F4F0FB6F8943EBFD6
S11351800FBE2DBF8E89882389F00BE410E0FE0149
S1135190E10FF11D28E0402F62818F89988D0E94D4
S11351A0000C1F5F0A5F8E89181788F38F89988D0A
S11351B00E945D0B04C010E5C12CD12C40CEDF91C0
S11351C0CF911F910F91FF90EF90DF90CF90BF9000
S11351D0AF900895EF92FF920F931F93CF93DF93B5
S11351E0EC018F89988D0E94DD0A11E4E12CF12CE9
S11351F0E98DFA8DEE0DFF1D20E0412F60818F892E
S1135200988D0E94000C8FEFE81AF80A1A5F1F3578
S113521079F752DC282F082E000C330B3F938F9321
S11352208AEF91E09F938F93CE0102969F938F9381
S11352300E9467488E8B15E1181B0F900F900F90FA
S11352400F900F900F90153108F05FC0012F000FE1
S1135250010F000F8E89FE01E10FF11DE80FF11D12
S1135260739720E0402F60818F89988D0E94000CF5
S11352701F5F0A5F153171F748C0E98DFA8DEE0D95
S1135280FF1D28E3412F60858F89988D0E94000CB3
S11352908FEFE81AF80A1A5F113779F7E98DFA8D5A
S11352A009A52289418960898F89988D0E94C40C3F
S11352B0E98DFA8D608160532DE046E48F89988DE5
S11352C00E944A0CE98DFA8D618160532DE046E518
S11352D08F89988D0E944A0CE98DFA8D6381605301
S11352E022E246E48F89988D0E944A0CE98DFA8D5A
S11352F06481605322E246E58F89988D0E944A0CAE
S11353008F89988D0E945D0B04C011E4E12CF12C6F
S1135310B4CFDF91CF911F910F91FF90EF9008953B
S1135320CF92DF92EF92FF920F931F93CF93DF936D
S1135330EC018F89988D0E94DD0A10E0E12CF12C9C
S1135340E98DFA8DEE0DFF1D20E0412F60818F89DC
S1135350988D0E94000C2FEFE21AF20A1A5F1033A4
S113536079F7AADB7E0132E0E30EF11C282F082E28
S1135370000C330B3F938F9382EC91E09F938F93B8
S1135380FF92EF920E9467488E8B15E1181B0F90D5
S11353900F900F900F900F900F90153108F0FDC0F3
S11353A0012F000F010F000F8E89FE01E10FF11D87
S11353B0E80FF11D739720E0402F60818F89988D4D
S11353C00E94000C1F5F0A5F153171F7E6C0E98D7A
S11353D0FA8DEC0DFD1D28E3412F60858F89988D92
S11353E00E94000C8FEFC81AD80A1A5F103879F798
S11353F0809198088F93809197088F938091960855
S11354008F93809195088F9384E292E09F938F937A
S1135410FF92EF920E9467488E8B2DB73EB7285FAC
S11354203F4F0FB6F8943EBF0FBE2DBF882389F0BF
S113543000E010E0FE01E10FF11D20E1402F628148
S11354408F89988D0E94000C1F5F0A5F8E89181740
S113545088F3809194088F93809193088F9380911F
S113546092088F93809191088F938EE292E09F939C
S11354708F93FF92EF920E9467488E8B2DB73EB7B1
S1135480285F3F4F0FB6F8943EBF0FBE2DBF882351
S113549089F000E010E0FE01E10FF11D28E1402F4A
S11354A062818F89988D0E94000C1F5F0A5F8E892C
S11354B0181788F3809190088F9380918F088F93A9
S11354C080918E088F9380918D088F9388E392E06A
S11354D09F938F93FF92EF920E9467488E8B2DB714
S11354E03EB7285F3F4F0FB6F8943EBF0FBE2DBFA7
S11354F0882389F000E010E0FE01E10FF11D20E2B5
S1135500402F62818F89988D0E94000C1F5F0A5F73
S11355108E89181788F3809187081F928F93809142
S113552088081F928F93809189081F928F9380918E
S11355308A081F928F9380918B081F928F9380917A
S11355408C081F928F9382E492E09F938F93FF9233
S1135550EF920E9467488E8B2DB73EB7205F3F4F76
S11355600FB6F8943EBF0FBE2DBF882389F000E02C
S113557010E0FE01E10FF11D28E2402F62818F89C6
S1135580988D0E94000C1F5F0A5F8E89181788F39C
S11355908F89988D0E945D0B04C010E5C12CD12C1D
S11355A016CFDF91CF911F910F91FF90EF90DF9075
S11355B0CF900895F894F999FECF92BD81BD60BD56
S11355C0FA9AF99A78940895CF93DF93EC01FB014A
S11355D09081953609F040C0E98DFA8D80918C0850
S11355E0808BE98DFA8D80918B08818BE98DFA8D02
S11355F080918A08828BE98DFA8D80918908848B49
S1135600E98DFA8D80918808868BE98DFA8D8091D9
S11356108708878B898D9A8D0E94473DE98DFA8D85
S1135620618980E090E0C6DFE98DFA8D608981E0D0
S113563090E0C0DFE98DFA8D648982E090E0BADF02
S1135640E98DFA8D668983E090E0B4DFE98DFA8D07
S1135650678984E090E0AEDF80E0DF91CF91089528
S1135660F894F999FECF92BD81BDF89A789480B5EB
S113567008951F920F920FB60F9211240BB60F923A
S11356802F933F934F935F936F937F938F939F9346
S1135690AF93BF93EF93FF930E94C60AFF91EF91DC
S11356A0BF91AF919F918F917F916F915F914F9136
S11356B03F912F910F900BBE0F900FBE0F901F9034
S11356C018951F920F920FB60F9211240BB60F92DA
S11356D08F93EF93FF93E2E1FEE082898F5F828BE9
S11356E0808D8260808FFF91EF918F910F900BBE20
S11356F00F900FBE0F901F9018951F920F920FB628
S11357000F9211248F938091E50881608093E508BE
S11357108F910F900FBE0F901F9018951F920F92AC
S11357200FB60F9211240BB60F922F938F939F9362
S1135730EF93FF932091C600243251F48091E20844
S1135740982F9C7029F41092990881608093E20844
S11357509091E20890FF3CC080919908E82FF0E016
S1135760E656F74F20838F5F80939908893420F0A1
S11357709E7F9093E2082CC08331C9F480919E08E7
S11357808D3489F480919F08833469F48091AC0846
S1135790813429F09D7F90619093E20819C0926052
S11357A09093E20815C09C7F9093E20811C08A325E
S11357B039F494FF0DC09E7E98609093E20808C06F
S11357C0863431F491FF04C09C7F94609093E20886
S11357D0FF91EF919F918F912F910F900BBE0F909E
S11357E00FBE0F901F901895109283081092840892
S11357F0109285081092860810927F0810928008F3
S1135800109281081092820810927B0810927C08F2
S113581010927D0810927E081092770810927808F2
S11358201092790810927A080895FB0180818536D8
S113583009F4DADF80E00895FC01208130E0062ECF
S113584002C0359527950A94E2F720FF16C0EFE0D1
S1135850F7E23197F1F700C00000FC01808190E08D
S113586002C0959587956A95E2F780FD08C0F2E03D
S1135870FA95F1F700C081E0089580E0089580E092
S11358800895CF92DF92EF92FF92CF93DF93E4E8F3
S1135890F0E0C081D181118210822BED3FE049E418
S11358A050E40E94644026E636E646E650E40E9450
S11358B064406B017C01BE0180E090E00E94493F9E
S11358C020E030E040E05EE30E9464402DEB37E3EB
S11358D046E85AE30E9464402AE037ED43EA5BE37A
S11358E00E94493E9B01AC01C701B6010E94B03E33
S11358F0209183083091840840918508509186084E
S11359000E94493E20E030E040E05FE30E946440B2
S11359106B017C0120E030E040E253E40E945940F6
S113592088234CF4C0928308D0928408E0928508BE
S1135930F092860808C0109283081092840810928E
S1135940850810928608DF91CF91FF90EF90DF9049
S1135950CF9008950F931F93E2E1FEE02489868996
S113596090E0A0E0B0E0072E75E1880F991FAA1F10
S1135970BB1F7A95D1F7702DA22B408950E060E0CF
S113598070E0032E3BE0440F551F661F771F3A95C6
S1135990D1F7302D842B952BA62BB72B418950E0C2
S11359A060E070E0440F551F661F771F440F551FBA
S11359B0661F771F440F551F661F771F440F551F1F
S11359C0661F771F440F551F661F771F842B952B67
S11359D0A62BB72B428950E060E070E0769567957E
S11359E057954795482B592B6A2B7B2B878990E039
S11359F04496092E000CAA0BBB0B072E79E1880FE5
S1135A00991FAA1FBB1F7A95D1F7702D8A019B019C
S1135A10082B192B2A2B3B2BC901B8011F910F917D
S1135A200895FF920F931F93CF93DF93CDB7DEB703
S1135A30A9970FB6F894DEBF0FBECDBF1092E6084B
S1135A401092E5081092E4081092E3081092850081
S1135A501092840010926F0085E0809381000E9A6A
S1135A60169A80E480937C00EAE7F0E083E0808388
S1135A708081806880838081806480838081182F06
S1135A80107486FDFBCF809178009091790089B1E4
S1135A90897F89B98AB1897F8AB91092C50083E365
S1135AA08093C40086E08093C20080E88093C100A4
S1135AB0109299088093E208109295081092960823
S1135AC010929708109298081092910810929208D8
S1135AD0109293081092940810928D0810928E08D8
S1135AE010928F081092900810928C0810928B08D4
S1135AF010928A08109289081092880810928708D8
S1135B001F8A81E19AE0998F888F82E19EE09B8FC2
S1135B108A8F1EA21FA281E089A78EE094E09A8357
S1135B20898381E19AE00E94DD0A8FE0E6E9F1E0F1
S1135B30DE01139601900D928A95E1F78EE08F8B2A
S1135B40F12E00E0E3E0F0E0EC0FFD1FE00FF11DAB
S1135B5020E04F2D6081888D998D0E94000C0F5F8D
S1135B6026E0F20E8F89081768F38FE0E5EAF1E08A
S1135B70DE01139601900D928A95E1F78EE08F8BEA
S1135B80F12E00E0E3E0F0E0EC0FFD1FE00FF11D6B
S1135B9028E04F2D6081888D998D0E94000C0F5F45
S1135BA036E0F30E8F89081768F380E48F9381E45D
S1135BB08F938BEE8F9385E88F9384EB91E09F9383
S1135BC08F93CE0103969F938F930E9467488F8B88
S1135BD00FB6F894DEBF0FBECDBF882399F000E066
S1135BE0E3E0F0E0EC0FFD1FE00FF11D20E2412F98
S1135BF06081888D998D0E94000C0F5F1A5F8F89D8
S1135C00081770F3888D998D0E945D0B8AE0FFE779
S1135C1028E331E0F15020403040E1F700C00000BB
S1135C209FE7E8E3F1E09150E040F040E1F700C085
S1135C300000815061F702E11EE0F801128A80E061
S1135C4090E00EDDF801818B81E090E009DDF80140
S1135C50808B82E090E004DDF801848B83E090E0A7
S1135C60FFDCF801868B84E090E0FADCF801878B96
S1135C70C8010E94473DC8010E94283E80B7806841
S1135C8080BFE1ECF0E080818061808382E084BDAC
S1135C9086E287BDEEE6F0E080818260808385B590
S1135CA0856085BD7894A9960FB6F894DEBF0FBEC3
S1135CB0CDBFDF91CF911F910F91FF900895CF93A6
S1135CC0DF931F92CDB7DEB76983603209F48EC0CB
S1135CD0DC018091E60881608093E608462F50E05D
S1135CE0FA01F097E634F10508F075C0E555FF4F69
