S0100000465743505F4D4B332E73726563BA
S113000083C20000B7C20000B5C20000B3C2000042
S1130010B1C20000AFC20000ADC20000ABC200001C
S1130020A9C20000A7C20000A5C200000C94CB0C1A
S1130030A1C200000C94E70C9DC200009BC200000A
S113004099C2000097C2000095C2000093C200004C
S113005091C200008FC200008DC200008BC200005C
S113006089C2000087C2000085C2000083C200006C
S113007081C200007FC200007DC200007BC200007C
S113008079C2000077C2000075C200003508370845
S11300903708370837083708370833083708370868
S11300A03708370837083A08390823082508270885
S11300B029082B082D082F0831088711AD11D411F8
S11300C0FC1123124D127612A0121713411305A826
S11300D04CCDB2D44EB93836A9020C50B9918688A9
S11300E0083CA6AAAA2ABE000000803F00E0F8FC53
S11300F0FE1E070707071EFEFCF8F00000070F3F6F
S11301003F7C707070707C3F1F1F0700000000066A
S11301100707FFFFFFFF00000000000000000000D1
S113012000007F7F7F7F00000000000000383C3E1D
S11301303E0F070707CFFFFEFE3800000040406077
S113014070787C7E7F7773717070000000181C1EBD
S11301501E0FC7C7E7FFFEBE9C000000000C1C3C3E
S11301603C78707070797F3F1F0F0000000080C0E2
S1130170E070381C1EFFFFFFFF00000006070707A2
S113018006060606067F7F7F7F0606000000000045
S1130190F0FFFFFFE7E7E7E7C787000000003878D4
S11301A0717070707070393F3F1F0F000080E0F075
S11301B0F8FC7F7F6F67E1E1C0800000000F1F3F04
S11301C03F7870707070783F3F1F0F00000707077B
S11301D00707C7E7F7FF7F3F1F0703010020387CAD
S11301E07E3F0F0703000000000000000000001C19
S11301F0BEFEFFE7C3C3E7FFFEBE1C0000000E3FC8
S11302003F7F71606060717F3F3F0F000078FCFEAC
S1130210FE8F070707078FFEFEFCF80000000001B1
S11302204343737B7F7F1F0F0703000000005F00C1
S1130230000007000700147F147F14242A7F2A1269
S11302402313086462364955225000050300000058
S11302501C2241000041221C0014083E0814080816
S11302603E080800503000000808080808006060D4
S1130270000020100804023E5149453E00427F40E0
S11302800042615149462141454B311814127F10F7
S113029027454545393C4A4949300171090503362A
S11302A049494936064949291E0036360000005698
S11302B036000008142241001414141414004122BE
S11302C014080201510906324979413E7E11111187
S11302D07E7F494949363E414141227F4141221CAA
S11302E07F494949417F090909013E4149497A7FCA
S11302F00808087F00417F41002040413F017F08FA
S11303001422417F404040407F020C027F7F04085A
S1130310107F3E4141413E7F090909063E4151217A
S11303205E7F09192946464949493101017F010186
S11303303F4040403F1F2040201F3F4038403F6324
S11303401408146307087008076151494543007F86
S113035041410002040810200041417F00040201D1
S11303600204404040404000010204002054545420
S1130370787F484444383844444420384444487FCF
S11303803854545418087E0901020C5252523E7FCC
S11303900804047800447D40002040443D007F1060
S11303A028440000417F40007C041804787C080441
S11303B0047838444444387C141414080814141879
S11303C07C7C080404084854545420043F444020CE
S11303D03C4040207C1C2040201C3C4030403C449D
S11303E0281028440C5050503C4464544C44000899
S11303F036410000007F0000004136080010080864
S113040010086E616E00696E660000407A10F35A3F
S113041000A0724E18090010A5D4E80000E8764840
S1130420170000E40B54020000CA9A3B000000E1EC
S1130430F505000080969800000040420F0000007F
S1130440A08601000000102700000000E80300005F
S113045000006400000000000A0000000000010029
S1130460000000002C76D888DC674F0823DFC1DF4A
S1130470AE59E1B1B796E5E3E453C63AE65199764D
S113048096E8E6C28426EB898C9B62ED407C6FFC87
S1130490EFBC9C9F40F2BAA56FA5F490055A2AF7C9
S11304A05C936B6CF9676DC11BFCE0E40D47FEF5D2
S11304B020E6B500D0ED902E03009435770500803A
S11304C0841E080000204E0A000000C80C33333399
S11304D0330F986E12831141EF8D2114893BE65539
S11304E016CFFEE6DB18D1844B381BF77C1D901D1C
S11304F0A4BBE424203284725E228100C9F124EC7E
S1130500A1E53D27AB15D61511241FBECFEFD0E4CE
S1130510DEBFCDBF14BE0FB6F894A89580916000DD
S1130520886180936000109260000FBE12E0A0E02A
S1130530B1E0E8E2F3E400E00BBF02C007900D92E3
S1130540AC34B107D9F727E0ACE4B2E001C01D92A6
S1130550A03AB207E1F712E0C3E8D2E004C0219761
S1130560FE010E949F1EC238D107C9F70E94A20F44
S11305700C94882145CD9C5F5AC40895FC019C5F6E
S11305801192E817F907E1F708951F93CF93DF93CA
S1130590162FEC01DC5FCE014BD468E7CE0150D4BA
S11305A060E0CE014DD4612FCE014AD4CE0144D4B3
S11305B0DF91CF911F910895CF93DF93EC016EEA01
S11305C0E4DF65EDCE01E1DF60E8CE01DEDF68EA5D
S11305D0CE01DBDF6FE3CE01D8DF63EDCE01D5DFE3
S11305E060E0CE01D2DF60E4CE01CFDF6DE8CE0162
S11305F0CCDF64E1CE01C9DF60E2CE01C6DF60E09A
S1130600CE01C3DF61EACE01C0DF68ECCE01BDDFFD
S11306106AEDCE01BADF62E1CE01B7DF61E8CE0157
S1130620B4DF6FECCE01B1DF69EDCE01AEDF61EF77
S1130630CE01ABDF6BEDCE01A8DF60E4CE01A5DF18
S113064064EACE01A2DF66EACE019FDF6FEACE0143
S11306509CDFDF91CF910895CF93DF93EC019C5FF2
S1130660E2D3CE01A9DFCE0189DFDF91CF910895D6
S1130670EF92FF920F931F93CF93DF93EC0161E20C
S113068084DF60E0CE0181DF6FE7CE017EDF62E2CE
S1130690CE017BDF60E0CE0178DF67E0CE0175DF5D
S11306A08E011C5FC801C4D368E7C801C9D360E4E4
S11306B0C801C6D378016991C801C2D3CE15DF053C
S11306C0D1F7C801B9D3DF91CF911F910F91FF905A
S11306D0EF9008956623ACF1403498F5211119C0C8
S11306E0242F26952695269550E8259F90011124C0
S11306F0260F311DFC01E20FF31F477081E090E0EB
S113070002C0880F991F4A95E2F79081892B808354
S11307100895242F26952695269530E8239FF001E9
S11307201124E60FF11DE80FF91F477081E090E0F6
S113073002C0880F991F4A95E2F78095908189231A
S113074080830895FF920F931F93CF93DF93222307
S113075069F0C42FF62E8C01D22FD40F20E04C2F39
S11307606F2DC801B7DFCF5FCD13F8CFDF91CF91E5
S11307701F910F91FF900895FF920F931F93CF93B2
S1130780DF93222369F0F42EC62F8C01D22FD60FCB
S113079020E04F2D6C2FC8019DDFCF5FCD13F8CF24
S11307A0DF91CF911F910F91FF9008950F931F93A5
S11307B0CF93DF93613208F43EC0A42FB0E0022F40
S11307C006950695069530E8039F80011124615231
S11307D070E0FB01EE0FFF1FEE0FFF1FE60FF71F88
S11307E0E45DFD4FAD01400F511FEC01C40FD51F57
S11307F000581F4FA00FB11FA80FB91F4B5F5F4FC9
S1130800480F591F2770649170E0022E02C0660FD2
S1130810771F0A94E2F79881962B9993672F77278D
S11308206115710519F08C91682B6C9331961196B2
S1130830C417D50741F7DF91CF911F910F91089508
S1130840CF92DF92EF92FF920F931F93CF93DF9398
S11308506A3008F066C050E0022F069506950695AA
S113086010E0D801B695BA2FAA27B795A7950F5FC0
S11308701F4F1695102F0027179507957D0130E817
S1130880E30EF11CE40EF51EE80EF91EEA01C00F9A
S1130890D11F6097C80FD91F040F151F00591F4F90
S11308A0080F191FA40FB51FA80FB91F80E2689F76
S11308B0B001112440E050E02770FA01E60FF71F61
S11308C0E451FF4FE491F0E0022E02C0EE0FFF1F4F
S11308D00A94E2F7403168F48C918E2B8C93CF2EDE
S11308E0DD24C114D10489F0F70180818C2980832F
S11308F00CC088818E2B8883CF2EDD24C114D104B3
S113090021F0F80180818C2980834F5F5F4FFFEFD6
S1130910EF1AFF0A21960F5F1F4F119640325105BF
S113092061F6DF91CF911F910F91FF90EF90DF90CF
S1130930CF9008952F923F924F925F926F927F9241
S11309408F929F92AF92BF92CF92DF92EF92FF92DB
S11309500F931F93CF93DF93CDB7DEB727970FB6CF
S1130960F894DEBF0FBECDBF9F838E836D83342E7C
S1130970002309F426C1622F70E080E090E00E9419
S11309807D1920E030E040EC50E40E948F1A2BEDFA
S11309903FE049E450E40E948F1A20E030E044E351
S11309A053E40E94E2182BED3FE049EC5FE30E9420
S11309B07A186B017C010E94DF184B015C01C701AE
S11309C0B6010E94F21A2B013C0100E010E0B801CC
S11309D0012E000C880B990B0E947D196B017C0180
S11309E0A30192010E948F1A20E030E048EF51E405
S11309F00E947B180E944F19262EA5019401C7015D
S1130A00B6010E948F1A20E030E048EF51E40E94C2
S1130A107B180E944F1920E0422D8E819F815ADE5F
S1130A200F5F1F4F0931110591F6632D70E080E0CF
S1130A3090E00E947D1969837A838B839C8320E0F4
S1130A4030E040EC50E40E948F1A2BED3FE049E483
S1130A5050E40E948F1A20E030E044E353E40E9403
S1130A60E2182BED3FE049EC5FE30E947A186B013A
S1130A707C010E94DF182B013C01C701B6010E94D2
S1130A80F21A4B015C0100E010E0B801012E000CE9
S1130A90880B990B0E947D196B017C01A5019401BF
S1130AA00E948F1A20E030E048EF51E40E947B1846
S1130AB00E944F19362EA3019201C701B6010E946C
S1130AC08F1A20E030E048EF51E40E947B180E9426
S1130AD04F1920E0432D8E819F81FCDD0F5F1F4F56
S1130AE00531110591F62D81622F70E080E090E0D0
S1130AF00E947D1920E030E040EF51E40E948F1AFB
S1130B006B017C0120E030E040E05FE369817A81A1
S1130B108B819C810E948F1A9B01AC01C701B60195
S1130B200E947B182BED3FE049E450E40E948F1AA9
S1130B3020E030E044E353E40E94E2182BED3FE070
S1130B4049EC5FE30E947A186B017C010E94DF1874
S1130B504B015C01C701B6010E94F21A2B013C0152
S1130B6000E010E0B801012E000C880B990B0E94E4
S1130B707D196B017C01A30192010E948F1A20E070
S1130B8030E048EF51E40E947B180E944F19362E42
S1130B90A5019401C701B6010E948F1A20E030E03C
S1130BA048EF51E40E947B180E944F1920E0432D26
S1130BB08E819F818FDD0F5F1F4F0D30110591F6E0
S1130BC0CBC0642F70E080E090E00E947D196983BF
S1130BD07A838B839C8320E030E040EC50E40E94D5
S1130BE08F1A2BED3FE049E450E40E948F1A20E075
S1130BF030E044E353E40E94E2182BED3FE049EC7B
S1130C005FE30E947A186B017C010E94DF182B01BC
S1130C103C01C701B6010E94F21A4B015C0100E0DD
S1130C2010E0B801012E000C880B990B0E947D196D
S1130C306B017C01A50194010E948F1A20E030E031
S1130C4048EF51E40E947B180E944F19362EA301ED
S1130C509201C701B6010E948F1A20E030E048EFEC
S1130C6051E40E947B180E944F1920E0432D8E818D
S1130C709F8130DD0F5F1F4F0931110591F6ED8122
S1130C806E2F70E080E090E00E947D1920E030E05B
S1130C9040EF51E40E948F1A6B017C0120E030E0A8
S1130CA040E05FE369817A818B819C810E948F1A85
S1130CB09B01AC01C701B6010E947B182BED3FE0FC
S1130CC049E450E40E948F1A20E030E044E353E406
S1130CD00E94E2182BED3FE049EC5FE30E947A1892
S1130CE06B017C010E94DF184B015C01C701B60156
S1130CF00E94F21A2B013C0100E010E0B801012E21
S1130D00000C880B990B0E947D196B017C01A301D7
S1130D1092010E948F1A20E030E048EF51E40E94D3
S1130D207B180E944F19362EA5019401C701B60104
S1130D300E948F1A20E030E048EF51E40E947B18B3
S1130D400E944F1920E0432D8E819F81C3DC0F5FE9
S1130D501F4F0131110591F620E04AE161E38E81D4
S1130D609F8124DD20E040E262E38E819F811EDDCD
S1130D702CE14AE363E38E819F8118DD28E34DE192
S1130D8066E38E819F8112DD2CE140E069E38E8170
S1130D909F810CDD20E048E06CE28E819F819ADC2B
S1130DA020E042E165E38E819F8194DC20E04CE207
S1130DB065E38E819F818EDC20E045E36BE28E81CA
S1130DC09F8188DC20E045E361E18E819F8182DCA4
S1130DD020E04CE268E08E819F817CDC20E041E1F0
S1130DE068E08E819F8176DC20E048E062E18E81BC
S1130DF09F8170DC27960FB6F894DEBF0FBECDBF7F
S1130E00DF91CF911F910F91FF90EF90DF90CF90E2
S1130E10BF90AF909F908F907F906F905F904F9016
S1130E203F902F90089582E08093B800089508952C
S1130E3084EA8093BC00089584E98093BC000895FB
S1130E40ECEBF0E080818823ECF76093BB0084E84E
S1130E508093BC00ECEBF0E080818823ECF70895EC
S1130E602AB120662AB928B1237F28B927B12C607A
S1130E7027B92AB1237E2AB9FC010C961192E817EE
S1130E80F907E1F708950895FB01808190E0042EAD
S1130E9002C0959587950A94E2F780FF05C081E02A
S1130EA0F901808380E00895F9018081813071F433
S1130EB0FB01608170E0FB0102C0F595E7954A955E
S1130EC0E2F7E0FD03C0F90110820895F9011082F0
S1130ED080E008951F93CF93DF93EC01439A82E05F
S1130EE08A95F1F700C09E012E5F3F4F44E069E20E
S1130EF070E0CE01C9DF811114C09E012F5F3F4F06
S1130F0043E069E270E0CE01BFDF81110CC09E01B5
S1130F1042E069E270E0CE01B7DF882331F011E3EB
S1130F2005C013E303C012E301C010E24398429AE0
S1130F3082E08A95F1F700C09E012B5F3F4F44E0A9
S1130F4069E270E0CE01A0DF811116C09E012C5F22
S1130F503F4F43E069E270E0CE0196DF81110EC09D
S1130F609E012D5F3F4F42E069E270E0CE018CDFCD
S1130F70882329F014E303C016E301C015E3429863
S1130F805E9A82E08A95F1F700C09E01285F3F4F88
S1130F9044E069E270E0CE0177DF811116C09E0162
S1130FA0295F3F4F43E069E270E0CE016DDF8111BC
S1130FB00EC09E012A5F3F4F42E069E270E0CE011D
S1130FC063DF882329F017E303C019E301C018E3A2
S1130FD05E985D9A82E08A95F1F700C09E01255FD4
S1130FE03F4F44E069E270E0CE014EDF811116C04C
S1130FF09E01265F3F4F43E069E270E0CE0144DF8B
S113100081110EC09E01275F3F4F42E069E270E00C
S1131010CE013ADF882329F01AE203C013E201C0AB
S113102010E35D98812FDF91CF911F91089552DFD6
S1131030482F50E0FA01B397E731F105C0F4EA5BB9
S1131040FF4F0C949F1E85E7089581E408958CE674
S113105008958FE6089582E7089589E5089584E662
S1131060089588E5089585E608958DE6089580E25B
S1131070089582E40895CF93DF93EC01CE012ADF33
S113108080538A30D8F7DF91CF9108950696CFCE5A
S113109008950F931F93CF93DF93062F142FEC0122
S11310A02696CE01C5DE6CE3CE01CADE602FCE01EA
S11310B0C7DE612FCE01C4DECE01BEDEDF91CF914B
S11310C01F910F910895CF93DF93EC010696ABDE49
S11310D040E760E0CE01DDDF40E261E0CE01D9DF30
S11310E041E062E0CE01D5DF1982188218861F82A2
S11310F01B821A821A8619861D821C821C861B86F4
S1131100DF91CF910895469692CE08950F931F9341
S1131110CF93DF93062F142FEC016696CE0188DE61
S11311206AE3CE018DDE602FCE018ADE612FCE010F
S113113087DECE0181DEDF91CF911F910F9108955B
S113114040E06EE2E3CF0895CF93DF93EC0147E4F0
S113115060E2DCDF40E061E2CE01D8DF40E864E237
S1131160CE01D4DFCE01ECDFDF91CF910895CF9390
S1131170DF93EC01469657DE1F821E82188619867D
S11311801A861B861C861D861E861F86198A188A47
S11311901A8A1B8A1C8A1D8ADE01A152BF4F1D9226
S11311A01D921D921C921397FE01ED51FF4F108268
S11311B011821282138234968BE190E091838083B2
S11311C0198218821B821A821D821C82E05DF10939
S11311D09D011192119211921192E217F307C9F72E
S11311E0CE01B2DFDF91CF91089580E00895FC0134
S11311F0DB019C91953639F485A1813011F415A257
S113120002C081E085A380E00895FC01DB018C919C
S11312108F3611F0823721F486A18F5F86A311C027
S11312208C3621F486A1815086A30BC0853721F426
S113123085A1815085A305C0843619F485A18F5FEB
S113124085A386A1833008F016A285A1843008F016
S113125015A280E00895EF92FF920F931F93CF930E
S1131260DF93EC018F89988D89D97E0122E0E20E0B
S1131270F11C8FE0E6E0F1E0D70101900D928A9530
S1131280E1F78EE08E8B00E010E0FE01E10FF11D2E
S113129020E0402F62818F89988D88DA1F5F0A5F72
S11312A08E89181790F38FE0E5E1F1E0D701019002
S11312B00D928A95E1F78EE08E8B00E010E0FE013E
S11312C0E10FF11D28E0402F62818F89988D6EDA3D
S11312D01F5F0A5F8E89181790F380E48F938F93B2
S11312E083EA8F9387ED8F9384E291E09F938F93AA
S11312F0FF92EF920E94FB208E8B2DB73EB7285FA2
S11313003F4F0FB6F8943EBF0FBE2DBF882381F028
S113131000E010E0FE01E10FF11D20E2402F6281A8
S11313208F89988D43DA1F5F0A5F8E89181790F3AF
S11313308F89988D9DD9DF91CF911F910F91FF9047
S1131340EF900895ECE7F0E090818F71907E892B07
S11313508083EAE7F0E0808180648083808186FD79
S1131360FDCF80917800909179000895CF92DF921B
S1131370EF92FF9280E0E6DFBC0180E090E00E9403
S11313807B1920E030EC4FE754E40E94E2182CE58E
S11313903FE842E550E40E948F1A2DE031E740E037
S11313A050E40E948F1A60936802709369028093DC
S11313B06A0290936B0226E636E646E650E40E9403
S11313C07A1828E939E949E15FE30E94E21820E04C
S11313D030E048EC52E40E948F1A6B017C0120E05B
S11313E030E040E251E40E948F1A0E944F198DECC4
S11313F0689F812D1124869586958695880F282FC0
S1131400220F220F820F962F981B953070F0C70180
S1131410B6010E944F1970E06F5F7F4F072E000CDA
S1131420880B990B0E947D1909C0C701B6010E945F
S11314304F1970E080E090E00E947B190E944A19E5
S1131440862FFF90EF90DF90CF900895AF92BF92D8
S1131450CF92DF92EF92FF920F931F93CF93DF937C
S1131460EC018F89988D8AD881DF5E0122E0A20E7B
S1131470B11C282F082E000C330B3F938F9382E36B
S113148091E09F938F93BF92AF920E94FB208E8B2B
S113149095E1092F081B0F900F900F900F900F905C
S11314A00F90053108F0B0C1E02EEE0CE00E1E2DB9
S11314B0110F8E89FE01E00FF11DE80FF11D7397E6
S11314C020E0412F60818F89988D70D90F5F1A5F5A
S11314D0053179F799C1E98DFA8DEC0DFD1D28E3ED
S11314E0412F60858F89988D61D93FEFC31AD30A44
S11314F01A5F103881F720E847E360E08F89988D00
S11315003BD925E44FE060E08F89988D35D92BE3F2
S113151047E065E48F89988D2FD920E140E065E4A8
S11315208F89988D0FD921E447E26FE38F89988DD5
S113153023D920E340E16FE38F89988D03D921E417
S113154048E16FE38F89988D17D9E98DFA8D608111
S1131550605320E040E08F89988D72D9E98DFA8D2F
S11315606181605320E040E18F89988D69D9E98DCC
S1131570FA8D6381605320E045E28F89988D60D9AC
S1131580E98DFA8D6481605320E045E38F89988D5D
S113159057D980915B028F9380915A028F938091E7
S11315A059028F93809158028F938DE391E09F931A
S11315B08F93BF92AF920E94FB208E8B98E0092FED
S11315C0081B8DB79EB708960FB6F8949EBF0FBE42
S11315D08DBF0830E8F4102F1295107F8E89FE011C
S11315E0E00FF11DE80FF11D369760816E3231F482
S11315F020E2412F8F89988DD9D806C0605328E105
S1131600412F8F89988D1CD90F5F105F083031F7F7
S113161020E030E04AE754E46091540270915502AE
S113162080915602909157020E94E2189F938F93E3
S11316307F936F9383E491E09F938F93BF92AF92D4
S11316400E94FB208E8B2DB73EB7285F3F4F0FB60D
S1131650F8943EBF0FBE2DBF882381F016E4F12C11
S1131660FE01EF0DF11D20E1412F62818F89988DDC
S11316709DD8F3941A5F8E89F81690F380915302E3
S11316808F93809152028F93809151028F93809116
S113169050028F938AE491E09F938F93BF92AF920D
S11316A00E94FB208E8B2DB73EB7285F3F4F0FB6AD
S11316B0F8943EBF0FBE2DBF882381F016E4F12CB1
S11316C0FE01EF0DF11D28E2412F62818F89988D73
S11316D06DD8F3941A5F8E89F81690F380914F02B7
S11316E08F9380914E028F9380914D028F938091BE
S11316F04C028F9383E591E09F938F93BF92AF92B7
S11317000E94FB208E8B2DB73EB7285F3F4F0FB64C
S1131710F8943EBF0FBE2DBF882381F016E4F12C50
S1131720FE01EF0DF11D20E3412F62818F89988D19
S11317303DD8F3941A5F8E89F81690F360914C02A9
S113174070914D0280914E0290914F026115710586
S113175081059105B1F41F921F921F921F928AE492
S113176091E09F938F93BF92AF920E94FB208E8B48
S11317708DB79EB708960FB6F8949EBF0FBE8DBF67
S11317802AC00E947B199B01AC01609154027091A4
S1131790550280915602909157020E94E21826E663
S11317A036E646E650E40E948F1A9F938F937F9308
S11317B06F938AE491E09F938F93BF92AF920E94BC
S11317C0FB208E8B2DB73EB7285F3F4F0FB6F894A2
S11317D03EBF0FBE2DBF8E89882389F00BE410E035
S11317E0FE01E10FF11D28E0402F62818F89988D61
S11317F00E94D6031F5F0A5F8E89181788F38F89AA
S1131800988D0E94380304C010E5C12CD12C63CEFE
S1131810DF91CF911F910F91FF90EF90DF90CF90C8
S1131820BF90AF900895EF92FF920F931F93CF93C1
S1131830DF93EC018F89988D0E94BE0211E4E12CA4
S1131840F12CE98DFA8DEE0DFF1D20E0412F608112
S11318508F89988D0E94D6038FEFE81AF80A1A5FD1
S11318601F3579F783DD282F082E000C330B3F93A7
S11318708F9388E391E09F938F93CE0102969F9379
S11318808F930E94FB208E8B15E1181B0F900F90F5
S11318900F900F900F900F90153108F05EC0012F3C
S11318A0000F010F000F8E89FE01E10FF11DE80FFB
S11318B0F11D739720E0402F60818F89988D0E94DD
S11318C0D6031F5F0A5F153171F747C0E98DFA8DA2
S11318D0EE0DFF1D28E3412F60858F89988D0E94AE
S11318E0D6038FEFE81AF80A1A5F113779F7E98DF2
S11318F0FA8D0DA12289418960898F89988D1AD822
S1131900E98DFA8D608160532DE046E48F89988DCE
S11319100E942004E98DFA8D618160532DE046E533
S11319208F89988D0E942004E98DFA8D638160531C
S113193022E246E48F89988D0E942004E98DFA8D75
S11319406481605322E246E58F89988D0E942004C9
S11319508F89988D0E94380304C011E4E12CF12C86
S1131960B5CFDF91CF911F910F91FF90EF90089524
S1131970F894F999FECF92BD81BD60BDFA9AF99AA7
S113198078940895F894F999FECF92BD81BDF89AA0
S1131990789480B508951F920F920FB60F92112478
S11319A00BB60F928F93EF93FF93EDE7F7E08289E5
S11319B08F5F828B808D8260808FFF91EF918F91FA
S11319C00F900BBE0F900FBE0F901F9018951F9293
S11319D00F920FB60F9211248F9380915E02816053
S11319E080935E028F910F900FBE0F901F901895F9
S11319F0109258021092590210925A0210925B02ED
S1131A0010925402109255021092560210925702EC
S1131A1010925002109251021092520210925302EC
S1131A2010924C0210924D0210924E0210924F02EC
S1131A300895FB018081853609F4DADF80E008959A
S1131A40FC01208130E0062E02C0359527950A94CA
S1131A50E2F720FF16C0EFE0F7E23197F1F700C09C
S1131A600000FC01808190E002C0959587956A95FD
S1131A70E2F780FD08C0F2E0FA95F1F700C081E0DA
S1131A80089580E0089580E00895CF92DF92EF9268
S1131A90FF92CF93DF93E4E8F0E0C081D18111821B
S1131AA010822BED3FE049E450E40E948F1A26E6B1
S1131AB036E646E650E40E948F1A6B017C01BE01B3
S1131AC080E090E00E947B1920E030E040E05EE39B
S1131AD00E948F1A2DEB37E346E85AE30E948F1ACF
S1131AE02AE037ED43EA5BE30E947B189B01AC01DB
S1131AF0C701B6010E94E2182091580230915902A0
S1131B0040915A0250915B020E947B1820E030E021
S1131B1040E05FE30E948F1A6B017C0120E030E01B
S1131B2040E253E40E948B1A88234CF4C09258027A
S1131B30D0925902E0925A02F0925B0208C01092CD
S1131B4058021092590210925A0210925B02DF91CD
S1131B50CF91FF90EF90DF90CF900895FF920F9375
S1131B601F93CF93DF93CDB7DEB7A5970FB6F89445
S1131B70DEBF0FBECDBF10925F0210925E021092C4
S1131B805D0210925C021092850010928400109203
S1131B906F0085E0809381000E9A169A80E480930A
S1131BA07C00EAE7F0E083E08083808180688083C2
S1131BB08081806480838081182F107486FDFBCF20
S1131BC080917800909179001F8A8CE793E0998F37
S1131BD0888F8DE797E09B8F8A8F87E492E09A83C2
S1131BE089838CE793E00E94BE028FE0E6E0F1E097
S1131BF0DE01139601900D928A95E1F78EE08F8BAA
S1131C00F12E00E0E3E0F0E0EC0FFD1FE00FF11D2A
S1131C1020E04F2D6081888D998D0E94D6030F5F3F
S1131C2026E0F20E8F89081768F38FE0E5E1F1E012
S1131C30DE01139601900D928A95E1F78EE08F8B69
S1131C40F12E00E0E3E0F0E0EC0FFD1FE00FF11DEA
S1131C5028E04F2D6081888D998D0E94D6030F5FF7
S1131C6036E0F30E8F89081768F380E48F938F931F
S1131C7083EA8F9387ED8F9384E291E09F938F9310
S1131C80CE0103969F938F930E94FB208F8B0FB6F8
S1131C90F894DEBF0FBECDBF882399F000E0E3E0E7
S1131CA0F0E0EC0FFD1FE00FF11D20E2412F6081F9
S1131CB0888D998D0E94D6030F5F1A5F8F8908174C
S1131CC070F3888D998D0E9438038AE0FFE728E33A
S1131CD031E0F15020403040E1F700C000009FE7C0
S1131CE0E8E3F1E09150E040F040E1F700C000008B
S1131CF0815061F70DE717E0F801128A80E090E067
S1131D0041DEF801818B81E090E03CDEF801808BBC
S1131D1082E090E037DEF801848B83E090E032DEED
S1131D20F801868B84E090E02DDEF801878BC801F2
S1131D300E943817C8010E9419187894A5960FB606
S1131D40F894DEBF0FBECDBFDF91CF911F910F91ED
S1131D50FF900895CF92DF92EF92FF920F931F931B
S1131D60CF93DF931F92CDB7DEB78C0169836032C6
S1131D7089F1603391F06D36E9F480915D028F5FF3
S1131D80833018F480935D0202C010925D0280914A
S1131D905F02816080935F021DC086E692E0A1D756
S1131DA0882321F086E692E0D7D714C086E692E035
S1131DB05BD710C0D801ED91FC910190F081E02D2A
S1131DC0BE016F5F7F4FC801099580915F028160FA
S1131DD080935F0280915D028130F9F467E080E2D4
S1131DE090E02EDE882331F063E371E186E39FE324
S1131DF04CDE13C080918400909185008E389B4501
S1131E0060F0109285001092840010925802109293
S1131E10590210925A0210925B028091950781FF39
S1131E206AC08DE797E00E94DE1780915D028130E1
S1131E3009F057C0C0905802D0905902E0905A025D
S1131E40F0905B0220915002309151024091520275
S1131E5050915302C701B6010E948B1A181644F41C
S1131E60C0925002D0925102E0925202F092530278
S1131E7020E030E040E85FE3C701B6010E948B1A1E
S1131E8088239CF080914C0290914D02A0914E02C7
S1131E90B0914F020196A11DB11D80934C02909305
S1131EA04D02A0934E02B0934F0226E636E646E674
S1131EB050E4C701B6010E94E2189B01AC01609195
S1131EC054027091550280915602909157020E94DB
S1131ED07B1860935402709355028093560290933A
S1131EE0570280915F02816080935F02EDE7F7E023
S1131EF0808D8D7F808F9091950792FF08C080918F
S1131F005F02816080935F029B7F9093950780912D
S1131F105F0280FF0DC0D801ED91FC910280F38136
S1131F20E02DC801099580915F028E7F80935F0246
S1131F300F90DF91CF911F910F91FF90EF90DF9061
S1131F40CF900895CF93DF93CDB7DEB72F970FB619
S1131F50F894DEBF0FBECDBF01DE86E290E00E94A2
S1131F60A81EFC01168A8CE793E0908F878B8DE77F
S1131F7097E0928F818F8FE292E09183808385E551
S1131F8098E6A2E7B0E089839A83AB83BC839E0181
S1131F902F5F3F4FCF014B96BE01655F7F4F890195
S1131FA040E2502F521B543028F4D8015C91DC01DC
S1131FB05C9302C0DC014C930F5F1F4F0196061720
S1131FC0170779F781E085A3FB87EA8785E290E02C
S1131FD00E94A81E8C01FC01168A8CE793E0908F66
S1131FE0878B8DE797E0928F818F87E392E09183CF
S1131FF0808386E0E8E5F1E09E012F5F3F4FD90141
S113200001900D928A95E1F7922FD8015B96AE016B
S1132010455F5F4FF90180E22E2F291B263018F40B
S113202020812C9301C08C9331961196E417F50707
S113203099F7DEDC1D870C8787E290E00E94A81EDA
S1132040DC0156961C9256972CE733E058963C9345
S11320502E9357972DE737E05A963C932E93599732
S11320602FE332E02D933C9349E0EEE5F1E09E014D
S11320702F5F3F4FD90101900D924A95E1F7622FEE
S1132080DC015B96AE01455F5F4FF90120E23E2F14
S1132090361B393018F430813C9301C02C933196AF
S11320A01196E417F50799F7FC0115A216A29F876C
S11320B08E8780E793E00E941708E0915D02F0E0CC
S11320C0EE0FFF1F21E030E02C0F3D1FE20FF31F46
S11320D0682F818592853EDEECCF2F923F924F92FE
S11320E05F926F927F928F929F92AF92BF92CF92A4
S11320F0DF92EF92FF920F931F93CF93DF93CDB7AD
S1132100DEB766970FB6F894DEBF0FBECDBF8DE77E
S113211097E0A9D78CE793E00E94BE02912C0F2E82
S1132120FFE07F2EF02DCE0101962C01F12C8D8B3A
S11321305E8A0F2EFDE7CF2EF7E0DF2EF02D0F2E57
S1132140FDEC8F2EF02D6894EE24E5F80F2EFEE2C0
S11321506F2EF02DE7E6F1E0D201872D01900D926C
S11321608A95E1F7520112011F2DF10161911F01BE
S11321702F2D412F8CE793E00E94D6031A5F14356C
S1132180A1F7E5E1F1E0D201872D01900D928A9546
S1132190E1F72D883E881F2DF10161911F0128E090
S11321A0412F8CE793E00E94D6031A5F1435A1F700
S11321B0F6019089989D812D1124869586958695A2
S11321C08983880F282F220F220F820F981B9A834E
S11321D0FAE3FB83F6019189989D812D112486955C
S11321E0869586958C83880F282F220F220F820FC5
S11321F0981B9D83EE829489989D812D1124869548
S1132200869586958F83880F282F220F220F820FA1
S1132210981B988769869689989D812D11248695A7
S1132220869586958A87880F282F220F220F820F82
S1132230981B9B876C869789989D812D1124869580
S1132240869586958D87880F282F220F220F820F5F
S1132250981B9E870D891E892F2C3324339405C027
S113226033940F5F1F4FF0E12F0E83E0381661F0B7
S113227020E1422DF80160818CE793E00E94200464
S1132280F4E0F31568F708C024E148E26B818CE7B9
S113229093E00E94D603E4CF8E01095F1F4F2F2CD9
S11322A00F2EF6E03F2EF02D88E0381661F09BE00B
S11322B0391649F02E2D422DF80160818CE793E008
S11322C00E94200409C028E248E0420DF801608120
S11322D08CE793E00E94D60333940F5F1F4FF0E125
S11322E02F0E8EE03812E0CF8CE793E00E94380383
S11322F08CE793E00E94BE02892D90E08A3091051C
S113230008F02CC2FC01E35AFF4F0C949F1E80E797
S113231093E00E943B08880F982F990F990F890F1B
S1132320883108F452C2F601108AE6E7F1E0D201DE
S1132330872D01900D928A95E1F71F2DF50161918A
S11323405F0128E3412F8CE793E00E94D6031A5FD4
S11323501435A1F799249A943AC280E793E00E9435
S11323603B08F601208990E0820F911D883110F41A
S1132370808B2DC2F601108AE6E7F1E0D201872DA9
S113238001900D928A95E1F71F2DF50161915F018E
S113239028E3412F8CE793E00E94D6031A5F14359B
S11323A0A1F799249A9413C280E793E00E943B0812
S11323B0880F982F990F990F890F8C3318F4F60111
S11323C0818B05C2F601118AE5E8F1E0D201872D7F
S11323D001900D928A95E1F71F2DF50161915F013E
S11323E028E3412F8CE793E00E94D6031A5F14354B
S11323F0A1F799249394EBC180E793E00E943B08F2
S1132400F601218990E0820F911D8C3310F4818BA9
S1132410DEC1F601118AE5E8F1E0D201872D0190D1
S11324200D928A95E1F71F2DF50161915F0128E373
S1132430412F8CE793E00E94D6031A5F1435A1F76D
S113244099249394C4C180E793E00E943B08880FC9
S1132450982F990F990F890F803218F4F601848B05
S1132460B6C1F601148A8BE0E4E9F1E0D2010190EF
S11324700D928A95E1F71F2DF50161915F0128E323
S1132480412F8CE793E00E94D6031A5F1C33A1F717
S11324900F2EF3E09F2EF02D9AC180E793E00E9467
S11324A03B08F601248990E0820F911D803210F4DC
S11324B0848B8DC1F601148A8BE0E4E9F1E0D2014A
S11324C001900D928A95E1F71F2DF50161915F014D
S11324D028E3412F8CE793E00E94D6031A5F1C3354
S11324E0A1F70F2EF3E09F2EF02D71C180E793E04A
S11324F00E943B08880F982F990F990F890F8D30F0
S113250018F4F601868B63C1F601168A8DE0EFE9B3
S1132510F1E0D20101900D928A95E1F71F2DF501AA
S113252061915F0128E3412F8CE793E00E94D60379
S11325301A5F1834A1F70F2EF5E09F2EF02D47C136
S113254080E793E00E943B08F601268990E0820F21
S1132550911D8D3010F4868B1DC0F601168A8DE016
S1132560EFE9F1E0D20101900D928A95E1F72D880F
S11325703E881F2DF10161911F0128E3412F8CE753
S113258093E00E94D6031A5F1834A1F70F2EF5E0EA
S11325909F2EF02DF6019689892F8D7F843011F0BE
S11325A0893009F5F60184898F3108F4D8C0148A7A
S11325B0168A8BE0E4E9F1E0D20101900D928A954C
S11325C0E1F71F2DF50161915F0128E3412F8CE7AD
S11325D093E00E94D6031A5F1C33A1F70F2EF3E099
S11325E09F2EF02DF4C0923009F0B9C0F601848911
S11325F08E3108F4B4C0148A168A8BE0E4E9F1E061
S1132600D20101900D928A95E1F71F2DF501619198
S11326105F0128E3412F8CE793E00E94D6031A5F01
S11326201C33A1F70F2EF3E09F2EF02DD0C080E7CE
S113263093E00E943B08880F982F990F990F890FF8
S1132640823318F4F601878BC2C0F601178A8CE036
S1132650ECEAF1E0D20101900D928A95E1F71F2D89
S1132660F50161915F0128E3412F8CE793E00E941B
S1132670D6031A5F1234A1F70F2EF7E09F2EF02D28
S1132680A6C080E793E00E943B08F601278990E00A
S1132690820F911D823308F491C0178A8CE0ECEA12
S11326A0F1E0D20101900D928A95E1F72D883E88E0
S11326B01F2DF10161911F0128E3412F8CE793E065
S11326C00E94D6031A5F1234A1F70F2EF7E09F2E53
S11326D0F02D76C0F60117891370F9F484898E31D0
S11326E0F0F1148A168A178A8BE0E4E9F1E0D2014A
S11326F001900D928A95E1F7F50161915F0128E35C
S1132700412F8CE793E00E94D6031A5F1C33A1F794
S11327100F2EF3E09F2EF02D5AC0F60184898D31DF
S1132720F0F0148A168A178A8BE0E4E9F1E0D2010A
S113273001900D928A95E1F71F2DF50161915F01DA
S113274028E3412F8CE793E00E94D6031A5F1C33E1
S1132750A1F70F2EF3E09F2EF02D39C0939493949C
S1132760FAE0F91508F0F6CC0DE717E0F801128A43
S1132770138A618980E090E0FBD8F801608981E0E8
S113278090E0F6D8F801648982E090E0F1D8F8018D
S1132790668983E090E0ECD8F801678984E090E0F2
S11327A0E7D88CE793E00E94BE02C80161D3C80158
S11327B026D3C8013ED40DC09394CCCCF601878BAC
S11327C0F60186898230C1F785CFF601808B939418
S11327D0C1CC66960FB6F894DEBF0FBECDBFDF91B5
S11327E0CF911F910F91FF90EF90DF90CF90BF900A
S11327F0AF909F908F907F906F905F904F903F909D
S11328002F900895CF92DF92EF92FF920F931F9330
S1132810CF93DF93EC018F89988D0E94BE0210E064
S1132820E12CF12CE98DFA8DEE0DFF1D20E0412FF6
S113283060818F89988D0E94D6032FEFE21AF20AE5
S11328401A5F103379F70E94B6097E0132E0E30E75
S1132850F11C282F082E000C330B3F938F9388EB29
S113286091E09F938F93FF92EF920E94FB208E8BB7
S113287015E1181B0F900F900F900F900F900F9071
S1132880153108F05BC1012F000F010F000F8E8975
S1132890FE01E10FF11DE80FF11D739720E0402FB9
S11328A060818F89988D0E94D6031F5F0A5F15315E
S11328B071F744C1E98DFA8DEC0DFD1D28E3412F1C
S11328C060858F89988D0E94D6038FEFC81AD80A25
S11328D01A5F103879F78EA1811178C080E1E2EC9B
S11328E0F1E0D70101900D928A95E1F78FE08E8B8C
S11328F00CE010E0FE01E10FF11D20E1402F6281A8
S11329008F89988D0E94D6031F5F0A5F8E891817DE
S113291088F38CE0E2EDF1E0D70101900D928A9505
S1132920E1F78BE08E8B0CE010E0FE01E10FF11D6E
S113293028E1402F62818F89988D0E94D6031F5F02
S11329400A5F8E89181788F38FE0EEEDF1E0D70166
S113295001900D928A95E1F78EE08E8B0CE010E0E9
S1132960FE01E10FF11D20E2402F62818F89988DD5
S11329700E94D6031F5F0A5F8E89181788F38BE0C5
S1132980EDEEF1E0D70101900D928A95E1F78AE02E
S11329908E8B0CE010E0FE01E10FF11D28E2402FC8
S11329A062818F89988D0E94D6031F5F0A5F8E898A
S11329B0181788F32DA1220F220F220F205F40E069
S11329C06EE38F89988D0E94D603B3C09DA19111A7
S11329D006C0813009F0ADC080DB1EA2AAC09130D0
S11329E009F060C0813009F0A4C085E1E8EFF1E0AE
S11329F0D70101900D928A95E1F784E18E8B00E076
S1132A0010E0FE01E10FF11D20E1402F62818F896A
S1132A10988D0E94D6031F5F0A5F8E89181788F36A
S1132A208DE0EDE0F2E0D70101900D928A95E1F797
S1132A308CE08E8B00E010E0FE01E10FF11D28E137
S1132A40402F62818F89988D0E94D6031F5F0A5F91
S1132A508E89181788F31F9285E08F938AE192E09C
S1132A609F938F93FF92EF920E94FB208E8B0F9087
S1132A700F900F900F900F900F90882309F459C076
S1132A8000E010E0FE01E10FF11D28E2402F628119
S1132A908F89988D0E94D6031F5F0A5F8E8918174D
S1132AA088F347C09230B1F5813009F042C080E428
S1132AB08F938F9383EA8F9387ED8F9384E291E0D2
S1132AC09F938F93FF92EF920E94FB208E8B2DB7E2
S1132AD03EB7285F3F4F0FB6F8943EBF0FBE2DBFE1
S1132AE0882339F110E0212F30E0C9010296482FE4
S1132AF0440F840F482F440FFE01E20FF31F2CE113
S1132B0062818F89988D0E94D6031F5F8E89181762
S1132B1050F30FC0933069F4813059F498E088E1A0
S1132B200FB6F894A895809360000FBE9093600050
S1132B30FFCF8F89988D0E94380304C010E5C12C03
S1132B40D12CB8CEDF91CF911F910F91FF90EF90D0
S1132B50DF90CF9008958DE797E0C3D18CE793E0A1
S1132B600E942C0380E793E00E9430078EE693E0F6
S1132B70AAD285E892E00E94B7088CE692E00E940F
S1132B80630841E062E486E692E033D042E062E426
S1132B9084E692E02ED047E064E482E692E029D015
S1132BA043E062E480E692E024C0089580E692E087
S1132BB05AD082E692E057D084E692E054D086E67A
S1132BC092E051D08CE692E00E94460885E892E0BB
S1132BD00E9483088EE693E04CD280E793E00E9443
S1132BE043078CE793E00E94BB028DE797E0F5C0B2
S1132BF00895FC01418360836234A1F018F46134C8
S1132C0031F008956334C9F0643411F1089521B1A9
S1132C1081E090E002C0880F991F4A95E2F7822B69
S1132C2081B9089524B181E090E002C0880F991F12
S1132C304A95E2F7822B84B9089527B181E090E0A8
S1132C4002C0880F991F4A95E2F7822B87B908952D
S1132C502AB181E090E002C0880F991F4A95E2F7FB
S1132C60822B8AB908950895FC0190819234A9F0C9
S1132C7018F4913431F008959334D9F0943429F14F
S1132C80089522B181E090E0018002C0880F991F6D
S1132C900A94E2F7822B82B9089525B181E090E08D
S1132CA0018002C0880F991F0A94E2F7822B85B92C
S1132CB0089528B181E090E0018002C0880F991F37
S1132CC00A94E2F7822B88B908952BB181E090E051
S1132CD0018002C0880F991F0A94E2F7822B8BB9F6
S1132CE00895FC0190819234A1F018F4913431F0EC
S1132CF031C09334C9F0943411F12CC022B130E0C6
S1132D00C901018002C0959587950A94E2F7817004
S1132D10089525B130E0C901018002C095958795D9
S1132D200A94E2F78170089528B130E0C901018066
S1132D3002C0959587950A94E2F7817008952BB1A6
S1132D4030E0C901018002C0959587950A94E2F7A5
S1132D508170089582E00895FC0190819234B1F06D
S1132D6018F4913431F008959334E9F0943441F136
S1132D70089522B181E090E0018002C0880F991F7C
S1132D800A94E2F78095822382B9089525B181E0FF
S1132D9090E0018002C0880F991F0A94E2F78095A1
S1132DA0822385B9089528B181E090E0018002C0B2
S1132DB0880F991F0A94E2F78095822388B90895B1
S1132DC02BB181E090E0018002C0880F991F0A9422
S1132DD0E2F7809582238BB908950895FC01808DD4
S1132DE083FF0CC084FD0AC0228D9089291306C07C
S1132DF0218D9189291302C08061808F0895FC017F
S1132E0020899DEC299F812D112486958695869590
S1132E1030E3380F3083880F382F330F330F830F8D
S1132E20281B205D21832189299F812D11248695CA
S1132E308695869530E3380F3383880F382F330F08
S1132E40330F830F281B205D24838289899F912D52
S1132E50112496959695969520E3290F2683990F2C
S1132E60292F220F220F920F891B805D87830895DB
S1132E70FC0124899DEC299F812D1124869586953A
S1132E80869530E3380F3087880F382F330F330F90
S1132E90830F281B205D21872689299F812D1124DA
S1132EA086958695869530E3380F3387880F382FBB
S1132EB0330F330F830F281B205D24878789899F55
S1132EC0912D112496959695969520E3290F2687A2
S1132ED0990F292F220F220F920F891B805D87875C
S1132EE00895CF93DF93EC011A8A1B8A198A188AF2
S1132EF01C8A1E8A1F8A1D8A88E2898F8AE08A8F2B
S1132F001C8E1B8E1E8E1D8EFE01CE010896DC01CA
S1132F1011921D92E817F907D9F78AE38A838D8302
S1132F208EE28A878D87CE016ADFCE01A1DFDF9131
S1132F30CF910895FC012689322F3D7F343011F062
S1132F40393091F4FC0134893F31B0F131E0348BF4
S1132F502F5F2D3010F4268B2FC021E0FC01268B2F
S1132F6027892F5F278B28C02230A9F4FC012789E9
S1132F70237041F424892E31F8F021E0248B23E0DE
S1132F80268B1AC0FC0124892D31B0F021E0248B5A
S1132F9023E0268B11C0FC013489303268F031E023
S1132FA0348B2F5F2D3010F4268B06C021E0FC01FA
S1132FB0268B27892F5F278B5BCF0895CF93DF93D1
S1132FC0EC018A898C538D38C0F41A8A89898F5F01
S1132FD0898B988D9460988F8C3368F0198A8889CE
S1132FE08F5F883110F4888B06C0188A8C898F5FB4
S1132FF08C8BCE019FDFCE01F1DECE0100DF888D08
S113300085FF0BC02B8D3C8D215031093C8F2B8FBC
S1133010232B19F48F7D8160888F888D86FF05C0EE
S11330208D8D9E8D01969E8F8D8F80E0DF91CF9147
S11330300895FC0180E3808381839AE392838383F0
S11330408483958386838783108E1092B200E6EB87
S1133050F0E080818062808381E08093700085E06D
S11330608093B1000895E1EBF0E08081897F808353
S113307008950895FC01208120FF04C025B58181B5
S1133080822B85BD089585B5887F85BD08950F93EE
S11330901F93CF93DF938C01EB01F5DFBE0180E03A
S11330A090E029D19B01AC0160E074E284EF96E4E6
S11330B089D0F5D067BD16BCC801DCDFDF91CF91A4
S11330C01F910F910895CF93DF93EC0118822B98F1
S11330D0239A84B5816484BD85B5886085BD84E008
S11330E0898368EE73E0CE01D2DFCE01CCDFDF91BD
S11330F0CF9108955058BB27AA270ED0C1C18AD1B9
S113310030F08FD120F031F49F3F11F41EF45AC1F6
S11331100EF4E095E7FB50C1E92FD4D180F3BA1740
S1133120620773078407950718F071F49EF5ECC1E4
S11331300EF4E0950B2EBA2FA02D0B01B9019001CE
S11331400C01CA01A0011124FF27591B99F0593F12
S113315050F4503E68F11A16F040A22F232F342F5A
S11331604427585FF3CF469537952795A795F040A8
S11331705395C9F77EF41F16BA0B620B730B840BBD
S1133180BAF09150A1F0FF0FBB1F661F771F881F75
S1133190C2F70EC0BA0F621F731F841F48F48795CD
S11331A077956795B795F7959E3F08F0B3CF9395BC
S11331B0880F08F09927EE0F97958795089539D1D0
S11331C0E3956FC10CD05CC12CD140F023D130F019
S11331D021F45F3F19F0F0C0511197C1F3C072D1CF
S11331E098F39923C9F35523B1F3951B550BBB27CA
S11331F0AA2762177307840738F09F5F5F4F220F77
S1133200331F441FAA1FA9F333D00E2E3AF0E0E86F
S113321030D091505040E695001CCAF729D0FE2FBB
S113322027D0660F771F881FBB1F2617370748074D
S1133230AB07B0E809F0BB0B802DBF01FF27935803
S11332405F4F2AF09E3F510568F0B6C05EC15F3FF4
S1133250ECF3983EDCF3869577956795B795F795EB
S11332609F5FC9F7880F911D9695879597F90895E3
S1133270E1E0660F771F881FBB1F6217730784077F
S1133280BA0720F0621B730B840BBA0BEE1F88F78E
S1133290E095089504D06894B11137C108951AD106
S11332A088F09F5790F0B92F9927B751A0F0D1F02B
S11332B0660F771F881F991F1AF0BA95C9F712C0B5
S11332C0B13081F021D1B1E008951EC1672F782F6C
S11332D08827B85F39F0B93FCCF386957795679521
S11332E0B395D9F73EF490958095709561957F4F8D
S11332F08F4F9F4F0895E89409C097FB3EF4909533
S11333008095709561957F4F8F4F9F4F9923A9F0BA
S1133310F92F96E9BB279395F69587957795679549
S1133320B795F111F8CFFAF4BB0F11F460FF1BC08D
S11333306F5F7F4F8F4F9F4F16C0882311F096E920
S113334011C0772321F09EE8872F762F05C06623CE
S113335071F096E8862F70E060E02AF09A95660F87
S1133360771F881FDAF7880F9695879597F9089540
S1133370990F0008550FAA0BE0E8FEEF1616170682
S1133380E807F907C0F012161306E407F50798F0EA
S1133390621B730B840B950B39F40A2661F0232B03
S11333A0242B252B21F408950A2609F4A140A6957F
S11333B08FEF811D811D089597F99F6780E870E064
S11333C060E008959FEF80EC0895DF93CF931F93FF
S11333D00F93FF92EF92DF927B018C01689405C0FA
S11333E0DA2EEF01A8D0FE01E894A591259135913C
S11333F045915591AEF3EF018FDEFE019701A801CF
S1133400DA9479F7DF90EF90FF900F911F91CF91AD
S1133410DF91089500240A94161617061806090663
S1133420089500240A941216130614060506089536
S1133430C9CF50D0E8F3E894E0E0BB279F57F0F001
S11334402AED3FE049EC06C0EE0FBB0F661F771F65
S1133450881F28F0B23A62077307840728F0B25A2B
S1133460620B730B840BE3959A9572F7803830F4F2
S11334709A95BB0F661F771F881FD2F79048BAC072
S1133480092E0394000C11F4882352F0BB0F40F46E
S1133490BF2B11F460FF04C06F5F7F4F8F4F9F4FAE
S11334A00895EF93E0FF06C0A2EA2AED3FE049EC5D
S11334B05FEB32DEE5DF0F90039401FC9058EEECF5
S11334C0F0E0A4C057FD9058440F551F59F05F3FDA
S11334D071F04795880F97FB991F61F09F3F79F032
S11334E087950895121613061406551FF2CF4695B4
S11334F0F1DF08C0161617061806991FF1CF869536
S11335007105610508940895E894BB276627772719
S1133510CB0197F908952CDF08F48FEF08950BD0B1
S1133520AFCF78DF28F07DDF18F0952309F044CF82
S113353049CF1124EACFC6DFA0F3959FD1F3950FAD
S113354050E0551F629FF001729FBB27F00DB11D23
S1133550639FAA27F00DB11DAA1F649F6627B00DB3
S1133560A11D661F829F2227B00DA11D621F739F9C
S1133570B00DA11D621F839FA00D611D221F749FAA
S11335803327A00D611D231F849F600D211D822FF1
S1133590762F6A2F11249F5750408AF0E1F0882338
S11335A04AF0EE0FFF1FBB1F661F771F881F915045
S11335B05040A9F79E3F510570F0FECEA6CF5F3F65
S11335C0ECF3983EDCF3869577956795B795F79578
S11335D0E7959F5FC1F7FE2B880F911D9695879500
S11335E097F908959F9325DF0F9007FCEE5F59CF5D
S11335F09F3F31F0915020F4879577956795B79563
S1133600880F911D9695879597F908959F938F93A9
S11336107F936F93FF93EF939B01AC0180DFEF9156
S1133620FF91D3DE2F913F914F915F9178CF2F92ED
S11336303F924F925F926F927F928F929F92AF923E
S1133640BF92CF92DF92EF92FF920F931F93CF938B
S1133650DF93CDB7DEB763970FB6F894DEBF0FBE26
S1133660CDBF6C014B012A01FC01178216828381B4
S113367081FF29C3AE014F5F5F4F3A01F601938189
S1133680F40193FD859193FF81914F01882309F4FF
S113369016C3853239F493FD859193FF81914F01CF
S11336A0853231F4B60190E06ED552012501E6CFA2
S11336B010E0F12C20E02032A0F48B3269F030F4D9
S11336C0803259F0833269F420612CC08D3239F094
S11336D0803339F4216026C02260246023C028602E
S11336E021C027FD27C030ED380F3A3078F426FF8B
S11336F006C0FAE01F9F300D1124132F13C04AE0B7
S1133700F49E300D1124F32E20620CC08E3221F46D
S113371026FDD5C2206406C08C3611F4206802C090
S1133720883641F4F40193FD859193FF81914F0113
S11337308111C1CF9BEB980F933018F42061805E08
S113374006C09BE9980F933008F064C12F7E26FFD2
S113375016E02F73322E853619F42064322E08C0F9
S1133760863621F4F22FF0683F2E02C01111115059
S113377037FE07C01C3350F4EE24E394E10E27E037
S11337800BC0183038F027E017E005C027E04CE301
S1133790E42E02C0212FE12C520144E0A40EB11CFE
S11337A0F20160817181828193810E2DA301FDD389
S11337B02C01098100FF02C003FF07C031FC08C0CF
S11337C032FE09C030E2232E07C02DE2222E04C0AF
S11337D09BE2292E01C0212C802F8C7019F021101E
S11337E051C28DC237FE0FC0E40C04FF04C08A81AD
S11337F0813309F4EA941E1474F5F8E0FE1578F5A3
S113380088E0E82E2CC036FC2AC0812F90E0841575
S113381095059CF02CEF42162FEF520674F0432DC1
S11338204068342E0AC0E2E0F0E0EC0FFD1FE10F27
S1133830F11D8081803319F411501111F4CF37FE3A
S11338400EC0EE24E394E10E812F90E04816590651
S11338502CF4141904C0EE24E39401C010E037FEE4
S113386006C01414150434F4C201019605C085E0A1
S113387090E002C081E090E021100196112331F024
S1133880212F30E02F5F3F4F820F931F2F2D30E009
S11338908217930714F4F81A01C0F12C832D897050
S11338A041F4FF2031F0B60180E290E06CD4FA9448
S11338B0F8CF222021F0B601822D90E064D433FCAD
S11338C008C0FF2031F0B60180E390E05CD4FA94A4
S11338D0F8CF37FE58C0942D852D57FE02C090E0D6
S11338E080E0292E382E20E030E0A2014E19510943
S11338F05D874C87A201421953095F874E87612F68
S113390070E044275527461B570B598B488B5FEFB4
S11339102516350641F4B6018EE290E02A8B3B8BE6
S113392032D43B892A89421453046CF04C855D855A
S11339304215530544F4EE85FF85E20FF31FE60DAF
S1133940F71D818101C080E351E0251A31082F5F02
S11339503F4F488959892416350644F0B60190E052
S11339602A8B3B8B10D42A893B89D1CF241435046C
S113397039F49A81963318F4953311F404FF81E3F2
S1133980B60190E045C08A81813309F00F7EB6010B
S113399090E0F9D3111105C034FC16C085E690E01F
S11339A015C0B6018EE290E0EED382E0EE24E394FB
S11339B0E80EF301E80FF11D8081B60190E0E3D336
S11339C011508E2D99F7E8CF85E490E0B601DBD352
S11339D057FC05C04114510439F404FF05C0519447
S11339E0419451088DE201C08BE2B60190E0CBD343
S11339F080E39AE0491651042CF08F5F5AE0451A8F
S1133A005108F7CFB60190E0BED3B601C201C0960B
S1133A10BAD34CC1833631F0833779F0833509F05A
S1133A2054C020C05201E2E0AE0EB11CF20180810C
S1133A30898301E010E0230113C05201F2E0AF0ECC
S1133A40B11CF2014080518026FF03C0612F70E059
S1133A5002C06FEF7FEFC2012A8B8AD38C012A89BF
S1133A602F7714C05201F2E0AF0EB11CF201408076
S1133A70518026FF03C0612F70E002C06FEF7FEF1B
S1133A80C2012A8B6AD38C012A892068322E23FD35
S1133A9018C08F2D90E00817190798F4B60180E23A
S1133AA090E071D3FA94F5CFF20137FC859137FE9B
S1133AB081912F01B60190E066D3F110FA94015080
S1133AC011090115110581F7F1C0843611F0893609
S1133AD051F5520127FF09C0F4E0AF0EB11CF20109
S1133AE060817181828193810AC0F2E0AF0EB11CC2
S1133AF0F20160817181072E000C880B990B2F76DF
S1133B00322E97FF09C090958095709561957F4FEF
S1133B108F4F9F4F2068322E2AE030E0A3019AD3C2
S1133B20E82EE6183EC0022F853721F40F7E2AE0E6
S1133B3030E01DC0097F8F3691F018F4883559F0B4
S1133B40BEC0803719F0883711F0B9C0006104FF96
S1133B5009C0046007C024FF08C0066006C028E04E
S1133B6030E005C020E130E002C020E132E0520143
S1133B7007FF09C0F4E0AF0EB11CF201608171814E
S1133B808281938108C0F2E0AF0EB11CF201608122
S1133B90718180E090E0A3015DD3E82EE6180F77F1
S1133BA0302E36FE0BC0332D3E7FE11650F434FE2A
S1133BB00AC032FC08C0332D3E7E05C00E2D332DC5
S1133BC003C00E2D01C0012F34FF0CC0FE01EE0D09
S1133BD0F11D8081803311F4397E08C032FF05C0A5
S1133BE00E5F04C0832F867809F00F5F33FD12C087
S1133BF030FF06C01E2D0F1518F41F0D101B0F2DBE
S1133C000F1560F4B60180E290E03B8BBCD20F5FED
S1133C103B89F6CF0F1510F4F01A01C0F12C34FFD4
S1133C2011C0B60180E390E03B8BADD23B8932FFFB
S1133C3016C031FD03C088E790E002C088E590E03B
S1133C40B6010CC0832F867851F031FF02C08BE29D
S1133C5001C080E237FD8DE2B60190E094D2E11616
S1133C6030F4B60180E390E08ED21150F8CFEA949C
S1133C70F301EE0DF11D8081B60190E084D2E110D4
S1133C80F6CF14C0F4E0FF1548F584E0F81A33FECB
S1133C901DC0211024C003FF27C002E014E0F32D4F
S1133CA0F0713F2EF8018491811121C0FF2009F4A5
S1133CB0FDCCB60180E290E066D2FA94F7CFF6012B
S1133CC08681978123C08FEF9FEF20C0B60180E2E9
S1133CD090E059D2FA94F110F9CFDBCFF12CB60170
S1133CE0822D90E050D2D7CF06E014E0D8CF311027
S1133CF08052B60190E047D20F5F1F4FD3CF23E02D
S1133D002F1510F483E0C2CFF12CC5CF63960FB604
S1133D10F894DEBF0FBECDBFDF91CF911F910F91FD
S1133D20FF90EF90DF90CF90BF90AF909F908F90D7
S1133D307F906F905F904F903F902F900895EE0F7B
S1133D40FF1F0024001C0BBE0790F691E02D099480
S1133D50CF93DF938230910510F482E090E0E091FC
S1133D609E07F0919F0720E030E0C0E0D0E030975C
S1133D7011F14081518148175907C0F0481759077C
S1133D8061F482819381209719F09B838A832BC0ED
S1133D9090939F0780939E0726C02115310519F043
S1133DA04217530718F49A01BE01DF01EF010280A4
S1133DB0F381E02DDCCF2115310509F1281B390BE6
S1133DC02430310590F412968D919C9113976115CE
S1133DD0710521F0FB019383828304C090939F07B4
S1133DE080939E07FD01329644C0FD01E20FF31F4C
S1133DF081939193225031092D933C933AC02091A1
S1133E009C0730919D07232B41F4209102013091AE
S1133E10030130939D0720939C072091000130916A
S1133E2001012115310541F42DB73EB7409104013C
S1133E3050910501241B350BE0919C07F0919D07DF
S1133E40E217F307A0F42E1B3F0B2817390778F06D
S1133E50AC014E5F5F4F2417350748F04E0F5F1FCC
S1133E6050939D0740939C078193919302C0E0E097
S1133E70F0E0CF01DF91CF9108950F931F93CF937B
S1133E80DF93009709F48CC0FC01329713821282ED
S1133E9000919E0710919F070115110581F420815F
S1133EA03181820F931F20919C0730919D07281721
S1133EB0390779F5F0939D07E0939C0771C0D80109
S1133EC040E050E0AE17BF0750F412962D913C919C
S1133ED01397AD012115310509F1D901F3CF9D01E6
S1133EE0DA013383228360817181860F971F8217E1
S1133EF0930769F4EC0128813981260F371F2E5F5F
S1133F003F4F318320838A819B8193838283452B16
S1133F1029F4F0939F07E0939E0742C01396FC9305
S1133F20EE931297ED01499159919E01240F351F8B
S1133F30E217F30771F480819181840F951F029633
S1133F4011969C938E938281938113969C938E9366
S1133F501297E0E0F0E0D80112968D919C911397AE
S1133F60009719F0F8018C01F6CF8D919C9198017E
S1133F702E5F3F4F820F931F20919C0730919D0726
S1133F802817390769F4309729F410929F07109283
S1133F909E0702C01382128210939D0700939C0710
S1133FA0DF91CF911F910F910895283008F027E0F9
S1133FB03327DA01990F311D87FD91600096610561
S1133FC0710539F432602E5F3D9330E32A95E1F7B1
S1133FD008959F3F30F080387105610509F03C5F1A
S1133FE03C5F3D93913008F08068911DDF93CF933F
S1133FF01F930F93FF92EF92192F987F9695E92FB5
S113400096959695E90FFF27EC59FB4F992733278F
S1134010EE24FF24A701E70105900894079428F4EF
S1134020360FE71EF81E491F511D660F771F881FA4
S1134030991F0694A1F70590079428F4E70EF81E3B
S1134040491F561FC11D770F881F991F661F0694AD
S1134050A1F70590079428F4F80E491F561FC71FAF
S1134060D11D880F991F661F771F0694A1F705902D
S1134070079420F4490F561FC71FD81F990F661FB6
S1134080771F881F0694A9F784911095177041F043
S1134090D695C79557954795F794E7941A95C1F720
S11340A0EAE0F4E068941590159135916591959145
S11340B005907FE27395E118F10A430B560BC90B87
S11340C0D009C0F7E10CF11E431F561FC91FD01DB4
S11340D07EF4703311F48A95E6CFE894015030F001
S11340E0080F0AF40027021708F4202F2395022F43
S11340F07A3328F079E37D932A95E9F710C07D930C
S11341002A9589F606949795679537951795179488
S1134110E118F10A430B560BC90BD00998F023950B
S11341207E9173957A3308F070E37C932013B8F78B
S11341307E9170617D9330F0839571E37D9370E39C
S11341402A95E1F71124EF90FF900F911F91CF91E1
S1134150DF91992787FD90950895FC0105906150A2
S113416070400110D8F7809590958E0F9F1F089589
S1134170FC016150704001900110D8F78095909532
S11341808E0F9F1F08950F931F93CF93DF93FB010F
S1134190238121FD03C08FEF9FEF28C022FF16C0AB
S11341A046815781248135814217530744F4A08105
S11341B0B1819D012F5F3F4F318320838C932681F2
S11341C037812F5F3F4F3783268310C0EB01092FC0
S11341D0182F0084F185E02D0995892BE1F68E8155
S11341E09F8101969F838E83812F902FDF91CF91A2
S11341F01F910F9108950F931F93CF93DF93CDB722
S1134200DEB72E970FB6F894DEBF0FBECDBF0D8973
S11342101E8986E08C831A8309838FEF9FE79E8330
S11342208D83AE01475E5F4F6F89788DCE01019615
S1134230FED92F813885F801E20FF31F10822E96E4
S11342400FB6F894DEBF0FBECDBFDF91CF911F91A3
S11342500F910895FA01AA27283051F1203181F1F4
S1134260E8946F936E7F6E5F7F4F8F4F9F4FAF4F7A
S1134270B1E03ED0B4E03CD0670F781F891F9A1F8D
S1134280A11D680F791F8A1F911DA11D6A0F711D41
S1134290811D911DA11D20D009F468943F912AE04D
S11342A0269F11243019305D3193DEF6CF01089535
S11342B0462F4770405D4193B3E00FD0C9F7F6CF66
S11342C0462F4F70405D4A3318F0495D31FD40522E
S11342D0419302D0A9F7EACFB4E0A69597958795C4
S11342E077956795BA95C9F70097610571050895A3
S11342F09B01AC010A2E069457954795379527954F
S1134300BA95C9F7620F731F841F951FA01D0895E6
S113431012E0C3E8D2E003C0FE0111DD2196C438E7
S10B4320D107D1F7F894FFCF97
S11343280000A0072000466168726164636F6D70C5
S113433875746572002D2D2D2D2D2D2D2D2D2D2DC2
S11343482D2D2D0056657273696F6E3A20252E3215
S113435866004261742E3A20256925250025332EEE
S1134368316600252E33666B6D00252E31666B6D24
S11343782F6800256C757300546163686F0053657A
S11343887474696E67730055687265696E737465D1
S11343986C6C756E67005374756E64656E20666127
S11343A86C736368004D696E7574656E2066616C24
S11343B8736368005461672066616C736368004DB9
S11343C86F6E61742066616C736368004A61687219
S11343D82066616C736368004261743A202569251C
S11343E825005A6569742065696E7374656C6C651B
S11343F86E00672062657374696D6D656E0056653D
S11344087273696F6E736E756D6D657200736F6626
S11344187420526573657400476572616574206E13
S113442869636874206265776567656E002A20662B
S1134438756572207374617274004E6F6368202509
S1134448692053656B756E64656E0000000000F7A3
S113445808130C00000000190D260A0000000005CE
S10F446809021400000000F5082B0900F4
S9030000FC
