S0100000465743505F4D4B332E73726563BA
S1130000C9C20000FDC20000FBC20000F9C200002A
S1130010F7C20000F5C20000F3C20000F1C2000004
S1130020EFC20000EDC20000EBC200000C943D0FD3
S1130030E7C200000C94590FE3C20000E1C20000C3
S1130040DFC20000DDC20000DBC20000D9C2000034
S11300500C946A0FD5C20000D3C20000D1C20000C4
S1130060CFC20000CDC20000CBC20000C9C2000054
S1130070C7C20000C5C20000C3C20000C1C2000064
S1130080BFC20000BDC20000BBC200007B087D08E7
S11300907D087D087D087D087D0879087D087D0838
S11300A07D087D087D0880087F0869086B086D0855
S11300B06F087108730875087708371247124712DA
S11300C04712471247124712471247124712471264
S11300D04712471247124712471247124712471254
S11300E04712471247124712471247124712471244
S11300F04712471247124712471247124712471234
S11301004712471247124712471247124712471223
S11301104712471247124712471247124712471213
S11301204712131247124712471247124712471237
S11301304712E011DC114712001247124712ED1169
S1130140471247122812A617CC17F3171B18421888
S11301506C189518BF183619601905A84CCDB2D47F
S11301604EB93836A9020C50B9918688083CA6AA23
S1130170AA2ABE000000803F00E0F8FCFE1E07072C
S113018007071EFEFCF8F00000070F3F3F7C70706D
S113019070707C3F1F1F0700000000060707FFFF69
S11301A0FFFF0000000000000000000000007F7F4F
S11301B07F7F00000000000000383C3E3E0F070730
S11301C007CFFFFEFE3800000040406070787C7E60
S11301D07F7773717070000000181C1E1E0FC7C754
S11301E0E7FFFEBE9C000000000C1C3C3C787070D5
S11301F070797F3F1F0F0000000080C0E070381C42
S11302001EFFFFFFFF00000006070707060606069D
S1130210067F7F7F7F06060000000000F0FFFFFFDF
S1130220E7E7E7E7C787000000003878717070706F
S11302307070393F3F1F0F000080E0F0F8FC7F7FB3
S11302406F67E1E1C0800000000F1F3F3F787070CE
S11302507070783F3F1F0F00000707070707C7E7C5
S1130260F7FF7F3F1F0703010020387C7E3F0F0705
S113027003000000000000000000001CBEFEFFE7B9
S1130280C3C3E7FFFEBE1C0000000E3F3F7F71604A
S11302906060717F3F3F0F000078FCFEFE8F070710
S11302A007078FFEFEFCF800000000014343737B48
S11302B07F7F1F0F0703000000005F00000007009E
S11302C00700147F147F14242A7F2A12231308643E
S11302D06236495522500005030000001C224100EB
S11302E00041221C0014083E081408083E080800B7
S11302F05030000008080808080060600000201062
S11303000804023E5149453E00427F40004261518B
S113031049462141454B311814127F102745454564
S1130320393C4A494930017109050336494949367E
S1130330064949291E0036360000005636000008DA
S1130340142241001414141414004122140802014C
S1130350510906324979413E7E1111117E7F494986
S113036049363E414141227F4141221C7F4949494E
S1130370417F090909013E4149497A7F0808087FFC
S113038000417F41002040413F017F081422417F0A
S1130390404040407F020C027F7F0408107F3E41B2
S11303A041413E7F090909063E4151215E7F0919F9
S11303B02946464949493101017F01013F404040F6
S11303C03F1F2040201F3F4038403F631408146300
S11303D007087008076151494543007F4141000205
S11303E0040810200041417F00040201020440403F
S11303F0404040000102040020545454787F484493
S113040044383844444420384444487F385454548D
S113041018087E0901020C5252523E7F08040478E7
S113042000447D40002040443D007F1028440000EB
S1130430417F40007C041804787C08040478384424
S11304404444387C14141408081414187C7C0804DC
S113045004084854545420043F4440203C40402065
S11304607C1C2040201C3C4030403C442810284444
S11304700C5050503C4464544C4400083641000035
S1130480007F0000004136080010080810086E6163
S11304906E00696E660000407A10F35A00A0724E36
S11304A018090010A5D4E80000E87648170000E415
S11304B00B54020000CA9A3B000000E1F50500005D
S11304C080969800000040420F000000A0860100C2
S11304D00000102700000000E80300000000640092
S11304E0000000000A0000000000010000000000FD
S11304F02C76D888DC674F0823DFC1DFAE59E1B121
S1130500B796E5E3E453C63AE651997696E8E6C22F
S11305108426EB898C9B62ED407C6FFCEFBC9C9F36
S113052040F2BAA56FA5F490055A2AF75C936B6C58
S1130530F9676DC11BFCE0E40D47FEF520E6B5004C
S1130540D0ED902E0300943577050080841E0800BA
S113055000204E0A000000C80C333333330F986E6A
S113056012831141EF8D2114893BE65516CFFEE627
S1130570DB18D1844B381BF77C1D901DA4BBE424ED
S1130580203284725E228100C9F124ECA1E53D276A
S1130590D01BF71B11241FBECFEFD0E4DEBFCDBFAD
S11305A014BE0FB6F894A89580916000886180937A
S11305B06000109260000FBE12E0A0E0B1E0E6EA35
S11305C0FFE400E00BBF02C007900D92A83CB10706
S11305D0D9F728E0A8ECB2E001C01D92AF35B2070C
S11305E0E1F712E0C9ECD2E004C02197FE010E94B9
S11305F0DE24C83CD107C9F70E941A150C94C727FA
S1130600FFCC9C5F5AC40895FC019C5F1192E817CB
S1130610F907E1F708951F93CF93DF93162FEC01A9
S1130620DC5FCE014BD468E7CE0150D460E0CE014C
S11306304DD4612FCE014AD4CE0144D4DF91CF9161
S11306401F910895CF93DF93EC016EEAE4DF65ED2B
S1130650CE01E1DF60E8CE01DEDF68EACE01DBDF58
S11306606FE3CE01D8DF63EDCE01D5DF60E0CE01CC
S1130670D2DF60E4CE01CFDF6DE8CE01CCDF64E1F0
S1130680CE01C9DF60E2CE01C6DF60E0CE01C3DF88
S113069061EACE01C0DF68ECCE01BDDF6AEDCE01B8
S11306A0BADF62E1CE01B7DF61E8CE01B4DF6FECFF
S11306B0CE01B1DF69EDCE01AEDF61EFCE01ABDF7C
S11306C06BEDCE01A8DF60E4CE01A5DF64EACE01C4
S11306D0A2DF66EACE019FDF6FEACE019CDFDF91E5
S11306E0CF910895CF93DF93EC019C5FE2D3CE01C9
S11306F0A9DFCE0189DFDF91CF910895EF92FF92B8
S11307000F931F93CF93DF93EC0161E284DF60E0EA
S1130710CE0181DF6FE7CE017EDF62E2CE017BDFB7
S113072060E0CE0178DF67E0CE0175DF8E011C5FEB
S1130730C801C4D368E7C801C9D360E4C801C6D3FB
S113074078016991C801C2D3CE15DF05D1F7C8017C
S1130750B9D3DF91CF911F910F91FF90EF9008953E
S11307606623ACF1403498F5211119C0242F269545
S11307702695269550E8259F90011124260F311DBA
S1130780FC01E20FF31F477081E090E002C0880F84
S1130790991F4A95E2F79081892B80830895242F2D
S11307A026952695269530E8239FF0011124E60F1F
S11307B0F11DE80FF91F477081E090E002C0880F37
S11307C0991F4A95E2F78095908189238083089543
S11307D0FF920F931F93CF93DF93222369F0C42FCB
S11307E0F62E8C01D22FD40F20E04C2F6F2DC80190
S11307F0B7DFCF5FCD13F8CFDF91CF911F910F916A
S1130800FF900895FF920F931F93CF93DF932223BA
S113081069F0F42EC62F8C01D22FD60F20E04F2D75
S11308206C2FC8019DDFCF5FCD13F8CFDF91CF913F
S11308301F910F91FF9008950F931F93CF93DF9310
S1130840613208F43EC0A42FB0E0022F069506954D
S1130850069530E8039F80011124615270E0FB018A
S1130860EE0FFF1FEE0FFF1FE60FF71FE854FD4FBB
S1130870AD01400F511FEC01C40FD51F00581F4F8D
S1130880A00FB11FA80FB91F4B5F5F4F480F591F2F
S11308902770649170E0022E02C0660F771F0A94DD
S11308A0E2F79881962B9993672F77276115710545
S11308B019F08C91682B6C9331961196C417D50757
S11308C041F7DF91CF911F910F910895CF92DF925D
S11308D0EF92FF920F931F93CF93DF936A3008F048
S11308E066C050E0022F06950695069510E0D801E3
S11308F0B695BA2FAA27B795A7950F5F1F4F1695E0
S1130900102F0027179507957D0130E8E30EF11CA1
S1130910E40EF51EE80EF91EEA01C00FD11F609720
S1130920C80FD91F040F151F00591F4F080F191F97
S1130930A40FB51FA80FB91F80E2689FB00111244E
S113094040E050E02770FA01E60FF71FE858FE4F29
S1130950E491F0E0022E02C0EE0FFF1F0A94E2F7CA
S1130960403168F48C918E2B8C93CF2EDD24C114EE
S1130970D10489F0F70180818C2980830CC088819F
S11309808E2B8883CF2EDD24C114D10421F0F801ED
S113099080818C2980834F5F5F4FFFEFEF1AFF0A3E
S11309A021960F5F1F4F11964032510561F6DF917A
S11309B0CF911F910F91FF90EF90DF90CF9008950A
S11309C02F923F924F925F926F927F928F929F925B
S11309D0AF92BF92CF92DF92EF92FF920F931F9349
S11309E0CF93DF93CDB7DEB727970FB6F894DEBF6A
S11309F00FBECDBF9F838E836D83342E002309F4F5
S1130A0026C1622F70E080E090E00E949A1F20E0EF
S1130A1030E040EC50E40E94AC202BED3FE049E490
S1130A2050E40E94AC2020E030E044E353E40E9410
S1130A30FF1E2BED3FE049EC5FE30E94971E6B0124
S1130A407C010E94FC1E4B015C01C701B6010E949F
S1130A500F212B013C0100E010E0B801012E000C35
S1130A60880B990B0E949A1F6B017C01A3019201D0
S1130A700E94AC2020E030E048EF51E40E94981E30
S1130A800E946C1F262EA5019401C701B6010E9485
S1130A90AC2020E030E048EF51E40E94981E0E9410
S1130AA06C1F20E0422D8E819F815ADE0F5F1F4F05
S1130AB00931110591F6632D70E080E090E00E9409
S1130AC09A1F69837A838B839C8320E030E040EC17
S1130AD050E40E94AC202BED3FE049E450E40E9436
S1130AE0AC2020E030E044E353E40E94FF1E2BEDF1
S1130AF03FE049EC5FE30E94971E6B017C010E947A
S1130B00FC1E2B013C01C701B6010E940F214B01C1
S1130B105C0100E010E0B801012E000C880B990B79
S1130B200E949A1F6B017C01A50194010E94AC20D4
S1130B3020E030E048EF51E40E94981E0E946C1FB0
S1130B40362EA3019201C701B6010E94AC2020E019
S1130B5030E048EF51E40E94981E0E946C1F20E090
S1130B60432D8E819F81FCDD0F5F1F4F05311105E1
S1130B7091F62D81622F70E080E090E00E949A1F30
S1130B8020E030E040EF51E40E94AC206B017C0196
S1130B9020E030E040E05FE369817A818B819C81D1
S1130BA00E94AC209B01AC01C701B6010E94981EB3
S1130BB02BED3FE049E450E40E94AC2020E030E01B
S1130BC044E353E40E94FF1E2BED3FE049EC5FE356
S1130BD00E94971E6B017C010E94FC1E4B015C016C
S1130BE0C701B6010E940F212B013C0100E010E077
S1130BF0B801012E000C880B990B0E949A1F6B01FF
S1130C007C01A30192010E94AC2020E030E048EF77
S1130C1051E40E94981E0E946C1F362EA501940177
S1130C20C701B6010E94AC2020E030E048EF51E457
S1130C300E94981E0E946C1F20E0432D8E819F818C
S1130C408FDD0F5F1F4F0D30110591F6CBC0642F60
S1130C5070E080E090E00E949A1F69837A838B831E
S1130C609C8320E030E040EC50E40E94AC202BED6B
S1130C703FE049E450E40E94AC2020E030E044E34B
S1130C8053E40E94FF1E2BED3FE049EC5FE30E941A
S1130C90971E6B017C010E94FC1E2B013C01C701C5
S1130CA0B6010E940F214B015C0100E010E0B80185
S1130CB0012E000C880B990B0E949A1F6B017C017A
S1130CC0A50194010E94AC2020E030E048EF51E4FB
S1130CD00E94981E0E946C1F362EA3019201C70128
S1130CE0B6010E94AC2020E030E048EF51E40E94BD
S1130CF0981E0E946C1F20E0432D8E819F8130DD61
S1130D000F5F1F4F0931110591F6ED816E2F70E0D1
S1130D1080E090E00E949A1F20E030E040EF51E430
S1130D200E94AC206B017C0120E030E040E05FE3F6
S1130D3069817A818B819C810E94AC209B01AC01EA
S1130D40C701B6010E94981E2BED3FE049E450E430
S1130D500E94AC2020E030E044E353E40E94FF1EF4
S1130D602BED3FE049EC5FE30E94971E6B017C0191
S1130D700E94FC1E4B015C01C701B6010E940F21B9
S1130D802B013C0100E010E0B801012E000C880B9F
S1130D90990B0E949A1F6B017C01A30192010E948E
S1130DA0AC2020E030E048EF51E40E94981E0E94FD
S1130DB06C1F362EA5019401C701B6010E94AC2018
S1130DC020E030E048EF51E40E94981E0E946C1F1E
S1130DD020E0432D8E819F81C3DC0F5F1F4F0131C3
S1130DE0110591F620E04AE161E38E819F8124DDC3
S1130DF020E040E262E38E819F811EDD2CE14AE324
S1130E0063E38E819F8118DD28E34DE166E38E81E3
S1130E109F8112DD2CE140E069E38E819F810CDD2E
S1130E2020E048E06CE28E819F819ADC20E042E180
S1130E3065E38E819F8194DC20E04CE265E38E8142
S1130E409F818EDC20E045E36BE28E819F8188DC0C
S1130E5020E045E361E18E819F8182DC20E04CE269
S1130E6068E08E819F817CDC20E041E168E08E8136
S1130E709F8176DC20E048E062E18E819F8170DC16
S1130E8027960FB6F894DEBF0FBECDBFDF91CF918A
S1130E901F910F91FF90EF90DF90CF90BF90AF9094
S1130EA09F908F907F906F905F904F903F902F9086
S1130EB0089582E08093B8000895089584EA8093A9
S1130EC0BC00089584E98093BC000895ECEBF0E045
S1130ED080818823ECF76093BB0084E88093BC0096
S1130EE0ECEBF0E080818823ECF708952AB12066CA
S1130EF02AB928B1237F28B927B12C6027B92AB190
S1130F00237E2AB9FC010C961192E817F907E1F740
S1130F1008950895FB01808190E0042E02C0959508
S1130F2087950A94E2F780FF05C081E0F901808388
S1130F3080E00895F9018081813071F4FB016081C2
S1130F4070E0FB0102C0F595E7954A95E2F7E0FDF4
S1130F5003C0F90110820895F901108280E0089518
S1130F601F93CF93DF93EC01439A82E08A95F1F7C4
S1130F7000C09E012E5F3F4F44E069E270E0CE0165
S1130F80C9DF811114C09E012F5F3F4F43E069E226
S1130F9070E0CE01BFDF81110CC09E0142E069E226
S1130FA070E0CE01B7DF882331F011E305C013E30D
S1130FB003C012E301C010E24398429A82E08A958A
S1130FC0F1F700C09E012B5F3F4F44E069E270E0FF
S1130FD0CE01A0DF811116C09E012C5F3F4F43E07C
S1130FE069E270E0CE0196DF81110EC09E012D5F93
S1130FF03F4F42E069E270E0CE018CDF882329F0A4
S113100014E303C016E301C015E342985E9A82E03C
S11310108A95F1F700C09E01285F3F4F44E069E2E2
S113102070E0CE0177DF811116C09E01295F3F4F2A
S113103043E069E270E0CE016DDF81110EC09E01D4
S11310402A5F3F4F42E069E270E0CE0163DF88230C
S113105029F017E303C019E301C018E35E985D9A11
S113106082E08A95F1F700C09E01255F3F4F44E07E
S113107069E270E0CE014EDF811116C09E01265F49
S11310803F4F43E069E270E0CE0144DF81110EC0BE
S11310909E01275F3F4F42E069E270E0CE013ADFF4
S11310A0882329F01AE203C013E201C010E35D981B
S11310B0812FDF91CF911F91089552DF482F50E087
S11310C0FA01B397E731F105C0F4EA5BFF4F0C94E2
S11310D0DE2485E7089581E408958CE608958FE67B
S11310E0089582E7089589E5089584E6089588E5DA
S11310F0089585E608958DE6089580E2089582E4D2
S11311000895CF93DF93EC01CE012ADF80538A3018
S1131110D8F7DF91CF9108954696CFCE08950F93D7
S11311201F93CF93DF93062F142FEC016696CE0105
S1131130C5DE6AE3CE01CADE602FCE01C7DE612FB1
S1131140CE01C4DECE01BEDEDF91CF911F910F919F
S1131150089540E06EE2E3CF0895CF93DF93EC016E
S113116047E460E2DCDF40E061E2CE01D8DF40E842
S113117064E2CE01D4DFCE01ECDFDF91CF9108959C
S1131180CF93DF93EC01469694DE1F821E8218866D
S113119019861A861B861C861D861E861F86198A3A
S11311A0188A1A8A1B8A1C8A1D8ADE01A152BF4F23
S11311B01D921D921D921C921397FE01ED51FF4F3B
S11311C0108211821282138234968BE190E0918313
S11311D08083198218821B821A821D821C82E05D20
S11311E0F1099D011192119211921192E217F307E4
S11311F0C9F7CE01B2DFDF91CF91089580E0089561
S1131200FC01DB019C91953639F481A5813011F400
S113121011A602C081E081A780E0089580E00895CE
S113122080E00895CF93DF93EC018F89988DECD9FA
S11312308F89988D63DADF91CF910895EF92FF92B1
S11312400F931F93CF93DF93EC018F89988DDCD993
S11312507E0122E0E20EF11C8FE0E6E0F1E0D7012E
S113126001900D928A95E1F78EE08E8B00E010E0FC
S1131270FE01E10FF11D20E0402F62818F89988DDE
S1131280DBDA1F5F0A5F8E89181790F38FE0E5E1C0
S1131290F1E0D70101900D928A95E1F78EE08E8BF3
S11312A000E010E0FE01E10FF11D28E0402F628113
S11312B08F89988DC1DA1F5F0A5F8E89181790F3A2
S11312C080E48F9381E48F9387E48F938EEA8F93E6
S11312D084E291E09F938F93FF92EF920E943A27CA
S11312E08E8B2DB73EB7285F3F4F0FB6F8943EBFA5
S11312F00FBE2DBF882381F000E010E0FE01E10F56
S1131300F11D20E2402F62818F89988D95DA1F5F4D
S11313100A5F8E89181790F38F89988DEFD9DF9122
S1131320CF911F910F91FF90EF900895ECE7F0E0BB
S113133090818F71907E892B8083EAE7F0E0808131
S113134080648083808186FDFDCF809178009091B8
S113135079000895CF92DF92EF92FF9280E0E6DF6A
S1131360BC0180E090E00E94981F20E030EC4FE741
S113137054E40E94FF1E2CE53FE842E550E40E943D
S1131380AC202DE031E740E050E40E94AC206093B3
S1131390400370934103809342039093430326E6F2
S11313A036E646E650E40E94971E28E939E949E109
S11313B05FE30E94FF1E20E030E048EC52E40E940C
S11313C0AC206B017C0120E030E040E251E40E945B
S11313D0AC200E946C1F8DEC689F812D1124869592
S11313E086958695880F282F220F220F820F962F1D
S11313F0981B953070F0C701B6010E946C1F70E015
S11314006F5F7F4F072E000C880B990B0E949A1F69
S113141009C0C701B6010E946C1F70E080E090E033
S11314200E94981F0E94671F862FFF90EF90DF9005
S1131430CF900895CF92DF92EF92FF920F931F9374
S1131440CF93DF93EC018F89988DDED810E0E12CE7
S1131450F12CE98DFA8DEE0DFF1D20E0412F608106
S11314608F89988DE9D98FEFE81AF80A1A5F10333B
S113147081F770DF7E0192E0E90EF11C282F082E1F
S1131480000C330B3F938F9382E391E09F938F93F0
S1131490FF92EF920E943A278E8B15E1181B0F9052
S11314A00F900F900F900F900F90153108F0B6C069
S11314B0012F000F010F000F8E89FE01E10FF11DB6
S11314C0E80FF11D739720E0402F60818F89988D7C
S11314D0B3D91F5F0A5F153179F7A0C0E98DFA8D82
S11314E0EC0DFD1D28E3412F60858F89988DA4D9CB
S11314F08FEFC81AD80A1A5F103881F785E598E685
S1131500A2E7B0E08A839B83AC83BD8383E08E8BA8
S11315100CE010E0FE01E10FF11D20E1402F62819B
S11315208F89988D89D91F5F0A5F8E89181790F368
S113153086E0ECE3F1E0D70101900D928A95E1F7A2
S113154085E08E8B0CE010E0FE01E10FF11D28E137
S1131550402F62818F89988D6FD91F5F0A5F8E89B2
S1131560181790F388E0E2E4F1E0D70101900D92BE
S11315708A95E1F787E08E8B0CE010E0FE01E10F25
S1131580F11D20E2402F62818F89988D55D91F5F0C
S11315900A5F8E89181790F38EE0EAE4F1E0D70130
S11315A001900D928A95E1F78DE08E8B0CE010E0AE
S11315B0FE01E10FF11D28E2402F62818F89988D91
S11315C03BD91F5F0A5F8E89181790F38CE0E8E51A
S11315D0F1E0D70101900D928A95E1F78BE08E8BB3
S11315E00CE010E0FE01E10FF11D20E3402F6281C9
S11315F08F89988D21D91F5F0A5F8E89181790F300
S11316002DA1220F220F220F205F40E06EE38F896D
S1131610988D12D98F89988D71D804C010E5C12C8A
S1131620D12C5CCFDF91CF911F910F91FF90EF9060
S1131630DF90CF900895AF92BF92CF92DF92EF9256
S1131640FF920F931F93CF93DF93EC018F89988DB3
S11316500E9404037FDE5E0122E0A20EB11C282F4B
S1131660082E000C330B3F938F9384E691E09F93F5
S11316708F93BF92AF920E943A278E8B95E1092FE8
S1131680081B0F900F900F900F900F900F90053143
S113169008F0C5C1E02EEE0CE00E1E2D110F8E8950
S11316A0FE01E00FF11DE80FF11D739720E0412FBB
S11316B060818F89988DC0D80F5F1A5F053179F7E3
S11316C0AEC1E98DFA8DEC0DFD1D28E3412F608537
S11316D08F89988DB1D83FEFC31AD30A1A5F103897
S11316E081F720E847E360E08F89988D8BD825E463
S11316F04FE060E08F89988D85D82BE347E065E45F
S11317008F89988D7FD820E140E065E48F89988D9A
S11317105FD821E447E26FE38F89988D73D820E383
S113172040E16FE38F89988D53D821E448E16FE35A
S11317308F89988D67D8E98DFA8D6081605320E098
S113174040E08F89988DC2D8E98DFA8D618160530C
S113175020E040E18F89988DB9D8E98DFA8D6381B5
S1131760605320E045E28F89988DB0D8E98DFA8DD9
S11317706481605320E045E38F89988DA7D88091D8
S1131780D7028F938091D6028F938091D5028F9345
S11317908091D4028F938FE691E09F938F93BF92B1
S11317A0AF920E943A278E8B98E0092F081B8DB7C1
S11317B09EB708960FB6F8949EBF0FBE8DBF083033
S11317C0E8F4102F1295107F8E89FE01E00FF11DB1
S11317D0E80FF11D369760816E3231F420E2412F1B
S11317E08F89988D29D806C0605328E1412F8F89AD
S11317F0988D6CD80F5F105F083031F720E030E02F
S11318004AE754E46091D0027091D1028091D202EF
S11318109091D3020E94FF1E9F938F937F936F93A7
S113182085E791E09F938F93BF92AF920E943A27EE
S11318308E8B2DB73EB7285F3F4F0FB6F8943EBF4F
S11318400FBE2DBF882389F016E4F12CFE01EF0DA5
S1131850F11D20E1412F62818F89988D0E941C0423
S1131860F3941A5F8E89F81688F38091CF028F93D0
S11318708091CE028F938091CD028F938091CC0280
S11318808F938CE791E09F938F93BF92AF920E94C6
S11318903A278E8B2DB73EB7285F3F4F0FB6F8948B
S11318A03EBF0FBE2DBF882389F016E4F12CFE0144
S11318B0EF0DF11D28E2412F62818F89988D0E94DE
S11318C01C04F3941A5F8E89F81688F3C090C8023A
S11318D0D090C902E090CA02F090CB02C701B601D1
S11318E02CE330E040E050E00E94BC241F926F9350
S11318F01F922F93C701B60120E13EE040E050E083
S11319000E94BC241F922F9385E891E09F938F93AC
S1131910BF92AF920E943A278E8B2DB73EB7265FB7
S11319203F4F0FB6F8943EBF0FBE2DBF882389F0FA
S113193016E4F12CFE01EF0DF11D20E3412F62812D
S11319408F89988D0E941C04F3941A5F8E89F8166F
S113195088F36091C8027091C9028091CA02909183
S1131960CB026115710581059105B1F41F921F9297
S11319701F921F928CE791E09F938F93BF92AF9237
S11319800E943A278E8B8DB79EB708960FB6F894AF
S11319909EBF0FBE8DBF2AC00E94981F9B01AC0141
S11319A06091D0027091D1028091D2029091D302C1
S11319B00E94FF1E26E636E646E650E40E94AC206E
S11319C09F938F937F936F938CE791E09F938F9373
S11319D0BF92AF920E943A278E8B2DB73EB7285FF5
S11319E03F4F0FB6F8943EBF0FBE2DBF8E8988239C
S11319F089F00BE410E0FE01E10FF11D28E0402F17
S1131A0062818F89988D0E941C041F5F0A5F8E89F2
S1131A10181788F38F89988D0E947E0304C010E5FF
S1131A20C12CD12C4ECEDF91CF911F910F91FF90FD
S1131A30EF90DF90CF90BF90AF900895EF92FF9218
S1131A400F931F93CF93DF93EC018F89988D0E949E
S1131A50040311E4E12CF12CE98DFA8DEE0DFF1D48
S1131A6020E0412F60818F89988D0E941C048FEFA4
S1131A70E81AF80A1A5F1F3579F76CDC282F082E4C
S1131A80000C330B3F938F938AE691E09F938F93DF
S1131A90CE0102969F938F930E943A278E8B15E175
S1131AA0181B0F900F900F900F900F900F901531FF
S1131AB008F05FC0012F000F010F000F8E89FE0197
S1131AC0E10FF11DE80FF11D739720E0402F6081B5
S1131AD08F89988D0E941C041F5F0A5F153171F76E
S1131AE048C0E98DFA8DEE0DFF1D28E3412F608576
S1131AF08F89988D0E941C048FEFE81AF80A1A5FE8
S1131B00113779F7E98DFA8D09A522894189608910
S1131B108F89988D0E94E004E98DFA8D608160536D
S1131B202DE046E48F89988D0E946604E98DFA8D34
S1131B30618160532DE046E58F89988D0E9466048B
S1131B40E98DFA8D6381605322E246E48F89988D92
S1131B500E946604E98DFA8D6481605322E246E5B1
S1131B608F89988D0E9466048F89988D0E947E03C8
S1131B7004C011E4E12CF12CB4CFDF91CF911F917B
S1131B800F91FF90EF900895CF92DF92EF92FF9222
S1131B900F931F93CF93DF93EC018F89988D0E944D
S1131BA0040310E0E12CF12CE98DFA8DEE0DFF1DFC
S1131BB020E0412F60818F89988D0E941C042FEFB3
S1131BC0E21AF20A1A5F103379F7C4DB7E0132E0BD
S1131BD0E30EF11C282F082E000C330B3F938F9338
S1131BE082E391E09F938F93FF92EF920E943A27B2
S1131BF08E8B15E1181B0F900F900F900F900F9084
S1131C000F90153108F0D9C0012F000F010F000FFC
S1131C108E89FE01E10FF11DE80FF11D739720E09D
S1131C20402F60818F89988D0E941C041F5F0A5F7A
S1131C30153171F7C2C0E98DFA8DEC0DFD1D28E355
S1131C40412F60858F89988D0E941C048FEFC81ADC
S1131C50D80A1A5F103879F78091E9028F9380913E
S1131C60E8028F938091E7028F938091E6028F932D
S1131C7084E991E09F938F93FF92EF920E943A2719
S1131C808E8BEDB7FEB738960FB6F894FEBF0FBE35
S1131C90EDBF882389F000E010E0FE01E10FF11DA3
S1131CA020E1402F62818F89988D0E941C041F5F60
S1131CB00A5F8E89181788F38091E5028F938091CB
S1131CC0E4028F938091E3028F938091E2028F93D9
S1131CD08EE991E09F938F93FF92EF920E943A27AF
S1131CE08E8B2DB73EB7285F3F4F0FB6F8943EBF9B
S1131CF00FBE2DBF882309F464C000E010E0FE018C
S1131D00E10FF11D28E1402F62818F89988D0E9497
S1131D101C041F5F0A5F8E89181788F352C0F601EE
S1131D2061916F0120E2412F8F89988D0E941C04DC
S1131D301A5F1A35A1F78091D8021F928F93809170
S1131D40D9021F928F938091DA021F928F93809110
S1131D50DB021F928F938091DC021F928F938091FC
S1131D60DD021F928F9388EA91E09F938F93FF92F5
S1131D70EF920E943A278E8B2DB73EB7205F3F4FDC
S1131D800FB6F8943EBF0FBE2DBF882389F000E044
S1131D9010E0FE01E10FF11D28E2402F62818F89DE
S1131DA0988D0E941C041F5F0A5F8E89181788F3A0
S1131DB08F89988D0E947E030CC010E5C12CD12C14
S1131DC03ACF0F2EF8E1CF2EF3E0DF2EF02D10E006
S1131DD0A6CFDF91CF911F910F91FF90EF90DF90ED
S1131DE0CF900895F894F999FECF92BD81BD60BD5E
S1131DF0FA9AF99A78940895CF93DF93EC01FB0152
S1131E009081953669F5E98DFA8D8091DD02808B9C
S1131E10E98DFA8D8091DC02818BE98DFA8D8091B8
S1131E20DB02828BE98DFA8D618980E090E0DADF54
S1131E30E98DFA8D608981E090E0D4DFE98DFA8D37
S1131E40648982E090E0CEDFE98DFA8D668983E0D3
S1131E5090E0C8DFE98DFA8D678984E090E0C2DF05
S1131E6080E0DF91CF910895F894F999FECF92BD67
S1131E7081BDF89A789480B508951F920F920FB699
S1131E800F9211240BB60F928F93EF93FF93ECE311
S1131E90F8E082898F5F828B808D8260808FFF91D2
S1131EA0EF918F910F900BBE0F900FBE0F901F906C
S1131EB018951F920F920FB60F9211248F93809151
S1131EC036038160809336038F910F900FBE0F907D
S1131ED01F9018951F920F920FB60F9211240BB6F4
S1131EE00F922F938F939F93EF93FF932091C600AC
S1131EF0243249F48091330382FD05C01092EA0232
S1131F008160809333039091330390FF32C08091BA
S1131F10EA02E82FF0E0E551FD4F20838F5F8093C4
S1131F20EA02893420F09E7F9093330322C08331E8
S1131F30C1F48091FD02813421F09C7F909333039E
S1131F4018C08091EF028D3441F48091F002833403
S1131F5021F49260909333030CC09C7F90933303DD
S1131F6008C091FF06C08F3321F49E7F9460909344
S1131F703303FF91EF919F918F912F910F900BBE9F
S1131F800F900FBE0F901F9018951092D4021092CC
S1131F90D5021092D6021092D7021092D00210925B
S1131FA0D1021092D2021092D3021092CC0210925B
S1131FB0CD021092CE021092CF021092C80210925B
S1131FC0C9021092CA021092CB020895FB018081CB
S1131FD0853609F4DADF80E00895FC01208130E0E1
S1131FE0062E02C0359527950A94E2F720FF16C005
S1131FF0EFE0F7E23197F1F700C00000FC018081C7
S113200090E002C0959587956A95E2F780FD08C037
S1132010F2E0FA95F1F700C081E0089580E00895B8
S113202080E00895CF92DF92EF92FF92CF93DF93F7
S1132030E4E8F0E0C081D181118210822BED3FE011
S113204049E450E40E94AC2026E636E646E650E435
S11320500E94AC206B017C01BE0180E090E00E94F4
S1132060981F20E030E040E05EE30E94AC202DEBBE
S113207037E346E85AE30E94AC202AE037ED43EA0E
S11320805BE30E94981E9B01AC01C701B6010E944C
S1132090FF1E2091D4023091D5024091D602509176
S11320A0D7020E94981E20E030E040E05FE30E94E7
S11320B0AC206B017C0120E030E040E253E40E945C
S11320C0A82088234CF4C092D402D092D502E09286
S11320D0D602F092D70208C01092D4021092D50210
S11320E01092D6021092D702DF91CF91FF90EF9019
S11320F0DF90CF900895FF920F931F93CF93DF93B8
S1132100CDB7DEB7A9970FB6F894DEBF0FBECDBF2B
S1132110109237031092360382E0809335031092B5
S11321203403109285001092840010926F0085E0B1
S1132130809381000E9A169A80E480937C00EAE7EB
S1132140F0E083E080838081806880838081806484
S113215080838081182F107486FDFBCF80917800D6
S11321609091790089B1897F89B98AB1897F8AB9C7
S11321701092C50083E38093C40086E08093C2007C
S113218080E88093C1001092EA0280933303109296
S1132190E6021092E7021092E8021092E90210920D
S11321A0E2021092E3021092E4021092E50210920D
S11321B0DE021092DF021092E0021092E10210920D
S11321C0DD021092DC021092DB021092DA0210920D
S11321D0D9021092D8021F8A8BE394E0998F888FDA
S11321E08CE398E09B8F8A8F1EA21FA281E089A7AF
S11321F083EB92E09A8389838BE394E00E94040347
S11322008FE0E6E0F1E0DE01139601900D928A95ED
S1132210E1F78EE08F8BF12E00E0E3E0F0E0EC0FCD
S1132220FD1FE00FF11D20E04F2D6081888D998DF9
S11322300E941C040F5F26E0F20E8F89081768F3D2
S11322408FE0E5E1F1E0DE01139601900D928A95AD
S1132250E1F78EE08F8BF12E00E0E3E0F0E0EC0F8D
S1132260FD1FE00FF11D28E04F2D6081888D998DB1
S11322700E941C040F5F36E0F30E8F89081768F381
S113228080E48F9381E48F9387E48F938EEA8F9316
S113229084E291E09F938F93CE0103969F938F9353
S11322A00E943A278F8B0FB6F894DEBF0FBECDBFC6
S11322B0882399F000E0E3E0F0E0EC0FFD1FE00F6D
S11322C0F11D20E2412F6081888D998D0E941C04AC
S11322D00F5F1A5F8F89081770F3888D998D0E949C
S11322E07E038AE0FFE728E331E0F15020403040EC
S11322F0E1F700C000009FE7E8E3F1E09150E0401F
S1132300F040E1F700C00000815061F70CE318E0F1
S1132310F801128A80E090E0A7DDF801818B81E06A
S113232090E0A2DDF801808B82E090E09DDDF80171
S1132330848B83E090E098DDF801868B84E090E064
S113234093DDF801878BC8010E94551DC8010E94C6
S1132350361EE1ECF0E08081806180837894A99658
S11323600FB6F894DEBF0FBECDBFDF91CF911F91A2
S11323700F91FF900895CF92DF92EF92FF920F9307
S11323801F93CF93DF931F92CDB7DEB78C01698380
S1132390603209F487C080913703816080933703EA
S11323A0462F50E0FA01F097E634F10508F06FC0CB
S11323B0E35AFF4F0C94DE2485E08093350395C0E7
S11323C0D80196968C91811104C085E080933503E1
S11323D08CC08150F80186A365C080913503853097
S11323E031F4D80195968C91809335035BC0F80144
S11323F086A190A5891708F055C08F5F86A352C0A7
S113240080913503853031F4D80195968C91809371
S1132410350348C0F80186A190A5891708F042C089
S11324208F5F86A33FC0D80195962C919597422F34
S113243050E097968C91979790E001974817590729
S113244024F42F5F95962C932DC0F80115A22AC071
S1132450D80195968C919597882321F08150959673
S11324608C9320C0F80187A1815085A31BC08EE303
S113247093E00E948E1C882329F08EE393E00E944F
S1132480C91C10C08EE393E00E94511C0BC0D801FC
S1132490ED91FC910190F081E02DBE016F5F7F4FC3
S11324A0C8010995809135038130F9F467E080E231
S11324B090E093DD882331F063E371E186E39FE3E9
S11324C0B1DD13C080918400909185008E389B45C6
S11324D060F010928500109284001092D402109241
S11324E0D5021092D6021092D7028091540881FF2F
S11324F06AC08CE398E00E94FB1D80913503813013
S113250009F057C0C090D402D090D502E090D60212
S1132510F090D7022091CC023091CD024091CE02AE
S11325205091CF02C701B6010E94A820181644F4A6
S1132530C092CC02D092CD02E092CE02F092CF02B1
S113254020E030E040E85FE3C701B6010E94A82024
S113255088239CF08091C8029091C902A091CA027C
S1132560B091CB020196A11DB11D8093C802909336
S1132570C902A093CA02B093CB0226E636E646E629
S113258050E4C701B6010E94FF1E9B01AC0160919B
S1132590D0027091D1028091D2029091D3020E9414
S11325A0981E6093D0027093D1028093D2029093CC
S11325B0D30280913703816080933703ECE3F8E022
S11325C0808D8D7F808F8091540882FF08C0909108
S11325D037039160909337038B7F809354088091E5
S11325E0370380FF0DC0D801ED91FC910280F38187
S11325F0E02DC8010995809137038E7F80933703BE
S11326000F90DF91CF911F910F91FF90EF90DF908A
S1132610CF9008958F929F92AF92BF92CF92DF9204
S1132620EF92FF921F93CF93DF931091330312FF26
S1132630F5C111230CF0F2C1CBEED2E0888521ED77
S1132640280F8F81880F8056982F990F990F890F23
S1132650820F8093DD028A8520ED280F8985880FFB
S11326608056982F990F990F890F820F8093DC025F
S11326708C8520ED280F8B85880F8056982F990F15
S1132680990F890F820F8093DB028E8990E0C097A7
S1132690BC01660F771F880F991F880F991F880F39
S11326A0991F680F791F072E000C880B990B0E9445
S11326B09A1F6B017C018F8990E0C097BC01990F30
S11326C0880B990B0E949A1FA70196010E94981EDD
S11326D06B017C01898D90E0C097BC01990F880B38
S11326E0990B0E949A1F20E030E040E251E40E94DE
S11326F0FF1EA70196010E94981E6B017C018A8D22
S113270090E0C097BC01990F880B990B0E949A1F07
S113271020E030E048EC52E40E94FF1EA70196013D
S11327200E94981E6B017C018B8D90E0C097BC01C8
S1132730990F880B990B0E949A1F20E030E04AE71A
S113274054E40E94FF1EA70196010E94981E6B018B
S11327507C014C8950E040535109CA01880F991FEC
S1132760440F551F440F551F440F551F840F951FC9
S1132770BC01990F880B990B0E949A1F4B015C01B5
S11327808D8990E0C097BC01990F880B990B0E942A
S11327909A1F9B01AC01C501B4010E94981E4B0114
S11327A05C018C8D90E0C097BC01990F880B990B4C
S11327B00E949A1F20E030E44CE156E40E94FF1E80
S11327C0A70196010E94981E20E030E040E752E401
S11327D00E94FF1E9B01AC01C501B4010E94981E1A
S11327E06093E6027093E7028093E8029093E90213
S11327F02E8D2E3459F0DC01CB01B0588093E602C3
S11328009093E702A093E802B093E902CBEED2E002
S11328108BA190E0C097BC01660F771F880F991FAA
S1132820880F991F880F991F680F791F072E000CB6
S1132830880B990B0E949A1F6B017C018CA190E07C
S1132840C097BC01990F880B990B0E949A1FA7018E
S113285096010E94981E6B017C018EA190E0C097A6
S1132860BC01990F880B990B0E949A1F20E030E05D
S113287040E251E40E94FF1EA70196010E94981EA7
S11328806B017C018FA190E0C097BC01990F880B6C
S1132890990B0E949A1F20E030E048EC52E40E9419
S11328A0FF1EA70196010E94981E6B017C0188A55A
S11328B090E0C097BC01990F880B990B0E949A1F56
S11328C020E030E04AE754E40E94FF1EA70196018D
S11328D00E94981E6B017C0188A190E0C09724E6B9
S11328E0289FB001299F700D1124072E000C880B1E
S11328F0990B0E949A1F4B015C0129A130E02053DF
S11329003109C901880F991F220F331F220F331F6A
S1132910220F331F820F931FBC01990F880B990B51
S11329200E949A1F9B01AC01C501B4010E94981E2C
S11329304B015C018AA190E0C097BC01990F880B00
S1132940990B0E949A1F9B01AC01C501B4010E941E
S1132950981E4B015C0189A590E0C097BC01990FBA
S1132960880B990B0E949A1F20E030E44CE156E456
S11329700E94FF1EA70196010E94981E20E030E0ED
S113298040E752E40E94FF1E9B01AC01C501B40163
S11329900E94981E6093E2027093E3028093E40223
S11329A09093E5022BA5253459F0DC01CB01B058F6
S11329B08093E2029093E302A093E402B093E502D1
S11329C0EBEEF2E082AD20ED280F81AD880F80564A
S11329D0982F990F990F890F820F8093DA0284AD93
S11329E020ED280F83AD880F8056982F990F990FEB
S11329F0890F820F8093D9028091290320ED280F3B
S1132A0080912803880F8056982F990F990F890F6A
S1132A10820F8093D8021B7F10933303DF91CF91F1
S1132A201F91FF90EF90DF90CF90BF90AF909F9059
S1132A308F900895CF93DF93CDB7DEB765970FB628
S1132A40F894DEBF0FBECDBF56DB8AE290E00E9451
S1132A50E724FC01168A8BE394E0908F878B8CE348
S1132A6098E0928F818F15A216A281E080A783E956
S1132A7092E09183808385E598E6A2E7B0E08983BC
S1132A809A83AB83BC839E012F5F3F4FCF014B964C
S1132A90BE01655F7F4F890140E2502F521B5430C5
S1132AA028F4D8015C91DC015C9302C0DC014C93F6
S1132AB00F5F1F4F01960617170779F7FF24F3944A
S1132AC0F1A683E087A3FA83E98389E290E00E9478
S1132AD0E7248C01FC01168A8BE394E0908F878BAA
S1132AE08CE398E0928F818F15A216A2F0A68BE951
S1132AF092E09183808386E0ECE3F1E0DE011D96B1
S1132B0001900D928A95E1F7CE010D96D8015B965E
S1132B10AE01495E5F4FFC0120E23E2F381B363088
S1132B2018F430813C9301C02C9331961196E4172C
S1132B30F50799F72ADA1C830B8389E290E00E9457
S1132B40E724DC0156961C9256972BE334E0589602
S1132B503C932E9357972CE338E05A963C932E934C
S1132B60599795961C92959796961C92969721E064
S1132B7098962C93989723EA32E02D933C9328E07F
S1132B80E2E4F1E0DE011D9601900D922A95E1F751
S1132B909E01235F3F4FDC015B96BE01695E7F4F60
S1132BA0F90140E25E2F521B583018F450815C93B7
S1132BB001C04C9331961196E617F70799F79E8357
S1132BC08D8389E290E00E94E724FC01168A2BE3BE
S1132BD034E0308F278B2CE338E0328F218F15A21D
S1132BE016A221E020A72BEA32E03183208329E0DA
S1132BF0E6ECF1E0DE011D9601900D922A95E1F7D5
S1132C009E01235F3F4FDC015B96BE01695E7F4FEF
S1132C10F90140E25E2F521B593018F450815C9345
S1132C2001C04C9331961196E617F70799F724E003
S1132C30DC0197962C9398878F8389E290E00E9419
S1132C40E724FC01168A0F2EFBE3CF2EF4E0DF2EDF
S1132C50F02DD08EC78A0F2EFCE3EF2EF8E0FF2E66
S1132C60F02DF28EE18E15A216A211E010A783ECCE
S1132C7092E091838083FA87E98789E290E00E9459
S1132C80E724FC01168AD08EC78AF28EE18E15A243
S1132C9016A210A72BEB32E03183208326E0EFEC61
S1132CA0F1E0DE011D9601900D922A95E1F79E0157
S1132CB0235F3F4FDC015B96BE01695E7F4FF901E4
S1132CC040E25E2F521B563018F450815C9301C0D1
S1132CD04C9331961196E617F70799F7DC0198960D
S1132CE01C92989725E097962C939C878B878FE26C
S1132CF094E00E945D08E0913503F0E0EE0FFF1FC1
S1132D0021E030E02C0F3D1FE20FF31F682F80817C
S1132D10918131DB7FDCEBCF2F923F924F925F9218
S1132D206F927F928F929F92AF92BF92CF92DF92D7
S1132D30EF92FF920F931F93CF93DF93CDB7DEB73C
S1132D4066970FB6F894DEBF0FBECDBF8CE398E054
S1132D50A7D78BE394E00E940403912C0F2EFFE08D
S1132D607F2EF02DCE0101962C01F12C8D8B5E8AE5
S1132D700F2EFCE3CF2EF8E0DF2EF02D0F2EFDEC0E
S1132D808F2EF02D6894EE24E5F80F2EFEE26F2EC0
S1132D90F02DE5EDF1E0D201872D01900D928A9599
S1132DA0E1F7520112011F2DF10161911F012F2D35
S1132DB0412F8BE394E00E941C041A5F1435A1F7A1
S1132DC0E5E1F1E0D201872D01900D928A95E1F7BA
S1132DD02D883E881F2DF10161911F0128E0412FAC
S1132DE08BE394E00E941C041A5F1435A1F7F601EA
S1132DF09089989D812D1124869586958695898341
S1132E00880F282F220F220F820F981B9A83FAE330
S1132E10FB83F6019189989D812D112486958695D1
S1132E2086958C83880F282F220F220F820F981BE0
S1132E309D83EE829489989D812D11248695869593
S1132E4086958F83880F282F220F220F820F981BBD
S1132E50988769869689989D812D112486958695F3
S1132E6086958A87880F282F220F220F820F981B9E
S1132E709B876C869789989D812D112486958695CC
S1132E8086958D87880F282F220F220F820F981B7B
S1132E909E870D891E892F2C3324339405C03394C7
S1132EA00F5F1F4FF0E12F0E83E0381661F020E131
S1132EB0422DF80160818BE394E00E946604F4E003
S1132EC0F31568F708C024E148E26B818BE394E0D2
S1132ED00E941C04E4CF8E01095F1F4F2F2C0F2E7C
S1132EE0F6E03F2EF02D88E0381661F09BE03916AD
S1132EF049F02E2D422DF80160818BE394E00E946D
S1132F00660409C028E248E0420DF80160818BE3C1
S1132F1094E00E941C0433940F5F1F4FF0E12F0EC6
S1132F208EE03812E0CF8BE394E00E947E038BE3C3
S1132F3094E00E940403892D90E08A30910508F002
S1132F402CC2FC01ED55FF4F0C94DE248FE294E07B
S1132F500E948108880F982F990F990F890F883143
S1132F6008F457C2F601108AE4EEF1E0D201872D8D
S1132F7001900D928A95E1F71F2DF50161915F0192
S1132F8028E3412F8BE394E00E941C041A5F14355C
S1132F90A1F799249A943FC28FE294E00E94810899
S1132FA0F601208990E0820F911D883110F4808B06
S1132FB032C2F601108AE4EEF1E0D201872D0190CD
S1132FC00D928A95E1F71F2DF50161915F0128E3C8
S1132FD0412F8BE394E00E941C041A5F1435A1F77F
S1132FE099249A9418C28FE294E00E948108880F71
S1132FF0982F990F990F890F8C3318F4F601818B50
S11330000AC2F601118AE3EFF1E0D201872D0190A3
S11330100D928A95E1F71F2DF50161915F0128E377
S1133020412F8BE394E00E941C041A5F1435A1F72E
S113303099249394F0C18FE294E00E948108F601F0
S1133040218990E0820F911D8C3310F4818BE3C1B0
S1133050F601118AE3EFF1E0D201872D01900D9280
S11330608A95E1F71F2DF50161915F0128E3412F56
S11330708BE394E00E941C041A5F1435A1F7992491
S11330809394C9C18FE294E00E948108880F982F1D
S1133090990F990F890F803218F4F601848BBBC104
S11330A0F601148A8BE0E2E0F2E0D20101900D9285
S11330B08A95E1F71F2DF50161915F0128E3412F06
S11330C08BE394E00E941C041A5F1C33A1F70F2EBB
S11330D0F3E09F2EF02D9FC18FE294E00E948108BF
S11330E0F601248990E0820F911D803210F4848BC4
S11330F092C1F601148A8BE0E2E0F2E0D201019081
S11331000D928A95E1F71F2DF50161915F0128E386
S1133110412F8BE394E00E941C041A5F1C33A1F737
S11331200F2EF3E09F2EF02D76C18FE294E00E94E3
S11331308108880F982F990F990F890F8D3018F4F3
S1133140F601868B68C1F601168A8DE0EDE0F2E0A7
S1133150D20101900D928A95E1F71F2DF50161913D
S11331605F0128E3412F8BE394E00E941C041A5F63
S11331701834A1F70F2EF5E09F2EF02D4CC18FE2ED
S113318094E00E948108F601268990E0820F911D47
S11331908D3010F4868B1DC0F601168A8DE0EDE0AB
S11331A0F2E0D20101900D928A95E1F72D883E88D4
S11331B01F2DF10161911F0128E3412F8BE394E05E
S11331C00E941C041A5F1834A1F70F2EF5E09F2EFD
S11331D0F02DF6019689892F8D7F843011F0893086
S11331E009F5F60184898F3108F4D8C0148A168A47
S11331F08BE0E2E0F2E0D20101900D928A95E1F7D2
S11332001F2DF50161915F0128E3412F8BE394E0C9
S11332100E941C041A5F1C33A1F70F2EF3E09F2EAB
S1133220F02DF9C0923009F0B9C0F60184898E31CD
S113323008F4B4C0148A168A8BE0E2E0F2E0D2010A
S113324001900D928A95E1F71F2DF50161915F01BF
S113325028E3412F8BE394E00E941C041A5F1C3383
S1133260A1F70F2EF3E09F2EF02DD5C08FE294E04E
S11332700E948108880F982F990F990F890F823324
S113328018F4F601878BC7C0F601178A8CE0EAE1CF
S1133290F2E0D20101900D928A95E1F71F2DF5011C
S11332A061915F0128E3412F8BE394E00E941C04A9
S11332B01A5F1234A1F70F2EF7E09F2EF02DABC04A
S11332C08FE294E00E948108F601278990E0820F42
S11332D0911D823308F496C0178A8CE0EAE1F2E08B
S11332E0D20101900D928A95E1F72D883E881F2D19
S11332F0F10161911F0128E3412F8BE394E00E94C7
S11333001C041A5F1234A1F70F2EF7E09F2EF02D44
S11333107BC0F60117891370F9F484898E31F0F1BA
S1133320148A168A178A8BE0E2E0F2E0D201019057
S11333300D928A95E1F7F50161915F0128E3412F30
S11333408BE394E00E941C041A5F1C33A1F70F2E38
S1133350F3E09F2EF02D5FC0F60184898D31F0F0EB
S1133360148A168A178A8BE0E2E0F2E0D201019017
S11333700D928A95E1F71F2DF50161915F0128E314
S1133380412F8BE394E00E941C041A5F1C33A1F7C5
S11333900F2EF3E09F2EF02D3EC093949394FAE009
S11333A0F91508F0F6CC0CE318E0F801128A138A38
S11333B0618980E090E00E94F20EF801608981E06A
S11333C090E00E94F20EF801648982E090E00E948D
S11333D0F20EF801668983E090E00E94F20EF80193
S11333E0678984E090E00E94F20E8BE394E00E94EF
S11333F00403C8015AD3C8011FD3C80137D40DC070
S11334009394C7CCF601878BF60186898230C1F785
S113341080CFF601808B9394BCCC66960FB6F8945B
S1133420DEBF0FBECDBFDF91CF911F910F91FF90F3
S1133430EF90DF90CF90BF90AF909F908F907F9050
S11334406F905F904F903F902F900895CF92DF92AE
S1133450EF92FF920F931F93CF93DF93EC018F8929
S1133460988D0E94040310E0E12CF12CE98DFA8D73
S1133470EE0DFF1D20E0412F60818F89988D0E9401
S11334801C042FEFE21AF20A1A5F103379F70E9434
S1133490AA097E0132E0E30EF11C282F082E000C4D
S11334A0330B3F938F9382E391E09F938F93FF922B
S11334B0EF920E943A278E8B15E1181B0F900F9004
S11334C00F900F900F900F90153108F05CC1012FF1
S11334D0000F010F000F8E89FE01E10FF11DE80FAF
S11334E0F11D739720E0402F60818F89988D0E9491
S11334F01C041F5F0A5F153171F745C1E98DFA8D10
S1133500EC0DFD1D28E3412F60858F89988D0E9465
S11335101C048FEFC81AD80A1A5F103879F78EA1E5
S1133520811178C080E1E6E2F2E0D70101900D92CA
S11335308A95E1F78FE08E8B0CE010E0FE01E10F3D
S1133540F11D20E1402F62818F89988D0E941C0417
S11335501F5F0A5F8E89181788F38CE0E6E3F2E0B8
S1133560D70101900D928A95E1F78BE08E8B0CE0E8
S113357010E0FE01E10FF11D28E1402F62818F89E7
S1133580988D0E941C041F5F0A5F8E89181788F3A8
S11335908FE0E2E4F2E0D70101900D928A95E1F721
S11335A08EE08E8B0CE010E0FE01E10FF11D20E2B5
S11335B0402F62818F89988D0E941C041F5F0A5FCF
S11335C08E89181788F38BE0E1E5F2E0D7010190CA
S11335D00D928A95E1F78AE08E8B0CE010E0FE01F3
S11335E0E10FF11D28E2402F62818F89988D0E949E
S11335F01C041F5F0A5F8E89181788F32DA1220F00
S1133600220F220F205F40E06EE38F89988D0E9485
S11336101C04B4C09DA1911106C0813009F0AEC054
S11336207BDB1EA2ABC0913009F060C0813009F091
S1133630A5C085E1ECE5F2E0D70101900D928A95F1
S1133640E1F784E18E8B00E010E0FE01E10FF11D53
S113365020E1402F62818F89988D0E941C041F5F96
S11336600A5F8E89181788F38DE0E1E7F2E0D7014D
S113367001900D928A95E1F78CE08E8B00E010E0CA
S1133680FE01E10FF11D28E1402F62818F89988DA1
S11336900E941C041F5F0A5F8E89181788F31F920B
S11336A085E08F938EE792E09F938F93FF92EF9242
S11336B00E943A278E8B0F900F900F900F900F90CF
S11336C00F90882309F45AC000E010E0FE01E10FD6
S11336D0F11D28E2402F62818F89988D0E941C047D
S11336E01F5F0A5F8E89181788F348C09230B9F5B6
S11336F0813009F043C080E48F9381E48F9387E4A1
S11337008F938EEA8F9384E291E09F938F93FF923D
S1133710EF920E943A278E8B2DB73EB7285F3F4F1A
S11337200FB6F8943EBF0FBE2DBF882339F110E0C9
S1133730212F30E0C9010296482F440F840F482FEF
S1133740440FFE01E20FF31F2CE162818F89988DF3
S11337500E941C041F5F8E89181750F30FC093300A
S113376069F4813059F498E088E10FB6F894A8958B
S1133770809360000FBE90936000FFCF8F89988D77
S11337800E947E0304C010E5C12CD12CB7CEDF917A
S1133790CF911F910F91FF90EF90DF90CF900895FC
S11337A08CE398E0BBD18BE394E00E9472038FE238
S11337B094E00E9476078DE294E0A2D284E493E040
S11337C00E94C00841E062E48EE393E02FD042E01F
S11337D062E48CE393E02AD047E064E48AE393E074
S11337E025D043E062E488E393E020C0089588E3B1
S11337F093E056D08AE393E053D08CE393E050D027
S11338008EE393E04DD084E493E00E948C088DE233
S113381094E04CD28FE294E00E9489078BE394E019
S11338200E9401038CE398E0F5C00895FC014183F4
S113383060836234A1F018F4613431F00895633484
S1133840C9F0643411F1089521B181E090E002C01F
S1133850880F991F4A95E2F7822B81B9089524B104
S113386081E090E002C0880F991F4A95E2F7822B0D
S113387084B9089527B181E090E002C0880F991FB0
S11338804A95E2F7822B87B908952AB181E090E046
S113389002C0880F991F4A95E2F7822B8AB90895CE
S11338A00895FC0190819234A9F018F4913431F018
S11338B008959334D9F0943429F1089522B181E024
S11338C090E0018002C0880F991F0A94E2F7822BCE
S11338D082B9089525B181E090E0018002C0880F8B
S11338E0991F0A94E2F7822B85B9089528B181E0E3
S11338F090E0018002C0880F991F0A94E2F7822B9E
S113390088B908952BB181E090E0018002C0880F4E
S1133910991F0A94E2F7822B8BB90895FC019081D8
S11339209234A1F018F4913431F031C09334C9F0D9
S1133930943411F12CC022B130E0C901018002C0DD
S1133940959587950A94E2F78170089525B130E042
S1133950C901018002C0959587950A94E2F78170A8
S1133960089528B130E0C901018002C0959587957A
S11339700A94E2F7817008952BB130E0C901018007
S113398002C0959587950A94E2F78170089582E0C4
S11339900895FC0190819234B1F018F4913431F01F
S11339A008959334E9F0943441F1089522B181E00B
S11339B090E0018002C0880F991F0A94E2F7809575
S11339C0822382B9089525B181E090E0018002C08C
S11339D0880F991F0A94E2F78095822385B9089588
S11339E028B181E090E0018002C0880F991F0A94F9
S11339F0E2F78095822388B908952BB181E090E0A5
S1133A00018002C0880F991F0A94E2F780958223EF
S1133A108BB908950895FC01808D83FF0CC084FD4B
S1133A200AC0228D9089291306C0218D91892913FA
S1133A3002C08061808F0895FC0120899DEC299F3C
S1133A40812D112486958695869530E3380F308331
S1133A50880F382F330F330F830F281B205D2183EA
S1133A602189299F812D112486958695869530E399
S1133A70380F3383880F382F330F330F830F281BEE
S1133A80205D24838289899F912D11249695969592
S1133A90969520E3290F2683990F292F220F220FB1
S1133AA0920F891B805D87830895FC0124899DEC16
S1133AB0299F812D112486958695869530E3380FAC
S1133AC03087880F382F330F330F830F281B205D67
S1133AD021872689299F812D11248695869586958F
S1133AE030E3380F3387880F382F330F330F830FAA
S1133AF0281B205D24878789899F912D1124969501
S1133B009695969520E3290F2687990F292F220F42
S1133B10220F920F891B805D87870895CF93DF93CF
S1133B20EC011A8A1B8A198A188A1C8A1E8A1F8A1F
S1133B301D8A88E2898F8AE08A8F1C8E1B8E1E8ED6
S1133B401D8EFE01CE010896DC0111921D92E8172C
S1133B50F907D9F78AE38A838D838EE28A878D8772
S1133B60CE016ADFCE01A1DFDF91CF910895FC0180
S1133B702689322F3D7F343011F0393091F4FC0125
S1133B8034893F31B0F131E0348B2F5F2D3010F4A4
S1133B90268B2FC021E0FC01268B27892F5F278BE2
S1133BA028C02230A9F4FC012789237041F4248918
S1133BB02E31F8F021E0248B23E0268B1AC0FC017F
S1133BC024892D31B0F021E0248B23E0268B11C011
S1133BD0FC013489303268F031E0348B2F5F2D30B2
S1133BE010F4268B06C021E0FC01268B27892F5F69
S1133BF0278B5BCF0895CF93DF93EC018A898C5395
S1133C008D38C0F41A8A89898F5F898B988D946066
S1133C10988F8C3368F0198A88898F5F883110F403
S1133C20888B06C0188A8C898F5F8C8BCE019FDFAE
S1133C30CE01F1DECE0100DF888D85FF0BC02B8D18
S1133C403C8D215031093C8F2B8F232B19F48F7D10
S1133C508160888F888D86FF05C08D8D9E8D01962D
S1133C609E8F8D8F80E0DF91CF910895FC0180E3DA
S1133C70808381839AE39283838384839583868379
S1133C808783108E1092B200E6EBF0E080818062B0
S1133C90808381E08093700085E08093B100089573
S1133CA0E1EBF0E08081897F808308950895FC0131
S1133CB0208120FF04C025B58181822B85BD089514
S1133CC085B5887F85BD08950F931F93CF93DF93A8
S1133CD08C01EB01F5DFBE0180E090E029D19B016E
S1133CE0AC0160E074E284EF96E489D0F5D067BD5E
S1133CF016BCC801DCDFDF91CF911F910F910895AD
S1133D00CF93DF93EC0118822B98239A84B58164B6
S1133D1084BD85B5886085BD84E0898368EE73E0E1
S1133D20CE01D2DFCE01CCDFDF91CF910895505880
S1133D30BB27AA270ED0C1C18AD130F08FD120F081
S1133D4031F49F3F11F41EF45AC10EF4E095E7FBE1
S1133D5050C1E92FD4D180F3BA17620773078407DF
S1133D60950718F071F49EF5ECC10EF4E0950B2E56
S1133D70BA2FA02D0B01B90190010C01CA01A001B9
S1133D801124FF27591B99F0593F50F4503E68F114
S1133D901A16F040A22F232F342F4427585FF3CF55
S1133DA0469537952795A795F0405395C9F77EF426
S1133DB01F16BA0B620B730B840BBAF09150A1F06F
S1133DC0FF0FBB1F661F771F881FC2F70EC0BA0FF5
S1133DD0621F731F841F48F4879577956795B7957D
S1133DE0F7959E3F08F0B3CF9395880F08F0992775
S1133DF0EE0F97958795089539D1E3956FC10CD04F
S1133E005CC12CD140F023D130F021F45F3F19F094
S1133E10F0C0511197C1F3C072D198F39923C9F33B
S1133E205523B1F3951B550BBB27AA2762177307BC
S1133E30840738F09F5F5F4F220F331F441FAA1F70
S1133E40A9F333D00E2E3AF0E0E830D09150504030
S1133E50E695001CCAF729D0FE2F27D0660F771FDE
S1133E60881FBB1F261737074807AB07B0E809F0C0
S1133E70BB0B802DBF01FF2793585F4F2AF09E3F55
S1133E80510568F0B6C05EC15F3FECF3983EDCF3C9
S1133E90869577956795B795F7959F5FC9F7880FCE
S1133EA0911D9695879597F90895E1E0660F771F20
S1133EB0881FBB1F621773078407BA0720F0621BB1
S1133EC0730B840BBA0BEE1F88F7E095089504D0AA
S1133ED06894B11137C108951AD188F09F5790F0B2
S1133EE0B92F9927B751A0F0D1F0660F771F881F1B
S1133EF0991F1AF0BA95C9F712C0B13081F021D1D7
S1133F00B1E008951EC1672F782F8827B85F39F074
S1133F10B93FCCF3869577956795B395D9F73EF479
S1133F2090958095709561957F4F8F4F9F4F089521
S1133F30E89409C097FB3EF490958095709561953F
S1133F407F4F8F4F9F4F9923A9F0F92F96E9BB27F5
S1133F509395F695879577956795B795F111F8CF71
S1133F60FAF4BB0F11F460FF1BC06F5F7F4F8F4FDC
S1133F709F4F16C0882311F096E911C0772321F0D2
S1133F809EE8872F762F05C0662371F096E8862F6A
S1133F9070E060E02AF09A95660F771F881FDAF7C1
S1133FA0880F9695879597F90895990F0008550FEE
S1133FB0AA0BE0E8FEEF16161706E807F907C0F0AB
S1133FC012161306E407F50798F0621B730B840BB3
S1133FD0950B39F40A2661F0232B242B252B21F48D
S1133FE008950A2609F4A140A6958FEF811D811D2D
S1133FF0089597F99F6780E870E060E008959FEF67
S113400080EC0895DF93CF931F930F93FF92EF9269
S1134010DF927B018C01689405C0DA2EEF01A8D0F1
S1134020FE01E894A5912591359145915591AEF302
S1134030EF018FDEFE019701A801DA9479F7DF9092
S1134040EF90FF900F911F91CF91DF91089500247D
S11340500A941616170618060906089500240A94E9
S113406012161306140605060895C9CF50D0E8F3B6
S1134070E894E0E0BB279F57F0F02AED3FE049ECDD
S113408006C0EE0FBB0F661F771F881F28F0B23AD9
S113409062077307840728F0B25A620B730B840B10
S11340A0E3959A9572F7803830F49A95BB0F661FA2
S11340B0771F881FD2F79048BAC0092E0394000CCA
S11340C011F4882352F0BB0F40F4BF2B11F460FFAE
S11340D004C06F5F7F4F8F4F9F4F0895EF93E0FFB2
S11340E006C0A2EA2AED3FE049EC5FEB32DEE5DFF1
S11340F00F90039401FC9058EAE5F1E0A4C057FD49
S11341009058440F551F59F05F3F71F04795880F41
S113411097FB991F61F09F3F79F0879508951216D8
S113412013061406551FF2CF4695F1DF08C0161684
S113413017061806991FF1CF869571056105089435
S11341400895E894BB2766277727CB0197F908954C
S11341502CDF08F48FEF08950BD0AFCF78DF28F071
S11341607DDF18F0952309F044CF49CF1124EACF1D
S1134170C6DFA0F3959FD1F3950F50E0551F629FC2
S1134180F001729FBB27F00DB11D639FAA27F00DAC
S1134190B11DAA1F649F6627B00DA11D661F829FD3
S11341A02227B00DA11D621F739FB00DA11D621FB8
S11341B0839FA00D611D221F749F3327A00D611DD5
S11341C0231F849F600D211D822F762F6A2F1124B7
S11341D09F5750408AF0E1F088234AF0EE0FFF1F0A
S11341E0BB1F661F771F881F91505040A9F79E3F41
S11341F0510570F0FECEA6CF5F3FECF3983EDCF3A2
S1134200869577956795B795F795E7959F5FC1F77D
S1134210FE2B880F911D9695879597F908959F9386
S113422025DF0F9007FCEE5F59CF9F3F31F091508F
S113423020F4879577956795B795880F911D969586
S1134240879597F908959F938F937F936F93FF9327
S1134250EF939B01AC0180DFEF91FF91D3DE2F91AF
S11342603F914F915F9178CF2F923F924F925F92FF
S11342706F927F928F929F92AF92BF92CF92DF9272
S1134280EF92FF920F931F93CF93DF93CDB7DEB7D7
S113429063970FB6F894DEBF0FBECDBF6C014B0120
S11342A02A01FC0117821682838181FF29C3AE0192
S11342B04F5F5F4F3A01F6019381F40193FD8591BD
S11342C093FF81914F01882309F416C3853239F491
S11342D093FD859193FF81914F01853231F4B601AD
S11342E090E090D552012501E6CF10E0F12C20E0BA
S11342F02032A0F48B3269F030F4803259F08332EA
S113430069F420612CC08D3239F0803339F4216096
S113431026C02260246023C0286021C027FD27C056
S113432030ED380F3A3078F426FF06C0FAE01F9FCC
S1134330300D1124132F13C04AE0F49E300D1124C4
S1134340F32E20620CC08E3221F426FDD5C22064E7
S113435006C08C3611F4206802C0883641F4F4019A
S113436093FD859193FF81914F018111C1CF9BEB07
S1134370980F933018F42061805E06C09BE9980F73
S1134380933008F064C12F7E26FF16E02F73322E7F
S1134390853619F42064322E08C0863621F4F22FB3
S11343A0F0683F2E02C01111115037FE07C01C33B4
S11343B050F4EE24E394E10E27E00BC0183038F0FB
S11343C027E017E005C027E04CE3E42E02C0212FCC
S11343D0E12C520144E0A40EB11CF2016081718110
S11343E0828193810E2DA3011FD42C01098100FF2A
S11343F002C003FF07C031FC08C032FE09C030E22E
S1134400232E07C02DE2222E04C09BE2292E01C0D8
S1134410212C802F8C7019F0211051C28DC237FECF
S11344200FC0E40C04FF04C08A81813309F4EA94C8
S11344301E1474F5F8E0FE1578F588E0E82E2CC01B
S113444036FC2AC0812F90E0841595059CF02CEF52
S113445042162FEF520674F0432D4068342E0AC0E2
S1134460E2E0F0E0EC0FFD1FE10FF11D80818033ED
S113447019F411501111F4CF37FE0EC0EE24E39459
S1134480E10E812F90E0481659062CF4141904C04B
S1134490EE24E39401C010E037FE06C014141504A2
S11344A034F4C201019605C085E090E002C081E0C9
S11344B090E021100196112331F0212F30E02F5F7D
S11344C03F4F820F931F2F2D30E08217930714F470
S11344D0F81A01C0F12C832D897041F4FF2031F0CA
S11344E0B60180E290E08ED4FA94F8CF222021F035
S11344F0B601822D90E086D433FC08C0FF2031F051
S1134500B60180E390E07ED4FA94F8CF37FE58C029
S1134510942D852D57FE02C090E080E0292E382E80
S113452020E030E0A2014E1951095D874C87A201B9
S1134530421953095F874E87612F70E0442755273E
S1134540461B570B598B488B5FEF2516350641F4F4
S1134550B6018EE290E02A8B3B8B54D43B892A89A6
S1134560421453046CF04C855D854215530544F4A4
S1134570EE85FF85E20FF31FE60DF71D818101C073
S113458080E351E0251A31082F5F3F4F488959894C
S11345902416350644F0B60190E02A8B3B8B32D4C6
S11345A02A893B89D1CF2414350439F49A8196336E
S11345B018F4953311F404FF81E3B60190E045C08B
S11345C08A81813309F00F7EB60190E01BD411116A
S11345D005C034FC16C085E690E015C0B6018EE235
S11345E090E010D482E0EE24E394E80EF301E80FA7
S11345F0F11D8081B60190E005D411508E2D99F7FC
S1134600E8CF85E490E0B601FDD357FC05C0411422
S1134610510439F404FF05C05194419451088DE2CA
S113462001C08BE2B60190E0EDD380E39AE0491635
S113463051042CF08F5F5AE0451A5108F7CFB601A8
S113464090E0E0D3B601C201C096DCD34CC18336FE
S113465031F0833779F0833509F054C020C052011A
S1134660E2E0AE0EB11CF2018081898301E010E02A
S1134670230113C05201F2E0AF0EB11CF2014080DD
S1134680518026FF03C0612F70E002C06FEF7FEFFF
S1134690C2012A8BACD38C012A892F7714C0520112
S11346A0F2E0AF0EB11CF2014080518026FF03C03E
S11346B0612F70E002C06FEF7FEFC2012A8B8CD3B1
S11346C08C012A892068322E23FD18C08F2D90E09A
S11346D00817190798F4B60180E290E093D3FA948E
S11346E0F5CFF20137FC859137FE81912F01B60198
S11346F090E088D3F110FA940150110901151105C5
S113470081F7F1C0843611F0893651F5520127FF43
S113471009C0F4E0AF0EB11CF201608171818281A5
S113472093810AC0F2E0AF0EB11CF2016081718185
S1134730072E000C880B990B2F76322E97FF09C099
S113474090958095709561957F4F8F4F9F4F20680E
S1134750322E2AE030E0A301BCD3E82EE6183EC096
S1134760022F853721F40F7E2AE030E01DC0097F37
S11347708F3691F018F4883559F0BEC0803719F09F
S1134780883711F0B9C0006104FF09C0046007C094
S113479024FF08C0066006C028E030E005C020E120
S11347A030E002C020E132E0520107FF09C0F4E02A
S11347B0AF0EB11CF201608171818281938108C0C6
S11347C0F2E0AF0EB11CF2016081718180E090E0F3
S11347D0A3017FD3E82EE6180F77302E36FE0BC0E8
S11347E0332D3E7FE11650F434FE0AC032FC08C07B
S11347F0332D3E7E05C00E2D332D03C00E2D01C07A
S1134800012F34FF0CC0FE01EE0DF11D80818033B9
S113481011F4397E08C032FF05C00E5F04C0832F37
S1134820867809F00F5F33FD12C030FF06C01E2DDD
S11348300F1518F41F0D101B0F2D0F1560F4B60182
S113484080E290E03B8BDED20F5F3B89F6CF0F1501
S113485010F4F01A01C0F12C34FF11C0B60180E34A
S113486090E03B8BCFD23B8932FF16C031FD03C0B1
S113487088E790E002C088E590E0B6010CC0832F81
S1134880867851F031FF02C08BE201C080E237FD2F
S11348908DE2B60190E0B6D2E11630F4B60180E3C1
S11348A090E0B0D21150F8CFEA94F301EE0DF11D6F
S11348B08081B60190E0A6D2E110F6CF14C0F4E0F6
S11348C0FF1548F584E0F81A33FE1DC0211024C0FA
S11348D003FF27C00EE814E0F32DF0713F2EF8011A
S11348E08491811121C0FF2009F4FDCCB60180E23E
S11348F090E088D2FA94F7CFF6018681978123C09D
S11349008FEF9FEF20C0B60180E290E07BD2FA9453
S1134910F110F9CFDBCFF12CB601822D90E072D2E9
S1134920D7CF02E914E0D8CF31108052B60190E01D
S113493069D20F5F1F4FD3CF23E02F1510F483E00C
S1134940C2CFF12CC5CF63960FB6F894DEBF0FBE6D
S1134950CDBFDF91CF911F910F91FF90EF90DF902A
S1134960CF90BF90AF909F908F907F906F905F900B
S11349704F903F902F900895A1E21A2EAA1BBB1BC3
S1134980FD010DC0AA1FBB1FEE1FFF1FA217B30717
S1134990E407F50720F0A21BB30BE40BF50B661F2D
S11349A0771F881F991F1A9469F7609570958095F1
S11349B090959B01AC01BD01CF010895EE0FFF1F3F
S11349C00024001C0BBE0790F691E02D0994CF93B0
S11349D0DF938230910510F482E090E0E0915D086D
S11349E0F0915E0820E030E0C0E0D0E0309711F1B3
S11349F04081518148175907C0F04817590761F49D
S1134A0082819381209719F09B838A832BC0909392
S1134A105E0880935D0826C02115310519F0421700
S1134A20530718F49A01BE01DF01EF010280F381FC
S1134A30E02DDCCF2115310509F1281B390B243079
S1134A40310590F412968D919C911397611571051F
S1134A5021F0FB019383828304C090935E088093CA
S1134A605D08FD01329644C0FD01E20FF31F8193FE
S1134A709193225031092D933C933AC020915B08C5
S1134A8030915C08232B41F4209102013091030101
S1134A9030935C0820935B08209100013091010160
S1134AA02115310541F42DB73EB7409104015091D1
S1134AB00501241B350BE0915B08F0915C08E217BB
S1134AC0F307A0F42E1B3F0B2817390778F0AC012D
S1134AD04E5F5F4F2417350748F04E0F5F1F50930A
S1134AE05C0840935B088193919302C0E0E0F0E09E
S1134AF0CF01DF91CF9108950F931F93CF93DF934D
S1134B00009709F48CC0FC01329713821282009141
S1134B105D0810915E080115110581F42081318131
S1134B20820F931F20915B0830915C082817390786
S1134B3079F5F0935C08E0935B0871C0D80140E01C
S1134B4050E0AE17BF0750F412962D913C91139785
S1134B50AD012115310509F1D901F3CF9D01DA0128
S1134B603383228360817181860F971F8217930795
S1134B7069F4EC0128813981260F371F2E5F3F4FDE
S1134B80318320838A819B8193838283452B29F4FB
S1134B90F0935E08E0935D0842C01396FC93EE9395
S1134BA01297ED01499159919E01240F351FE21787
S1134BB0F30771F480819181840F951F02961196F9
S1134BC09C938E938281938113969C938E931297D8
S1134BD0E0E0F0E0D80112968D919C911397009734
S1134BE019F0F8018C01F6CF8D919C9198012E5FFC
S1134BF03F4F820F931F20915B0830915C08281768
S1134C00390769F4309729F410925E0810925D0810
S1134C1002C01382128210935C0800935B08DF9138
S1134C20CF911F910F910895283008F027E0332782
S1134C30DA01990F311D87FD9160009661057105B8
S1134C4039F432602E5F3D9330E32A95E1F70895FD
S1134C509F3F30F080387105610509F03C5F3C5F8F
S1134C603D93913008F08068911DDF93CF931F939B
S1134C700F93FF92EF92192F987F9695E92F9695AF
S1134C809695E90FFF27E051FB4F99273327EE2430
S1134C90FF24A701E70105900894079428F4360F30
S1134CA0E71EF81E491F511D660F771F881F991FA5
S1134CB00694A1F70590079428F4E70EF81E491FFF
S1134CC0561FC11D770F881F991F661F0694A1F7F1
S1134CD00590079428F4F80E491F561FC71FD11DCD
S1134CE0880F991F661F771F0694A1F705900794F4
S1134CF020F4490F561FC71FD81F990F661F771F2F
S1134D00881F0694A9F784911095177041F0D695E1
S1134D10C79557954795F794E7941A95C1F7E6E92F
S1134D20F4E06894159015913591659195910590ED
S1134D307FE27395E118F10A430B560BC90BD009B6
S1134D40C0F7E10CF11E431F561FC91FD01D7EF48E
S1134D50703311F48A95E6CFE894015030F0080FCF
S1134D600AF40027021708F4202F2395022F7A3320
S1134D7028F079E37D932A95E9F710C07D932A956D
S1134D8089F6069497956795379517951794E118C2
S1134D90F10A430B560BC90BD00998F023957E9169
S1134DA073957A3308F070E37C932013B8F77E91FF
S1134DB070617D9330F0839571E37D9370E32A9560
S1134DC0E1F71124EF90FF900F911F91CF91DF91A4
S1134DD0992787FD90950895FC01059061507040D6
S1134DE00110D8F7809590958E0F9F1F0895FC01B0
S1134DF06150704001900110D8F7809590958E0F06
S1134E009F1F08950F931F93CF93DF93FB0123817B
S1134E1021FD03C08FEF9FEF28C022FF16C04681FB
S1134E205781248135814217530744F4A081B1810D
S1134E309D012F5F3F4F318320838C9326813781DF
S1134E402F5F3F4F3783268310C0EB01092F182FA4
S1134E500084F185E02D0995892BE1F68E819F81EF
S1134E6001969F838E83812F902FDF91CF911F9185
S1134E700F9108950F931F93CF93DF93CDB7DEB7B0
S1134E802E970FB6F894DEBF0FBECDBF0D891E89D5
S1134E9086E08C831A8309838FEF9FE79E838D833B
S1134EA0AE01475E5F4F6F89788DCE010196DCD9E4
S1134EB02F813885F801E20FF31F10822E960FB66A
S1134EC0F894DEBF0FBECDBFDF91CF911F910F913C
S1134ED00895FA01AA27283051F1203181F1E8948C
S1134EE06F936E7F6E5F7F4F8F4F9F4FAF4FB1E0D9
S1134EF03ED0B4E03CD0670F781F891F9A1FA11DD4
S1134F00680F791F8A1F911DA11D6A0F711D811DD4
S1134F10911DA11D20D009F468943F912AE0269F99
S1134F2011243019305D3193DEF6CF010895462FF8
S1134F304770405D4193B3E00FD0C9F7F6CF462FD9
S1134F404F70405D4A3318F0495D31FD4052419342
S1134F5002D0A9F7EACFB4E0A695979587957795FF
S1134F606795BA95C9F700976105710508959B0186
S1134F70AC010A2E06945795479537952795BA950F
S1134F80C9F7620F731F841F951FA01D089512E0B7
S1134F90C9ECD2E003C0FE0111DD2196CA3CD10761
S1094FA0D1F7F894FFCFE5
S1134FA600005F082000466168726164636F6D707B
S1134FB675746572002D2D2D2D2D2D2D2D2D2D2D38
S1134FC62D2D2D0056657273696F6E3A20252E328B
S1134FD666004261743A2025692525005461636898
S1134FE66F0057616E6465726E0045696E73746511
S1134FF66C6C756E67656E00446973706C617920BC
S1135006617573004261742E3A20256925250025B1
S1135016332E316600252E33666B6D00252E3166E0
S11350266B6D2F6800253032693A253032693A258E
S1135036303269004C61743A20252E3566004C6F77
S11350466E3A20252E356600253032693A253032EF
S1135056693A2530326920253032692E2530326985
S11350662E253032690053657474696E6773004D7A
S1135076656E75650055687265696E7374656C6CEA
S1135086756E67005374756E64656E2066616C7325
S11350966368004D696E7574656E2066616C736332
S11350A668005461672066616C736368004D6F6EB7
S11350B661742066616C736368004A616872206675
S11350C6616C736368005A6569742065696E7374EC
S11350D6656C6C656E00672062657374696D6D65D9
S11350E66E0056657273696F6E736E756D6D65725B
S11350F600736F6674205265736574004765726148
S11351066574206E69636874206265776567656E89
S1135116002A2066756572207374617274004E6F7E
S113512663682025692053656B756E64656E00009F
S113513600000000091E0D00000000E60F1B0B0016
S1135146000000FC0EC40D000000000E09261A0023
S1135156000000FE081E090000000010091A0A00DB
S10B5166000000FE081209001C
S9030000FC
