S0160000466168726164636F6D70757465722E7372656359
S11300000C94BF020C94E7020C94E7020C94E702F0
S11300100C94E7020C94E7020C94E7020C94E702B8
S11300200C94E7020C94D7170C94E7020C94E702A3
S11300300C94E7020C94E7020C94E7020C94E70298
S11300400C94E7020C94E7020C94E7020C94E70288
S11300500C94E7020C94E7020C94E7020C94E70278
S11300600C94E7020C94E702281550157A15A5158F
S1130070CF15F81520164916C116EC16501B5B1B3C
S1130080691B6F1B761B7D1B8B1BAB1BB21BB91B28
S1130090C01BC71BCE1BD51BDC1B084AD73B3BCE62
S11300A0016E84BCBFFDC12F3D6C74319ABD568373
S11300B03DDA3D00C77F11BED9E4BB4C3E916BAA2B
S11300C0AABE000000803F05A84CCDB2D44EB9387A
S11300D036A9020C50B9918688083CA6AAAA2ABE61
S11300E0000000803F08000000BE922449123EAB8D
S11300F0AAAA2ABECDCCCC4C3E00000080BEABAA3E
S1130100AAAA3E00000000BF000000803F000000DB
S11301100000084178D3BB4387D1133D190E3CC37B
S1130120BD4282AD2B3E68EC8276BED98FE1A93EFA
S11301304C80EFFFBE01C4FF7F3F000000000006BB
S113014064EC1B3C04BC163E3BE5B93CC93C37C2DD
S11301509E5A3D660498083EEA69AAAA3E00000039
S1130160803F00E0F8FCFE1E070707071EFEFCF8B0
S1130170F00000070F3F3F7C707070707C3F1F1FC2
S11301800700000000060707FFFFFFFF0000000054
S113019000000000000000007F7F7F7F000000005F
S11301A0000000383C3E3E0F070707CFFFFEFE3835
S11301B000000040406070787C7E7F7773717070BF
S11301C0000000181C1E1E0FC7C7E7FFFEBE9C00E0
S11301D00000000C1C3C3C78707070797F3F1F0F4E
S11301E00000000080C0E070381C1EFFFFFFFF000D
S11301F000000607070706060606067F7F7F7F06C0
S1130200060000000000F0FFFFFFE7E7E7E7C7870D
S1130210000000003878717070707070393F3F1FB3
S11302200F000080E0F0F8FC7F7F6F67E1E1C080A1
S11302300000000F1F3F3F7870707070783F3F1FC1
S11302400F00000707070707C7E7F7FF7F3F1F07F0
S113025003010020387C7E3F0F07030000000000EC
S113026000000000001CBEFEFFE7C3C3E7FFFEBEA4
S11302701C0000000E3F3F7F71606060717F3F3F54
S11302800F000078FCFEFE8F070707078FFEFEFCB9
S1130290F800000000014343737B7F7F1F0F0703B7
S11302A0000000005F00000007000700147F147FB7
S11302B014242A7F2A1223130864623649552250D3
S11302C00005030000001C2241000041221C001410
S11302D0083E081408083E080800503000000808CA
S11302E0080808006060000020100804023E51491C
S11302F0453E00427F400042615149462141454B01
S1130300311814127F1027454545393C4A49493074
S113031001710905033649494936064949291E0030
S1130320363600000056360000081422410014142A
S113033014141400412214080201510906324979A7
S1130340413E7E1111117E7F494949363E4141416A
S1130350227F4141221C7F494949417F0909090102
S11303603E4149497A7F0808087F00417F410020C7
S113037040413F017F081422417F404040407F02BA
S11303800C027F7F0408107F3E4141413E7F0909F2
S113039009063E4151215E7F0919294646494949CA
S11303A03101017F01013F4040403F1F2040201F99
S11303B03F4038403F63140814630708700807611E
S11303C051494543007F4141000204081020004187
S11303D0417F000402010204404040404000010209
S11303E0040020545454787F4844443838444444E6
S11303F020384444487F3854545418087E09010274
S11304000C5252523E7F0804047800447D40002080
S113041040443D007F1028440000417F40007C049C
S11304201804787C0804047838444444387C141450
S11304301408081414187C7C080404084854545400
S113044020043F4440203C4040207C1C2040201C91
S11304503C4030403C44281028440C5050503C440C
S113046064544C44000836410000007F0000004101
S113047036080010080810086E616E00696E660088
S113048000407A10F35A00A0724E18090010A5D447
S1130490E80000E87648170000E40B54020000CAA4
S11304A09A3B000000E1F5050000809698000000EA
S11304B040420F000000A086010000001027000049
S11304C00000E803000000006400000000000A00CF
S11304D0000000000100000000002C76D888DC67D2
S11304E04F0823DFC1DFAE59E1B1B796E5E3E4532A
S11304F0C63AE651997696E8E6C28426EB898C9B47
S113050062ED407C6FFCEFBC9C9F40F2BAA56FA5E6
S1130510F490055A2AF75C936B6CF9676DC11BFC68
S1130520E0E40D47FEF520E6B500D0ED902E030083
S1130530943577050080841E080000204E0A0000D0
S113054000C80C333333330F986E12831141EF8D8F
S11305502114893BE65516CFFEE6DB18D1844B38CF
S11305601BF77C1D901DA4BBE424203284725E2200
S11305708100C9F124ECA1E53D27BE1DE71D11242E
S11305801FBECFEFD8E0DEBFCDBF12E0A0E0B1E0E8
S1130590EAEBFAE502C005900D92AC3FB107D9F73A
S11305A027E0ACEFB2E001C01D92A838B207E1F732
S11305B015E0CCE7D5E004C02297FE010E94752B1C
S11305C0CA37D107C9F70E94B11D0C94502D0C9461
S11305D000009C5F0E94101E0895FC0120E030E0A2
S11305E011922F5F3F4F211584E03807C9F7089512
S11305F01F93CF93DF93162FEC01DC5FCE010E9493
S1130600111E68E7CE010E94191E60E0CE010E940F
S1130610191E612FCE010E94191ECE010E94151EC3
S1130620DF91CF911F910895CF93DF93EC016EEA90
S11306300E94F80265EDCE010E94F80260E8CE0146
S11306400E94F80268EACE010E94F8026FE3CE012C
S11306500E94F80263EDCE010E94F80260E0CE0130
S11306600E94F80260E4CE010E94F8026DE8CE0117
S11306700E94F80264E1CE010E94F80260E2CE0119
S11306800E94F80260E0CE010E94F80261EACE0105
S11306900E94F80268ECCE010E94F8026AEDCE01D5
S11306A00E94F80262E1CE010E94F80261E8CE01E4
S11306B00E94F8026FECCE010E94F80269EDCE01AF
S11306C00E94F80261EFCE010E94F8026BEDCE01A8
S11306D00E94F80260E4CE010E94F80264EACE01AE
S11306E00E94F80266EACE010E94F8026FEACE0187
S11306F00E94F802DF91CF910895CF93DF93EC012C
S11307009C5F0E940C1ECE010E941403DF91CF91C6
S11307100895662321F067EA0E94F802089566EAC4
S11307200E94F8020895EF92FF920F931F93CF93C4
S1130730DF938C0161E20E94F80260E0C8010E942C
S1130740F8026FE7C8010E94F80262E2C8010E9441
S1130750F80260E0C8010E94F80267E0C8010E9444
S1130760F80278018CEFF81AC7010E94111E68E79D
S1130770C7010E94191E60E4C7010E94191EC0E04F
S1130780D0E0F80161918F01C7010E94191E2196E2
S1130790C115F4E0DF07A9F7C7010E94151EDF9118
S11307A0CF911F910F91FF90EF9008956623BCF1B4
S11307B04034A8F5211119C0E42FE695E695E69595
S11307C020E8E29FF0011124E60FF11DE80FF91F64
S11307D0477021E030E0C90102C0880F991F4A9593
S11307E0E2F79081892B80830895E42FE695E695BE
S11307F0E69530E8E39FF0011124E60FF11DE80FC0
S1130800F91F477081E090E09C0102C0220F331F62
S11308104A95E2F7A90140958081482340830895D1
S11308202F923F924F925F926F927F928F929F92FC
S1130830AF92BF92CF92DF92EF92FF920F931F93EA
S1130840CF93DF93CDB7DEB72B970FB6F894DEBF07
S11308500FBECDBF1C01D62EC42E2983222309F43A
S113086069C0C801B7010E9451252B013C01C80190
S1130870B7010E94B0274B015C011B861A868C2DA0
S113088090E0A0E0B0E08A839B83AC83BD838D2D90
S113089090E0A0E0B0E08E839F83A887B987AA8503
S11308A0BB85BD01882777FD8095982F0E94EF2591
S11308B0A50194010E944D276B017C016A817B8113
S11308C08C819D810E94EF259B01AC01C701B6017B
S11308D00E9487240E94C125162F6A857B85719505
S11308E061957109882777FD8095982F0E94EF25DF
S11308F0A30192010E944D276B017C016E817F81CF
S1130900888599850E94EF259B01AC01C701B6013A
S11309100E9487240E94C12520E0412FC1010E942A
S1130920D603EA85FB853196FB87EA87F981EF17C1
S113093008F4B5CF2B960FB6F894DEBF0FBECDBF2B
S1130940DF91CF911F910F91FF90EF90DF90CF90A7
S1130950BF90AF909F908F907F906F905F904F90DB
S11309603F902F9008952F923F924F925F926F92F3
S11309707F928F929F92AF92BF92CF92DF92EF922B
S1130980FF920F931F93CF93DF93CDB7DEB760979A
S11309900FB6F894DEBF0FBECDBF1C016F874D8329
S11309A02983C601B50125E33AEF4EE85CE30E94D2
S11309B04D274B015C0125E33AEF4EE85CE3C801A7
S11309C0B7010E944D276E837F838887998779803A
S11309D0769485017401272D4D816F85C1010E9494
S11309E010042BED3FE049E450E4C501B4010E943A
S11309F086247B018C01272D4D816F85C1010E94C6
S1130A0010046E817F81888599850E94B9276B01C6
S1130A107C01672D70E080E090E00E94EF25A70143
S1130A2096010E944D270E94C125688B2BED3FE063
S1130A3049EC5FE3C501B4010E9486246A877B8781
S1130A408C879D877B018C0128894D816F85C1012D
S1130A500E9410046E817F81888599850E945125AA
S1130A606B017C012981622F70E080E090E00E949C
S1130A70EF252B013C01A7019601C701B6010E9495
S1130A8087249B01AC01C301B2010E9454250E943A
S1130A90C1256E87E8896E2F70E080E090E00E94A7
S1130AA0EF2569837A838B839C836A857B858C8518
S1130AB09D850E9451256B017C01FF856F2F70E09D
S1130AC080E090E00E94EF252B013C01A7019601F4
S1130AD069817A818B819C810E944D279B01AC01A5
S1130AE0C301B2010E9486240E94C1256F876A85D2
S1130AF07B858C859D850E94B0276B017C012D81AF
S1130B00622F70E080E090E00E94EF252B013C0111
S1130B10A701960169817A818B819C810E944D276E
S1130B209B01AC01C301B2010E9487240E94C1252C
S1130B30D62EA50194016E817F81888599850E94B6
S1130B4087247B018C012E854D2D6F85C1010E9468
S1130B5010042E813F8148855985C501B4010E9446
S1130B6086242BED3FE049E450E40E9486247B0177
S1130B708C012E854D2D6F85C1010E941004609655
S1130B800FB6F894DEBF0FBECDBFDF91CF911F919A
S1130B900F91FF90EF90DF90CF90BF90AF909F9018
S1130BA08F907F906F905F904F903F902F9008951B
S1130BB00F931F93CF93DF93613208F442C0A42FA5
S1130BC0B0E0022F06950695069530E8039F800154
S1130BD01124ED01C00FD11F00581F4F0A0F1B1F16
S1130BE06152462F50E0FA01EE0FFF1FEE0FFF1F78
S1130BF0E40FF51FEE55FD4FDC01AC0FBD1FAE0138
S1130C0005968C0F9D1F2770649170E0022E02C020
S1130C10660F771F0A94E2F73C91362B3C93672FBB
S1130C2077276115710541F0ED01C41BD50BC00F89
S1130C30D11F3881632B688331961196A817B907A1
S1130C4019F7DF91CF911F910F910895EF92FF92C1
S1130C500F931F93CF93DF936A3008F066C050E080
S1130C60022F06950695069510E0D801B695BA2F81
S1130C70AA27B795A7950F5F1F4F1695102F00272A
S1130C80179507957D0130E8E30EF11CE40EF51E7F
S1130C90E80EF91EEA01C00FD11F6097C80FD91FD3
S1130CA0040F151F00591F4F080F191FA40FB51F5C
S1130CB0A80FB91FE0E26E9FC001112440E050E08C
S1130CC08E599E4F2770FC01E40FF51FE491F0E06C
S1130CD0022E02C0EE0FFF1F0A94E2F7403168F4BF
S1130CE03C913E2B3C936F2F77276115710589F05A
S1130CF0F7013081362B30830CC038813E2B38838A
S1130D006F2F77276115710521F0F8013081362B9B
S1130D1030834F5F5F4FFFEFEF1AFF0A21960F5F9B
S1130D201F4F11964032510571F6DF91CF911F91FB
S1130D300F91FF90EF9008952F923F924F925F9200
S1130D406F927F928F929F92AF92BF92CF92DF92D7
S1130D50EF92FF920F931F93CF93DF93CDB7DEB73C
S1130D6027970FB6F894DEBF0FBECDBF9F838E8347
S1130D706D83342E002309F429C1622F70E080E0D2
S1130D8090E00E94EF2520E030E040EC50E40E9427
S1130D904D272BED3FE049E450E40E944D2720E02D
S1130DA030E044E353E40E9454252BED3FE049EC4A
S1130DB05FE30E9486246B017C010E9451252B0174
S1130DC03C01C701B6010E94B0274B015C0100E061
S1130DD010E0B801882777FD8095982F0E94EF25B1
S1130DE06B017C01A50194010E944D2720E030E0B5
S1130DF048EF51E40E9487240E94C125262EA301B6
S1130E009201C701B6010E944D2720E030E048EF6F
S1130E1051E40E9487240E94C12520E0422D8E8146
S1130E209F810E94D6030F5F1F4F0931110589F678
S1130E30632D70E080E090E00E94EF2569837A835F
S1130E408B839C8320E030E040EC50E40E944D27EB
S1130E502BED3FE049E450E40E944D2720E030E0D0
S1130E6044E353E40E9454252BED3FE049EC5FE357
S1130E700E9486246B017C010E9451254B015C0178
S1130E80C701B6010E94B0272B013C0100E010E02D
S1130E90B801882777FD8095982F0E94EF256B0174
S1130EA07C01A30192010E944D2720E030E048EF2D
S1130EB051E40E9487240E94C125362EA501940185
S1130EC0C701B6010E944D2720E030E048EF51E40D
S1130ED00E9487240E94C12520E0432D8E819F819A
S1130EE00E94D6030F5F1F4F0531110589F62D812E
S1130EF0622F70E080E090E00E94EF2520E030E077
S1130F0040EF51E40E944D276B017C0120E030E06A
S1130F1040E05FE369817A818B819C810E944D2747
S1130F209B01AC01C701B6010E9487242BED3FE071
S1130F3049E450E40E944D2720E030E044E353E4C8
S1130F400E9454252BED3FE049EC5FE30E94862488
S1130F506B017C010E9451252B013C01C701B601A4
S1130F600E94B0274B015C0100E010E0B801882723
S1130F7077FD8095982F0E94EF256B017C01A501D8
S1130F8094010E944D2720E030E048EF51E40E9494
S1130F9087240E94C125362EA3019201C701B60100
S1130FA00E944D2720E030E048EF51E40E9487245E
S1130FB00E94C12520E0432D8E819F810E94D6038B
S1130FC00F5F1F4F0D30110589F6CDC0642F70E0FF
S1130FD080E090E00E94EF2569837A838B839C8371
S1130FE020E030E040EC50E40E944D272BED3FE040
S1130FF049E450E40E944D2720E030E044E353E408
S11310000E9454252BED3FE049EC5FE30E948624C7
S11310106B017C010E9451254B015C01C701B601A3
S11310200E94B0272B013C0100E010E0B8018827A2
S113103077FD8095982F0E94EF256B017C01A30119
S113104092010E944D2720E030E048EF51E40E94D5
S113105087240E94C125362EA5019401C701B6013B
S11310600E944D2720E030E048EF51E40E9487249D
S11310700E94C12520E0432D8E819F810E94D603CA
S11310800F5F1F4F0931110589F6ED816E2F70E056
S113109080E090E00E94EF2520E030E040EF51E452
S11310A00E944D276B017C0120E030E040E05FE3CB
S11310B069817A818B819C810E944D279B01AC01BF
S11310C0C701B6010E9487242BED3FE049E450E4B8
S11310D00E944D2720E030E044E353E40E9454256D
S11310E02BED3FE049EC5FE30E9486246B017C0119
S11310F00E9451252B013C01C701B6010E94B02773
S11311004B015C0100E010E0B801882777FD809571
S1131110982F0E94EF256B017C01A50194010E9488
S11311204D2720E030E048EF51E40E9487240E94DC
S1131130C125362EA3019201C701B6010E944D2795
S113114020E030E048EF51E40E9487240E94C1254A
S113115020E0432D8E819F810E94D6030F5F1F4F95
S11311600131110589F620E04AE161E38E819F8116
S11311700E94D80520E040E262E38E819F810E94B4
S1131180D8052CE14AE363E38E819F810E94D80550
S113119028E34DE166E38E819F810E94D8052CE10E
S11311A040E069E38E819F810E94D80520E048E0F9
S11311B06CE28E819F810E94D60320E042E165E3C8
S11311C08E819F810E94D60320E04CE265E38E81EC
S11311D09F810E94D60320E045E36BE28E819F81CC
S11311E00E94D60320E045E361E18E819F810E9445
S11311F0D60320E04CE268E08E819F810E94D603F2
S113120020E041E168E08E819F810E94D60320E0C6
S113121048E062E18E819F810E94D60327960FB633
S1131220F894DEBF0FBECDBFDF91CF911F910F9118
S1131230FF90EF90DF90CF90BF90AF909F908F90F2
S11312407F906F905F904F903F902F900895ECE7C0
S1131250F0E090818F71907E982B9083EAE7F0E024
S1131260808180648083808186FDFDCF80917800B9
S113127090917900089580E00E942709BC0180E0E4
S113128090E00E94ED2520E030EC4FE754E40E940A
S113129054252DEC3CEC4CE450E40E944D272BE704
S11312A034E14EEF5FE30E944D2760930F03709388
S11312B01003809311039093120320E030E040E484
S11312C050E40E94862428E939E949E95FE30E9451
S11312D0542520E030E048EC52E40E944D270E945F
S11312E0BC25862F0895CF92DF92EF92FF920F9341
S11312F01F93CF93DF93CDB7DEB764970FB6F894FF
S1131300DEBF0FBECDBF86E293E00E94ED028FE008
S1131310E0E0F1E08E010F5F1F4FD80101900D92C4
S11313208A95E1F7C02ED12E780110E0F701619182
S11313307F0120E0412F86E293E00E94D8051A5FE6
S11313401435A1F78FE0EFE0F1E0DE011196019092
S11313500D928A95E1F7EC2CFD2C10E0F7016191D8
S11313607F0128E0412F86E293E00E94D8051A5FAE
S11313701435A1F78FE38F9386EA8F9386E68F93D4
S11313808F938EE191E09F938F93CE0101969F936B
S11313908F930E94D02C0FB6F894DEBF0FBECDBF42
S11313A08823D1F081506894EE24E1F8F12CEC0EFE
S11313B0FD1EE80EF11C0C2D1D2DD12CF8016191A0
S11313C08F0120E24D2D86E293E00E94D805F6E0DD
S11313D0DF0E0E151F0591F786E293E00E9493033A
S11313E086E293E00E94ED0285E02FE738E391E086
S11313F0215030409040E1F700C00000EFE7F8E3EF
S113140021E0E150F0402040E1F700C000008150AD
S113141061F764960FB6F894DEBF0FBECDBFDF91BF
S1131420CF911F910F91FF90EF90DF90CF9008958F
S1131430EF92FF920F931F93CF93DF93CDB7DEB755
S113144064970FB6F894DEBF0FBECDBF81114DC0B7
S11314500F2EF7E5EF2EF7E0FF2EF02D10E0F70149
S113146061917F0120E0412F86E293E00E94D8053C
S11314701A5F1033A1F70E943B09282F332727FD59
S113148030953F938F938CE291E09F938F93CE019D
S113149001969F938F930E94D02C25E1F22EF81A87
S11314A00F900F900F900F900F900F90F4E1FF1595
S11314B0E0F0EF2CEE0CEF0CEE0C8C011127E1E0C8
S11314C0F0E0EC0FFD1FEF0DF11DE00FF11F75971C
S11314D020E04E2D608186E293E00E94D805F394CB
S11314E026E0E20E85E1F812EACF64960FB6F8948E
S11314F0DEBF0FBECDBFDF91CF911F910F91FF9043
S1131500EF9008951F93CF93DF9381110DC0CFE522
S1131510D7E010E5699128E3412F86E293E00E9429
S1131520D8051A5F1038B1F7DF91CF911F91089554
S1131530CF92DF92EF92FF926B017C0120E030E0CA
S113154040EB51E40E944D25882354F020E030E024
S113155049EA53E4C701B6010E94FD26882344F0FA
S11315602CE140E56EE486E293E00E94D80599C040
S113157020E030E048E852E4C701B6010E944D255E
S113158088237CF42CE14DE46EE486E293E00E942F
S1131590D8052CE143E56FE486E293E00E94D80588
S11315A080C020E030E042EE52E4C701B6010E9460
S11315B04D25882344F42CE140E56FE486E293E072
S11315C00E94D8056EC020E030E04EE153E4C7012C
S11315D0B6010E944D2588237CF42CE14DE463E59B
S11315E086E293E00E94D8052CE143E56FE486E2AD
S11315F093E00E94D80555C020E030E04BE453E46A
S1131600C701B6010E944D25882344F42CE140E52E
S113161063E586E293E00E94D80543C020E030E011
S113162048E753E4C701B6010E944D2588237CF4A2
S11316302CE14DE463E586E293E00E94D8052CE1B9
S113164043E567E586E293E00E94D8052AC020E0DE
S113165030E842E953E4C701B6010E944D258823CE
S113166044F42CE140E567E586E293E00E94D80566
S113167018C020E030E049EA53E4C701B6010E94F3
S11316804D25882374F42CE14DE46EE486E293E066
S11316900E94D8052CE143E567E586E293E00E94C9
S11316A0D805FF90EF90DF90CF900895AF92BF924E
S11316B0CF92DF92EF92FF920F931F9359016A0129
S11316C0E12CF12C0CE812E424E1462F682F86E289
S11316D093E00E94B3041F910F91FF90EF90DF906D
S11316E0CF90BF90AF900895AF92BF92CF92DF9208
S11316F0EF92FF920F931F9359016A01E12CF12C91
S11317000CE812E42AE0462F682F86E293E00E9458
S1131710B3041F910F91FF90EF90DF90CF90BF9093
S1131720AF900895CF92DF92EF92FF920F931F93A1
S1131730CF93DF93CDB7DEB764970FB6F894DEBFCF
S11317400FBECDBF86E293E00E94ED0280E1E6E3A6
S1131750F1E08E010F5F1F4FD80101900D928A9521
S1131760E1F7E02EF12E680110E0F60161916F01BE
S113177020E0412F86E293E00E94D8051A5F1A35D3
S1131780A1F781E1E6E4F1E0DE01119601900D920A
S11317908A95E1F7CE2CDF2C10E0F60161916F0100
S11317A028E0412F86E293E00E94D8051A5F1036A4
S11317B0A1F78AE0E7E5F1E0DE01119601900D92D0
S11317C08A95E1F7CE2CDF2C10E0F60161916F01D0
S11317D020E1412F86E293E00E94D8051A5F163378
S11317E0A1F78BE0E1E6F1E0DE01119601900D92A4
S11317F08A95E1F7CE2CDF2C10E0F60161916F01A0
S113180028E1412F86E293E00E94D8051A5F1C3339
S1131810A1F780E1ECE6F1E0DE01119601900D9272
S11318208A95E1F7CE2CDF2C10E0F60161916F016F
S113183020E2412F86E293E00E94D8051A5F1A3510
S1131840A1F78EE0ECE7F1E0DE01119601900D9234
S11318508A95E1F7CE2CDF2C10E0F60161916F013F
S113186028E2412F86E293E00E94D8051A5F1E34D5
S1131870A1F78EE0EAE8F1E0DE01119601900D9205
S11318808A95E1F7CE2CDF2C10E0F60161916F010F
S113189020E3412F86E293E00E94D8051A5F1E34AC
S11318A0A1F764960FB6F894DEBF0FBECDBFDF91EB
S11318B0CF911F910F91FF90EF90DF90CF900895FB
S11318C0AF92BF92DF92EF920F931F93CF93DF9368
S11318D0CDB7DEB764970FB6F894DEBF0FBECDBFA9
S11318E086E293E00E94ED0281E1E8E9F1E08E01F5
S11318F00F5F1F4FD80101900D928A95E1F7D02E0A
S1131900E12E580110E0F50161915F0120E0412FC3
S113191086E293E00E94D8051A5F1036A1F786E1AB
S1131920E9EAF1E0DE01119601900D928A95E1F762
S1131930AD2CBE2C10E0F50161915F0128E0412F30
S113194086E293E00E94D8051A5F1E37A1F781E171
S1131950EFEBF1E0DE01119601900D928A95E1F72B
S1131960AD2CBE2C10E0F50161915F0120E1412F07
S113197086E293E00E94D8051A5F1036A1F76496B8
S11319800FB6F894DEBF0FBECDBFDF91CF911F918C
S11319900F91EF90DF90BF90AF900895AF92BF92F8
S11319A0DF92EF920F931F93CF93DF93CDB7DEB700
S11319B064970FB6F894DEBF0FBECDBF86E293E006
S11319C00E94ED0286E0E0EDF1E08E010F5F1F4F13
S11319D0D80101900D928A95E1F7D02EE12E58019D
S11319E010E0F50161915F0120E0412F86E293E070
S11319F00E94D8051A5F1E31A1F78BE0E6EDF1E0F5
S1131A00DE01119601900D928A95E1F7AD2CBE2C62
S1131A1010E0F50161915F0128E0412F86E293E037
S1131A200E94D8051A5F1C33A1F788E0E1EEF1E0CB
S1131A30DE01119601900D928A95E1F7AD2CBE2C32
S1131A4010E0F50161915F0120E1412F86E293E00E
S1131A500E94D8051A5F1A32A1F788E0E9EEF1E096
S1131A60DE01119601900D928A95E1F7AD2CBE2C02
S1131A7010E0F50161915F0128E1412F86E293E0D6
S1131A800E94D8051A5F1A32A1F78CE0E1EFF1E069
S1131A90DE01119601900D928A95E1F7AD2CBE2CD2
S1131AA010E0F50161915F0120E2412F86E293E0AD
S1131AB00E94D8051A5F1234A1F764960FB6F89401
S1131AC0DEBF0FBECDBFDF91CF911F910F91EF907D
S1131AD0DF90BF90AF900895DF92EF92FF920F9343
S1131AE01F93CF93DF93CDB7DEB764970FB6F89407
S1131AF0DEBF0FBECDBF83E193E00E94832286E266
S1131B0093E00E94ED0201E020916907409168078B
S1131B106091670786E293E00E949C060F2EF7E52A
S1131B20EF2EF7E0FF2EF02D11E4F70161917F0114
S1131B3020E0412F86E293E00E94D8051A5F113716
S1131B40A1F70F2EFFE5EF2EF7E0FF2EF02D11E4A5
S1131B50F70161917F0128E3412F86E293E00E941F
S1131B60D8051A5F1137A1F70E943B09282F3327A4
S1131B7027FD30953F938F9381E391E09F938F935B
S1131B80CE0101969F938F930E94D02C0F900F90BB
S1131B900F900F900F900F90882359F18E010F5FD3
S1131BA01F4F81506894EE24E1F8F12CEC0EFD1ED9
S1131BB0E80EF11C0F2EF9E4DF2EF02DF8016191EF
S1131BC08F01862F877F853239F428E14D2D86E2F7
S1131BD093E00E94D80508C0605324E14DEF4D0DF9
S1131BE086E293E00E942606F0E1DF0E0E151F0543
S1131BF029F7E7E1F3E083818F9382818F938181D9
S1131C008F9380818F938DEF91E09F938F93CE017B
S1131C1001969F938F930E94D02C0FB6F894DEBF49
S1131C200FBECDBF8823F1F08E010F5F1F4F81508F
S1131C306894EE24E1F8F12CEC0EFD1EE80EF11C84
S1131C400F2EF6E4DF2EF02DF80161918F0128E2CA
S1131C504D2D86E293E00E94D805F6E0DF0E0E15C6
S1131C601F0591F764960FB6F894DEBF0FBECDBF83
S1131C70DF91CF911F910F91FF90EF90DF90089526
S1131C800F931F93CF93DF9386E293E00E94ED02BC
S1131C9000E020916907409168076091670786E238
S1131CA093E00E949C06C7E5D7E011E4699120E027
S1131CB0412F86E293E00E94D8051A5F1F35B1F7E1
S1131CC0CFE5D7E011E4699128E3412F86E293E060
S1131CD00E94D8051A5F1137B1F760915707605316
S1131CE02DE046E486E293E00E94260660915807C0
S1131CF060532DE046E586E293E00E94260660915B
S1131D005A07605322E246E486E293E00E942606E4
S1131D1060915B07605322E246E586E293E00E940D
S1131D202606DF91CF911F910F9108952F923F9234
S1131D304F925F926F927F928F929F92AF92BF92D7
S1131D40CF92DF92EF92FF920F931F93CF93DF9383
S1131D50CDB7DEB762970FB6F894DEBF0FBECDBF26
S1131D60762E672E582E492E822E232E942E352E13
S1131D70EB86FC860D871E872FA12F8738A5388B0D
S1131D8089A5898B9AA59A8B86E293E00E94ED023D
S1131D9080E00E94180A80E00E94820A4F925F92BB
S1131DA06F927F9284E092E09F938F93CE0101968D
S1131DB09F938F930E94D02C27E0022F081B0FB60D
S1131DC0F894DEBF0FBECDBF073018F5102F129563
S1131DD0107F7C01FF24E1E0F0E0EC0FFD1FE00F39
S1131DE0F11DEE0DFF1D379760816E3239F420E24C
S1131DF0412F86E293E00E94D80507C0605328E192
S1131E00412F86E293E00E9426060F5F105F0730A1
S1131E1011F728E142E76BE686E293E00E94D805D9
S1131E2028E148E76DE686E293E00E94D80520E2C7
S1131E3042E768E686E293E00E94D8053F929F92CB
S1131E402F928F9284E092E09F938F93CE0101961C
S1131E509F938F930E94D02C482E0FB6F894DEBF28
S1131E600FBECDBF882399F0CE0101963C017C01C1
S1131E7010E0F70161917F0128E3412F86E293E0AE
S1131E800E94D8051A5F8E2D8619841590F3282D8B
S1131E90322D492D532D6FE18FE10E94740BFE8585
S1131EA0FF932D852F933C853F938B858F938AE0F9
S1131EB092E09F938F93CE0101969F938F930E94FC
S1131EC0D02C882E0FB6F894DEBF0FBECDBF88236A
S1131ED0C1F09E012F5F3F4F790189010F2EF6E477
S1131EE09F2EF02DF80161918F0120E1492D86E2AA
S1131EF093E00E94D805F6E09F0E902F9E19981546
S1131F0088F3DF92CF92BF92AF9280E192E09F93E9
S1131F108F93CE0101969F938F930E94D02CC82E4D
S1131F200FB6F894DEBF0FBECDBF8823B9F0CE0143
S1131F3001967C018C010F2EF6E4DF2EF02DF801C2
S1131F4061918F0128E24D2D86E293E00E94D8052D
S1131F50F6E0DF0E902F9E199C1588F32A892F93A3
S1131F6039893F9388898F939F859F9388E192E075
S1131F709F938F93CE0101969F938F930E94D02CB1
S1131F80C82E0FB6F894DEBF0FBECDBF8823C1F0B4
S1131F909E012F5F3F4F790189010F2EF6E4DF2E5A
S1131FA0F02DF80161918F0120E34D2D86E293E03D
S1131FB00E94D805F6E0DF0E902F9E199C1588F339
S1131FC062960FB6F894DEBF0FBECDBFDF91CF91FE
S1131FD01F910F91FF90EF90DF90CF90BF90AF9043
S1131FE09F908F907F906F905F904F903F902F9035
S1131FF00895CF92DF92EF92FF920F931F93CF93A6
S1132000DF93CDB7DEB764970FB6F894DEBF0FBE8B
S1132010CDBF86E293E00E94ED0288E0EDE1F2E0BC
S11320208E010F5F1F4FD80101900D928A95E1F741
S1132030E02EF12E680110E0F60161916F0120E0BD
S1132040412F86E293E00E94D8051A5F1A32A1F765
S113205088E0E5E2F2E0DE01119601900D928A95A6
S1132060E1F7CE2CDF2C10E0F60161916F0128E03E
S1132070412F86E293E00E94D8051A5F1A32A1F735
S113208088E0EDE2F2E0DE01119601900D928A956E
S1132090E1F7CE2CDF2C10E0F60161916F0120E115
S11320A0412F86E293E00E94D8051A5F1A32A1F705
S11320B088E0E5E3F2E0DE01119601900D928A9545
S11320C0E1F7CE2CDF2C10E0F60161916F0128E1DD
S11320D0412F86E293E00E94D8051A5F1A32A1F7D5
S11320E088E0EDE3F2E0DE01119601900D928A950D
S11320F0E1F7CE2CDF2C10E0F60161916F0120E2B4
S1132100412F86E293E00E94D8051A5F1A32A1F7A4
S113211088E0E5E4F2E0DE01119601900D928A95E3
S1132120E1F7CE2CDF2C10E0F60161916F0128E27B
S1132130412F86E293E00E94D8051A5F1A32A1F774
S113214088E0EDE4F2E0DE01119601900D928A95AB
S1132150E1F7CE2CDF2C10E0F60161916F0120E352
S1132160412F86E293E00E94D8051A5F1A32A1F744
S113217088E0E5E5F2E0DE01119601900D928A9582
S1132180E1F7CE2CDF2C10E0F60161916F0128E31A
S1132190412F86E293E00E94D8051A5F1A32A1F714
S11321A064960FB6F894DEBF0FBECDBFDF91CF911A
S11321B01F910F91FF90EF90DF90CF9008959F9221
S11321C0AF92BF92CF92DF92EF92FF920F931F9341
S11321D0CF93DF93CDB7DEB764970FB6F894DEBF25
S11321E00FBECDBFC62ED72EE82EF92E83E193E085
S11321F00E94FB2183E193E00E94832286E293E024
S11322000E94ED020F2EF7E5AF2EF7E0BF2EF02D62
S113221011E4F50161915F0120E0412F86E293E032
S11322200E94D8051A5F1137A1F70F2EFFE5AF2ED4
S1132230F7E0BF2EF02D11E4F50161915F0128E371
S1132240412F86E293E00E94D8051A5F1137A1F767
S11322504091130350911403609115037091160378
S113226083E193E00E9400239F938F937F936F9366
S11322708DE592E09F938F93CE0101969F938F9368
S11322800E94D02C0FB6F894DEBF0FBECDBF8823BA
S1132290F1F08E010F5F1F4F81506894AA24A1F8BA
S11322A0B12CAC0EBD1EA80EB11C0F2EF1E49F2E56
S11322B0F02DF80161918F012AE0492D86E293E027
S11322C00E94D805F6E09F0E0A151B0591F7E7E179
S11322D0F3E083818F9382818F9381818F938081B7
S11322E08F938DEF91E09F938F93CE0101969F93EF
S11322F08F930E94D02C0FB6F894DEBF0FBECDBFD3
S11323008823F1F08E010F5F1F4F81506894AA2437
S1132310A1F8B12CAC0EBD1EA80EB11C0F2EF1E419
S11323209F2EF02DF80161918F0128E2492D86E25C
S113233093E00E94D805F6E09F0E0A151B0591F75D
S1132340FF92EF92DF92CF9287E692E09F938F9372
S1132350CE0101969F938F930E94D02C0FB6F894D0
S1132360DEBF0FBECDBF8823F1F08E010F5F1F4F7C
S113237081506894AA24A1F8B12CAC0EBD1EA80EFD
S1132380B11C0F2EF1E49F2EF02DF80161918F0105
S113239020E3492D86E293E00E94D805F6E09F0EE3
S11323A00A151B0591F72C2D3D2D4E2D5F2D6FE148
S11323B08FE10E94560B6C2D7D2D8E2D9F2D0E943A
S11323C0980A64960FB6F894DEBF0FBECDBFDF91B6
S11323D0CF911F910F91FF90EF90DF90CF90BF901E
S11323E0AF909F900895AF92BF92DF92EF920F93B8
S11323F01F93CF93DF93CDB7DEB764970FB6F894EE
S1132400DEBF0FBECDBF86E293E00E94ED0288E0FE
S1132410E2E7F2E08E010F5F1F4FD80101900D92A9
S11324208A95E1F7D02EE12E580110E0F501619173
S11324305F0120E0412F86E293E00E94D8051A5FF5
S11324401A32A1F760910C03662339F0605D20E035
S11324504AE286E293E00E94D80590914F078DEC02
S1132460989F212D11242695269526952983220FA0
S1132470322F330F330F230F921B9A839AE39B83DC
S113248020915007289F312D112436953695369585
S11324903C83330F432F440F440F340F231B2D83EE
S11324A09E8390915107989F812D1124869586953E
S11324B086958F83880F282F220F220F820F981B57
S11324C09887AD2CBE2C10E0F50161915F016A3351
S11324D039F424E1412F86E293E00E94D80506C036
S11324E020E1412F86E293E00E942606105F103817
S11324F059F764960FB6F894DEBF0FBECDBFDF91D7
S1132500CF911F910F91EF90DF90BF90AF900895FE
S1132510AF92BF92DF92EF920F931F93CF93DF930B
S1132520CDB7DEB764970FB6F894DEBF0FBECDBF4C
S113253086E293E00E94ED028BE0EAE7F2E08E018E
S11325400F5F1F4FD80101900D928A95E1F7D02EAD
S1132550E12E580110E0F50161915F0120E0412F67
S113256086E293E00E94D8051A5F1C33A1F790918C
S113257037078DEC989F212D1124269526952695B5
S11325802983220F322F330F330F230F921B9A8389
S11325909AE39B8320913807289F312D1124369587
S11325A0369536953C83330F432F440F440F340F35
S11325B0231B2D839E8390913907989F812D11248D
S11325C08695869586958F83880F282F220F220F54
S11325D0820F981B9887AD2CBE2C10E0F5016191F9
S11325E05F016A3339F424E1412F86E293E00E94CB
S11325F0D80506C020E1412F86E293E00E9426061A
S1132600105F103859F764960FB6F894DEBF0FBE0A
S1132610CDBFDF91CF911F910F91EF90DF90BF90CD
S1132620AF900895BF92CF92DF92EF92FF920F93F3
S11326301F93CF93DF93CDB7DEB764970FB6F894AB
S1132640DEBF0FBECDBF83E193E00E94FB2183E197
S113265093E00E94832286E293E00E94ED0280E0F0
S11326600E94180A80E00E94820A8EE0E5E8F2E007
S11326708E010F5F1F4FD80101900D928A95E1F7EB
S1132680C02ED12E780110E0F70161917F0120E185
S1132690412F86E293E00E94D8051A5F1E34A1F709
S11326A0E3E1F3E083818F9382818F9381818F9320
S11326B080818F9383E992E09F938F93CE0101965B
S11326C09F938F930E94D02C0FB6F894DEBF0FBE59
S11326D0CDBF8823D1F081506894EE24E1F8F12C29
S11326E0EC0EFD1EE80EF11C0C2D1D2DB12CF80175
S11326F061918F0128E14B2D86E293E00E94D80579
S1132700F6E0BF0E0E151F0591F74091130350918B
S11327101403609115037091160383E193E00E9402
S113272000239F938F937F936F938CE992E09F9301
S11327308F93CE0101969F938F930E94D02C0FB656
S1132740F894DEBF0FBECDBF8823D1F081506894CA
S1132750EE24E1F8F12CEC0EFD1EE80EF11C0C2D1C
S11327601D2DB12CF80161918F0120E24B2D86E2E1
S113277093E00E94D805F6E0BF0E0E151F0591F7F1
S1132780E7E1F3E083818F9382818F9381818F933B
S113279080818F938DEF91E09F938F93CE0101966B
S11327A09F938F930E94D02C0FB6F894DEBF0FBE78
S11327B0CDBF8823D1F081506894EE24E1F8F12C48
S11327C0EC0EFD1EE80EF11C0C2D1D2DD12CF80174
S11327D061918F0120E34D2D86E293E00E94D8059C
S11327E0F6E0DF0E0E151F0591F764960FB6F89408
S11327F0DEBF0FBECDBFDF91CF911F910F91FF9030
S1132800EF90DF90CF90BF9008952F923F924F9218
S11328105F926F927F928F929F92AF92BF92CF926C
S1132820DF92EF92FF920F931F93CF93DF93CDB775
S1132830DEB766970FB6F894DEBF0FBECDBF87E54F
S113284097E00E94632486E293E00E94ED02912CBB
S11328500F2EFFE06F2EF02DCE0101967C01782E15
S11328608F2CB12C8D8BFE8A0F2EFDECAF2EF02D0C
S11328700F2EFBE64F2EF7E05F2EF02D0F2EFCE619
S1132880CF2EF7E0DF2EF02DEAEAF2E0A72DB82DE7
S1132890862D01900D928A95E1F7272C382C1B2D5B
S11328A0F10161911F012B2D412F86E293E00E94DB
S11328B0D8051A5F1435A1F7EFE0F1E0A72DB82D84
S11328C0862D01900D928A95E1F72D883E881B2D67
S11328D0F10161911F0128E0412F86E293E00E94FB
S11328E0D8051A5F1435A1F7E7E6F7E080818A9DE1
S11328F0912D11249695969596959983990F292F44
S1132900220F220F920F891B8A83FAE3FB83E8E6E6
S1132910F7E080818A9D912D112496959695969540
S11329209C83990F292F220F220F920F891B8D83CD
S113293080E28E83F20180818A9D912D11249695E7
S1132940969596959F83990F292F220F220F920F08
S1132950891B88878EE28987F60190819A9D212DB3
S113296011242695269526952A87220F322F330F78
S1132970330F230F921B9B878C87EDE6F7E0808152
S11329808A9D912D11249695969596959D87990FDC
S1132990292F220F220F920F891B8E873B2C01E0D7
S11329A01B2D04C01F5F0F5FF0E13F0E123069F072
S11329B020E1432DF701E10FF11D608186E293E0F0
S11329C00E942606053070F308C024E148E26B81BA
S11329D086E293E00E94D805E5CF8E01095F1F4F80
S11329E02B2C0F2EF6E03F2EF02D88E0381661F0E8
S11329F09BE0391649F020E2422DF801608186E21D
S1132A0093E00E94260609C028E248E0420DF8013E
S1132A10608186E293E00E94D80533940F5F1F4FD4
S1132A20F0E12F0E8EE03812E0CF86E293E00E94B0
S1132A30930386E293E00E94ED02892D90E08A30B0
S1132A40910508F047C2FC01EC5CFF4F0C94732B1A
S1132A5085E293E00E94FC1E880F982F990F990F2E
S1132A60890F883108F451C2E7E6F7E01082E9EBF8
S1132A70F2E0A72DB82D862D01900D928A95E1F7ED
S1132A802D883E881B2DF10161911F0128E3412F00
S1132A9086E293E00E94D8051A5F1435A1F739C283
S1132AA085E293E00E94FC1EE7E6F7E0208190E0D7
S1132AB0820F911D883110F480835EC2E7E6F7E04F
S1132AC01082E9EBF2E0A72DB82D862D01900D922E
S1132AD08A95E1F72D883E881B2DF10161911F0134
S1132AE028E3412F86E293E00E94D8051A5F14354B
S1132AF0A1F712C285E293E00E94FC1E880F982F72
S1132B00990F990F890F8C3320F4E8E6F7E080835E
S1132B1033C2E8E6F7E01082E8ECF2E0A72DB82D26
S1132B20862D01900D928A95E1F72D883E881B2D04
S1132B30F10161911F0128E3412F86E293E00E9495
S1132B40D8051A5F1435A1F7EAC185E293E00E9423
S1132B50FC1EE8E6F7E0208190E0820F911D8C33A3
S1132B6010F4808309C2E8E6F7E01082E8ECF2E0B2
S1132B70A72DB82D862D01900D928A95E1F72D8809
S1132B803E881B2DF10161911F0128E3412F86E24C
S1132B9093E00E94D8051A5F1435A1F7C3C185E2FA
S1132BA093E00E94FC1E880F982F990F990F890FAC
S1132BB0803218F4F2018083DFC1F20110828BE0CD
S1132BC0E7EDF2E0A72DB82D01900D928A95E1F77B
S1132BD02D883E881B2DF10161911F0128E3412FAF
S1132BE086E293E00E94D8051A5F1C33A1F79DC1C9
S1132BF085E293E00E94FC1EF201208190E0820FA6
S1132C00911D803210F48083B7C1F20110828BE0F1
S1132C10E7EDF2E0A72DB82D01900D928A95E1F72A
S1132C202D883E881B2DF10161911F0128E3412F5E
S1132C3086E293E00E94D8051A5F1C33A1F77AC19B
S1132C4085E293E00E94FC1E880F982F990F990F3C
S1132C50890F8D3018F4F60180838EC1F60110823D
S1132C608DE0E2EEF2E0A72DB82D01900D928A9549
S1132C70E1F72D883E881B2DF10161911F0128E3A6
S1132C80412F86E293E00E94D8051A5F1834A1F719
S1132C9056C185E293E00E94FC1EF601208190E07B
S1132CA0820F911D8D3010F480831EC0F6011082B6
S1132CB08DE0E2EEF2E0A72DB82D01900D928A95F9
S1132CC0E1F72D883E881B2DF10161911F0128E356
S1132CD0412F86E293E00E94D8051A5F1834A1F7C9
S1132CE00F2EF5E09F2EF02DF6019081892F8D7F18
S1132CF0843011F0893009F5F20180818F3108F4B4
S1132D00EAC01082F60110828BE0E7EDF2E0A72D15
S1132D10B82D01900D928A95E1F72D883E881B2DE0
S1132D20F10161911F0128E3412F86E293E00E94A3
S1132D30D8051A5F1C33A1F707C1923009F0CBC044
S1132D40F20180818E3108F4C6C01082F60110822F
S1132D508BE0E7EDF2E0A72DB82D01900D928A9556
S1132D60E1F72D883E881B2DF10161911F0128E3B5
S1132D70412F86E293E00E94D8051A5F1C33A1F725
S1132D80E8C085E293E00E94FC1E880F982F990FFB
S1132D90990F890F823320F4EDE6F7E08083ECC0CD
S1132DA0EDE6F7E010828CE0EFEEF2E0A72DB82D0F
S1132DB001900D928A95E1F72D883E881B2DF10133
S1132DC061911F0128E3412F86E293E00E94D80518
S1132DD01A5F1234A1F7C2C085E293E00E94FC1E80
S1132DE0EDE6F7E0208190E0820F911D823310F42C
S1132DF080831FC0EDE6F7E010828CE0EFEEF2E096
S1132E00A72DB82D01900D928A95E1F72D883E8863
S1132E101B2DF10161911F0128E3412F86E293E00C
S1132E200E94D8051A5F1234A1F70F2EF7E09F2EE7
S1132E30F02DF6018081823009F04DC0EDE6F7E017
S1132E408081837021F5F20180818E3108F443C0C2
S1132E501082F6011082EDE6F7E010828BE0E7EDD8
S1132E60F2E0A72DB82D01900D928A95E1F72D88F7
S1132E703E881B2DF10161911F0128E3412F86E259
S1132E8093E00E94D8051A5F1C33A1F76CC0F201CD
S1132E9080818D3100F11082F6011082EDE6F7E0B9
S1132EA010828BE0E7EDF2E0A72DB82D01900D9292
S1132EB08A95E1F72D883E881B2DF10161911F0150
S1132EC028E3412F86E293E00E94D8051A5F1C3361
S1132ED0A1F74EC093949394FAE0F91508F0D4CC7A
S1132EE01092690710926A0786E293E00E94ED024D
S1132EF087E597E00E94722387E597E00E943923D3
S1132F0087E597E00E944A2439C0E7E6F7E080832A
S1132F1033C099249A9430C099249A942DC099244A
S1132F2093942AC09924939427C00F2EF3E09F2EE4
S1132F30F02D22C00F2EF3E09F2EF02D1DC00F2E7A
S1132F40F5E09F2EF02D18C00F2EF3E09F2EF02DEC
S1132F5013C00F2EF3E09F2EF02D0EC00F2EF7E0BE
S1132F609F2EF02D09C00F2EF3E09F2EF02D04C0EC
S1132F700F2EF3E09F2EF02D939486CC66960FB619
S1132F80F894DEBF0FBECDBFDF91CF911F910F919B
S1132F90FF90EF90DF90CF90BF90AF909F908F9075
S1132FA07F906F905F904F903F902F9008951F9265
S1132FB00F920FB60F9211248F93EF93FF931092F9
S1132FC0B200E9E6F7E080818F5F8083EEE6F7E008
S1132FD0808182608083FF91EF918F910F900FBE6B
S1132FE00F901F901895CF92DF92EF92FF920F935C
S1132FF01F93CF93DF93C4E8D0E00881198120E0C8
S113300030E048EC52E40E9454259B01AC010E943C
S113301087242BED3FE049E450E40E944D276B01E7
S11330207C01B80180E090E00E94ED2520E030E0D2
S113303040E05EE30E944D272DEB37E346E85AE378
S11330400E944D279B01AC01C701B6010E94542583
S1133050609308037093090380930A0390930B030E
S113306019821882DF91CF911F910F91FF90EF90F9
S1133070DF90CF900895FC01208130E0062E02C03D
S1133080359527950A94E2F720FD15C0FDE5FA95DC
S1133090F1F70000FC01808190E09C0102C03595AD
S11330A027956A95E2F720FF08C032E03A95F1F7D8
S11330B000C081E0089580E0089580E008951092B2
S11330C06E0710920E0310920D0310920C031092CF
S11330D008031092090310920A0310920B03109232
S11330E00403109205031092060310920703109232
S11330F00003109201031092020310920303109232
S1133100FC021092FD021092FE021092FF02109235
S11331108500109284008FE08AB98AB18F788AB9C9
S113312087B1837F87B988B18C6088B986E293E0E0
S11331300E94140386E293E00E94ED0280E48093EF
S11331407C00EAE7F0E083E080838081806880830C
S1133150808180648083808186FDFDCF80917800AA
S1133160909179000E94730987E597E00E943424C6
S113317087E597E00E944A2480910D0390910E0305
S1133180816090930E0380930D0378940895809149
S11331900D0381FF0DC063E086E290E00E943B18BE
S11331A0882331F060E77DE38EE092E40E94F31718
S11331B008954F925F926F927F92AF92BF92CF9297
S11331C0DF92EF92FF920F931F93CF93DF9380913F
S11331D06E0781FF55C187E597E00E940F24809117
S11331E00D0390910E039C01217030722130304206
S11331F061F40E94CE0C80910D0390910E039068AF
S113320090930E0380930D0336C19C012870307295
S11332102830304261F40E94600C80910D0390913B
S11332200E03906890930E0380930D0324C195FFC1
S11332300CC00E94920B80910D0390910E03906834
S113324090930E0380930D0316C185FF0CC00E945A
S1133250F90F80910D0390910E03906890930E03E3
S113326080930D0308C180FF0CC00E946C0D8091F7
S11332700D0390910E03906890930E0380930D03B9
S1133280FAC082FF10C08FE697E00E940F200E94D0
S1133290DF1080910D0390910E03906890930E03BC
S11332A080930D03E8C081FF8CC0409008035090C8
S11332B0090360900A0370900B032091000330917E
S11332C001034091020350910303C301B2010E9420
S11332D0FD26181644F440920003509201036092B4
S11332E002037092030320E030E0A901C301B2019C
S11332F00E944D25882399F08091FC029091FD0253
S1133300A091FE02B091FF020196A11DB11D809310
S1133310FC029093FD02A093FE02B093FF02209161
S11333200403309105034091060350910703C30140
S1133330B2010E9487242B013C0160930403709323
S113334005038093060390930703C091FC02D09178
S1133350FD021091FE020091FF02A0900003B090C4
S11333600103C0900203D09003038FE697E00E940C
S11333700F209B01AC0160910803709109038091B7
S11333800A0390910B030F931F93DF93CF93830151
S113339072010E94960E1092080310920903109273
S11333A00A0310920B0380910D0390910E03906811
S11333B090930E0380930D030F900F900F900F9036
S11333C05AC09C01287433272834310561F40E94C3
S11333D0F31180910D0390910E03906890930E0366
S11333E080930D0348C087FF17C083FF09C0E9E33A
S11333F0F7E080818F5F808387E297E00E940F244B
S11334000E94881280910D0390910E03906890930E
S11334100E0380930D032FC086FF20C0E1E5F7E083
S11334208081815080838FE397E00E946924882300
S113343049F080910D0390910E03906490930E03D4
S113344080930D030E94F31180910D0390910E035C
S1133450906890930E0380930D030DC091FF0BC0F1
S11334600E94121380910D0390910E039068909323
S11334700E0380930D03EEE6F7E080818D7F808359
S113348080916E0782FF16C080910D0390910E0308
S113349092FF0BC00E94400E80910D0390910E0389
S11334A0906890930E0380930D03EEE6F7E080811D
S11334B08B7F808380910D0390910E03992314F5E3
S11334C086E293E00E94930380910D0390910E0392
S11334D096FF0FC060916907617086E293E00E94D5
S11334E0890383E293E00E94672181E293E00E94D2
S11334F0CC2080910D0390910E039F7790930E033F
S113350080930D03DF91CF911F910F91FF90EF9066
S1133510DF90CF90BF90AF907F906F905F904F906F
S11335200895813409F41CC3EEE6F7E09081292F55
S11335302260208320910D0330910E032F3F31052B
S113354061F46FEA86E293E00E94F80280E090E280
S113355090930E0380930D030895A9014170507256
S11335604130504209F050C02E7F3F7D30930E030E
S113357020930D038333F1F028F4813341F0823337
S113358061F03BC0843311F1853371F136C02160A1
S113359030930E0320930D0308951092390710926F
S11335A03807109237072068306830930E03209351
S11335B00D030895109251071092500710924F076F
S11335C0286430930E0320930D03089586E293E05C
S11335D00E94ED0280910D0390910E0390689093E8
S11335E00E0380930D030895966090936E073468DC
S11335F030930E0320930D030895216030623093BD
S11336000E0320930D038BC2A901487050724830F9
S1133610504299F5277F3F7D30930E0320930D038D
S1133620823391F08333B1F0813301F58FE697E073
S11336300E94872080910D0390910E0384609093E3
S11336400E0380930D030895206230930E0320939C
S11336500D0308950E94051480910D0390910E03AB
S1133660816090930E0380930D0308952860306267
S113367030930E0320930D0352C235FF58C03F7D93
S113368030930E0320930D03482F50E0FA01F19775
S1133690E730F10508F045C0E25CFF4F0C94732B52
S11336A0226030930E0320930D03E1E8F0E0808163
S11336B085608083089586E293E00E94ED02809104
S11336C00D0390910E03906890930E0380930D0365
S11336D00895246030930E0320930D030895216010
S11336E0306230930E0320930D03089528603062F6
S11336F030930E0320930D03089586E293E00E9415
S1133700ED0280910D0390910E03906890930E0347
S113371080930D030895326030930E0320930D03BC
S11337200895306230930E0320930D03F8C125FFF2
S113373051C0A9014F7D446050930E0340930D0383
S1133740482F50E0FA01F197E830F105E0F5EB5B22
S1133750FF4F0C94732B40E061E08FE697E00E94EA
S11337600C1F089540E261E08FE697E00E940C1F71
S1133770089540E461E08FE697E00E940C1F0895ED
S113378040E661E08FE697E00E940C1F089540E850
S113379061E08FE697E00E940C1F089540EA61E023
S11337A08FE697E00E940C1F089540EC61E08FE6DD
S11337B097E00E940C1F089540EE61E08FE697E0C9
S11337C00E940C1F08952B7D206230930E032093DA
S11337D00D03A5C1A901487455274834510509F0C2
S11337E087C090910C039230A9F128F4992361F0D9
S11337F0913001F194C1943009F452C008F440C0EE
S1133800953009F463C08BC1833209F488C18A32CC
S113381009F485C1E1E5F7E0982F990F9056292F17
S1133820220F220F920F2081920F908391E09093A8
S11338300C0375C1833209F472C18A3209F46FC171
S1133840E1E5F7E090819053980F908392E0909394
S11338500C0365C1833209F462C18A3209F45FC181
S1133860E0E5F7E0982F990F9056292F220F220FA9
S1133870920F2081920F908393E090930C034FC199
S1133880833209F44CC18A3209F449C1E0E5F7E016
S113389090819053980F908394E090930C033FC1D0
S11338A0833209F43CC18A3209F439C1EFE4F7E008
S11338B0982F990F9056292F220F220F920F2081B3
S11338C0920F908395E090930C0329C1833241F0C9
S11338D08A3231F0EFE4F7E090819053980F9083AF
S11338E010920C03277F30930E0320930D0317C10E
S11338F027FF23C08A3271F423FF06C0277F309349
S11339000E0320930D0326C1286030930E032093E9
S11339100D0320C1803339F410923907109238070F
S1133920109237070895833209F01AC1277730625D
S113393030930E0320930D03089520FF1CC083329F
S113394039F42E7F306230930E0320930D030895D3
S1133950803309F0E4C083E293E00E9400218823CD
S113396029F083E293E00E943021089583E293E0FA
S11339700E94CC20089522FF1CC0833239F42B7F8F
S1133980306230930E0320930D030895803309F0C1
S1133990C6C083E293E00E940021882329F083E2D9
S11339A093E00E943021089583E293E00E94CC20AA
S11339B0089521FF3DC0833269F4C9018D7F90626F
S11339C090930E0380930D03E1E8F0E080818A7FF9
S11339D0808308958A32C9F410920003109201037F
S11339E01092020310920303109204031092050331
S11339F010920603109207031092FC021092FD022B
S1133A001092FE021092FF02A5C0803309F0A8C0F4
S1133A1083E293E00E940021882329F083E293E06B
S1133A200E943021089583E293E00E94CC200895FF
S1133A3031FF2CC0833241F4C9019D7F9062909381
S1133A400E0380930D0308958A3269F440911303A1
S1133A5050911403609115037091160383E193E070
S1133A600E94322377C0803309F07AC083E293E066
S1133A700E940021882329F083E293E00E943021F0
S1133A80089583E293E00E94CC20089526FF20C08D
S1133A90833209F044C02F7B3F7B30930E03209385
S1133AA00D0360E086E293E00E94890383E293E0E1
S1133AB00E94302181E293E00E94302180910D0325
S1133AC090910E03906290930E0380930D030895DA
S1133AD032FF1CC0833241F4C9019B7F90629093F2
S1133AE00E0380930D0308958033C9F483E293E0B9
S1133AF00E940021882329F083E293E00E94302170
S1133B00089583E293E00E94CC200895232B39F496
S1133B1080E090E290930E0380930D03089520912A
S1133B200D0330910E0336FF1BC08A32C9F43F7B6C
S1133B3030930E0320930D0360E086E293E00E942D
S1133B40890383E293E00E94302181E293E00E94A2
S1133B503021089520910D0330910E0336FDE7CFF7
S1133B6008950E945F180E94C7180E94D91885E220
S1133B7093E00E94621E0E94911AF5CF8FE697E0AF
S1133B800E942B1F87E597E00E94AB238FE397E009
S1133B900E94AB2387E297E00E94AB2386E293E086
S1133BA00E947D0385E293E00E943A1E47E064E4AC
S1133BB083E293E00E949B2040E062E481E293E090
S1133BC00E949B2083E193E00E94DD21089583E11C
S1133BD093E00E94A12181E293E00E94CB2083E242
S1133BE093E00E94CB2085E293E00E943B1E86E294
S1133BF093E00E94E90287E297E00E9438238FE372
S1133C0097E00E94382387E597E00E9438238FE6E7
S1133C1097E00E94081F089582E08093B8000895F9
S1133C20089584EA8093BC00089584E98093BC00DD
S1133C300895ECEBF0E080818823ECF76093BB00FF
S1133C4084E88093BC00ECEBF0E080818823ECF7FF
S1133C500895662321F084EC8093BC0003C084E8BB
S1133C608093BC00ECEBF0E080818823ECF780913A
S1133C70BB00089508950895FB01808190E0042E0F
S1133C8002C0959587950A94E2F780FF17C08FECE0
S1133C9097E00197F1F700C00000FB01808190E0FC
S1133CA09C0102C0359527954A95E2F720FD08C08E
S1133CB03AE13A95F1F700C081E0089580E0089573
S1133CC080E008951F93CF93DF93EC015B9A82E029
S1133CD08A95F1F700C044E069E270E0CE010E94E9
S1133CE03C1E811112C045E069E270E0CE010E94E1
S1133CF03C1E81110CC046E069E270E0CE010E94D6
S1133D003C1E811106C011E405C013E303C012E395
S1133D1001C011E35B985A9A82E08A95F1F700C0DA
S1133D2044E069E270E0CE010E943C1E811111C0A2
S1133D3045E069E270E0CE010E943C1E81110BC097
S1133D4046E069E270E0CE010E943C1E811105C08C
S1133D5005C016E303C015E301C014E35A98599A49
S1133D6082E08A95F1F700C044E069E270E0CE0198
S1133D700E943C1E811111C045E069E270E0CE0151
S1133D800E943C1E81110BC046E069E270E0CE0146
S1133D900E943C1E811105C005C019E303C018E34D
S1133DA001C017E35998589A82E08A95F1F700C048
S1133DB044E069E270E0CE010E943C1E811111C012
S1133DC045E069E270E0CE010E943C1E81110BC007
S1133DD046E069E270E0CE010E943C1E811105C0FC
S1133DE005C013E203C010E301C01AE25898812F02
S1133DF0DF91CF911F910895CF93DF93EC01CE0112
S1133E000E94621E80538A30D0F7DF91CF910895CB
S1133E1006960E94101E08950F931F93CF93DF936D
S1133E20062F142FEC012696CE010E94111E6CE37E
S1133E30CE010E94191E602FCE010E94191E612F0F
S1133E40CE010E94191ECE010E94151EDF91CF9152
S1133E501F910F910895CF93DF93EC0106960E9472
S1133E600C1E40E760E0CE010E940C1F40E261E0BE
S1133E70CE010E940C1F41E062E0CE010E940C1FA3
S1133E801982188218861F821B821A821A86198642
S1133E901D821C821C861B86DF91CF910895BF92E0
S1133EA0CF92DF92EF92FF920F931F93CF93DF9302
S1133EB000D000D000D0CDB7DEB76C01F8947C01FF
S1133EC026E0E20EF11CC7010E94111E6CE3C7013B
S1133ED00E94191E63E0C7010E94191EC7010E94B7
S1133EE0111E6DE3C7010E94191E8E010F5F1F4F43
S1133EF0B12C84E08B1538F061E0C7010E94291EC3
S1133F00F801808306C060E0C7010E94291EF80101
S1133F108083B3940F5F1F4FF6E0BF12EACFC7014F
S1133F200E94151E898190E0982F88272A81822B70
S1133F30F601918380838B8190E0982F88272C81D0
S1133F40822B958384838D8190E0982F88272E81FE
S1133F50822B938382837894F601808191818115E9
S1133F60904F09F447C0F601828193818115904FE7
S1133F7009F442C0F601848195818115904FF1F1D5
S1133F80F60183E0DF0120813181458556854217A2
S1133F9053078CF43687258743895489240F351FAA
S1133FA0332314F42F5F3F4F3595279518963C9390
S1133FB02E9317971AC063897489261737077CF4E0
S1133FC0348B238B240F351F332314F42F5F3F4F7F
S1133FD03595279518963C932E93179706C04781DD
S1133FE05085241B350B31832083815032968111F7
S1133FF0C9CF05C081E003C081E001C081E02696FD
S11340000FB6F894DEBF0FBECDBFDF91CF911F91E5
S11340100F91FF90EF90DF90CF90BF900895CF92D3
S1134020DF92EF92FF92CF93DF93EC010E944F1F38
S1134030811157C06C817D81882777FD8095982FE9
S11340400E94EF256B017C0168817981882777FDC7
S11340508095982F0E94EF25A70196010E94FA24CB
S113406020E030E044E353E40E944D272BED3FE091
S113407049E450E40E94542520E030E044E353E452
S11340800E94872426E636E646E150E40E9487240F
S11340906B017C0120E030E044EB53E40E94FD26F8
S11340A088235CF020E030E044EB53E4C701B60120
S11340B00E9486246B017C011CC020E030E0A90131
S11340C0C701B6010E944D2588239CF420E030E00E
S11340D044EB53E4C701B6010E9487246B017C01C1
S11340E008C00F2EC12CD12CF0E8EF2EFFEBFF2ED1
S11340F0F02D41E062E0CE010E940C1FC701B60121
S1134100DF91CF91FF90EF90DF90CF900895FC0165
S113411016861586148A138A10861782108A1786C3
S1134120168A158A12861186128A118A108E178AA7
S1134130148613860895FC0141836083633489F0F7
S11341406434E1F0623431F524B181E090E0BC01E3
S113415002C0660F771F4A95E2F7AB01422B44B9C0
S1134160089527B181E090E0FC0102C0EE0FFF1F2B
S11341704A95E2F7AF01422B47B908952AB181E08D
S113418090E0BC0102C0660F771F4A95E2F7AB01CD
S1134190422B4AB908950895FC012081233491F0FB
S11341A02434F9F0223459F545B121E030E0B90165
S11341B0018002C0660F771F0A94E2F7CB01842BBB
S11341C085B9089548B121E030E0B901FC010180CE
S11341D002C0660F771F0A94E2F7CB01842B88B9DB
S11341E008954BB121E030E0B901FC01018002C027
S11341F0660F771F0A94E2F7CB01842B8BB90895DD
S1134200FC012081233481F02434D9F0223431F5A7
S113421025B130E0A901018002C0559547950A9463
S1134220E2F7CA018170089528B130E0A901FC01C8
S1134230018002C0559547950A94E2F7CA0181703E
S113424008952BB130E0A901FC01018002C055950D
S113425047950A94E2F7CA018170089582E00895AF
S1134260FC012081233499F0243409F1223471F5BE
S113427045B121E030E0B901018002C0660F771F2B
S11342800A94E2F7CB018095842385B9089548B157
S113429021E030E0B901FC01018002C0660F771F04
S11342A00A94E2F7CB018095842388B908954BB131
S11342B021E030E0B901FC01018002C0660F771FE4
S11342C00A94E2F7CB01809584238BB90895FC010D
S11342D020812334A1F0243419F1223489F525B145
S11342E030E0018002C0359527950A94E2F720FF5B
S11342F003C00E94302108950E94CC20089528B163
S113430030E0FC01018002C0359527950A94E2F75C
S113431020FF03C00E94302108950E94CC200895FC
S11343202BB130E0FC01018002C0359527950A9439
S1134330E2F720FF03C00E94302108950E94CC20A0
S113434008950D960E94101E08950F931F93CF9306
S1134350DF93062F142FEC012D96CE010E94111E1F
S11343606AEBCE010E94191E602FCE010E94191E15
S1134370612FCE010E94191ECE010E94151EDF91ED
S1134380CF911F910F910895CF93DF93EC0140E0FB
S113439060E10E94A52144EA60E2CE010E94A521C9
S11343A040ED61E2CE010E94A52147EC6EE2CE0110
S11343B00E94A521DF91CF910895CF93DF93EC0163
S11343C00D960E940C1E188219821A821B821C826E
S11343D01D821E821F828CEF888740E050E060E8D7
S11343E07FE349875A876B877C87CE010E94C4216B
S11343F0DF91CF910895AF92BF92CF92DF92EF9267
S1134400FF921F93CF93DF9300D01F92CDB7DEB7F7
S11344105C01F8947C018DE0E80EF11CC7010E9458
S1134420111E6AEBC7010E94191E68EAC7010E94A7
S1134430191EC7010E94111E6BEBC7010E94191EB1
S1134440FE0131966F0110E0123038F461E0C701CB
S11344500E94291EF601808306C060E0C7010E9405
S1134460291EF60180831F5FFFEFCF1ADF0A133086
S113447059F7C7010E94151E6B8170E080E090E03F
S11344800E94ED2520E030E040E857E40E944D27EB
S11344906B017C016A8170E080E090E00E94ED2570
S11344A020E030E040E853E40E944D279B01AC013A
S11344B0C701B6010E9487246B017C01698170E009
S11344C080E090E00E94ED259B01AC01C701B6019C
S11344D00E94872420E030E040E859E30E944D2701
S11344E0F501608371838283938378940F900F9096
S11344F00F90DF91CF911F91FF90EF90DF90CF90BD
S1134500BF90AF900895CF92DF92EF92FF920F93F6
S11345101F93CF93DF9300D0CDB7DEB78C01F8940F
S11345207C018DE0E80EF11CC7010E94111E6AEBAC
S1134530C7010E94191E6BEAC7010E94191EC70118
S11345400E94111E6BEBC7010E94191ECC24C39458
S1134550D12C02C0D394C394D11006C061E0C7012A
S11345600E94291E8983F6CF60E0C7010E94291E9C
S1134570E1E0F0E0EC0FFD1FED0DF11D8083E1E0C3
S1134580EC1540F7C7010E94151E89816A8170E00D
S1134590762F6627680F711D882777FD8095982FE1
S11345A00E94EF2520E030E040EF53E40E945425C0
S11345B06B017C01F8016085772767FD7095872F73
S11345C0972F0E94EF2520E030E04AE252E40E9457
S11345D087249B01AC01C701B6010E948724F8011E
S11345E0648375838683978378940F900F90DF910B
S11345F0CF911F910F91FF90EF90DF90CF9008958E
S11346008F929F92AF92BF92CF92DF92EF92FF92DE
S1134610FC01C184D284E384F4849A01AB01C70110
S1134620B6010E9454250E940D274B015C0120E035
S113463030E048EC52E4C701B6010E944D27A501C1
S113464094010E944D272CED3EEF4CE351E40E946F
S11346505425FF90EF90DF90CF90BF90AF909F9044
S11346608F900895FC01418752876387748708956A
S11346700895FC0190898DEC989F212D1124269595
S11346802695269530E3320F3083220F322F330FD5
S1134690330F230F921B905D91839189989F212D55
S11346A0112426952695269530E3320F3383220F65
S11346B0322F330F330F230F921B905D9483928913
S11346C0989F812D112486958695869520E3280F41
S11346D02683880F282F220F220F820F981B905DAC
S11346E097830895FC0194898DEC989F212D1124C2
S11346F026952695269530E3320F3087220F322FE8
S1134700330F330F230F921B905D91879589989FE8
S1134710212D112426952695269530E3320F3387D3
S1134720220F322F330F330F230F921B905D948788
S11347309689989F812D112486958695869520E3E8
S1134740280F2687880F282F220F220F820F981BED
S1134750905D97870895CF93DF93EC011A8A1B8AA3
S1134760198A188A1C8A1D8A1E8AFC0180E011920B
S11347708F5F8830E1F78AE38A838D838EE28A87AC
S11347808D87CE010E943923CE010E947223DF91CE
S1134790CF910895FC012589322F3D7F343011F0EB
S11347A0393091F4FC0134893F31B0F131E0348B7C
S11347B02F5F2D3010F4258B2FC021E0FC01258BB9
S11347C026892F5F268B28C02230A9F4FC01268974
S11347D0237041F424892E31F8F021E0248B23E066
S11347E0258B1AC0FC0124892D31B0F021E0248BE3
S11347F023E0258B11C0FC013489303268F031E0AC
S1134800348B2F5F2D3010F4258B06C021E0FC0182
S1134810258B26892F5F268B0E9472230895CF93C0
S1134820DF93EC018A898C538D38B8F41A8A89890C
S11348308F5F898B9F8994609F8B8C3320F0198ABA
S113484088898F5F888B8889883138F0188A8C89A9
S11348508F5F8C8BCE010E94CA23CE010E94392324
S113486080E0DF91CF910895CF93DF93EC018AE04C
S1134870888B8EE1898B87E08C8B89E08D8B8FE030
S11348808E8BCE010E947223CE010E943923DF91C8
S1134890CF910895FC0180E3808381839AE392831E
S11348A0838384839583868387831092B200E6EBA7
S11348B0F0E080818062808381E08093700085E0F5
S11348C08093B1000895E1EBF0E08081897F8083DB
S11348D00895FC0182898D33B8F08BE3828B818942
S11348E081508D3318F4818B80E008958BE3818BA4
S11348F080898150893118F4808B80E00895108A72
S1134900118A128A81E0089580E008955058BB27E7
S1134910AA270ED027C2F0D130F0F5D120F031F41F
S11349209F3F11F41EF4C0C10EF4E095E7FBB6C13D
S1134930E92F3AD280F3BA17620773078407950701
S113494018F071F49EF552C20EF4E0950B2EBA2FB6
S1134950A02D0B01B90190010C01CA01A001112481
S1134960FF27591B99F0593F50F4503E68F11A162D
S1134970F040A22F232F342F4427585FF3CF4695BE
S113498037952795A795F0405395C9F77EF41F16E0
S1134990BA0B620B730B840BBAF09150A1F0FF0FAA
S11349A0BB1F661F771F881FC2F70EC0BA0F621F96
S11349B0731F841F48F4879577956795B795F79586
S11349C09E3F08F0B3CF9395880F08F09927EE0F18
S11349D097958795089590D158F080E891E009F46F
S11349E09EEF91D128F040E851E059F45EEF09C000
S11349F05BC1FCC1E92FE078D7D168F3092E052A01
S1134A00C1F3261737074807590738F00E2E07F861
S1134A10E02569F0E025E0640AC0EF6307F800943C
S1134A2007FADB01B9019D01DC01CA01AD01EF9375
S1134A304AD098D10AD05F91552331F02BED3FE055
S1134A4049E450FD49EC63CF0895DF93DD27B92F86
S1134A50BF7740E85FE31616170648075B0710F4B4
S1134A60D92FCFD19F938F937F936F937FD2EAE90E
S1134A70F0E01DD177D12F913F914F915F9119D2E1
S1134A80DD2349F09058A2EA2AED3FE049EC5FE3C8
S1134A90D0785D274DDFDF9165C1DCD008F481E07B
S1134AA0089539D1E3956FC10CD05CC12CD140F08D
S1134AB023D130F021F45F3F19F0F0C0511197C1B8
S1134AC0F3C072D198F39923C9F35523B1F3951B1D
S1134AD0550BBB27AA2762177307840738F09F5F1B
S1134AE05F4F220F331F441FAA1FA9F333D00E2E8A
S1134AF03AF0E0E830D091505040E695001CCAF7F7
S1134B0029D0FE2F27D0660F771F881FBB1F2617BB
S1134B1037074807AB07B0E809F0BB0B802DBF018E
S1134B20FF2793585F4F2AF09E3F510568F0B6C0A7
S1134B305EC15F3FECF3983EDCF38695779567950D
S1134B40B795F7959F5FC9F7880F911D969587953F
S1134B5097F90895E1E0660F771F881FBB1F62175E
S1134B6073078407BA0720F0621B730B840BBA0B1C
S1134B70EE1F88F7E095089504D06894B11137C109
S1134B8008951AD188F09F5790F0B92F9927B751FB
S1134B90A0F0D1F0660F771F881F991F1AF0BA95FD
S1134BA0C9F712C0B13081F021D1B1E008951EC11E
S1134BB0672F782F8827B85F39F0B93FCCF38695F3
S1134BC077956795B395D9F73EF490958095709550
S1134BD061957F4F8F4F9F4F0895E89409C097FBCD
S1134BE03EF490958095709561957F4F8F4F9F4FC0
S1134BF09923A9F0F92F96E9BB279395F695879504
S1134C0077956795B795F111F8CFFAF4BB0F11F4C6
S1134C1060FF1BC06F5F7F4F8F4F9F4F16C088236D
S1134C2011F096E911C0772321F09EE8872F762FA3
S1134C3005C0662371F096E8862F70E060E02AF0E4
S1134C409A95660F771F881FDAF7880F96958795D0
S1134C5097F90895990F0008550FAA0BE0E8FEEFA5
S1134C6016161706E807F907C0F012161306E4072C
S1134C70F50798F0621B730B840B950B39F40A2625
S1134C8061F0232B242B252B21F408950A2609F403
S1134C90A140A6958FEF811D811D089597F99F6707
S1134CA080E870E060E008959FEF80EC0895DF9362
S1134CB0CF931F930F93FF92EF92DF927B018C01AE
S1134CC0689405C0DA2EEF01F4D0FE01E894A591B2
S1134CD02591359145915591AEF3EF0129DEFE0101
S1134CE09701A801DA9479F7DF90EF90FF900F9184
S1134CF01F91CF91DF91089500240A941616170688
S1134D0018060906089500240A94121613061406B8
S1134D1005060895C9CF50D0E8F3E894E0E0BB2736
S1134D209F57F0F02AED3FE049EC06C0EE0FBB0FB1
S1134D30661F771F881F28F0B23A6207730784073B
S1134D4028F0B25A620B730B840BE3959A9572F7B1
S1134D50803830F49A95BB0F661F771F881FD2F7EF
S1134D60904829C1092E0394000C11F4882352F0B1
S1134D70BB0F40F4BF2B11F460FF04C06F5F7F4F83
S1134D808F4F9F4F0895EF93E0FF06C0A2EA2AEDEC
S1134D903FE049EC5FEBCCDDE5DF0F90039401FCD1
S1134DA09058E7ECF0E013C157FD9058440F551F9D
S1134DB059F05F3F71F04795880F97FB991F61F099
S1134DC09F3F79F087950895121613061406551F10
S1134DD0F2CF4695F1DF08C0161617061806991F7C
S1134DE0F1CF86957105610508940895E894BB2771
S1134DF066277727CB0197F908952CDF08F48FEF06
S1134E0008959B01AC0160E070E080E89FE34CCE24
S1134E100EF0CFC049CF689441CFCEDFC8F39923B9
S1134E20D1F3C6F3DF93CF931F930F93FF92C92F50
S1134E30DD2788232AF02197660F771F881FDAF76A
S1134E4020E030E040E85FEB9FE3883920F0803ECB
S1134E5030F021968F775BDDE5EEF0E003C057DD9F
S1134E60E2E1F1E024DF8B01BE01EC01FB2E6F5780
S1134E7071097595771F880B990BB1DE28E132E72C
S1134E8041E35FE316D0AF2D9801AE01FF900F917F
S1134E901F91CF91DF914CDD65CF0BD063CF2CDF19
S1134EA028F031DF18F0952309F0F8CEFDCE112457
S1134EB09ECF7ADFA0F3959FD1F3950F50E0551F55
S1134EC0629FF001729FBB27F00DB11D639FAA275B
S1134ED0F00DB11DAA1F649F6627B00DA11D661FAA
S1134EE0829F2227B00DA11D621F739FB00DA11DCB
S1134EF0621F839FA00D611D221F749F3327A00D85
S1134F00611D231F849F600D211D822F762F6A2F20
S1134F1011249F5750408AF0E1F088234AF0EE0FA5
S1134F20FF1FBB1F661F771F881F91505040A9F7B2
S1134F309E3F510570F0B2CE5ACF5F3FECF3983EDE
S1134F40DCF3869577956795B795F795E7959F5F19
S1134F50C1F7FE2B880F911D9695879597F90895B3
S1134F609F93D9DE0F9007FCEE5F0DCF9B01AC0140
S1134F7094CFDF93D92FCFDEE695D7952AED3FE086
S1134F8049E45FE3B33A6207730784079507D7954B
S1134F902AF0A2EA49EC9068CBDCE4DEEFE3F1E02E
S1134FA016D0DD0F0BF02DDFDD0F0BF49058DF91E1
S1134FB008959F3F31F0915020F487957795679538
S1134FC0B795880F911D9695879597F908959F93A6
S1134FD08F937F936F93FF93EF939B01AC015DDFFE
S1134FE0EF91FF9164DE2F913F914F915F9155CFE7
S1134FF0A3E1B0E0EEEFF7E20C94792B7C011B0106
S11350006A01FC0117821682838181FF66C3BE0197
S11350106F5F7F4F4B01F7019381F10193FD859100
S113502093FF81911F01882309F453C3853239F416
S113503093FD859193FF81911F01853239F4B70166
S113504090E00E949E2C56016501E5CF10E0512CA2
S113505020E02032A0F48B3269F030F4803259F031
S1135060833269F420612CC08D3239F0803339F4F5
S1135070216026C02260246023C0286021C027FD4F
S113508027C030ED380F3A3078F426FF06C0FAE036
S11350901F9F300D1124132F13C06AE0569E300D4C
S11350A01124532E20620CC08E3221F426FD11C32C
S11350B0206406C08C3611F4206802C0883641F49E
S11350C0F10193FD859193FF81911F018111C1CF5E
S11350D09BEB980F933018F42061805E06C09BE927
S11350E0980F933008F0AAC12F7E26FF16E02F7385
S11350F0722E853621F4F22FF0647F2E08C0863696
S113510021F4622F6068762E02C01111115077FECF
S113511007C01C3348F444244394410E27E00BC0D9
S1135120183030F4212F06C027E04CE3442E03C08E
S113513027E017E0412C560174E0A70EB11CF601DC
S11351406081718182819381042DA4010E94B02B1E
S11351506C01098100FF02C003FF06C071FC07C097
S113516072FC08C0612C08C03DE2632E05C02BE22E
S1135170622E02C090E2692E802F8C7099F1662015
S113518011F084E001C083E0851510F0512C0BC0B0
S1135190581A73FC08C0B70180E290E00E949E2C6C
S11351A05A94C9F7F3CF662029F0B701862D90E011
S11351B00E949E2C03FD03C00CE714E002C008E724
S11351C014E0F72DF0717F2EF8018491882309F4FF
S11351D076C271108052B70190E00E949E2C0F5F3E
S11351E01F4FF2CF77FE0FC04C0C04FF04C08A811E
S11351F0813309F44A94141474F5F8E0F41578F53D
S113520088E0482E2CC076FC2AC0812F90E08C15B3
S11352109D059CF06CEFC6166FEFD60674F0772DE3
S11352207068772E0AC0E2E0F0E0EC0FFD1FE10F9A
S1135230F11D8081803319F411501111F4CF77FEE0
S11352400EC044244394410E812F90E0C816D90621
S11352502CF41C1904C04424439401C010E077FECC
S113526007C01C141D043CF496012F5F3F4F05C07A
S113527025E030E002C021E030E0662011F02F5F2D
S11352803F4F112331F0412F50E04F5F5F4F240F08
S1135290351F452D50E02417350714F4521A01C068
S11352A0512C872D897049F4552039F0B70180E2DB
S11352B090E00E949E2C5A94F7CF662029F0B70103
S11352C0862D90E00E949E2C73FC09C0552039F075
S11352D0B70180E390E00E949E2C5A94F7CF77FEAA
S11352E05FC09C2D8D2DD7FE02C090E080E0692E1A
S11352F0782E40E050E0C601841991099D878C877F
S1135300960126193709280D391D812F90E0EE27C3
S1135310FF27E81BF90BFF87EE87FFEF6F167F0669
S113532069F4B7018EE290E02B8B3A8B488B598B52
S11353300E949E2C598948893A892B89C614D7041E
S113534054F06C857D85661577052CF4F901E40F1E
S1135350F51F818101C080E371E0671A71084F5F16
S11353605F4FEE85FF856E167F066CF0B70190E007
S11353702B8B3A8B488B598B0E949E2C2B893A8914
S113538048895989CACF6C147D0439F49A819633BB
S113539018F4953311F404FF81E3B70190E04BC096
S11353A08A81813309F00F7EB70190E00E949E2C20
S11353B0111105C074FE18C085E490E017C0B70150
S11353C08EE290E00E949E2C82E066246394680E34
S11353D0F401E80FF11D8081B70190E00E949E2C3A
S11353E0115041F3862DF1CF85E690E0B7010E947C
S11353F09E2CD7FC05C0C114D10439F404FF05C0A8
S1135400D194C194D1088DE201C08BE2B70190E040
S11354100E949E2C80E36AE0C616D1042CF08F5FB4
S1135420FAE0CF1AD108F7CFB70190E00E949E2C82
S1135430B701C601C0960E949E2C41C1833631F04B
S1135440833779F0833509F058C021C0560172E0E2
S1135450A70EB11CF6018081898301E010E064018C
S113546014C05601F2E0AF0EB11CF601C080D18029
S113547026FF03C0612F70E002C06FEF7FEFC6010B
S11354802B8B0E94932C8C012B892F7715C05601EE
S1135490F2E0AF0EB11CF601C080D18026FF03C03C
S11354A0612F70E002C06FEF7FEFC6012B8B0E946B
S11354B0882C8C012B892068722E23FD1AC0852D1F
S11354C090E008171907A8F4B70180E290E00E9461
S11354D09E2C5A94F4CFF60177FC859177FE819146
S11354E06F01B70190E00E949E2C51105A94015014
S11354F011090115110579F7E2C0843611F08936D6
S113550051F5560127FF09C0F4E0AF0EB11CF601B6
S113551060817181828193810AC0F2E0AF0EB11C77
S1135520F60160817181882777FD8095982F022F7D
S11355300F7697FF08C090958095709561957F4F81
S11355408F4F9F4F00682AE030E0A4010E94F22CA4
S1135550C82EC8183EC0022F853721F40F7E2AE0DA
S113556030E01DC0097F8F3691F018F4883559F06A
S1135570B0C0803719F0883711F0ABC0006104FF68
S113558009C0046007C024FF08C0066006C028E004
S113559030E005C020E130E002C020E132E05601F5
S11355A007FF09C0F4E0AF0EB11CF6016081718100
S11355B08281938108C0F2E0AF0EB11CF6016081D4
S11355C0718180E090E0A4010E94F22CC82EC818DA
S11355D00F7706FF0BC0202F2E7FC11650F404FF57
S11355E00AC002FD08C0202F2E7E05C0DC2C202F0F
S11355F003C0DC2C01C0D12E24FF0DC0FE01EC0D34
S1135600F11D8081803311F4297E09C022FF06C078
S1135610D394D39404C0822F867809F0D39423FDC5
S113562013C020FF06C01C2DD51418F4150D1D1928
S1135630D52CD51468F4B70180E290E02B8B0E943E
S11356409E2CD3942B89F5CFD51410F45D1801C08A
S1135650512C24FF12C0B70180E390E02B8B0E94F1
S11356609E2C2B8922FF17C021FF03C088E590E000
S113567002C088E790E0B7010CC0822F867859F009
S113568021FD02C080E201C08BE227FD8DE2B7015B
S113569090E00E949E2CC11638F4B70180E390E09C
S11356A00E949E2C1150F7CFCA94F401EC0DF11D09
S11356B08081B70190E00E949E2CC110F5CF552047
S11356C009F4C2CCB70180E290E00E949E2C5A9467
S11356D0F6CFF7018681978102C08FEF9FEF639623
S11356E0E2E10C94952BEE0FFF1F0590F491E02D51
S11356F009942F923F924F925F926F927F928F9272
S11357009F92AF92BF92CF92DF92EF92FF920F934C
S11357101F93CF93DF93CDB7DEB7CA1BDB0B0FB656
S1135720F894DEBF0FBECDBF09942A883988488813
S11357305F846E847D848C849B84AA84B984C884A9
S1135740DF80EE80FD800C811B81AA81B981CE0FA0
S1135750D11D0FB6F894DEBF0FBECDBFED01089585
S1135760283008F027E03327DA01990F311D87FD2F
S1135770916000966105710539F432602E5F3D93A6
S113578030E32A95E1F708959F3F30F080387105A2
S1135790610509F03C5F3C5F3D93913008F08068FF
S11357A0911DDF93CF931F930F93FF92EF92192FC5
S11357B0987F9695E92F96959695E90FFF27E652DF
S11357C0FB4F99273327EE24FF24A701E701059017
S11357D00894079428F4360FE71EF81E491F511D3C
S11357E0660F771F881F991F0694A1F705900794E9
S11357F028F4E70EF81E491F561FC11D770F881F96
S1135800991F661F0694A1F70590079428F4F80ED3
S1135810491F561FC71FD11D880F991F661F771F69
S11358200694A1F70590079420F4490F561FC71F4B
S1135830D81F990F661F771F881F0694A9F78491B4
S11358401095177041F0D695C79557954795F794DD
S1135850E7941A95C1F7E0E8F4E06894159015917F
S113586035916591959105907FE27395E118F10A60
S1135870430B560BC90BD009C0F7E10CF11E431FB3
S1135880561FC91FD01D7EF4703311F48A95E6CFDC
S1135890E894015030F0080F0AF40027021708F4C6
S11358A0202F2395022F7A3328F079E37D932A95CC
S11358B0E9F710C07D932A9589F606949795679524
S11358C0379517951794E118F10A430B560BC90B3A
S11358D0D00998F023957E9173957A3308F070E39C
S11358E07C932013B8F77E9170617D9330F083959B
S11358F071E37D9370E32A95E1F71124EF90FF9013
S11359000F911F91CF91DF91992787FD909508956D
S1135910FC010590615070400110D8F78095909576
S11359208E0F9F1F0895FC0161507040019001107B
S1135930D8F7809590958E0F9F1F08950F931F930E
S1135940CF93DF93182F092FEB018B8181FD03C0C7
S11359508FEF9FEF20C082FF10C04E815F812C81AA
S11359603D81421753077CF4E881F9819F012F5F41
S11359703F4F39832883108306C0E885F985812F3A
S11359800995892B29F72E813F812F5F3F4F3F8354
S11359902E83812F902FDF91CF911F910F91089526
S11359A0AEE0B0E0E6EDFCE20C94872B0D891E8995
S11359B086E08C831A8309838FEF9FE79E838D8310
S11359C0AE01475E5F4F6F89788DCE0101960E94CC
S11359D0F827EF81F885E00FF11F10822E96E4E09E
S11359E00C94A32BFA01AA27283051F1203181F11C
S11359F0E8946F936E7F6E5F7F4F8F4F9F4FAF4FD3
S1135A00B1E03ED0B4E03CD0670F781F891F9A1FE5
S1135A10A11D680F791F8A1F911DA11D6A0F711D99
S1135A20811D911DA11D20D009F468943F912AE0A5
S1135A30269F11243019305D3193DEF6CF0108958D
S1135A40462F4770405D4193B3E00FD0C9F7F6CFBE
S1135A50462F4F70405D4A3318F0495D31FD405286
S1135A60419302D0A9F7EACFB4E0A695979587951C
S1135A7077956795BA95C9F70097610571050895FB
S1135A809B01AC010A2E06945795479537952795A7
S1135A90BA95C9F7620F731F841F951FA01D08953F
S1135AA015E0CCE7D5E004C0FE010E94752B2296D8
S10D5AB0CE37D107C9F7F894FFCFF1
S1135ABA466168726164636F6D7075746572002DF6
S1135ACA2D2D2D2D2D2D2D2D2D2D2D2D2D005665C4
S1135ADA7273696F6E3A20252E3266004261743AF7
S1135AEA202569252500313A466168726164616E30
S1135AFA7A6569676500323A5461736368656E72E0
S1135B0A6563686E657200333A4B6F6D70617373C7
S1135B1A00343A5568726D656E756500353A4569A3
S1135B2A6E7374656C6C756E67656E00363A44699B
S1135B3A73706C61792061757300373A44727563C6
S1135B4A6B73656E736F7200313A4B6F6D7061736C
S1135B5A73206B616C69622E00323A4B6F6D70610F
S1135B6A737376657273746165726B756E670033ED
S1135B7A3A5568722065696E7374656C6C656E005B
S1135B8A313A55687200323A53746F70707568729C
S1135B9A00333A54696D657200343A416C61726D2E
S1135BAA00353A5568722067726F737300252E3177
S1135BBA6620430025332E316600252E31666D009A
S1135BCA252E31666D2F7300256C757300313A20CA
S1135BDA3133373000323A203130393000333A2009
S1135BEA2038323000343A202036363000353A2014
S1135BFA2034343000363A202033393000373A2002
S1135C0A2033333000383A202032333000483A20E7
S1135C1A252E3166206D00616E676C653D252E3038
S1135C2A660054696D65723A200053746F7070751A
S1135C3A68723A20004C50533235482044617465E6
S1135C4A6E3A00252E31662048506100486F656817
S1135C5A653A20252E3166206D0055687265696E95
S1135C6A7374656C6C756E67005374756E64656ED7
S1135C7A2066616C736368004D696E7574656E2085
S1135C8A66616C736368005461672066616C736350
S1135C9A68004D6F6E61742066616C736368004AB4
S10F5CAA6168722066616C73636800001E
S9030000FC
