:100000000C94BF020C94E7020C94E7020C94E702F4
:100010000C94E7020C94E7020C94E7020C94E702BC
:100020000C94E7020C942C190C94E7020C94E70250
:100030000C94E7020C94E7020C94E7020C94E7029C
:100040000C94E7020C94E7020C94E7020C94E7028C
:100050000C94E7020C94E7020C94E7020C94E7027C
:100060000C94E7020C94E7027D16A516CF16FA163B
:1000700024174D1775179E1716184118081D131DC4
:10008000211D271D2E1D351D431DD21DD91DE01D0F
:10009000E71DEE1DF51DFC1D031E084AD73B3BCE98
:1000A000016E84BCBFFDC12F3D6C74319ABD568377
:1000B0003DDA3D00C77F11BED9E4BB4C3E916BAA2F
:1000C000AABE000000803F05A84CCDB2D44EB9387E
:1000D00036A9020C50B9918688083CA6AAAA2ABE65
:1000E000000000803F08000000BE922449123EAB91
:1000F000AAAA2ABECDCCCC4C3E00000080BEABAA42
:10010000AAAA3E00000000BF000000803F000000DF
:100110000000084178D3BB4387D1133D190E3CC37F
:10012000BD4282AD2B3E68EC8276BED98FE1A93EFE
:100130004C80EFFFBE01C4FF7F3F000000000006BF
:1001400064EC1B3C04BC163E3BE5B93CC93C37C2E1
:100150009E5A3D660498083EEA69AAAA3E0000003D
:10016000803F00E0F8FCFE1E070707071EFEFCF8B4
:10017000F00000070F3F3F7C707070707C3F1F1FC6
:100180000700000000060707FFFFFFFF0000000058
:1001900000000000000000007F7F7F7F0000000063
:1001A000000000383C3E3E0F070707CFFFFEFE3839
:1001B00000000040406070787C7E7F7773717070C3
:1001C000000000181C1E1E0FC7C7E7FFFEBE9C00E4
:1001D0000000000C1C3C3C78707070797F3F1F0F52
:1001E0000000000080C0E070381C1EFFFFFFFF0011
:1001F00000000607070706060606067F7F7F7F06C4
:10020000060000000000F0FFFFFFE7E7E7E7C78711
:10021000000000003878717070707070393F3F1FB7
:100220000F000080E0F0F8FC7F7F6F67E1E1C080A5
:100230000000000F1F3F3F7870707070783F3F1FC5
:100240000F00000707070707C7E7F7FF7F3F1F07F4
:1002500003010020387C7E3F0F07030000000000F0
:1002600000000000001CBEFEFFE7C3C3E7FFFEBEA8
:100270001C0000000E3F3F7F71606060717F3F3F58
:100280000F000078FCFEFE8F070707078FFEFEFCBD
:10029000F800000000014343737B7F7F1F0F0703BB
:1002A000000000005F00000007000700147F147FBB
:1002B00014242A7F2A1223130864623649552250D7
:1002C0000005030000001C2241000041221C001414
:1002D000083E081408083E080800503000000808CE
:1002E000080808006060000020100804023E514920
:1002F000453E00427F400042615149462141454B05
:10030000311814127F1027454545393C4A49493078
:1003100001710905033649494936064949291E0034
:10032000363600000056360000081422410014142E
:1003300014141400412214080201510906324979AB
:10034000413E7E1111117E7F494949363E4141416E
:10035000227F4141221C7F494949417F0909090106
:100360003E4149497A7F0808087F00417F410020CB
:1003700040413F017F081422417F404040407F02BE
:100380000C027F7F0408107F3E4141413E7F0909F6
:1003900009063E4151215E7F0919294646494949CE
:1003A0003101017F01013F4040403F1F2040201F9D
:1003B0003F4038403F631408146307087008076122
:1003C00051494543007F414100020408102000418B
:1003D000417F00040201020440404040400001020D
:1003E000040020545454787F4844443838444444EA
:1003F00020384444487F3854545418087E09010278
:100400000C5252523E7F0804047800447D40002084
:1004100040443D007F1028440000417F40007C04A0
:100420001804787C0804047838444444387C141454
:100430001408081414187C7C080404084854545404
:1004400020043F4440203C4040207C1C2040201C95
:100450003C4030403C44281028440C5050503C4410
:1004600064544C44000836410000007F0000004105
:1004700036080010080810086E616E00696E66008C
:1004800000407A10F35A00A0724E18090010A5D44B
:10049000E80000E87648170000E40B54020000CAA8
:1004A0009A3B000000E1F5050000809698000000EE
:1004B00040420F000000A08601000000102700004D
:1004C0000000E803000000006400000000000A00D3
:1004D000000000000100000000002C76D888DC67D6
:1004E0004F0823DFC1DFAE59E1B1B796E5E3E4532E
:1004F000C63AE651997696E8E6C28426EB898C9B4B
:1005000062ED407C6FFCEFBC9C9F40F2BAA56FA5EA
:10051000F490055A2AF75C936B6CF9676DC11BFC6C
:10052000E0E40D47FEF520E6B500D0ED902E030087
:10053000943577050080841E080000204E0A0000D4
:1005400000C80C333333330F986E12831141EF8D93
:100550002114893BE65516CFFEE6DB18D1844B38D3
:100560001BF77C1D901DA4BBE424203284725E2204
:100570008100C9F124ECA1E53D2718204120112478
:100580001FBECFEFD8E0DEBFCDBF13E0A0E0B1E0EB
:10059000E6EAFFE502C005900D92A831B107D9F750
:1005A00027E0A8E1B3E001C01D92AD3AB207E1F740
:1005B00015E0CCE7D5E004C02297FE010E94EB2DA8
:1005C000CA37D107C9F70E940B200C94C62F0C9490
:1005D00000009C5F0E946A200895FC0120E030E04A
:1005E00011922F5F3F4F211584E03807C9F7089516
:1005F0001F93CF93DF93162FEC01DC5FCE010E9497
:100600006B2068E7CE010E94732060E0CE010E945B
:100610007320612FCE010E947320CE010E946F20B3
:10062000DF91CF911F910895CF93DF93EC016EEA94
:100630000E94F80265EDCE010E94F80260E8CE014A
:100640000E94F80268EACE010E94F8026FE3CE0130
:100650000E94F80263EDCE010E94F80260E0CE0134
:100660000E94F80260E4CE010E94F8026DE8CE011B
:100670000E94F80264E1CE010E94F80260E2CE011D
:100680000E94F80260E0CE010E94F80261EACE0109
:100690000E94F80268ECCE010E94F8026AEDCE01D9
:1006A0000E94F80262E1CE010E94F80261E8CE01E8
:1006B0000E94F8026FECCE010E94F80269EDCE01B3
:1006C0000E94F80261EFCE010E94F8026BEDCE01AC
:1006D0000E94F80260E4CE010E94F80264EACE01B2
:1006E0000E94F80266EACE010E94F8026FEACE018B
:1006F0000E94F802DF91CF910895CF93DF93EC0130
:100700009C5F0E946620CE010E941403DF91CF916E
:100710000895662321F067EA0E94F802089566EAC8
:100720000E94F8020895EF92FF920F931F93CF93C8
:10073000DF938C0161E20E94F80260E0C8010E9430
:10074000F8026FE7C8010E94F80262E2C8010E9445
:10075000F80260E0C8010E94F80267E0C8010E9448
:10076000F80278018CEFF81AC7010E946B2068E745
:10077000C7010E94732060E4C7010E947320C0E09B
:10078000D0E0F80161918F01C7010E94732021968A
:10079000C115F4E0DF07A9F7C7010E946F20DF91C0
:1007A000CF911F910F91FF90EF9008956623BCF1B8
:1007B0004034A8F5211119C0E42FE695E695E69599
:1007C00020E8E29FF0011124E60FF11DE80FF91F68
:1007D000477021E030E0C90102C0880F991F4A9597
:1007E000E2F79081892B80830895E42FE695E695C2
:1007F000E69530E8E39FF0011124E60FF11DE80FC4
:10080000F91F477081E090E09C0102C0220F331F66
:100810004A95E2F7A90140958081482340830895D5
:100820002F923F924F925F926F927F928F929F9200
:10083000AF92BF92CF92DF92EF92FF920F931F93EE
:10084000CF93DF93CDB7DEB72B970FB6F894DEBF0B
:100850000FBECDBF1C01D62EC42E2983222309F43E
:1008600069C0C801B7010E94C7272B013C01C8011C
:10087000B7010E94262A4B015C011B861A868C2D2B
:1008800090E0A0E0B0E08A839B83AC83BD838D2D94
:1008900090E0A0E0B0E08E839F83A887B987AA8507
:1008A000BB85BD01882777FD8095982F0E9465281C
:1008B000A50194010E94C3296B017C016A817B819F
:1008C0008C819D810E9465289B01AC01C701B60106
:1008D0000E94FD260E943728162F6A857B85719518
:1008E00061957109882777FD8095982F0E9465286A
:1008F000A30192010E94C3296B017C016E817F815B
:10090000888599850E9465289B01AC01C701B601C5
:100910000E94FD260E94372820E0412FC1010E943D
:10092000D603EA85FB853196FB87EA87F981EF17C5
:1009300008F4B5CF2B960FB6F894DEBF0FBECDBF2F
:10094000DF91CF911F910F91FF90EF90DF90CF90AB
:10095000BF90AF909F908F907F906F905F904F90DF
:100960003F902F9008952F923F924F925F926F92F7
:100970007F928F929F92AF92BF92CF92DF92EF922F
:10098000FF920F931F93CF93DF93CDB7DEB760979E
:100990000FB6F894DEBF0FBECDBF1C016F874D832D
:1009A0002983C601B50125E33AEF4EE85CE30E94D6
:1009B000C3294B015C0125E33AEF4EE85CE3C80133
:1009C000B7010E94C3296E837F83888799877980C6
:1009D000769485017401272D4D816F85C1010E9498
:1009E00010042BED3FE049E450E4C501B4010E943E
:1009F000FC267B018C01272D4D816F85C1010E9452
:100A000010046E817F81888599850E942F2A6B0151
:100A10007C01672D70E080E090E00E946528A701CE
:100A200096010E94C3290E943728688B2BED3FE076
:100A300049EC5FE3C501B4010E94FC266A877B870D
:100A40008C879D877B018C0128894D816F85C10131
:100A50000E9410046E817F81888599850E94C72736
:100A60006B017C012981622F70E080E090E00E94A0
:100A700065282B013C01A7019601C701B6010E9420
:100A8000FD269B01AC01C301B2010E94CA270E944E
:100A900037286E87E8896E2F70E080E090E00E9432
:100AA000652869837A838B839C836A857B858C85A3
:100AB0009D850E94C7276B017C01FF856F2F70E029
:100AC00080E090E00E9465282B013C01A70196017F
:100AD00069817A818B819C810E94C3299B01AC0131
:100AE000C301B2010E94FC260E9437286F876A85E5
:100AF0007B858C859D850E94262A6B017C012D813A
:100B0000622F70E080E090E00E9465282B013C019C
:100B1000A701960169817A818B819C810E94C329FA
:100B20009B01AC01C301B2010E94FD260E9437283F
:100B3000D62EA50194016E817F81888599850E94BA
:100B4000FD267B018C012E854D2D6F85C1010E94F4
:100B500010042E813F8148855985C501B4010E944A
:100B6000FC262BED3FE049E450E40E94FC267B018B
:100B70008C012E854D2D6F85C1010E941004609659
:100B80000FB6F894DEBF0FBECDBFDF91CF911F919E
:100B90000F91FF90EF90DF90CF90BF90AF909F901C
:100BA0008F907F906F905F904F903F902F9008951F
:100BB0000F931F93CF93DF93613208F442C0A42FA9
:100BC000B0E0022F06950695069530E8039F800158
:100BD0001124ED01C00FD11F00581F4F0A0F1B1F1A
:100BE0006152462F50E0FA01EE0FFF1FEE0FFF1F7C
:100BF000E40FF51FEE55FD4FDC01AC0FBD1FAE013C
:100C000005968C0F9D1F2770649170E0022E02C024
:100C1000660F771F0A94E2F73C91362B3C93672FBF
:100C200077276115710541F0ED01C41BD50BC00F8D
:100C3000D11F3881632B688331961196A817B907A5
:100C400019F7DF91CF911F910F910895EF92FF92C5
:100C50000F931F93CF93DF936A3008F066C050E084
:100C6000022F06950695069510E0D801B695BA2F85
:100C7000AA27B795A7950F5F1F4F1695102F00272E
:100C8000179507957D0130E8E30EF11CE40EF51E83
:100C9000E80EF91EEA01C00FD11F6097C80FD91FD7
:100CA000040F151F00591F4F080F191FA40FB51F60
:100CB000A80FB91FE0E26E9FC001112440E050E090
:100CC0008E599E4F2770FC01E40FF51FE491F0E070
:100CD000022E02C0EE0FFF1F0A94E2F7403168F4C3
:100CE0003C913E2B3C936F2F77276115710589F05E
:100CF000F7013081362B30830CC038813E2B38838E
:100D00006F2F77276115710521F0F8013081362B9F
:100D100030834F5F5F4FFFEFEF1AFF0A21960F5F9F
:100D20001F4F11964032510571F6DF91CF911F91FF
:100D30000F91FF90EF9008952F923F924F925F9204
:100D40006F927F928F929F92AF92BF92CF92DF92DB
:100D5000EF92FF920F931F93CF93DF93CDB7DEB740
:100D600027970FB6F894DEBF0FBECDBF9F838E834B
:100D70006D83342E002309F429C1622F70E080E0D6
:100D800090E00E94652820E030E040EC50E40E94B2
:100D9000C3292BED3FE049E450E40E94C32920E041
:100DA00030E044E353E40E94CA272BED3FE049ECD6
:100DB0005FE30E94FC266B017C010E94C7272B0188
:100DC0003C01C701B6010E94262A4B015C0100E0EC
:100DD00010E0B801882777FD8095982F0E9465283C
:100DE0006B017C01A50194010E94C32920E030E041
:100DF00048EF51E40E94FD260E943728262EA301C9
:100E00009201C701B6010E94C32920E030E048EFFB
:100E100051E40E94FD260E94372820E0422D8E8159
:100E20009F810E94D6030F5F1F4F0931110589F67C
:100E3000632D70E080E090E00E94652869837A83EA
:100E40008B839C8320E030E040EC50E40E94C32977
:100E50002BED3FE049E450E40E94C32920E030E05C
:100E600044E353E40E94CA272BED3FE049EC5FE3E3
:100E70000E94FC266B017C010E94C7274B015C018C
:100E8000C701B6010E94262A2B013C0100E010E0B8
:100E9000B801882777FD8095982F0E9465286B01FF
:100EA0007C01A30192010E94C32920E030E048EFB9
:100EB00051E40E94FD260E943728362EA501940198
:100EC000C701B6010E94C32920E030E048EF51E499
:100ED0000E94FD260E94372820E0432D8E819F81AD
:100EE0000E94D6030F5F1F4F0531110589F62D8132
:100EF000622F70E080E090E00E94652820E030E002
:100F000040EF51E40E94C3296B017C0120E030E0F6
:100F100040E05FE369817A818B819C810E94C329D3
:100F20009B01AC01C701B6010E94FD262BED3FE0FD
:100F300049E450E40E94C32920E030E044E353E454
:100F40000E94CA272BED3FE049EC5FE30E94FC269C
:100F50006B017C010E94C7272B013C01C701B60130
:100F60000E94262A4B015C0100E010E0B8018827AE
:100F700077FD8095982F0E9465286B017C01A50163
:100F800094010E94C32920E030E048EF51E40E9420
:100F9000FD260E943728362EA3019201C701B60113
:100FA0000E94C32920E030E048EF51E40E94FD2672
:100FB0000E94372820E0432D8E819F810E94D60316
:100FC0000F5F1F4F0D30110589F6CDC0642F70E003
:100FD00080E090E00E94652869837A838B839C83FC
:100FE00020E030E040EC50E40E94C3292BED3FE0CC
:100FF00049E450E40E94C32920E030E044E353E494
:101000000E94CA272BED3FE049EC5FE30E94FC26DB
:101010006B017C010E94C7274B015C01C701B6012F
:101020000E94262A2B013C0100E010E0B80188272D
:1010300077FD8095982F0E9465286B017C01A301A4
:1010400092010E94C32920E030E048EF51E40E9461
:10105000FD260E943728362EA5019401C701B6014E
:101060000E94C32920E030E048EF51E40E94FD26B1
:101070000E94372820E0432D8E819F810E94D60355
:101080000F5F1F4F0931110589F6ED816E2F70E05A
:1010900080E090E00E94652820E030E040EF51E4DD
:1010A0000E94C3296B017C0120E030E040E05FE357
:1010B00069817A818B819C810E94C3299B01AC014B
:1010C000C701B6010E94FD262BED3FE049E450E444
:1010D0000E94C32920E030E044E353E40E94CA2781
:1010E0002BED3FE049EC5FE30E94FC266B017C01A5
:1010F0000E94C7272B013C01C701B6010E94262A86
:101100004B015C0100E010E0B801882777FD809575
:10111000982F0E9465286B017C01A50194010E9413
:10112000C32920E030E048EF51E40E94FD260E94F0
:101130003728362EA3019201C701B6010E94C329A8
:1011400020E030E048EF51E40E94FD260E9437285D
:1011500020E0432D8E819F810E94D6030F5F1F4F99
:101160000131110589F620E04AE161E38E819F811A
:101170000E94D80520E040E262E38E819F810E94B8
:10118000D8052CE14AE363E38E819F810E94D80554
:1011900028E34DE166E38E819F810E94D8052CE112
:1011A00040E069E38E819F810E94D80520E048E0FD
:1011B0006CE28E819F810E94D60320E042E165E3CC
:1011C0008E819F810E94D60320E04CE265E38E81F0
:1011D0009F810E94D60320E045E36BE28E819F81D0
:1011E0000E94D60320E045E361E18E819F810E9449
:1011F000D60320E04CE268E08E819F810E94D603F6
:1012000020E041E168E08E819F810E94D60320E0CA
:1012100048E062E18E819F810E94D60327960FB637
:10122000F894DEBF0FBECDBFDF91CF911F910F911C
:10123000FF90EF90DF90CF90BF90AF909F908F90F6
:101240007F906F905F904F903F902F900895ECE7C4
:10125000F0E090818F71907E982B9083EAE7F0E028
:10126000808180648083808186FDFDCF80917800BD
:1012700090917900089580E00E942709BC0180E0E8
:1012800090E00E94632820E030EC4FE754E40E9495
:10129000CA272DEC3CEC4CE450E40E94C3292BE718
:1012A00034E14EEF5FE30E94C32960932B037093F8
:1012B0002C0380932D0390932E0320E030E040E434
:1012C00050E40E94FC2628E939E949E95FE30E94DD
:1012D000CA2720E030E048EC52E40E94C3290E9473
:1012E0003228862F0895CF92DF92EF92FF920F93CC
:1012F0001F93CF93DF93CDB7DEB764970FB6F89403
:10130000DEBF0FBECDBF82E493E00E94ED028FE00E
:10131000E0E0F1E08E010F5F1F4FD80101900D92C8
:101320008A95E1F7C02ED12E780110E0F701619186
:101330007F0120E0412F82E493E00E94D8051A5FEC
:101340001435A1F78FE0EFE0F1E0DE011196019096
:101350000D928A95E1F7EC2CFD2C10E0F7016191DC
:101360007F0128E0412F82E493E00E94D8051A5FB4
:101370001435A1F78FE38F9385EB8F9382EC8F93D6
:101380008FE88F938EE191E09F938F93CE0101962A
:101390009F938F930E94462F0FB6F894DEBF0FBE27
:1013A000CDBF8823D1F081506894EE24E1F8F12C70
:1013B000EC0EFD1EE80EF11C0C2D1D2DD12CF8019C
:1013C00061918F0120E24D2D82E493E00E94D805C7
:1013D000F6E0DF0E0E151F0591F782E493E00E9400
:1013E000930382E493E00E94ED0285E02FE738E367
:1013F00091E0215030409040E1F700C00000EFE75D
:10140000F8E321E0E150F0402040E1F700C00000A7
:10141000815061F764960FB6F894DEBF0FBECDBF62
:10142000DF91CF911F910F91FF90EF90DF90CF90C0
:101430000895EF92FF920F931F93CF93DF93CDB751
:10144000DEB764970FB6F894DEBF0FBECDBF813014
:1014500009F454C020F0823009F48CC0C5C00F2EAE
:10146000F9E7EF2EF7E0FF2EF02D10E0F701619184
:101470007F0120E0412F82E493E00E94D8051A5FAB
:101480001033A1F70E943B09282F332727FD309501
:101490003F938F938CE291E09F938F93CE010196BF
:1014A0009F938F930E94462F25E1F22EF81A0F90FA
:1014B0000F900F900F900F900F90F4E1FF1508F42C
:1014C00093C0EF2CEE0CEF0CEE0C8C011127E1E039
:1014D000F0E0EC0FFD1FEF0DF11DE00FF11F759710
:1014E00020E04E2D608182E493E00E94D805F394C1
:1014F00026E0E20E85E1F812EACF76C00E943B09B1
:10150000282F332727FD30953F938F938CE291E06E
:101510009F938F93CE0101969F938F930E94462FA6
:1015200025E1F22EF81A0F900F900F900F900F9068
:101530000F90E4E1EF1508F457C0EF2CEE0CEF0C20
:10154000EE0C8C011127E1E0F0E0EC0FFD1FEF0D38
:10155000F11DE00FF11F759720E04E2D608182E4B0
:1015600093E00E94D805F394F6E0EF0E25E1F21225
:10157000EACF3AC00E943B09282F332727FD309538
:101580003F938F9381E391E09F938F93CE010196D8
:101590009F938F930E94462F25E1F22EF81A0F9009
:1015A0000F900F900F900F900F90E4E1EF15E0F087
:1015B000EF2CEE0CEF0CEE0C8C011127E1E0F0E0CB
:1015C000EC0FFD1FEF0DF11DE00FF11F759720E0EF
:1015D0004E2D608182E493E00E94D805F394F6E0FA
:1015E000EF0E25E1F212EACF64960FB6F894DEBF53
:1015F0000FBECDBFDF91CF911F910F91FF90EF9064
:1016000008951F93CF93DF93882319F0813079F0E9
:101610001BC0C1E8D7E010E5699128E3412F82E4BF
:1016200093E00E94D8051A5F1038B1F70DC0C1E8E9
:10163000D7E015E0699128E3412F82E493E00E940E
:10164000D8051A5F1533B1F7DF91CF911F91089537
:10165000CF92DF92EF92FF926B017C0120E030E0AD
:1016600040EB51E40E94C327882354F020E030E08F
:1016700049EA53E4C701B6010E947329882344F064
:101680002CE140E56EE482E493E00E94D80599C025
:1016900020E030E048E852E4C701B6010E94C327C9
:1016A00088237CF42CE14DE46EE482E493E00E9414
:1016B000D8052CE143E56FE482E493E00E94D8056D
:1016C00080C020E030E042EE52E4C701B6010E9443
:1016D000C327882344F42CE140E56FE482E493E0DF
:1016E0000E94D8056EC020E030E04EE153E4C7010F
:1016F000B6010E94C32788237CF42CE14DE463E506
:1017000082E493E00E94D8052CE143E56FE482E493
:1017100093E00E94D80555C020E030E04BE453E44C
:10172000C701B6010E94C327882344F42CE140E599
:1017300063E582E493E00E94D80543C020E030E0F6
:1017400048E753E4C701B6010E94C32788237CF40D
:101750002CE14DE463E582E493E00E94D8052CE19E
:1017600043E567E582E493E00E94D8052AC020E0C3
:1017700030E842E953E4C701B6010E94C327882339
:1017800044F42CE140E567E582E493E00E94D8054B
:1017900018C020E030E049EA53E4C701B6010E94D6
:1017A000C327882374F42CE14DE46EE482E493E0D3
:1017B0000E94D8052CE143E567E582E493E00E94AE
:1017C000D805FF90EF90DF90CF900895AF92BF9231
:1017D000CF92DF92EF92FF920F931F9359016A010C
:1017E000E12CF12C0CE812E424E1462F682F82E46E
:1017F00093E00E94B3041F910F91FF90EF90DF9050
:10180000CF90BF90AF900895AF92BF92CF92DF92EA
:10181000EF92FF920F931F9359016A01E12CF12C73
:101820000CE812E42AE0462F682F82E493E00E943D
:10183000B3041F910F91FF90EF90DF90CF90BF9076
:10184000AF900895CF92DF92EF92FF920F931F9384
:10185000CF93DF93CDB7DEB764970FB6F894DEBFB2
:101860000FBECDBF82E493E00E94ED0280E1E6E38B
:10187000F1E08E010F5F1F4FD80101900D928A9504
:10188000E1F7E02EF12E680110E0F60161916F01A1
:1018900020E0412F82E493E00E94D8051A5F1A35B8
:1018A000A1F781E1E6E4F1E0DE01119601900D92ED
:1018B0008A95E1F7CE2CDF2C10E0F60161916F01E3
:1018C00028E0412F82E493E00E94D8051A5F103689
:1018D000A1F78AE0E7E5F1E0DE01119601900D92B3
:1018E0008A95E1F7CE2CDF2C10E0F60161916F01B3
:1018F00020E1412F82E493E00E94D8051A5F16335D
:10190000A1F78BE0E1E6F1E0DE01119601900D9286
:101910008A95E1F7CE2CDF2C10E0F60161916F0182
:1019200028E1412F82E493E00E94D8051A5F1C331E
:10193000A1F780E1ECE6F1E0DE01119601900D9255
:101940008A95E1F7CE2CDF2C10E0F60161916F0152
:1019500020E2412F82E493E00E94D8051A5F1A35F5
:10196000A1F78EE0ECE7F1E0DE01119601900D9217
:101970008A95E1F7CE2CDF2C10E0F60161916F0122
:1019800028E2412F82E493E00E94D8051A5F1E34BA
:10199000A1F78EE0EAE8F1E0DE01119601900D92E8
:1019A0008A95E1F7CE2CDF2C10E0F60161916F01F2
:1019B00020E3412F82E493E00E94D8051A5F1E3491
:1019C000A1F764960FB6F894DEBF0FBECDBFDF91CE
:1019D000CF911F910F91FF90EF90DF90CF900895DE
:1019E000AF92BF92DF92EF920F931F93CF93DF934B
:1019F000CDB7DEB764970FB6F894DEBF0FBECDBF8C
:101A000082E493E00E94ED0281E1E8E9F1E08E01D9
:101A10000F5F1F4FD80101900D928A95E1F7D02EEC
:101A2000E12E580110E0F50161915F0120E0412FA6
:101A300082E493E00E94D8051A5F1036A1F786E190
:101A4000E9EAF1E0DE01119601900D928A95E1F745
:101A5000AD2CBE2C10E0F50161915F0128E0412F13
:101A600082E493E00E94D8051A5F1E37A1F781E156
:101A7000EFEBF1E0DE01119601900D928A95E1F70E
:101A8000AD2CBE2C10E0F50161915F0120E1412FEA
:101A900082E493E00E94D8051A5F1036A1F783E133
:101AA000E0EDF1E0DE01119601900D928A95E1F7EB
:101AB000AD2CBE2C10E0F50161915F0128E1412FB2
:101AC00082E493E00E94D8051A5F1C36A1F7649661
:101AD0000FB6F894DEBF0FBECDBFDF91CF911F913F
:101AE0000F91EF90DF90BF90AF900895CF92DF926B
:101AF000EF92FF920F931F93CF93DF93CDB7DEB793
:101B000064970FB6F894DEBF0FBECDBF82E493E0BA
:101B10000E94ED0286E0E3EEF1E08E010F5F1F4FC1
:101B2000D80101900D928A95E1F7E02EF12E68011F
:101B300010E0F60161916F0120E0412F82E493E013
:101B40000E94D8051A5F1E31A1F78BE0E9EEF1E0A3
:101B5000DE01119601900D928A95E1F7CE2CDF2CD3
:101B600010E0F60161916F0128E0412F82E493E0DB
:101B70000E94D8051A5F1C33A1F788E0E4EFF1E07A
:101B8000DE01119601900D928A95E1F7CE2CDF2CA3
:101B900010E0F60161916F0120E1412F82E493E0B2
:101BA0000E94D8051A5F1A32A1F788E0ECEFF1E045
:101BB000DE01119601900D928A95E1F7CE2CDF2C73
:101BC00010E0F60161916F0128E1412F82E493E07A
:101BD0000E94D8051A5F1A32A1F78CE0E4E0F2E027
:101BE000DE01119601900D928A95E1F7CE2CDF2C43
:101BF00010E0F60161916F0120E2412F82E493E051
:101C00000E94D8051A5F1234A1F789E0E0E1F2E002
:101C1000DE01119601900D928A95E1F7CE2CDF2C12
:101C200010E0F60161916F0128E2412F82E493E018
:101C30000E94D8051A5F1033A1F764960FB6F89486
:101C4000DEBF0FBECDBFDF91CF911F910F91FF90EF
:101C5000EF90DF90CF900895DF92EF92FF920F9375
:101C60001F93CF93DF93CDB7DEB764970FB6F89489
:101C7000DEBF0FBECDBF8FE293E00E94DD2482E481
:101C800093E00E94ED0201E020918B0740918A07CA
:101C90006091890782E493E00E949C060F2EF9E789
:101CA000EF2EF7E0FF2EF02D11E4F70161917F0197
:101CB00020E0412F82E493E00E94D8051A5F11379B
:101CC000A1F70F2EF1E8EF2EF7E0FF2EF02D11E433
:101CD000F70161917F0128E3412F82E493E00E94A4
:101CE000D8051A5F1137A1F70E943B09282F332727
:101CF00027FD30953F938F9381E391E09F938F93DE
:101D0000CE0101969F938F930E94462F0F900F90C4
:101D10000F900F900F900F90882359F18E010F5F55
:101D20001F4F81506894EE24E1F8F12CEC0EFD1E5B
:101D3000E80EF11C0F2EF9E4DF2EF02DF801619171
:101D40008F01862F877F853239F428E14D2D82E47B
:101D500093E00E94D80508C0605324E14DEF4D0D7B
:101D600082E493E00E942606F0E1DF0E0E151F05C7
:101D700029F7E3E3F3E083818F9382818F9381815D
:101D80008F9380818F9389E192E09F938F93CE010F
:101D900001969F938F930E94462F0FB6F894DEBF53
:101DA0000FBECDBF8823F1F08E010F5F1F4F815012
:101DB0006894EE24E1F8F12CEC0EFD1EE80EF11C07
:101DC0000F2EF6E4DF2EF02DF80161918F0128E24D
:101DD0004D2D82E493E00E94D805F6E0DF0E0E154B
:101DE0001F0591F764960FB6F894DEBF0FBECDBF06
:101DF000DF91CF911F910F91FF90EF90DF900895A9
:101E00000F931F93CF93DF9382E493E00E94ED0240
:101E100082E00E94190A00E020918B0740918A0716
:101E20006091890782E493E00E949C06C9E7D7E0AD
:101E300011E4699120E0412F82E493E00E94D805EB
:101E40001A5F1F35B1F7C1E8D7E011E4699128E3C3
:101E5000412F82E493E00E94D8051A5F1137B1F751
:101E60006091790760532DE046E482E493E00E949C
:101E7000260660917A0760532DE046E582E493E000
:101E80000E94260660917C07605322E246E482E4C9
:101E900093E00E94260660917D07605322E246E5AA
:101EA00082E493E00E942606DF91CF911F910F916B
:101EB00008951F93CF93DF9382E493E00E94ED0295
:101EC00081E00E94010B81E00E94190A609179076C
:101ED00060532DE045E082E493E00E942606609185
:101EE0007A0760532DE045E182E493E00E942606E4
:101EF00060917C07605322E245E082E493E00E9417
:101F0000260660917D07605322E245E182E493E07A
:101F10000E942606C3E9D7E068811DEC619F612D10
:101F200011246695669566952DE046E482E493E07B
:101F30000E9426066881619F812D112486958695D1
:101F40008695880F982F990F990F890F681B2DE0A0
:101F500046E582E493E00E942606C2E9D7E0688164
:101F6000619F612D112466956695669522E246E48F
:101F700082E493E00E9426066881619F112D11245E
:101F8000169516951695110F812F880F880F180F2B
:101F9000611B22E246E582E493E00E9426068091DE
:101FA000910783FF07C020E040E06FE682E493E002
:101FB0000E94D8058091290383FF09C060912803FE
:101FC000605D20E046E082E493E00E94D805DF9166
:101FD000CF911F9108952F923F924F925F926F92EF
:101FE0007F928F929F92AF92BF92CF92DF92EF92A9
:101FF000FF920F931F93CF93DF93CDB7DEB7629716
:102000000FB6F894DEBF0FBECDBF762E672E582ECA
:10201000492E822E232E942E352EEB86FC860D879C
:102020001E872FA12F8738A5388B89A5898B9AA564
:102030009A8B82E493E00E94ED0280E00E94190AEC
:1020400080E00E94010B4F925F926F927F9280E23C
:1020500092E09F938F93CE0101969F938F930E945E
:10206000462F27E0022F081B0FB6F894DEBF0FBEE5
:10207000CDBF073018F5102F1295107F7C01FF247B
:10208000E1E0F0E0EC0FFD1FE00FF11DEE0DFF1D94
:10209000379760816E3239F420E2412F82E493E079
:1020A0000E94D80507C0605328E1412F82E493E0E5
:1020B0000E9426060F5F105F073011F728E142E704
:1020C0006BE682E493E00E94D80528E148E76DE6DC
:1020D00082E493E00E94D80520E242E768E682E4C9
:1020E00093E00E94D8053F929F922F928F9280E2B8
:1020F00092E09F938F93CE0101969F938F930E94BE
:10210000462F482E0FB6F894DEBF0FBECDBF8823F2
:1021100099F0CE0101963C017C0110E0F70161913C
:102120007F0128E3412F82E493E00E94D8051A5FE3
:102130008E2D8619841590F3282D322D492D532D7F
:102140006FE18FE10E94040CFE85FF932D852F9394
:102150003C853F938B858F9386E292E09F938F938C
:10216000CE0101969F938F930E94462F882E0FB623
:10217000F894DEBF0FBECDBF8823C1F09E012F5F54
:102180003F4F790189010F2EF6E49F2EF02DF801C3
:1021900061918F0120E1492D82E493E00E94D805EE
:1021A000F6E09F0E902F9E19981588F3DF92CF923C
:1021B000BF92AF928CE292E09F938F93CE010196F3
:1021C0009F938F930E94462FC82E0FB6F894DEBFC0
:1021D0000FBECDBF8823B9F0CE0101967C018C01E2
:1021E0000F2EF6E4DF2EF02DF80161918F0128E229
:1021F0004D2D82E493E00E94D805F6E0DF0E902F8B
:102200009E199C1588F32A892F9339893F938889D1
:102210008F939F859F9385E392E09F938F93CE0149
:1022200001969F938F930E94462FC82E0FB6F89465
:10223000DEBF0FBECDBF8823C1F09E012F5F3F4F91
:10224000790189010F2EF6E4DF2EF02DF80161915E
:102250008F0120E34D2D82E493E00E94D805F6E043
:10226000DF0E902F9E199C1588F362960FB6F89496
:10227000DEBF0FBECDBFDF91CF911F910F91FF90B9
:10228000EF90DF90CF90BF90AF909F908F907F9016
:102290006F905F904F903F902F900895CF92DF9274
:1022A000EF92FF920F931F93CF93DF93CDB7DEB7DB
:1022B00064970FB6F894DEBF0FBECDBF82E493E003
:1022C0000E94ED0288E0EAE3F2E08E010F5F1F4F0B
:1022D000D80101900D928A95E1F7E02EF12E680168
:1022E00010E0F60161916F0120E0412F82E493E05C
:1022F0000E94D8051A5F1A32A1F788E0E2E4F2E002
:10230000DE01119601900D928A95E1F7CE2CDF2C1B
:1023100010E0F60161916F0128E0412F82E493E023
:102320000E94D8051A5F1A32A1F788E0EAE4F2E0C9
:10233000DE01119601900D928A95E1F7CE2CDF2CEB
:1023400010E0F60161916F0120E1412F82E493E0FA
:102350000E94D8051A5F1A32A1F788E0E2E5F2E0A0
:10236000DE01119601900D928A95E1F7CE2CDF2CBB
:1023700010E0F60161916F0128E1412F82E493E0C2
:102380000E94D8051A5F1A32A1F788E0EAE5F2E068
:10239000DE01119601900D928A95E1F7CE2CDF2C8B
:1023A00010E0F60161916F0120E2412F82E493E099
:1023B0000E94D8051A5F1A32A1F788E0E2E6F2E03F
:1023C000DE01119601900D928A95E1F7CE2CDF2C5B
:1023D00010E0F60161916F0128E2412F82E493E061
:1023E0000E94D8051A5F1A32A1F788E0EAE6F2E007
:1023F000DE01119601900D928A95E1F7CE2CDF2C2B
:1024000010E0F60161916F0120E3412F82E493E037
:102410000E94D8051A5F1A32A1F788E0E2E7F2E0DD
:10242000DE01119601900D928A95E1F7CE2CDF2CFA
:1024300010E0F60161916F0128E3412F82E493E0FF
:102440000E94D8051A5F1A32A1F764960FB6F89465
:10245000DEBF0FBECDBFDF91CF911F910F91FF90D7
:10246000EF90DF90CF9008959F92AF92BF92CF925E
:10247000DF92EF92FF920F931F93CF93DF93CDB72D
:10248000DEB764970FB6F894DEBF0FBECDBFC62E81
:10249000D72EE82EF92E8FE293E00E9455248FE28A
:1024A00093E00E94DD2482E493E00E94ED020F2E6F
:1024B000F9E7AF2EF7E0BF2EF02D11E4F5016191A1
:1024C0005F0120E0412F82E493E00E94D8051A5F6B
:1024D0001137A1F70F2EF1E8AF2EF7E0BF2EF02D48
:1024E00011E4F50161915F0128E3412F82E493E05B
:1024F0000E94D8051A5F1137A1F740912F03509120
:10250000300360913103709132038FE293E00E94B7
:102510005A259F938F937F936F938AE792E09F93BF
:102520008F93CE0101969F938F930E94462F0FB6F3
:10253000F894DEBF0FBECDBF8823F1F08E010F5F90
:102540001F4F81506894AA24A1F8B12CAC0EBD1E77
:10255000A80EB11C0F2EF1E49F2EF02DF801619111
:102560008F012AE0492D82E493E00E94D805F6E02D
:102570009F0E0A151B0591F7E3E3F3E083818F9328
:1025800082818F9381818F9380818F9389E192E003
:102590009F938F93CE0101969F938F930E94462F16
:1025A0000FB6F894DEBF0FBECDBF8823F1F08E01C9
:1025B0000F5F1F4F81506894AA24A1F8B12CAC0E74
:1025C000BD1EA80EB11C0F2EF1E49F2EF02DF801B8
:1025D00061918F0128E2492D82E493E00E94D805A1
:1025E000F6E09F0E0A151B0591F7FF92EF92DF921E
:1025F000CF9284E892E09F938F93CE0101969F93B0
:102600008F930E94462F0FB6F894DEBF0FBECDBF4A
:102610008823F1F08E010F5F1F4F81506894AA2428
:10262000A1F8B12CAC0EBD1EA80EB11C0F2EF1E40A
:102630009F2EF02DF80161918F0120E3492D82E456
:1026400093E00E94D805F6E09F0E0A151B0591F74E
:102650002C2D3D2D4E2D5F2D6FE18FE10E94E60B5D
:102660006C2D7D2D8E2D9F2D0E94280B64960FB60C
:10267000F894DEBF0FBECDBFDF91CF911F910F91B8
:10268000FF90EF90DF90CF90BF90AF909F90089514
:10269000AF92BF92DF92EF920F931F93CF93DF938E
:1026A000CDB7DEB764970FB6F894DEBF0FBECDBFCF
:1026B00082E493E00E94ED0288E0EFE8F2E08E0110
:1026C0000F5F1F4FD80101900D928A95E1F7D02E30
:1026D000E12E580110E0F50161915F0120E0412FEA
:1026E00082E493E00E94D8051A5F1A32A1F7609144
:1026F0002803662339F0605D20E04AE282E493E03B
:102700000E94D80590916E078DEC989F212D112481
:102710002695269526952983220F322F330F330FC6
:10272000230F921B9A839AE39B8320916F07289F24
:10273000312D11243695369536953C83330F432F32
:10274000440F440F340F231B2D839E8390917007F9
:10275000989F812D11248695869586958F83880F65
:10276000282F220F220F820F981B9887AD2CBE2C8A
:1027700010E0F50161915F016A3339F424E1412FE2
:1027800082E493E00E94D80506C020E1412F82E454
:1027900093E00E942606105F103859F764960FB632
:1027A000F894DEBF0FBECDBFDF91CF911F910F9187
:1027B000EF90DF90BF90AF900895AF92BF92DF92FD
:1027C000EF920F931F93CF93DF93CDB7DEB764974C
:1027D0000FB6F894DEBF0FBECDBF82E493E00E9437
:1027E000ED028BE0E7E9F2E08E010F5F1F4FD801A9
:1027F00001900D928A95E1F7D02EE12E580110E05C
:10280000F50161915F0120E0412F82E493E00E9495
:10281000D8051A5F1C33A1F7909153078DEC989F50
:10282000212D11242695269526952983220F322FB6
:10283000330F330F230F921B9A839AE39B832091CC
:102840005407289F312D11243695369536953C83B3
:10285000330F432F440F440F340F231B2D839E83CC
:1028600090915507989F812D112486958695869580
:102870008F83880F282F220F220F820F981B988793
:10288000AD2CBE2C10E0F50161915F016A3339F483
:1028900024E1412F82E493E00E94D80506C020E1A4
:1028A000412F82E493E00E942606105F103859F70A
:1028B00064960FB6F894DEBF0FBECDBFDF91CF9107
:1028C0001F910F91EF90DF90BF90AF900895BF924E
:1028D000CF92DF92EF92FF920F931F93CF93DF93EC
:1028E000CDB7DEB764970FB6F894DEBF0FBECDBF8D
:1028F0008FE293E00E9455248FE293E00E94DD2452
:1029000082E493E00E94ED0280E00E94190A80E0D8
:102910000E94010B8EE0E2EAF2E08E010F5F1F4F92
:10292000D80101900D928A95E1F7C02ED12E780141
:1029300010E0F70161917F0120E1412F82E493E0F3
:102940000E94D8051A5F1E34A1F7EFE2F3E08381FD
:102950008F9382818F9381818F9380818F9380EB7E
:1029600092E09F938F93CE0101969F938F930E9445
:10297000462F0FB6F894DEBF0FBECDBF8823D1F02F
:1029800081506894EE24E1F8F12CEC0EFD1EE80E67
:10299000F11C0C2D1D2DB12CF80161918F0128E146
:1029A0004B2D82E493E00E94D805F6E0BF0E0E1591
:1029B0001F0591F740912F0350913003609131032F
:1029C000709132038FE293E00E945A259F938F9378
:1029D0007F936F9389EB92E09F938F93CE01019643
:1029E0009F938F930E94462F0FB6F894DEBF0FBEC1
:1029F000CDBF8823D1F081506894EE24E1F8F12C0A
:102A0000EC0EFD1EE80EF11C0C2D1D2DB12CF80155
:102A100061918F0120E24B2D82E493E00E94D80562
:102A2000F6E0BF0E0E151F0591F7E3E3F3E0838197
:102A30008F9382818F9381818F9380818F9389E19E
:102A400092E09F938F93CE0101969F938F930E9464
:102A5000462F0FB6F894DEBF0FBECDBF8823D1F04E
:102A600081506894EE24E1F8F12CEC0EFD1EE80E86
:102A7000F11C0C2D1D2DD12CF80161918F0120E34B
:102A80004D2D82E493E00E94D805F6E0DF0E0E158E
:102A90001F0591F764960FB6F894DEBF0FBECDBF49
:102AA000DF91CF911F910F91FF90EF90DF90CF902A
:102AB000BF9008952F923F924F925F926F927F92B4
:102AC0008F929F92AF92BF92CF92DF92EF92FF923E
:102AD0000F931F93CF93DF93CDB7DEB766970FB6F3
:102AE000F894DEBF0FBECDBF89E797E00E94D926DC
:102AF00082E493E00E94ED02912C0F2EFFE06F2EF6
:102B0000F02DCE0101967C01782E8F2CB12C8D8B6F
:102B1000FE8A0F2EFDECAF2EF02D0F2EFDE84F2E6E
:102B2000F7E05F2EF02D0F2EFFE8CF2EF7E0DF2E1F
:102B3000F02DE7ECF2E0A72DB82D862D01900D9237
:102B40008A95E1F7272C382C1B2DF10161911F018B
:102B50002B2D412F82E493E00E94D8051A5F143593
:102B6000A1F7EFE0F1E0A72DB82D862D01900D9291
:102B70008A95E1F72D883E881B2DF10161911F0197
:102B800028E0412F82E493E00E94D8051A5F1435B3
:102B9000A1F7E9E8F7E080818A9D912D11249695AF
:102BA000969596959983990F292F220F220F920FB0
:102BB000891B8A83FAE3FB83EAE8F7E080818A9D38
:102BC000912D11249695969596959C83990F292F72
:102BD000220F220F920F891B8D8380E28E83F201D8
:102BE00080818A9D912D11249695969596959F8327
:102BF000990F292F220F220F920F891B88878EE2AF
:102C00008987F60190819A9D212D1124269526957C
:102C100026952A87220F322F330F330F230F921B53
:102C20009B878C87E0E9F7E080818A9D912D1124B4
:102C30009695969596959D87990F292F220F220F8D
:102C4000920F891B8E873B2C01E01B2D04C01F5F58
:102C50000F5FF0E13F0E123069F020E1432DF701E4
:102C6000E10FF11D608182E493E00E9426060530A9
:102C700070F308C024E148E26B8182E493E00E9493
:102C8000D805E5CF8E01095F1F4F2B2C0F2EF6E0E4
:102C90003F2EF02D88E0381661F09BE0391649F0A0
:102CA00020E2422DF801608182E493E00E94260632
:102CB00009C028E248E0420DF801608182E493E017
:102CC0000E94D80533940F5F1F4FF0E12F0E8EE066
:102CD0003812E0CF82E493E00E94930382E493E011
:102CE0000E94ED02892D90E08A30910508F047C2DC
:102CF000FC01EC5CFF4F0C94E92D81E493E00E9411
:102D00005621880F982F990F990F890F883108F451
:102D100051C2E9E8F7E01082E6EDF2E0A72DB82D08
:102D2000862D01900D928A95E1F72D883E881B2D06
:102D3000F10161911F0128E3412F82E493E00E9499
:102D4000D8051A5F1435A1F739C281E493E00E94D7
:102D50005621E9E8F7E0208190E0820F911D88314B
:102D600010F480835EC2E9E8F7E01082E6EDF2E05D
:102D7000A72DB82D862D01900D928A95E1F72D880B
:102D80003E881B2DF10161911F0128E3412F82E450
:102D900093E00E94D8051A5F1435A1F712C281E4AE
:102DA00093E00E945621880F982F990F990F890F51
:102DB0008C3320F4EAE8F7E0808333C2EAE8F7E0F6
:102DC0001082E5EEF2E0A72DB82D862D01900D9230
:102DD0008A95E1F72D883E881B2DF10161911F0135
:102DE00028E3412F82E493E00E94D8051A5F14354E
:102DF000A1F7EAC181E493E00E945621EAE8F7E0F6
:102E0000208190E0820F911D8C3310F4808309C2E1
:102E1000EAE8F7E01082E5EEF2E0A72DB82D862D66
:102E200001900D928A95E1F72D883E881B2DF101C6
:102E300061911F0128E3412F82E493E00E94D805AD
:102E40001A5F1435A1F7C3C181E493E00E945621B3
:102E5000880F982F990F990F890F803218F4F2017B
:102E60008083DFC1F20110828BE0E4EFF2E0A72D56
:102E7000B82D01900D928A95E1F72D883E881B2D83
:102E8000F10161911F0128E3412F82E493E00E9448
:102E9000D8051A5F1C33A1F79DC181E493E00E941D
:102EA0005621F201208190E0820F911D803210F4B2
:102EB0008083B7C1F20110828BE0E4EFF2E0A72D2E
:102EC000B82D01900D928A95E1F72D883E881B2D33
:102ED000F10161911F0128E3412F82E493E00E94F8
:102EE000D8051A5F1C33A1F77AC181E493E00E94F0
:102EF0005621880F982F990F990F890F8D3018F44C
:102F0000F60180838EC1F60110828DE0EFEFF2E0D2
:102F1000A72DB82D01900D928A95E1F72D883E8856
:102F20001B2DF10161911F0128E3412F82E493E001
:102F30000E94D8051A5F1834A1F756C181E493E0C6
:102F40000E945621F601208190E0820F911D8D3064
:102F500010F480831EC0F60110828DE0EFEFF2E0E6
:102F6000A72DB82D01900D928A95E1F72D883E8806
:102F70001B2DF10161911F0128E3412F82E493E0B1
:102F80000E94D8051A5F1834A1F70F2EF5E09F2E86
:102F9000F02DF6019081892F8D7F843011F08930DA
:102FA00009F5F20180818F3108F4EAC01082F60140
:102FB00010828BE0E4EFF2E0A72DB82D01900D9286
:102FC0008A95E1F72D883E881B2DF10161911F0143
:102FD00028E3412F82E493E00E94D8051A5F1C3356
:102FE000A1F707C1923009F0CBC0F20180818E3188
:102FF00008F4C6C01082F60110828BE0E4EFF2E024
:10300000A72DB82D01900D928A95E1F72D883E8865
:103010001B2DF10161911F0128E3412F82E493E010
:103020000E94D8051A5F1C33A1F7E8C081E493E041
:103030000E945621880F982F990F990F890F82337C
:1030400020F4E0E9F7E08083ECC0E0E9F7E01082EB
:103050008CE0ECE0F3E0A72DB82D01900D928A955D
:10306000E1F72D883E881B2DF10161911F0128E3B6
:10307000412F82E493E00E94D8051A5F1234A1F731
:10308000C2C081E493E00E945621E0E9F7E020818C
:1030900090E0820F911D823310F480831FC0E0E91D
:1030A000F7E010828CE0ECE0F3E0A72DB82D019062
:1030B0000D928A95E1F72D883E881B2DF1016191D3
:1030C0001F0128E3412F82E493E00E94D8051A5F94
:1030D0001234A1F70F2EF7E09F2EF02DF60180811C
:1030E000823009F04DC0E0E9F7E08081837021F57E
:1030F000F20180818E3108F443C01082F601108203
:10310000E0E9F7E010828BE0E4EFF2E0A72DB82DC4
:1031100001900D928A95E1F72D883E881B2DF101D3
:1031200061911F0128E3412F82E493E00E94D805BA
:103130001A5F1C33A1F76CC0F20180818D3100F160
:103140001082F6011082E0E9F7E010828BE0E4EFF4
:10315000F2E0A72DB82D01900D928A95E1F72D8808
:103160003E881B2DF10161911F0128E3412F82E46C
:1031700093E00E94D8051A5F1C33A1F74EC09394C8
:103180009394FAE0F91508F0D4CC10928B071092C2
:103190008C0782E493E00E94ED0289E797E00E94A9
:1031A000DD2589E797E00E94A42589E797E00E9442
:1031B000C02639C0E9E8F7E0808333C099249A94A7
:1031C00030C099249A942DC0992493942AC09924AC
:1031D000939427C00F2EF3E09F2EF02D22C00F2EC8
:1031E000F3E09F2EF02D1DC00F2EF5E09F2EF02D49
:1031F00018C00F2EF3E09F2EF02D13C00F2EF3E01A
:103200009F2EF02D0EC00F2EF7E09F2EF02D09C03F
:103210000F2EF3E09F2EF02D04C00F2EF3E09F2E13
:10322000F02D939486CC66960FB6F894DEBF0FBE51
:10323000CDBFDF91CF911F910F91FF90EF90DF9065
:10324000CF90BF90AF909F908F907F906F905F9046
:103250004F903F902F9008951F920F920FB60F92AC
:1032600011248F93EF93FF931092B200EBE8F7E0F5
:1032700080818F5F8083E1E9F7E0808182608083D5
:10328000FF91EF918F910F900FBE0F901F901895A7
:10329000CF92DF92EF92FF92CF93DF93C0918400A1
:1032A000D09185002BED3FE049E450E40E94C32912
:1032B00026E636E646E650E40E94C3296B017C010F
:1032C000BE0180E090E00E94632820E030E040E012
:1032D0005EE30E94C3292DEB37E346E85AE30E94E0
:1032E000C3292AE037ED43EA5BE30E94FD269B01F8
:1032F000AC01C701B6010E94CA276B017C0120E026
:1033000030E040E253E40E94732988234CF4C092D9
:103310002403D0922503E0922603F092270308C0ED
:103320001092240310922503109226031092270373
:103330001092850010928400DF91CF91FF90EF9062
:10334000DF90CF900895FC01208130E0062E02C06E
:10335000359527950A94E2F720FD17C0EFE0F7E2D4
:103360003197F1F700C00000FC01808190E09C01E2
:1033700002C0359527956A95E2F720FF08C032E034
:103380003A95F1F700C081E0089580E0089580E06B
:1033900008951092910710922A0310922903109217
:1033A00028031092240310922503109226031092F2
:1033B00027031092200310922103109222031092EF
:1033C000230310921C0310921D0310921E031092EF
:1033D0001F03109218031092190310921A031092EF
:1033E0001B0310928500109284008FE08AB98AB185
:1033F0008F788AB93B98439A82E493E00E94140341
:1034000082E493E00E94ED0280E480937C00EAE78E
:10341000F0E083E0808380818068808380818064A5
:103420008083808186FDFDCF809178009091790026
:103430000E94730989E797E00E94AA2689E797E02E
:103440000E94C0268091290390912A038160909365
:103450002A0380932903789408958091290381FF9A
:103460000DC063E086E290E00E94A319882331F04A
:1034700063E371E186E39FE30E944819209191077D
:10348000822F8871883161F48091290390912A03F9
:10349000906C90932A0380932903277F20939107B0
:1034A00008954F925F926F927F92AF92BF92CF92A8
:1034B000DF92EF92FF920F931F93CF93DF93809150
:1034C000910781FF85C189E797E00E94822680915C
:1034D000290390912A039C012170307221303042DF
:1034E00061F40E94760D8091290390912A039068DF
:1034F00090932A038093290351C19C012870307254
:103500002830304261F40E94F00C809129039091A0
:103510002A03906890932A03809329033FC195FF63
:103520000CC00E94220C8091290390912A0390687C
:1035300090932A038093290331C185FF0CC00E9418
:103540004E118091290390912A03906890932A0349
:103550008093290323C180FF0CC00E942C0E809110
:10356000290390912A03906890932A03809329035A
:1035700015C182FF10C084E997E00E9469220E9471
:1035800034128091290390912A03906890932A0322
:103590008093290303C181FF96C04090240350907B
:1035A0002503609026037090270320911C0330911F
:1035B0001D0340911E0350911F03C301B2010E94DD
:1035C0007329181644F440921C0350921D03609214
:1035D0001E0370921F0320E030E0A901C301B20175
:1035E0000E94C327882399F08091180390911903B2
:1035F000A0911A03B0911B030196A11DB11D8093E8
:10360000180390931903A0931A03B0931B0326E6A3
:1036100036E646E650E4C301B2010E94CA27209173
:1036200020033091210340912203509123030E94F3
:10363000FD262B013C0160932003709321038093AE
:10364000220390932303C0911803D0911903109182
:103650001A0300911B03A0901C03B0901D03C0909F
:103660001E03D0901F0384E997E00E9469229B010A
:10367000AC01609124037091250380912603909101
:1036800027030F931F93DF93CF93830172010E944F
:10369000EB0F80918B070F900F900F900F9080FF92
:1036A00008C0109224031092250310922603109252
:1036B00027038091290390912A03906890932A030D
:1036C000809329036BC09C0128743327283431056B
:1036D00061F40E9448138091290390912A03906815
:1036E00090932A038093290359C087FF17C083FF53
:1036F00009C0E5E5F7E080818F5F808383E497E090
:103700000E9482260E94DD138091290390912A0352
:10371000906890932A038093290340C086FF20C0BD
:10372000E0E7F7E08081815080838EE597E00E949A
:10373000DF26882349F08091290390912A03906421
:1037400090932A03809329030E94481380912903B0
:1037500090912A03906890932A03809329031EC0B6
:1037600091FF0CC00E9467148091290390912A0355
:10377000906890932A038093290310C088709870F2
:103780008830984059F40E94590F809129039091F4
:103790002A03906890932A03809329038091290338
:1037A00090912A0396FF0FC060918B07617082E4AD
:1037B00093E00E9489038FE393E00E94C1238DE38D
:1037C00093E00E942623E1E9F7E080818D7F8083EA
:1037D0008091910782FF24C08091290390912A0350
:1037E00092FF0CC00E94000F8091290390912A0340
:1037F000906890932A03809329030DC093FF0BC018
:103800000E94590F8091290390912A039068909308
:103810002A0380932903E1E9F7E080818B7F80838D
:103820008091290390912A0399236CF482E493E018
:103830000E9493038091290390912A039F7790938C
:103840002A0380932903DF91CF911F910F91FF905D
:10385000EF90DF90CF90BF90AF907F906F905F9090
:103860004F900895813409F4D5C3E1E9F7E09081E0
:10387000292F226020832091290330912A032F3F92
:10388000310561F46FEA82E493E00E94F80280E07F
:1038900090E290932A03809329030895A90141702F
:1038A00050724130504209F05AC02E7F3F7D309314
:1038B0002A03209329038333F9F028F4813349F054
:1038C000823369F045C0853389F110F18633B9F14F
:1038D0003FC0216030932A0320932903089510925A
:1038E00055071092540710925307206830683093A0
:1038F0002A032093290308951092700710926F07EE
:1039000010926E07286430932A03209329030895A8
:1039100082E493E00E94ED028091290390912A03B2
:10392000906890932A03809329030895966090935A
:103930009107346830932A032093290308959660F1
:1039400090939107386030932A03209329030895B8
:103950002160306230932A032093290331C3A901E7
:10396000487050724830504209F03FC0277F3F7D79
:1039700030932A03209329038233B9F018F481335A
:1039800031F02CC08333B9F0843309F127C084E9C6
:1039900097E00E94E1228091290390912A0384609C
:1039A00090932A03809329030895206230932A0379
:1039B0002093290308950E945A158091290390911C
:1039C0002A03816090932A03809329030895286035
:1039D000386030932A0320932903089528603062C9
:1039E00030932A0320932903EBC235FF58C03F7D53
:1039F00030932A0320932903482F50E0FA01F197CE
:103A0000E730F10508F045C0E25CFF4F0C94E92D6A
:103A1000226030932A0320932903E1E8F0E08081BB
:103A200085608083089582E493E00E94ED02809196
:103A3000290390912A03906890932A038093290385
:103A40000895246030932A03209329030895216068
:103A5000306230932A03209329030895286030624E
:103A600030932A0320932903089582E493E00E946F
:103A7000ED028091290390912A03906890932A0384
:103A8000809329030895326030932A0320932903F9
:103A90000895306230932A032093290391C2A9012B
:103AA000487058704830584009F068C04091280369
:103AB000413011F130F0423079F1433009F43FC028
:103AC0007FC21092930710929207977E9260909314
:103AD0009107833209F474C28A3209F471C2982FB3
:103AE000990F9056292F220F220F920F9093930730
:103AF00091E09093280364C2833209F461C28A3250
:103B000009F45EC2E3E9F7E090819053980F908347
:103B100092E09093280354C2833209F451C28A324E
:103B200009F44EC2982F990F9056292F220F220F79
:103B3000920F9093920793E09093280341C28332AF
:103B400041F08A3231F0E2E9F7E040814053480F1A
:103B500040831092280340919307483108F030C207
:103B6000409192074C3308F02BC2277F30932A03F1
:103B7000209329039E609093910722C225FF51C094
:103B8000A9014F7D446050932A0340932903482F95
:103B900050E0FA01F197E830F105E0F5EB5BFF4FFB
:103BA0000C94E92D40E061E084E997E00E946621F1
:103BB000089540E261E084E997E00E94662108955B
:103BC00040E461E084E997E00E946621089540E6C0
:103BD00061E084E997E00E946621089540E861E091
:103BE00084E997E00E946621089540EA61E084E953
:103BF00097E00E946621089540EC61E084E997E037
:103C00000E946621089540EE61E084E997E00E94F9
:103C1000662108952B7D206230932A032093290387
:103C2000CFC1A901487455274834510509F087C010
:103C3000909128039230A9F128F4992361F09130F2
:103C400001F1BEC1943009F452C008F440C095306F
:103C500009F463C0B5C1833209F4B2C18A3209F4F0
:103C6000AFC1E0E7F7E0982F990F9056292F220F68
:103C7000220F920F2081920F908391E0909328035E
:103C80009FC1833209F49CC18A3209F499C1E0E7EB
:103C9000F7E090819053980F908392E090932803DF
:103CA0008FC1833209F48CC18A3209F489C1EFE6ED
:103CB000F7E0982F990F9056292F220F220F920F7D
:103CC0002081920F908393E09093280379C18332EF
:103CD00009F476C18A3209F473C1EFE6F7E0908106
:103CE0009053980F908394E09093280369C1833296
:103CF00009F466C18A3209F463C1EEE6F7E0982F51
:103D0000990F9056292F220F220F920F2081920F88
:103D1000908395E09093280353C1833241F08A3217
:103D200031F0EEE6F7E090819053980F9083109277
:103D30002803277F30932A032093290341C127FFBB
:103D400023C08A3271F423FF06C0277F30932A03F1
:103D50002093290359C1286030932A032093290313
:103D600053C1803339F410925507109254071092C2
:103D700053070895833209F04DC12777306230939D
:103D80002A0320932903089520FF1CC0833239F4AD
:103D90002E7F306230932A032093290308958033C5
:103DA00009F00EC18FE393E00E945A23882329F083
:103DB0008FE393E00E948A2308958FE393E00E94AB
:103DC0002623089522FF1DC0833241F4C9018B7F51
:103DD000906290932A03809329030895803309F019
:103DE000EFC08FE393E00E945A23882329F08FE3EA
:103DF00093E00E948A2308958FE393E00E94262394
:103E0000089521FF3DC0833269F4C9018D7F90621E
:103E100090932A0380932903E1E8F0E080818A7F70
:103E2000808308958A32C9F410921C0310921D03F6
:103E300010921E0310921F03109220031092210370
:103E40001092220310922303109218031092190368
:103E500010921A0310921B03D7C0803309F0DAC006
:103E60008FE393E00E945A23882329F08FE393E0A5
:103E70000E948A2308958FE393E00E9426230895E9
:103E800031FF2CC0833241F4C9019D7F9062909331
:103E90002A038093290308958A3269F440912F03FD
:103EA0005091300360913103709132038FE293E0BF
:103EB0000E948C25A9C0803309F0ACC08FE393E049
:103EC0000E945A23882329F08FE393E00E948A23DB
:103ED00008958FE393E00E942623089526FF20C0D3
:103EE000833209F06DC02F7B3F7B30932A032093F0
:103EF000290360E082E493E00E9489038FE393E06A
:103F00000E948A238DE393E00E948A2380912903F3
:103F100090912A03906290932A0380932903089535
:103F200032FF1DC0833241F4C9019B7F90629093A0
:103F30002A03809329030895803309F041C08FE359
:103F400093E00E945A23882329F08FE393E00E9494
:103F50008A2308958FE393E00E942623089533FF78
:103F600026C0833241F4C901977F906290932A035F
:103F70008093290308958A3209F04CC094FF06C04B
:103F8000892F877E8260809391070BC093FF06C0C4
:103F9000892F877F82608093910703C09A609093F6
:103FA0009107E1E9F7E08081846080832DC0232BB5
:103FB00039F480E090E290932A03809329030895D6
:103FC0002091290330912A0336FF24C08A3211F54B
:103FD0003F7B30932A032093290360E082E493E03F
:103FE0000E9489038FE393E00E948A238DE393E08C
:103FF0000E948A2380919107982F9871983151F4EB
:10400000877E8093910708952091290330912A0398
:1040100036FDDECF08950E94C9190E942D1A0E9414
:10402000511A81E493E00E94BC200E94321CF5CF1B
:1040300084E997E00E94852189E797E00E9416268F
:104040008EE597E00E94162683E497E00E941626EC
:1040500082E493E00E947D0381E493E00E94942037
:1040600047E064E48FE393E00E94F52240E062E4DD
:104070008DE393E00E94F5228FE293E00E943724C3
:1040800008958FE293E00E94FB238DE393E00E946A
:1040900025238FE393E00E94252381E493E00E948F
:1040A000952082E493E00E94E90283E497E00E9475
:1040B00092258EE597E00E94922589E797E00E947D
:1040C000922584E997E00E946221089582E080931E
:1040D000B8000895089584EA8093BC00089584E9A7
:1040E0008093BC000895ECEBF0E080818823ECF72E
:1040F0006093BB0084E88093BC00ECEBF0E080812F
:104100008823ECF70895662321F084EC8093BC00AB
:1041100003C084E88093BC00ECEBF0E0808188234E
:10412000ECF78091BB00089508950895FB0180810C
:1041300090E0042E02C0959587950A94E2F780FFDF
:1041400017C08FEC97E00197F1F700C00000FB016A
:10415000808190E09C0102C0359527954A95E2F751
:1041600020FD08C03AE13A95F1F700C081E00895DA
:1041700080E0089580E008951F93CF93DF93EC01D2
:104180005B9A82E08A95F1F700C044E069E270E052
:10419000CE010E949620811112C045E069E270E0D4
:1041A000CE010E94962081110CC046E069E270E0C9
:1041B000CE010E949620811106C011E405C013E3D0
:1041C00003C012E301C011E35B985A9A82E08A951A
:1041D000F1F700C044E069E270E0CE010E94962051
:1041E000811111C045E069E270E0CE010E94962085
:1041F00081110BC046E069E270E0CE010E9496207A
:10420000811105C005C016E303C015E301C014E326
:104210005A98599A82E08A95F1F700C044E069E221
:1042200070E0CE010E949620811111C045E069E244
:1042300070E0CE010E94962081110BC046E069E239
:1042400070E0CE010E949620811105C005C019E3DF
:1042500003C018E301C017E35998589A82E08A9581
:10426000F1F700C044E069E270E0CE010E949620C0
:10427000811111C045E069E270E0CE010E949620F4
:1042800081110BC046E069E270E0CE010E949620E9
:10429000811105C005C013E203C010E301C01AE29A
:1042A0005898812FDF91CF911F910895CF93DF937D
:1042B000EC01CE010E94BC2080538A30D0F7DF9100
:1042C000CF91089506960E946A2008950F931F9338
:1042D000CF93DF93062F142FEC012696CE010E9478
:1042E0006B206CE3CE010E947320602FCE010E94F0
:1042F0007320612FCE010E947320CE010E946F2097
:10430000DF91CF911F910F910895CF93DF93EC012F
:1043100006960E94662040E760E0CE010E9466217A
:1043200040E261E0CE010E94662141E062E0CE0100
:104330000E9466211982188218861F821B821A82A7
:104340001A8619861D821C821C861B86DF91CF91DE
:104350000895BF92CF92DF92EF92FF920F931F9337
:10436000CF93DF9300D000D000D0CDB7DEB76C0183
:10437000F8947C0126E0E20EF11CC7010E946B203C
:104380006CE3C7010E94732063E0C7010E947320A1
:10439000C7010E946B206DE3C7010E9473208E014C
:1043A0000F5F1F4FB12C84E08B1538F061E0C7011F
:1043B0000E948320F801808306C060E0C7010E944C
:1043C0008320F8018083B3940F5F1F4FF6E0BF1284
:1043D000EACFC7010E946F20898190E0982F88273B
:1043E0002A81822BF601918380838B8190E0982F24
:1043F00088272C81822B958384838D8190E0982F50
:1044000088272E81822B938382837894F601808182
:1044100091818115904F09F447C0F6018281938103
:104420008115904F09F442C0F60184819581811570
:10443000904FF1F1F60183E0DF0120813181458564
:104440005685421753078CF436872587438954894C
:10445000240F351F332314F42F5F3F4F35952795D5
:1044600018963C932E9317971AC063897489261760
:1044700037077CF4348B238B240F351F332314F43C
:104480002F5F3F4F3595279518963C932E9317979E
:1044900006C047815085241B350B31832083815012
:1044A00032968111C9CF05C081E003C081E001C00F
:1044B00081E026960FB6F894DEBF0FBECDBFDF9128
:1044C000CF911F910F91FF90EF90DF90CF90BF9011
:1044D0000895CF92DF92EF92FF92CF93DF93EC019A
:1044E0000E94A921811157C06C817D81882777FDA9
:1044F0008095982F0E9465286B017C0168817981E5
:10450000882777FD8095982F0E946528A70196013E
:104510000E94702720E030E044E353E40E94C32966
:104520002BED3FE049E450E40E94CA2720E030E050
:1045300044E353E40E94FD2626E636E646E150E4D5
:104540000E94FD266B017C0120E030E044EB53E447
:104550000E94732988235CF020E030E044EB53E4B0
:10456000C701B6010E94FC266B017C011CC020E043
:1045700030E0A901C701B6010E94C32788239CF43B
:1045800020E030E044EB53E4C701B6010E94FD2671
:104590006B017C0108C00F2EC12CD12CF0E8EF2E4E
:1045A000FFEBFF2EF02D41E062E0CE010E9466217C
:1045B000C701B601DF91CF91FF90EF90DF90CF90D0
:1045C0000895FC0116861586148A138A10861782B0
:1045D000108A1786168A158A12861186128A118AFF
:1045E000108E178A148613860895FC014183608318
:1045F000633489F06434E1F0623431F524B181E050
:1046000090E0BC0102C0660F771F4A95E2F7AB014C
:10461000422B44B9089527B181E090E0FC0102C02B
:10462000EE0FFF1F4A95E2F7AF01422B47B90895FD
:104630002AB181E090E0BC0102C0660F771F4A9565
:10464000E2F7AB01422B4AB908950895FC0120819D
:10465000233491F02434F9F0223459F545B121E0A6
:1046600030E0B901018002C0660F771F0A94E2F7BB
:10467000CB01842B85B9089548B121E030E0B90120
:10468000FC01018002C0660F771F0A94E2F7CB019C
:10469000842B88B908954BB121E030E0B901FC01C9
:1046A000018002C0660F771F0A94E2F7CB01842BCA
:1046B0008BB90895FC012081233481F02434D9F092
:1046C000223431F525B130E0A901018002C05595B1
:1046D00047950A94E2F7CA018170089528B130E045
:1046E000A901FC01018002C0559547950A94E2F7A3
:1046F000CA01817008952BB130E0A901FC0101804D
:1047000002C0559547950A94E2F7CA018170089551
:1047100082E00895FC012081233499F0243409F1CA
:10472000223471F545B121E030E0B901018002C0C9
:10473000660F771F0A94E2F7CB018095842385B931
:10474000089548B121E030E0B901FC01018002C0C8
:10475000660F771F0A94E2F7CB018095842388B90E
:1047600008954BB121E030E0B901FC01018002C0A5
:10477000660F771F0A94E2F7CB01809584238BB9EB
:104780000895FC0120812334A1F0243419F122344E
:1047900089F525B130E0018002C0359527950A944E
:1047A000E2F720FF03C00E948A2308950E94262377
:1047B000089528B130E0FC01018002C035952795AD
:1047C0000A94E2F720FF03C00E948A2308950E9402
:1047D000262308952BB130E0FC01018002C03595FD
:1047E00027950A94E2F720FF03C00E948A230895C8
:1047F0000E94262308950D960E946A2008950F9323
:104800001F93CF93DF93062F142FEC012D96CE012B
:104810000E946B206AEBCE010E947320602FCE01B4
:104820000E947320612FCE010E947320CE010E944E
:104830006F20DF91CF911F910F910895CF93DF9358
:10484000EC0140E060E10E94FF2344EA60E2CE0117
:104850000E94FF2340ED61E2CE010E94FF2347EC5E
:104860006EE2CE010E94FF23DF91CF910895CF9396
:10487000DF93EC010D960E946620188219821A823D
:104880001B821C821D821E821F828CEF888740E063
:1048900050E060E87FE349875A876B877C87CE01C9
:1048A0000E941E24DF91CF910895AF92BF92CF92C4
:1048B000DF92EF92FF921F93CF93DF9300D01F926E
:1048C000CDB7DEB75C01F8947C018DE0E80EF11CF9
:1048D000C7010E946B206AEBC7010E94732068EA3F
:1048E000C7010E947320C7010E946B206BEBC701B8
:1048F0000E947320FE0131966F0110E0123038F4EF
:1049000061E0C7010E948320F601808306C060E059
:10491000C7010E948320F60180831F5FFFEFCF1A3B
:10492000DF0A133059F7C7010E946F206B8170E0D6
:1049300080E090E00E94632820E030E040E857E407
:104940000E94C3296B017C016A8170E080E090E0E5
:104950000E94632820E030E040E853E40E94C3292D
:104960009B01AC01C701B6010E94FD266B017C01D1
:10497000698170E080E090E00E9463289B01AC01B7
:10498000C701B6010E94FD2620E030E040E859E36F
:104990000E94C329F5016083718382839383789495
:1049A0000F900F900F90DF91CF911F91FF90EF909C
:1049B000DF90CF90BF90AF900895CF92DF92EF92AB
:1049C000FF920F931F93CF93DF9300D0CDB7DEB745
:1049D0008C01F8947C018DE0E80EF11CC7010E9467
:1049E0006B206AEBC7010E9473206BEAC7010E942B
:1049F0007320C7010E946B206BEBC7010E947320DC
:104A0000CC24C394D12C02C0D394C394D11006C03B
:104A100061E0C7010E9483208983F6CF60E0C7016F
:104A20000E948320E1E0F0E0EC0FFD1FED0DF11D91
:104A30008083E1E0EC1540F7C7010E946F20898177
:104A40006A8170E0762F6627680F711D882777FDD1
:104A50008095982F0E94652820E030E040EF53E4D5
:104A60000E94CA276B017C01F8016085772767FDEA
:104A70007095872F972F0E94652820E030E04AE24A
:104A800052E40E94FD269B01AC01C701B6010E94C1
:104A9000FD26F801648375838683978378940F904D
:104AA0000F90DF91CF911F910F91FF90EF90DF90CA
:104AB000CF9008958F929F92AF92BF92CF92DF9244
:104AC000EF92FF92FC01C184D284E384F4849A01C2
:104AD000AB01C701B6010E94CA270E9483294B017E
:104AE0005C0120E030E048EC52E4C701B6010E94CE
:104AF000C329A50194010E94C3292CED3EEF4CE38C
:104B000051E40E94CA27FF90EF90DF90CF90BF90B2
:104B1000AF909F908F900895FC01418752876387E3
:104B2000748708950895FC01808D83FF0CC084FD77
:104B30000AC0228D9089291306C0218D91892913DD
:104B400002C08061808F0895FC0190898DEC989F50
:104B5000212D112426952695269530E3320F30839A
:104B6000220F322F330F330F230F921B905D91834F
:104B70009189989F212D112426952695269530E31D
:104B8000320F3383220F322F330F330F230F921B39
:104B9000905D94839289989F812D112486958695A6
:104BA000869520E3280F2683880F282F220F220FB7
:104BB000820F981B905D97830895FC0194898DEC7A
:104BC000989F212D112426952695269530E3320FA6
:104BD0003087220F322F330F330F230F921B905D3C
:104BE00091879689989F212D1124269526952695A3
:104BF00030E3320F3387220F322F330F330F230F5F
:104C0000921B905D94879789989F812D112486959A
:104C10008695869520E3280F2687880F282F220F58
:104C2000220F820F981B905D97870895CF93DF9393
:104C3000EC011A8A1B8A198A188A1C8A1E8A1F8A02
:104C40001D8A88E2898F8AE08A8FDE01FE0138960C
:104C500080E01D9211928F5F8830D9F78AE38A83B2
:104C60008D838EE28A878D87CE010E94A425CE0196
:104C70000E94DD25DF91CF910895FC012689322F16
:104C80003D7F343011F0393091F4FC0134893F31EB
:104C9000B0F131E0348B2F5F2D3010F4268B2FC014
:104CA00021E0FC01268B27892F5F278B28C022302B
:104CB000A9F4FC012789237041F424892E31F8F0EE
:104CC00021E0248B23E0268B1AC0FC0124892D319E
:104CD000B0F021E0248B23E0268B11C0FC01348945
:104CE000303268F031E0348B2F5F2D3010F4268B9A
:104CF00006C021E0FC01268B27892F5F278B0E94AD
:104D0000DD250895CF93DF93EC018A898C538D388C
:104D1000D0F41A8A89898F5F898B988D9460988FD7
:104D20008C3370F0198A88898F5F883110F4888BF2
:104D300007C0188A8C898F5F8C8BCE010E943D261C
:104D4000CE010E949325CE010E94A42580E0DF9130
:104D5000CF910895CF93DF93EC018AE0888B8EE1A9
:104D6000898B87E08C8B89E08E8B8FE08F8BCE01D7
:104D70000E94DD25CE010E94A425DF91CF910895E8
:104D8000FC0180E3808381839AE39283838384831D
:104D90009583868387831092B200E6EBF0E08081F2
:104DA0008062808381E08093700085E08093B10011
:104DB0000895E1EBF0E08081897F80830895FC0114
:104DC00082898D33B8F08BE3828B818981508D335A
:104DD00018F4818B80E008958BE3818B808981506A
:104DE000893118F4808B80E00895108A118A128A24
:104DF00081E0089580E008955058BB27AA270ED07F
:104E000027C2F0D130F0F5D120F031F49F3F11F4FA
:104E10001EF4C0C10EF4E095E7FBB6C1E92F3AD20B
:104E200080F3BA17620773078407950718F071F4C7
:104E30009EF552C20EF4E0950B2EBA2FA02D0B0159
:104E4000B90190010C01CA01A0011124FF27591BCF
:104E500099F0593F50F4503E68F11A16F040A22FD5
:104E6000232F342F4427585FF3CF46953795279546
:104E7000A795F0405395C9F77EF41F16BA0B620B45
:104E8000730B840BBAF09150A1F0FF0FBB1F661F8C
:104E9000771F881FC2F70EC0BA0F621F731F841FCF
:104EA00048F4879577956795B795F7959E3F08F0F5
:104EB000B3CF9395880F08F09927EE0F97958795B4
:104EC000089590D158F080E891E009F49EEF91D1D7
:104ED00028F040E851E059F45EEF09C05BC1FCC125
:104EE000E92FE078D7D168F3092E052AC1F32617F8
:104EF00037074807590738F00E2E07F8E02569F004
:104F0000E025E0640AC0EF6307F8009407FADB01CC
:104F1000B9019D01DC01CA01AD01EF934AD098D1DE
:104F20000AD05F91552331F02BED3FE049E450FD6D
:104F300049EC63CF0895DF93DD27B92FBF7740E8B1
:104F40005FE31616170648075B0710F4D92FCFD179
:104F50009F938F937F936F937FD2EAE9F0E01DD107
:104F600077D12F913F914F915F9119D2DD2349F075
:104F70009058A2EA2AED3FE049EC5FE3D0785D2744
:104F80004DDFDF9165C1DCD008F481E0089539D1AF
:104F9000E3956FC10CD05CC12CD140F023D130F02F
:104FA00021F45F3F19F0F0C0511197C1F3C072D1E5
:104FB00098F39923C9F35523B1F3951B550BBB27E0
:104FC000AA2762177307840738F09F5F5F4F220F8D
:104FD000331F441FAA1FA9F333D00E2E3AF0E0E886
:104FE00030D091505040E695001CCAF729D0FE2FD2
:104FF00027D0660F771F881FBB1F26173707480764
:10500000AB07B0E809F0BB0B802DBF01FF27935819
:105010005F4F2AF09E3F510568F0B6C05EC15F3F0A
:10502000ECF3983EDCF3869577956795B795F79501
:105030009F5FC9F7880F911D9695879597F90895F9
:10504000E1E0660F771F881FBB1F62177307840795
:10505000BA0720F0621B730B840BBA0BEE1F88F7A4
:10506000E095089504D06894B11137C108951AD11C
:1050700088F09F5790F0B92F9927B751A0F0D1F041
:10508000660F771F881F991F1AF0BA95C9F712C0CB
:10509000B13081F021D1B1E008951EC1672F782F82
:1050A0008827B85F39F0B93FCCF386957795679537
:1050B000B395D9F73EF490958095709561957F4FA3
:1050C0008F4F9F4F0895E89409C097FB3EF4909549
:1050D0008095709561957F4F8F4F9F4F9923A9F0D1
:1050E000F92F96E9BB279395F69587957795679560
:1050F000B795F111F8CFFAF4BB0F11F460FF1BC0A4
:105100006F5F7F4F8F4F9F4F16C0882311F096E936
:1051100011C0772321F09EE8872F762F05C06623E4
:1051200071F096E8862F70E060E02AF09A95660F9D
:10513000771F881FDAF7880F9695879597F9089556
:10514000990F0008550FAA0BE0E8FEEF1616170698
:10515000E807F907C0F012161306E407F50798F000
:10516000621B730B840B950B39F40A2661F0232B19
:10517000242B252B21F408950A2609F4A140A69595
:105180008FEF811D811D089597F99F6780E870E07A
:1051900060E008959FEF80EC0895DF93CF931F9315
:1051A0000F93FF92EF92DF927B018C01689405C010
:1051B000DA2EEF01F4D0FE01E894A5912591359106
:1051C00045915591AEF3EF0129DEFE019701A8014B
:1051D000DA9479F7DF90EF90FF900F911F91CF91C4
:1051E000DF91089500240A9416161706180609067A
:1051F000089500240A94121613061406050608954D
:10520000C9CF50D0E8F3E894E0E0BB279F57F0F017
:105210002AED3FE049EC06C0EE0FBB0F661F771F7B
:10522000881F28F0B23A62077307840728F0B25A41
:10523000620B730B840BE3959A9572F7803830F408
:105240009A95BB0F661F771F881FD2F7904829C118
:10525000092E0394000C11F4882352F0BB0F40F484
:10526000BF2B11F460FF04C06F5F7F4F8F4F9F4FC4
:105270000895EF93E0FF06C0A2EA2AED3FE049EC73
:105280005FEBCCDDE5DF0F90039401FC9058E7EC79
:10529000F0E013C157FD9058440F551F59F05F3F80
:1052A00071F04795880F97FB991F61F09F3F79F048
:1052B00087950895121613061406551FF2CF4695CA
:1052C000F1DF08C0161617061806991FF1CF86954C
:1052D0007105610508940895E894BB276627772730
:1052E000CB0197F908952CDF08F48FEF08959B0107
:1052F000AC0160E070E080E89FE34CCE0EF0CFC0E0
:1053000049CF689441CFCEDFC8F39923D1F3C6F3D8
:10531000DF93CF931F930F93FF92C92FDD2788232D
:105320002AF02197660F771F881FDAF720E030E018
:1053300040E85FEB9FE3883920F0803E30F0219613
:105340008F775BDDE5EEF0E003C057DDE2E1F1E0F1
:1053500024DF8B01BE01EC01FB2E6F57710975959F
:10536000771F880B990BB1DE28E132E741E35FE359
:1053700016D0AF2D9801AE01FF900F911F91CF91E4
:10538000DF914CDD65CF0BD063CF2CDF28F031DF10
:1053900018F0952309F0F8CEFDCE11249ECF7ADFC8
:1053A000A0F3959FD1F3950F50E0551F629FF00138
:1053B000729FBB27F00DB11D639FAA27F00DB11D91
:1053C000AA1F649F6627B00DA11D661F829F22271A
:1053D000B00DA11D621F739FB00DA11D621F839FA1
:1053E000A00D611D221F749F3327A00D611D231F77
:1053F000849F600D211D822F762F6A2F11249F57C5
:1054000050408AF0E1F088234AF0EE0FFF1FBB1FE7
:10541000661F771F881F91505040A9F79E3F510586
:1054200070F0B2CE5ACF5F3FECF3983EDCF3869536
:1054300077956795B795F795E7959F5FC1F7FE2B31
:10544000880F911D9695879597F908959F93D9DEBA
:105450000F9007FCEE5F0DCF9B01AC0194CFDF9363
:10546000D92FCFDEE695D7952AED3FE049E45FE3FB
:10547000B33A6207730784079507D7952AF0A2EA23
:1054800049EC9068CBDCE4DEEFE3F1E016D0DD0F11
:105490000BF02DDFDD0F0BF49058DF9108959F3F47
:1054A00031F0915020F4879577956795B795880FDF
:1054B000911D9695879597F908959F938F937F9364
:1054C0006F93FF93EF939B01AC015DDFEF91FF9131
:1054D00064DE2F913F914F915F9155CFA3E1B0E0F2
:1054E000E4E7FAE20C94EF2D7C011B016A01FC0158
:1054F00017821682838181FF66C3BE016F5F7F4F73
:105500004B01F7019381F10193FD859193FF819107
:105510001F01882309F453C3853239F493FD859123
:1055200093FF81911F01853239F4B70190E00E9409
:10553000142F56016501E5CF10E0512C20E02032F8
:10554000A0F48B3269F030F4803259F0833269F480
:1055500020612CC08D3239F0803339F4216026C0AF
:105560002260246023C0286021C027FD27C030EDC1
:10557000380F3A3078F426FF06C0FAE01F9F300D4E
:105580001124132F13C06AE0569E300D1124532EA0
:1055900020620CC08E3221F426FD11C3206406C0A7
:1055A0008C3611F4206802C0883641F4F10193FD75
:1055B000859193FF81911F018111C1CF9BEB980FC2
:1055C000933018F42061805E06C09BE9980F9330F9
:1055D00008F0AAC12F7E26FF16E02F73722E8536A3
:1055E00021F4F22FF0647F2E08C0863621F4622F5A
:1055F0006068762E02C01111115077FE07C01C336F
:1056000048F444244394410E27E00BC0183030F492
:10561000212F06C027E04CE3442E03C027E017E00B
:10562000412C560174E0A70EB11CF6016081718116
:1056300082819381042DA4010E94262E6C01098190
:1056400000FF02C003FF06C071FC07C072FC08C067
:10565000612C08C03DE2632E05C02BE2622E02C021
:1056600090E2692E802F8C7099F1662011F084E011
:1056700001C083E0851510F0512C0BC0581A73FC43
:1056800008C0B70180E290E00E94142F5A94C9F735
:10569000F3CF662029F0B701862D90E00E94142FE9
:1056A00003FD03C00CE714E002C008E714E0F72D87
:1056B000F0717F2EF8018491882309F476C271106D
:1056C0008052B70190E00E94142F0F5F1F4FF2CF5E
:1056D00077FE0FC04C0C04FF04C08A81813309F4AB
:1056E0004A94141474F5F8E0F41578F588E0482E1F
:1056F0002CC076FC2AC0812F90E08C159D059CF073
:105700006CEFC6166FEFD60674F0772D7068772EA3
:105710000AC0E2E0F0E0EC0FFD1FE10FF11D808117
:10572000803319F411501111F4CF77FE0EC04424C8
:105730004394410E812F90E0C816D9062CF41C1911
:1057400004C04424439401C010E077FE07C01C1439
:105750001D043CF496012F5F3F4F05C025E030E06B
:1057600002C021E030E0662011F02F5F3F4F11238F
:1057700031F0412F50E04F5F5F4F240F351F452D13
:1057800050E02417350714F4521A01C0512C872D0C
:10579000897049F4552039F0B70180E290E00E9409
:1057A000142F5A94F7CF662029F0B701862D90E088
:1057B0000E94142F73FC09C0552039F0B70180E313
:1057C00090E00E94142F5A94F7CF77FE5FC09C2D73
:1057D0008D2DD7FE02C090E080E0692E782E40E04B
:1057E00050E0C601841991099D878C87960126197E
:1057F0003709280D391D812F90E0EE27FF27E81B80
:10580000F90BFF87EE87FFEF6F167F0669F4B7018C
:105810008EE290E02B8B3A8B488B598B0E94142F91
:10582000598948893A892B89C614D70454F06C8564
:105830007D85661577052CF4F901E40FF51F81814C
:1058400001C080E371E0671A71084F5F5F4FEE851A
:10585000FF856E167F066CF0B70190E02B8B3A8BBC
:10586000488B598B0E94142F2B893A894889598972
:10587000CACF6C147D0439F49A81963318F49533A9
:1058800011F404FF81E3B70190E04BC08A818133BA
:1058900009F00F7EB70190E00E94142F111105C08E
:1058A00074FE18C085E490E017C0B7018EE290E066
:1058B0000E94142F82E066246394680EF401E80FBE
:1058C000F11D8081B70190E00E94142F115041F327
:1058D000862DF1CF85E690E0B7010E94142FD7FC0A
:1058E00005C0C114D10439F404FF05C0D194C1949A
:1058F000D1088DE201C08BE2B70190E00E94142F25
:1059000080E36AE0C616D1042CF08F5FFAE0CF1A6C
:10591000D108F7CFB70190E00E94142FB701C6015C
:10592000C0960E94142F41C1833631F0833779F03D
:10593000833509F058C021C0560172E0A70EB11C92
:10594000F6018081898301E010E0640114C05601F2
:10595000F2E0AF0EB11CF601C080D18026FF03C07B
:10596000612F70E002C06FEF7FEFC6012B8B0E94AA
:10597000092F8C012B892F7715C05601F2E0AF0E4D
:10598000B11CF601C080D18026FF03C0612F70E0FA
:1059900002C06FEF7FEFC6012B8B0E94FE2E8C01A1
:1059A0002B892068722E23FD1AC0852D90E00817E0
:1059B0001907A8F4B70180E290E00E94142F5A94CE
:1059C000F4CFF60177FC859177FE81916F01B701E5
:1059D00090E00E94142F51105A94015011090115A2
:1059E000110579F7E2C0843611F0893651F5560178
:1059F00027FF09C0F4E0AF0EB11CF6016081718190
:105A0000828193810AC0F2E0AF0EB11CF601608181
:105A10007181882777FD8095982F022F0F7697FF49
:105A200008C090958095709561957F4F8F4F9F4FDF
:105A300000682AE030E0A4010E94682FC82EC81830
:105A40003EC0022F853721F40F7E2AE030E01DC0D2
:105A5000097F8F3691F018F4883559F0B0C080373F
:105A600019F0883711F0ABC0006104FF09C0046071
:105A700007C024FF08C0066006C028E030E005C06B
:105A800020E130E002C020E132E0560107FF09C00A
:105A9000F4E0AF0EB11CF6016081718182819381C7
:105AA00008C0F2E0AF0EB11CF6016081718180E0A8
:105AB00090E0A4010E94682FC82EC8180F7706FF37
:105AC0000BC0202F2E7FC11650F404FF0AC002FD28
:105AD00008C0202F2E7E05C0DC2C202F03C0DC2C1C
