S00F000053445F746573742E737265635F
S113000093C00000B0C00000AEC00000ACC000004F
S1130010AAC00000A8C00000A6C00000A4C0000040
S1130020A2C00000A0C000009EC000009CC0000050
S11300309AC0000098C0000096C0000094C0000060
S113004092C0000090C000008EC000008CC0000070
S11300508AC0000088C0000086C0000084C0000080
S113006082C0000080C000007EC000007CC0000090
S11300707AC0000078C0000076C0000074C00000A0
S113008072C0000070C000006EC0000053035A0329
S1130090A704CA03A704A704A7049F04A704A704EA
S11300A0A704A704A704A704A704A704A704A704F4
S11300B0A704A704A704A704A704A704A704A704E4
S11300C0A704A704A704A704A704A704A704A704D4
S11300D0A704A704A704A704A704A704A704A704C4
S11300E0A704A704A704A704A704A704A704A704B4
S11300F050045604670478048D045A182E173D17CB
S11301003817381738173817381738173817381773
S1130110381738176818381738173817E416381787
S11301203D17381738172B1811241FBECFEFD0E412
S1130130DEBFCDBF11E0A0E0B1E0EAEFF1E300E003
S11301400BBF02C007900D92A832B107D9F721E185
S1130150A8E2B1E001C01D92AD35B207E1F70E94FB
S113016086180C94FB184CCF1CBC84B18F7084B9D6
S113017085B18F7085B985B1806F85B908958EBDBD
S11301800DB407FEFDCF8EB508952C9A8FEFF7CFEF
S113019008952C988FEFF3DF82E3809329018FEF8A
S11301A0EEDF8F3F41F0809129018111F8CFEDDF1F
S11301B080E090E0089581E090E008950F931F930C
S11301C0CF93DF93EC018B0184E180932A018FEFBD
S11301D0D6DF8F3F39F490912A019111F8CF80E056
S11301E090E01EC08E3FD1F48FEF8EBD0DB407FE9C
S11301F0FDCF9EB598838EBD0DB407FEFDCF22962C
S11302009EB5FE01319790830250110971F78FEF6B
S1130210B6DF8FEFB4DF81E090E002C080E090E0D1
S1130220DF91CF911F910F910895FF920F931F9328
S1130230CF93DF93C82FD42F152F062FF72E8823A3
S11302404CF440E050E0BA0187E3EFDF823008F07D
S11302503CC0CF77CC30F1F098DF9BDF892BC1F025
S11302608C2F80648CDF8F2D8ADF802F88DF812F95
S113027086DF8D2F84DFCC2329F121C08FEF7FDF30
S1130280CAE08FEF7CDF882304F5C150D1F71DC08D
S11302908FEF1BC08CE473DF8F2D71DF802F6FDF36
S11302A0812F6DDF8D2F6BDF81E069DFCC3031F37F
S11302B0E7CF87E864DFE4CF81E061DFE1CFC830D6
S11302C0C1F3FACF85E95BDFDBCFDF91CF911F91DB
S11302D00F91FF9008951F93CF93DF93EC01162F96
S11302E092E3909329018FEF4ADF8F3F31F0909191
S11302F029019111F8CF80E026C0812F40DF1D3FF6
S113030001F19E013E5F88818EBD0DB407FEFDCFD5
S11303102296FE01319780818EBD0DB407FEFDCF7C
S1130320C217D30781F78FEF2ADF8FEF28DF8FEF14
S113033026DF282F2F7181E090E0253021F080E026
S113034002C081E090E0DF91CF911F910895CF9298
S1130350DF92EF92FF920F931F93CF93DF9300D01E
S113036000D0CDB7DEB781119FC0FEDE80910001C1
S113037081FF03C080910001A2C085B1806F85B95F
S113038084B1806F84B982E58CBD91E09DBD8CBD44
S11303901AE08FEFF4DE1150E1F740E050E0BA01CB
S11303A080E043DF813009F086C084E680932A012F
S11303B04AEA51E060E070E088E037DF813009F01C
S11303C03FC0CE0101966C017E0195E0E90EF11C5F
S11303D086018FEFD4DEF80181938F01EE15FF05BE
S11303E0C1F78B81813009F066C08C818A3A09F0AB
S11303F062C080912A01882341F040E050E060E02F
S113040070E489EA12DF8111F4CF80912A018823F4
S113041009F451C040E050E0BA018AE306DF8111DB
S11304204AC0760114E01C0D8FEFA9DEF701819319
S11304307F011E13F9CF898186FD38C084E037C05F
S113044040E050E0BA0189EAF0DE823018F001E0C1
S113045011E002C002E019EA90912A01992339F0CF
S113046040E050E0BA01812FE0DE8111F5CF8091A8
S11304702A01882301F140E052E060E070E080E16D
S1130480D4DE811118C0009328017FDE002341F0DF
S1130490809100018E7F8093000180E58CBD01C0B6
S11304A063DE809100010BC081E009C08CE0809381
S11304B028016BDEEDCF1092280167DEF1CF0F909B
S11304C00F900F900F90DF91CF911F910F91FF909C
S11304D0EF90DF90CF900895811103C080910001C7
S11304E0089581E00895FF920F931F93CF93DF93B4
S11304F0EB0181113FC00115110509F43DC0809144
S1130500000180FD3BC08091280183FD09C0012EBC
S113051019E0220F331F441F551F1A95D1F7102DD0
S11305200230110528F40F2EF1E1FF2EF02D04C046
S11305300F2EF2E1FF2EF02DBA01A9018F2D75DEE9
S1130540811112C060E072E0CE0138DE892B21F007
S1130550DE5F01501109B1F782E1F81205C040E0F5
S113056050E0BA018CE061DE10DE81E0012B39F449
S113057080E005C084E003C084E001C083E0DF9133
S1130580CF911F910F91FF900895CF92DF92EF9238
S1130590FF920F931F93CF93DF93EB0169017A01CD
S11305A0811151C00115110509F44FC0809100015A
S11305B080FD4DC08091000182FD4BC080912801D7
S11305C083FD09C00B2EB9E0CC0CDD1CEE1CFF1C16
S11305D0BA95D1F7B02D0130110589F4B701A60100
S11305E088E123DE811129C06EEFCE0174DE31E093
S11305F020E0892B09F030E0032F122F1EC08670F3
S113060029F0A80160E070E087E90FDEB701A601D8
S113061089E10BDE811111C06CEFCE015CDE892B08
S113062021F0DE5F01501109B9F76DEF80E090E031
S113063052DE892B11F401E010E0A7DD81E0012BEB
S113064049F480E007C084E005C084E003C083E08F
S113065001C082E0DF91CF911F910F91FF90EF9045
S1130660DF90CF900895EF92FF920F931F93CF9353
S1130670DF93CDB7DEB760970FB6F894DEBF0FBE39
S1130680CDBF81117CC18091000180FD7AC17A01C6
S1130690062F10E00733110508F059C1F801EA5B91
S11306A0FF4F0C94D91875DD11E0892B09F464C14E
S11306B010E062C140E050E0BA0189E0B6DD81118A
S11306C048C160E170E0CE01019678DD892B09F420
S11306D042C189818295869586958370813031F5F2
S11306E088858F7390E0A0E0B0E0DC01992788272B
S11306F00196A11DB11D298530E0322F22274A859C
S1130700240F311D820F931FA11DB11D072E7AE006
S1130710880F991FAA1FBB1F7A95D1F7702DF70177
S113072080839183A283B38310E026C18985829557
S1130730869586958370288590E0F4E02F9F800D40
S1130740911D11249C012F5F3F4F8F81837090E096
S1130750982F8827990F990F820F931FA0E0B0E07C
S11307603E813F702B85221F2227221F320F2A85AC
S11307702370220F230F275004C0880F991FAA1F2C
S1130780BB1F2A95D2F7F70180839183A283B38399
S113079010E0F2C01091280112FF2AC040E050E09E
S11307A0BA018DE842DD8111D8C08FEFE8DC60E149
S11307B070E0CE01019602DD892B09F4D0C010E36C
S11307C08FEFDDDC1150E1F72B8522952F7080E14E
S11307D090E0A0E0B0E004C0880F991FAA1FBB1FDF
S11307E02A95D2F7F70180839183A283B383C4C08F
S11307F040E050E0BA0189E018DD8111B2C060E147
S113080070E0CE010196DADC892B09F4ACC011FF4B
S113081020C08C85881F8827881F90E001962B852F
S11308202F73820F911D820F911D2E85229526957F
S113083026952370215002C0880F991F2A95E2F74C
S1130840A0E0B0E0F70180839183A283B38310E03A
S113085093C08C85282F237082958695877090E0AD
S1130860F8E02F9F800D911D112401962B852C7784
S113087030E035952795359527952F5F3F4F829F1B
S1130880A001839F500D929F500D1124CA01A0E036
S1130890B0E0F70180839183A283B38310E06CC03E
S11308A080912801FA01808310E066C040E050E0A6
S11308B0BA0189E0BADC811158C060E170E0C70177
S11308C07DDC11E0892B09F457C010E055C040E0ED
S11308D050E0BA018AE0A9DC811149C060E170E00E
S11308E0C7016CDC11E0892B09F446C010E044C058
S11308F040E050E0BA018AE398DC81113AC08701F4
S1130900F4E0EF0EF11C8FEF3ADCF80181938F01D4
S1130910EE15FF05C1F710E02FC040E050E0BA012A
S11309208DE883DC811127C08FEF29DC60E470E05F
S1130930C70144DC11E0892BF9F010E01DC014DC80
S11309408091000181608093000110E015C014E0E3
S113095013C011E011C011E00FC011E00DC011E08F
S11309600BC011E009C011E007C011E005C011E09F
S113097003C011E001C011E008DC812F03C084E052
S113098001C083E060960FB6F894DEBF0FBECDBF02
S1130990DF91CF911F910F91FF90EF900895411532
S11309A0510551F0A62FB72FFC01480F591F9D91F7
S11309B09193E417F507D9F708950F931F93DC017A
S11309C0FB01938D692F70E0762F6627828D682B4B
S11309D080E090E02C91233079F4058910E0102F09
S11309E000272489022B20E030E0980111270027FA
S11309F0602B712B822B932B1F910F910895CF9312
S1130A00DF93EC01A881B9811097F9F04C91413240
S1130A1058F04A3331F1FD0131969F0191919132A1
S1130A2028F09A33D1F704C0942F9D019A3381F4AE
S1130A30CD0101962817390771F4403379F41296E1
S1130A40B983A88380E090E00EC08FEF9FEF0BC0C6
S1130A5080E090E008C08FEF9FEF05C08FEF9FEF1D
S1130A6002C09D01E5CFDF91CF9108958F929F92AF
S1130A70AF92BF92CF92DF92EF92FF920F931F93A8
S1130A80CF93DF93FC012481222309F444C0EC01B9
S1130A90C2A4D3A4E4A4F5A45C01FEE2AF0EB11C8D
S1130AA001E010E0A7019601B50189816EDD811195
S1130AB034C01C828E8D9F8DA8A1B9A1B701A60157
S1130AC0481B590B6A0B7B0B8E899F89A88DB98DA6
S1130AD0481759076A077B0710F58B80912C82E031
S1130AE088169104F0F08E899F89A88DB98DC80E5F
S1130AF0D91EEA1EFB1E01E010E0A7019601B50114
S1130B00898143DDE1E08E1A9108F1E08F169104AA
S1130B1051F780E007C080E005C081E003C080E0B9
S1130B2001C080E0DF91CF911F910F91FF90EF9072
S1130B30DF90CF90BF90AF909F908F9008958F9249
S1130B409F92AF92BF92FF920F931F93CF93DF9325
S1130B50EC014A015B018AA59BA5ACA5BDA5841740
S1130B609507A607B707D9F0CE0180DFF82E8111CB
S1130B7017C001E010E0A5019401BE01625D7F4F42
S1130B808981B1DC882331F0FF24F39488248A948A
S1130B90982C54018AA69BA6ACA6BDA601C0F12C34
S1130BA08F2DDF91CF911F910F91FF90BF90AF9048
S1130BB09F908F900895CF93DF93EC011C828FEF69
S1130BC09FEFDC018AA79BA7ACA7BDA7CE01B7DF27
S1130BD0811151C0FE01E35DFD4F808190E0982FAB
S1130BE0882731972081822B85359A4A09F045C0A0
S1130BF0E55CF14020813197808190E0A0E0B0E095
S1130C00DC0199278827B22B32972081822B3196D9
S1130C10408150E0542F442760E070E0842B952BF2
S1130C20A62BB72BBB2786349144A445B10539F1D3
S1130C307E9680813197408150E060E070E0BA0197
S1130C4055274427782B32978081482BCF57DF4F85
S1130C50888190E0982F8827A0E0B0E0482B592B9A
S1130C606A2B7B2B772781E0463451446445710518
S1130C7039F480E005C083E003C082E001C080E075
S1130C80DF91CF9108950097C1F0DC01ED91FC91C3
S1130C9011973097A1F02081222399F02681378182
S1130CA012968D919C9113972817390761F48181CD
S1130CB013DC80FF0AC089E0089589E0089589E083
S1130CC0089589E0089589E0089580E008952F92B9
S1130CD03F924F925F926F927F928F929F92AF92C8
S1130CE0BF92CF92DF92EF92FF920F931F93CF9315
S1130CF0DF93CDB7DEB76D970FB6F894DEBF0FBEA6
S1130D00CDBF6C01CB01B42ED6011D921C9277DEAF
S1130D107C0199230CF4D4C2FC01EE0FFF1FE35DA8
S1130D20FE4F008111810115110509F4CBC2F601B2
S1130D3011830083D8018C91882361F011968C91E2
S1130D40CBDB80FD07C0BB2009F4BEC282FFBEC25C
S1130D508AE063C3F8011082E1828E2DF8DA80FD07
S1130D60B7C2BB2009F4D4C282FDB4C2D1C2DF0130
S1130D7017978C918823B9F01496CC908081D12C4C
S1130D80E12CF12CF82A12968C91E82A1197AC9157
S1130D90B0E0BA2FAA27CD01A0E0B0E0C82AD92A32
S1130DA0EA2AFB2A04C0C82CD92CE72EF62ED90136
S1130DB0CD92DD92ED92FD929D017096E417F507B8
S1130DC0B1F64E01B1E18B0E911C6894772471F851
S1130DD0F501C190D190E190F1905F01C114D1046B
S1130DE0E104F10439F0B701A601C801E4DE811180
S1130DF002C00DC0872DA814B90451F703C0C12C3B
S1130E00D12C7601833009F467C2811167C2D801FD
S1130E10DA968C91DA9790E0982F8827D9962C91BE
S1130E20822B8115904109F05BC2F801EB5BFF4F07
S1130E308080912C982C882431978081882AA12C39
S1130E40B12C81149104A104B104E9F47196808158
S1130E5031978080912CA12CB12C540199248824A1
S1130E60B82A32978081A5019401282BDA01C9019F
S1130E7031968080912C982C8824A12CB12C882A1E
S1130E80992AAA2ABB2AD80156968D929D92AD9290
S1130E90BC925997DE96AC91F801A3838FEF8A0F29
S1130EA0823008F01FC2F3ADF98B2F2FF801228393
S1130EB0222309F419C2822F90E09C0121503109A8
S1130EC082239323892B09F011C2E05CFF4F8081B8
S1130ED090E0982F8827F80127AD1C01222A31863B
S1130EE02086C1018F779927892B09F001C2EE5B17
S1130EF0FF4F4080512C542C442431978081482A40
S1130F00612C712C4114510461047104D1F4709664
S1130F10808131974080512C612C712C32015524F1
S1130F204424782A32978081482A3196808190E03F
S1130F30982F8827AC0160E070E0442A552A662A7D
S1130F40772AF80185ADE82FF0E03E2F2227F8013B
S1130F5084ADF901E82B309709F4CCC1B0E0A501C8
S1130F6094010E94E2186A8F7B8F8C8F9D8F9F0162
S1130F7040E050E02E8B3F8B488F598FC101880F82
S1130F80892F881F990B9195280F391F411D511DD9
S1130F90DA01C9012A8D3B8D4C8D5D8D280F391FD7
S1130FA04A1F5B1F2A8B3B8B4C8B5D8B421653066F
S1130FB06406750608F4A0C1C301B201621B730B79
S1130FC0840B950BE9892E2F30E040E050E00E941D
S1130FD0B718DA01C901211531054105510509F494
S1130FE08DC1263FFFE03F074105510518F0E2E0BF
S1130FF0E98B02C0F1E0F98B863F9F4FA105B10553
S113100008F09DC129013A0182E0480E511C611C7F
S1131010711CD80152964D925D926D927C925597B7
S1131020F801C28ED38EE48EF58E8E899F89A88DA9
S1131030B98D8C0D9D1DAE1DBF1D868F978FA0A3EE
S1131040B1A34A895B896C897D894C0D5D1D6E1D38
S11310507F1D46A357A360A771A7F989F33009F050
S113106044C0232809F04CC1F801E35AFF4F208102
S11310703197808190E0A0E0B0E0DC0199278827D7
S1131080B22B32972081AC01BD01422B3196808175
S1131090282F30E0922F8827A0E0B0E0842B952BF6
S11310A0A62BB72BF80182A393A3A4A3B5A3440C46
S11310B0551C661C771C440C551C661C771CFFEFE2
S11310C04F0EFFE05F1E611C711C032E3CE0769402
S11310D06794579447943A95D1F7302D8414950426
S11310E0A604B70408F40EC156C1232809F40CC1A0
S11310F02A8D3B8D4C8D5D8D820F931FA41FB51FD0
S1131100F80182A393A3A4A3B5A3F989F23029F427
S1131110440C551C661C771C6AC1A3E0B0E0A30113
S113112092010E94E218DC01CB01B695A795979530
S1131130879521E04222552466247724480E591EBF
S11311406A1E7B1E54C1B701A6014F5F5F4F6F4FEC
S11311507F4FC801F4DC811196C0D80115961C920A
S1131160F801E35DFD4F808190E0982F8827319747
S11311702081822B85359A4A09F088C0F80121A97B
S113118080A990E0A0E0B0E0DC0199278827B22B89
S113119026A5AC01BD01422B27A530E0922F88275C
S11311A0A0E0B0E0842B952BA62BB72B823592457B
S11311B0A146B14409F06DC0F801EB5EFD4F2081FA
S11311C03197808190E0A0E0B0E0DC019927882786
S11311D0B22B32972081AC01BD01422B3196208184
S11311E030E0922F8827A0E0B0E0842B952BA62B2B
S11311F0B72B82379247A144B14609F04DC03696C9
S113120020813197808190E0A0E0B0E0DC01992753
S11312108827B22B32972081AC01BD01422B319635
S1131220208130E0922F8827A0E0B0E0842B952B1A
S1131230A62BB72BF80186879787A08BB18BE35E2B
S1131240FD4F20813197808190E0A0E0B0E0DC0187
S113125099278827B22B32972081AC01BD01422BFC
S11312603196208130E0922F8827A0E0B0E0842BD3
S1131270952BA62BB72BF80182879387A487B58774
S1131280F3E0F98B0BC0E3E0E98B08C0F3E0F98BE2
S113129005C0E3E0E98B02C0F3E0F98BE989D801EA
S11312A0EC9380912B0190912C01019690932C0149
S11312B080932B0117969C938E93169780E0ADC074
S11312C08BE0ABC08CE0A9C080E0A7C080E0A5C0E3
S11312D083E0A3C08AE0A1C081E09FC08DE09DC0EF
S11312E08DE09BC08DE099C08DE097C08DE095C0E6
S11312F08DE093C08DE091C08DE08FC08DE08DC0F6
S11313008DE08BC08DE089C08DE087C08DE085C005
S113131040E050E0BA01C8014EDC813009F06FCDE5
S11313209E012F5F3F4F5901F801E950FE4FA8017C
S1131330495C5D4F812C912C70E060E018CD29014F
S11313403A0162E0460E511C611C711CD801529690
S11313504D925D926D927C925597F801C28ED38E18
S1131360E48EF58E8E899F89A88DB98D8C0D9D1D77
S1131370AE1DBF1D868F978FA0A3B1A38A899B89B9
S1131380AC89BD898C0D9D1DAE1DBF1D86A397A381
S1131390A0A7B1A766CE8FEF9FEFDC01F801868787
S11313A09787A08BB18B82879387A487B58780E8C2
S11313B08583E15AFF4F808190E0982F88273197E9
S11313C02081822B019709F4BECEF3E0F98B66CF1E
S11313D08FEF9FEFDC01F80186879787A08BB18B95
S11313E082879387A487B58780E8858357CFFFEFEB
S11313F04F0EFFE05F1E611C711C032E3CE07694CF
S11314006794579447943A95D1F7302D84149504F2
S1131410A604B70408F47ACFDBCF6D960FB6F89420
S1131420DEBF0FBECDBFDF91CF911F910F91FF9013
S1131430EF90DF90CF90BF90AF909F908F907F9070
S11314406F905F904F903F902F900895CF92DF92CE
S1131450EF92FF92FC019A01AB012250310941093C
S11314605109C288D388E488F58882E0C81AD10873
S1131470E108F1082C153D054E055F0568F4A281CD
S1131480B0E00E94E218C6A0D7A0E0A4F1A46C0DBD
S11314907D1D8E1D9F1D03C060E070E0CB01FF9099
S11314A0EF90DF90CF900895AF92BF92CF92DF92EA
S11314B0EF92FF920F931F93CF93DF93EC016A0196
S11314C07B01423051056105710508F4CBC08A895E
S11314D09B89AC89BD89481759076A077B0708F0BF
S11314E0C6C08881823009F44DC0833009F473C0CA
S11314F0813009F0C1C08A0116950795040F151FA4
S1131500C801892F992782958F704E8D5F8D68A1B0
S113151079A1480F591F611D711DCE0110DB811186
S1131520B0C058018FEFA81AB80A1F70FE01E00F6F
S1131530F11F16A5C501892F992782958F704E8DAD
S11315405F8D68A179A1480F591F611D711DCE01DE
S1131550F6DA81119AC08FE0B822CA0DDB1D8EA580
S1131560612F70E0782BC0FE09C0729562956F7090
S113157067277F70672780E090E092C07F7080E0EB
S113158090E08EC08E8D9F8DA8A1B9A1032E3BE063
S113159076956795579547953A95D1F7302D480F2D
S11315A0591F6A1F7B1FCE01CADA811172C0CC0C8D
S11315B0DD1CEE1CFF1CE894C0F88FE0D822EE245A
S11315C0FF24FE01EC0DFD1D66A587A570E0782BB8
S11315D080E090E065C08E8D9F8DA8A1B9A1032EF7
S11315E03AE076956795579547953A95D1F7302D1A
S11315F0480F591F6A1F7B1FCE01A1DA81114DC00C
S1131600CC0CDD1CEE1CFF1CCC0CDD1CEE1CFF1CEA
S11316108CEFC8228FE0D822EE24FF24F601BE9678
S1131620EC0FFD1F22816381862F90E0A0E0B0E0E3
S1131630B82FAA2799278827AC01BD01622B818185
S113164090E0982F8827A0E0B0E0842B952BA62B60
S1131650B72BFE01EC0DFD1D26A5822BBC01CD018F
S11316609F701EC061E070E080E090E019C061E00E
S113167070E080E090E014C061E070E080E090E011
S11316800FC06FEF7FEFCB010BC06FEF7FEFCB018C
S113169007C06FEF7FEFCB0103C06FEF7FEFCB018C
S11316A0DF91CF911F910F91FF90EF90DF90CF903A
S11316B0BF90AF900895AF92BF92CF92DF92EF9216
S11316C0FF920F931F93CF93DF93EC018B017D83E4
S11316D06C83CE80DF80E884F98481E0C816D1046D
S11316E0E104F10409F489C0E881F98182899389CC
S11316F0A489B589C816D906EA06FB0608F07FC096
S1131700C114D104E104F104C1F48081833041F4B3
S113171082A193A1A4A1B5A10097A105B10559F493
S1131720808591850817190708F06BC062A173A121
S113173084A195A135C06C017D01A28080E8A89E9A
S1131740500111240A151B0530F1B701A601888147
S11317509981AADE6B017C018FEFC816D806E806D2
S1131760F80609F450C082E0C816D104E104F1047B
S113177008F44BC0E881F98182899389A489B589E9
S1131780C816D906EA06FB0608F041C00A191B0967
S11317900A151B05D0F6B701A6018881998156DE8A
S11317A0CA86DB86EC86FD86611571058105910587
S11317B081F19801220F232F221F330B3195DC0175
S11317C0CB01820F931FA11DB11D8E879F87A88B0C
S11317D0B98B0F771127000F111F02951295107FF7
S11317E01027007F1027025D1F4F88819981800F89
S11317F0911F9B8B8A8B80E00DC082E00BC082E03E
S113180009C082E007C081E005C082E003C082E035
S113181001C082E0DF91CF911F910F91FF90EF9073
S1131820DF90CF90BF90AF9008954F925F926F92E8
S11318307F928F929F92AF92BF92CF92DF92EF925C
S1131840FF920F931F93CF93DF93EC016A017B0107
S113185028013901423051056105710508F4E1C0E0
S11318608A899B89AC89BD89481759076A077B0710
S113187008F0D9C08881823009F465C0833009F446
S11318808DC0813009F0D1C05A01B694A794A40E3A
S1131890B51EC501892F992782958F704E8D5F8D56
S11318A068A179A1480F591F611D711DCE0147D947
S11318B0182F8111D8C045018FEF881A980AAFE01C
S11318C0BA22C0FE21C0FE01EA0DFB1D86A5282F09
S11318D02F70B0E14B9EC0011124822B86A781E0BA
S11318E08C834E8D5F8D68A179A1C401892F9927BE
S11318F082958F70480F591F611D711DCE011FD92C
S1131900882309F498C093C0FE01EA0DFB1D46A686
S113191081E08C834E8D5F8D68A179A1C401892FEC
S1131920992782958F70480F591F611D711DCE0133
S113193006D9882309F48AC07CC0EC0FFD1F46A693
S113194081E08C8390C08E8D9F8DA8A1B9A1032EB8
S11319503BE076956795579547953A95D1F7302DA5
S1131960480F591F6A1F7B1FCE01E9D8182F811118
S11319707AC0CC0CDD1CEE1CFF1CE894C0F83FE0E0
S1131980D322EE24FF24FE01EC0DFD1D46A6FE012C
S1131990EC0DFD1D57A681E08C8365C08E8D9F8D57
S11319A0A8A1B9A1032E3AE0769567955795479576
S11319B03A95D1F7302D480F591F6A1F7B1FCE016E
S11319C0BED8182F81114FC0CC0CDD1CEE1CFF1C9F
S11319D0CC0CDD1CEE1CFF1C8CEFC8228FE0D8223F
S11319E0EE24FF24F601BE96EC0FFD1F838190E0E8
S11319F0A0E0B0E0B82FAA2799278827CC0EDD1ED7
S1131A0088279927AA27B07F482A592A6A2A7B2A35
S1131A10D6019E964C9251826282738281E08C83BD
S1131A2022C012E020C012E01EC012E01CC0182F19
S1131A301AC0182F18C0F401FF70689413F8769434
S1131A406794579447941694D1F777CFF401FF70B5
S1131A50DE01AE0FBF1F9E969C91907F852D8F70E7
S1131A60492E482A6ACF812FDF91CF911F910F9180
S1131A70FF90EF90DF90CF90BF90AF909F908F90AA
S1131A807F906F905F904F9008952F923F924F9266
S1131A905F926F927F928F929F92AF92BF92CF92FA
S1131AA0DF92EF92FF920F931F93CF93DF93EC019A
S1131AB02A013B014115510561057105B9F48A8478
S1131AC09B84AC84BD8481149104A104B10459F1B4
S1131AD08A899B89AC89BD8988169906AA06BB06A2
S1131AE030F1812C912C5401839421C0DDDC6B01F5
S1131AF07C01623071058105910508F496C08FEF71
S1131B00C816D806E806F80609F494C08A899B89A1
S1131B10AC89BD89C816D906EA06FB0608F48FC04D
S1131B205301420104C0812C912C5401839475010A
S1131B3064016894222421F8312C00E010E02FEF96
S1131B40C21AD20AE20AF20A8A899B89AC89BD893F
S1131B50C816D906EA06FB0658F082E088169104F6
S1131B60A104B10408F470C0C22CD32CE02EF12ED1
S1131B70B701A601CE0198DC6115710581059105B7
S1131B8099F06F3F2FEF72078207920709F461C043
S1131B90613071058105910509F460C0C814D90448
S1131BA0EA04FB0461F65FC08C2C9D2CAE2CBF2C88
S1131BB00FEF1FEF2FEF3FE0B701A601CE0135DE97
S1131BC081112CC0411451046104710451F00C2D95
S1131BD01D2D2E2D3F2DB301A201CE0126DE811134
S1131BE01DC08A869B86AC86BD868E859F85A88906
S1131BF0B9898F3F2FEF9207A207B207C9F1019766
S1131C00A109B1098E879F87A88BB98B8D818160CB
S1131C108D836C2D7D2D8E2D9F2D33C0813069F1E8
S1131C2061E070E080E090E02CC061E070E080E072
S1131C3090E027C06FEF7FEF8FEF9FEF22C06C2DF6
S1131C407D2D8E2D9F2D1DC060E070E080E090E022
S1131C5018C06FEF7FEF8FEF9FEF13C061E070E06C
S1131C6080E090E00EC060E070E080E090E009C0A9
S1131C706C2D7D2D8E2D9F2D04C06FEF7FEF8FEF88
S1131C809FEFDF91CF911F910F91FF90EF90DF9025
S1131C90CF90BF90AF909F908F907F906F905F9008
S1131CA04F903F902F9008957F928F929F92AF9282
S1131CB0BF92CF92DF92EF92FF920F931F93CF9335
S1131CC0DF93DC011496CD91DC911597219609F4EC
S1131CD0FFC01E968D909D90AD90BC90519781143D
S1131CE09104A104B10409F4F5C07B018C016E01D7
S1131CF0E894C7F8DD24C114D10409F0CDC0BFEFC6
S1131D008B1A9B0AAB0ABB0AFC0186869786A08ABB
S1131D10B18A4285538564857585411551056105F0
S1131D20710551F40190F081E02D80859185C817EB
S1131D30D90708F0D1C0B0C00190F081E02D228114
S1131D4030E021503109CE01880F892F881F990B6B
S1131D50919528233923232B09F09EC0CF01A4DBBE
S1131D604B015C01623071058105910508F4B6C030
S1131D706F3F7F4F8F4F9F4F09F4B2C0D801ED9151
S1131D80FC9182899389A489B58988169906AA0643
S1131D90BB0608F470C0EF2809F4A4C0D8011A9651
S1131DA04D915D916D917C911D97CF016EDE4B013C
S1131DB05C01611571058105910509F495C06130D7
S1131DC071058105910509F491C06F3F7F4F8F4FD5
S1131DD09F4F09F48DC0D8018D919C910E943605C6
S1131DE0811188C0F80180819181FC01BE96825DD9
S1131DF09F4E1192E817F907E1F7D801ED90FC9096
S1131E00B501A401C70122DBF70162A773A784A768
S1131E1095A7E12CF12C7724739419C07482D8010E
S1131E208D919C910E943605811166C0D801ED9177
S1131E30FC9182A593A5A4A5B5A50196A11DB11DEC
S1131E4082A793A7A4A7B5A7BFEFEB1AFB0AD801F3
S1131E50ED91FC91828190E0E816F906F8F282A5F2
S1131E6093A5A4A5B5A58E199F09A109B10982A7B7
S1131E7093A7A4A7B5A7F80182869386A486B586FE
S1131E80B501A40180819181E1DAD8011E966D9398
S1131E907D938D939C935197F801D583C483CC0C87
S1131EA0DD1CCC0CDD1CCC0CDD1CCC0CDD1CCC0CEA
S1131EB0DD1CFEE2CF0ED11CD8018D919C911197AF
S1131EC0C80ED91E5396DC92CE92529780E015C06C
S1131ED084E013C084E011C084E00FC082E00DC030
S1131EE081E00BC084E009C087E007C082E005C040
S1131EF081E003C081E001C081E0DF91CF911F91B7
S1131F000F91FF90EF90DF90CF90BF90AF909F9094
S1131F108F907F9008951F93CF93DF9300D000D0CC
S1131F2000D0CDB7DEB79C838B837E836D83142F63
S1131F307A836983CE0101960E94FF04992334F1C8
S1131F40FC01EE0FFF1FE35DFE4F0190F081E02DD9
S1131F50309709F01082EB81FC813097E9F0108210
S1131F602B813C81880F991FFC01E35DFE4F318377
S1131F702083232B69F0113069F440E0BE016B5FCC
S1131F807F4FCE0103960E9467060EC08BE00CC003
S1131F9080E00AC080E008C0880F991FFC01E35D5F
S1131FA0FE4F1182108280E026960FB6F894DEBFB1
S1131FB00FBECDBFDF91CF911F9108952F923F9215
S1131FC04F925F926F927F928F929F92AF92BF9245
S1131FD0CF92DF92EF92FF920F931F93CF93DF93F1
S1131FE0CDB7DEB7AF970FB6F894DEBF0FBECDBF47
S1131FF07CA36BA3009709F481C249A71C01DC01EF
S11320001D921C924E71BE016D5D7F4FCE010196F3
S11320100E9467068111F9C2CE0147969E8B8D8B73
S1132020CBA0DCA0F60180818F3211F08C3519F43D
S1132030FFEFCF1ADF0A29A52F712DA71F8218865B
S113204019861A86D6018C91803268F460E070E0BB
S1132050CE01019630DB1C8A1B8AE12CF12C8823EB
S113206009F487C27DC26894BB24B5F8A12C712CF5
S11320706894662463F8512C412C6EA65FA6F60181
S1132080AF0181918F32E1F38C35D1F3ED89FE8973
S1132090FEA3EDA3CF010B96B192E817F907E1F780
S11320A0DA01EA2CF72C8A2D972D862C952C042DF9
S11320B0BA0101961D91113208F435C21F3209F498
S11320C02CC21C3509F429C21E3209F419C2E814C1
S11320D0F90408F06EC20AC0000F000FEEA4FFA4BA
S11320E00F2EFBE08F2EF02D912CE3CF11230CF457
S11320F060C2412F50E04232510509F470C2E2E05F
S1132100F1E09C018191882309F400C290E0481712
S11321105907C1F786E06AC2026006C02FE9210FA1
S11321202A3110F401601052EDA1FEA1EE0DFF1D45
S1132130108397012F5F3F4F7901BBCFEF2809F43C
S113214038C2ADA1BEA12C91253E11F4E5E0EC937B
S1132150F8E08F16910419F4092F000F000F902F47
S11321609370913009F48061902F9C70943009F43D
S11321708860ADA1BEA11B968C936A2D772DCE01EC
S1132180019699DA8111DBC14F85588969897A8969
S113219089819A810E949F058111D1C16B897C89B3
S11321A0FB0180818823D1F0838583FD0FC04D8995
S11321B05E89DA019B01255F3F4F04C0E217F307F4
S11321C009F4B7C191918D919817C1F36A2D772DB8
S11321D0CE01019669DD8823B9F2B1C1ED89FE898A
S11321E0938592FDFEC185E001C2DB011B968C91B3
S11321F084FFF9C189819A810E94DD046F83788705
S113220089879A873CCF8111DEC144C060E070E0C9
S1132210CE01019650DA8111F5C14F85588969893B
S11322207A8989819A810E949F058111EBC1EB898A
S1132230FC898081853E51F0882341F061E070E0A3
S1132240CE01019631DD882341F3DCC14F855889E5
S113225069897A8989819A810E949F058111B9C10E
S1132260EB89FC89CF0180961192E817F907E1F711
S11322706D897E894BE050E08B899C890E94CF0454
S1132280E981FA8181E08483BDA5B860BDA7EB88AC
S1132290FC8808C0F7018385817109F071C1F9A533
S11322A0F2FD70C12DA523FFD2C0D7011E961C924A
S11322B01E971F961C921F9791E250969C935097DD
S11322C086E451968C93519756961C92569757963E
S11322D01C92579758969C93589759968C93599754
S11322E01B961C921B975C961C925C975D961C92A5
S11322F05D975E961C925E975F961C92C980DA8009
S1132300B701C6010E94DD044B015C01F701128E86
S1132310138E148A158A81E0D60114968C9314972F
S113232081149104A104B10409F491C09A962D91E9
S11323303D914D915C919D9729A73AA74BA75CA726
S1132340B2E08B169104A104B10408F420C1F60193
S113235082899389A489B58988169906AA06BB0639
S113236008F017C18DA29EA2AFA2B8A63FC04DA18E
S11323705EA16FA178A5C60197D82B013C01611518
S113238071058105910509F440C06130710581052D
S1132390910509F400C16F3F7F4F8F4F9F4F09F4A0
S11323A0FCC000E010E098014DA15EA16FA178A5EA
S11323B0C6013BDA8111F2C0F60186859785A089B2
S11323C0B1898F3FFFEF9F07AF07BF0759F0019611
S11323D0A11DB11DF60186879787A08BB18B8581DE
S11323E0816085834DA25EA26FA278A6F6018289E0
S11323F09389A489B5892DA13EA14FA158A5281779
S113240039074A075B0708F4B2CF89819A8131E022
S1132410831A9108A108B108DC011A968D929D9245
S1132420AD92BC921D9749A55AA56BA57CA50E94A7
S11324309F05882379F0E9C08111B7C0F70183852E
S113244084FDB0C0F9A5F1FF02C080FDADC02DA58B
S113245023FF03C03DA530623DA7E981FA8182A52F
S113246093A5A4A5B5A5F101828F938FA48FB58FF1
S1132470F78EE68EEDA5D1011496EC93149715967C
S11324801C9209811A81B701C8010E94DD04D1019F
S11324901E966D937D938D939C935197F701278D91
S11324A0868D90E0A0E0B0E0DC0199278827B22B6C
S11324B0248DAC01BD01422B258D30E0922F88275D
S11324C0A0E0B0E0842B952BA62BB72BF1018287DB
S11324D09387A487B5871682178210861186168A79
S11324E0178A108E118E11830083D80116968D9150
S11324F09C9117979383828380E087C089E085C08D
S1132500E8E08E16910409F4E7CD6FC0C9012FEB02
S1132510210F2A3108F400CE01CE6B01C80ED91E5A
S1132520902F842D0BCE6B01C80ED91E902F84E002
S113253005CEDA011B968C9182FF57CE0DC0ED8932
S1132540FE899385843009F44CCEEB88FC8899A5E8
S11325509C7109F058CE70CF7B01672B29F409C018
S113256019A51C7181F521C089A58C7109F092CE41
S113257065CF19A51C7151F5E12CF12C86E015C02D
S113258087E001C088E0882309F461CF3EC082E07F
S113259005C082E003C082E001C081E0882309F421
S11325A059CF33C084E001C087E0882309F462CFA7
S11325B02CC0EB88FC8886E0D3CFBDA5B860BDA74E
S11325C0EB88FC88F2CF8430C1F720CE86E001C0CE
S11325D087E0EDA5E860EDA7EB88FC88E6CF86E010
S11325E005C084E003C085E001C086E0EB88FC8878
S11325F099A59C7141F720CFFDA5F860FDA7EB8854
S1132600FC88D3CF843021F3F7CFAF960FB6F8947C
S1132610DEBF0FBECDBFDF91CF911F910F91FF9011
S1132620EF90DF90CF90BF90AF909F908F907F906E
S11326306F905F904F903F902F9008953F924F92EC
S11326405F926F927F928F929F92AF92BF92CF923E
S1132650DF92EF92FF920F931F93CF93DF9300D0FB
S113266000D000D0CDB7DEB79E838D834B016A01C5
S11326705901D9011D921C920E9443068111C7C1C0
S1132680ED81FE8185818111C2C1848181FFBEC13A
S113269086819781A085B185AC01BD014C0D5D1D7E
S11326A0611D711D481759076A077B0708F491C11A
S11326B0C114D10409F48DC1B096FC83EB83ED8180
S11326C0FE8186819781A085B185AC01BD015F70D3
S11326D066277727452B462B472B09F039C1E08025
S11326E0F180F70122812150AC01BD01032E3CE0B1
S11326F076956795579547953A95D1F7302D322EB3
S1132700342209F052C0892B8A2B8B2B99F4AD818A
S1132710BE811E966D917D918D919C91519761150D
S1132720710581059105A1F440E050E0BA01C701AB
S1132730ACD908C0ED81FE814289538964897589C9
S1132740C701A3D9611571058105910509F441C13A
S1132750613071058105910531F482E0AD81BE815E
S113276015968C9354C16F3FBFEF7B078B079B0774
S113277029F481E0ED81FE81858349C1AD81BE816B
S113278052966D937D938D939C9355971E964D9081
S11327905D906D907C90519745284628472829F4F0
S11327A0FD0166877787808B918BAD81BE811496FE
S11327B08C91149786FF1EC056962D913D914D9194
S11327C05C915997ED91FC9101E010E06B817C8163
S11327D081810E94C502882329F081E0ED81FE8178
S11327E0858315C1AD81BE8114968C9114978F7B1E
S11327F014968C93ED81FE810190F081E02DFA8393
S1132800E983AD81BE8152964D915D916D917C912C
S11328105597CF010E94260A61157105810591051E
S113282029F482E0ED81FE818583F1C02B013C0116
S1132830430C511C611C711C7601EF2CFF24E6949F
S1132840E694E694E694E114F10409F44EC0A981F7
S1132850BA8112964C91242F30E0C701830D911D4B
S11328602817390718F47901E318F1088701A3013F
S11328709201B401E981FA8181810E94C502882311
S113288031F081E0AD81BE8115968C93C0C0ED819D
S1132890FE8186899789A08DB18D84199509A60931
S11328A0B709A70160E070E084179507A607B7078A
S11328B0A8F4982F88279295907FB401680F791F08
S11328C040E050E18B819C810E94CF04AD81BE81A8
S11328D014968C9114978F7B14968C93FE2CEE2473
S11328E0FF0CFF0CFF0CFF0C58C0ED81FE818689A4
S11328F09789A08DB18D84159505A605B70501F1BD
S1132900468157816085718582859385A485B585C7
S1132910481759076A077B0798F401E010E0A30100
S113292092016B817C81A981BA8111968C910E945C
S11329307302882329F081E0ED81FE81858367C0DD
S1132940AD81BE8156964D925D926D927C9259975F
S1132950ED81FE8186819781A085B185AC015F7090
S113296020E030E1241B350B76012C153D0508F4DD
S113297079019F70AA27BB278096A701B4012D81F6
S11329803E81820F931F0E94CF04AD81BE811496B5
S11329908C911497806414968C938E0C9F1CED81FB
S11329A0FE8186819781A085B1858E0D9F1DA11D15
S11329B0B11D86839783A087B187D5018D919C91A2
S11329C011978E0D9F1D8D939C93CE18DF0809F0EF
S11329D076CEED81FE8186819781A085B185428581
S11329E0538564857585481759076A077B0720F462
S11329F082879387A487B587AD81BE8114968C9115
S1132A001497806214968C9380E001C087E0269628
S1132A100FB6F894DEBF0FBECDBFDF91CF911F91EB
S1132A200F91FF90EF90DF90CF90BF90AF909F9069
S1132A308F907F906F905F904F903F900895EF92AA
S1132A40FF920F931F93CF93DF9300D0CDB7DEB7E0
S1132A50FC012281338133236CF18C017901FFEF76
S1132A60EF1AFF0AFC01E20FF31F66838DE3E816F9
S1132A70F104C4F09E012F5F3F4FA701B8016A5FC4
S1132A807F4FF80180819181D9DD81E090E0298137
S1132A903A81E216F30611F480E090E0EE24FF247C
S1132AA0E81AF90AF801F382E28284819581019699
S1132AB0958384830F900F90DF91CF911F910F9195
S1132AC0FF90EF9008950F931F93CF93DF93EC0142
S1132AD00E9443068111B3C08C8185FFB2C086FF7A
S1132AE013C02E893F89488D598DE881F98101E011
S1132AF010E0BE01605E7F4F81810E94C50281119A
S1132B00A2C08C818F7B8C834A8D5B8D6C8D7D8D77
S1132B10888199810E949F05811197C0EE8DFF8D58
S1132B208385806283878A85848F8B85858F8C8556
S1132B30868F8D85878F8E859F85A889B989828F99
S1132B40938FCD01AA27BB27848B958B168A178A6E
S1132B5081E2808F86E4818F128A138A8C818F7D33
S1132B608C83E881F98181E084830990D881C02D28
S1132B70CE010E94360581116AC08881833009F034
S1132B8053C08D81813009F04FC0BE01625D7F4F1B
S1132B90FB01CE01825D9F4E1192E817F907E1F720
S1132BA085E5FE01E45DFD4F80838AEA31968083EA
S1132BB082E58EA78FA781E688AB91E499AB22E7E3
S1132BC07B9720833196208331969083319680833E
S1132BD03E852F8598898989319630833196208363
S1132BE031969083319680833A852B859C858D859B
S1132BF03196308331962083319690833196808349
S1132C008A8D9B8DAC8DBD8D9C01AD012F5F3F4F97
S1132C104F4F5F4F2AA73BA74CA75DA701E010E0E9
S1132C2089810E94C5021D8240E050E060E08981F4
S1132C300E94330391E081110BC090E009C0982FEA
S1132C4007C090E005C091E003C0982F01C0982F01
S1132C50892FDF91CF911F910F910895CF93DF9327
S1132C60EC0131DF811107C0CE010E9443068111BE
S1132C7002C019821882DF91CF9108952F923F925A
S1132C804F925F926F927F928F929F92AF92BF9278
S1132C90CF92DF92EF92FF920F931F93CF93DF9324
S1132CA0CDB7DEB7CC55D1090FB6F894DEBF0FBE51
S1132CB0CDBFE596EEACFFACE597E3968EAD9FAD48
S1132CC0E3979C8B8B8B1E8A1D8A188E1F8A2E017C
S1132CD025E7420E511C212C0F2EF7E03F2EF02D3C
S1132CE0D7016C91662309F48CC1653239F0BFEFCA
S1132CF0EB1AFB0ACE014396A2DEF2CFF701D18094
S1132D00F0E3DF1209C0D7011296DC90F701339685
S1132D107F017724739411C0FDE2DF1629F022E0CD
S1132D20E20EF11C712C09C0D7011296DC90F70158
S1132D3033967F016894772471F880ED8D0D8A3085
S1132D40F0F4022D10E08D2D9801220F331F000F97
S1132D50111F000F111F000F111F020F131F080F67
S1132D60111D00531109FFEFEF1AFF0AF701319704
S1132D70808190ED980F9A3038F3D82E02C0022D3E
S1132D8010E08D2D8F7D8C3441F4272D2460722E1C
S1132D90D701DC90F70131967F01DD2009F431C1C0
S1132DA08FE98D0D8A3118F430EE3D0D01C03D2DB3
S1132DB0832F90E0FC01E254F109E731F10508F0BA
S1132DC057C0E358FF4FF5C1F201A080B180F2E093
S1132DD04F0E511CD5016C91662309F437C1F501DE
S1132DE03196C22CD12CBFEFCB1ADB0A8191811111
S1132DF0FACF29C1C22CD12C66246394712C4601CC
S1132E0060E2CE0143961BDEEFEF8E1A9E0A801617
S1132E109106B0F393012C193D096901C00ED11E2E
S1132E20D5016C91662359F0BFEFAB1ABB0ACE01F2
S1132E30439605DEF50161915F016111F8CFC0167B
S1132E40D10608F04DCF60E2CE014396F8DDFFEFE6
S1132E50CF1ADF0AC016D106B0F342CF82010E5F4B
S1132E601F4FD2016C91CE014396E9DD280138CF82
S1132E706D2DCE014396E3DD33CF72FE0EC0AAE082
S1132E8001C0A0E1F2016081718182819381B4E08B
S1132E904B0E511C343431F519C0AAE0343461F4BA
S1132EA0F20160817181072E000C880B990B92014D
S1132EB02E5F3F4F29010AC0F2016081718180E0D9
S1132EC090E092012E5F3F4F29010CC0992354F4E6
S1132ED090958095709561957F4F8F4F9F4F372DBB
S1132EE03860732EAE014D5F5F4F5A01822C912CD6
S1132EF02A2F30E040E050E06D962CAF3DAF4EAF4E
S1132F005FAF6D97970178011D2D69016D962CAD0A
S1132F103DAD4EAD5FAD6D972AD1F62FE62F622FF2
S1132F20732F842F952FFA3030F0183711F0E32DDA
S1132F3001C0E7E2EF0F3FEF831A930AE05DD5018A
S1132F40ED935D01611571058105910521F0B0E1F5
S1132F508B169104D9F68701760173FE0CC0E3E069
S1132F60F0E0EC0FFD1FE80DF91D2DE22083A40114
S1132F704F5F5F4F4A0170FC04C06894662465F893
S1132F8004C00F2EF0E36F2EF02D71FC15C0640108
S1132F905FEFC51AD50A8016910608F465C00DC006
S1132FA08FEFC81AD80AC016D10608F458C06801B1
S1132FB09FEFC91AD90A01C064010F2EF3E0AF2EA6
S1132FC0B12CF02DAC0EBD1EA80CB91CA1E08A1AC0
S1132FD09108F50162915F01CE01439630DD8114C1
S1132FE09104A1F7C016D10608F07ACE662DCE0161
S1132FF0439625DDFFEFCF1ADF0AC016D106B0F3E2
S11330006FCE4D895E895523ACF09E012F5F3F4FF3
S1133010BE01675E7F4F8B899C8910DB81110DC0D7
S11330202D893E8989819A812817390749F48F8926
S1133030988D52C08FEF9FEF4FC08FEF9FEF4CC022
S11330408FEF9FEF49C071FE19C0EECE71FE1FC015
S1133050C22CD12CF4CE72FC14CFA0E12DCF662D5E
S1133060CE014396ECDC9CCF662DCE014396E7DC83
S1133070640196CFD5016C916301D6CE3601BFEFC2
S11330806B1A7B0AC016D10608F4B9CEF3CF01152A
S1133090110509F0AFCECC24C394D12CD0CEF201CB
S11330A0608171818281938192012C5F3F4F29015C
S11330B0A2E018CF72FCF3CFA2E0F0CED2016D9162
S11330C07D918D919C91F20134962F01A8E00ACF55
S11330D072FCF4CFA8E0F0CEC45ADF4F0FB6F894D8
S11330E0DEBF0FBECDBFDF91CF911F910F91FF9037
S11330F0EF90DF90CF90BF90AF909F908F907F9094
S11331006F905F904F903F902F900895CF93DF93EF
S1133110CDB7DEB7C052D0410FB6F894DEBF0FBEB4
S1133120CDBF80E00E94A70141E060E171E08FE241
S113313091E00E948B0F42E062E171E08E010F5F2B
S11331401F4FC8010E94DE0F1F9281E08F938AE116
S113315091E09F938F931F930F9390DDC8017EDDC1
S11331600F900F900F900F900F900F90FFCFA1E250
S11331701A2EAA1BBB1BFD010DC0AA1FBB1FEE1FED
S1133180FF1FA217B307E407F50720F0A21BB30B38
S1133190E40BF50B661F771F881F991F1A9469F7B4
S11331A060957095809590959B01AC01BD01CF0110
S11331B00895EE0FFF1F0024001C0BBE0790F6912C
S11331C0E02D099409D0A59F900DB49F900DA49F64
S11331D0800D911D11240895A29FB001B39FC001D9
S11331E0A39F700D811D1124911DB29F700D811D2F
S10D31F01124911D0895F894FFCFF7
S11331FA01222A2B2C3A3B3C3D3E3F5B5D7C7F00FF
S113320A2F00666F6F2E747874007465737420745B
S10B321A65787420257500009D
S9030000FC
