S00F000053445F746573742E737265635F
S113000069C1000091C100008FC100008DC10000D2
S11300108BC1000089C1000087C1000085C10000B8
S113002083C1000081C100007FC100007DC10000C8
S11300307BC1000079C1000077C1000075C10000D8
S11300400C94021A71C100006FC100006DC1000060
S11300506BC1000069C1000067C1000065C10000F8
S113006063C1000061C100005FC100005DC1000008
S11300705BC1000059C1000057C1000055C1000018
S113008053C1000051C100004FC100002D043404CD
S11300908105A40481058105810579058105810512
S11300A0810581058105810581058105810581051C
S11300B0810581058105810581058105810581050C
S11300C081058105810581058105810581058105FC
S11300D081058105810581058105810581058105EC
S11300E081058105810581058105810581058105DC
S11300F02A05300541055205670500005F00000030
S113010007000700147F147F14242A7F2A12231364
S113011008646236495522500005030000001C2281
S113012041000041221C0014083E081408083E083F
S1130130080050300000080808080800606000004B
S113014020100804023E5149453E00427F400042CF
S1130150615149462141454B311814127F102745FE
S11301604545393C4A494930017109050336494935
S11301704936064949291E00363600000056360025
S11301800008142241001414141414004122140809
S11301900201510906324979413E7E1111117E7FD7
S11301A0494949363E414141227F4141221C7F4910
S11301B04949417F090909013E4149497A7F0808B3
S11301C0087F00417F41002040413F017F08142205
S11301D0417F404040407F020C027F7F0408107F33
S11301E03E4141413E7F090909063E4151215E7F5E
S11301F009192946464949493101017F01013F4016
S113020040403F1F2040201F3F4038403F631408B8
S1130210146307087008076151494543007F414151
S11302200002040810200041417F0004020102047E
S11302304040404040000102040020545454787F60
S1130240484444383844444420384444487F38546B
S1130250545418087E0901020C5252523E7F08047D
S1130260047800447D40002040443D007F10284431
S11302700000417F40007C041804787C0804047862
S113028038444444387C14141408081414187C7C2E
S1130290080404084854545420043F4440203C407B
S11302A040207C1C2040201C3C4030403C44281012
S11302B028440C5050503C4464544C44000836418B
S11302C00000007F000000413608001008081008F4
S11302D03A1C3F1C11241FBECFEFD0E4DEBFCDBFBC
S11302E011E0A0E0B1E0EAEBFEE300E00BBF02C0E6
S11302F007900D92A83EB107D9F725E0A8EEB1E02A
S113030001C01D92A13FB207E1F711E0C9E6D1E0B7
S113031004C02197FE010E94661CC836D107C9F7A4
S11303200E942F1A0C94511F6BCE1CBC84B18F7485
S113033084B908958EBD0DB407FEFDCF8EB5089522
S11303402C9A8FEFF7CF08952C988FEFF3DF82E389
S11303508093E9018FEFEEDF8F3F41F08091E90157
S11303608111F8CFEDDF80E090E0089581E090E026
S113037008950F931F93CF93DF93EC018B0184E1D6
S11303808093EA018FEFD6DF8F3F39F49091EA0131
S11303909111F8CF80E090E020C08E3FE1F4F89412
S11303A08FEF8EBD0DB407FEFDCF9EB598838EBD35
S11303B00DB407FEFDCF22969EB5FE0131979083C2
S11303C00250110971F778948FEFB4DF8FEFB2DF29
S11303D081E090E002C080E090E0DF91CF911F9136
S11303E00F910895FF920F931F93CF93DF93C82F1C
S11303F0D42F152F062FF72E88234CF440E050E01D
S1130400BA0187E3EFDF823008F03CC0CF77CC300D
S1130410F1F096DF99DF892BC1F08C2F80648ADF9D
S11304208F2D88DF802F86DF812F84DF8D2F82DF61
S1130430CC2329F121C08FEF7DDFCAE08FEF7ADF73
S1130440882304F5C150D1F71DC08FEF1BC08CE485
S113045071DF8F2D6FDF802F6DDF812F6BDF8D2F8D
S113046069DF81E067DFCC3031F3E7CF87E862DF13
S1130470E4CF81E05FDFE1CFC830C1F3FACF85E993
S113048059DFDBCFDF91CF911F910F91FF9008953A
S11304901F93CF93DF93EC01162F92E39093E9011E
S11304A08FEF48DF8F3F31F09091E9019111F8CF40
S11304B080E028C0812F3EDF1D3F11F1F8949E019A
S11304C03C5F88818EBD0DB407FEFDCF2296FE01F0
S11304D0319780818EBD0DB407FEFDCF2C173D07EB
S11304E081F778948FEF26DF8FEF24DF8FEF22DF01
S11304F0282F2F7181E090E0253021F080E002C0A8
S113050081E090E0DF91CF911F910895CF92DF9227
S1130510EF92FF920F931F93CF93DF9300D000D0FD
S1130520CDB7DEB781119AC000DF8091000182FF50
S113053003C0809100019DC084B1806B84B926986A
S113054081E08DBD82E58CBD1AE08FEFF3DE1150A2
S1130550E1F740E050E0BA0180E044DF813009F087
S113056084C084E68093EA014AEA51E060E070E0E6
S113057088E038DF813009F03FC0CE0101966C017C
S11305807E0195E0E90EF11C86018FEFD3DEF801C0
S113059081938F01EE15FF05C1F78B81813009F03E
S11305A064C08C818A3A09F060C08091EA01882392
S11305B041F040E050E060E070E489EA13DF81112B
S11305C0F4CF8091EA01882309F44FC040E050E061
S11305D0BA018AE307DF811148C0760114E01C0DDB
S11305E08FEFA8DEF70181937F011E13F9CF898174
S11305F086FD36C084E035C040E050E0BA0189EAA7
S1130600F1DE823018F001E011E002C002E019EAE4
S11306109091EA01992339F040E050E0BA01812F2A
S1130620E1DE8111F5CF8091EA018823F1F040E009
S113063054E060E070E080E1D5DE811116C00093E3
S1130640E8017EDE002331F0809100018E7F8093EB
S1130650000101C06ADE809100010BC081E009C085
S11306608CE08093E8016CDEEFCF1092E80168DE45
S1130670F1CF0F900F900F900F90DF91CF911F91BA
S11306800F91FF90EF90DF90CF900895811103C0F8
S113069080910001089581E00895FF920F931F93C4
S11306A0CF93DF93EB0181113FC00115110509F4CC
S11306B03DC08091000180FD3BC08091E80183FD35
S11306C009C0012E1AE0220F331F441F551F1A952B
S11306D0D1F7102D0230110528F40F2EF1E1FF2E71
S11306E0F02D04C00F2EF2E1FF2EF02DBA01A90166
S11306F08F2D78DE811112C060E074E0CE0139DE06
S1130700892B21F0DC5F01501109B1F782E1F81265
S113071005C040E050E0BA018CE064DE11DE81E007
S1130720012B39F480E005C084E003C084E001C0FB
S113073083E0DF91CF911F910F91FF900895CF92A5
S1130740DF92EF92FF920F931F93CF93DF93EB010E
S113075069017A01811151C00115110509F44FC0D5
S11307608091000180FD4DC08091000182FD4BC04D
S11307708091E80183FD09C00B2EBAE0CC0CDD1C8E
S1130780EE1CFF1CBA95D1F7B02D0130110589F488
S1130790B701A60188E126DE811129C06EEFCE01E2
S11307A077DE31E020E0892B09F030E0032F122FAF
S11307B01EC0867029F0A80160E070E087E912DEAF
S11307C0B701A60189E10EDE811111C06CEFCE01E3
S11307D05FDE892B21F0DC5F01501109B9F76DEF61
S11307E080E090E055DE892B11F401E010E0A8DDF3
S11307F081E0012B49F480E007C084E005C084E077
S113080003C083E001C082E0DF91CF911F910F917B
S1130810FF90EF90DF90CF900895EF92FF920F93A7
S11308201F93CF93DF93CDB7DEB760970FB6F894DD
S1130830DEBF0FBECDBF81117CC18091000180FD60
S11308407AC17A01062F10E00733110508F059C167
S1130850F801EA5BFF4F0C94661C76DD11E0892BEE
S113086009F464C110E062C140E050E0BA0189E0DB
S1130870B9DD811148C160E170E0CE01019679DDF6
S1130880892B09F442C18981829586958695837066
S1130890813031F588858F7390E0A0E0B0E0DC0111
S11308A0992788270196A11DB11D298530E0322F93
S11308B022274A85240F311D820F931FA11DB11DCC
S11308C0072E7AE0880F991FAA1FBB1F7A95D1F7CC
S11308D0702DF70180839183A283B38310E026C136
S11308E089858295869586958370288590E0F4E0C5
S11308F02F9F800D911D11249C012F5F3F4F8F81ED
S1130900837090E0982F8827990F990F820F931F77
S1130910A0E0B0E03E813F702B85221F2227221FDA
S1130920320F2A852370220F230F275004C0880F0B
S1130930991FAA1FBB1F2A95D2F7F70180839183C1
S1130940A283B38310E0F2C01091E80112FF2AC021
S113095040E050E0BA018DE845DD8111D8C08FEF49
S1130960E9DC60E170E0CE01019603DD892B09F436
S1130970D0C010E38FEFDEDC1150E1F72B85229518
S11309802F7080E190E0A0E0B0E004C0880F991FD0
S1130990AA1FBB1F2A95D2F7F70180839183A283F4
S11309A0B383C4C040E050E0BA0189E01BDD81118B
S11309B0B2C060E170E0CE010196DBDC892B09F462
S11309C0ACC011FF20C08C85881F8827881F90E049
S11309D001962B852F73820F911D820F911D2E85F9
S11309E02295269526952370215002C0880F991FC1
S11309F02A95E2F7A0E0B0E0F70180839183A28317
S1130A00B38310E093C08C85282F2370829586953C
S1130A10877090E0F8E02F9F800D911D11240196BE
S1130A202B852C7730E035952795359527952F5FC5
S1130A303F4F829FA001839F500D929F500D112420
S1130A40CA01A0E0B0E0F70180839183A283B3835D
S1130A5010E06CC08091E801FA01808310E066C068
S1130A6040E050E0BA0189E0BDDC811158C060E18A
S1130A7070E0C7017EDC11E0892B09F457C010E057
S1130A8055C040E050E0BA018AE0ACDC811149C0B5
S1130A9060E170E0C7016DDC11E0892B09F446C008
S1130AA010E044C040E050E0BA018AE39BDC8111CD
S1130AB03AC08701F4E0EF0EF11C8FEF3BDCF80144
S1130AC081938F01EE15FF05C1F710E02FC040E0C0
S1130AD050E0BA018DE886DC811127C08FEF2ADC53
S1130AE060E470E0C70145DC11E0892BF9F010E007
S1130AF01DC01BDC8091000181608093000110E027
S1130B0015C014E013C011E011C011E00FC011E0D2
S1130B100DC011E00BC011E009C011E007C011E0E5
S1130B2005C011E003C011E001C011E009DC812F10
S1130B3003C084E001C083E060960FB6F894DEBF82
S1130B400FBECDBFDF91CF911F910F91FF90EF901A
S1130B5008958091EA01882319F081508093EA0175
S1130B608091E901882319F081508093E9018091F3
S1130B7000018093000108959C5F0C94E919089585
S1130B80FC019C5F1192E817F907E1F708951F93A0
S1130B90CF93DF93162FEC01DC5FCE010E94EA199C
S1130BA068E7CE010E94F21960E0CE010E94F219BA
S1130BB0612FCE010E94F219CE010E94EE19DF913D
S1130BC0CF911F910895CF93DF93EC016EEADFDF9D
S1130BD065EDCE01DCDF60E8CE01D9DF68EACE0145
S1130BE0D6DF6FE3CE01D3DF63EDCE01D0DF60E06B
S1130BF0CE01CDDF60E4CE01CADF6DE8CE01C7DFF0
S1130C0064E1CE01C4DF60E2CE01C1DF60E0CE0169
S1130C10BEDF61EACE01BBDF68ECCE01B8DF6AED6E
S1130C20CE01B5DF62E1CE01B2DF61E8CE01AFDF14
S1130C306FECCE01ACDF69EDCE01A9DF61EFCE012F
S1130C40A6DF6BEDCE01A3DF60E4CE01A0DF64EA92
S1130C50CE019DDF66EACE019ADF6FEACE0197DF0F
S1130C60DF91CF910895CF93DF93EC019C5F0E94B5
S1130C70E519CE01A8DFCE0183DFDF91CF9108957E
S1130C80EF92FF920F931F93CF93DF93EC0161E2F6
S1130C907EDF60E0CE017BDF6FE7CE0178DF62E2CA
S1130CA0CE0175DF60E0CE0172DF67E0CE016FDF59
S1130CB08E011C5FC8010E94EA1968E7C8010E94FE
S1130CC0F21960E4C8010E94F21978016991C8011F
S1130CD00E94F219CE15DF05C9F7C8010E94EE196A
S1130CE0DF91CF911F910F91FF90EF9008950F9393
S1130CF01F93CF93DF93613208F43EC0A42FB0E07A
S1130D00022F06950695069530E8039F800111246D
S1130D10615270E0FB01EE0FFF1FEE0FFF1FE60FA5
S1130D20F71FE650FF4FAD01400F511FEC01C40FF8
S1130D30D51F00581F4FA00FB11FA80FB91F4B5F3D
S1130D405F4F480F591F2770649170E0022E02C054
S1130D50660F771F0A94E2F79881962B9993672F71
S1130D6077276115710519F08C91682B6C93319676
S1130D701196C417D50741F7DF91CF911F910F91B9
S1130D8008954115510551F0A62FB72FFC01480FC6
S1130D90591F9D919193E417F507D9F708954115CB
S1130DA0510539F0FC01840F951F6193E817F90789
S1130DB0E1F708950F931F93CF93DF93FC0100A1F4
S1130DC011A1E8012496CB01BA01052E5AE09695AB
S1130DD08795779567955A95D1F7502D0190F081B5
S1130DE0E02D228130E040E050E00E94441CF801F4
S1130DF084819581A681B7810097A105B10521F170
S1130E00281739074A075B0730F413C02817390736
S1130E104A075B0770F0281B390B4A0B5B0B2896BB
S1130E2088819981AA81BB810097A105B10571F7D9
S1130E300FC08C819D81AE81BF81BC01CD01620F49
S1130E40731F841F951F07C060E070E0CB0103C0CF
S1130E5060E070E0CB01DF91CF911F910F91089575
S1130E600F931F93DC01FB01938D692F70E0762FA4
S1130E706627828D682B80E090E02C91233079F4F2
S1130E80058910E0102F00272489022B20E030E090
S1130E90980111270027602B712B822B932B1F9114
S1130EA00F910895CF93DF93EC01A881B981109736
S1130EB0F9F04C91413258F04A3331F1FD01319649
S1130EC09F019191913228F09A33D1F704C0942F65
S1130ED09D019A3381F4CD0101962817390771F4E5
S1130EE0403379F41296B983A88380E090E00EC071
S1130EF08FEF9FEF0BC080E090E008C08FEF9FEF73
S1130F0005C08FEF9FEF02C09D01E5CFDF91CF9128
S1130F1008958F929F92AF92BF92CF92DF92EF92F9
S1130F20FF920F931F93CF93DF93FC01248122231D
S1130F3009F444C0EC01C6A4D7A4E0A8F1A85C015C
S1130F40F2E3AF0EB11C01E010E0A7019601B50178
S1130F508981F5DB811134C01C828AA19BA1ACA1DB
S1130F60BDA1B701A601481B590B6A0B7B0B8A8DE7
S1130F709B8DAC8DBD8D481759076A077B0710F50B
S1130F808B80912C82E088169104F0F08A8D9B8DE1
S1130F90AC8DBD8DC80ED91EEA1EFB1E01E010E00B
S1130FA0A7019601B5018981CADBE1E08E1A910897
S1130FB0F1E08F16910451F780E007C080E005C08E
S1130FC081E003C080E001C080E0DF91CF911F91F8
S1130FD00F91FF90EF90DF90CF90BF90AF909F90D4
S1130FE08F9008958F929F92AF92BF92FF920F932A
S1130FF01F93CF93DF93EC014A015B018EA59FA55C
S1131000A8A9B9A984179507A607B707D9F0CE01EF
S113101080DFF82E811117C001E010E0A5019401D2
S1131020BE016E5C7F4F898138DB882331F0FF2459
S1131030F39488248A94982C54018EA69FA6A8AA77
S1131040B9AA01C0F12C8F2DDF91CF911F910F917F
S1131050FF90BF90AF909F908F900895CF93DF93B0
S1131060EC011C828FEF9FEFDC018EA79FA7A8AB3A
S1131070B9ABCE01B7DF811151C0FE01EF5CFD4F6A
S1131080808190E0982F882731972081822B8535A5
S11310909A4A09F045C0E55CF1402081319780818E
S11310A090E0A0E0B0E0DC0199278827B22B3297CA
S11310B02081822B3196408150E0542F442760E0F8
S11310C070E0842B952BA62BB72BBB278634914439
S11310D0A445B10539F17E9680813197408150E075
S11310E060E070E0BA0155274427782B329780815D
S11310F0482BCB57DF4F888190E0982F8827A0E0BA
S1131100B0E0482B592B6A2B7B2B772781E04634A0
S113111051446445710539F480E005C083E003C09F
S113112082E001C080E0DF91CF9108950097C1F083
S1131130DC01ED91FC9111973097A1F020812223DD
S113114099F02681378112968D919C9113972817D7
S1131150390761F481819ADA80FF0AC089E0089531
S113116089E0089589E0089589E0089589E0089563
S113117080E008952F923F924F925F926F927F92F8
S11311808F929F92AF92BF92CF92DF92EF92FF9293
S11311900F931F93CF93DF93CDB7DEB76D970FB641
S11311A0F894DEBF0FBECDBF6C01CB01B42ED601C7
S11311B01D921C9277DE7C0199230CF4E4C2FC019D
S11311C0EE0FFF1FE351FE4F008111810115110540
S11311D009F4DBC2F60111830083D8018C918823C2
S11311E061F011968C9152DA80FD07C0BB2009F49E
S11311F0CEC282FFCEC28AE073C3F8011082E182BC
S11312008E2D84D980FDC7C2BB2009F4E4C282FDBF
S1131210C4C2E1C2DF0117978C918823B9F01496F8
S1131220CC908081D12CE12CF12CF82A12968C914F
S1131230E82A1197AC91B0E0BA2FAA27CD01A0E01B
S1131240B0E0C82AD92AEA2AFB2A04C0C82CD92C1F
S1131250E72EF62ED901CD92DD92ED92FD929D01FD
S11312607096E417F507B1F64E01B1E18B0E911CAF
S11312706894772471F8F501C190D190E190F190D0
S11312805F01C114D104E104F10439F0B701A601EE
S1131290C801E4DE811102C00DC0872DA814B90471
S11312A051F703C0C12CD12C7601833009F477C2E5
S11312B0811177C2D801DE968C91DE9790E0982F49
S11312C08827DD962C91822B8115944009F06BC2FE
S11312D0F801E75BFF4F8080912C982C882431978C
S11312E08081882AA12CB12C81149104A104B10419
S11312F0E9F47196808131978080912CA12CB12CD6
S1131300540199248824B82A32978081A501940134
S1131310282BDA01C90131968080912C982C8824DD
S1131320A12CB12C882A992AAA2ABB2AD8015A9618
S11313308D929D92AD92BC925D97F801EE5BFF4F4A
S1131340A081F801A3838FEF8A0F823008F02DC2A9
S1131350F7ADF98B2F2FF8012283222309F427C23A
S1131360822F90E09C012150310982239323892B01
S113137009F01FC2EC5BFF4F808190E0982F882713
S1131380319720811C01222AF80131862086C1016F
S11313908F719927892B09F00EC2EA5BFF4F4080B9
S11313A0512C542C442431978081482A612C712C6F
S11313B04114510461047104D1F470968081319711
S11313C04080512C612C712C320155244424782AFC
S11313D032978081482A3196808190E0982F88271F
S11313E0AC0160E070E0442A552A662A772AF801A5
S11313F0EF5BFF4FE081F0E03E2F2227C801805CC5
S11314009F4FFC018081F901E82B309709F4D5C185
S1131410B0E0A50194010E946F1C6A8F7B8F8C8FB2
S11314209D8F9F0140E050E02E8B3F8B488F598F5A
S1131430C10196958795929582958F7089279F70A3
S11314408927280F391F411D511DDA01C9012A8D31
S11314503B8D4C8D5D8D280F391F4A1F5B1F2A8BD6
S11314603B8B4C8B5D8B421653066406750608F461
S1131470A6C1C301B201621B730B840B950BE989EE
S11314802E2F30E040E050E00E94441CDA01C901F4
S1131490211531054105510509F493C1263FFFE0AB
S11314A03F074105510518F0E2E0E98B02C0F1E085
S11314B0F98B863F9F4FA105B10508F0A3C129010F
S11314C03A0182E0480E511C611C711CD8015696E9
S11314D04D925D926D927C925997F801C68ED78E8B
S11314E0E0A2F1A28E899F89A88DB98D8C0D9D1DD6
S11314F0AE1DBF1D82A393A3A4A3B5A34A895B8990
S11315006C897D894C0D5D1D6E1D7F1D42A753A7FF
S113151064A775A7F989F33009F044C0232809F0BA
S113152052C1F801EF59FF4F20813197808190E03B
S1131530A0E0B0E0DC0199278827B22B3297208104
S1131540AC01BD01422B31968081282F30E0922FCF
S11315508827A0E0B0E0842B952BA62BB72BF801AD
S113156086A397A3A0A7B1A7440C551C661C771C9F
S1131570440C551C661C771CFFEF4F0EF3E05F1EF6
S1131580611C711C032E3AE0769467945794479437
S11315903A95D1F7302D84149504A604B70408F4C1
S11315A014C15CC1232809F412C12A8D3B8D4C8DD2
S11315B05D8D820F931FA41FB51FF80186A397A307
S11315C0A0A7B1A7F989F23029F4440C551C661C74
S11315D0771C70C1A3E0B0E0A30192010E946F1CCC
S11315E0DC01CB01B695A7959795879521E042221A
S11315F0552466247724480E591E6A1E7B1E5AC140
S1131600B701A6014F5F5F4F6F4F7F4FC801EADC00
S1131610811196C0D80115961C92F801EF5CFD4F1C
S1131620808190E0982F882731972081822B8535FF
S11316309A4A09F088C0F80125A984A990E0A0E09D
S1131640B0E0DC0199278827B22B22A9AC01BD01A7
S1131650422B23A930E0922F8827A0E0B0E0842B0E
S1131660952BA62BB72B82359245A146B14409F0A0
S11316706DC0F801E75EFD4F20813197808190E0D5
S1131680A0E0B0E0DC0199278827B22B32972081B3
S1131690AC01BD01422B3196208130E0922F882786
S11316A0A0E0B0E0842B952BA62BB72B8237924772
S11316B0A144B14609F04DC036962081319780810E
S11316C090E0A0E0B0E0DC0199278827B22B3297A4
S11316D02081AC01BD01422B3196208130E0922F54
S11316E08827A0E0B0E0842B952BA62BB72BF8011C
S11316F086879787A08BB18BEF5DFD4F2081319753
S1131700808190E0A0E0B0E0DC0199278827B22B2B
S113171032972081AC01BD01422B3196208130E00B
S1131720922F8827A0E0B0E0842B952BA62BB72B13
S1131730F80182879387A487B587F3E0F98B0BC000
S1131740E3E0E98B08C0F3E0F98B05C0E3E0E98B43
S113175002C0F3E0F98BE989D801EC938091EB01A5
S11317609091EC0101969093EC018093EB01179614
S11317709C938E93169752961D921D921D921C92C5
S1131780559780E0ADC08BE0ABC08CE0A9C080E091
S1131790A7C080E0A5C083E0A3C08AE0A1C081E027
S11317A09FC08DE09DC08DE09BC08DE099C08DE011
S11317B097C08DE095C08DE093C08DE091C08DE021
S11317C08FC08DE08DC08DE08BC08DE089C08DE031
S11317D087C08DE085C040E050E0BA01C8013EDC1E
S11317E0813009F05FCDFE0131965F01F801E550CB
S11317F0FE4FA801455C5D4F9501812C912C70E052
S113180060E008CD29013A01F2E04F0E511C611C41
S1131810711CD80156964D925D926D927C925997A7
S1131820F801C68ED78EE0A2F1A28E899F89A88D79
S1131830B98D8C0D9D1DAE1DBF1D82A393A3A4A3C2
S1131840B5A38A899B89AC89BD898C0D9D1DAE1D6C
S1131850BF1D82A793A7A4A7B5A760CE8FEF9FEF64
S1131860DC01F80186879787A08BB18B82879387E9
S1131870A487B58780E88583ED59FF4F808190E088
S1131880982F882731972081822B019709F4B8CEAD
S1131890F3E0F98B60CF8FEF9FEFDC01F8018687CF
S11318A09787A08BB18B82879387A487B58780E8BD
S11318B0858351CFFFEF4F0EF3E05F1E611C711C57
S11318C0032E3AE076946794579447943A95D1F767
S11318D0302D84149504A604B70408F47ACFDBCF22
S11318E06D960FB6F894DEBF0FBECDBFDF91CF91DA
S11318F01F910F91FF90EF90DF90CF90BF90AF902A
S11319009F908F907F906F905F904F903F902F901B
S11319100895EF92FF920F931F93CF93DF93EC01FF
S1131920F8DA982F811161C08881833009F053C09F
S11319308D81813009F04FC040E054E060E070E0F8
S11319407E0182E3E80EF11CC70129DA85E5FE0178
S1131950E05DFD4F80838AEA3196808382E58AAB1D
S11319608BAB81E68CAB91E49DAB22E77B97208324
S11319703196208331969083319680833E852F85DE
S11319809889898931963083319620833196908362
S1131990319680833A852B859C858D85319630835D
S11319A03196208331969083319680838E8D9F8DDE
S11319B0A8A1B9A19C01AD012F5F3F4F4F4F5F4FCD
S11319C02EA73FA748AB59AB01E010E0B7018981CE
S11319D00E949F031D8240E050E060E089810E94E4
S11319E00D0491E0811101C090E0892FDF91CF9126
S11319F01F910F91FF90EF900895CF92DF92EF9295
S1131A00FF92FC019A01AB012250310941095109AD
S1131A10C688D788E08CF18C82E0C81AD108E10826
S1131A20F1082C153D054E055F0568F4A281B0E070
S1131A300E946F1CC2A4D3A4E4A4F5A46C0D7D1D64
S1131A408E1D9F1D03C060E070E0CB01FF90EF90FE
S1131A50DF90CF900895AF92BF92CF92DF92EF9232
S1131A60FF920F931F93CF93DF93EC016A017B01E5
S1131A70423051056105710508F4C6C08E899F89FD
S1131A80A88DB98D481759076A077B0708F0C1C0AC
S1131A908881823009F44DC0833009F473C08130E9
S1131AA009F0BCC08A0116950795040F151FC801DB
S1131AB0892F9927869586954AA15BA16CA17DA162
S1131AC0480F591F611D711DCE018CDA8111ABC005
S1131AD058018FEFA81AB80A1370FE01E00FF11F26
S1131AE012A9C501892F9927869586954AA15BA1DC
S1131AF06CA17DA1480F591F611D711DCE0172DAC1
S1131B00811195C083E0B822CA0DDB1D8AA9612F1B
S1131B1070E0782BC0FE09C0729562956F706727DC
S1131B207F70672780E090E08DC07F7080E090E058
S1131B3089C08AA19BA1ACA1BDA1032E39E07695F1
S1131B406795579547953A95D1F7302D480F591F0A
S1131B506A1F7B1FCE0146DA81116DC0CC0CDD1CDF
S1131B60EE1CFF1CE894C0F883E0D822EE24FF2486
S1131B70FE01EC0DFD1D62A983A970E0782B80E0C5
S1131B8090E060C0452F562F672F77278AA19BA12D
S1131B90ACA1BDA1480F591F6A1F7B1FCE0122DAD9
S1131BA081114DC0CC0CDD1CEE1CFF1CCC0CDD1CCB
S1131BB0EE1CFF1C8CEFC82283E0D822EE24FF2405
S1131BC0F601F296EC0FFD1F22816381862F90E0CF
S1131BD0A0E0B0E0B82FAA2799278827AC01BD015F
S1131BE0622B818190E0982F8827A0E0B0E0842BBD
S1131BF0952BA62BB72BFE01EC0DFD1D22A9822BE4
S1131C00BC01CD019F701EC061E070E080E090E0F7
S1131C1019C061E070E080E090E014C061E070E021
S1131C2080E090E00FC06FEF7FEFCB010BC06FEF50
S1131C307FEFCB0107C06FEF7FEFCB0103C06FEFE6
S1131C407FEFCB01DF91CF911F910F91FF90EF9028
S1131C50DF90CF90BF90AF900895AF92BF92CF9294
S1131C60DF92EF92FF920F931F93CF93DF93EC01D8
S1131C708B017D836C83CE80DF80E884F98481E0EE
S1131C80C816D104E104F10409F48CC0E881F98197
S1131C9086899789A08DB18DC816D906EA06FB06F8
S1131CA008F082C0C114D104E104F104C1F48081BC
S1131CB0833041F486A197A1A0A5B1A50097A10501
S1131CC0B10559F4808591850817190708F06EC08D
S1131CD066A177A180A591A535C06C017D01A28084
S1131CE080E2A89E500111240A151B0530F1B701AA
S1131CF0A60188819981AFDE6B017C018FEFC81644
S1131D00D806E806F80609F453C082E0C816D104E0
S1131D10E104F10408F44EC0E881F98186899789C9
S1131D20A08DB18DC816D906EA06FB0608F044C09A
S1131D300A191B090A151B05D0F6B701A6018881EB
S1131D4099815BDECA86DB86EC86FD8661157105AA
S1131D508105910599F1980136952795329522953B
S1131D602F7023273F702327DC01CB01820F931FA1
S1131D70A11DB11D8E879F87A88BB98B0F71112769
S1131D80000F111F02951295107F1027007F102756
S1131D900E5C1F4F88819981800F911F9B8B8A8BCA
S1131DA080E00DC082E00BC082E009C082E007C081
S1131DB081E005C082E003C082E001C082E0DF91DF
S1131DC0CF911F910F91FF90EF90DF90CF90BF9034
S1131DD0AF9008954F925F926F927F928F929F92ED
S1131DE0AF92BF92CF92DF92EF92FF920F931F9325
S1131DF0CF93DF93EC016A017B0128013901423062
S1131E0051056105710508F4DCC08E899F89A88D90
S1131E10B98D481759076A077B0708F0D4C0888131
S1131E20823009F465C0833009F48DC0813009F033
S1131E30CCC05A01B694A794A40EB51EC501892F2F
S1131E409927869586954AA15BA16CA17DA1480F2F
S1131E50591F611D711DCE01C5D8182F8111D3C022
S1131E6045018FEF881A980AA3E0BA22C0FE21C068
S1131E70FE01EA0DFB1D82A9282F2F70B0E14B9EB5
S1131E80C0011124822B82AB81E08C834AA15BA127
S1131E906CA17DA1C401892F992786958695480F49
S1131EA0591F611D711DCE019DD8882309F493C06B
S1131EB08EC0FE01EA0DFB1D42AA81E08C834AA17B
S1131EC05BA16CA17DA1C401892F99278695869574
S1131ED0480F591F611D711DCE0184D8882309F450
S1131EE085C077C0EC0FFD1F42AA81E08C838BC0B4
S1131EF08AA19BA1ACA1BDA1032E39E0769567957B
S1131F00579547953A95D1F7302D480F591F6A1FB9
S1131F107B1FCE0167D8182F811175C0CC0CDD1C36
S1131F20EE1CFF1CE894C0F833E0D322EE24FF2417
S1131F30FE01EC0DFD1D42AAFE01EC0DFD1D53AA90
S1131F4081E08C8360C0452F562F672F77278AA1A5
S1131F509BA1ACA1BDA1480F591F6A1F7B1FCE01D5
S1131F6041D8182F81114FC0CC0CDD1CEE1CFF1C76
S1131F70CC0CDD1CEE1CFF1C8CEFC82283E0D822A5
S1131F80EE24FF24F601F296EC0FFD1F838190E00E
S1131F90A0E0B0E0B82FAA2799278827CC0EDD1E31
S1131FA088279927AA27B07F482A592A6A2A7B2A90
S1131FB0D601D2964C9251826282738281E08C83E4
S1131FC022C012E020C012E01EC012E01CC0182F74
S1131FD01AC0182F18C0F401F370689413F876949B
S1131FE06794579447941694D1F77CCFF401F37017
S1131FF0DE01AE0FBF1FD2969C91907F852D8F700E
S1132000492E482A6FCF812FDF91CF911F910F91D5
S1132010FF90EF90DF90CF90BF90AF909F908F9004
S11320207F906F905F904F9008952F923F924F92C0
S11320305F926F927F928F929F92AF92BF92CF9254
S1132040DF92EF92FF920F931F93CF93DF93EC01F4
S11320502A013B014115510561057105B9F48A84D2
S11320609B84AC84BD8481149104A104B10459F10E
S11320708E899F89A88DB98D88169906AA06BB06F4
S113208030F1812C912C5401839421C0E4DC6B0148
S11320907C01623071058105910508F496C08FEFCB
S11320A0C816D806E806F80609F494C08E899F89F4
S11320B0A88DB98DC816D906EA06FB0608F48FC0A8
S11320C05301420104C0812C912C54018394750165
S11320D064016894222421F8312C00E010E02FEFF1
S11320E0C21AD20AE20AF20A8E899F89A88DB98D92
S11320F0C816D906EA06FB0658F082E08816910451
S1132100A104B10408F470C0C22CD32CE02EF12E2B
S1132110B701A601CE019FDC61157105810591050A
S113212099F06F3F2FEF72078207920709F461C09D
S1132130613071058105910509F460C0C814D904A2
S1132140EA04FB0461F65FC08C2C9D2CAE2CBF2CE2
S11321500FEF1FEF2FEF3FE0B701A601CE013ADEEC
S113216081112CC0411451046104710451F00C2DEF
S11321701D2D2E2D3F2DB301A201CE012BDE811189
S11321801DC08A869B86AC86BD868E859F85A88960
S1132190B9898F3F2FEF9207A207B207C9F10197C0
S11321A0A109B1098E879F87A88BB98B8D81816026
S11321B08D836C2D7D2D8E2D9F2D33C0813069F143
S11321C061E070E080E090E02CC061E070E080E0CD
S11321D090E027C06FEF7FEF8FEF9FEF22C06C2D51
S11321E07D2D8E2D9F2D1DC060E070E080E090E07D
S11321F018C06FEF7FEF8FEF9FEF13C061E070E0C7
S113220080E090E00EC060E070E080E090E009C003
S11322106C2D7D2D8E2D9F2D04C06FEF7FEF8FEFE2
S11322209FEFDF91CF911F910F91FF90EF90DF907F
S1132230CF90BF90AF909F908F907F906F905F9062
S11322404F903F902F9008957F928F929F92AF92DC
S1132250BF92CF92DF92EF92FF920F931F93CF938F
S1132260DF93DC011496CD91DC911597219609F446
S113227004C11E968D909D90AD90BC905197811491
S11322809104A104B10409F4FAC07B018C016E012C
S1132290BFE1CB22DD24C114D10409F0D2C0EFEF99
S11322A08E1A9E0AAE0ABE0ADC011E968D929D927B
S11322B0AD92BC9251971A964D915D916D917C911E
S11322C01D97411551056105710549F4ED91FC9186
S11322D080859185C817D90708F0D3C0B2C0DC0146
S11322E0ED91FC91228130E021503109CE01969587
S11322F08795929582958F7089279F7089272823C7
S11323003923232B09F09DC0CF01A5DB4B015C01D0
S1132310623071058105910508F4B5C06F3F7F4FA8
S11323208F4F9F4F09F4B1C0D801ED91FC9186897C
S11323309789A08DB18D88169906AA06BB0608F464
S11323406FC0EF2809F4A3C0D8011A964D915D918E
S11323506D917C911D97CF0168DE4B015C01611585
S113236071058105910509F494C0613071058105F9
S1132370910509F490C06F3F7F4F8F4F9F4F09F431
S11323808CC0D8018D919C910E948907811187C0CE
S1132390F8018081918140E054E060E070E0C296F1
S11323A00E94CF06D801ED90FC90B501A401C701AD
S11323B024DBF70166A777A780AB91ABE12CF12C66
S11323C07724739419C07482D8018D919C910E94D2
S11323D08907811166C0D801ED91FC9186A597A566
S11323E0A0A9B1A90196A11DB11D86A797A7A0AB6D
S11323F0B1ABBFEFEB1AFB0AD801ED91FC918281DE
S113240090E0E816F906F8F286A597A5A0A9B1A967
S11324108E199F09A109B10986A797A7A0ABB1ABF3
S1132420F80182869386A486B586B501A4018081CD
S11324309181E3DAD8011E966D937D938D939C93DD
S11324405197F801D583C483CC0CDD1CCC0CDD1C66
S1132450CC0CDD1CCC0CDD1CCC0CDD1CF2E3CF0E53
S1132460D11CD8018D919C911197C80ED91E5396F9
S1132470DC92CE92529780E015C084E013C084E0D1
S113248011C084E00FC082E00DC081E00BC084E085
S113249009C087E007C082E005C081E003C081E095
S11324A001C081E0DF91CF911F910F91FF90EF90D8
S11324B0DF90CF90BF90AF909F908F907F900895C2
S11324C02F923F924F925F926F927F928F929F9240
S11324D0AF92BF92CF92DF92EF92FF920F931F932E
S11324E0CF93DF93CDB7DEB727970FB6F894DEBF4F
S11324F00FBECDBF7C018B01DB018C918F3211F0BB
S11325008C3541F40F5F1F4FF70116821782108636
S113251011860CC0D701ED91FC9182899389A4891D
S1132520B589F70186839783A087B187D8018C91F9
S1132530803240F460E070E0C7018FDBF701138A5A
S1132540128A66C10F2EFBE08F2EF02D712C0F2EF8
S1132550FEE26F2EF02DB12CA12C6894552453F873
S1132560312C212C3A828B827C82FF82EE8259822A
S11325705D82F8012E813F817F0181918F32E1F3E9
S11325808C35D1F33F832E83D9015496CD90DC90C2
S11325905597482D572D60E270E0C6010E94CF0682
S11325A0F70180818E3249F0D7016B2D7A2D8B2D66
S11325B09A2D4980532C022D1FC0D6016C92F7012D
S11325C091819E3249F411966C9292819E3209F463
S11325D06CC003E010E002C002E010E09F3209F496
S11325E0C7C09C3509F4C4C0913208F0EAC0C4C025
S11325F0D6011B968C93E7C001961D91113208F405
S1132600D4C01F3209F4D7C01C3509F4D4C01E321B
S113261009F4B6C06415750508F0D3C007C0000FEF
S1132620000F6D817A814B805C80E6CF11230CF022
S1132630ADC00360E12FF0E0EC52FF4F1081A6C063
S11326402191222309F4ABC030E042175307C1F7AC
S11326502CC0026006C02FE9210F2A3110F401605A
S11326601052F601E60FF71F10836F5F7F4FC4CF40
S1132670672B09F4A6C0F6019081953E11F425E07C
S1132680208338E04316510411F4990C990C992DC8
S11326909370913009F48061992D9C70943009F401
S11326A08860D6011B968C938EC086E0B1C0EE8004
S11326B0FF80F70146855785608971898081918102
S11326C00E94F207811188C0D70152966D917C91C6
S11326D05397FB019081992309F48BC0938593FD53
S11326E013C054964D915C915597DA019B01255F77
S11326F03F4F670104C0E217F30709F483C0F19068
S11327009D91F916C1F376016B2D7A2DC7019CDDDD
S1132710882379F2FF82EE8261C095FF10C0AE81FA
S1132720BF8116961D921D921D921C921997539665
S11327301C921E92529792FF1CCF80E069C092FDBA
S113274013C085E065C0FB01838584FF0FC0AE81A3
S1132750BF818D919C910E943007EE81FF81668339
S113276077838087918705CF84E052C085E050C08D
S11327700E0D1F1D80E23CCF0E0D1F1D84E238CFCD
S1132780F8E04F16510409F44ACF8FCF412F50E09F
S11327904232510509F489CFE2E0F1E051CF2FEB49
S11327A0210F2A3108F455CF56CF902E8701080FF8
S11327B0191F84E05DCF902E8701080F191F822D09
S11327C057CF86E025C06B2D7A2D8E819F8145DA07
S11327D0882309F46CCF02C0FF82EE82AE81BF81F0
S11327E05496ED91FC9155979385843009F495CFD7
S11327F00FC0FF82EE82D7015496ED91FC9155975C
S113280093858BCFDF82CE82FA01938592FF9BCF93
S113281027960FB6F894DEBF0FBECDBFDF91CF91E0
S11328201F910F91FF90EF90DF90CF90BF90AF90EA
S11328309F908F907F906F905F904F903F902F90DC
S11328400895CF92DF92EF92FF920F931F93CF934D
S1132850DF93EC017B0160E070E0FFD9811123C0BC
S113286000E010E0C12CD12C4E855F856889798900
S1132870888199810E94F207811115C0EA89FB8938
S11328809081953E11F0911106C00F5F1F4F0E15F8
S11328901F0519F40BC00C2D1D2D61E070E0CE0155
S11328A0D3DC882309F3843009F487E0DF91CF91E6
S11328B01F910F91FF90EF90DF90CF9008950F93A9
S11328C01F93CF938C0161E070E0BBDFC82F8111AF
S11328D029C0D8011E964D915D916D917C915197BF
S11328E08D919C910E94F207C82F81111BC040E278
S11328F050E060E070E0F801828993890E94CF067D
S1132900D80154966D917C9155974BE050E05296C6
S11329108D919C9153970E94C106D801ED91FC9131
S113292081E084838C2FCF911F910F910895CF92D2
S1132930DF92EF92FF920F931F93CF93DF93EC01FB
S11329408B0194E0CC24C394D12CE12CF12C22C033
S1132950888199810E94F207811128C0EA89FB8944
S11329602081222341F193859F73253E61F09F309E
S113297051F09F712C2D3D2D983011F02E2D3F2DAF
S113298020173107D9F06E2D7F2DCE015DDC982FF5
S1132990811113C04E855F85688979894115510578
S11329A061057105A9F6892F992341F01E861F86BA
S11329B0188A198A03C084E0F9CFF8CFDF91CF9148
S11329C01F910F91FF90EF90DF90CF9008958F9219
S11329D09F92AF92BF92CF92DF92EF92FF920F93AA
S11329E01F93CF93DF93EC016A017B0142305105C1
S11329F06105710508F44CC08E899F89A88DB98D35
S1132A00481759076A077B0708F044C035C0B70167
S1132A10A601CE0120D84B015C01672B682B692BE2
S1132A20D9F181E088169104A104B104B9F12FEF22
S1132A3082169206A206B20699F100E010E098010F
S1132A40B701A601CE01C6D981112BC08E859F8501
S1132A50A889B9898F3F2FEF9207A207B20751F0D7
S1132A600196A11DB11D8E879F87A88BB98B8D817F
S1132A7081608D83750164018E899F89A88DB98DCC
S1132A80C816D906EA06FB0608F4C1CF80E009C0DF
S1132A9082E007C082E005C080E003C082E001C09C
S1132AA081E0DF91CF911F910F91FF90EF90DF9024
S1132AB0CF90BF90AF909F908F9008951F93CF9326
S1132AC0DF9300D000D000D0CDB7DEB79C838B83DA
S1132AD07E836D83142F7A836983CE0101960E94CD
S1132AE05207992334F1FC01EE0FFF1FE351FE4F0F
S1132AF00190F081E02D309709F01082EB81FC8188
S1132B003097E9F010822B813C81880F991FFC01DA
S1132B10E351FE4F31832083232B69F0113069F494
S1132B2040E0BE016B5F7F4FCE0103960E94BA085E
S1132B300EC08BE00CC080E00AC080E008C0880FA3
S1132B40991FFC01E351FE4F1182108280E026960A
S1132B500FB6F894DEBF0FBECDBFDF91CF911F91AA
S1132B6008953F924F925F926F927F928F929F92BD
S1132B70AF92BF92CF92DF92EF92FF920F931F9387
S1132B80CF93DF93CDB7DEB7A6970FB6F894DEBF29
S1132B900FBECDBF7EA36DA3009709F4CFC0D42E82
S1132BA08C01FC01118210824E71BE016B5D7F4F5E
S1132BB0CE0101960E94BA088111EAC0FD2DFF7171
S1132BC03F2ECE0149969E8B8D8B6DA17EA1489799
S1132BD077DCEB88FC888111B3C0E114F10409F0BF
S1132BE0B9C0B3C0843009F0C5C0CE01019667DE18
S1132BF0232D2860322EEB88FC88882341F0B2C054
S1132C00F7018385817109F0C0C0D2FCC0C033FED6
S1132C10ADC0F7011686178691E2908B86E4818B0E
S1132C20168A178A908F818F1386148E158E168EAE
S1132C30178EC980DA80B701C6010E9430072B01C4
S1132C403C01F701128E138E148A158A81E0F60175
S1132C508483411451046104710409F487C086A477
S1132C6097A4A0A8B1A8B301A201C601B0DE811146
S1132C7079C089819A81F1E04F1A5108610871087D
S1132C80FC014286538664867586B501A4010E94C0
S1132C90F207882331F07CC0D1FE68C080FD5FC09C
S1132CA065C0F32DF0623F2EE981FA8186A597A5D0
S1132CB0A0A9B1A9F801828F938FA48FB58FF78E45
S1132CC0E68EF80134821582C980DA80B701C60124
S1132CD00E943007F80166877787808B918BF70114
S1132CE0278D868D90E0A0E0B0E0DC01992788274D
S1132CF0B22B248D822B458D50E0542F442760E065
S1132D0070E0842B952BA62BB72BF8018287938731
S1132D10A487B5871682178210861186168A178AA9
S1132D20108E118E11A210A2D182C082F60186816A
S1132D309781F8019383828380E02AC089E028C0C8
S1132D404D2D4C7109F04ECF0DC04D2D4C7189F4B1
S1132D5086E008C08D2D8C7109F052CF11C087E038
S1132D6001C084E0882309F4ACCF12C033FC99CFAE
S1132D709BCF86E0F32DF8603F2EEB88FC88F2CFE2
S1132D80F701838584FDEDCF87CF87E001C088E01C
S1132D90A6960FB6F894DEBF0FBECDBFDF91CF91DC
S1132DA01F910F91FF90EF90DF90CF90BF90AF9065
S1132DB09F908F907F906F905F904F903F90089579
S1132DC03F924F925F926F927F928F929F92AF92B7
S1132DD0BF92CF92DF92EF92FF920F931F93CF9304
S1132DE0DF9300D000D000D0CDB7DEB79E838D83B3
S1132DF04B016A015901D9011D921C920E94960847
S1132E008111C9C1ED81FE8185818111C4C1848193
S1132E1081FFC0C186819781A085B185AC01BD01C8
S1132E204C0D5D1D611D711D481759076A077B070D
S1132E3008F493C1C114D10409F48FC1B296FC8380
S1132E40EB83AD81BE8116964D915D916D917C9120
S1132E501997DB01CA019370AA27BB27892B8A2BF8
S1132E608B2B09F039C1AD81BE81ED91FC9122819A
S1132E702150DB01CA01072E7AE0B695A7959795F4
S1132E8087957A95D1F7702D322E382209F05CC0DF
S1132E90411551056105710599F4AD81BE811E96F8
S1132EA06D917D918D919C9151976115710581056D
S1132EB0910511F540E050E0BA01CF01B6D816C033
S1132EC0AD81BE8190968D919C919197892B21F033
S1132ED0CD010E94DA060AC0AD81BE8152964D91A1
S1132EE05D916D917C915597CF019FD861157105C6
S1132EF08105910509F431C16130710581059105A0
S1132F0029F482E0ED81FE81858345C16F3FFFEFA7
S1132F107F078F079F0731F481E0AD81BE8115964D
S1132F208C9339C1ED81FE81628B738B848B958B7D
S1132F30468457846088718845284628472821F4A8
S1132F4066877787808B918BED81FE81848186FFF4
S1132F501BC026893789408D518D0190F081E02D69
S1132F6001E010E06B817C8181810E949F038823B2
S1132F7031F081E0AD81BE8115968C930CC1ED8159
S1132F80FE8184818F7B8483AD81BE810D90BC9151
S1132F90A02DBA83A983ED81FE8142895389648976
S1132FA07589CD010E94FD0C61157105810591059E
S1132FB031F482E0AD81BE8115968C93ECC02B0177
S1132FC03C01430C511C611C711C7601EF2CFF2445
S1132FD0E694E694E114F10409F44BC0E981FA8122
S1132FE04281242F30E0C701830D911D2817390732
S1132FF018F47901E318F1088701A3019201B401DF
S1133000A981BA8111968C910E949F03882329F08B
S113301081E0ED81FE818583BEC0ED81FE818689DC
S11330209789A08DB18D84199509A609B709A701BF
S113303060E070E084179507A607B707A8F4982FF7
S11330408827990F990FB401680F791F40E054E065
S11330508B819C810E94C106AD81BE8114968C91A6
S113306014978F7B14968C93FE2CEE24FF0CFF0C8C
S113307058C0ED81FE8186899789A08DB18D841514
S11330809505A605B70501F14681578160857185CF
S113309082859385A485B585481759076A077B07F8
S11330A098F401E010E0A30192016B817C81A98175
S11330B0BA8111968C910E944D03882329F081E0F6
S11330C0ED81FE81858367C0AD81BE8156964D92A8
S11330D05D926D927C925997ED81FE8186819781F4
S11330E0A085B185AC01537020E034E0241B350B7E
S11330F076012C153D0508F479019370AA27BB27A6
S11331008296A701B4012D813E81820F931F0E94F4
S1133110C106AD81BE8114968C9114978064149677
S11331208C938E0C9F1CED81FE8186819781A085F6
S1133130B1858E0D9F1DA11DB11D86839783A08728
S1133140B187D5018D919C9111978E0D9F1D8D9303
S11331509C93CE18DF0809F074CEED81FE81868140
S11331609781A085B1854285538564857585481707
S113317059076A077B0720F482879387A487B5875A
S1133180AD81BE8114968C911497806214968C93B1
S113319080E001C087E026960FB6F894DEBF0FBE2C
S11331A0CDBFDF91CF911F910F91FF90EF90DF90F2
S11331B0CF90BF90AF909F908F907F906F905F90D3
S11331C04F903F9008950F931F93CF93DF93EC019B
S11331D00E949608811151C08C8185FF4BC086FFE7
S11331E013C02E893F89488D598DE881F98101E00A
S11331F010E0BE016E5D7F4F81810E949F038111AB
S11332003BC08C818F7B8C834A8D5B8D6C8D7D8DD7
S1133210888199810E94F20781112FC0EE8DFF8D64
S11332208385806283878A85848F8B85858F8C854F
S1133230868F8D85878F8E859F85A889B989828F92
S1133240938FCD01AA27BB27848B958B168A178A67
S113325081E2808F86E4818F128A138A8C818F7D2C
S11332608C83E881F98181E08483888199810E943B
S1133270890C03C080E001C081E0DF91CF911F91F0
S11332800F910895CF93DF93EC019DDF811107C067
S1133290CE010E949608811102C019821882DF9122
S11332A0CF910895CF92DF92EF92FF921F93CF9325
S11332B0DF93CDB7DEB76A970FB6F894DEBF0FBEC3
S11332C0CDBF9A8F898F6B017A0140E0BE01675EA2
S11332D07F4FCE0101960E94BA08182F811166C053
S11332E0C114D10441F11F82188619861A8660E040
S11332F070E0CE0101960E942D0E811156C061E04E
S113330070E0CE01019613DB81114BC06B897C897F
S11333104BE050E0C6010E94C106F60113863B96BD
S113332004C01082EC15FD0531F082918032C9F39E
S113333002C0F6011082E114F104C1F189819A817D
S1133340FC01468D578D60A171A10E94F207182FD0
S113335081112CC0E981FA818081833019F087E2E0
S113336090E002C083E490E0E80FF91F25A984A946
S113337090E0A0E0B0E0DC0199278827B22B22A9D5
S1133380822B43A950E0542F442760E070E0842B43
S1133390952BA62BB72BF70180839183A283B3834C
S11333A005C0843031F2182F01C0182F812F6A967E
S11333B00FB6F894DEBF0FBECDBFDF91CF911F9142
S11333C0FF90EF90DF90CF90089582E08093B80053
S11333D00895089584EA8093BC00089584E9809355
S11333E0BC000895ECEBF0E080818823ECF7609357
S11333F0BB0084E88093BC00ECEBF0E08081882380
S1133400ECF708951F920F920FB60F9211240BB68A
S11334100F922F933F934F935F936F937F938F9369
S11334209F93AF93BF93EF93FF938091EF018F5FCF
S11334308093EF010E94A905FF91EF91BF91AF9195
S11334409F918F917F916F915F914F913F912F91B8
S11334500F900BBE0F900FBE0F901F901895CF9337
S1133460DF93CDB7DEB7C657D8400FB6F894DEBFAA
S11334700FBECDBF1092EF0182E084BD86E287BD0E
S1133480EEE6F0E080818260808385B5856085BD4D
S1133490789480EF91E00E94C00580EF91E00E9453
S11334A0400614E12FEF30E782E0215030408040A5
S11334B0E1F700C000001150A9F720E046E061E305
S11334C080EF91E00E94770680EF91E00E94400631
S11334D020E04CE062E380EF91E00E94770680EF09
S11334E091E00E94400680E00E9486021F928F9322
S11334F085EE91E09F938F93CE018B5A974F9F93C4
S11335008F9306D20F900F900F900F900F900F9003
S11335108823E1F06E019BEAC91A97EFD90AEE24D9
S1133520EA94E80EF12CEFEFEE1AFE0AEC0CFD1C07
S113353006E4F60161916F0128E0402F80EF91E0ED
S11335400E9477060A5FCE14DF0499F720E042E177
S113355063E380EF91E00E94770680EF91E00E94A0
S1133560400640E063E571E0CE010196A7DA91E000
S113357020E0811101C090E02F939F9385EE91E0AC
S11335809F938F93CE018B5A974F9F938F93C0D164
S11335900F900F900F900F900F900F908823E1F0F1
S11335A06E01FBEACF1AF7EFDF0AEE24EA94E80E85
S11335B0F12C2FEFE21AF20AEC0CFD1C06E4F601E2
S11335C061916F0120E1402F80EF91E00E94770626
S11335D00A5FCE14DF0499F720E048E164E380EF4A
S11335E091E00E94770680EF91E00E94400640E05F
S11335F050E0BE016759774F83E591E053DED82E42
S11336009E012759374F790102E3F70161917F0148
S113361020E2402F80EF91E00E9477060A5F0A378C
S1133620A1F71F92DF9285EE91E09F938F93CE01D5
S11336308B5A974F9F938F936BD10F900F900F904E
S11336400F900F900F908823E1F06E01FBEACF1AE0
S1133650F7EFDF0AEE24EA94E80EF12C2FEFE21ADA
S1133660F20AEC0CFD1C06E4F60161916F0128E2FC
S1133670402F80EF91E00E9477060A5FCE14DF04AA
S113368099F720E04EE165E380EF91E00E94770630
S113369080EF91E00E94400646E064ED71E0CE01C7
S11336A08D5C9B4F5EDA1F928F9385EE91E09F9322
S11336B08F93CE018B5A974F9F938F9329D10F905D
S11336C00F900F900F900F900F908823E1F06E01F0
S11336D0FBEACF1AF7EFDF0AEE24EA94E80EF12CA6
S11336E02FEFE21AF20AEC0CFD1C012FF601619196
S11336F06F0128E0402F80EF91E00E9477060A5F77
S1133700CE14DF0499F720E044E266E380EF91E011
S11337100E94770680EF91E00E944006CB58D74F75
S113372019821882C557D8409E012B58374F45E05F
S113373050E06CED71E0CE018D5C9B4F41DB082FB6
S113374020E04AE267E380EF91E00E947706CA58DE
S1133750D74F8881C657D8408F93CB58D74F88818D
S1133760C557D8408F931F920F9382EE91E09F9399
S11337708F93CE018B5A974F9F938F93C9D00FB6D7
S1133780F894DEBF0FBECDBF8823E1F06E013BEAA3
S1133790C31A37EFD30AEE24EA94E80EF12C8FEF24
S11337A0E81AF80AEC0CFD1C012FF60161916F0177
S11337B020E1402F80EF91E00E9477060A5FCE144B
S11337C0DF0499F780EF91E00E944006CE018D5C02
S11337D09B4F58DD082F20E040E368E380EF91E041
S11337E00E9477068091EF011F928F931F920F938F
S11337F082EE91E09F938F93CE018B5A974F9F93C4
S11338008F9386D00FB6F894DEBF0FBECDBF88234A
S1133810D9F06E013BEAC31A37EFD30AEE24EA94D7
S1133820E80EF12C8FEFE81AF80AEC0CFD1CF601F7
S113383061916F0128E1412F80EF91E00E947706AA
S11338401A5FCE14DF0499F780EF91E00E944006DE
S113385040E063E571E080E090E030D920E046E3A9
S113386069E380EF91E00E94770680EF91E00E9487
S11338704006FFCF80EF91E00C943306089580EF6B
S113388091E00C94BC050895A1E21A2EAA1BBB1B5F
S1133890FD010DC0AA1FBB1FEE1FFF1FA217B30718
S11338A0E407F50720F0A21BB30BE40BF50B661F2E
S11338B0771F881F991F1A9469F7609570958095F2
S11338C090959B01AC01BD01CF010895EE0FFF1F40
S11338D00024001C0BBE0790F691E02D099409D03A
S11338E0A59F900DB49F900DA49F800D911D112450
S11338F00895A29FB001B39FC001A39F700D811DC5
S11339001124911DB29F700D811D1124911D0895E4
S11339100F931F93CF93DF93CDB7DEB72E970FB6D8
S1133920F894DEBF0FBECDBF0D891E8986E08C835F
S11339301A8309838FEF9FE79E838D83AE01475ED1
S11339405F4F6F89788DCE01019611D02F81388514
S1133950F801E20FF31F10822E960FB6F894DEBF23
S11339600FBECDBFDF91CF911F910F9108952F927C
S11339703F924F925F926F927F928F929F92AF92FB
S1133980BF92CF92DF92EF92FF920F931F93CF9348
S1133990DF93CDB7DEB72C970FB6F894DEBF0FBE1A
S11339A0CDBF7C016B018A01FC01178216828381E1
S11339B081FFB0C1CE0101964C01F7019381F6015C
S11339C093FD859193FF81916F01882309F49EC132
S11339D0853239F493FD859193FF81916F0185328E
S11339E021F4B70190E0C7D1E8CF512C312C20E06D
S11339F02032A0F48B3269F030F4803259F08332F3
S1133A0069F420612CC08D3239F0803339F421609F
S1133A1026C02260246023C0286021C027FD27C05F
S1133A2030ED380F3A3078F426FF06C0FAE05F9E96
S1133A30300D1124532E13C08AE0389E300D11240A
S1133A40332E20620CC08E3221F426FD5FC1206427
S1133A5006C08C3611F4206802C0883641F4F601A1
S1133A6093FD859193FF81916F018111C1CF982FAF
S1133A709F7D9554933028F40C5F1F4FFFE3F98327
S1133A800DC0833631F0833771F0833509F057C0A8
S1133A9021C0F801808189830E5F1F4F4424439421
S1133AA0512C540114C03801F2E06F0E711CF8015E
S1133AB0A080B18026FF03C0652D70E002C06FEFC7
S1133AC07FEFC5012C874CD12C0183012C852F77E6
S1133AD0222E16C03801F2E06F0E711CF801A0808E
S1133AE0B18026FF03C0652D70E002C06FEF7FEF49
S1133AF0C5012C872AD12C012C852068222E830114
S1133B0023FC19C0832D90E048165906A0F4B70190
S1133B1080E290E030D13A94F5CFF50127FC85910D
S1133B2027FE81915F01B70190E025D131103A94CD
S1133B30F1E04F1A51084114510479F7DEC084367C
S1133B4011F0893631F5F80127FF07C060817181D2
S1133B50828193810C5F1F4F08C060817181072EA1
S1133B60000C880B990B0E5F1F4F2F76722E97FF58
S1133B7009C090958095709561957F4F8F4F9F4FA9
S1133B802068722E2AE030E0A4012DD1A82EA818B6
S1133B9043C0853729F42F7EB22E2AE030E025C0B9
S1133BA0F22FF97FBF2E8F36C1F018F4883579F0E3
S1133BB0ADC0803719F0883721F0A8C02F2F2061BD
S1133BC0B22EB4FE0DC08B2D8460B82E09C024FF24
S1133BD00AC09F2F9660B92E06C028E030E005C0C9
S1133BE020E130E002C020E132E0F801B7FE07C076
S1133BF060817181828193810C5F1F4F06C0608157
S1133C00718180E090E00E5F1F4FA401ECD0A82EDC
S1133C10A818FB2DFF777F2E76FE0BC0372D3E7F35
S1133C20A51450F474FE0AC072FC08C0372D3E7E01
S1133C3005C0BA2C372D03C0BA2C01C0B52C34FFF3
S1133C400DC0FE01EA0DF11D8081803311F4397E2F
S1133C5009C032FF06C0B394B39404C0832F86789E
S1133C6009F0B39433FD12C030FF06C05A2CB314CC
S1133C7018F4530C5B18B32CB31460F4B70180E24E
S1133C8090E03C8778D0B3943C85F6CFB31410F41D
S1133C903B1801C0312C34FF11C0B70180E390E020
S1133CA03C8769D03C8532FF16C031FD03C088E7EC
S1133CB090E002C088E590E0B7010CC0832F8678BD
S1133CC051F031FF02C08BE201C080E237FD8DE28A
S1133CD0B70190E050D0A51430F4B70180E390E030
S1133CE04AD05A94F8CFAA94F401EA0DF11D8081C8
S1133CF0B70190E040D0A110F6CF332009F45DCE97
S1133D00B70180E290E037D03A94F7CFF70186818B
S1133D10978102C08FEF9FEF2C960FB6F894DEBF09
S1133D200FBECDBFDF91CF911F910F91FF90EF9008
S1133D30DF90CF90BF90AF909F908F907F906F90C7
S1133D405F904F903F902F900895FC010590615033
S1133D5070400110D8F7809590958E0F9F1F08959D
S1133D60FC016150704001900110D8F78095909546
S1133D708E0F9F1F08950F931F93CF93DF93FB0123
S1133D80238121FD03C08FEF9FEF28C022FF16C0BF
S1133D9046815781248135814217530744F4A08119
S1133DA0B1819D012F5F3F4F318320838C93268106
S1133DB037812F5F3F4F3783268310C0EB01092FD4
S1133DC0182F0084F185E02D0995892BE1F68E8169
S1133DD09F8101969F838E83812F902FDF91CF91B6
S1133DE01F910F910895FA01AA27283051F120312B
S1133DF081F1E8946F936E7F6E5F7F4F8F4F9F4F7B
S1133E00AF4FB1E03ED0B4E03CD0670F781F891FBC
S1133E109A1FA11D680F791F8A1F911DA11D6A0F8A
S1133E20711D811D911DA11D20D009F468943F913D
S1133E302AE0269F11243019305D3193DEF6CF013C
S1133E400895462F4770405D4193B3E00FD0C9F702
S1133E50F6CF462F4F70405D4A3318F0495D31FD6F
S1133E604052419302D0A9F7EACFB4E0A6959795C2
S1133E70879577956795BA95C9F700976105710598
S1133E8008959B01AC010A2E0694579547953795E2
S1133E902795BA95C9F7620F731F841F951FA01D3C
S1133EA0089511E0C9E6D1E003C0FE010FDD2196BB
S10D3EB0CA36D107D1F7F894FFCF0A
S1133EBA01222A2B2C3A3B3C3D3E3F5B5D7C7F0032
S1133ECA222A2B2C2E3A3B3C3D3E3F5B5D7C7F00F5
S1133EDAEBFE904D53444F53352E30004E4F204E37
S1133EEA414D4520202020464154333220202000D1
S1133EFA4E4F204E414D452020202046415420203B
S1133F0A20202000809A45418E418F8045454549AD
S1133F1A49498E8F9092924F994F555559999A9B28
S1133F2A9C9D9E9F41494F55A5A5A6A7A8A9AAABA2
S1133F3AACADAEAFB0B1B2B3B4B5B6B7B8B9BABB3B
S1133F4ABCBDBEBFC0C1C2C3C4C5C6C7C8C9CACB2B
S1133F5ACCCDCECFD0D1D2D3D4D5D6D7D8D9DADB1B
S1133F6ADCDDDEDFE0E1E2E3E4E5E6E7E8E9EAEB0B
S1133F7AECEDEEEFF0F1F2F3F4F5F6F7F8F9FAFBFB
S1133F8AFCFDFEFF464F4F2E5458540048616C6C9A
S10B3F9A6F0025693A25690056
S9030000FC
