:100000007CC0000099C0000097C0000095C00000AF
:1000100093C0000091C000008FC000008DC00000A0
:100020008BC0000089C0000087C0000085C00000B0
:1000300083C0000081C000007FC000007DC00000C0
:100040007BC0000079C0000077C0000075C00000D0
:1000500073C0000071C000006FC000006DC00000E0
:100060006BC0000069C0000067C0000065C00000F0
:1000700063C0000061C000005FC000005DC0000000
:100080005BC0000059C0000057C0000039034003A6
:100090008D04B0038D048D048D0485048D048D04BE
:1000A0008D048D048D048D048D048D048D048D04C8
:1000B0008D048D048D048D048D048D048D048D04B8
:1000C0008D048D048D048D048D048D048D048D04A8
:1000D0008D048D048D048D048D048D048D048D0498
:1000E0008D048D048D048D048D048D048D048D0488
:1000F00036043C044D045E04730411241FBECFEF8C
:10010000D0E4DEBFCDBF11E0A0E0B1E0E2EFFDE260
:1001100000E00BBF02C007900D92A831B107D9F7DC
:1001200021E1A8E1B1E001C01D92AD34B207E1F7D1
:100130000E94FC130C94F71663CF1CBC84B18F7023
:1001400084B985B18F7085B908958EBD0DB407FE51
:10015000FDCF8EB508952E9A8FEFF7CF08952E9884
:100160008FEFF3DF82E3809319018FEFEEDF8F3F94
:1001700041F0809119018111F8CFEDDF80E090E02E
:10018000089581E090E008950F931F93CF93DF933C
:10019000EC018B0184E180931A018FEFD6DF8F3F52
:1001A00039F490911A019111F8CF80E090E01EC0CF
:1001B0008E3FD1F48FEF8EBD0DB407FEFDCF9EB5FF
:1001C00098838EBD0DB407FEFDCF22969EB5FE012D
:1001D000319790830250110971F78FEFB6DF8FEFDF
:1001E000B4DF81E090E002C080E090E0DF91CF9149
:1001F0001F910F910895FF920F931F93CF93DF9359
:10020000C82FD42F152F062FF72E88234CF440E04B
:1002100050E0BA0187E3EFDF823008F03CC0CF77CF
:10022000CC30F1F098DF9BDF892BC1F08C2F8064FC
:100230008CDF8F2D8ADF802F88DF812F86DF8D2F47
:1002400084DFCC2329F121C08FEF7FDFCAE08FEF5D
:100250007CDF882304F5C150D1F71DC08FEF1BC090
:100260008CE473DF8F2D71DF802F6FDF812F6DDFC7
:100270008D2F6BDF81E069DFCC3031F3E7CF87E88A
:1002800064DFE4CF81E061DFE1CFC830C1F3FACFB2
:1002900085E95BDFDBCFDF91CF911F910F91FF905D
:1002A00008951F93CF93DF93EC01162F92E3909361
:1002B00019018FEF4ADF8F3F31F0909119019111B1
:1002C000F8CF80E026C0812F40DF1D3F01F19E0165
:1002D0003E5F88818EBD0DB407FEFDCF2296FE01E4
:1002E000319780818EBD0DB407FEFDCFC217D307B5
:1002F00081F78FEF2ADF8FEF28DF8FEF26DF282FA0
:100300002F7181E090E0253021F080E002C081E093
:1003100090E0DF91CF911F910895CF92DF92EF92FD
:10032000FF920F931F93CF93DF9300D000D0CDB7F0
:10033000DEB781119FC001DF8091000181FF03C002
:1003400080910001A2C085B1806F85B984B1806FB2
:1003500084B982E58CBD91E09DBD8CBD1AE08FEF24
:10036000F4DE1150E1F740E050E0BA0180E043DFF5
:10037000813009F086C084E680931A014AEA51E090
:1003800060E070E088E037DF813009F03FC0CE01E7
:1003900001966C017E0195E0E90EF11C86018FEF5C
:1003A000D4DEF80181938F01EE15FF05C1F78B8133
:1003B000813009F066C08C818A3A09F062C0809170
:1003C0001A01882341F040E050E060E070E489EADF
:1003D00012DF8111F4CF80911A01882309F451C0F2
:1003E00040E050E0BA018AE306DF81114AC076019D
:1003F00014E01C0D8FEFA9DEF70181937F011E131E
:10040000F9CF898186FD38C084E037C040E050E0F4
:10041000BA0189EAF0DE823018F001E011E002C092
:1004200002E019EA90911A01992339F040E050E076
:10043000BA01812FE0DE8111F5CF80911A01882366
:1004400001F140E052E060E070E080E1D4DE811133
:1004500018C0009318017FDE002341F08091000155
:100460008E7F8093000180E58CBD01C066DE8091A7
:1004700000010BC081E009C08CE0809318016BDEA5
:10048000EDCF1092180167DEF1CF0F900F900F9013
:100490000F90DF91CF911F910F91FF90EF90DF9020
:1004A000CF900895811103C080910001089581E0EB
:1004B0000895FF920F931F93CF93DF93EB01811168
:1004C0003FC00115110509F43DC08091000180FD78
:1004D0003BC08091180183FD09C0012E19E0220F55
:1004E000331F441F551F1A95D1F7102D02301105E7
:1004F00028F40F2EF1E1FF2EF02D04C00F2EF2E1B3
:10050000FF2EF02DBA01A9018F2D75DE811112C0C9
:1005100060E072E0CE0138DE892B21F0DE5F015011
:100520001109B1F782E1F81205C040E050E0BA01CC
:100530008CE061DE10DE81E0012B39F480E005C043
:1005400084E003C084E001C083E0DF91CF911F917C
:100550000F91FF900895CF92DF92EF92FF920F9349
:100560001F93CF93DF93EB0169017A01811151C091
:100570000115110509F44FC08091000180FD4DC0A7
:100580008091000182FD4BC08091180183FD09C05C
:100590000B2EB9E0CC0CDD1CEE1CFF1CBA95D1F77C
:1005A000B02D0130110589F4B701A60188E123DEE1
:1005B000811129C06EEFCE0174DE31E020E0892B7D
:1005C00009F030E0032F122F1EC0867029F0A80119
:1005D00060E070E087E90FDEB701A60189E10BDE7C
:1005E000811111C06CEFCE015CDE892B21F0DE5F42
:1005F00001501109B9F76DEF80E090E052DE892BD0
:1006000011F401E010E0A7DD81E0012B49F480E066
:1006100007C084E005C084E003C083E001C082E03D
:10062000DF91CF911F910F91FF90EF90DF90CF90CE
:100630000895EF92FF920F931F93CF93DF93CDB75F
:10064000DEB760970FB6F894DEBF0FBECDBF811145
:100650007CC18091000180FD7AC17A01062F10E0F3
:100660000733110508F059C1F801EA5BFF4F0C94FC
:100670003B1475DD11E0892B09F464C110E062C1FF
:1006800040E050E0BA0189E0B6DD811148C160E187
:1006900070E0CE01019678DD892B09F442C1898191
:1006A0008295869586958370813031F588858F7324
:1006B00090E0A0E0B0E0DC01992788270196A11D19
:1006C000B11D298530E0322F22274A85240F311DA4
:1006D000820F931FA11DB11D072E7AE0880F991F6D
:1006E000AA1FBB1F7A95D1F7702DF70180839183E4
:1006F000A283B38310E026C189858295869586956D
:100700008370288590E0F4E02F9F800D911D1124C7
:100710009C012F5F3F4F8F81837090E0982F882737
:10072000990F990F820F931FA0E0B0E03E813F70B8
:100730002B85221F2227221F320F2A852370220F8A
:10074000230F275004C0880F991FAA1FBB1F2A958B
:10075000D2F7F70180839183A283B38310E0F2C0C4
:100760001091180112FF2AC040E050E0BA018DE854
:1007700042DD8111D8C08FEFE8DC60E170E0CE018E
:10078000019602DD892B09F4D0C010E38FEFDDDC88
:100790001150E1F72B8522952F7080E190E0A0E0C9
:1007A000B0E004C0880F991FAA1FBB1F2A95D2F77B
:1007B000F70180839183A283B383C4C040E050E0FB
:1007C000BA0189E018DD8111B2C060E170E0CE01AC
:1007D0000196DADC892B09F4ACC011FF20C08C85AE
:1007E000881F8827881F90E001962B852F73820F22
:1007F000911D820F911D2E85229526952695237099
:10080000215002C0880F991F2A95E2F7A0E0B0E0BE
:10081000F70180839183A283B38310E093C08C851A
:10082000282F237082958695877090E0F8E02F9F9F
:10083000800D911D112401962B852C7730E0359584
:100840002795359527952F5F3F4F829FA001839F66
:10085000500D929F500D1124CA01A0E0B0E0F701A5
:1008600080839183A283B38310E06CC080911801D0
:10087000FA01808310E066C040E050E0BA0189E0F0
:10088000BADC811158C060E170E0C7017DDC11E085
:10089000892B09F457C010E055C040E050E0BA0180
:1008A0008AE0A9DC811149C060E170E0C7016CDC1D
:1008B00011E0892B09F446C010E044C040E050E04C
:1008C000BA018AE398DC81113AC08701F4E0EF0EA7
:1008D000F11C8FEF3ADCF80181938F01EE15FF05D3
:1008E000C1F710E02FC040E050E0BA018DE883DC92
:1008F000811127C08FEF29DC60E470E0C70144DC80
:1009000011E0892BF9F010E01DC017DC8091000187
:1009100081608093000110E015C014E013C011E065
:1009200011C011E00FC011E00DC011E00BC011E0CB
:1009300009C011E007C011E005C011E003C011E0DB
:1009400001C011E008DC812F03C084E001C083E016
:1009500060960FB6F894DEBF0FBECDBFDF91CF918A
:100960001F910F91FF90EF9008954115510551F09F
:10097000A62FB72FFC01480F591F9D919193E417A3
:10098000F507D9F708950F931F93DC01FB01938DB1
:10099000692F70E0762F6627828D682B80E090E0CB
:1009A0002C91233079F4058910E0102F0027248939
:1009B000022B20E030E0980111270027602B712BDB
:1009C000822B932B1F910F910895CF93DF93EC010E
:1009D000A881B9811097F9F04C91413258F04A330F
:1009E00031F1FD0131969F019191913228F09A33B6
:1009F000D1F704C0942F9D019A3381F4CD01019663
:100A00002817390771F4403379F41296B983A88313
:100A100080E090E00EC08FEF9FEF0BC080E090E091
:100A200008C08FEF9FEF05C08FEF9FEF02C09D01C1
:100A3000E5CFDF91CF9108958F929F92AF92BF92B1
:100A4000CF92DF92EF92FF920F931F93CF93DF939A
:100A5000FC012481222309F444C0EC01C2A4D3A4E4
:100A6000E4A4F5A45C01FEE2AF0EB11C01E010E0CD
:100A7000A7019601B50189816EDD811134C01C8208
:100A80008E8D9F8DA8A1B9A1B701A601481B590B56
:100A90006A0B7B0B8E899F89A88DB98D48175907E2
:100AA0006A077B0710F58B80912C82E088169104F1
:100AB000F0F08E899F89A88DB98DC80ED91EEA1EC7
:100AC000FB1E01E010E0A7019601B501898143DD1D
:100AD000E1E08E1A9108F1E08F16910451F780E061
:100AE00007C080E005C081E003C080E001C080E075
:100AF000DF91CF911F910F91FF90EF90DF90CF90FA
:100B0000BF90AF909F908F9008958F929F92AF92D9
:100B1000BF92FF920F931F93CF93DF93EC014A0193
:100B20005B018AA59BA5ACA5BDA584179507A60763
:100B3000B707D9F0CE0180DFF82E811117C001E090
:100B400010E0A5019401BE01625D7F4F8981B1DC97
:100B5000882331F0FF24F39488248A94982C54013C
:100B60008AA69BA6ACA6BDA601C0F12C8F2DDF9155
:100B7000CF911F910F91FF90BF90AF909F908F905A
:100B80000895CF93DF93EC011C828FEF9FEFDC0180
:100B90008AA79BA7ACA7BDA7CE01B7DF811151C023
:100BA000FE01E35DFD4F808190E0982F882731970B
:100BB0002081822B85359A4A09F045C0E55CF140D9
:100BC00020813197808190E0A0E0B0E0DC0199279E
:100BD0008827B22B32972081822B3196408150E0BA
:100BE000542F442760E070E0842B952BA62BB72B65
:100BF000BB2786349144A445B10539F17E968081A6
:100C00003197408150E060E070E0BA0155274427F9
:100C1000782B32978081482BCF57DF4F888190E027
:100C2000982F8827A0E0B0E0482B592B6A2B7B2B0C
:100C3000772781E0463451446445710539F480E0FA
:100C400005C083E003C082E001C080E0DF91CF9166
:100C500008950097C1F0DC01ED91FC911197309758
:100C6000A1F02081222399F02681378112968D915F
:100C70009C9113972817390761F4818113DC80FF59
:100C80000AC089E0089589E0089589E0089589E01F
:100C9000089589E0089580E008952F923F924F9241
:100CA0005F926F927F928F929F92AF92BF92CF92FC
:100CB000DF92EF92FF920F931F93CF93DF93CDB705
:100CC000DEB76D970FB6F894DEBF0FBECDBF6C01D7
:100CD000CB01B42ED6011D921C9277DE7C019923A4
:100CE0000CF4D4C2FC01EE0FFF1FE35EFE4F008147
:100CF00011810115110509F4CBC2F601118300839E
:100D0000D8018C91882361F011968C91CBDB80FD0A
:100D100007C0BB2009F4BEC282FFBEC28AE063C323
:100D2000F8011082E1828E2DF8DA80FDB7C2BB2077
:100D300009F4D4C282FDB4C2D1C2DF0117978C91ED
:100D40008823B9F01496CC908081D12CE12CF12C21
:100D5000F82A12968C91E82A1197AC91B0E0BA2F3C
:100D6000AA27CD01A0E0B0E0C82AD92AEA2AFB2AA6
:100D700004C0C82CD92CE72EF62ED901CD92DD92D5
:100D8000ED92FD929D017096E417F507B1F64E01C4
:100D9000B1E18B0E911C6894772471F8F501C19034
:100DA000D190E190F1905F01C114D104E104F1040C
:100DB00039F0B701A601C801E4DE811102C00DC0FF
:100DC000872DA814B90451F703C0C12CD12C76018A
:100DD000833009F467C2811167C2D801DA968C9119
:100DE000DA9790E0982F8827D9962C91822B81153D
:100DF000904109F05BC2F801EB5BFF4F8080912CC2
:100E0000982C882431978081882AA12CB12C8114B8
:100E10009104A104B104E9F4719680813197808036
:100E2000912CA12CB12C540199248824B82A3297F2
:100E30008081A5019401282BDA01C90131968080B7
:100E4000912C982C8824A12CB12C882A992AAA2A82
:100E5000BB2AD80156968D929D92AD92BC9259971D
:100E6000DE96AC91F801A3838FEF8A0F823008F0F1
:100E70001FC2F3ADF98B2F2FF8012283222309F42F
:100E800019C2822F90E09C012150310982239323C3
:100E9000892B09F011C2E05CFF4F808190E0982F10
:100EA0008827F80127AD1C01222A31862086C1013E
:100EB0008F779927892B09F001C2EE5BFF4F4080A5
:100EC000512C542C442431978081482A612C712C58
:100ED0004114510461047104D1F4709680813197FA
:100EE0004080512C612C712C320155244424782AE5
:100EF00032978081482A3196808190E0982F882708
:100F0000AC0160E070E0442A552A662A772AF8018D
:100F100085ADE82FF0E03E2F2227F80184ADF901DE
:100F2000E82B309709F4CCC1B0E0A50194010E94F0
:100F300044146A8F7B8F8C8F9D8F9F0140E050E01F
:100F40002E8B3F8B488F598FC101880F892F881FA7
:100F5000990B9195280F391F411D511DDA01C901C7
:100F60002A8D3B8D4C8D5D8D280F391F4A1F5B1FCD
:100F70002A8B3B8B4C8B5D8B4216530664067506A1
:100F800008F4A0C1C301B201621B730B840B950B63
:100F9000E9892E2F30E040E050E00E941914DA0178
:100FA000C901211531054105510509F48DC1263FBF
:100FB000FFE03F074105510518F0E2E0E98B02C070
:100FC000F1E0F98B863F9F4FA105B10508F09DC167
:100FD00029013A0182E0480E511C611C711CD801A4
:100FE00052964D925D926D927C925597F801C28E09
:100FF000D38EE48EF58E8E899F89A88DB98D8C0D48
:101000009D1DAE1DBF1D868F978FA0A3B1A34A89DA
:101010005B896C897D894C0D5D1D6E1D7F1D46A30E
:1010200057A360A771A7F989F33009F044C02328BA
:1010300009F04CC1F801E35AFF4F208131978081BC
:1010400090E0A0E0B0E0DC0199278827B22B32972E
:101050002081AC01BD01422B31968081282F30E0E8
:10106000922F8827A0E0B0E0842B952BA62BB72BDE
:10107000F80182A393A3A4A3B5A3440C551C661C3A
:10108000771C440C551C661C771CFFEF4F0EFFE0CD
:101090005F1E611C711C032E3CE07694679457948C
:1010A00047943A95D1F7302D84149504A604B704DB
:1010B00008F40EC156C1232809F40CC12A8D3B8DBA
:1010C0004C8D5D8D820F931FA41FB51FF80182A365
:1010D00093A3A4A3B5A3F989F23029F4440C551CB9
:1010E000661C771C6AC1A3E0B0E0A30192010E94D4
:1010F0004414DC01CB01B695A7959795879521E01F
:101100004222552466247724480E591E6A1E7B1EEF
:1011100054C1B701A6014F5F5F4F6F4F7F4FC801AA
:10112000F4DC811196C0D80115961C92F801E35D9C
:10113000FD4F808190E0982F882731972081822B66
:1011400085359A4A09F088C0F80121A980A990E064
:10115000A0E0B0E0DC0199278827B22B26A5AC01DE
:10116000BD01422B27A530E0922F8827A0E0B0E0F8
:10117000842B952BA62BB72B82359245A146B144E3
:1011800009F06DC0F801EB5EFD4F20813197808141
:1011900090E0A0E0B0E0DC0199278827B22B3297DD
:1011A0002081AC01BD01422B3196208130E0922F8D
:1011B0008827A0E0B0E0842B952BA62BB72B823795
:1011C0009247A144B14609F04DC03696208131972F
:1011D000808190E0A0E0B0E0DC0199278827B22B65
:1011E00032972081AC01BD01422B3196208130E045
:1011F000922F8827A0E0B0E0842B952BA62BB72B4D
:10120000F80186879787A08BB18BE35EFD4F208125
:101210003197808190E0A0E0B0E0DC019927882739
:10122000B22B32972081AC01BD01422B3196208137
:1012300030E0922F8827A0E0B0E0842B952BA62BDE
:10124000B72BF80182879387A487B587F3E0F98BE2
:101250000BC0E3E0E98B08C0F3E0F98B05C0E3E0E5
:10126000E98B02C0F3E0F98BE989D801EC93809116
:101270001B0190911C01019690931C0180931B010E
:1012800017969C938E93169780E0ADC08BE0ABC011
:101290008CE0A9C080E0A7C080E0A5C083E0A3C027
:1012A0008AE0A1C081E09FC08DE09DC08DE09BC021
:1012B0008DE099C08DE097C08DE095C08DE093C022
:1012C0008DE091C08DE08FC08DE08DC08DE08BC032
:1012D0008DE089C08DE087C08DE085C040E050E0A2
:1012E000BA01C8014EDC813009F06FCD9E012F5F3D
:1012F0003F4F5901F801E950FE4FA801495C5D4F8D
:10130000812C912C70E060E018CD29013A0162E057
:10131000460E511C611C711CD80152964D925D9273
:101320006D927C925597F801C28ED38EE48EF58E25
:101330008E899F89A88DB98D8C0D9D1DAE1DBF1DF9
:10134000868F978FA0A3B1A38A899B89AC89BD8919
:101350008C0D9D1DAE1DBF1D86A397A3A0A7B1A791
:1013600066CE8FEF9FEFDC01F80186879787A08B11
:10137000B18B82879387A487B58780E88583E15AFC
:10138000FF4F808190E0982F882731972081822B12
:10139000019709F4BECEF3E0F98B66CF8FEF9FEF94
:1013A000DC01F80186879787A08BB18B82879387B2
:1013B000A487B58780E8858357CFFFEF4F0EFFE006
:1013C0005F1E611C711C032E3CE076946794579459
:1013D00047943A95D1F7302D84149504A604B704A8
:1013E00008F47ACFDBCF6D960FB6F894DEBF0FBE50
:1013F000CDBFDF91CF911F910F91FF90EF90DF90C4
:10140000CF90BF90AF909F908F907F906F905F90A4
:101410004F903F902F9008950F931F93CF93DF939A
:10142000EC010ADB982F81115FC08881833009F0BD
:1014300052C08D81813009F04EC0BE01625D7F4F88
:10144000FB01CE01825D9F4E1192E817F907E1F78B
:1014500085E5FE01E45DFD4F80838AEA3196808355
:1014600082E58EA78FA781E688AB91E499AB22E74E
:101470007B972083319620833196908331968083A9
:101480003E852F85988989893196308331962083CE
:1014900031969083319680833A852B859C858D8506
:1014A00031963083319620833196908331968083B4
:1014B0008A8D9B8DAC8DBD8D9C01AD012F5F3F4F03
:1014C0004F4F5F4F2AA73BA74CA75DA701E010E055
:1014D000898141D81D8240E050E060E08981A9D82F
:1014E00091E0811101C090E0892FDF91CF911F9190
:1014F0000F910895CF92DF92EF92FF92FC019A0133
:10150000AB012250310941095109C288D388E488CE
:10151000F58882E0C81AD108E108F1082C153D05CC
:101520004E055F0568F4A281B0E00E944414C6A095
:10153000D7A0E0A4F1A46C0D7D1D8E1D9F1D03C0DE
:1015400060E070E0CB01FF90EF90DF90CF900895C6
:10155000AF92BF92CF92DF92EF92FF920F931F93C1
:10156000CF93DF93EC016A017B01423051056105A5
:10157000710508F4CBC08A899B89AC89BD8948175D
:1015800059076A077B0708F0C6C08881823009F4D2
:101590004DC0833009F473C0813009F0C1C08A01A5
:1015A00016950795040F151FC801892F9927829555
:1015B0008F704E8D5F8D68A179A1480F591F611DF5
:1015C000711DCE01A2DA8111B0C058018FEFA81AA7
:1015D000B80A1F70FE01E00FF11F16A5C501892F83
:1015E000992782958F704E8D5F8D68A179A1480FE4
:1015F000591F611D711DCE0188DA81119AC08FE0DB
:10160000B822CA0DDB1D8EA5612F70E0782BC0FEBD
:1016100009C0729562956F7067277F70672780E0B9
:1016200090E092C07F7080E090E08EC08E8D9F8DA4
:10163000A8A1B9A1032E3BE07695679557954795EC
:101640003A95D1F7302D480F591F6A1F7B1FCE01E5
:101650005CDA811172C0CC0CDD1CEE1CFF1CE8941E
:10166000C0F88FE0D822EE24FF24FE01EC0DFD1D12
:1016700066A587A570E0782B80E090E065C08E8D30
:101680009F8DA8A1B9A1032E3AE07695679557954D
:1016900047953A95D1F7302D480F591F6A1F7B1F88
:1016A000CE0133DA81114DC0CC0CDD1CEE1CFF1CC9
:1016B000CC0CDD1CEE1CFF1C8CEFC8228FE0D82266
:1016C000EE24FF24F601BE96EC0FFD1F22816381FC
:1016D000862F90E0A0E0B0E0B82FAA2799278827AE
:1016E000AC01BD01622B818190E0982F8827A0E09A
:1016F000B0E0842B952BA62BB72BFE01EC0DFD1D26
:1017000026A5822BBC01CD019F701EC061E070E058
:1017100080E090E019C061E070E080E090E014C0EB
:1017200061E070E080E090E00FC06FEF7FEFCB01F1
:101730000BC06FEF7FEFCB0107C06FEF7FEFCB01E7
:1017400003C06FEF7FEFCB01DF91CF911F910F911E
:10175000FF90EF90DF90CF90BF90AF900895AF9241
:10176000BF92CF92DF92EF92FF920F931F93CF938E
:10177000DF93EC018B017D836C83CE80DF80E88476
:10178000F98481E0C816D104E104F10409F489C0A8
:10179000E881F98182899389A489B589C816D90617
:1017A000EA06FB0608F07FC0C114D104E104F1048D
:1017B000C1F48081833041F482A193A1A4A1B5A199
:1017C0000097A105B10559F480859185081719077F
:1017D00008F06BC062A173A184A195A135C06C0112
:1017E0007D01A28080E8A89E500111240A151B05E6
:1017F00030F1B701A60188819981AADE6B017C01D5
:101800008FEFC816D806E806F80609F450C082E043
:10181000C816D104E104F10408F44BC0E881F98151
:1018200082899389A489B589C816D906EA06FB0678
:1018300008F041C00A191B090A151B05D0F6B701AB
:10184000A6018881998156DECA86DB86EC86FD86F4
:10185000611571058105910581F19801220F232FF2
:10186000221F330B3195DC01CB01820F931FA11D89
:10187000B11D8E879F87A88BB98B0F771127000F1B
:10188000111F02951295107F1027007F1027025D0F
:101890001F4F88819981800F911F9B8B8A8B80E0DD
:1018A0000DC082E00BC082E009C082E007C081E089
:1018B00005C082E003C082E001C082E0DF91CF91E9
:1018C0001F910F91FF90EF90DF90CF90BF90AF905E
:1018D00008954F925F926F927F928F929F92AF92F4
:1018E000BF92CF92DF92EF92FF920F931F93CF930D
:1018F000DF93EC016A017B01280139014230510577
:101900006105710508F4E1C08A899B89AC89BD89AC
:10191000481759076A077B0708F0D9C088818230C9
:1019200009F465C0833009F48DC0813009F0D1C05D
:101930005A01B694A794A40EB51EC501892F992704
:1019400082958F704E8D5F8D68A179A1480F591FC8
:10195000611D711DCE01D9D8182F8111D8C0450144
:101960008FEF881A980AAFE0BA22C0FE21C0FE01AC
:10197000EA0DFB1D86A5282F2F70B0E14B9EC001FC
:101980001124822B86A781E08C834E8D5F8D68A108
:1019900079A1C401892F992782958F70480F591F0B
:1019A000611D711DCE01B1D8882309F498C093C080
:1019B000FE01EA0DFB1D46A681E08C834E8D5F8DF6
:1019C00068A179A1C401892F992782958F70480F4A
:1019D000591F611D711DCE0198D8882309F48AC052
:1019E0007CC0EC0FFD1F46A681E08C8390C08E8DDD
:1019F0009F8DA8A1B9A1032E3BE0769567955795D9
:101A000047953A95D1F7302D480F591F6A1F7B1F14
:101A1000CE017BD8182F81117AC0CC0CDD1CEE1CB6
:101A2000FF1CE894C0F83FE0D322EE24FF24FE011F
:101A3000EC0DFD1D46A6FE01EC0DFD1D57A681E037
:101A40008C8365C08E8D9F8DA8A1B9A1032E3AE02D
:101A500076956795579547953A95D1F7302D480F6C
:101A6000591F6A1F7B1FCE0150D8182F81114FC0FC
:101A7000CC0CDD1CEE1CFF1CCC0CDD1CEE1CFF1C7A
:101A80008CEFC8228FE0D822EE24FF24F601BE9608
:101A9000EC0FFD1F838190E0A0E0B0E0B82FAA27F3
:101AA00099278827CC0EDD1E88279927AA27B07F83
:101AB000482A592A6A2A7B2AD6019E964C9251823C
:101AC0006282738281E08C8322C012E020C012E027
:101AD0001EC012E01CC0182F1AC0182F18C0F40125
:101AE000FF70689413F8769467945794479416940B
:101AF000D1F777CFF401FF70DE01AE0FBF1F9E96C6
:101B00009C91907F852D8F70492E482A6ACF812F16
:101B1000DF91CF911F910F91FF90EF90DF90CF90C9
:101B2000BF90AF909F908F907F906F905F904F90FD
:101B300008952F923F924F925F926F927F928F9271
:101B40009F92AF92BF92CF92DF92EF92FF920F934C
:101B50001F93CF93DF93EC012A013B0141155105FF
:101B600061057105B9F48A849B84AC84BD848114B9
:101B70009104A104B10459F18A899B89AC89BD897A
:101B800088169906AA06BB0630F1812C912C5401C7
:101B9000839421C0DDDC6B017C016230710581051D
:101BA000910508F496C08FEFC816D806E806F80627
:101BB00009F494C08A899B89AC89BD89C816D90665
:101BC000EA06FB0608F48FC05301420104C0812CD1
:101BD000912C54018394750164016894222421F8A6
:101BE000312C00E010E02FEFC21AD20AE20AF20A0A
:101BF0008A899B89AC89BD89C816D906EA06FB0685
:101C000058F082E088169104A104B10408F470C071
:101C1000C22CD32CE02EF12EB701A601CE0198DC08
:101C2000611571058105910599F06F3F2FEF7207DE
:101C30008207920709F461C0613071058105910541
:101C400009F460C0C814D904EA04FB0461F65FC05B
:101C50008C2C9D2CAE2CBF2C0FEF1FEF2FEF3FE0F5
:101C6000B701A601CE0135DE81112CC0411451040B
:101C70006104710451F00C2D1D2D2E2D3F2DB3014B
:101C8000A201CE0126DE81111DC08A869B86AC860C
:101C9000BD868E859F85A889B9898F3F2FEF9207D2
:101CA000A207B207C9F10197A109B1098E879F87E1
:101CB000A88BB98B8D8181608D836C2D7D2D8E2DB0
:101CC0009F2D33C0813069F161E070E080E090E0E9
:101CD0002CC061E070E080E090E027C06FEF7FEF04
:101CE0008FEF9FEF22C06C2D7D2D8E2D9F2D1DC05F
:101CF00060E070E080E090E018C06FEF7FEF8FEF62
:101D00009FEF13C061E070E080E090E00EC060E003
:101D100070E080E090E009C06C2D7D2D8E2D9F2D10
:101D200004C06FEF7FEF8FEF9FEFDF91CF911F9197
:101D30000F91FF90EF90DF90CF90BF90AF909F906A
:101D40008F907F906F905F904F903F902F9008956D
:101D50007F928F929F92AF92BF92CF92DF92EF923B
:101D6000FF920F931F93CF93DF93DC011496CD91D5
:101D7000DC911597219609F4FFC01E968D909D90D9
:101D8000AD90BC90519781149104A104B10409F461
:101D9000F5C07B018C016E01E894C7F8DD24C11405
:101DA000D10409F0CDC0BFEF8B1A9B0AAB0ABB0A66
:101DB000FC0186869786A08AB18A42855385648510
:101DC0007585411551056105710551F40190F0814A
:101DD000E02D80859185C817D90708F0D1C0B0C023
:101DE0000190F081E02D228130E021503109CE01B7
:101DF000880F892F881F990B919528233923232B2E
:101E000009F09EC0CF01A4DB4B015C01623071057B
:101E10008105910508F4B6C06F3F7F4F8F4F9F4FEC
:101E200009F4B2C0D801ED91FC9182899389A4890B
:101E3000B58988169906AA06BB0608F470C0EF2873
:101E400009F4A4C0D8011A964D915D916D917C91D1
:101E50001D97CF016EDE4B015C0161157105810597
:101E6000910509F495C0613071058105910509F46A
:101E700091C06F3F7F4F8F4F9F4F09F48DC0D801A6
:101E80008D919C910E941C05811188C0F801808170
:101E90009181FC01BE96825D9F4E1192E817F90771
:101EA000E1F7D801ED90FC90B501A401C70122DB58
:101EB000F70162A773A784A795A7E12CF12C7724DB
:101EC000739419C07482D8018D919C910E941C0555
:101ED000811166C0D801ED91FC9182A593A5A4A5BE
:101EE000B5A50196A11DB11D82A793A7A4A7B5A76B
:101EF000BFEFEB1AFB0AD801ED91FC91828190E0D3
:101F0000E816F906F8F282A593A5A4A5B5A58E1941
:101F10009F09A109B10982A793A7A4A7B5A7F801B2
:101F200082869386A486B586B501A40180819181BD
:101F3000E1DAD8011E966D937D938D939C93519712
:101F4000F801D583C483CC0CDD1CCC0CDD1CCC0C7F
:101F5000DD1CCC0CDD1CCC0CDD1CFEE2CF0ED11C3C
:101F6000D8018D919C911197C80ED91E5396DC9281
:101F7000CE92529780E015C084E013C084E011C077
:101F800084E00FC082E00DC081E00BC084E009C096
:101F900087E007C082E005C081E003C081E001C0A6
:101FA00081E0DF91CF911F910F91FF90EF90DF9033
:101FB000CF90BF90AF909F908F907F9008952F9279
:101FC0003F924F925F926F927F928F929F92AF92C9
:101FD000BF92CF92DF92EF92FF920F931F93CF9316
:101FE000DF93CDB7DEB727970FB6F894DEBF0FBEED
:101FF000CDBF8C017B01DB018C918F3211F08C35D0
:1020000019F4BFEFEB1AFB0AF8011682178210864B
:102010001186D7018C91803240F460E070E0C801F5
:102020009EDBF801138A128A2DC16894BB24B5F88F
:10203000A12C912C6894882483F8512C712C8C82CB
:102040005D820F2EF2E02F2EF1E03F2EF02D1F8348
:102050000E835B82F7012E813F81AF0181918F3228
:10206000E1F38C35D1F33F832E83D90154960D9043
:10207000BC91A02DBA83A983FD01CD010B96B1922D
:10208000E817F907E1F73F832E83DA01CA2CD92C30
:102090002A2D392D482C5B80072DBA01EE80FF8058
:1020A0002F5F3F4F1D91113208F4CBC01F3209F44E
:1020B000D0C01C3509F4CDC01E3209F4B6C0C4141A
:1020C000D50408F0A4C00AC0000F000FCC80DD804A
:1020D0000F2EFBE04F2EF02D512CE2CF11230CF4EC
:1020E00098C0412F50E04232510509F494C0F101EB
:1020F0008191882309F49FC090E048175907C1F7E0
:1021000086E0C0C0026006C08FE9810F8A3110F4FA
:102110000160105289819A818C0D9D1DFC011083F4
:10212000C60101966C01BCCFCD2809F476C0A98107
:10213000BA819C91953E11F4E5E0EC93F8E04F16DE
:10214000510411F4660C660C962D9370913009F4CD
:102150008061962D9C70943009F48860A981BA81C1
:102160001B968C936A2D792D8E819F81F8DA8111CF
:1021700078C00E811F81F801468557856089718975
:10218000808191810E94850581116DC0D801529690
:102190006D917C915397FB0190819923E9F0938590
:1021A00093FD13C054964D915C915597DA019B01B4
:1021B000255F3F4F680104C0E217F30709F45CC0D4
:1021C00011919D911917C1F386016A2D792DC801CE
:1021D000BFDD882381F247C0D8015496ED91FC9170
:1021E0005597938592FD1BC085E04CC0FB0183850C
:1021F00084FF17C0AE81BF818D919C910E94C30462
:10220000EE81FF81668377838087918723CF86E085
:1022100039C086E037C086E035C086E033C084E050
:1022200031C085E02FC086E02DC0F8E04F16510484
:1022300009F44ACFF8CF8FEB810F8A3108F462CFCF
:1022400063CF602EFF82EE827B01E20EF31E84E0FC
:102250006BCF602EFF82EE827B01E20EF31E872D94
:1022600063CF0E811F81D8015496ED91FC91559753
:102270009385843039F4B6CFDF82CE82FA0193851C
:1022800092FFB4CF27960FB6F894DEBF0FBECDBF36
:10229000DF91CF911F910F91FF90EF90DF90CF9042
:1022A000BF90AF909F908F907F906F905F904F9076
:1022B0003F902F9008950F931F93CF938C0160E070
:1022C00070E04DDAC82F811146C0D8011E964D919D
:1022D0005D916D917C9151978D919C910E948505A6
:1022E000C82F811138C0D8015296ED91FC915397B7
:1022F0008081853E51F0882341F061E070E0C801A3
:1023000027DDC82F882309F326C0F80146855785A5
:1023100060897189808191810E948505C82F811112
:102320001DC0D8015296ED91FC915397CF01809634
:102330001192E817F907E1F7F801648975894BE014
:1023400050E0828993890E94B504D801ED91FC91F7
:1023500081E0848303C0C43009F4C7E08C2FCF919F
:102360001F910F9108958F929F92AF92BF92CF923B
:10237000DF92EF92FF920F931F93CF93DF93EC01C5
:102380006A017B01423051056105710508F44CC0BA
:102390008A899B89AC89BD89481759076A077B07D9
:1023A00008F044C035C0B701A601CE01D1D84B0119
:1023B0005C01672B682B692BD9F181E088169104A9
:1023C000A104B104B9F12FEF82169206A206B2065B
:1023D00099F100E010E09801B701A601CE0179DA89
:1023E00081112BC08E859F85A889B9898F3F2FEFDA
:1023F0009207A207B20751F00196A11DB11D8E8769
:102400009F87A88BB98B8D8181608D837501640155
:102410008A899B89AC89BD89C816D906EA06FB065C
:1024200008F4C1CF80E009C082E007C082E005C0A7
:1024300080E003C082E001C081E0DF91CF911F9175
:102440000F91FF90EF90DF90CF90BF90AF909F9053
:102450008F9008951F93CF93DF9300D000D000D0CA
:10246000CDB7DEB79C838B837E836D83142F7A83F5
:102470006983CE0101960E94E504992334F1FC01A1
:10248000EE0FFF1FE35EFE4F0190F081E02D3097CD
:1024900009F01082EB81FC813097E9F010822B81EA
:1024A0003C81880F991FFC01E35EFE4F318320833E
:1024B000232B69F0113069F440E0BE016B5F7F4F60
:1024C000CE0103960E944D060EC08BE00CC080E04A
:1024D0000AC080E008C0880F991FFC01E35EFE4F30
:1024E0001182108280E026960FB6F894DEBF0FBEF0
:1024F000CDBFDF91CF911F9108953F924F925F9290
:102500006F927F928F929F92AF92BF92CF92DF9203
:10251000EF92FF920F931F93CF93DF93CDB7DEB768
:10252000A4970FB6F894DEBF0FBECDBF7CA36BA3FC
:10253000009709F4CDC0D42E8C01FC0111821082C9
:102540004E71BE016D5D7F4FCE0101960E944D061A
:102550008111E8C0FD2DFF713F2ECE0147969E8B65
:102560008D8B6BA17CA146972ADDEB88FC888111BD
:10257000B1C0E114F10409F0B7C0B1C0843009F072
:10258000C3C0CE01019697DE232D2860322EEB8842
:10259000FC88882341F0B0C0F7018385817109F080
:1025A000BEC0D2FCBEC033FEABC0F7011686178694
:1025B00091E2908B86E4818B168A178A908F818FA7
:1025C0001386148E158E168E178EC980DA80B70189
:1025D000C6010E94C3042B013C01F701128E138E29
:1025E000148A158A81E0F601848341145104610440
:1025F000710409F485C082A493A4A4A4B5A4B30172
:10260000A201C601B0DE811177C089819A81F1E013
:102610004F1A510861087108FC014286538664868E
:102620007586B501A4010E948505882331F07AC022
:10263000D1FE66C080FD5DC063C0F32DF0623F2E09
:10264000E981FA8182A593A5A4A5B5A5F801828F99
:10265000938FA48FB58FF78EE68EF80134821582A2
:10266000C980DA80B701C6010E94C304F8016687F9
:102670007787808B918BF701278D868D90E0A0E086
:10268000B0E0DC0199278827B22B248D822B458D61
:1026900050E0542F442760E070E0842B952BA62B4C
:1026A000B72BF80182879387A487B5871682178294
:1026B00010861186168A178A108E118ED182C082DA
:1026C000F60186819781F8019383828380E02AC096
:1026D00089E028C04D2D4C7109F050CF0DC04D2D13
:1026E0004C7189F486E008C08D2D8C7109F054CFAF
:1026F00011C087E001C084E0882309F4AECF12C086
:1027000033FC9BCF9DCF86E0F32DF8603F2EEB8806
:10271000FC88F2CFF701838584FDEDCF89CF87E078
:1027200001C088E0A4960FB6F894DEBF0FBECDBFFF
:10273000DF91CF911F910F91FF90EF90DF90CF909D
:10274000BF90AF909F908F907F906F905F904F90D1
:102750003F900895CF93DF93EC010E9429068111E9
:1027600038C09C8195FF35C04A8D5B8D6C8D7D8D09
:10277000888199810E94850581112BC0EE8DFF8D86
:102780008385806283878A85848F8B85858F8C85FE
:10279000868F8D85878F8E859F85A889B989828F41
:1027A000938FCD01AA27BB27848B958B168A178A16
:1027B00081E2808F86E4818F128A138A8C818F7DDB
:1027C0008C83E881F98181E08483888199810E94EA
:1027D0000C0ADF91CF910895CF93DF93EC01BADF1C
:1027E000811107C0CE010E942906811102C0198201
:1027F0001882DF91CF910895CF93DF93CDB7DEB7E5
:10280000A0970FB6F894DEBF0FBECDBF80E00E9448
:102810008D0140E067E171E08FE191E01BDE42E075
:1028200060E171E0CE01019668DECE010196D4DF51
:10283000FFCFA1E21A2EAA1BBB1BFD010DC0AA1FD0
:10284000BB1FEE1FFF1FA217B307E407F50720F019
:10285000A21BB30BE40BF50B661F771F881F991F94
:102860001A9469F760957095809590959B01AC01DD
:10287000BD01CF010895EE0FFF1F0024001C0BBE09
:102880000790F691E02D099409D0A59F900DB49F73
:10289000900DA49F800D911D11240895A29FB00159
:1028A000B39FC001A39F700D811D1124911DB29F84
:1028B000700D811D1124911D08952F923F924F920A
:1028C0005F926F927F928F929F92AF92BF92CF92C0
:1028D000DF92EF92FF920F931F93CF93DF93CDB7C9
:1028E000DEB72C970FB6F894DEBF0FBECDBF7C01CC
:1028F0006B018A01FC0117821682838181FFB0C1BE
:10290000CE0101964C01F7019381F60193FD85916B
:1029100093FF81916F01882309F49EC1853239F4B8
:1029200093FD859193FF81916F01853221F4B70169
:1029300090E0C7D1E8CF512C312C20E02032A0F418
:102940008B3269F030F4803259F0833269F42061BF
:102950002CC08D3239F0803339F4216026C02260DA
:10296000246023C0286021C027FD27C030ED380F28
:102970003A3078F426FF06C0FAE05F9E300D11244D
:10298000532E13C08AE0389E300D1124332E20625E
:102990000CC08E3221F426FD5FC1206406C08C3647
:1029A00011F4206802C0883641F4F60193FD859148
:1029B00093FF81916F018111C1CF982F9F7D955415
:1029C000933028F40C5F1F4FFFE3F9830DC083366B
:1029D00031F0833771F0833509F057C021C0F80119
:1029E000808189830E5F1F4F44244394512C5401EE
:1029F00014C03801F2E06F0E711CF801A080B180A4
:102A000026FF03C0652D70E002C06FEF7FEFC501A8
:102A10002C874CD12C0183012C852F77222E16C0B8
:102A20003801F2E06F0E711CF801A080B18026FF22
:102A300003C0652D70E002C06FEF7FEFC5012C87EA
:102A40002AD12C012C852068222E830123FC19C059
:102A5000832D90E048165906A0F4B70180E290E07B
:102A600030D13A94F5CFF50127FC859127FE81916D
:102A70005F01B70190E025D131103A94F1E04F1A8F
:102A800051084114510479F7DEC0843611F08936BB
:102A900031F5F80127FF07C0608171818281938140
:102AA0000C5F1F4F08C060817181072E000C880BDE
:102AB000990B0E5F1F4F2F76722E97FF09C09095CE
:102AC0008095709561957F4F8F4F9F4F2068722E34
:102AD0002AE030E0A4012DD1A82EA81843C08537E4
:102AE00029F42F7EB22E2AE030E025C0F22FF97FA4
:102AF000BF2E8F36C1F018F4883579F0ADC080371D
:102B000019F0883721F0A8C02F2F2061B22EB4FE13
:102B10000DC08B2D8460B82E09C024FF0AC09F2FE2
:102B20009660B92E06C028E030E005C020E130E014
:102B300002C020E132E0F801B7FE07C06081718178
:102B4000828193810C5F1F4F06C06081718180E09C
:102B500090E00E5F1F4FA401ECD0A82EA818FB2D0B
:102B6000FF777F2E76FE0BC0372D3E7FA51450F4E5
:102B700074FE0AC072FC08C0372D3E7E05C0BA2C18
:102B8000372D03C0BA2C01C0B52C34FF0DC0FE0197
:102B9000EA0DF11D8081803311F4397E09C032FFC6
:102BA00006C0B394B39404C0832F867809F0B3941D
:102BB00033FD12C030FF06C05A2CB31418F4530C66
:102BC0005B18B32CB31460F4B70180E290E03C874B
:102BD00078D0B3943C85F6CFB31410F43B1801C001
:102BE000312C34FF11C0B70180E390E03C8769D0FD
:102BF0003C8532FF16C031FD03C088E790E002C07B
:102C000088E590E0B7010CC0832F867851F031FF42
:102C100002C08BE201C080E237FD8DE2B70190E097
:102C200050D0A51430F4B70180E390E04AD05A9414
:102C3000F8CFAA94F401EA0DF11D8081B70190E06C
:102C400040D0A110F6CF332009F45DCEB70180E269
:102C500090E037D03A94F7CFF7018681978102C090
:102C60008FEF9FEF2C960FB6F894DEBF0FBECDBF4F
:102C7000DF91CF911F910F91FF90EF90DF90CF9058
:102C8000BF90AF909F908F907F906F905F904F908C
:102C90003F902F900895FC01059061507040011005
:102CA000D8F7809590958E0F9F1F0895FC01615075
:102CB000704001900110D8F7809590958E0F9F1F5E
:102CC00008950F931F93CF93DF93FB01238121FD81
:102CD00003C08FEF9FEF28C022FF16C046815781A7
:102CE000248135814217530744F4A081B1819D01AD
:102CF0002F5F3F4F318320838C93268137812F5F55
:102D00003F4F3783268310C0EB01092F182F008413
:102D1000F185E02D0995892BE1F68E819F81019641
:102D20009F838E83812F902FDF91CF911F910F91E1
:102D30000895FA01AA27283051F1203181F1E89451
:102D40006F936E7F6E5F7F4F8F4F9F4FAF4FB1E09E
:102D50003ED0B4E03CD0670F781F891F9A1FA11D99
:102D6000680F791F8A1F911DA11D6A0F711D811D9A
:102D7000911DA11D20D009F468943F912AE0269F5F
:102D800011243019305D3193DEF6CF010895462FBE
:102D90004770405D4193B3E00FD0C9F7F6CF462F9F
:102DA0004F70405D4A3318F0495D31FD4052419308
:102DB00002D0A9F7EACFB4E0A695979587957795C5
:102DC0006795BA95C9F700976105710508959B014C
:102DD000AC010A2E06945795479537952795BA95D5
:102DE000C9F7620F731F841F951FA01D0895F894E3
:022DF000FFCF13
:102DF20001222A2B2C3A3B3C3D3E3F5B5D7C7F000F
:082E0200666F6F2E74787400F6
:00000001FF
