:10000000A3C20000CBC20000C9C20000C7C20000EA
:10001000C5C20000C3C20000C1C20000BFC20000D0
:10002000BDC20000BBC20000B9C200000C94341A6B
:10003000B5C200000C94501AB1C20000AFC200005B
:10004000ADC20000ABC20000A9C20000A7C2000000
:10005000A5C20000A3C20000A1C200009FC2000010
:100060009DC200009BC2000099C2000097C2000020
:1000700095C2000093C2000091C200008FC2000030
:100080008DC200008BC2000089C20000B117D717D3
:10009000FE1726184D187718A018CA1841196B19A1
:1000A0003A1F421F501F561F5D1F631F711F0520FF
:1000B0000B20112017201D20232029202F20084A43
:1000C000D73B3BCE016E84BCBFFDC12F3D6C74316C
:1000D0009ABD56833DDA3D00C77F11BED9E4BB4CC3
:1000E0003E916BAAAABE000000803F05A84CCDB28D
:1000F000D44EB93836A9020C50B9918688083CA66E
:10010000AAAA2ABE000000803F0664EC1B3C04BC87
:10011000163E3BE5B93CC93C37C29E5A3D66049841
:10012000083EEA69AAAA3E000000803F00E0F8FC11
:10013000FE1E070707071EFEFCF8F00000070F3F32
:100140003F7C707070707C3F1F1F0700000000062E
:100150000707FFFFFFFF0000000000000000000095
:1001600000007F7F7F7F00000000000000383C3EE1
:100170003E0F070707CFFFFEFE380000004040603B
:1001800070787C7E7F7773717070000000181C1E81
:100190001E0FC7C7E7FFFEBE9C000000000C1C3C02
:1001A0003C78707070797F3F1F0F0000000080C0A6
:1001B000E070381C1EFFFFFFFF0000000607070766
:1001C00006060606067F7F7F7F0606000000000009
:1001D000F0FFFFFFE7E7E7E7C78700000000387898
:1001E000717070707070393F3F1F0F000080E0F039
:1001F000F8FC7F7F6F67E1E1C0800000000F1F3FC8
:100200003F7870707070783F3F1F0F00000707073E
:100210000707C7E7F7FF7F3F1F0703010020387C70
:100220007E3F0F0703000000000000000000001CDC
:10023000BEFEFFE7C3C3E7FFFEBE1C0000000E3F8B
:100240003F7F71606060717F3F3F0F000078FCFE70
:10025000FE8F070707078FFEFEFCF8000000000175
:100260004343737B7F7F1F0F0703000000005F0085
:10027000000007000700147F147F14242A7F2A122D
:10028000231308646236495522500005030000001C
:100290001C2241000041221C0014083E08140808DA
:1002A0003E08080050300000080808080800606098
:1002B000000020100804023E5149453E00427F40A4
:1002C0000042615149462141454B311814127F10BB
:1002D00027454545393C4A494930017109050336EE
:1002E00049494936064949291E003636000000565C
:1002F0003600000814224100141414141400412282
:1003000014080201510906324979413E7E1111114A
:100310007E7F494949363E414141227F4141221C6D
:100320007F494949417F090909013E4149497A7F8D
:100330000808087F00417F41002040413F017F08BD
:100340001422417F404040407F020C027F7F04081E
:10035000107F3E4141413E7F090909063E4151213E
:100360005E7F09192946464949493101017F01014A
:100370003F4040403F1F2040201F3F4038403F63E8
:100380001408146307087008076151494543007F4A
:1003900041410002040810200041417F0004020195
:1003A00002044040404040000102040020545454E4
:1003B000787F484444383844444420384444487F93
:1003C0003854545418087E0901020C5252523E7F90
:1003D0000804047800447D40002040443D007F1024
:1003E00028440000417F40007C041804787C080405
:1003F000047838444444387C14141408081414183D
:100400007C7C080404084854545420043F44402091
:100410003C4040207C1C2040201C3C4030403C4460
:10042000281028440C5050503C4464544C4400085C
:1004300036410000007F0000004136080010080827
:1004400010086E616E00696E660000407A10F35A03
:1004500000A0724E18090010A5D4E80000E8764804
:10046000170000E40B54020000CA9A3B000000E1B0
:10047000F505000080969800000040420F00000043
:10048000A08601000000102700000000E803000023
:1004900000006400000000000A00000000000100ED
:1004A000000000002C76D888DC674F0823DFC1DF0E
:1004B000AE59E1B1B796E5E3E453C63AE651997611
:1004C00096E8E6C28426EB898C9B62ED407C6FFC4B
:1004D000EFBC9C9F40F2BAA56FA5F490055A2AF78D
:1004E0005C936B6CF9676DC11BFCE0E40D47FEF596
:1004F00020E6B500D0ED902E0300943577050080FE
:10050000841E080000204E0A000000C80C3333335C
:10051000330F986E12831141EF8D2114893BE655FC
:1005200016CFFEE6DB18D1844B381BF77C1D901DDF
:10053000A4BBE424203284725E228100C9F124EC41
:10054000A1E53D274523772311241FBECFEFD0E43B
:10055000DEBFCDBF13E0A0E0B1E0EEEAF3E700E0DC
:100560000BBF02C007900D92AC32B107D9F720E162
:10057000ACE2B3E001C01D92AD37B207E1F712E083
:10058000C3EAD2E004C02197FE010E94F437C23AC8
:10059000D107C9F70E943C230C94CB3931CD9C5F25
:1005A0000C9486260895FC019C5F1192E817F907C8
:1005B000E1F708951F93CF93DF93162FEC01DC5FD3
:1005C000CE010E94872668E7CE010E948F2660E058
:1005D000CE010E948F26612FCE010E948F26CE0170
:1005E0000E948B26DF91CF911F910895CF93DF93C7
:1005F000EC016EEADFDF65EDCE01DCDF60E8CE0105
:10060000D9DF68EACE01D6DF6FE3CE01D3DF63ED39
:10061000CE01D0DF60E0CE01CDDF60E4CE01CADFE5
:100620006DE8CE01C7DF64E1CE01C4DF60E2CE0138
:10063000C1DF60E0CE01BEDF61EACE01BBDF68EC66
:10064000CE01B8DF6AEDCE01B5DF62E1CE01B2DFE7
:1006500061E8CE01AFDF6FECCE01ACDF69EDCE011A
:10066000A9DF61EFCE01A6DF6BEDCE01A3DF60E471
:10067000CE01A0DF64EACE019DDF66EACE019ADFFB
:100680006FEACE0197DFDF91CF910895CF93DF938B
:10069000EC019C5F0E948226CE01A8DFDF91CF9102
:1006A0000895662319F067EA85CF089566EA82CF38
:1006B0000895EF92FF920F931F93CF93DF93EC0176
:1006C00061E278DF60E0CE0175DF6FE7CE0172DFB7
:1006D00062E2CE016FDF60E0CE016CDF67E0CE0149
:1006E00069DF8E011C5FC8010E94872668E7C80188
:1006F0000E948F2660E4C8010E948F2678016991CC
:10070000C8010E948F26CE15DF05C9F7C8010E94D7
:100710008B26DF91CF911F910F91FF90EF9008955D
:100720006623ACF1403498F5211119C0242F269589
:100730002695269550E8259F90011124260F311DFE
:10074000FC01E20FF31F477081E090E002C0880FC8
:10075000991F4A95E2F79081892B80830895242F71
:1007600026952695269530E8239FF0011124E60F63
:10077000F11DE80FF91F477081E090E002C0880F7B
:10078000991F4A95E2F78095908189238083089587
:10079000FF920F931F93CF93DF93222369F0C42F0F
:1007A000F62E8C01D22FD40F20E04C2F6F2DC801D4
:1007B000B7DFCF5FCD13F8CFDF91CF911F910F91AE
:1007C000FF900895FF920F931F93CF93DF932223FF
:1007D00069F0F42EC62F8C01D22FD60F20E04F2DBA
:1007E0006C2FC8019DDFCF5FCD13F8CFDF91CF9184
:1007F0001F910F91FF9008955F926F927F928F9259
:100800009F92AF92BF92CF92DF92EF92FF920F939F
:100810001F93CF93DF936C01762E842EC22FA22ECE
:10082000A61AA394D02FD41BEE2029F0B12C1A14B1
:100830001B0424F12EC02A2DC5DF2A2D402F672D41
:10084000C601C0DF2D2F482D672DC601A1DF2D2F3A
:10085000482D6C2FC6019CDF1CC04C2F480D20E09A
:10086000692DC6015DDF21960C171D07B4F78FEFC8
:10087000E81AF80AEA14FB043CF00BC0E12CF12C56
:100880000D2F10E0512C612CC52DD62D972C9E0CD0
:10089000E4CFDF91CF911F910F91FF90EF90DF9008
:1008A000CF90BF90AF909F908F907F906F905F9010
:1008B00008953F924F925F926F927F928F929F9294
:1008C000AF92BF92CF92DF92EF92FF920F931F935E
:1008D000CF93DF93CDB7DEB72C970FB6F894DEBF7A
:1008E0000FBECDBF222309F470C047015801022F6B
:1008F000442EF62E9A878987C501B4010E9478316B
:1009000069837A838B839C83C501B4010E949233EF
:100910006D837E838F839887015010E00F5F1F4F98
:10092000C12CD12C512C612C712C8F2C912CA12CF1
:10093000B12CDC86CB862B853C85B901330F880B27
:10094000990B0E9416322D813E814F8158850E945D
:100950002F336B017C01C301B2010E9416329B014F
:10096000AC01C701B6010E94AE300E94E831362EBC
:100970006B857C85719561957109072E000C880B3C
:10098000990B0E94163229813A814B815C810E9429
:100990002F336B017C01C501B4010E9416329B010B
:1009A000AC01C701B6010E94AE300E94E83120E0E0
:1009B000432D89859A85B4DE8B859C8501969C871D
:1009C0008B878017910709F0B6CF2C960FB6F89455
:1009D000DEBF0FBECDBFDF91CF911F910F91FF9072
:1009E000EF90DF90CF90BF90AF909F908F907F90CF
:1009F0006F905F904F903F9008952F923F924F924B
:100A00005F926F927F928F929F92AF92BF92CF929E
:100A1000DF92EF92FF920F931F93CF93DF93CDB7A7
:100A2000DEB72F970FB6F894DEBF0FBECDBF9E8303
:100A30008D836F87342E722EE982FA820B831C839A
:100A4000C601B50125E33AEF4EE85CE30E942F337F
:100A50004B015C0125E33AEF4EE85CE3C801B701C6
:100A60000E942F3369837A838B839C83672C6694DF
:100A700085017401262D432D6F858D819E8119DF9F
:100A80002BED3FE049E450E4C501B4010E94AD30D4
:100A90007B018C01262D432D6F858D819E8109DF81
:100AA00069817A818B819C810E94DD336B017C019D
:100AB000662D70E080E090E00E941632A70196015A
:100AC0000E942F330E94E8316B872BED3FE049EC09
:100AD0005FE3C501B4010E94AD306F8378878987D9
:100AE0009A877B018C012B85432D6F858D819E819B
:100AF000E0DE69817A818B819C810E9478316B0173
:100B00007C01672D70E080E090E00E9416322B019E
:100B10003C01A7019601C701B6010E94AE309B01BE
:100B2000AC01C301B2010E947B310E94E831262E44
:100B30002B85622F70E080E090E00E9416326B8778
:100B40007C878D879E876F81788589859A850E94AD
:100B500078316B017C01EF856E2F70E080E090E0D2
:100B60000E9416322B013C01A70196016B857C8502
:100B70008D859E850E942F339B01AC01C301B2017C
:100B80000E94AD300E94E8316F876F81788589853A
:100B90009A850E9492332B013C01632D70E080E026
:100BA00090E00E9416326B017C01A30192016B85DB
:100BB0007C858D859E850E942F339B01AC01C701EA
:100BC000B6010E94AE300E94E831D62EA5019401F4
:100BD00069817A818B819C810E94AE307B018C017E
:100BE000222D4D2D6F858D819E8163DE29813A8175
:100BF0004B815C81C501B4010E94AD302BED3FE01B
:100C000049E450E40E94AD307B018C01222D4D2D32
:100C10006F858D819E814DDE2F960FB6F894DEBFD5
:100C20000FBECDBFDF91CF911F910F91FF90EF903D
:100C3000DF90CF90BF90AF909F908F907F906F90FC
:100C40005F904F903F902F9008950F931F93CF93F5
:100C5000DF93613208F43EC0A42FB0E0022F069566
:100C60000695069530E8039F80011124615270E0DB
:100C7000FB01EE0FFF1FEE0FFF1FE60FF71FE459FA
:100C8000FD4FAD01400F511FEC01C40FD51F00589F
:100C90001F4FA00FB11FA80FB91F4B5F5F4F480F29
:100CA000591F2770649170E0022E02C0660F771FF3
:100CB0000A94E2F79881962B9993672F772761150D
:100CC000710519F08C91682B6C9331961196C417AD
:100CD000D50741F7DF91CF911F910F910895CF92E2
:100CE000DF92EF92FF920F931F93CF93DF936A30BF
:100CF00008F066C050E0022F06950695069510E0B4
:100D0000D801B695BA2FAA27B795A7950F5F1F4FA1
:100D10001695102F0027179507957D0130E8E30EF3
:100D2000F11CE40EF51EE80EF91EEA01C00FD11FFA
:100D30006097C80FD91F040F151F00591F4F080FC8
:100D4000191FA40FB51FA80FB91F80E2689FB0013B
:100D5000112440E050E02770FA01E60FF71FE45D30
:100D6000FE4FE491F0E0022E02C0EE0FFF1F0A9446
:100D7000E2F7403168F48C918E2B8C93CF2EDD24DA
:100D8000C114D10489F0F70180818C2980830CC0C3
:100D900088818E2B8883CF2EDD24C114D10421F0CD
:100DA000F80180818C2980834F5F5F4FFFEFEF1A3E
:100DB000FF0A21960F5F1F4F11964032510561F6D1
:100DC000DF91CF911F910F91FF90EF90DF90CF9027
:100DD00008952F923F924F925F926F927F928F92DF
:100DE0009F92AF92BF92CF92DF92EF92FF920F93BA
:100DF0001F93CF93DF93CDB7DEB727970FB6F89445
:100E0000DEBF0FBECDBF9F838E836D83342E002344
:100E100009F426C1622F70E080E090E00E94163253
:100E200020E030E040EC50E40E942F332BED3FE017
:100E300049E450E40E942F3320E030E044E353E4DF
:100E40000E947B312BED3FE049EC5FE30E94AD3027
:100E50006B017C010E9478314B015C01C701B60136
:100E60000E9492332B013C0100E010E0B801012EFA
:100E7000000C880B990B0E9416326B017C01A301B8
:100E800092010E942F3320E030E048EF51E40E94AD
:100E9000AE300E94E831262EA5019401C701B601AB
:100EA0000E942F3320E030E048EF51E40E94AE3042
:100EB0000E94E83120E0422D8E819F8131DC0F5F5E
:100EC0001F4F0931110591F6632D70E080E090E02D
:100ED0000E94163269837A838B839C8320E030E002
:100EE00040EC50E40E942F332BED3FE049E450E406
:100EF0000E942F3320E030E044E353E40E947B3132
:100F00002BED3FE049EC5FE30E94AD306B017C01CB
:100F10000E9478312B013C01C701B6010E94923337
:100F20004B015C0100E010E0B801012E000C880BC1
:100F3000990B0E9416326B017C01A50194010E945D
:100F40002F3320E030E048EF51E40E94AE300E94A1
:100F5000E831362EA3019201C701B6010E942F335A
:100F600020E030E048EF51E40E94AE300E94E831CA
:100F700020E0432D8E819F81D3DB0F5F1F4F053112
:100F8000110591F62D81622F70E080E090E00E94C3
:100F9000163220E030E040EF51E40E942F336B0125
:100FA0007C0120E030E040E05FE369817A818B8161
:100FB0009C810E942F339B01AC01C701B6010E94A6
:100FC000AE302BED3FE049E450E40E942F3320E0A7
:100FD00030E044E353E40E947B312BED3FE049ECE9
:100FE0005FE30E94AD306B017C010E9478314B01C0
:100FF0005C01C701B6010E9492332B013C0100E065
:1010000010E0B801012E000C880B990B0E941632DB
:101010006B017C01A30192010E942F3320E030E09C
:1010200048EF51E40E94AE300E94E831362EA5010F
:101030009401C701B6010E942F3320E030E048EF51
:1010400051E40E94AE300E94E83120E0432D8E81B1
:101050009F8166DB0F5F1F4F0D30110591F6CBC0EE
:10106000642F70E080E090E00E94163269837A83FA
:101070008B839C8320E030E040EC50E40E942F33CF
:101080002BED3FE049E450E40E942F3320E030E0B4
:1010900044E353E40E947B312BED3FE049EC5FE3F6
:1010A0000E94AD306B017C010E9478312B013C0124
:1010B000C701B6010E9492334B015C0100E010E0D1
:1010C000B801012E000C880B990B0E9416326B019F
:1010D0007C01A50194010E942F3320E030E048EF0D
:1010E00051E40E94AE300E94E831362EA3019201F5
:1010F000C701B6010E942F3320E030E048EF51E4F1
:101100000E94AE300E94E83120E0432D8E819F8105
:1011100007DB0F5F1F4F0931110591F6ED816E2F2F
:1011200070E080E090E00E94163220E030E040EF76
:1011300051E40E942F336B017C0120E030E040E05D
:101140005FE369817A818B819C810E942F339B01AF
:10115000AC01C701B6010E94AE302BED3FE049E47F
:1011600050E40E942F3320E030E044E353E40E9437
:101170007B312BED3FE049EC5FE30E94AD306B012A
:101180007C010E9478314B015C01C701B6010E94CD
:1011900092332B013C0100E010E0B801012E000C5D
:1011A000880B990B0E9416326B017C01A3019201FE
:1011B0000E942F3320E030E048EF51E40E94AE302F
:1011C0000E94E831362EA5019401C701B6010E94A4
:1011D0002F3320E030E048EF51E40E94AE300E940F
:1011E000E83120E0432D8E819F819ADA0F5F1F4FF7
:1011F0000131110591F620E04AE161E38E819F8182
:1012000024DD20E040E262E38E819F811EDD2CE13F
:101210004AE363E38E819F8118DD28E34DE166E3B5
:101220008E819F8112DD2CE140E069E38E819F81F8
:101230000CDD20E048E06CE28E819F8171DA20E0D5
:1012400042E165E38E819F816BDA20E04CE265E349
:101250008E819F8165DA20E045E36BE28E819F817C
:101260005FDA20E045E361E18E819F8159DA20E079
:101270004CE268E08E819F8153DA20E041E168E032
:101280008E819F814DDA20E048E062E18E819F816E
:1012900047DA27960FB6F894DEBF0FBECDBFDF91B9
:1012A000CF911F910F91FF90EF90DF90CF90BF9063
:1012B000AF909F908F907F906F905F904F903F90F6
:1012C0002F900895ECE7F0E090818F71907E892B4C
:1012D0008083EAE7F0E0808180648083808186FDFE
:1012E000FDCF80917800909179000895CF92DF92A0
:1012F000EF92FF9280E0E6DFBC0180E090E00E9488
:10130000143220E030EC4FE754E40E947B312CE5AE
:101310003FE842E550E40E942F332DE031E740E002
:1013200050E40E942F3360934103709342038093F3
:1013300043039093440326E636E646E650E40E94D3
:10134000AD3028E939E949E15FE30E947B3120E0D3
:1013500030E048EC52E40E942F336B017C0120E026
:1013600030E040E251E40E942F330E94E8318DECDE
:10137000689F812D1124869586958695880F282F44
:10138000220F220F820F962F981B953070F0C70105
:10139000B6010E94E83170E06F5F7F4F072E000CAE
:1013A000880B990B0E94163209C0C701B6010E9432
:1013B000E83170E080E090E00E9414320E94E33156
:1013C000862FFF90EF90DF90CF900895F894F999D1
:1013D000FECF92BD81BD60BDFA9AF99A78940895C6
:1013E000F894F999FECF92BD81BDF89A789480B5B2
:1013F0000895CF92DF92FF920F931F93CF93DF93C5
:10140000CDB7DEB764970FB6F894DEBF0FBECDBF81
:1014100084E49CE0C8D88FE0E0E0F1E0DE011196C2
:1014200001900D928A95E1F78E010F5F1F4F6801C1
:10143000F12CF60161916F0120E04F2D84E49CE0D6
:1014400004DCF6E0FF0E24E5F212F3CF8FE0EFE0CC
:10145000F1E0DE01119601900D928A95E1F76801A5
:10146000F12CF60161916F0128E04F2D84E49CE09E
:10147000ECDBF6E0FF0E24E5F212F3CF80E48F936D
:1014800086E08F9386E68F938F938EE191E09F9312
:101490008F93CE0101969F938F930E943E390FB692
:1014A000F894DEBF0FBECDBF8823A9F081509E0106
:1014B000280F311DF90132966F01F12CF80161916D
:1014C0008F0120E24F2D84E49CE0BFDBF6E0FF0EAD
:1014D0000C151D0599F784E49CE0EBD884E49CE0AE
:1014E00062D885E02FE738E391E02150304090400A
:1014F000E1F700C00000EFE7F8E321E0E150F04041
:101500002040E1F700C00000815061F764960FB6FB
:10151000F894DEBF0FBECDBFDF91CF911F910F9129
:10152000FF90DF90CF900895EF92FF920F931F935B
:10153000CF93DF93CDB7DEB764970FB6F894DEBFD5
:101540000FBECDBF813009F44DC020F0823009F4C8
:101550007FC0B2C00F2EF5E4EF2EF0E1FF2EF02D8C
:1015600010E0F70161917F0120E0412F84E49CE0CD
:101570006CDB1A5F1033A9F7B9DE282F082E000C98
:10158000330B3F938F938CE291E09F938F93CE0127
:1015900001969F938F930E943E3915E1181B0F907F
:1015A0000F900F900F900F900F90153108F084C09E
:1015B000012F000F010F000F7C01FF24E1E0F0E09C
:1015C000EC0FFD1FE10FF11DEE0DFF1D759720E0E3
:1015D000402F608184E49CE038DB1F5F0A5F153197
:1015E00069F76AC083DE282F082E000C330B3F9367
:1015F0008F938CE291E09F938F93CE0101969F93FE
:101600008F930E943E3915E1181B0F900F900F9099
:101610000F900F900F90153108F04EC0012F000F62
:10162000010F000F7C01FF24E1E0F0E0EC0FFD1F53
:10163000E10FF11DEE0DFF1D759720E0402F608139
:1016400084E49CE002DB1F5F0A5F153169F734C058
:101650004DDE282F082E000C330B3F938F9381E330
:1016600091E09F938F93CE0101969F938F930E9459
:101670003E3915E1181B0F900F900F900F900F90AF
:101680000F901531C8F4012F000F010F000F7C01DE
:10169000FF24E1E0F0E0EC0FFD1FE10FF11DEE0D86
:1016A000FF1D759720E0402F608184E49CE0CDDA37
:1016B0001F5F0A5F153169F764960FB6F894DEBFB5
:1016C0000FBECDBFDF91CF911F910F91FF90EF9093
:1016D00008950F931F93CF93882319F0813081F0E1
:1016E0001DC00DE410E1C0E5F80161918F0128E310
:1016F0004C2F84E49CE0A9DACA5FC038A9F70EC079
:101700000DE410E1C5E0F80161918F0128E34C2F51
:1017100084E49CE09ADACA5FC533A9F7CF911F91A0
:101720000F910895CF92DF92EF92FF92CF93DF93C4
:101730006B017C01D42FC22F20E030E040EB51E45C
:101740000E947431882354F020E030E049EA53E4E9
:10175000C701B6010E942433882354F02C2F220F96
:10176000220F220F4D2F6EE484E49CE06EDAABC0B2
:1017700020E030E048E852E4C701B6010E9474312D
:10178000882394F4CC0FCC0FCC0F4DEF4D0F2C2FA2
:101790006EE484E49CE059DA43E04D0F2C2F6FE4B3
:1017A00084E49CE052DA8FC020E030E042EE52E464
:1017B000C701B6010E947431882354F42C2F220FE4
:1017C000220F220F4D2F6FE484E49CE03EDA7BC0B1
:1017D00020E030E04EE153E4C701B6010E947431CD
:1017E000882394F4CC0FCC0FCC0F4DEF4D0F2C2F42
:1017F00063E584E49CE029DA43E04D0F2C2F6FE48D
:1018000084E49CE022DA5FC020E030E04BE453E463
:10181000C701B6010E947431882354F42C2F220F83
:10182000220F220F4D2F63E584E49CE00EDA4BC0BB
:1018300020E030E048E753E4C701B6010E9474316C
:10184000882394F4CC0FCC0FCC0F4DEF4D0F2C2FE1
:1018500063E584E49CE0F9D943E04D0F2C2F67E564
:1018600084E49CE0F2D92FC020E030E842E953E460
:10187000C701B6010E947431882354F42C2F220F23
:10188000220F220F4D2F67E584E49CE0DED91BC0B8
:1018900020E030E049EA53E4C701B6010E94743108
:1018A00088238CF4CC0FCC0FCC0F4DEF4D0F2C2F89
:1018B0006EE484E49CE0C9D943E04D0F2C2F67E52A
:1018C00084E49CE0C2D9DF91CF91FF90EF90DF904C
:1018D000CF900895AF92BF92CF92DF92EF92FF9296
:1018E0000F931F9359016A01E12CF12C0CE812E4CB
:1018F00024E1462F682F84E49CE07FD81F910F914C
:10190000FF90EF90DF90CF90BF90AF900895AF928F
:10191000BF92CF92DF92EF92FF920F931F935901E4
:101920006A01E12CF12C0CE812E42AE0462F682F22
:1019300084E49CE062D81F910F91FF90EF90DF90BC
:10194000CF90BF90AF900895E5E4F3E0A4E4BCE04D
:1019500025E437E081918D93E217F307D9F70895D5
:10196000CF92DF92EF92FF921F93CF93DF93CDB789
:10197000DEB764970FB6F894DEBF0FBECDBF84E428
:101980009CE00E94D30280E1E6E3F1E0DE011196E3
:1019900001900D928A95E1F7CE0101967C016C01D0
:1019A00010E0F60161916F0120E0412F84E49CE09A
:1019B0004CD91A5F1A35A9F781E1E6E4F1E0DE01BE
:1019C000119601900D928A95E1F7670110E0F601FA
:1019D00061916F0128E0412F84E49CE036D91A5FC1
:1019E0001036A9F78AE0E7E5F1E0DE0111960190F3
:1019F0000D928A95E1F7670110E0F60161916F01A0
:101A000020E1412F84E49CE020D91A5F1633A9F726
:101A10008BE0E1E6F1E0DE01119601900D928A95EE
:101A2000E1F7670110E0F60161916F0128E1412FB4
:101A300084E49CE00AD91A5F1C33A9F780E1ECE644
:101A4000F1E0DE01119601900D928A95E1F76701B0
:101A500010E0F60161916F0120E2412F84E49CE0E7
:101A6000F4D81A5F1A35A9F78EE0ECE7F1E0DE0151
:101A7000119601900D928A95E1F7670110E0F60149
:101A800061916F0128E2412F84E49CE0DED81A5F67
:101A90001E34A9F78EE0EAE8F1E0DE01119601902C
:101AA0000D928A95E1F710E0F70161917F0120E343
:101AB000412F84E49CE0C9D81A5F1E34A9F76496CC
:101AC0000FB6F894DEBF0FBECDBFDF91CF911F914F
:101AD000FF90EF90DF90CF900895CF92DF92EF923A
:101AE000FF921F93CF93DF93CDB7DEB764970FB606
:101AF000F894DEBF0FBECDBF84E49CE00E94D30209
:101B000081E1E8E9F1E0DE01119601900D928A95FC
:101B1000E1F7CE0101966C017C0110E0F7016191C3
:101B20007F0120E0412F84E49CE08FD81A5F1036BB
:101B3000A9F786E1E9EAF1E0DE01119601900D9244
:101B40008A95E1F7760110E0F70161917F0128E0C5
:101B5000412F84E49CE079D81A5F1E37A9F781E110
:101B6000EFEBF1E0DE01119601900D928A95E1F71D
:101B7000760110E0F70161917F0120E1412F84E4BB
:101B80009CE063D81A5F1036A9F783E1E0EDF1E03D
:101B9000DE01119601900D928A95E1F7760110E031
:101BA000F70161917F0128E1412F84E49CE04DD849
:101BB0001A5F1C36A9F78BE0E3EEF1E0DE01119627
:101BC00001900D928A95E1F710E0F60161916F01A5
:101BD00020E2412F84E49CE038D81A5F1C33A9F737
:101BE00064960FB6F894DEBF0FBECDBFDF91CF91E4
:101BF0001F91FF90EF90DF90CF900895CF92DF92EA
:101C0000EF92FF921F93CF93DF93CDB7DEB7649728
:101C10000FB6F894DEBF0FBECDBF84E49CE00E94F7
:101C2000D30286E0EEEEF1E0DE01119601900D9216
:101C30008A95E1F7CE0101967C016C0110E0F60176
:101C400061916F0120E0412F84E49CE00E94250611
:101C50001A5F1E31A1F78BE0E4EFF1E0DE0111968F
:101C600001900D928A95E1F7670110E0F60161910C
:101C70006F0128E0412F84E49CE00E9425061A5F52
:101C80001C33A1F788E0EFEFF1E0DE01119601903F
:101C90000D928A95E1F7670110E0F60161916F01FD
:101CA00020E1412F84E49CE00E9425061A5F1A324D
:101CB000A1F789E0E7E0F2E0DE01119601900D92D4
:101CC0008A95E1F7670110E0F60161916F0128E163
:101CD000412F84E49CE00E9425061A5F1033A1F78F
:101CE0008CE0E0E1F2E0DE01119601900D928A9520
:101CF000E1F710E0F70161917F0120E2412F84E4D8
:101D00009CE00E9425061A5F1234A1F764960FB674
:101D1000F894DEBF0FBECDBFDF91CF911F91FF9032
:101D2000EF90DF90CF900895CF92DF92EF92FF92E5
:101D30001F93CF93DF93CDB7DEB764970FB6F894B8
:101D4000DEBF0FBECDBF84E49CE00E94D30280E0E2
:101D5000EBDB80E0BEDC85E1ECE1F2E0DE01119638
:101D600001900D928A95E1F79E012F5F3F4F690127
:101D7000790110E0F70161917F0120E1412F84E4B6
:101D80009CE00E9425061A5F1837A1F78DE0E1E379
:101D9000F2E0DE01119601900D928A95E1F776014D
:101DA00010E0F70161917F0128E1412F84E49CE07C
:101DB0000E9425061A5F1834A1F780913D038630F2
:101DC00048F51F928F938EE392E09F938F93CE01FD
:101DD00001969F938F930E943E390F900F900F9022
:101DE0000F900F900F908823A9F081509E01280F2B
:101DF000311DF90132967F0110E0F60161916F010A
:101E000028E2412F84E49CE00E9425061A5FCE144C
:101E1000DF0499F764960FB6F894DEBF0FBECDBF0E
:101E2000DF91CF911F91FF90EF90DF90CF900895B9
:101E3000CF92DF92FF920F931F93CF93DF93CDB793
:101E4000DEB764970FB6F894DEBF0FBECDBF84E453
:101E50009CE00E94D302E5E4F0E101E0228941899F
:101E6000608984E49CE00E94E9060F2EF5E4CF2E01
:101E7000F0E1DF2EF02D11E4F60161916F0120E019
:101E8000412F84E49CE00E9425061A5F1137A1F7D8
:101E90000F2EFDE4CF2EF0E1DF2EF02D11E4F60140
:101EA00061916F0128E3412F84E49CE00E942506A4
:101EB0001A5F1137A1F71ADA282F082E000C330BFE
:101EC0003F938F9381E391E09F938F93CE0101968F
:101ED0009F938F930E943E390F900F900F900F9019
:101EE0000F900F90882351F18E010F5F1F4F81508B
:101EF000C82ED12CFFEFCF1ADF0AC00ED11E0F2E35
:101F0000F9E4FF2EF02DF80161918F01862F877F74
:101F1000853239F428E14F2D84E49CE00E942506A7
:101F200008C0605324E14DEF4F0D84E49CE00E9413
:101F30006F06F0E1FF0E0C151D0529F764960FB62C
:101F4000F894DEBF0FBECDBFDF91CF911F910F91EF
:101F5000FF90DF90CF9008950F931F93CF93DF935F
:101F600084E49CE00E94D30282E0DEDAE5E4F0E162
:101F700000E022894189608984E49CE00E94E906AE
:101F800005E410E1C1E4F80161918F0120E04C2FDC
:101F900084E49CE00E942506CA5FCF35A1F70DE4DA
:101FA00010E1C1E4F80161918F0128E34C2F84E432
:101FB0009CE00E942506CA5FC137A1F7C5E4D0E1C5
:101FC000688160532DE046E484E49CE00E946F0643
:101FD000698160532DE046E584E49CE00E946F0631
:101FE0006B81605322E246E484E49CE00E946F0629
:101FF0006C81605322E246E584E49CE00E946F0617
:10200000DF91CF911F910F9108950F931F93CF935D
:1020100084E49CE00E94D30281E05BDB81E084DA0F
:1020200005E410E1F801608160532DE045E084E4AF
:102030009CE00E946F06F801618160532DE045E14C
:1020400084E49CE00E946F06F8016381605322E201
:1020500045E084E49CE00E946F06F80164816053CF
:1020600022E245E184E49CE00E946F06F801628D63
:10207000CDEC6C9F612D11246695669566952DE0DB
:1020800046E484E49CE00E946F06F801628D6C9F38
:10209000812D1124869586958695880F982F990F06
:1020A000990F890F681B2DE046E584E49CE00E94AF
:1020B0006F06F801618D6C9F612D11246695669500
:1020C000669522E246E484E49CE00E946F06F801F3
:1020D000618D6C9FC12D1124C695C695C695CC0FF8
:1020E0008C2F880F880FC80F6C1B22E246E584E412
:1020F0009CE00E946F06F801808D83FF07C020E0FE
:1021000040E06FE684E49CE00E94250680913F0356
:102110009091400394FF09C060913D03605D20E011
:1021200046E084E49CE00E942506CF911F910F9128
:1021300008952F923F924F925F926F927F928F926B
:102140009F92AF92BF92CF92DF92EF92FF920F9346
:102150001F93CF93DF93CDB7DEB761970FB6F89497
:10216000DEBF0FBECDBF962E7F87882E392E2B87E0
:102170003C874D875E87088B198B2D2C7EA06FA026
:1021800058A449A484E49CE00E94D30281E0CCD905
:1021900080E09FDA20E847E360E084E49CE00E946E
:1021A000E20325E44FE060E084E49CE00E94E20367
:1021B0002BE348E065E484E49CE00E94E20320E134
:1021C00040E065E484E49CE00E94C80321E448E226
:1021D0006FE384E49CE00E94E20320E340E16FE3CC
:1021E00084E49CE00E94C80321E448E16FE384E4B6
:1021F0009CE00E94E20305E410E1F8016081605375
:1022000020E040E084E49CE00E946F06F8016181D8
:10221000605320E040E184E49CE00E946F06F801F6
:102220006381605320E045E284E49CE00E946F06F5
:10223000F8016481605320E045E384E49CE00E945F
:102240006F063F928F92FF85FF939F928FE492E0FB
:102250009F938F93CE0101969F938F930E943E3957
:1022600028E0022F081B0FB6F894DEBF0FBECDBFCB
:10227000083018F5102F1295107F4C019924E1E0D9
:10228000F0E0EC0FFD1FE00FF11DE80DF91D389790
:1022900060816E3239F420E2412F84E49CE00E9498
:1022A000250607C0605328E1412F84E49CE00E948A
:1022B0006F060F5F105F083011F72B853C854D8549
:1022C0005E8567E28FE123DB39893F9388898F93AD
:1022D000FF92EF9285E592E09F938F93CE01019656
:1022E0009F938F930E943E390FB6F894DEBF0FBEC6
:1022F000CDBF8823E9F08E010F5F1F4F8150E82E7C
:10230000F12CFFEFEF1AFF0AE00EF11E0F2EF6E49C
:10231000DF2EF02DF80161918F0120E14D2D84E435
:102320009CE00E942506F6E0DF0E0E151F0591F7D2
:102330002F92CF92BF92AF928BE592E09F938F93B3
:10234000CE0101969F938F930E943E390FB6F89469
:10235000DEBF0FBECDBF8823E9F08E010F5F1F4F98
:102360008150C82ED12C3FEFC31AD30AC00ED11E04
:102370000F2EF6E4FF2EF02DF80161918F0128E277
:102380004F2D84E49CE00E942506F6E0FF0E0C151C
:102390001D0591F74F925F926F927F9284E692E0D3
:1023A0009F938F93CE0101969F938F930E943E3906
:1023B0000FB6F894DEBF0FBECDBF8823E9F08E01C3
:1023C0000F5F1F4F8150C82ED12C3FEFC31AD30A85
:1023D000C00ED11E0F2EF6E4FF2EF02DF8016191F4
:1023E0008F0120E34F2D84E49CE00E942506F6E057
:1023F000FF0E0C151D0591F761960FB6F894DEBF20
:102400000FBECDBFDF91CF911F910F91FF90EF9045
:10241000DF90CF90BF90AF909F908F907F906F9004
:102420005F904F903F902F900895CF92DF92EF9260
:10243000FF921F93CF93DF93CDB7DEB764970FB6AC
:10244000F894DEBF0FBECDBF84E49CE00E94D302AF
:1024500088E0E9E6F2E0DE01119601900D928A959E
:10246000E1F7CE0101967C016C0110E0F60161916B
:102470006F0120E0412F84E49CE00E9425061A5F52
:102480001A32A1F788E0E1E7F2E0DE01119601904F
:102490000D928A95E1F7670110E0F60161916F01F5
:1024A00028E0412F84E49CE00E9425061A5F1A323E
:1024B000A1F788E0E9E7F2E0DE01119601900D92C4
:1024C0008A95E1F7670110E0F60161916F0120E163
:1024D000412F84E49CE00E9425061A5F1A32A1F77E
:1024E00088E0E1E8F2E0DE01119601900D928A9514
:1024F000E1F7670110E0F60161916F0128E1412FDA
:1025000084E49CE00E9425061A5F1A32A1F788E055
:10251000E9E8F2E0DE01119601900D928A95E1F76B
:10252000670110E0F60161916F0120E2412F84E420
:102530009CE00E9425061A5F1A32A1F788E0E1E9C3
:10254000F2E0DE01119601900D928A95E1F76701A4
:1025500010E0F60161916F0128E2412F84E49CE0D4
:102560000E9425061A5F1A32A1F788E0E9E9F2E035
:10257000DE01119601900D928A95E1F7670110E056
:10258000F60161916F0120E3412F84E49CE00E94F9
:1025900025061A5F1A32A1F788E0E1EAF2E0DE01CF
:1025A000119601900D928A95E1F710E0F701619183
:1025B0007F0128E3412F84E49CE00E9425061A5FF6
:1025C0001A32A1F764960FB6F894DEBF0FBECDBFE6
:1025D000DF91CF911F91FF90EF90DF90CF90089502
:1025E0009F92AF92BF92CF92DF92EF92FF920F93A2
:1025F0001F93CF93DF93CDB7DEB764970FB6F894F0
:10260000DEBF0FBECDBF962EA72EB82EE92E84E4D6
:102610009CE00E94D3020F2EF5E4CF2EF0E1DF2ED6
:10262000F02D11E4F60161916F0120E0412F84E467
:102630009CE00E9425061A5F1137A1F70F2EFDE4DA
:10264000CF2EF0E1DF2EF02D11E4F60161916F0144
:1026500028E3412F84E49CE00E9425061A5F11378D
:10266000A1F7EF92BF92AF929F9289EA92E09F9377
:102670008F93CE0101969F938F930E943E390FB6A0
:10268000F894DEBF0FBECDBF8823E9F08E010F5F47
:102690001F4F8150C82ED12C3FEFC31AD30AC00E52
:1026A000D11E0F2EF1E4FF2EF02DF80161918F0164
:1026B00020E34F2D84E49CE00E942506F6E0FF0E07
:1026C0000C151D0591F7292D3A2D4B2D5E2D6FE12F
:1026D0008FE100D923E040E5692D7A2D8B2D9E2DC9
:1026E00021D864960FB6F894DEBF0FBECDBFDF9140
:1026F000CF911F910F91FF90EF90DF90CF90BF90FF
:10270000AF909F900895CF92DF92EF92FF920F9338
:102710001F93CF93DF93CDB7DEB764970FB6F894CE
:10272000DEBF0FBECDBF84E49CE00E94D30288E0F0
:10273000E4EBF2E0DE01119601900D928A95E1F74B
:10274000CE0101966C017C0110E0F70161917F01DF
:1027500020E0412F84E49CE00E9425061A5F1A3293
:10276000A1F760913D03662339F0605D20E04AE205
:1027700084E49CE00E942506E0906010F0906110D7
:1027800000E11EE0C701B8010E94AB37AB019C011C
:10279000A9E8B8E80E940338FC01F695E795F295A0
:1027A000E295EF70EF27FF70EF2797010E94033843
:1027B00096958795929582958F7089279F70892726
:1027C0006CE3689F9001699F300D1124C701821B43
:1027D000930B9C01CA019927919581959109B801A4
:1027E0000E94BF37CB016AE070E00E94BF37698367
:1027F0009DEC499F312D1124369536953695330F32
:10280000832F880F880F380F431B4A834AE34B837B
:10281000E99F312D11243695369536953C83330F3B
:10282000832F880F880F380FE31BED834E83299F7A
:10283000912D11249695969596959F83990F892FA2
:10284000880F880F980F291B288710E0F6016191E7
:102850006F016A3339F424E1412F84E49CE00E9443
:10286000250606C020E1412F84E49CE00E946F060B
:10287000105F103859F764960FB6F894DEBF0FBE9C
:10288000CDBFDF91CF911F910F91FF90EF90DF901F
:10289000CF900895CF92DF92EF92FF920F931F9304
:1028A000CF93DF93CDB7DEB764970FB6F894DEBF52
:1028B0000FBECDBF84E49CE00E94D3028BE0ECEB22
:1028C000F2E0DE01119601900D928A95E1F7CE01BA
:1028D00001966C017C0110E0F70161917F0120E01D
:1028E000412F84E49CE00E9425061A5F1C33A1F767
:1028F000E0906210F090631000E11EE0C701B801A3
:102900000E94AB37AB019C01A9E8B8E80E940338EC
:10291000FC01F695E795F295E295EF70EF27FF70D1
:10292000EF2797010E940338969587959295829597
:102930008F7089279F7089276CE3689F9001699F3A
:10294000300D1124C701821B930B9C01CA019927EA
:10295000919581959109B8010E94BF37CB016AE03A
:1029600070E00E94BF3769839DEC499F312D11248F
:10297000369536953695330F832F880F880F380F8D
:10298000431B4A834AE34B83E99F312D112436953B
:10299000369536953C83330F832F880F880F380F79
:1029A000E31BED834E83299F912D112496959695D7
:1029B00096959F83990F892F880F880F980F291B51
:1029C000288710E0F60161916F016A3339F424E140
:1029D000412F84E49CE00E94250606C020E1412F9F
:1029E00084E49CE00E946F06105F103859F76496EB
:1029F0000FB6F894DEBF0FBECDBFDF91CF911F9110
:102A00000F91FF90EF90DF90CF9008957F928F927B
:102A10009F92AF92BF92CF92DF92EF92FF920F936D
:102A20001F93CF93DF93CDB7DEB764970FB6F894BB
:102A3000DEBF0FBECDBF84E49CE00E94D30280E0E5
:102A40000E94940A80E00E94690B87E49BE00E9448
:102A5000EA2A87E49BE00E94EB29E12C05E32FE7BB
:102A600048E063E584E49CE00E94FC032DE248E03A
:102A700069E684E49CE00E94C8032DE240E263E53D
:102A800084E49CE00E94E20307E41BE020E030E0E5
:102A900044E352E4F80160857185828593850E9444
:102AA0002F332BED3FE049E450E40E947B319B0142
:102AB000AC010E94AE306B017C01F80184849584E6
:102AC000A684B78420E030E044EB51E40E947431E6
:102AD00088230CF04FC020E030E044E352E4C5010D
:102AE000B4010E942F332BED3FE049E450E40E94F3
:102AF0007B319B01AC010E94AE304B015C0120E0B8
:102B000030E044EB51E40E94743188239CF520E0CE
:102B100030E048E052E4C501B4010E94AE300E94AA
:102B2000E831062FA701960160E070E087ED92E49E
:102B30000E94AD300E94E831762E20E030E040EF78
:102B400051E4C501B4010E94AE300E94E831162F55
:102B5000A701960160E070E08FEC92E40E94AD3036
:102B60000E94E831EE24E394272D412F84E49CE079
:102B70000E94FC03E7E4FBE081818F9380818F93C7
:102B800085ED92E09F938F93CE0101969F938F9353
:102B90000E943E390F900F900F900F900F900F9062
:102BA0008823D1F08E010F5F1F4F8150C82ED12C8A
:102BB000FFEFCF1ADF0AC00ED11EF12CF801619190
:102BC0008F0120E14F2D84E49CE00E942506F6E071
:102BD000FF0E0C151D0591F7E7E4FBE083818F9351
:102BE00082818F9385ED92E09F938F93CE01019622
:102BF0009F938F930E943E390F900F900F900F90EC
:102C00000F900F908823D1F08E010F5F1F4F8150DE
:102C1000C82ED12C8FEFC81AD80AC00ED11EF12CA5
:102C2000F80161918F0128E14F2D84E49CE00E941E
:102C30002506F6E0FF0E0C151D0591F7E7E4FBE015
:102C400085818F9384818F9385ED92E09F938F93FD
:102C5000CE0101969F938F930E943E390F900F9063
:102C60000F900F900F900F908823D1F08E010F5F7F
:102C70001F4F8150C82ED12C8FEFC81AD80AC00E12
:102C8000D11EF12CF80161918F0120E24F2D84E4D7
:102C90009CE00E942506F6E0FF0E0C151D0591F73D
:102CA000E7E4FBE081898F9380898F9388ED92E040
:102CB0009F938F93CE0101969F938F930E943E39ED
:102CC0000F900F900F900F900F900F908823D1F0DE
:102CD0008E010F5F1F4F8150C82ED12C8FEFC81A65
:102CE000D80AC00ED11EF12CF80161918F0128E2A3
:102CF0004F2D84E49CE00E942506F6E0FF0E0C15A3
:102D00001D0591F764960FB6F894DEBF0FBECDBFD8
:102D1000DF91CF911F910F91FF90EF90DF90CF90B7
:102D2000BF90AF909F908F907F9008952F923F9289
:102D30004F925F926F927F928F929F92AF92BF92CB
:102D4000CF92DF92EF92FF920F931F93CF93DF9377
:102D5000CDB7DEB766970FB6F894DEBF0FBECDBF16
:102D600085E490E10E94663084E49CE00E94D302F6
:102D7000912C0F2EFFE07F2EF02DCE0101962C011D
:102D8000F12C8D8B5E8A0F2EF5E4CF2EF0E1DF2E35
:102D9000F02D0F2EFDEC8F2EF02D6894EE24E5F82B
:102DA0000F2EFEE26F2EF02DEBEDF2E0D201872D1B
:102DB00001900D928A95E1F7520112011F2DF10148
:102DC00061911F012F2D412F84E49CE00E94250674
:102DD0001A5F1435A1F7EFE0F1E0D201872D0190E1
:102DE0000D928A95E1F72D883E881F2DF1016191A2
:102DF0001F0128E0412F84E49CE00E9425061A5F11
:102E00001435A1F7F6019089989D812D112486959E
:102E1000869586958983880F282F220F220F820F8F
:102E2000981B9A83FAE3FB83F6019189989D812D83
:102E300011248695869586958C83880F282F220FDE
:102E4000220F820F981B9D83EE829489989D812D7D
:102E500011248695869586958F83880F282F220FBB
:102E6000220F820F981B988769869689989D812DDD
:102E700011248695869586958A87880F282F220F9C
:102E8000220F820F981B9B876C869789989D812DB6
:102E900011248695869586958D87880F282F220F79
:102EA000220F820F981B9E870D891E892F2C332499
:102EB000339405C033940F5F1F4FF0E12F0E83E072
:102EC000381661F020E1422DF801608184E49CE035
:102ED0000E946F06F4E0F31568F708C024E148E2A9
:102EE0006B8184E49CE00E942506E4CF8E01095F9B
:102EF0001F4F2F2C0F2EF6E03F2EF02D88E03816B6
:102F000061F09BE0391649F02E2D422DF8016081C9
:102F100084E49CE00E946F0609C028E248E0420D6C
:102F2000F801608184E49CE00E94250633940F5FE1
:102F30001F4FF0E12F0E8EE03812E0CF84E49CE0CA
:102F40000E94590384E49CE00E94D302892D90E002
:102F50008A30910508F02CC2FC01EA5BFF4F0C940B
:102F6000F43788E39CE00E949727880F982F990FE9
:102F7000990F890F883108F45AC2F601108AEAEED7
:102F8000F2E0D201872D01900D928A95E1F71F2D75
:102F9000F50161915F0128E3412F84E49CE00E94E8
:102FA00025061A5F1435A1F799249A9442C288E342
:102FB0009CE00E949727F601208990E0820F911DE6
:102FC000883110F4808B35C2F601108AEAEEF2E007
:102FD000D201872D01900D928A95E1F71F2DF50101
:102FE00061915F0128E3412F84E49CE00E94250663
:102FF0001A5F1435A1F799249A941BC288E39CE0C8
:103000000E949727880F982F990F990F890F8C335B
:1030100018F4F601818B0DC2F601118AE9EFF2E096
:10302000D201872D01900D928A95E1F71F2DF501B0
:1030300061915F0128E3412F84E49CE00E94250612
:103040001A5F1435A1F799249394F3C188E39CE0A7
:103050000E949727F601218990E0820F911D8C3301
:1030600010F4818BE6C1F601118AE9EFF2E0D2019A
:10307000872D01900D928A95E1F71F2DF501619141
:103080005F0128E3412F84E49CE00E9425061A5F3B
:103090001435A1F799249394CCC188E39CE00E9455
:1030A0009727880F982F990F990F890F803218F45E
:1030B000F601848BBEC1F601148A8BE0E8E0F3E0F0
:1030C000D20101900D928A95E1F71F2DF5016191D2
:1030D0005F0128E3412F84E49CE00E9425061A5FEB
:1030E0001C33A1F70F2EF3E09F2EF02DA2C188E331
:1030F0009CE00E949727F601248990E0820F911DA1
:10310000803210F4848B95C1F601148A8BE0E8E0DC
:10311000F3E0D20101900D928A95E1F71F2DF501A0
:1031200061915F0128E3412F84E49CE00E94250621
:103130001A5F1C33A1F70F2EF3E09F2EF02D79C1FB
:1031400088E39CE00E949727880F982F990F990F8A
:10315000890F8D3018F4F601868B6BC1F601168A43
:103160008DE0E3E1F3E0D20101900D928A95E1F761
:103170001F2DF50161915F0128E3412F84E49CE05C
:103180000E9425061A5F1834A1F70F2EF5E09F2E36
:10319000F02D4FC188E39CE00E949727F601268915
:1031A00090E0820F911D8D3010F4868B1DC0F601CA
:1031B000168A8DE0E3E1F3E0D20101900D928A9549
:1031C000E1F72D883E881F2DF10161911F0128E351
:1031D000412F84E49CE00E9425061A5F1834A1F771
:1031E0000F2EF5E09F2EF02DF6019689892F8D7F09
:1031F000843011F0893009F5F60184898F3108F4A3
:10320000D8C0148A168A8BE0E8E0F3E0D20101907E
:103210000D928A95E1F71F2DF50161915F0128E379
:10322000412F84E49CE00E9425061A5F1C33A1F71D
:103230000F2EF3E09F2EF02DFCC0923009F0B9C0A4
:10324000F60184898E3108F4B4C0148A168A8BE0A2
:10325000E8E0F3E0D20101900D928A95E1F71F2D8D
:10326000F50161915F0128E3412F84E49CE00E9415
:1032700025061A5F1C33A1F70F2EF3E09F2EF02DC9
:10328000D8C088E39CE00E949727880F982F990F59
:10329000990F890F823318F4F601878BCAC0F601A3
:1032A000178A8CE0E0E2F3E0D20101900D928A955A
:1032B000E1F71F2DF50161915F0128E3412F84E4BF
:1032C0009CE00E9425061A5F1234A1F70F2EF7E04A
:1032D0009F2EF02DAEC088E39CE00E949727F60158
:1032E000278990E0820F911D823308F499C0178AD4
:1032F0008CE0E0E2F3E0D20101900D928A95E1F7D3
:103300002D883E881F2DF10161911F0128E3412F77
:1033100084E49CE00E9425061A5F1234A1F70F2E68
:10332000F7E09F2EF02D7EC0F60117891370F9F497
:1033300084898E31F0F1148A168A178A8BE0E8E0CE
:10334000F3E0D20101900D928A95E1F7F5016191C8
:103350005F0128E3412F84E49CE00E9425061A5F68
:103360001C33A1F70F2EF3E09F2EF02D62C0F60163
:1033700084898D31F0F0148A168A178A8BE0E8E090
:10338000F3E0D20101900D928A95E1F71F2DF5012E
:1033900061915F0128E3412F84E49CE00E942506AF
:1033A0001A5F1C33A1F70F2EF3E09F2EF02D41C0C2
:1033B00093949394FAE0F91508F0F6CC05E410E143
:1033C000F801128A138A618980E090E00E94E60980
:1033D000F801608981E090E00E94E609F8016489C3
:1033E00082E090E00E94E609F801668983E090E0BF
:1033F0000E94E609F801678984E090E00E94E609EE
:1034000084E49CE00E94D302C8010E946C2FC80192
:103410000E94332FC8010E944D300DC09394C4CC3C
:10342000F601878BF60186898230C1F77DCFF601E0
:10343000808B9394B9CC66960FB6F894DEBF0FBE1E
:10344000CDBFDF91CF911F910F91FF90EF90DF9053
:10345000CF90BF90AF909F908F907F906F905F9034
:103460004F903F902F9008951F920F920FB60F929A
:1034700011240BB60F928F93EF93FF93E5E4F0E1E5
:1034800082898F5F828B808D8260808FFF91EF9128
:103490008F910F900BBE0F900FBE0F901F9018953D
:1034A0001F920F920FB60F9211248F9380913E03BB
:1034B000816080933E038F910F900FBE0F901F90FD
:1034C0001895CF92DF92EF92FF92CF93DF93E4E8CB
:1034D000F0E0C081D181118210822BED3FE049E400
:1034E00050E40E942F3326E636E646E650E40E947A
:1034F0002F336B017C01BE0180E090E00E9414320A
:1035000020E030E040E05EE30E942F332DEB37E314
:1035100046E85AE30E942F332AE037ED43EA5BE3A3
:103520000E94AE309B01AC01C701B6010E947B3105
:10353000209138033091390340913A0350913B0375
:103540000E94AE3020E030E040E05FE30E942F3385
:103550006B017C0120E030E040E253E40E94243320
:1035600088234CF4C0923803D0923903E0923A0396
:10357000F0923B0308C01092380310923903109266
:103580003A0310923B03DF91CF91FF90EF90DF90D1
:10359000CF900895FC01208130E0062E02C03595C1
:1035A00027950A94E2F720FF16C0EFE0F7E2319783
:1035B000F1F700C00000FC01808190E002C0959509
:1035C00087956A95E2F780FD08C0F2E0FA95F1F779
:1035D00000C081E0089580E0089580E00895109291
:1035E000850010928400813031F410926F0085E0E4
:1035F000809381000895823061F486E594E1909390
:103600008900809388008BE08093810082E0809322
:103610006F000895CF93DF9310925D1010924003D6
:1036200010923F0310923E0310923D0310923C0310
:10363000109238031092390310923A0310923B0310
:103640001092340310923503109236031092370310
:103650001092300310923103109232031092330310
:1036600010922C0310922D0310922E0310922F0310
:1036700080E0B5DF0E9A169A84E49CE00E94F60280
:1036800084E49CE00E94D30280E480937C00EAE71B
:10369000F0E083E080838081806880838081806423
:1036A0008083808186FDFDCF8091780090917900A4
:1036B0000E94F909C5E4D0E11A8A80E090E00E94F6
:1036C000F009898B81E090E00E94F009888B82E00C
:1036D00090E00E94F0098C8B83E090E00E94F0095A
:1036E0008E8B84E090E00E94F0098F8BCE010E94C7
:1036F0006C2FCE010E944D3082E071DF80913F033C
:103700009091400382609093400380933F037894AC
:10371000DF91CF91089580913F0380FF1FC067E044
:1037200080E290E037DF882331F063E371E186E3E4
:103730009FE3C7DE13C080918400909185008E388E
:103740009B4560F01092850010928400109238031F
:103750001092390310923A0310923B0380915D104E
:10376000982F9871983161F420913F033091400374
:10377000306C3093400320933F03877F80935D102C
:1037800008954F925F926F927F92AF92BF92CF92C5
:10379000DF92EF92FF920F931F93CF93DF9380916D
:1037A0003E0380FF88C080913C038F5F80933C0381
:1037B00080913F039091400387FF1EC087E49BE008
:1037C0000E94EB29E7E4FBE0048515852685378513
:1037D000408551856285738584E690E10E94972833
:1037E0000E94F01280913F03909140039068909363
:1037F000400380933F035AC080FF4AC087E49BE0A8
:103800000E94EB29E0902C03F0902D03C0912E0331
:10381000D0912F03A0903003B0903103C0903203B9
:10382000D0903303409034035090350360903603BA
:1038300070903703E7E4FBE004851585268537851E
:10384000408551856285738584E690E10E949728C2
:103850009B01AC01609138037091390380913A0368
:1038600090913B03DF93CF93FF92EF92830172011C
:103870000E94991080913F0390914003906890932B
:10388000400380933F030F900F900F900F900EC056
:1038900093FF0CC094FD0AC0B9D880913F0390916A
:1038A000400390689093400380933F0380913E03D0
:1038B0008E7F80933E0380915D1081FFC5C185E4BA
:1038C00090E10E94123080913F03909140039C014F
:1038D000227030722230304261F40E94FE0D8091DD
:1038E0003F039091400390689093400380933F037F
:1038F0008FC19C01222730732115304361F40E944F
:103900006D0D80913F039091400390689093400328
:1039100080933F037DC195FF0CC00E94B00C809145
:103920003F039091400390689093400380933F033E
:103930006FC191FF0CC00E94151280913F039091BE
:10394000400390689093400380933F0361C181FFDF
:103950000CC00E94180F80913F0390914003906823
:103960009093400380933F0353C187FF1EC087E4B9
:103970009BE00E94EB29E7E4FBE0048515852685A2
:103980003785408551856285738584E690E10E9484
:1039900097280E94F01280913F0390914003906815
:1039A0009093400380933F0333C180FFA1C0C09038
:1039B0003803D0903903E0903A03F0903B03209114
:1039C0003003309131034091320350913303C701EA
:1039D000B6010E942433181644F4C0923003D092EA
:1039E0003103E0923203F092330320E030E040E80C
:1039F0005FE3C701B6010E94243388239CF08091C5
:103A00002C0390912D03A0912E03B0912F030196CA
:103A1000A11DB11D80932C0390932D03A0932E0321
:103A2000B0932F0326E636E646E650E4C701B6011A
:103A30000E947B319B01AC0160913403709135038E
:103A400080913603909137030E94AE306093340327
:103A500070933503809336039093370387E49BE09C
:103A60000E94EB29E0902C03F0902D03C0912E03CF
:103A7000D0912F03A0903003B0903103C090320357
:103A8000D090330340903403509035036090360358
:103A900070903703E7E4FBE00485158526853785BC
:103AA000408551856285738584E690E10E94972860
:103AB0009B01AC01609138037091390380913A0306
:103AC00090913B03DF93CF93FF92EF9283017201BA
:103AD0000E94991080913F039091400390689093C9
:103AE000400380933F030F900F900F900F9090C072
:103AF00083FF0CC00E944A1480913F0390914003C1
:103B000090689093400380933F0382C082FF18C067
:103B100020915D1020FF08C0906490934003809333
:103B20003F032E7F20935D100E94831380913F03FB
:103B30009091400390689093400380933F0368C046
:103B400092FF10C085E493E00E94E6250E94A40C39
:103B500080913F039091400390689093400380933D
:103B60003F0356C0AC01442758709C01222738718E
:103B70002115384141F580913D03873018F481507B
:103B800080933D0380913D03863020F487E49BE0E1
:103B90000E94AE2B80913D03811109C080913F03AB
:103BA000909140039F7E9093400380933F030E9437
:103BB000940E80913F03909140039068909340034E
:103BC00080933F0325C0452B99F060915710617099
:103BD00087E49BE00E94102C0E94061580913F0311
:103BE0009091400390689093400380933F0310C0EE
:103BF000807490718034904159F40E940510809136
:103C00003F039091400390689093400380933F035B
:103C100080913F039091400396FF0FC06091571031
:103C2000617084E49CE00E94510386E39CE00E9462
:103C3000D42E84E39CE00E941B2E10923C03E5E40A
:103C4000F0E1808D8D7F808F80915D1082FF22C09A
:103C500080913F0385FF0CC00E94AC0F80913F0311
:103C60009091400390689093400380933F030DC070
:103C700086FF0BC00E94051080913F039091400386
:103C800090689093400380933F03E5E4F0E1808DDA
:103C90008B7F808F80913F039091400399236CF438
:103CA00084E49CE00E94590380913F03909140037B
:103CB0009F779093400380933F03DF91CF911F91B3
:103CC0000F91FF90EF90DF90CF90BF90AF907F90DB
:103CD0006F905F904F900895813409F4CCC4E5E46F
:103CE000F0E1908D292F2260208F20913F033091A9
:103CF00040032F3F310561F46FEA84E49CE00E94A9
:103D0000DA0280E090E29093400380933F030895AD
:103D1000A9014270507242305042E9F52D7F3F7D3B
:103D20008333C1F028F4813341F0823361F02CC039
:103D30008433B9F08533F1F027C02260309340031B
:103D400020933F0308952860306830934003209308
:103D50003F030895246030613093400320933F0374
:103D60000895966090935D102064309340032093F3
:103D70003F030895966090935D1020623068309301
:103D8000400320933F030895226030623093400344
:103D900020933F0344C4A901442750734115504365
:103DA00009F055C03F7C3093400320933F03833399
:103DB000F9F028F4813341F08233A1F042C084331A
:103DC00041F1853369F13DC084E690E10E94D42938
:103DD00080913F03909140038068909340038093CB
:103DE0003F03089532603093400320933F030895CA
:103DF0000E949616E5E4F0E1808D8460808F8091CA
:103E00003F039091400380629093400380933F036F
:103E10000895206430613093400320933F03089558
:103E200087E49BE00E94552B87E080933D038091BF
:103E30003F039091400398619093400380933F0328
:103E4000089530633093400320933F03E8C335FF68
:103E50005BC03F7D3093400320933F03482F50E0E9
:103E6000FA01F197E730F10508F048C0E05BFF4F39
:103E70000C94F43721603093400320933F0381E09A
:103E8000AECB089587E49BE00E94552B80913F03C1
:103E90009091400398689093400380933F03089566
:103EA00020683093400320933F03089522603062DE
:103EB0003093400320933F030895306330934003D1
:103EC00020933F03089584E49CE00E94D3028091F4
:103ED0003F039091400390689093400380933F0389
:103EE000089585E493E04ED480913F039091400380
:103EF00094609093400380933F0308953062309321
:103F0000400320933F038BC3A90140745071403498
:103F1000504109F066C040913D03413001F128F065
:103F2000423069F14330F1F17AC3E5E4F0E1128EF9
:103F3000118E977E9260908F833209F470C38A321B
:103F400009F46DC3982F990F9056292F220F220F35
:103F5000920F90935F1091E090933D0360C3833282
:103F600009F45DC38A3209F45AC3E5E4F0E1928DA5
:103F70009053980F928F92E090933D0350C38332F9
:103F800009F44DC38A3209F44AC3982F990F905609
:103F9000292F220F220F920F90935E1093E090939F
:103FA0003D033DC3833241F08A3231F0E5E4F0E174
:103FB000418D4053480F418F10923D0340915F1057
:103FC000483108F02CC340915E104C3308F027C3F1
:103FD0003F7E3093400320933F039E6090935D109B
:103FE0001EC331FF4AC0A9015D7F40685093400362
:103FF00040933F03482F50E0FA01F197E830F10574
:10400000A0F5E95AFF4F0C94F43740E061E084E6F4
:1040100090E19BC7089540E261E084E690E195C796
:10402000089540E461E084E690E18FC7089540E69A
:1040300061E084E690E189C7089540E861E084E6A4
:1040400090E183C7089540EA61E084E690E17DC78E
:10405000089540EC61E084E690E177C7089540EE72
:1040600061E084E690E171C708952F773D7F32606B
:104070003093400320933F03D2C2A9014470507192
:104080004430504109F05EC140913D03423009F493
:1040900071C030F4442369F0413009F43FC0BFC21D
:1040A000443009F4D2C008F49CC0453009F404C17E
:1040B000B6C2833219F08A3241F019C010923D0322
:1040C0001092611010926010089510923D03E5E483
:1040D000F0E1438D548D4F5F5F4F548F438F3F7E90
:1040E0003093400320933F039262908FBEC2282FEB
:1040F00030E020533109A901440F551F220F331F0F
:10410000220F331F220F331F240F351F30936110EE
:104110002093601091E090933D0381C2833219F0A7
:104120008A3241F019C010923D0310926110109232
:104130006010089510923D03E5E4F0E1438D548D45
:104140004F5F5F4F548F438F3F7E309340032093E8
:104150003F039262908F89C2E5E4F0E1238D348DB4
:1041600020533109280F311D348F238F92E0909313
:104170003D0355C2833219F08A3241F019C01092C2
:104180003D031092611010926010089510923D034B
:10419000E5E4F0E1438D548D4F5F5F4F548F438FC3
:1041A0003F7E3093400320933F039262908F5DC225
:1041B000E5E4F0E1482F50E04053510928E532E0B2
:1041C000429FB001439F700D529F700D1124238DAB
:1041D000348D260F371F348F238F93E090933D0348
:1041E0001EC2833219F08A3241F019C010923D0389
:1041F0001092611010926010089510923D03E5E452
:10420000F0E1438D548D4F5F5F4F548F438F3F7E5E
:104210003093400320933F039262908F26C2E5E4DF
:10422000F0E1482F50E0405351099CE3949FB001C6
:10423000959F700D1124238D348D260F371F348FD9
:10424000238F94E090933D03EAC1833219F08A32C0
:1042500041F019C010923D0310926110109260104D
:10426000089510923D03E5E4F0E1438D548D4F5FD6
:104270005F4F548F438F3F7E3093400320933F0323
:104280009262908FF2C1E5E4F0E1482F50E0405394
:10429000510920EA3CE8429FB001439F700D529FB4
:1042A000700D1124238D348D260F371F348F238FEB
:1042B00095E090933D03B3C1833219F08A3231F017
:1042C00015C0109261101092601025C0E5E4F0E175
:1042D000438D548D4F5F5F4F548F438F3F7E30939C
:1042E000400320933F039262908F15C0E5E4F0E114
:1042F000482F50E04053510920E13EE0429FB00179
:10430000439F700D529F700D1124238D348D260F05
:10431000371F348F238F10923D03E5E4F0E1238DA6
:10432000348D2F5F3F4F348F238F20913F03309187
:1043300040033F7E3093400320933F03908D906273
:10434000908F6DC1A901442758714115584179F4E6
:1043500090913D03973039F48A3209F08CC186E0A0
:1043600080933D0382C196E090933D0358C123FFA3
:1043700022C08A3259F496FF05C09F7B92609093C9
:104380005D1073C1926490935D106FC1803329F406
:1043900010926310109262100895833209F06BC17D
:1043A0009F7B926090935D10277F30623093400333
:1043B00020933F03089521FF29C0833249F41092CE
:1043C0003D032D7F30623093400320933F030895D7
:1043D0008A3249F480913D038F5F823008F443C1F3
:1043E00010923D0342C1803309F045C186E39CE051
:1043F0000E94582E882329F086E39CE00C94932E8B
:10440000089586E39CE00C941B2E089527FF1DC0A1
:10441000833241F4C9018F77906290934003809377
:104420003F030895803309F0FAC086E39CE00E94C0
:10443000582E882329F086E39CE00C94932E08954F
:1044400086E39CE00C941B2E089520FF3AC0833233
:1044500051F4C9018E7F90629093400380933F0393
:1044600082E0BDC808958A32C9F4109230031092D8
:1044700031031092320310923303109234031092DE
:104480003503109236031092370310922C031092CA
:104490002D0310922E0310922F03E7C0803309F0F2
:1044A000EAC086E39CE00E94582E882329F086E328
:1044B0009CE00C94932E089586E39CE00C941B2EB4
:1044C000089532FF1DC0833241F4C9019B7F906281
:1044D0009093400380933F030895803309F09FC079
:1044E00086E39CE00E94582E882329F086E39CE016
:1044F0000C94932E089586E39CE00C941B2E089553
:1045000022FF25C0833209F08AC02B7F3F7B309386
:10451000400320933F03892F8E7D826080935D103E
:1045200060E084E49CE00E94510386E39CE00E94EA
:10453000932E84E39CE00E94932E80913F03909100
:10454000400390629093400380933F03089525FFBA
:1045500025C0833241F4C9018F7D9062909340035E
:1045600080933F030895803309F059C086E39CE0AF
:104570000E94582E882349F086E39CE00E94932EE7
:1045800085E49BE00C947630089586E39CE00E94DD
:104590001B2E85E49BE00C946D30089533FF0EC014
:1045A0008332E9F5C901977F90629093400380932D
:1045B0003F0387E49BE00C94592B089526FF26C007
:1045C000833241F4C9018F7B9062909340038093C2
:1045D0003F0308958A3209F04EC094FF06C0892F28
:1045E000877E826080935D100BC093FF06C0892F89
:1045F000877F826080935D1003C09A6090935D1006
:10460000E5E4F0E1808D8460808F2FC0232B39F4A6
:1046100080E090E29093400380933F0308952091BF
:104620003F033091400336FF26C08A3221F53F7B9D
:104630003093400320933F0360E084E49CE00E94B9
:10464000510386E39CE00E94932E84E39CE00E9449
:10465000932E80915D10982F9871983161F4867E29
:1046600080935D10089580933D0320913F03309126
:10467000400336FDDCCF08950E940A1B4CD881D838
:1046800088E39CE0A7D328DBF9CF84E690E177D4D8
:1046900085E490E10E94A52F84E49CE00E944603FB
:1046A00088E39CE05DD341E062E486E39CE00E9405
:1046B000E02D42E062E484E39CE00E94E02D47E0CC
:1046C00064E482E39CE00E94E02D43E062E480E346
:1046D0009CE00E94E02D87E49BE00E94702B85E423
:1046E0009BE00E94963085E493E049C0089585E4FC
:1046F00093E026D085E49BE00E946C3087E49BE049
:1047000067D680E39CE00E941A2E82E39CE00E9420
:104710001A2E84E39CE00E941A2E86E39CE00E94FD
:104720001A2E88E39CE02FD384E49CE00E94CF0201
:1047300085E490E10E94212F84E690E103C408956E
:104740000895611109C0FC019C5FDC0111921D926A
:104750008E179F07D9F70895613039F4FC019C5FEB
:104760001192E817F907E1F70895623039F4FC0176
:10477000FC5F985F1192E817F907E1F7089560E090
:10478000E0CF089560E0DDCF0895FB0180818823AC
:1047900014F4805880830895FB01808188231CF4E1
:1047A000805C8083089580341CF08054FB018083FA
:1047B0000895AF92BF92CF92DF92EF92FF920F9344
:1047C0001F93CF93DF9300D0CDB7DEB78C01B62E09
:1047D000F42E1982EE24E394E60EEA82BE016E5FA7
:1047E0007F4FD3DFF982BE016F5F7F4FC801D4DFF7
:1047F0008A81082E000C990BF801E80FF91FA080A0
:10480000398141E050E0032E02C0440F551F0A9445
:10481000E2F747705527232F332314F427E0230FA3
:1048200025952595259530E82303800D911D1124AC
:10483000F801E80FF91F208130E0CA018223932399
:10484000892B09F0A394DD24DA94DB0CDA82BE0113
:104850006E5F7F4FC80199DFF982BE016F5F7F4FA6
:10486000C8019ADF8A81082E000C990BF801E80F25
:10487000F91F2081A20E398141E050E0032E02C0D1
:10488000440F551F0A94E2F747705527232F33230F
:1048900014F427E0230F25952595259530E823036B
:1048A000800D911D1124F801E80FF91F8081282F38
:1048B00030E0CA0182239323892B09F0A394BA82A2
:1048C000BE016E5F7F4FC80160DFCC24C394CF0C64
:1048D000C982BE016F5F7F4FC8015EDF8A81082EEB
:1048E000000C990BF801E80FF91F2081A20E5981E5
:1048F00021E030E0052E02C0220F331F0A94E2F7B8
:1049000027703327452F552314F447E0450F45956D
:104910004595459550E84503800D911D1124F801FA
:10492000E80FF91F808190E082239323892B09F0FF
:10493000A394BA82BE016E5F7F4FC80126DFFA944E
:10494000F982BE016F5F7F4FC80126DF8A81082E82
:10495000000C990BF801E80FF91F2081BA2CB20E58
:10496000398141E050E0032E02C0440F551F0A94E4
:10497000E2F747705527232F332314F427E0230F42
:1049800025952595259530E82303800D911D11244B
:10499000F801E80FF91F8081282F30E0CA01822337
:1049A0009323892B09F0B394DA82BE016E5F7F4FA7
:1049B000C801EBDEF982BE016F5F7F4FC801ECDEFC
:1049C0008A81082E000C990BF801E80FF91F20814D
:1049D000B20E398141E050E0032E02C0440F551F52
:1049E0000A94E2F747705527232F332314F427E066
:1049F000230F25952595259530E82303800D911DDE
:104A00001124F801E80FF91F8081282F30E0CA0136
:104A100082239323892B09F0B394EA82BE016E5F4F
:104A20007F4FC801B2DEC982BE016F5F7F4FC801F0
:104A3000B3DE8A81082E000C990BF801E80FF91FEC
:104A40002081B20E398141E050E0032E02C0440FB4
:104A5000551F0A94E2F747705527232F332314F488
:104A600027E0230F25952595259530E82303800D14
:104A7000911D1124F801E80FF91F8081282F30E0E3
:104A8000CA0182239323892B09F0B394DA82BE01F1
:104A90006E5F7F4FC80179DEC982BE016F5F7F4FB5
:104AA000C8017ADE2A81022E000C330BF801E20FD6
:104AB000F31F90818B2D890F498161E070E0042EF6
:104AC00002C0660F771F0A94E2F767707727942F6A
:104AD000442314F497E0940F492F45954595459547
:104AE00050E84503200D311D1124F801E20FF31F9A
:104AF000408150E09B0124233523232B11F4D82E31
:104B000003C0DD24D394D80EEA82BE016E5F7F4FCE
:104B1000C8013BDEF982BE016F5F7F4FC8013CDEFA
:104B20002A81022E000C330BF801E20FF31F908153
:104B30008D2D890F498161E070E0042E02C0660F5F
:104B4000771F0A94E2F767707727942F442314F4B1
:104B500097E0940F492F45954595459550E84503B5
:104B6000200D311D1124F801E20FF31F408150E0A8
:104B70009B0124233523232B09F08F5F0F900F9087
:104B8000DF91CF911F910F91FF90EF90DF90CF9029
:104B9000BF90AF900895E42FE695E695E69520E85E
:104BA000E29FF0011124E60FF11D8E0F9F1FFC0103
:104BB000FC5F81E090E002C0880F991F4A95E2F700
:104BC0008770809590818923808308954F925F92AA
:104BD0006F927F928F929F92AF92BF92CF92DF920D
:104BE000EF92FF920F931F93CF93DF937C0162E0CC
:104BF000A8DDC12CD12C512C412CAA24A394B12C7A
:104C00009A2C8B2C752C642C5EC01C2F4C2F602F83
:104C1000C701CFDD9EEF980F923028F04C2F602F08
:104C2000C701B9DF44C0833059F58C2F869586952E
:104C30008695960190E8899F200D311D1124A501CC
:104C40000C2E02C0440F551F0A94E2F7BA01677098
:104C50007727F701E20FF31F892D982DE081EE23CE
:104C600011F0872D962D86239723892B49F02E0D41
:104C70003F1DF901FC5F47708081482B408317C0BE
:104C8000169516951695F60190E8199FE00DF11D01
:104C90001124EE0DFF1DFC5FC5010C2E02C0880F14
:104CA000991F0A94E2F787709081892B808321965F
:104CB000C034D10509F0A9CF8FEFC81AD80A90E8FF
:104CC000C916D10421F00C2DC52DD42D9ECFF7018E
:104CD000FC5FD70198EFF91A81918D93EE15FF05CE
:104CE000D9F7DF91CF911F910F91FF90EF90DF9057
:104CF000CF90BF90AF909F908F907F906F905F907C
:104D00004F90089582E08093B8000895089584EA52
:104D10008093BC00089584E98093BC000895ECEB77
:104D2000F0E080818823ECF76093BB0084E88093F7
:104D3000BC00ECEBF0E080818823ECF7089566235B
:104D400021F084EC8093BC0003C084E88093BC0015
:104D5000ECEBF0E080818823ECF78091BB000895B4
:104D60002AB120662AB928B1237F28B927B12C603F
:104D700027B92AB1237E2AB9FC010C961192E817B3
:104D8000F907E1F708950895FB01808190E0042E72
:104D900002C0959587950A94E2F780FF05C081E0EF
:104DA000F901808380E00895F9018081813071F4F8
:104DB000FB01608170E0FB0102C0F595E7954A9523
:104DC000E2F7E0FD03C0F90110820895F9011082B5
:104DD00080E008951F93CF93DF93EC01439A82E024
:104DE0008A95F1F700C09E012E5F3F4F44E069E2D3
:104DF00070E0CE01C9DF811114C09E012F5F3F4FCB
:104E000043E069E270E0CE01BFDF81110CC09E017A
:104E100042E069E270E0CE01B7DF882331F011E3B0
:104E200005C013E303C012E301C011E44398429AA2
:104E300082E08A95F1F700C09E012B5F3F4F44E06E
:104E400069E270E0CE01A0DF811116C09E012C5FE7
:104E50003F4F43E069E270E0CE0196DF81110EC062
:104E60009E012D5F3F4F42E069E270E0CE018CDF92
:104E7000882329F014E303C016E301C015E3429828
:104E80005E9A82E08A95F1F700C09E01285F3F4F4D
:104E900044E069E270E0CE0177DF811116C09E0127
:104EA000295F3F4F43E069E270E0CE016DDF811181
:104EB0000EC09E012A5F3F4F42E069E270E0CE01E2
:104EC00063DF882329F017E303C019E301C018E367
:104ED0005E985D9A82E08A95F1F700C09E01255F99
:104EE0003F4F44E069E270E0CE014EDF811116C011
:104EF0009E01265F3F4F43E069E270E0CE0144DF50
:104F000081110EC09E01275F3F4F42E069E270E0D1
:104F1000CE013ADF882329F01AE203C013E201C070
:104F200010E35D98812FDF91CF911F910895CF936A
:104F3000DF93EC01CE014EDF80538A30D8F7DF914A
:104F4000CF9108950696E2CE08950F931F93CF93C5
:104F5000DF93062F142FEC012696CE01D8DE6CE3EA
:104F6000CE01DDDE602FCE01DADE612FCE01D7DE8D
:104F7000CE01D1DEDF91CF911F910F910895CF9394
:104F8000DF93EC010696BEDE40E760E0CE01DDDF98
:104F900040E261E0CE01D9DF41E062E0CE01D5DF41
:104FA0001982188218861F821B821A821A86198615
:104FB0001D821C821C861B86DF91CF910895AF92C3
:104FC000BF92CF92DF92EF92FF921F93CF93DF9326
:104FD00000D000D000D0CDB7DEB75C01F8946C01F2
:104FE00026E0C20ED11CC60192DE6CE3C60197DE3C
:104FF00063E0C60194DEC6018ADE6DE3C6018FDE82
:10500000CE0101967C0110E0153030F461E0C6015C
:1050100096DEF701808305C060E0C60190DEF701EF
:1050200080831F5FFFEFEF1AFF0A163069F7C60192
:1050300072DE898190E0982F88272A81822BF501E2
:10504000918380838B8190E0982F88272C81822BFD
:10505000938382838D8190E0982F88272E81822BE5
:10506000958384837894808191818115904F09F490
:1050700049C0F501828193818115904F09F444C0A4
:10508000F501848195818115904F09F43FC0F501A8
:1050900026E0A20EB11CDF01808191812585368535
:1050A0002817390784F49687858723893489820FE6
:1050B000931F99230CF401969595879518969C93C8
:1050C0008E93179719C0438954898417950774F4F0
:1050D000948B838B820F931F99230CF401969595E3
:1050E000879518969C938E93179706C027813085D5
:1050F000821B930B918380833296EA15FB0559F648
:1051000080E005C081E003C081E001C081E0269617
:105110000FB6F894DEBF0FBECDBFDF91CF911F91C8
:10512000FF90EF90DF90CF90BF90AF9008952F92B7
:105130003F924F925F926F927F928F929F92AF9227
:10514000BF92CF92DF92EF92FF920F931F93CF9374
:10515000DF93CDB7DEB764970FB6F894DEBF0FBE0E
:10516000CDBF1C014A015B016801790128DF811173
:10517000F4C0C701B6010E94783169837A838B83BA
:105180009C83F10162817381072E000C880B990BBF
:105190000E9416322B013C01C501B4010E949233DA
:1051A0006D837E838F839887F10164817581072EDB
:1051B000000C880B990B0E94163269877A878B87BF
:1051C0009C87C501B4010E9478314B015C01C70185
:1051D000B6010E9492336D877E878F87988BA501D9
:1051E0009401C301B2010E942F330E94E331072EC4
:1051F000000C880B990B0E9416326B017C012985EB
:105200003A854B855C856D817E818F8198850E9472
:105210002F339B01AC01C701B601A0D70E94E33137
:10522000072E000C880B990B0E941632698B7A8B23
:105230008B8B9C8BF10160817181072E000C880B98
:10524000990B0E94163229813A814B815C810E9420
:105250002F330E94E331072E000C880B990B0E941C
:1052600016326B017C012D813E814F815885C3012F
:10527000B2010E942F339B01AC0169817A818B813D
:105280009C810E942F339B01AC01C701B60166D7F8
:105290000E94E331072E000C880B990B0E941632F6
:1052A0006B017C01A501940169857A858B859C85BC
:1052B0000E942F332D853E854F8558890E942F33BC
:1052C0009B01AC01C701B60149D70E94E331072E0B
:1052D000000C880B990B0E94163229893A894B8958
:1052E0005C89AFD720E030E044E353E40E942F33E1
:1052F0002BED3FE049E450E4FED720E030E044E30A
:1053000053E42CD726E636E646E150E427D76B0176
:105310007C0120E030E044EB53E40E9424338823F6
:1053200054F020E030E044EB53E4C701B60115D758
:105330006B017C011AC020E030E0A901C701B60171
:10534000D3D7882394F420E030E044EB53E4C70142
:10535000B60104D76B017C0108C00F2EC12CD12CE3
:10536000F0E8EF2EFFEBFF2EF02D41E062E0C101EF
:10537000ECDDC701B60164960FB6F894DEBF0FBE30
:10538000CDBFDF91CF911F910F91FF90EF90DF90F4
:10539000CF90BF90AF909F908F907F906F905F90D5
:1053A0004F903F902F900895FC0116861586148A21
:1053B000138A10861782108A1786168A158A128613
:1053C0001186128A118A108E178A14861386089500
:1053D00046969CCC08954F925F926F927F92AF92C7
:1053E000BF92CF92DF92EF92FF921F93CF93DF9302
:1053F00000D000D000D0CDB7DEB75C01F8946C01CE
:1054000086E1C80ED11CC60182DC6AE3C60187DCD6
:1054100068EAC60184DCC6017ADC6BE3C6017FDC86
:10542000FE0131967F0110E0153030F461E0C601D5
:1054300086DCF701808305C060E0C60180DCF701EF
:1054400080831F5FFFEFEF1AFF0A163069F7C6016E
:1054500062DC6A8170E0762F66278981682BF5010E
:10546000758364838C8190E0982F88272B817C0141
:10547000E22AF182E0822E8130E0322F22278D81D4
:105480006901C82AD382C282072E000C880B990BAF
:10549000CDD72B013C01B601DD0C880B990BC6D78B
:1054A0009B01AC01C301B201CCD62BED3FE049EC2E
:1054B0005FE353D6F5016487758786879787B701C1
:1054C000FF0C880B990BB2D79B01AC01C301B20151
:1054D000B8D62BED3FE049EC5FE33FD6F50160879E
:1054E000718782879387789426960FB6F894DEBFEB
:1054F0000FBECDBFDF91CF911F91FF90EF90DF9056
:10550000CF90BF90AF907F906F905F904F90089535
:10551000AF92BF92CF92DF92EF92FF921F93CF9301
:10552000DF9300D000D000D0CDB7DEB75C016C01B6
:1055300086E1C80ED11CC601EADB6AE3C601EFDBD7
:1055400068EAC601ECDBC601E2DB6BE3C601E7DB20
:10555000FE0131967F0110E0153030F461E0C601A4
:10556000EEDBF701808305C060E0C601E8DBF701F0
:1055700080831F5FFFEFEF1AFF0A163069F7C6013D
:10558000CADB8A8190E0982F88272981822BF50138
:10559000958384838C8190E0982F88272B81822BA0
:1055A000918380832E8130E0322F22278D81282B1A
:1055B0003383228326960FB6F894DEBF0FBECDBF8D
:1055C000DF91CF911F91FF90EF90DF90CF90BF9030
:1055D000AF900895AF92BF92CF92DF92EF92FF9279
:1055E0001F93CF93DF9300D0CDB7DEB76C01F89453
:1055F0007C0186E1E80EF11CC70189DB6AE3C70183
:105600008EDB65E8C7018BDBC70181DB6BE3C7017C
:1056100086DBFE0131965F0111E004C01F5FFFEFE2
:10562000AF1ABF0A113029F461E0C70188DB898312
:10563000F5CF60E0C70183DBF5018083123070F3A2
:10564000C70169DB2A8130E0322F22278981282B8C
:10565000319521953109F6013783268378940F908F
:105660000F90DF91CF911F91FF90EF90DF90CF903F
:10567000BF90AF9008950F931F93CF93DF93062FA2
:10568000142FEC016696CE0142DB6AE3CE0147DBC4
:10569000602FCE0144DB612FCE0141DBCE013BDB2D
:1056A000DF91CF911F910F91089540E46EE2E3CF17
:1056B000089540E06EE2DFCF0895CF93DF93EC01D1
:1056C00047E460E2D8DF40E061E2CE01D4DF40E8A9
:1056D00064E2CE01D0DFCE01ECDFDF91CF910895FF
:1056E000CF93DF93EC0146960DDB1F821E82188656
:1056F00019861A861B861C861D861E861F86198A99
:10570000188A1A8A1B8A1C8A1D8ADE01A152BF4F81
:105710001D921D921D921C921397FE01ED51FF4F99
:10572000108211821282138234968BE190E0918371
:105730008083198218821B821A821D821C82E05D7E
:10574000F1099D011192119211921192E217F30742
:10575000C9F7CE01B2DFDF91CF9108958F929F926A
:10576000AF92BF92CF92DF92EF92FF921F93CF93AF
:10577000DF93EC01F89419E1812C912C5401CE01B6
:10578000C7DEEC81FD81A881B9814A815B819D01E1
:105790000E94FD376B017C019F01DF010E94FD37F4
:1057A000C60ED71EE81EF91E9A01DA010E94FD37C7
:1057B000C60ED71EE81EF91EC701B60135D6BCD7E6
:1057C0006B017C01C501B4012FD6A7019601C6D497
:1057D000FFD54B015C01115091F6789429E130E03E
:1057E00040E050E00E94D2378A899B89AC89BD890C
:1057F000820F931FA41FB51FB695A7959795879500
:105800008A8B9B8BAC8BBD8BDF91CF911F91FF90CF
:10581000EF90DF90CF90BF90AF909F908F900895C2
:105820002F923F924F925F926F927F928F929F92B0
:10583000AF92BF92CF92DF92EF92FF920F931F939E
:10584000CF93DF93CDB7DEB729970FB6F894DEBFBD
:105850000FBECDBF8C01962E89E1689F50011124A7
:10586000AA0CBB1CAA0CBB1C750197E1E90EF11C2C
:10587000E00EF11EABE7AA0EB11CA00EB11EC801CE
:1058800087013C01C30144DEF30144805580A081BF
:10589000B181428153819D010E94FD376B017C01E2
:1058A0009201D2010E94FD37C60ED71EE81EF91ED6
:1058B0009A01DA010E94FD37C60ED71EE81EF91EB6
:1058C000C701B601B1D538D783D5D8016D937D9383
:1058D0008D939D938D01AA15BB05A1F68301992097
:1058E00009F455C1F30182889388A488B588C3015F
:1058F00047969B838A8373019FEDE90EF11CEA8131
:10590000FB8120E0712CB8016D517F4FA701372D2D
:105910006F01CB01BF011C01F60181919191A19111
:10592000B1916F0188159905AA05BB0578F0FA01B8
:105930004080518062807380840D951DA61DB71D27
:1059400080839183A283B3832F5F0EC0F1014080D7
:10595000518062807380840D951DA61DB71D8083C4
:105960009183A283B3833F5FCE14DF04A9F6732E25
:105970007B836A836801FFEDCF0ED11C30E040E0ED
:1059800050E0D6016D917D918D919C910E94D2370E
:10599000822E932EA42EB52EF601208331834283CE
:1059A00053836801F3EECF0ED11C272D30E040E089
:1059B00050E0D6016D917D918D919C910E94D237DE
:1059C000422E532E642E752EF6012083318342839E
:1059D000538330E020E03496CC24C3940F2EF3E0C0
:1059E000DF2EF02D6894222421F8312C29838A811E
:1059F0009B819D838C831B830A83311125C0AC81DD
:105A0000BD814D915D916D917C9180819181092E37
:105A1000000CAA0BBB0B8A019B01080F191F2A1F40
:105A20003B1F041515052605370508F48CC0481BD7
:105A3000590B6A0B7B0B3C2D84169506A606B70600
:105A400008F484C0332D82C0313001F5408151818A
:105A5000052E000C660B770BAC81BD818D919D915D
:105A60000D90BC91A02D8E839F83A887B987840F4A
:105A7000951FA61FB71F88159905AA05BB0508F035
:105A800065C0B981BF5FB983322D60C03230E1F4A7
:105A900040815181052E000C660B770BAC81BD81D6
:105AA0008D919D910D90BC91A02D8E839F83A88791
:105AB000B987840F951FA61FB71F84159505A605E6
:105AC000B70508F442C042C03330F9F44081518137
:105AD000052E000C660B770BAC81BD818D919D91DD
