:10000000D0C20000FDC20000FBC20000F9C2000027
:10001000F7C20000F5C20000F3C20000F1C2000008
:10002000EFC20000EDC20000EBC200000C94391BCF
:10003000E7C20000E5C20000E3C20000E1C2000028
:10004000DFC20000DDC20000DBC20000D9C2000038
:10005000D7C20000D5C20000D3C20000D1C2000048
:10006000CFC20000CDC20000CBC20000C9C2000058
:10007000C7C20000C5C20000C3C20000C1C2000068
:10008000BFC20000BDC20000BBC200006C189418C3
:10009000BE18E91813193C1964198D19051A301A7C
:1000A000391F441F4A1F501F571F5D1F6B1FFA1F28
:1000B000002006200C20122018201E202420084A90
:1000C000D73B3BCE016E84BCBFFDC12F3D6C74316C
:1000D0009ABD56833DDA3D00C77F11BED9E4BB4CC3
:1000E0003E916BAAAABE000000803F05A84CCDB28D
:1000F000D44EB93836A9020C50B9918688083CA66E
:10010000AAAA2ABE000000803F08000000BE922478
:1001100049123EABAAAA2ABECDCCCC4C3E00000070
:1001200080BEABAAAAAA3E00000000BF000000806B
:100130003F0000000000084178D3BB4387D1133D46
:10014000190E3CC3BD4282AD2B3E68EC8276BED90F
:100150008FE1A93E4C80EFFFBE01C4FF7F3F00004E
:100160000000000664EC1B3C04BC163E3BE5B93CB9
:10017000C93C37C29E5A3D660498083EEA69AAAA5D
:100180003E000000803F00E0F8FCFE1E0707070766
:100190001EFEFCF8F00000070F3F3F7C707070708F
:1001A0007C3F1F1F0700000000060707FFFFFFFF3F
:1001B0000000000000000000000000007F7F7F7F43
:1001C00000000000000000383C3E3E0F070707CF4C
:1001D000FFFEFE3800000040406070787C7E7F7734
:1001E00073717070000000181C1E1E0FC7C7E7FF58
:1001F000FEBE9C000000000C1C3C3C7870707079C6
:100200007F3F1F0F0000000080C0E070381C1EFF01
:10021000FFFFFF0000000607070706060606067F29
:100220007F7F7F06060000000000F0FFFFFFE7E78A
:10023000E7E7C78700000000387871707070707051
:10024000393F3F1F0F000080E0F0F8FC7F7F6F67B1
:10025000E1E1C0800000000F1F3F3F7870707070B8
:10026000783F3F1F0F00000707070707C7E7F7FFA3
:100270007F3F1F0703010020387C7E3F0F070300EC
:100280000000000000000000001CBEFEFFE7C3C32A
:10029000E7FFFEBE1C0000000E3F3F7F7160606004
:1002A000717F3F3F0F000078FCFEFE8F07070707B6
:1002B0008FFEFEFCF800000000014343737B7F7F4C
:1002C0001F0F0703000000005F0000000700070089
:1002D000147F147F14242A7F2A12231308646236A1
:1002E000495522500005030000001C224100004136
:1002F000221C0014083E081408083E08080050306C
:1003000000000808080808006060000020100804C9
:10031000023E5149453E00427F40004261514946FC
:100320002141454B311814127F1027454545393C72
:100330004A49493001710905033649494936064998
:1003400049291E00363600000056360000081422E7
:10035000410014141414140041221408020151091C
:1003600006324979413E7E1111117E7F4949493655
:100370003E414141227F4141221C7F494949417F01
:10038000090909013E4149497A7F0808087F00416F
:100390007F41002040413F017F081422417F4040BF
:1003A00040407F020C027F7F0408107F3E414141A4
:1003B0003E7F090909063E4151215E7F0919294600
:1003C000464949493101017F01013F4040403F1FFB
:1003D0002040201F3F4038403F6314081463070843
:1003E0007008076151494543007F414100020408FC
:1003F00010200041417F00040201020440404040BF
:1004000040000102040020545454787F484444388A
:100410003844444420384444487F385454541808DD
:100420007E0901020C5252523E7F080404780044B7
:100430007D40002040443D007F1028440000417F63
:1004400040007C041804787C080404783844444450
:10045000387C14141408081414187C7C080404084C
:100460004854545420043F4440203C4040207C1CCD
:100470002040201C3C4030403C44281028440C5074
:1004800050503C4464544C44000836410000007F06
:100490000000004136080010080810086E616E0068
:1004A000696E660000407A10F35A00A0724E180977
:1004B0000010A5D4E80000E87648170000E40B54CB
:1004C000020000CA9A3B000000E1F505000080969A
:1004D0009800000040420F000000A08601000000CC
:1004E000102700000000E803000000006400000086
:1004F00000000A00000000000100000000002C764F
:10050000D888DC674F0823DFC1DFAE59E1B1B79669
:10051000E5E3E453C63AE651997696E8E6C28426C6
:10052000EB898C9B62ED407C6FFCEFBC9C9F40F2A2
:10053000BAA56FA5F490055A2AF75C936B6CF9671E
:100540006DC11BFCE0E40D47FEF520E6B500D0EDE3
:10055000902E0300943577050080841E080000204B
:100560004E0A000000C80C333333330F986E1283E9
:100570001141EF8D2114893BE65516CFFEE6DB18BD
:10058000D1844B381BF77C1D901DA4BBE424203282
:1005900084725E228100C9F124ECA1E53D2721236C
:1005A0004E2311241FBECFEFD0E4DEBFCDBF13E03A
:1005B000A0E0B1E0E0E6FAE600E00BBF02C0079081
:1005C0000D92AC33B107D9F727E0ACE3B3E001C03B
:1005D0001D92A63BB207E1F715E0C0EAD5E000E0C6
:1005E00006C022970109FE010BBF0E946F33CE396E
:1005F000D10780E00807A9F70E9419230C941F3542
:10060000FFCC9C5F0C9476230895FC0120E030E041
:1006100011922F5F3F4F211584E03807C9F70895E5
:100620001F93CF93DF93162FEC01DC5FCE010E9466
:10063000772368E7CE010E947F2360E0CE010E940D
:100640007F23612FCE010E947F23CE010E947B2356
:10065000DF91CF911F910895CF93DF93EC016EEA64
:10066000DFDF65EDCE01DCDF60E8CE01D9DF68EACF
:10067000CE01D6DF6FE3CE01D3DF63EDCE01D0DF55
:1006800060E0CE01CDDF60E4CE01CADF6DE8CE01CF
:10069000C7DF64E1CE01C4DF60E2CE01C1DF60E00C
:1006A000CE01BEDF61EACE01BBDF68ECCE01B8DF70
:1006B0006AEDCE01B5DF62E1CE01B2DF61E8CE01C5
:1006C000AFDF6FECCE01ACDF69EDCE01A9DF61EFEA
:1006D000CE01A6DF6BEDCE01A3DF60E4CE01A0DF8B
:1006E00064EACE019DDF66EACE019ADF6FEACE01B1
:1006F00097DFDF91CF910895CF93DF93EC019C5F5B
:100700000E947223CE01A8DFDF91CF910895662366
:1007100019F067EA85CF089566EA82CF0895EF92CF
:10072000FF920F931F93CF93DF938C0161E278DFE9
:1007300060E0C80175DF6FE7C80172DF62E2C801DF
:100740006FDF60E0C8016CDF67E0C80169DF780136
:100750008CEFF81AC7010E94772368E7C7010E944F
:100760007F2360E4C7010E947F23C0E0D0E0F8014E
:1007700061918F01C7010E947F232196C115F4E08A
:10078000DF07A9F7C7010E947B23DF91CF911F915B
:100790000F91FF90EF9008956623BCF14034A8F5C7
:1007A000211119C0E42FE695E695E69520E8E29F31
:1007B000F0011124E60FF11DE80FF91F477021E049
:1007C00030E0C90102C0880F991F4A95E2F7908175
:1007D000892B80830895E42FE695E695E69530E829
:1007E000E39FF0011124E60FF11DE80FF91F477098
:1007F00081E090E09C0102C0220F331F4A95E2F78E
:10080000A90140958081482340830895FF920F936A
:100810001F93CF93DF93EC01062F222359F0F22E82
:10082000F40E142F20E0412F602FCE01B5DF1F5FA3
:100830001F11F8CFDF91CF911F910F91FF90089575
:10084000FF920F931F93CF93DF93EC01042F22238A
:1008500059F0F22EF60E162F20E0402F612FCE0118
:100860009BDF1F5F1F11F8CFDF91CF911F910F9179
:10087000FF9008952F923F924F925F926F927F92D6
:100880008F929F92AF92BF92CF92DF92EF92FF92A0
:100890000F931F93CF93DF93CDB7DEB72B970FB690
:1008A000F894DEBF0FBECDBF1C01D62EC42E298307
:1008B000222309F468C0C801B7010E94052D2B014D
:1008C0003C01C801B7010E94642F4B015C011B86EB
:1008D0001A868C2D90E0A0E0B0E08A839B83AC83E5
:1008E000BD838D2D90E0A0E0B0E08E839F83A8872C
:1008F000B987AA85BB85BD01882777FD8095982F8C
:100900000E94A32DA50194010E94012F6B017C017F
:100910006A817B818C819D810E94A32D9B01AC010A
:10092000C701B6010E943B2C0E94752D162F6A85C7
:100930007B85719561957109882777FD8095982F42
:100940000E94A32DA30192010E94012F6B017C0143
:100950006E817F81888599850E94A32D9B01AC01C2
:10096000C701B6010E943B2C0E94752D20E0412F4B
:10097000C10112DFEA85FB853196FB87EA87F981A1
:10098000EF1708F4B6CF2B960FB6F894DEBF0FBE64
:10099000CDBFDF91CF911F910F91FF90EF90DF902E
:1009A000CF90BF90AF909F908F907F906F905F900F
:1009B0004F903F902F9008952F923F924F925F92C9
:1009C0006F927F928F929F92AF92BF92CF92DF925F
:1009D000EF92FF920F931F93CF93DF93CDB7DEB7C4
:1009E00060970FB6F894DEBF0FBECDBF1C016F87B6
:1009F0004D832983C601B50125E33AEF4EE85CE358
:100A00000E94012F4B015C0125E33AEF4EE85CE3C5
:100A1000C801B7010E94012F6E837F838887998761
:100A20007980769485017401272D4D816F85C101F0
:100A300021DF2BED3FE049E450E4C501B4010E9401
:100A40003A2C7B018C01272D4D816F85C10112DF6E
:100A50006E817F81888599850E946D2F6B017C0155
:100A6000672D70E080E090E00E94A32DA701960121
:100A70000E94012F0E94752D688B2BED3FE049EC01
:100A80005FE3C501B4010E943A2C6A877B878C879B
:100A90009D877B018C0128894D816F85C101EADE2C
:100AA0006E817F81888599850E94052D6B017C016F
:100AB0002981622F70E080E090E00E94A32D2B013D
:100AC0003C01A7019601C701B6010E943B2C9B0186
:100AD000AC01C301B2010E94082D0E94752D6E87E2
:100AE000E8896E2F70E080E090E00E94A32D69837A
:100AF0007A838B839C836A857B858C859D850E9408
:100B0000052D6B017C01FF856F2F70E080E090E088
:100B10000E94A32D2B013C01A701960169817A81D6
:100B20008B819C810E94012F9B01AC01C301B2010A
:100B30000E943A2C0E94752D6F876A857B858C8573
:100B40009D850E94642F6B017C012D81622F70E0D6
:100B500080E090E00E94A32D2B013C01A7019601AB
:100B600069817A818B819C810E94012F9B01AC015C
:100B7000C301B2010E943B2C0E94752DD62EA50107
:100B800094016E817F81888599850E943B2C7B0131
:100B90008C012E854D2D6F85C1016CDE2E813F812C
:100BA00048855985C501B4010E943A2C2BED3FE0E0
:100BB00049E450E40E943A2C7B018C012E854D2D96
:100BC0006F85C10157DE60960FB6F894DEBF0FBE89
:100BD000CDBFDF91CF911F910F91FF90EF90DF90EC
:100BE000CF90BF90AF909F908F907F906F905F90CD
:100BF0004F903F902F9008950F931F93CF93DF93C3
:100C0000613208F442C0A42FB0E0022F0695069589
:100C1000069530E8039F80011124ED01C00FD11F1C
:100C200000581F4F0A0F1B1F6152462F50E0FA0158
:100C3000EE0FFF1FEE0FFF1FE40FF51FEA53FD4FEE
:100C4000DC01AC0FBD1FAE0105968C0F9D1F2770F8
:100C5000649170E0022E02C0660F771F0A94E2F7DB
:100C60003C91362B3C93672F77276115710541F036
:100C7000ED01C41BD50BC00FD11F3881632B6883D6
:100C800031961196A817B90719F7DF91CF911F91E7
:100C90000F910895EF92FF920F931F93CF93DF93DD
:100CA0006A3008F066C050E0022F0695069506955A
:100CB00010E0D801B695BA2FAA27B795A7950F5F70
:100CC0001F4F1695102F0027179507957D0130E8C7
:100CD000E30EF11CE40EF51EE80EF91EEA01C00F4A
:100CE000D11F6097C80FD91F040F151F00591F4F40
:100CF000080F191FA40FB51FA80FB91FE0E26E9FC0
:100D0000C001112440E050E08A579E4F2770FC013B
:100D1000E40FF51FE491F0E0022E02C0EE0FFF1F7A
:100D20000A94E2F7403168F43C913E2B3C936F2FDC
:100D300077276115710589F0F7013081362B3083F3
:100D40000CC038813E2B38836F2F772761157105D2
:100D500021F0F8013081362B30834F5F5F4FFFEF7A
:100D6000EF1AFF0A21960F5F1F4F1196403251056F
:100D700071F6DF91CF911F910F91FF90EF90089541
:100D80002F923F924F925F926F927F928F929F929B
:100D9000AF92BF92CF92DF92EF92FF920F931F9389
:100DA000CF93DF93CDB7DEB727970FB6F894DEBFAA
:100DB0000FBECDBF9F838E836D83342E002309F435
:100DC00026C1622F70E080E090E00E94A32D20E019
:100DD00030E040EC50E40E94012F2BED3FE049E46D
:100DE00050E40E94012F20E030E044E353E40E94ED
:100DF000082D2BED3FE049EC5FE30E943A2C6B019C
:100E00007C010E94052D2B013C01C701B6010E9407
:100E1000642F4B015C0100E010E0B801882777FDEA
:100E20008095982F0E94A32D6B017C01A501940150
:100E30000E94012F20E030E048EF51E40E943B2C5B
:100E40000E94752D262EA3019201C701B6010E94B2
:100E5000012F20E030E048EF51E40E943B2C0E943B
:100E6000752D20E0422D8E819F8196DC0F5F1F4FF4
:100E70000931110591F6632D70E080E090E00E9449
:100E8000A32D69837A838B839C8320E030E040EC40
:100E900050E40E94012F2BED3FE049E450E40E9412
:100EA000012F20E030E044E353E40E94082D2BEDB5
:100EB0003FE049EC5FE30E943A2C6B017C010E9409
:100EC000052D4B015C01C701B6010E94642F2B0167
:100ED0003C0100E010E0B801882777FD8095982F4D
:100EE0000E94A32D6B017C01A30192010E94012F9E
:100EF00020E030E048EF51E40E943B2C0E94752D29
:100F0000362EA5019401C701B6010E94012F20E0F1
:100F100030E048EF51E40E943B2C0E94752D20E008
:100F2000432D8E819F8138DC0F5F1F4F05311105E6
:100F300091F62D81622F70E080E090E00E94A32D59
:100F400020E030E040EF51E40E94012F6B017C0172
:100F500020E030E040E05FE369817A818B819C8111
:100F60000E94012F9B01AC01C701B6010E943B2CDE
:100F70002BED3FE049E450E40E94012F20E030E0F7
:100F800044E353E40E94082D2BED3FE049EC5FE37E
:100F90000E943A2C6B017C010E94052D2B013C0123
:100FA000C701B6010E94642F4B015C0100E010E014
:100FB000B801882777FD8095982F0E94A32D6B019B
:100FC0007C01A50194010E94012F20E030E048EF50
:100FD00051E40E943B2C0E94752D362EA3019201F4
:100FE000C701B6010E94012F20E030E048EF51E434
:100FF0000E943B2C0E94752D20E0432D8E819F8105
:10100000CBDB0F5F1F4F0D30110591F6CBC0642F66
:1010100070E080E090E00E94A32D69837A838B8347
:101020009C8320E030E040EC50E40E94012F2BED47
:101030003FE049E450E40E94012F20E030E044E327
:1010400053E40E94082D2BED3FE049EC5FE30E9442
:101050003A2C6B017C010E94052D4B015C01C701FC
:10106000B6010E94642F2B013C0100E010E0B801A2
:10107000882777FD8095982F0E94A32D6B017C0116
:10108000A30192010E94012F20E030E048EF51E4DB
:101090000E943B2C0E94752D362EA5019401C7019C
:1010A000B6010E94012F20E030E048EF51E40E9499
:1010B0003B2C0E94752D20E0432D8E819F816CDB9F
:1010C0000F5F1F4F0931110591F6ED816E2F70E012
:1010D00080E090E00E94A32D20E030E040EF51E45A
:1010E0000E94012F6B017C0120E030E040E05FE3D3
:1010F00069817A818B819C810E94012F9B01AC01C7
:10110000C701B6010E943B2C2BED3FE049E450E4BF
:101110000E94012F20E030E044E353E40E94082DB8
:101120002BED3FE049EC5FE30E943A2C6B017C0120
:101130000E94052D2B013C01C701B6010E94642FBE
:101140004B015C0100E010E0B801882777FD809535
:10115000982F0E94A32D6B017C01A50194010E9490
:10116000012F20E030E048EF51E40E943B2C0E9428
:10117000752D362EA3019201C701B6010E94012FE1
:1011800020E030E048EF51E40E943B2C0E94752D96
:1011900020E0432D8E819F81FFDA0F5F1F4F0131C9
:1011A000110591F620E04AE161E38E819F8124DD03
:1011B00020E040E262E38E819F811EDD2CE14AE364
:1011C00063E38E819F8118DD28E34DE166E38E8124
:1011D0009F8112DD2CE140E069E38E819F810CDD6F
:1011E00020E048E06CE28E819F81D6DA20E042E187
:1011F00065E38E819F81D0DA20E04CE265E38E8149
:101200009F81CADA20E045E36BE28E819F81C4DAD8
:1012100020E045E361E18E819F81BEDA20E04CE26F
:1012200068E08E819F81B8DA20E041E168E08E813C
:101230009F81B2DA20E048E062E18E819F81ACDAE2
:1012400027960FB6F894DEBF0FBECDBFDF91CF91CA
:101250001F910F91FF90EF90DF90CF90BF90AF90D4
:101260009F908F907F906F905F904F903F902F90C6
:101270000895ECE7F0E090818F71907E982B908339
:10128000EAE7F0E0808180648083808186FDFDCF85
:1012900080917800909179000895CF92DF92EF923B
:1012A000FF9280E0E6DFBC0180E090E00E94A12D8B
:1012B00020E030EC4FE754E40E94082D2CE53FE895
:1012C00042E550E40E94012F2DE031E740E050E478
:1012D0000E94012F60934F0370935003809351033A
:1012E0009093520320E030E040E450E40E943A2C16
:1012F00028E939E949E95FE30E94082D20E030E060
:1013000048EC52E40E94012F6B017C0120E030E0A8
:1013100040E251E40E94012F0E94752D8DEC689FE0
:10132000812D1124869586958695880F982F990F83
:10133000990F890F681B653070F0C701B6010E94D4
:10134000752D70E06F5F7F4F882777FD8095982F10
:101350000E94A32D09C0C701B6010E94752D70E03F
:1013600080E090E00E94A12D0E94702D862FFF90BA
:10137000EF90DF90CF900895F894F999FECF92BD49
:1013800081BD60BDFA9AF99A78940895F894F99914
:10139000FECF92BD81BDF89A789480B50895CF9222
:1013A000DF92EF92FF920F931F93CF93DF93CDB70E
:1013B000DEB764970FB6F894DEBF0FBECDBF8DE7E2
:1013C00093E023D98FE0E0E0F1E08E010F5F1F4F43
:1013D000D80101900D928A95E1F7C02ED12E7801A7
:1013E00010E0F70161917F0120E0412F8DE793E04C
:1013F00003DC1A5F1435A9F78FE0EFE0F1E0DE01BE
:10140000119601900D928A95E1F7EC2CFD2C10E0DD
:10141000F70161917F0128E0412F8DE793E0ECDB3C
:101420001A5F1435A9F780E48F9386E08F9386E6E0
:101430008F938F938EE191E09F938F93CE010196CE
:101440009F938F930E9493340FB6F894DEBF0FBE24
:10145000CDBF8823C9F081506894EE24E1F8F12CC7
:10146000EC0EFD1EE80EF11C0C2D1D2DD12CF801EB
:1014700061918F0120E24D2D8DE793E0BDDBF6E019
:10148000DF0E0E151F0599F78DE793E048D98DE71C
:1014900093E0BBD885E02FE738E391E0215030405E
:1014A0009040E1F700C00000EFE7F8E321E0E150F1
:1014B000F0402040E1F700C00000815061F76496E1
:1014C0000FB6F894DEBF0FBECDBFDF91CF911F9155
:1014D0000F91FF90EF90DF90CF900895EF92FF92E1
:1014E0000F931F93CF93DF93CDB7DEB764970FB6FB
:1014F000F894DEBF0FBECDBF813009F451C020F09B
:10150000823009F487C0BEC00F2EFEE7EF2EF7E051
:10151000FF2EF02D10E0F70161917F0120E0412FB7
:101520008DE793E069DB1A5F1033A9F7B6DE282F49
:10153000332727FD30953F938F938CE291E09F9363
:101540008F93CE0101969F938F930E94933425E150
:10155000F22EF81A0F900F900F900F900F900F909F
:10156000F4E1FF1508F48EC0EF2CEE0CEF0CEE0C3E
:101570008C011127E1E0F0E0EC0FFD1FEF0DF11DF4
:10158000E00FF11F759720E04E2D60818DE793E00D
:1015900033DBF39426E0E20E85E1F812EBCF72C064
:1015A0007CDE282F332727FD30953F938F938CE2E5
:1015B00091E09F938F93CE0101969F938F930E940A
:1015C000933425E1F22EF81A0F900F900F900F90A0
:1015D0000F900F90E4E1EF1508F454C0EF2CEE0CDF
:1015E000EF0CEE0C8C011127E1E0F0E0EC0FFD1F99
:1015F000EF0DF11DE00FF11F759720E04E2D60817A
:101600008DE793E0F9DAF394F6E0EF0E25E1F212BC
:10161000EBCF38C042DE282F332727FD30953F938C
:101620008F9381E391E09F938F93CE0101969F93D7
:101630008F930E94933425E1F22EF81A0F900F90A9
:101640000F900F900F900F90E4E1EF15D8F0EF2C72
:10165000EE0CEF0CEE0C8C011127E1E0F0E0EC0F4A
:10166000FD1FEF0DF11DE00FF11F759720E04E2DCE
:1016700060818DE793E0C0DAF394F6E0EF0E25E1A8
:10168000F212EBCF64960FB6F894DEBF0FBECDBF5B
:10169000DF91CF911F910F91FF90EF9008951F93CD
:1016A000CF93DF93882319F0813071F019C0C6E819
:1016B000D7E010E5699128E3412F8DE793E09CDAAC
:1016C0001A5F1038B9F70CC0C6E8D7E015E0699189
:1016D00028E3412F8DE793E08FDA1A5F1533B9F7CE
:1016E000DF91CF911F910895CF92DF92EF92FF92F9
:1016F000CF93DF936B017C01C42FD22F20E030E029
:1017000040EB51E40E94012D882354F020E030E0AA
:1017100049EA53E4C701B6010E94B12E882354F070
:101720002D2F220F220F220F4C2F6EE48DE793E016
:1017300063DAABC020E030E048E852E4C701B6010C
:101740000E94012D882394F4DD0FDD0FDD0F4DEF96
:101750004C0F2D2F6EE48DE793E04EDA43E04C0FF3
:101760002D2F6FE48DE793E047DA8FC020E030E063
:1017700042EE52E4C701B6010E94012D882354F4C1
:101780002D2F220F220F220F4C2F6FE48DE793E0B5
:1017900033DA7BC020E030E04EE153E4C701B6010C
:1017A0000E94012D882394F4DD0FDD0FDD0F4DEF36
:1017B0004C0F2D2F63E58DE793E01EDA43E04C0FCD
:1017C0002D2F6FE48DE793E017DA5FC020E030E063
:1017D0004BE453E4C701B6010E94012D882354F461
:1017E0002D2F220F220F220F4C2F63E58DE793E060
:1017F00003DA4BC020E030E048E753E4C701B6010C
:101800000E94012D882394F4DD0FDD0FDD0F4DEFD5
:101810004C0F2D2F63E58DE793E0EED943E04C0F9D
:101820002D2F67E58DE793E0E7D92FC020E030E862
:1018300042E953E4C701B6010E94012D882354F404
:101840002D2F220F220F220F4C2F67E58DE793E0FB
:10185000D3D91BC020E030E049EA53E4C701B60108
:101860000E94012D88238CF4DD0FDD0FDD0F4DEF7D
:101870004C0F2D2F6EE48DE793E0BED943E04C0F63
:101880002D2F67E58DE793E0B7D9DF91CF91FF90DA
:10189000EF90DF90CF900895AF92BF92CF92DF92FA
:1018A000EF92FF920F931F9359016A01E12CF12CE3
:1018B0000CE812E424E1462F682F8DE793E07CD8F2
:1018C0001F910F91FF90EF90DF90CF90BF90AF905E
:1018D0000895AF92BF92CF92DF92EF92FF920F9353
:1018E0001F9359016A01E12CF12C0CE812E42AE063
:1018F000462F682F8DE793E05FD81F910F91FF90DF
:10190000EF90DF90CF90BF90AF900895CF92DF928D
:10191000EF92FF920F931F93CF93DF93CDB7DEB774
:1019200064970FB6F894DEBF0FBECDBF8DE793E08E
:101930000E94050380E1E6E3F1E08E010F5F1F4F97
:10194000D80101900D928A95E1F7E02EF12E680101
:1019500010E0F60161916F0120E0412F8DE793E0E7
:101960004BD91A5F1A35A9F781E1E6E4F1E0DE010F
:10197000119601900D928A95E1F7CE2CDF2C10E0A4
:10198000F60161916F0128E0412F8DE793E034D992
:101990001A5F1036A9F78AE0E7E5F1E0DE0111965B
:1019A00001900D928A95E1F7CE2CDF2C10E0F60124
:1019B00061916F0120E1412F8DE793E01DD91A5FFE
:1019C0001633A9F78BE0E1E6F1E0DE011196019014
:1019D0000D928A95E1F7CE2CDF2C10E0F601619193
:1019E0006F0128E1412F8DE793E006D91A5F1C3380
:1019F000A9F780E1ECE6F1E0DE01119601900D928D
:101A00008A95E1F7CE2CDF2C10E0F60161916F0191
:101A100020E2412F8DE793E0EFD81A5F1A35A9F73E
:101A20008EE0ECE7F1E0DE01119601900D928A95CF
:101A3000E1F7CE2CDF2C10E0F60161916F0128E276
:101A4000412F8DE793E0D8D81A5F1E34A9F78EE0B6
:101A5000EAE8F1E0DE01119601900D928A95E1F736
:101A6000CE2CDF2C10E0F60161916F0120E3412FB5
:101A70008DE793E0C1D81A5F1E34A9F764960FB6BC
:101A8000F894DEBF0FBECDBFDF91CF911F910F91B4
:101A9000FF90EF90DF90CF900895AF92BF92DF92CA
:101AA000EF920F931F93CF93DF93CDB7DEB7649779
:101AB0000FB6F894DEBF0FBECDBF8DE793E00E9456
:101AC000050381E1E8E9F1E08E010F5F1F4FD801C6
:101AD00001900D928A95E1F7D02EE12E580110E089
:101AE000F50161915F0120E0412F8DE793E084D8FB
:101AF0001A5F1036A9F786E1E9EAF1E0DE011196F6
:101B000001900D928A95E1F7AD2CBE2C10E0F50105
:101B100061915F0128E0412F8DE793E06DD81A5F56
:101B20001E37A9F781E1EFEBF1E0DE01119601909C
:101B30000D928A95E1F7AD2CBE2C10E0F501619174
:101B40005F0120E1412F8DE793E056D81A5F1036F0
:101B5000A9F783E1E0EDF1E0DE01119601900D922D
:101B60008A95E1F7AD2CBE2C10E0F50161915F0183
:101B700028E1412F8DE793E03FD81A5F1C36A9F783
:101B800064960FB6F894DEBF0FBECDBFDF91CF9144
:101B90001F910F91EF90DF90BF90AF900895AF929B
:101BA000BF92DF92EF920F931F93CF93DF93CDB746
:101BB000DEB764970FB6F894DEBF0FBECDBF8DE7DA
:101BC00093E00E94050386E0E3EEF1E08E010F5FF3
:101BD0001F4FD80101900D928A95E1F7D02EE12E8A
:101BE000580110E0F50161915F0120E0412F8DE780
:101BF00093E002D81A5F1E31A9F78BE0E9EEF1E01D
:101C0000DE01119601900D928A95E1F7AD2CBE2C64
:101C100010E0F50161915F0128E0412F8DE793E02D
:101C20000E94FC051A5F1C33A1F788E0E4EFF1E0A5
:101C3000DE01119601900D928A95E1F7AD2CBE2C34
:101C400010E0F50161915F0120E1412F8DE793E004
:101C50000E94FC051A5F1A32A1F789E0ECEFF1E06F
:101C6000DE01119601900D928A95E1F7AD2CBE2C04
:101C700010E0F50161915F0128E1412F8DE793E0CC
:101C80000E94FC051A5F1033A1F78CE0E5E0F2E05A
:101C9000DE01119601900D928A95E1F7AD2CBE2CD4
:101CA00010E0F50161915F0120E2412F8DE793E0A3
:101CB0000E94FC051A5F1234A1F764960FB6F894DF
:101CC000DEBF0FBECDBFDF91CF911F910F91EF907F
:101CD000DF90BF90AF900895DF92EF92FF920F9345
:101CE0001F93CF93DF93CDB7DEB764970FB6F89409
:101CF000DEBF0FBECDBF86E693E00E940C2A8DE7C3
:101D000093E00E94050301E02091900740918F0726
:101D100060918E078DE793E033D80F2EFEE7EF2E0C
:101D2000F7E0FF2EF02D11E4F70161917F0120E033
:101D3000412F8DE793E00E94FC051A5F1137A1F750
:101D40000F2EF6E8EF2EF7E0FF2EF02D11E4F7014D
:101D500061917F0128E3412F8DE793E00E94FC050C
:101D60001A5F1137A1F799DA282F332727FD30950D
:101D70003F938F9381E391E09F938F93CE010196E0
:101D80009F938F930E9493340F900F900F900F901A
:101D90000F900F90882359F18E010F5F1F4F8150D4
:101DA0006894EE24E1F8F12CEC0EFD1EE80EF11C17
:101DB0000F2EF9E4DF2EF02DF80161918F01862FAF
:101DC000877F853239F428E14D2D8DE793E00E941D
:101DD000FC0508C0605324E14DEF4D0D8DE793E005
:101DE0000E944A06F0E1DF0E0E151F0529F7EAE60C
:101DF000F3E083818F9382818F9381818F938081A0
:101E00008F9381E192E09F938F93CE0101969F93F0
:101E10008F930E9493340FB6F894DEBF0FBECDBFF0
:101E20008823F1F08E010F5F1F4F81506894EE24DC
:101E3000E1F8F12CEC0EFD1EE80EF11C0F2EF6E47D
:101E4000DF2EF02DF80161918F0128E24D2D8DE7F5
:101E500093E00E94FC05F6E0DF0E0E151F0591F7DA
:101E600064960FB6F894DEBF0FBECDBFDF91CF9161
:101E70001F910F91FF90EF90DF9008950F931F93A4
:101E8000CF93DF938DE793E00E94050382E026DB8A
:101E900000E02091900740918F0760918E078DE7B9
:101EA00093E00E94C006CEE7D7E011E4699120E0FC
:101EB000412F8DE793E00E94FC051A5F1F35B1F7B3
:101EC000C6E8D7E011E4699128E3412F8DE793E05C
:101ED0000E94FC051A5F1137B1F760917E076053CD
:101EE0002DE046E48DE793E00E944A0660917F076B
:101EF00060532DE046E58DE793E00E944A0660912D
:101F00008107605322E246E48DE793E00E944A068F
:101F100060918207605322E246E58DE793E00E94DC
:101F20004A06DF91CF911F910F9108951F93CF9390
:101F3000DF938DE793E00E94050381E0B0DB81E051
:101F4000CDDA60917E0760532DE045E08DE793E0A8
:101F50000E944A0660917F0760532DE045E18DE7BE
:101F600093E00E944A0660918107605322E245E0B7
:101F70008DE793E00E944A0660918207605322E257
:101F800045E18DE793E00E944A06C8E9D7E0688101
:101F90001DEC619F612D11246695669566952DE077
:101FA00046E48DE793E00E944A066881619F812D97
:101FB0001124869586958695880F982F990F990FED
:101FC000890F681B2DE046E58DE793E00E944A06E5
:101FD000C7E9D7E06881619F612D112466956695F8
:101FE000669522E246E48DE793E00E944A06688106
:101FF000619F112D1124169516951695110F812F9D
:10200000880F880F180F611B22E246E58DE793E0E9
:102010000E944A068091960783FF07C020E040E0B7
:102020006FE68DE793E00E94FC0580914D0390914F
:102030004E0394FF09C060914C03605D20E046E0D0
:102040008DE793E00E94FC05DF91CF911F910895E9
:102050002F923F924F925F926F927F928F929F92B8
:10206000AF92BF92CF92DF92EF92FF920F931F93A6
:10207000CF93DF93CDB7DEB760970FB6F894DEBF8E
:102080000FBECDBF962E272E882E392E29013A015C
:102090000B871C872DA12D873EA13E878FA18F879F
:1020A00098A5988B8DE793E00E94050381E016DAEE
:1020B00080E0F5DA20E847E360E08DE793E00E94F6
:1020C000200425E44FE060E08DE793E00E942004C7
:1020D0002BE348E065E48DE793E00E94200420E1D3
:1020E00040E065E48DE793E00E94060421E448E2C5
:1020F0006FE38DE793E00E94200420E340E16FE36B
:102100008DE793E00E94060421E448E16FE38DE748
:1021100093E00E94200460917E07605320E040E03D
:102120008DE793E00E944A0660917F07605320E0AC
:1021300040E18DE793E00E944A0660918107605379
:1021400020E045E28DE793E00E944A066091820715
:10215000605320E045E38DE793E00E944A063F92FA
:102160008F922F929F9288E192E09F938F93CE015E
:1021700001969F938F930E94933428E0022F081BAF
:102180000FB6F894DEBF0FBECDBF083018F5102F84
:102190001295107F4C019924E1E0F0E0EC0FFD1F57
:1021A000E00FF11DE80DF91D389760816E3239F4AA
:1021B00020E2412F8DE793E00E94FC0507C06053A9
:1021C00028E1412F8DE793E00E944A060F5F105FE0
:1021D000083011F7A301920167E28FE17ADBFC85F9
:1021E000FF932B852F93FF92EF928EE192E09F93C6
:1021F0008F93CE0101969F938F930E949334882EE4
:102200000FB6F894DEBF0FBECDBF8820B9F0FE0137
:1022100031967F018F010F2EF6E49F2EF02DF801ED
:1022200061918F0120E1492D8DE793E00E94FC052B
:10223000F6E09F0E902F9E19981588F3DF92CF92AB
:10224000BF92AF9284E292E09F938F93CE0101966A
:102250009F938F930E949334C82E0FB6F894DEBFDD
:102260000FBECDBF8823B9F0CE0101967C018C0151
:102270000F2EF6E4DF2EF02DF80161918F0128E298
:102280004D2D8DE793E00E94FC05F6E0DF0E902FC8
:102290009E199C1588F328892F933F853F938E853F
:1022A0008F939D859F938DE292E09F938F93CE01B4
:1022B00001969F938F930E949334C82E0FB6F89483
:1022C000DEBF0FBECDBF8823C1F09E012F5F3F4F01
:1022D000790189010F2EF6E4DF2EF02DF8016191CE
:1022E0008F0120E34D2D8DE793E00E94FC05F6E081
:1022F000DF0E902F9E199C1588F360960FB6F89408
:10230000DEBF0FBECDBFDF91CF911F910F91FF9028
:10231000EF90DF90CF90BF90AF909F908F907F9085
:102320006F905F904F903F902F900895CF92DF92E3
:10233000EF92FF920F931F93CF93DF93CDB7DEB74A
:1023400064970FB6F894DEBF0FBECDBF8DE793E064
:102350000E94050388E0E2E3F2E08E010F5F1F4F69
:10236000D80101900D928A95E1F7E02EF12E6801D7
:1023700010E0F60161916F0120E0412F8DE793E0BD
:102380000E94FC051A5F1A32A1F788E0EAE3F2E046
:10239000DE01119601900D928A95E1F7CE2CDF2C8B
:1023A00010E0F60161916F0128E0412F8DE793E085
:1023B0000E94FC051A5F1A32A1F788E0E2E4F2E01D
:1023C000DE01119601900D928A95E1F7CE2CDF2C5B
:1023D00010E0F60161916F0120E1412F8DE793E05C
:1023E0000E94FC051A5F1A32A1F788E0EAE4F2E0E5
:1023F000DE01119601900D928A95E1F7CE2CDF2C2B
:1024000010E0F60161916F0128E1412F8DE793E023
:102410000E94FC051A5F1A32A1F788E0E2E5F2E0BB
:10242000DE01119601900D928A95E1F7CE2CDF2CFA
:1024300010E0F60161916F0120E2412F8DE793E0FA
:102440000E94FC051A5F1A32A1F788E0EAE5F2E083
:10245000DE01119601900D928A95E1F7CE2CDF2CCA
:1024600010E0F60161916F0128E2412F8DE793E0C2
:102470000E94FC051A5F1A32A1F788E0E2E6F2E05A
:10248000DE01119601900D928A95E1F7CE2CDF2C9A
:1024900010E0F60161916F0120E3412F8DE793E099
:1024A0000E94FC051A5F1A32A1F788E0EAE6F2E022
:1024B000DE01119601900D928A95E1F7CE2CDF2C6A
:1024C00010E0F60161916F0128E3412F8DE793E061
:1024D0000E94FC051A5F1A32A1F764960FB6F894B1
:1024E000DEBF0FBECDBFDF91CF911F910F91FF9047
:1024F000EF90DF90CF9008959F92AF92BF92CF92CE
:10250000DF92EF92FF920F931F93CF93DF93CDB79C
:10251000DEB764970FB6F894DEBF0FBECDBFC62EF0
:10252000D72EE82EF92E86E693E00E94942986E6BF
:1025300093E00E940C2A8DE793E00E9405030F2E82
:10254000FEE7AF2EF7E0BF2EF02D11E4F50161910B
:102550005F0120E0412F8DE793E00E94FC051A5FA8
:102560001137A1F70F2EF6E8AF2EF7E0BF2EF02DB2
:1025700011E4F50161915F0128E3412F8DE793E0BC
:102580000E94FC051A5F1137A1F740916603509134
:102590006703609168037091690386E693E00E9487
:1025A0007C2A9F938F937F936F9382E792E09F9310
:1025B0008F93CE0101969F938F930E9493340FB611
:1025C000F894DEBF0FBECDBF8823F1F08E010F5F00
:1025D0001F4F81506894AA24A1F8B12CAC0EBD1EE7
:1025E000A80EB11C0F2EF1E49F2EF02DF801619181
:1025F0008F012AE0492D8DE793E00E94FC05F6E06B
:102600009F0E0A151B0591F7EAE6F3E083818F938D
:1026100082818F9381818F9380818F9381E192E07A
:102620009F938F93CE0101969F938F930E94933433
:102630000FB6F894DEBF0FBECDBF8823F1F08E0138
:102640000F5F1F4F81506894AA24A1F8B12CAC0EE3
:10265000BD1EA80EB11C0F2EF1E49F2EF02DF80127
:1026600061918F0128E2492D8DE793E00E94FC05DE
:10267000F6E09F0E0A151B0591F7FF92EF92DF928D
:10268000CF928CE792E09F938F93CE0101969F9318
:102690008F930E9493340FB6F894DEBF0FBECDBF68
:1026A0008823F1F08E010F5F1F4F81506894AA2498
:1026B000A1F8B12CAC0EBD1EA80EB11C0F2EF1E47A
:1026C0009F2EF02DF80161918F0120E3492D8DE7B8
:1026D00093E00E94FC05F6E09F0E0A151B0591F79A
:1026E0002C2D3D2D4E2D5F2D6FE18FE1D5D823E0B0
:1026F00040E56C2D7D2D8E2D9F2D0E94740B6496D0
:102700000FB6F894DEBF0FBECDBFDF91CF911F9102
:102710000F91FF90EF90DF90CF90BF90AF909F9080
:102720000895CF92DF92EF92FF920F931F93CF9372
:10273000DF93CDB7DEB764970FB6F894DEBF0FBE58
:10274000CDBF8DE793E00E94050388E0E7E8F2E063
:102750008E010F5F1F4FD80101900D928A95E1F70E
:10276000C02ED12E780110E0F70161917F0120E0A9
:10277000412F8DE793E00E94FC051A5F1A32A1F702
:1027800060914C03662339F0605D20E04AE28DE7FA
:1027900093E00E94FC05E0919907F0919A070F2EB3
:1027A000F0E1EF2EFEE0FF2EF02DCF01B7010E94E9
:1027B0003333AB019C01A9E8B8E80E9460338C0177
:1027C00016950795129502950F7001271F70012726
:1027D0009F010E94603396958795929582958F70A0
:1027E00089279F7089276CE3689F9001699F300D4E
:1027F0001124E21BF30BCA01992791958195910948
:10280000B7010E944733CB016AE070E00E94473372
:1028100069838DEC489F912D1124969596959695F8
:10282000990F292F220F220F920F491B4A839AE3F7
:102830009B83089F212D11242695269526952C8370
:10284000220F322F330F330F230F021B0D839E8372
:10285000E89F812D11248695869586958F83880F14
:10286000982F990F990F890FE81BE887EC2CFD2C06
:1028700010E0F70161917F016A3339F424E1412FBF
:102880008DE793E00E94FC0506C020E1412F8DE713
:1028900093E00E944A06105F103859F764960FB60D
:1028A000F894DEBF0FBECDBFDF91CF911F910F9186
:1028B000FF90EF90DF90CF900895CF92DF92EF924C
:1028C000FF920F931F93CF93DF93CDB7DEB764973B
:1028D0000FB6F894DEBF0FBECDBF8DE793E00E9428
:1028E00005038BE0EFE8F2E08E010F5F1F4FD80188
:1028F00001900D928A95E1F7C02ED12E780110E05B
:10290000F70161917F0120E0412F8DE793E00E9464
:10291000FC051A5F1C33A1F7E0919B07F0919C071F
:102920000F2EF0E1EF2EFEE0FF2EF02DCF01B701CC
:102930000E943333AB019C01A9E8B8E80E946033E0
:102940008C0116950795129502950F7001271F703F
:1029500001279F010E9460339695879592958295F5
:102960008F7089279F7089276CE3689F9001699F0A
:10297000300D1124E21BF30BCA0199279195819523
:102980009109B7010E944733CB016AE070E00E94D1
:10299000473369838DEC489F912D11249695969528
:1029A0009695990F292F220F220F920F491B4A83C8
:1029B0009AE39B83089F212D112426952695269521
:1029C0002C83220F322F330F330F230F021B0D8363
:1029D0009E83E89F812D11248695869586958F8309
:1029E000880F982F990F990F890FE81BE887EC2C17
:1029F000FD2C10E0F70161917F016A3339F424E185
:102A0000412F8DE793E00E94FC0506C020E1412F95
:102A10008DE793E00E944A06105F103859F76496DC
:102A20000FB6F894DEBF0FBECDBFDF91CF911F91DF
:102A30000F91FF90EF90DF90CF900895BF92CF92CB
:102A4000DF92EF92FF920F931F93CF93DF93CDB757
:102A5000DEB764970FB6F894DEBF0FBECDBF86E633
:102A600093E00E94942986E693E00E940C2A8DE769
:102A700093E00E94050380E00E946E0A80E00E94BD
:102A80004F0B8EE0EAE9F2E08E010F5F1F4FD80195
:102A900001900D928A95E1F7C02ED12E780110E0B9
:102AA000F70161917F0120E1412F8DE793E00E94C2
:102AB000FC051A5F1E34A1F7E6E6F3E083818F93ED
:102AC00082818F9381818F9380818F9388EA92E0B6
:102AD0009F938F93CE0101969F938F930E9493347F
:102AE0000FB6F894DEBF0FBECDBF8823D1F0815062
:102AF0006894EE24E1F8F12CEC0EFD1EE80EF11CBA
:102B00000C2D1D2DB12CF80161918F0128E14B2D69
:102B10008DE793E00E94FC05F6E0BF0E0E151F0541
:102B200091F740916603509167036091680370913B
:102B3000690386E693E00E947C2A9F938F937F939C
:102B40006F9381EB92E09F938F93CE0101969F93B9
:102B50008F930E9493340FB6F894DEBF0FBECDBFA3
:102B60008823D1F081506894EE24E1F8F12CEC0E2A
:102B7000FD1EE80EF11C0C2D1D2DB12CF8016191EC
:102B80008F0120E24B2D8DE793E00E94FC05F6E0DB
:102B9000BF0E0E151F0591F7EAE6F3E083818F93D0
:102BA00082818F9381818F9380818F9381E192E0E5
:102BB0009F938F93CE0101969F938F930E9493349E
:102BC0000FB6F894DEBF0FBECDBF8823D1F0815081
:102BD0006894EE24E1F8F12CEC0EFD1EE80EF11CD9
:102BE0000C2D1D2DD12CF80161918F0120E34D2D6D
:102BF0008DE793E00E94FC05F6E0DF0E0E151F0541
:102C000091F764960FB6F894DEBF0FBECDBFDF918B
:102C1000CF911F910F91FF90EF90DF90CF90BF90D9
:102C20000895BF92CF92DF92EF92FF920F931F937E
:102C3000CF93DF93CDB7DEB764970FB6F894DEBFBE
:102C40000FBECDBF8DE793E00E94050380E00E9498
:102C50006E0A80E00E944F0B85E593E00E944527B5
:102C600085E593E00E94A8268FE0EFEBF2E08E016D
:102C70000F5F1F4FD80101900D928A95E1F7E02E6A
:102C8000F12E680110E0F60161916F0128E0412FFB
:102C90008DE793E00E94FC051A5F1435A1F720E050
:102CA00030E044E353E460915D0370915E038091F2
:102CB0005F03909160030E94012F2BED3FE049E4F8
:102CC00050E40E94082D9F938F937F936F938EEC17
:102CD00092E09F938F93CE0101969F938F930E94D2
:102CE00093340FB6F894DEBF0FBECDBF8823D1F06A
:102CF00081506894CC24C1F8D12CCC0EDD1EC80EB6
:102D0000D11C0E2D1F2DB12CF80161918F0128E1EE
:102D10004B2D8DE793E00E94FC05F6E0BF0E0C15ED
:102D20001D0591F720E030E044E353E46091610336
:102D30007091620380916303909164030E94012F5C
:102D40002BED3FE049E450E40E94082D9F938F93C0
:102D50007F936F9386ED92E09F938F93CE010196C0
:102D60009F938F930E9493340FB6F894DEBF0FBEEB
:102D7000CDBF8823D1F081506894CC24C1F8D12CE8
:102D8000CC0EDD1EC80ED11C0E2D1F2DB12CF8014E
:102D900061918F0120E24B2D8DE793E00E94FC05AD
:102DA000F6E0BF0E0C151D0591F7E9E5F3E0818112
:102DB0008F9380818F938EED92E09F938F93CE01BE
:102DC00001969F938F930E9493340F900F900F90D2
:102DD0000F900F900F908823D1F081506894CC24ED
:102DE000C1F8D12CCC0EDD1EC80ED11C0E2D1F2D0E
:102DF000B12CF80161918F0128E24B2D8DE793E012
:102E00000E94FC05F6E0BF0E0C151D0591F7EBE5E1
:102E1000F3E081818F9380818F9386EE92E09F9380
:102E20008F93CE0101969F938F930E9493340F90BE
:102E30000F900F900F900F900F908823D1F081503A
:102E40006894CC24C1F8D12CCC0EDD1EC80ED11C48
:102E50000E2D1F2DF12CF80161918F0120E34F2DD4
:102E60008DE793E00E94FC05F6E0FF0E0C151D05B2
:102E700091F764960FB6F894DEBF0FBECDBFDF9119
:102E8000CF911F910F91FF90EF90DF90CF90BF9067
:102E900008952F923F924F925F926F927F928F92FE
:102EA0009F92AF92BF92CF92DF92EF92FF920F93D9
:102EB0001F93CF93DF93CDB7DEB766970FB6F89425
:102EC000DEBF0FBECDBF8EE797E00E94F32B8DE7EC
:102ED00093E00E940503912C0F2EFFE06F2EF02D42
:102EE000CE0101967C01782E8F2CB12C8D8BFE8A21
:102EF0000F2EFDECAF2EF02D0F2EF2E94F2EF7E046
:102F00005F2EF02D0F2EF4E9CF2EF7E0DF2EF02DFF
:102F1000EBEEF2E0A72DB82D862D01900D928A954B
:102F2000E1F7272C382C1B2DF10161911F012B2D6E
:102F3000412F8DE793E00E94FC051A5F1435A1F73D
:102F4000EFE0F1E0A72DB82D862D01900D928A9526
:102F5000E1F72D883E881B2DF10161911F0128E0CA
:102F6000412F8DE793E00E94FC051A5F1435A1F70D
:102F7000EEE8F7E080818A9D912D11249695969533
:102F800096959983990F292F220F220F920F891B53
:102F90008A83FAE3FB83EFE8F7E080818A9D912D35
:102FA00011249695969596959C83990F292F220F1B
:102FB000220F920F891B8D8380E28E83F201808124
:102FC0008A9D912D11249695969596959F83990F9C
:102FD000292F220F220F920F891B88878EE2898763
:102FE000F60190819A9D212D1124269526952695EE
:102FF0002A87220F322F330F330F230F921B9B8709
:103000008C87E5E9F7E080818A9D912D11249695C2
:10301000969596959D87990F292F220F220F920F33
:10302000891B8E873B2C01E01B2D04C01F5F0F5FA7
:10303000F0E13F0E123069F020E1432DF701E10F7E
:10304000F11D60818DE793E00E944A06053070F320
:1030500008C024E148E26B818DE793E00E94FC0503
:10306000E5CF8E01095F1F4F2B2C0F2EF6E03F2E70
:10307000F02D88E0381661F09BE0391649F020E227
:10308000422DF80160818DE793E00E944A0609C055
:1030900028E248E0420DF80160818DE793E00E944C
:1030A000FC0533940F5F1F4FF0E12F0E8EE03812B6
:1030B000E0CF8DE793E00E948F038DE793E00E94BD
:1030C0000503892D90E08A30910508F047C2FC0184
:1030D000EA5BFF4F0C945A338CE793E00E94622422
:1030E000880F982F990F990F890F883108F46FC2B4
:1030F000EEE8F7E01082EAEFF2E0A72DB82D862D7A
:1031000001900D928A95E1F72D883E881B2DF101E3
:1031100061911F0128E3412F8DE793E00E94FC0598
:103120001A5F1435A1F757C28CE793E00E9462241E
:10313000EEE8F7E0208190E0820F911D883110F4D5
:1031400080837CC2EEE8F7E01082EAEFF2E0A72D80
:10315000B82D862D01900D928A95E1F72D883E8835
:103160001B2DF10161911F0128E3412F8DE793E0B1
:103170000E94FC051A5F1435A1F730C28CE793E07A
:103180000E946224880F982F990F990F890F8C3312
:1031900020F4EFE8F7E0808351C2EFE8F7E0108217
:1031A000E9E0F3E0A72DB82D862D01900D928A95C8
:1031B000E1F72D883E881B2DF10161911F0128E365
:1031C000412F8DE793E00E94FC051A5F1435A1F7AB
:1031D00008C28CE793E00E946224EFE8F7E02081C8
:1031E00090E0820F911D8C3310F4808327C2EFE8AA
:1031F000F7E01082E9E0F3E0A72DB82D862D0190CD
:103200000D928A95E1F72D883E881B2DF101619181
:103210001F0128E3412F8DE793E00E94FC051A5F10
:103220001435A1F7E1C18CE793E00E946224880F76
:10323000982F990F990F890F803218F4F20180832B
:10324000FDC1F20110828BE0E8E1F3E0A72DB82D7B
:1032500001900D928A95E1F72D883E881B2DF10192
:1032600061911F0128E3412F8DE793E00E94FC0547
:103270001A5F1C33A1F7BBC18CE793E00E94622464
:10328000F201208190E0820F911D803210F4808342
:10329000D5C1F20110828BE0E8E1F3E0A72DB82D53
:1032A00001900D928A95E1F72D883E881B2DF10142
:1032B00061911F0128E3412F8DE793E00E94FC05F7
:1032C0001A5F1C33A1F798C18CE793E00E94622437
:1032D000880F982F990F990F890F8D3018F4F601E8
:1032E0008083ACC1F60110828DE0E3E2F3E0A72D0C
:1032F000B82D01900D928A95E1F72D883E881B2DFF
:10330000F10161911F0128E3412F8DE793E00E94B5
:10331000FC051A5F1834A1F774C18CE793E00E9492
:103320006224F601208190E0820F911D8D3010F40F
:1033300080831EC0F60110828DE0E3E2F3E0A72D4A
:10334000B82D01900D928A95E1F72D883E881B2DAE
:10335000F10161911F0128E3412F8DE793E00E9465
:10336000FC051A5F1834A1F70F2EF5E09F2EF02D03
:10337000F6019081892F8D7F843011F0893009F515
:10338000F20180818F3108F4EAC01082F6011082C8
:103390008BE0E8E1F3E0A72DB82D01900D928A951E
:1033A000E1F72D883E881B2DF10161911F0128E373
:1033B000412F8DE793E00E94FC051A5F1C33A1F7B3
:1033C00025C1923009F0CBC0F20180818E3108F422
:1033D000C6C01082F60110828BE0E8E1F3E0A72D71
:1033E000B82D01900D928A95E1F72D883E881B2D0E
:1033F000F10161911F0128E3412F8DE793E00E94C5
:10340000FC051A5F1C33A1F706C18CE793E00E940C
:103410006224880F982F990F990F890F823320F417
:10342000E5E9F7E080830AC1E5E9F7E010828CE086
:10343000E0E3F3E0A72DB82D01900D928A95E1F716
:103440002D883E881B2DF10161911F0128E3412F3A
:103450008DE793E00E94FC051A5F1234A1F7E0C0EB
:103460008CE793E00E946224E5E9F7E0208190E098
:10347000820F911D823310F480831FC0E5E9F7E0CD
:1034800010828CE0E0E3F3E0A72DB82D01900D92BF
:103490008A95E1F72D883E881B2DF10161911F016E
:1034A00028E3412F8DE793E00E94FC051A5F123458
:1034B000A1F70F2EF7E09F2EF02DF60180818230CC
:1034C00009F04DC0E5E9F7E08081837021F5F20154
:1034D00080818E3108F443C01082F6011082E5E944
:1034E000F7E010828BE0E8E1F3E0A72DB82D019022
:1034F0000D928A95E1F72D883E881B2DF10161918F
:103500001F0128E3412F8DE793E00E94FC051A5F1D
:103510001C33A1F78AC0F20180818D3100F1108245
:10352000F6011082E5E9F7E010828BE0E8E1F3E0D4
:10353000A72DB82D01900D928A95E1F72D883E8830
:103540001B2DF10161911F0128E3412F8DE793E0CD
:103550000E94FC051A5F1C33A1F76CC093949394EE
:10356000FAE0F91508F0D4CC109290071092910768
:1035700060918F0780E090E00E94BC0960918E0707
:1035800081E090E00E94BC096091920782E090E0A7
:103590000E94BC096091940783E090E00E94BC09FE
:1035A0006091950784E090E00E94BC098DE793E06C
:1035B0000E9405038EE797E00E94FA2A8EE797E0C3
:1035C0000E94C12A8EE797E00E94DA2B39C0EEE80C
:1035D000F7E0808333C099249A9430C099249A9458
:1035E0002DC0992493942AC09924939427C00F2E18
:1035F000F3E09F2EF02D22C00F2EF3E09F2EF02D32
:103600001DC00F2EF5E09F2EF02D18C00F2EF3E0F9
:103610009F2EF02D13C00F2EF3E09F2EF02D0EC025
:103620000F2EF7E09F2EF02D09C00F2EF3E09F2EF6
:10363000F02D04C00F2EF3E09F2EF02D939468CC54
:1036400066960FB6F894DEBF0FBECDBFDF91CF9167
:103650001F910F91FF90EF90DF90CF90BF90AF90B0
:103660009F908F907F906F905F904F903F902F90A2
:1036700008951F920F920FB60F9211240BB60F925E
:103680008F93EF93FF93E0E9F7E080818F5F808372
:10369000E6E9F7E0808182608083FF91EF918F916E
:1036A0000F900BBE0F900FBE0F901F901895CF92EA
:1036B000DF92EF92FF92CF93DF93E4E8F0E0C081D6
:1036C000D181118210822BED3FE049E450E40E9449
:1036D000012F26E636E646E650E40E94012F6B01F4
:1036E0007C01BE0180E090E00E94A12D20E030E04E
:1036F00040E05EE30E94012F2DEB37E346E85AE3FA
:103700000E94012F2AE037ED43EA5BE30E943B2C45
:103710009B01AC01C701B6010E94082D209148030E
:103720003091490340914A0350914B030E943B2C36
:1037300020E030E040E05FE30E94012F6B017C015C
:1037400020E030E040E253E40E94B12E88234CF4A4
:10375000C0924803D0924903E0924A03F0924B038F
:1037600008C0109248031092490310924A03109225
:103770004B03DF91CF91FF90EF90DF90CF900895B2
:10378000FC01208130E0062E02C0359527950A9471
:10379000E2F720FF17C0EFE0F7E23197F1F700C042
:1037A0000000FC01808190E09C0102C035952795C6
:1037B0006A95E2F720FD08C032E03A95F1F700C0C3
:1037C00081E0089580E0089580E0089510929607C2
:1037D00010924E0310924D0310924C031092480326
:1037E0001092490310924A0310924B031092440323
:1037F0001092450310924603109247031092400323
:1038000010924103109242031092430310923C0322
:1038100010923D0310923E0310923F0310928500D8
:10382000109284000E9A169A8DE793E00E942C0362
:103830008DE793E00E94050380E480937C00EAE733
:10384000F0E083E080838081806880838081806471
:103850008083808186FDFDCF8091780090917900F2
:103860000E94CF091092900780E090E00E94C60964
:1038700080938F0781E090E00E94C60980938E07B5
:1038800082E090E00E94C6098093920783E090E076
:103890000E94C6098093940784E090E00E94C609C4
:1038A000809395078EE797E00E94DA2BE6E9F7E030
:1038B00080818660808380914D0390914E03806269
:1038C00090934E0380934D037894089580914D0317
:1038D00080FF1FC067E080E290E052DF882331F074
:1038E00063E371E186E39FE3E2DE13C0809184002D
:1038F000909185008E389B4560F010928500109263
:103900008400109248031092490310924A031092C7
:103910004B0320919607822F8871883161F4809142
:103920004D0390914E03906C90934E0380934D0302
:10393000277F2093960708954F925F926F927F9210
:10394000AF92BF92CF92DF92EF92FF920F931F93AD
:10395000CF93DF938091960781FF91C18EE797E027
:103960000E94A02B80914D0390914E039C012270E8
:1039700030722230304261F40E94CF0D80914D03AD
:1039800090914E03906890934E0380934D035DC1D8
:103990009C01222730732115304361F40E944D0DA4
:1039A00080914D0390914E03906890934E038093C5
:1039B0004D034BC195FF0CC00E94860C80914D03B6
:1039C00090914E03906890934E0380934D033DC1B8
:1039D00091FF0CC00E94961180914D0390914E036F
:1039E000906890934E0380934D032FC181FF0CC0CC
:1039F0000E946C0E80914D0390914E0390689093BD
:103A00004E0380934D0321C187FF24C085E593E0D9
:103A10000E94A82600916103109162032091630324
:103A20003091640340915D0350915E0360915F03A8
:103A3000709160038DE997E00E9462250E947C12DC
:103A400080914D0390914E03906890934E03809324
:103A50004D03FBC080FFA6C0C0904803D09049032F
:103A6000E0904A03F0904B032091400330914103D2
:103A70004091420350914303C701B6010E94B12E09
:103A8000181644F4C0924003D0924103E0924203DE
:103A9000F092430320E030E040E85FE3C701B60165
:103AA0000E94B12E88239CF080913C0390913D03AD
:103AB000A0913E03B0913F030196A11DB11D8093DB
:103AC0003C0390933D03A0933E03B0933F0326E64F
:103AD00036E646E650E4C701B6010E94082D9B0178
:103AE000AC0160914403709145038091460390912D
:103AF00047030E943B2C60934403709345038093DB
:103B000046039093470385E593E00E94A826E09042
:103B10003C03F0903D03C0913E03D0913F03A09041
:103B20004003B0904103C0904203D09043034090C3
:103B30004403509045036090460370904703009102
:103B400061031091620320916303309164034091FB
:103B50005D0350915E0360915F03709160038DE996
:103B600097E0B0D79B01AC01609148037091490385
:103B700080914A0390914B03DF93CF93FF92EF9292
:103B8000830172010E94281080914D0390914E0391
:103B9000906890934E0380934D030F900F900F9079
:103BA0000F9053C083FF0CC00E945D1480914D03A1
:103BB00090914E03906890934E0380934D0345C0BF
:103BC00082FF18C02091960720FF08C09064909350
:103BD0004E0380934D032E7F209396070E949113EE
:103BE00080914D0390914E03906890934E03809383
:103BF0004D032BC092FF0CC00E941E1580914D03F7
:103C000090914E03906890934E0380934D031DC096
:103C100093FF0BC006D880914D0390914E0390689E
:103C200090934E0380934D0310C080749071803444
:103C3000904159F40E94960F80914D0390914E034C
:103C4000906890934E0380934D0380914D03909123
:103C50004E0396FF0FC06091900761708DE793E06F
:103C60000E9487038AE793E00E94FD2888E793E09B
:103C70000E942428E6E9F7E080818D7F808380918F
:103C8000960782FF22C080914D0385FF0CC00E94E1
:103C90003E0F80914D0390914E03906890934E0398
:103CA00080934D030DC086FF0BC00E94960F80913C
:103CB0004D0390914E03906890934E0380934D0373
:103CC000E6E9F7E080818B7F808380914D039091BE
:103CD0004E0399236CF48DE793E00E948F0380914B
:103CE0004D0390914E039F7790934E0380934D0325
:103CF000DF91CF911F910F91FF90EF90DF90CF90C8
:103D0000BF90AF907F906F905F904F9008958134F7
:103D100009F48EC4E6E9F7E09081292F2260208320
:103D200020914D0330914E032F3F310561F46FEA2E
:103D30008DE793E00E94100380E090E290934E03A1
:103D400080934D030895A901427050724230504251
:103D5000E9F52D7F3F7D8333C1F028F4813341F0B5
:103D6000823361F02CC08433B9F08533F1F027C081
:103D7000226030934E0320934D03089528603068ED
:103D800030934E0320934D030895246030613093A7
:103D90004E0320934D0308959660909396072064F8
:103DA00030934E0320934D030895966090939607A9
:103DB0002062306830934E0320934D0308952260B3
:103DC000306230934E0320934D0308C4A901442769
:103DD000507341155043D9F53F7C30934E032093E7
:103DE0004D038233B1F018F4813331F02AC08333AC
:103DF000B1F08433F9F025C08DE997E092D7809136
:103E00004D0390914E03806890934E0380934D0331
:103E10000895326030934E0320934D03089539D8AE
:103E200080914D0390914E03806290934E03809356
:103E30004D0308952064306130934E0320934D0369
:103E40000895306330934E0320934D03C7C335FF6D
:103E50004EC03F7D30934E0320934D03482F50E0DA
:103E6000FA01F197E730F105E0F5E05BFF4F0C94C4
:103E70005A33216030934E0320934D03E1E8F0E084
:103E80008081856080830895386830934E03209345
:103E90004D030895206830934E0320934D030895F9
:103EA0002260306230934E0320934D0308953063B7
:103EB00030934E0320934D0308958DE793E00E94C5
:103EC000050380914D0390914E03906890934E03AB
:103ED00080934D030895346030934E0320934D0337
:103EE0000895306230934E0320934D0377C3A901A8
:103EF000407450714034504109F068C040914C0307
:103F0000413011F130F0423079F1433009F43FC0D3
:103F100065C31092980710929707977E92609093CE
:103F20009607833209F45AC38A3209F457C3982F8B
:103F3000990F9056292F220F220F920F90939807D6
:103F400091E090934C034AC3833209F447C38A3209
:103F500009F444C3E8E9F7E090819053980F908307
:103F600092E090934C033AC3833209F437C38A3208
:103F700009F434C3982F990F9056292F220F220F3E
:103F8000920F9093970793E090934C0327C383324B
:103F900041F08A3231F0E7E9F7E040814053480FC1
:103FA000408310924C0340919807483108F016C3A3
:103FB000409197074C3308F011C33F7E30934E0376
:103FC00020934D039E609093960708C331FF4AC02B
:103FD000A9015D7F406850934E0340934D03482FE5
:103FE00050E0FA01F197E830F105A0F5E95AFF4FEA
:103FF0000C945A3340E061E08DE997E071C4089574
:1040000040E261E08DE997E06BC4089540E461E02F
:104010008DE997E065C4089540E661E08DE997E099
:104020005FC4089540E861E08DE997E059C40895C0
:1040300040EA61E08DE997E053C4089540EC61E007
:104040008DE997E04DC4089540EE61E08DE997E079
:1040500047C408952F773D7F326030934E032093FD
:104060004D03BCC2A901447050714430504109F065
:1040700060C140914C03423009F46DC028F44423E0
:1040800061F04130D9F1AAC2443009F4D1C008F43A
:104090009AC0453009F404C1A1C2833219F08A32B2
:1040A00041F01AC010924C0310929A07109299078F
:1040B000089510924C03E9E9F7E0408151814F5F88
:1040C0005F4F518340833F7E30934E0320934D03D7
:1040D000926290939607A6C2482F50E04053510930
:1040E0009AE0949F9001959F300D112430939A0788
:1040F0002093990791E090934C0370C2833219F09A
:104100008A3241F01AC010924C0310929A07109212
:104110009907089510924C03E9E9F7E04081518135
:104120004F5F5F4F518340833F7E30934E03209318
:104130004D0392629093960775C2E9E9F7E02081FA
:10414000318120533109280F311D3183208392E0C2
:1041500090934C0343C2833219F08A3241F01AC063
:1041600010924C0310929A0710929907089510929A
:104170004C03E9E9F7E0408151814F5F5F4F518384
:1041800040833F7E30934E0320934D039262909381
:10419000960748C2E9E9F7E0682F70E060537109BB
:1041A00028E532E0629FA001639F500D729F500D81
:1041B000112420813181240F351F3183208393E026
:1041C00090934C030BC2833219F08A3241F01AC02B
:1041D00010924C0310929A0710929907089510922A
:1041E0004C03E9E9F7E0408151814F5F5F4F518314
:1041F00040833F7E30934E0320934D039262909311
:10420000960710C2E9E9F7E0282F30E02053310982
:104210009CE3929FA001939F500D11242081318136
:10422000240F351F3183208394E090934C03D6C133
:10423000833219F08A3241F01AC010924C03109266
:104240009A0710929907089510924C03E9E9F7E054
:10425000408151814F5F5F4F518340833F7E309358
:104260004E0320934D03926290939607DBC1E9E9D8
:10427000F7E0682F70E06053710920EA3CE8629F24
:10428000A001639F500D729F500D11242081318138
:10429000240F351F3183208395E090934C039EC1FA
:1042A000833219F08A3231F016C010929A071092B8
:1042B000990726C0E9E9F7E0408151814F5F5F4FE0
:1042C000518340833F7E30934E0320934D0392628F
:1042D0009093960715C0E9E9F7E0682F70E0605306
:1042E000710920E13EE0629FA001639F500D729F23
:1042F000500D112420813181240F351F31832083FB
:1043000010924C03E9E9F7E0208131812F5F3F4FA4
:104310003183208320914D0330914E033F7E3093B3
:104320004E0320934D03E6E9F7E09081906290837D
:1043300055C123FF22C08A3259F496FF05C09F7BE6
:104340009260909396076EC19264909396076AC1AB
:10435000803329F410929C0710929B0708958332B2
:1043600009F066C19F7B926090939607277F306229
:1043700030934E0320934D03089521FF26C08332CE
:1043800049F410924C032D7F306230934E032093FA
:104390004D0308958A3249F480914C038F5F823037
:1043A00008F43EC110924C033DC1803309F040C176
:1043B0008AE793E092D6882321F08AE793E0D0C67B
:1043C00008958AE793E040C6089527FF1AC0833214
:1043D00041F4C9018F77906290934E0380934D030F
:1043E0000895803309F0FAC08AE793E076D68823EF
:1043F00021F08AE793E0B4C608958AE793E024C6E3
:10440000089520FF3AC0833269F4C9018E7F90621B
:1044100090934E0380934D03E1E8F0E080818A7F22
:10442000808308958A32C9F41092400310924103A8
:1044300010924203109243031092440310924503DA
:10444000109246031092470310923C0310923D03D2
:1044500010923E0310923F03E5C0803309F0E8C09C
:104460008AE793E03AD6882321F08AE793E078C67A
:1044700008958AE793E0E8C5089532FF29C08332A2
:1044800041F4C9019B7F906290934E0380934D034A
:1044900008958A3269F440916603509167036091F0
:1044A00068037091690386E693E00E94A92ABAC066
:1044B000803309F0BDC08AE793E00FD6882321F04E
:1044C0008AE793E04DC608958AE793E0BDC5089555
:1044D00022FF23C0833209F081C02B7F3F7B3093C2
:1044E0004E0320934D03892F8E7D82608093960723
:1044F00060E08DE793E00E9487038AE793E030D67F
:1045000088E793E02DD680914D0390914E03906201
:1045100090934E0380934D03089525FF22C083326C
:1045200041F4C9018F7D906290934E0380934D03B7
:104530000895803309F052C08AE793E0CED58823EE
:1045400041F08AE793E00CD683E593E00C94032CCA
:1045500008958AE793E078D583E593E00C94FA2BED
:10456000089533FF0AC08332C9F5C901977F90626D
:1045700090934E0380934D03089526FF26C0833207
:1045800041F4C9018F7B906290934E0380934D0359
:1045900008958A3209F04CC094FF06C0892F877EA7
:1045A0008260809396070BC093FF06C0892F877F98
:1045B00082608093960703C09A6090939607E6E91D
:1045C000F7E08081846080832DC0232B39F480E064
:1045D00090E290934E0380934D03089520914D03F4
:1045E00030914E0336FF24C08A3211F53F7B309361
:1045F0004E0320934D0360E08DE793E00E94870314
:104600008AE793E0ADD588E793E0AAD58091960735
:10461000982F9871983161F4867E8093960708955B
:1046200080934C0320914D0330914E0336FDDECF35
:104630000895CCD84BD980D98CE793E0B5D067DB0F
:10464000F9CF8DE997E066D18EE797E00E94332B92
:104650008DE793E00E947C038CE793E071D041E00A
:1046600062E48AE793E0ADD442E062E488E793E055
:10467000A8D447E064E486E793E0A3D443E062E48F
:1046800084E793E09ED486E693E032D685E593E016
:104690007ED483E593E00C94232C089583E593E086
:1046A0000E94F92B85E593E050D386E693E0EED5A2
:1046B00084E793E0C8D486E793E0C5D488E793E025
:1046C000C2D48AE793E0BFD48CE793E046D08DE76D
:1046D00093E00E9401038EE797E041D78DE997E0D0
:1046E000FCC0089582E08093B8000895089584EA9C
:1046F0008093BC00089584E98093BC000895ECEB9E
:10470000F0E080818823ECF76093BB0084E880931D
:10471000BC00ECEBF0E080818823ECF70895662381
:1047200021F084EC8093BC0003C084E88093BC003B
:10473000ECEBF0E080818823ECF78091BB000895DA
:104740008AB180668AB988B1837F88B987B18C6065
:1047500087B98AB1837E8AB908950895FB01808163
:1047600090E0042E02C0959587950A94E2F780FFA9
:1047700017C08FEC97E00197F1F700C00000FB0134
:10478000808190E09C0102C0359527954A95E2F71B
:1047900020FD08C03AE13A95F1F700C081E00895A4
:1047A00080E0089580E008951F93CF93DF93EC019C
:1047B000439A82E08A95F1F700C044E069E270E034
:1047C000CE01CCDF811110C043E069E270E0CE0180
:1047D000C5DF81110BC042E069E270E0CE01BEDFAF
:1047E000811106C011E405C013E303C012E301C048
:1047F00011E34398429A82E08A95F1F700C044E0C1
:1048000069E270E0CE01AADF81110FC043E069E2E6
:1048100070E0CE01A3DF81110AC042E069E270E0DE
:10482000CE019CDF811105C005C016E303C015E36E
:1048300001C014E342985E9A82E08A95F1F700C0C5
:1048400044E069E270E0CE0189DF81110FC043E0EE
:1048500069E270E0CE0182DF81110AC042E069E2C4
:1048600070E0CE017BDF811105C005C019E303C0F4
:1048700018E301C017E35E985D9A82E08A95F1F72C
:1048800000C044E069E270E0CE0168DF81110FC032
:1048900043E069E270E0CE0161DF81110AC042E0CD
:1048A00069E270E0CE015ADF811105C005C013E254
:1048B00003C010E301C01AE25D98812FDF91CF9110
:1048C0001F910895CF93DF93EC01CE016DDF8053EC
:1048D0008A30D8F7DF91CF910895069607CF0895D3
:1048E0000F931F93CF93DF93062F142FEC0126967F
:1048F000CE01FDDE6CE3CE0102DF602FCE01FFDED4
:10490000612FCE01FCDECE01F6DEDF91CF911F914B
:104910000F910895CF93DF93EC010696E3DE40E715
:1049200060E0CE01DDDF40E261E0CE01D9DF41E0B1
:1049300062E0CE01D5DF1982188218861F821B82A1
:104940001A821A8619861D821C821C861B86DF919C
:10495000CF910895BF92CF92DF92EF92FF920F9383
:104960001F93CF93DF9300D000D000D0CDB7DEB738
:104970006C01F8947C0126E0E20EF11CC701B7DE61
:104980006CE3C701BCDE63E0C701B9DEC701AFDE7F
:104990006DE3C701B4DE8E010F5F1F4FB12C84E0C1
:1049A0008B1530F061E0C701BADEF801808305C0E5
:1049B00060E0C701B4DEF8018083B3940F5F1F4F3E
:1049C000F6E0BF12ECCFC70196DE898190E0982F08
:1049D00088272A81822BF601918380838B8190E046
:1049E000982F88272C81822B938382838D8190E05E
:1049F000982F88272E81822B958384837894F601C3
:104A0000808191818115904F09F447C0F601828120
:104A100093818115904F09F442C0F60184819581FC
:104A20008115904FF1F1F60183E0DF0120813181A2
:104A300045855685421753078CF436872587438969
:104A40005489240F351F332314F42F5F3F4F3595BE
:104A5000279518963C932E9317971AC063897489EB
:104A6000261737077CF4348B238B240F351F332311
:104A700014F42F5F3F4F3595279518963C932E934E
:104A8000179706C047815085241B350B318320833F
:104A9000815032968111C9CF05C081E003C081E009
:104AA00001C081E026960FB6F894DEBF0FBECDBFE1
:104AB000DF91CF911F910F91FF90EF90DF90CF90FA
:104AC000BF9008952F923F924F925F926F927F9284
:104AD0008F929F92AF92BF92CF92DF92EF92FF920E
:104AE0000F931F93CF93DF93CDB7DEB764970FB6C5
:104AF000F894DEBF0FBECDBF1C014A015B01680107
:104B0000790128DF8111E6C0C701B6017ED769832C
:104B10007A838B839C83F10162817381882777FD7F
:104B20008095982F0E94A32D2B013C01C501B40153
:104B30000E94642F6D837E838F839887F101648147
:104B40007581882777FD8095982FFDD769877A87AB
:104B50008B879C87C501B40158D74B015C01C70105
:104B6000B6010E94642F6D877E878F87988BA50181
:104B70009401C301B2010E94012FB2D7882777FDAB
:104B80008095982FE0D76B017C0129853A854B856C
:104B90005C856D817E818F8198850E94012F9B01AC
:104BA000AC01C701B60167D69BD7882777FD8095F2
:104BB000982FC9D7698B7A8B8B8B9C8BF101608185
:104BC0007181882777FD8095982FBDD729813A81FB
:104BD0004B815C810E94012F83D7882777FD8095C8
:104BE000982FB1D76B017C012D813E814F81588573
:104BF000C301B2010E94012F9B01AC0169817A813E
:104C00008B819C810E94012F9B01AC01C701B601E1
:104C100032D666D7882777FD8095982F94D76B0179
:104C20007C01A501940169857A858B859C850E940C
:104C3000012F2D853E854F8558890E94012F9B01AC
:104C4000AC01C701B60117D64BD7882777FD8095F1
:104C5000982F79D729893A894B895C897FD620E0BA
:104C600030E044E353E40E94012F2BED3FE049E4A0
:104C700050E4CED620E030E044E353E4FCD526E611
:104C800036E646E150E4F7D56B017C0120E030E0E8
:104C900044EB53E40E94B12E882354F020E030E02E
:104CA00044EB53E4C701B601E5D56B017C011AC0A2
:104CB00020E030E0A901C701B601A3D6882394F40F
:104CC00020E030E044EB53E4C701B601D4D56B01DA
:104CD0007C0108C00F2EC12CD12CF0E8EF2EFFEB89
:104CE000FF2EF02D41E062E0C101FADDC701B601FF
:104CF00064960FB6F894DEBF0FBECDBFDF91CF91A3
:104D00001F910F91FF90EF90DF90CF90BF90AF90E9
:104D10009F908F907F906F905F904F903F902F90DB
:104D20000895FC0116861586148A138A1086178248
:104D3000108A1786168A158A12861186128A118A97
:104D4000108E178A1486138608954096CFCC089546
:104D50006F927F928F929F92AF92BF92CF92DF928B
:104D6000EF92FF921F93CF93DF9300D000D000D03B
:104D7000CDB7DEB73C01F8946C0180E1C80ED11CC0
:104D8000C601B5DC6AE3C601BADC68EAC601B7DC75
:104D9000C601ADDC6BE3C601B2DCFE0131967F01DA
:104DA00010E0153030F461E0C601B9DCF701808312
:104DB00005C060E0C601B3DCF70180831F5FFFEF31
:104DC000EF1AFF0A163069F7C60195DC6A8170E0B8
:104DD000762F66278981682BF30175836483AC8005
:104DE000B12CBA2CAA248B81A82AB182A0828E80F1
:104DF000912C982C88248D81882A938282828827FE
:104E000077FD8095982F9FD66B017C01B401882790
:104E100077FD8095982F97D69B01AC01C701B6010D
:104E20009DD52BED3FE049EC5FE324D5F30164878A
:104E3000758786879787B501882777FD8095982F96
:104E400082D69B01AC01C701B60188D52BED3FE0AE
:104E500049EC5FE30FD5F301608771878287938701
:104E6000789426960FB6F894DEBF0FBECDBFDF91C3
:104E7000CF911F91FF90EF90DF90CF90BF90AF90B8
:104E80009F908F907F906F900895CF92DF92EF92D6
:104E9000FF920F931F93CF93DF9300D0CDB7DEB770
:104EA0007C01F8948C01005F1F4FC80120DC6AE38D
:104EB000C80125DC65E8C80122DCC80118DC6BE309
:104EC000C8011DDCCC24C394D12C02C0D394C3945C
:104ED000D11005C061E0C80122DC8983F7CF60E012
:104EE000C8011DDCE1E0F0E0EC0FFD1FED0DF11D50
:104EF000808381E08C1550F7C801FDDB8A8190E04A
:104F0000982F88272981822B919581959109F70106
:104F10009783868378940F900F90DF91CF911F91A4
:104F20000F91FF90EF90DF90CF9008950F931F9314
:104F3000CF93DF93062F142FEC016096CE01D7DBC1
:104F40006AE3CE01DCDB602FCE01D9DB612FCE011D
:104F5000D6DBCE01D0DBDF91CF911F910F91089569
:104F600040E06EE2E3CF0895CF93DF93EC0147E496
:104F700060E2DCDF40E061E2CE01D8DF40E864E2DD
:104F8000CE01D4DFCE01ECDFDF91CF910895CF9336
:104F9000DF93EC014096A6DB1F821E8218861986DD
:104FA0001A861B861C861D861E861F8619821882FD
:104FB0001B821A821D821C82CE01D6DFDF91CF9127
:104FC0000895FC01418360836234B1F018F46134C8
:104FD00031F008956334E9F0643441F1089521B16A
:104FE00081E090E0BC0102C0660F771F4A95E2F7AE
:104FF000AB01422B41B9089524B181E090E0FC015E
:1050000002C0EE0FFF1F4A95E2F7AF01422B44B9F1
:10501000089527B181E090E0BC0102C0660F771FC0
:105020004A95E2F7AB01422B47B908952AB181E0D6
:1050300090E0FC0102C0EE0FFF1F4A95E2F7AF01BE
:10504000422B4AB908950895FC0120812234C1F011
:1050500018F4213431F00895233409F1243471F126
:10506000089542B121E030E0B901FC01018002C0A5
:10507000660F771F0A94E2F7CB01842B82B908955B
:1050800045B121E030E0B901FC01018002C0660FAA
:10509000771F0A94E2F7CB01842B85B9089548B1B4
:1050A00021E030E0B901FC01018002C0660F771FEA
:1050B0000A94E2F7CB01842B88B908954BB121E023
:1050C00030E0B901FC01018002C0660F771F0A942D
:1050D000E2F7CB01842B8BB90895FC0120812234A7
:1050E000B1F018F4213431F039C02334E9F024341C
:1050F00041F134C022B130E0A901FC01018002C0BD
:10510000559547950A94E2F7CA018170089525B133
:1051100030E0A901FC01018002C0559547950A9431
:10512000E2F7CA018170089528B130E0A901FC01BD
:10513000018002C0559547950A94E2F7CA01817033
:1051400008952BB130E0A901FC01018002C0559502
:1051500047950A94E2F7CA018170089582E00895A4
:10516000FC0120812234C9F018F4213431F0089573
:10517000233419F1243489F1089542B121E030E05B
:10518000B901FC01018002C0660F771F0A94E2F7A3
:10519000CB018095842382B9089545B121E030E0A8
:1051A000B901FC01018002C0660F771F0A94E2F783
:1051B000CB018095842385B9089548B121E030E082
:1051C000B901FC01018002C0660F771F0A94E2F763
:1051D000CB018095842388B908954BB121E030E05C
:1051E000B901FC01018002C0660F771F0A94E2F743
:1051F000CB01809584238BB90895FC012081223452
:10520000C1F018F4213431F00895233409F1243425
:1052100071F1089522B130E0FC01018002C03595A2
:1052200027950A94E2F720FF02C09ACF08950CCF89
:10523000089525B130E0FC01018002C03595279525
:105240000A94E2F720FF02C08BCF0895FDCE0895A7
:1052500028B130E0FC01018002C0359527950A9401
:10526000E2F720FF02C07CCF0895EECE08952BB167
:1052700030E0FC01018002C0359527950A94E2F7E1
:1052800020FF02C06DCF0895DFCE08950D962ECA7F
:1052900008950F931F93CF93DF93062F142FEC01E4
:1052A0002D96CE0124DA6AEBCE0129DA602FCE01E9
:1052B00026DA612FCE0123DACE011DDADF91CF91FC
:1052C0001F910F910895CF93DF93EC0140E060E1CF
:1052D000E0DF44EA60E2CE01DCDF40ED61E2CE01D6
:1052E000D8DF47EC6EE2CE01D4DFDF91CF91089595
:1052F000CF93DF93EC010D96F5D9188219821A82AB
:105300001B821C821D821E821F828CEF888740E0D8
:1053100050E060E87FE349875A876B877C87CE013E
:10532000D2DFDF91CF910895AF92BF92CF92DF92FB
:10533000EF92FF921F93CF93DF9300D01F92CDB7D0
:10534000DEB75C01F8947C018DE0E80EF11CC7012A
:10535000CED96AEBC701D3D968EAC701D0D9C70152
:10536000C6D96BEBC701CBD9FE0131966F0110E0B6
:10537000123030F461E0C701D2D9F601808305C054
:1053800060E0C701CCD9F60180831F5FFFEFCF1A21
:10539000DF0A133069F7C701AED96B8170E080E096
:1053A00090E0CFD320E030E040E857E42AD56B010D
:1053B0007C016A8170E080E090E0C3D320E030E0BF
:1053C00040E853E41ED59B01AC01C701B60153D29E
:1053D0006B017C01698170E080E090E0B2D39B01B9
:1053E000AC01C701B60147D220E030E040E859E304
:1053F00008D5F501608371838283938378940F903D
:105400000F900F90DF91CF911F91FF90EF90DF9061
:10541000CF90BF90AF900895CF92DF92EF92FF921E
:105420000F931F93CF93DF9300D0CDB7DEB78C01DE
:10543000F8947C018DE0E80EF11CC70158D96AEBA5
:10544000C7015DD96BEAC7015AD9C70150D96BEBC7
:10545000C70155D9CC24C394D12C02C0D394C39492
:10546000D11005C061E0C7015AD98983F7CF60E048
:10547000C70155D9E1E0F0E0EC0FFD1FED0DF11D86
:105480008083E1E0EC1550F7C70135D989816A8145
:1054900070E0762F6627680F711D882777FD80954D
:1054A000982F51D320E030E040EF53E4B1D26B01AC
:1054B0007C01F8016085772767FD7095872F972F0E
:1054C00042D320E030E04AE252E4D5D19B01AC0166
:1054D000C701B601D0D1F8016483758386839783B1
:1054E00078940F900F90DF91CF911F910F91FF90C3
:1054F000EF90DF90CF9008958F929F92AF92BF92DE
:10550000CF92DF92EF92FF92FC01C184D284E384B8
:10551000F4849A01AB01C701B6017AD232D44B01AF
:105520005C0120E030E048EC52E4C701B60169D4E8
:10553000A501940166D42CED3EEF4CE351E468D212
:10554000FF90EF90DF90CF90BF90AF909F908F90A3
:105550000895FC01418752876387748708950895F1
:10556000FC01808D83FF0CC084FD0AC0228D9089D0
:10557000291306C0218D9189291302C08061808F73
:105580000895FC0190898DEC989F212D112426957A
:105590002695269530E3320F3083220F322F330FBA
:1055A000330F230F921B905D91839189989F212D3A
:1055B000112426952695269530E3320F3383220F4A
:1055C000322F330F330F230F921B905D94839289F8
:1055D000989F812D112486958695869520E3280F26
:1055E0002683880F282F220F220F820F981B905D91
:1055F00097830895FC0194898DEC989F212D1124A7
:1056000026952695269530E3320F3087220F322FCC
:10561000330F330F230F921B905D91879689989FCC
:10562000212D112426952695269530E3320F3387B8
:10563000220F322F330F330F230F921B905D94876D
:105640009789989F812D112486958695869520E3CC
:10565000280F2687880F282F220F220F820F981BD2
:10566000905D97870895CF93DF93EC011A8A1B8A88
:10567000198A188A1C8A1E8A1F8A1D8A88E2898FC5
:105680008AE08A8F1C8E1B8E1E8E1D8EDE01FE010F
:10569000389680E01D9211928F5F8830D9F78AE3A7
:1056A0008A838D838EE28A878D87CE016ADFCE0161
:1056B000A1DFDF91CF910895FC012689322F3D7F34
:1056C000343011F0393091F4FC0134893F31B0F1BC
:1056D00031E0348B2F5F2D3010F4268B2FC021E06A
:1056E000FC01268B27892F5F278B28C02230A9F445
:1056F000FC012789237041F424892E31F8F021E040
:10570000248B23E0268B1AC0FC0124892D31B0F0B4
:1057100021E0248B23E0268B11C0FC013489303238
:1057200068F031E0348B2F5F2D3010F4268B06C0EB
:1057300021E0FC01268B27892F5F278B5BCF089503
:10574000CF93DF93EC018A898C538D38C0F41A8A89
:1057500089898F5F898B988D9460988F8C3368F0DE
:10576000198A88898F5F883110F4888B06C0188A5F
:105770008C898F5F8C8BCE019FDFCE01F1DECE0155
:1057800000DF288D25FF0AC08B8D9C8D01979C8F93
:105790008B8F892B19F42F7D2160288F888D86FFB0
:1057A00005C08D8D9E8D01969E8F8D8F80E0DF913F
:1057B000CF910895FC0180E3808381839AE39283F3
:1057C000838384839583868387831092B200E6EB7C
:1057D000F0E080818062808381E08093700085E0CA
:1057E0008093B1000895E1EBF0E08081897F8083B0
:1057F00008950895FC01208120FF04C025B5818112
:10580000822B85BD089585B5887F85BD08950F934A
:105810001F93CF93DF93EC018B01F5DFB80180E09C
:1058200090E08FD19B01AC0160E074E284EF96E4DC
:10583000EFD05BD167BD16BCCE01DCDFDF91CF912D
:105840001F910F910895CF93DF93EC0118822B984D
:10585000239A84B5816484BD85B5886085BD84E064
:10586000898368EE73E0CE01D2DFCE01CCDFDF9119
:10587000CF9108955058BB27AA270ED027C2F0D148
:1058800030F0F5D120F031F49F3F11F41EF4C0C187
:105890000EF4E095E7FBB6C1E92F3AD280F3BA17D0
:1058A000620773078407950718F071F49EF552C2DA
:1058B0000EF4E0950B2EBA2FA02D0B01B90190012B
:1058C0000C01CA01A0011124FF27591B99F0593F6F
:1058D00050F4503E68F11A16F040A22F232F342FB7
:1058E0004427585FF3CF469537952795A795F04005
:1058F0005395C9F77EF41F16BA0B620B730B840B1A
:10590000BAF09150A1F0FF0FBB1F661F771F881FD1
:10591000C2F70EC0BA0F621F731F841F48F4879529
:1059200077956795B795F7959E3F08F0B3CF939518
:10593000880F08F09927EE0F97958795089590D1D5
:1059400058F080E891E009F49EEF91D128F040E80A
:1059500051E059F45EEF09C05BC1FCC1E92FE0786A
:10596000D7D168F3092E052AC1F326173707480750
:10597000590738F00E2E07F8E02569F0E025E064BD
:105980000AC0EF6307F8009407FADB01B9019D0133
:10599000DC01CA01AD01EF934AD098D10AD05F91E2
:1059A000552331F02BED3FE049E450FD49EC63CF46
:1059B0000895DF93DD27B92FBF7740E85FE3161620
:1059C000170648075B0710F4D92FCFD19F938F9309
:1059D0007F936F937FD2EEEBF0E01DD177D12F91C3
:1059E0003F914F915F9119D2DD2349F09058A2EA7F
:1059F0002AED3FE049EC5FE3D0785D274DDFDF9192
:105A000065C1DCD008F481E0089539D1E3956FC118
:105A10000CD05CC12CD140F023D130F021F45F3F99
:105A200019F0F0C0511197C1F3C072D198F39923C6
:105A3000C9F35523B1F3951B550BBB27AA27621752
:105A40007307840738F09F5F5F4F220F331F441F97
:105A5000AA1FA9F333D00E2E3AF0E0E830D09150CF
:105A60005040E695001CCAF729D0FE2F27D0660FBC
:105A7000771F881FBB1F261737074807AB07B0E8FB
:105A800009F0BB0B802DBF01FF2793585F4F2AF011
:105A90009E3F510568F0B6C05EC15F3FECF3983E93
:105AA000DCF3869577956795B795F7959F5FC9F76E
:105AB000880F911D9695879597F90895E1E0660FF7
:105AC000771F881FBB1F621773078407BA0720F070
:105AD000621B730B840BBA0BEE1F88F7E0950895D9
