:100000000C94F7060C9426070C9426070C942607EC
:100010000C9426070C9426070C9426070C942607AC
:100020000C9426070C9426070C9426070C94DC08E5
:100030000C9426070C94FA080C9426070C942607B7
:100040000C949C080C9426070C9426070C94260705
:100050000C94E50A0C9426070C9426070C942607AA
:100060000C9426070C9426070C9426070C9426075C
:100070000C9426070C9426070C9426070C9426074C
:100080000C9426070C9426070C942607FE78087912
:100090002D79517975799A79BE79127A337A587AAD
:1000A0007C7AA07AC57AE97A550E7C0E7C0E7C0E9D
:1000B0007C0E7C0E7C0E7C0E7C0E7C0E7C0E7C0EF0
:1000C0007C0E7C0E7C0E7C0E7C0E7C0E7C0E7C0EE0
:1000D0007C0E7C0E7C0E7C0E7C0E7C0E7C0E7C0ED0
:1000E0007C0E7C0E7C0E7C0E7C0E7C0E7C0E7C0EC0
:1000F0007C0E7C0E7C0E7C0E7C0E7C0E7C0E7C0EB0
:100100007C0E7C0E7C0E7C0E7C0E7C0E7C0E7C0E9F
:10011000300E7C0E7C0E7C0E7C0E7C0E7C0E7C0EDB
:10012000FD0DF90D7C0E1D0E7C0E7C0E0A0E7C0E54
:100130007C0E460E44186C189618C118EB1814194A
:100140003C196519DD19081A522B622B622B622BA0
:10015000622B622B622B322B622B622B622B622B67
:10016000622B422BA22AB22AC22AD22AE22AF22ADD
:10017000022B122B222B412C432C432C432C432C9F
:10018000432C432C3D2C432C432C432C432C432CFD
:100190003F2C2D2C452C2F2C312C332C352C372C4F
:1001A000392C3B2C463D513D5D3FFF3D5D3F5D3F62
:1001B0005D3F533F5D3F5D3F5D3F5D3F5D3F5D3F69
:1001C0005D3F5D3F5D3F5D3F5D3F5D3F5D3F5D3F4F
:1001D0005D3F5D3F5D3F5D3F5D3F5D3F5D3F5D3F3F
:1001E0005D3F5D3F5D3F5D3F5D3F5D3F5D3F5D3F2F
:1001F0005D3F5D3F5D3F5D3F5D3F5D3F5D3F5D3F1F
:100200005D3F5D3F5D3F5D3FD73EE03EF83E103FC6
:10021000343FFC68EB680269086908690869086985
:10022000086908690869086908690869FF68086950
:1002300008690869846808690269086908690569C4
:10024000084AD73B3BCE016E84BCBFFDC12F3D6C3D
:1002500074319ABD56833DDA3D00C77F11BED9E4A3
:10026000BB4C3E916BAAAABE000000803F05A84C83
:10027000CDB2D44EB93836A9020C50B9918688084F
:100280003CA6AAAA2ABE000000803F0664EC1B3CE4
:1002900004BC163E3BE5B93CC93C37C29E5A3D669C
:1002A0000498083EEA69AAAA3E000000803F07635E
:1002B0004236B79BD8A71A39685618AEBAAB558CD8
:1002C0001D3CB7CC5763BD6DEDFD753EF617723121
:1002D000BF000000803F08000000BE922449123E8B
:1002E000ABAAAA2ABECDCCCC4C3E00000080BEAB4F
:1002F000AAAAAA3E00000000BF000000803F000044
:10030000000000084178D3BB4387D1133D190E3C50
:10031000C3BD4282AD2B3E68EC8276BED98FE1A987
:100320003E4C80EFFFBE01C4FF7F3F000000000095
:100330006E616E00696E66005374656D6D656E204A
:10034000202020202000476F657474696E67656EF9
:10035000202020004C65747A7465312020202020F4
:1003600020004C65747A7465322020202020200003
:100370005061726B706C61747A20202020004C6593
:10038000747A746573312020202020004C65747AC3
:10039000746573322020202020005061726B706CD5
:1003A00061747A20202020005568722020202020AF
:1003B000202020202000546163686F20202020200E
:1003C00020202000475053202020202020202020C3
:1003D00020004750532072656164202020202000B7
:1003E0004750532073617665202020202000456906
:1003F0006E7374656C6C756E67656E0044697370BE
:100400006C617920617573202000000000007C0081
:10041000FE1BFE1B7C000000000000000E001E0002
:10042000000000001E000E0000002001FC0FFC0F69
:1004300020012001FC0FFC0F200138067C0C440831
:10044000FF3FFF3F84088C0F18071C18141E9C07E1
:10045000E001781C1E14061C0000BC1FFE10421098
:10046000C210FE1F3C0F8019801000000000100019
:100470001E000E0000000000000000000000F00759
:10048000FC1F0E38022000000000000000000220C7
:100490000E38FC1FF007000000008000A002E003FF
:1004A000C001C001E003A002800080008000800045
:1004B000E003E003800080008000000000000040B6
:1004C00000780038000000000000800080008000FC
:1004D000800080008000800080000000000000009C
:1004E000001800180000000000000018001E80071F
:1004F000E00178001E0006000000F807FC0F061857
:10050000C210C2100618FC0FF807000008100C10EB
:10051000FE1FFE1F001000100000041C061E021328
:100520008211C21062103E181C180408061802102E
:10053000421042104210FE1FBC0FC001E00130010A
:1005400018010C11FE1FFE1F00117E087E184210BC
:10055000421042104210C21F820FF80FFC1F4610BB
:10056000421042104210C01F800F06000600020019
:10057000021FC21FF2003E000E00BC0FFE1F421001
:10058000421042104210FE1FBC0F3C007E10421071
:10059000421042104218FE0FFC070000000000004D
:1005A000300C300C000000000000000000000020B3
:1005B000603C601C0000000000008000C00160037F
:1005C0003006180C0C1804100000400240024002D3
:1005D0004002400240024002400204100C18180C75
:1005E00030066003C0018000000004000600020025
:1005F000821BC21B62003E001C00FC0FFE1F02108B
:100600008211C213E213FE13FC03F01FF81F0C014A
:10061000060106010C01F81FF01F0210FE1FFE1F4D
:10062000421042104210FE1FBC0FF807FC0F0618C4
:1006300002100210021006180C0C0210FE1FFE1F02
:10064000021002100618FC0FF8070210FE1FFE1F12
:1006500042104210E210061806180210FE1FFE1F7C
:1006600042104200E20006000600F807FC0F0618E0
:10067000021082108210860F8C1FFE1FFE1F40008A
:10068000400040004000FE1FFE1F0000021002104C
:10069000FE1FFE1F021002100000000C001C0010C4
:1006A00000100210FE1FFE0F02000210FE1FFE1FB0
:1006B000E000B00118030E1E061C0210FE1FFE1FF4
:1006C00002100010001000180018FE1FFE1F180076
:1006D000F000F0001800FE1FFE1FFE1FFE1F380076
:1006E0007000E000C001FE1FFE1FFC0FFE1F021085
:1006F000021002100210FE1FFC0F0210FE1FFE1F50
:100700004210420042007E003C00FC0FFE1F02101F
:10071000021C02380270FE5FFC0F0210FE1FFE1F5B
:1007200042004200C200FE1F3C1F1C0C3E1C621017
:1007300042104210C2108E1F0C0F0600060002105D
:10074000FE1FFE1F021006000600FE0FFE1F001017
:10075000001000100010FE1FFE0FFE03FE07000C2D
:1007600000180018000CFE07FE03FE07FE1F001C09
:10077000C007C007001CFE1FFE070E1C1E1E300314
:10078000E001E00130031E1E0E1C1E003E00601042
:10079000C01FC01F60103E001E00061E061F8211F3
:1007A000C210621032101E180E1800000000FE1F4A
:1007B000FE1F02100210000000000018001E80073B
:1007C000E00178001E00060000000000000002109A
:1007D0000210FE1FFE1F0000000020003000180065
:1007E0000C00180030002000000000800080008015
:1007F0000080008000800080008000000000000079
:1008000038007800400000000000000E201F20117A
:1008100020112011E00FC01F00100210FE1FFE0F5C
:10082000201020106010C01F800FC00FE01F20108C
:1008300020102010201060184008800FC01F60108A
:1008400020102210FE0FFE1F0010C00FE01F20110D
:10085000201120112011E019C00900002010FC1FF8
:10086000FE1F2210220006000400C04FE0DF20908F
:1008700020902090C0FFE07F20000210FE1FFE1F8E
:10088000400020002000E01FC01F000020102010AA
:10089000EC1FEC1F001000100000006000C0208062
:1008A0002080ECFFEC7F000000000210FE1FFE1F06
:1008B00080018003C006601C201800000210021096
:1008C000FE1FFE1F001000100000E01FE01F600070
:1008D000C00FC00F6000E01FC01F2000E01FC01F3E
:1008E000200020002000E01FC01FC00FE01F2010CC
:1008F000201020102010E01FC00F2080E0FFC0FF5C
:10090000209020102010E01FC00FC00FE01F20100B
:1009100020102090C0FFE0FF20802010E01FC01FAB
:1009200060102000200060004000C008E019201185
:10093000201120132012601E400C20002000FC0F0C
:10094000FE1F2010201800080000E00FE01F00101C
:1009500000100010E00FE01F0010E003E007000CA3
:1009600000180018000CE007E003E00FE01F00187B
:10097000000F000F0018E01FE00F20106018C00CDF
:1009800080078007C00C60182010E08FE09F009067
:100990000090009000D0E07FE03F6018601C2016BF
:1009A0002013A011E0106018201800000000800043
:1009B000FC1F7E3F0220022000000000000000001B
:1009C0007C3E7C3E0000000000000000022002206F
:1009D0007E3FFC1F80000000000000E0F8FCFE1ECF
:1009E000070707071EFEFCF8F00000070F3F3F7CDB
:1009F000707070707C3F1F1F070000000006070723
:100A0000FFFFFFFF000000000000000000000000EA
:100A10007F7F7F7F00000000000000383C3E3E0FDB
:100A2000070707CFFFFEFE380000004040607078E7
:100A30007C7E7F7773717070000000181C1E1E0F83
:100A4000C7C7E7FFFEBE9C000000000C1C3C3C78C2
:100A5000707070797F3F1F0F0000000080C0E07051
:100A6000381C1EFFFFFFFF000000060707070606F1
:100A70000606067F7F7F7F06060000000000F0FF6D
:100A8000FFFFE7E7E7E7C7870000000038787170ED
:100A900070707070393F3F1F0F000080E0F0F8FC6D
:100AA0007F7F6F67E1E1C0800000000F1F3F3F784C
:100AB00070707070783F3F1F0F000007070707072F
:100AC000C7E7F7FF7F3F1F0703010020387C7E3F09
:100AD0000F0703000000000000000000001CBEFE25
:100AE000FFE7C3C3E7FFFEBE1C0000000E3F3F7FD1
:100AF00071606060717F3F3F0F000078FCFEFE8FE9
:100B0000070707078FFEFEFCF800000000014343C3
:100B1000737B7F7F1F0F0703000000005F00000052
:100B200007000700147F147F14242A7F2A1223133E
:100B300008646236495522500005030000001C225B
:100B400041000041221C0014083E081408083E0819
:100B50000800503000000808080808006060000025
:100B600020100804023E5149453E00427F400042A9
:100B7000615149462141454B311814127F102745D8
:100B80004545393C4A49493001710905033649490F
:100B90004936064949291E003636000000563600FF
:100BA00000081422410014141414140041221408E3
:100BB0000201510906324979413E7E1111117E7FB1
:100BC000494949363E414141227F4141221C7F49EA
:100BD0004949417F090909013E4149497A7F08088D
:100BE000087F00417F41002040413F017F081422DF
:100BF000417F404040407F020C027F7F0408107F0D
:100C00003E4141413E7F090909063E4151215E7F37
:100C100009192946464949493101017F01013F40EF
:100C200040403F1F2040201F3F4038403F63140892
:100C3000146307087008076151494543007F41412B
:100C40000002040810200041417F00040201020458
:100C50004040404040000102040020545454787F3A
:100C6000484444383844444420384444487F385445
:100C7000545418087E0901020C5252523E7F080457
:100C8000047800447D40002040443D007F1028440B
:100C90000000417F40007C041804787C080404783C
:100CA00038444444387C14141408081414187C7C08
:100CB000080404084854545420043F4440203C4055
:100CC00040207C1C2040201C3C4030403C442810EC
:100CD00028440C5050503C4464544C440008364165
:100CE0000000007F000000413608001008081008CE
:100CF00000407A10F35A00A0724E18090010A5D4D3
:100D0000E80000E87648170000E40B54020000CA2F
:100D10009A3B000000E1F505000080969800000075
:100D200040420F000000A0860100000010270000D4
:100D30000000E803000000006400000000000A005A
:100D4000000000000100000000002C76D888DC675D
:100D50004F0823DFC1DFAE59E1B1B796E5E3E453B5
:100D6000C63AE651997696E8E6C28426EB898C9BD2
:100D700062ED407C6FFCEFBC9C9F40F2BAA56FA572
:100D8000F490055A2AF75C936B6CF9676DC11BFCF4
:100D9000E0E40D47FEF520E6B500D0ED902E03000F
:100DA000943577050080841E080000204E0A00005C
:100DB00000C80C333333330F986E12831141EF8D1B
:100DC0002114893BE65516CFFEE6DB18D1844B385B
:100DD0001BF77C1D901DA4BBE424203284725E228C
:100DE0008100C9F124ECA1E53D27111B381B11241A
:100DF0001FBECFEFD0E4DEBFCDBF14E0A0E0B1E076
:100E0000E0EEFDE101E00BBF02C007900D92A23FB2
:100E1000B107D9F72FE0A2EFB4E001C01D92A834CA
:100E2000B207E1F71DE0CCEEDDE000E006C022975E
:100E30000109FE010BBF0E94AC86CA3ED10780E0CB
:100E40000807A9F70E94F7140C94DE8E0C9400009A
:100E50000E94F48B08950E948C8C0895ECE7F0E0DA
:100E600090818F71907E982B9083EAE7F0E08081EB
:100E700080648083808186FDFDCF80917800909191
:100E800079000895CF92DF92EF92FF921F93CF9354
:100E9000DF93182FD62F662379F0C0E0C12CD12C18
:100EA0007601812F0E942E07C80ED91EE11CF11C6D
:100EB000CF5FCD13F6CF03C0C12CD12C76012D2FDF
:100EC00030E040E050E0C701B6010E942B85C90127
:100ED000DF91CF911F91FF90EF90DF90CF90089519
:100EE000CF92DF92EF92FF920F931F93CF93DF93F6
:100EF00080E00E942E07C9E2DFE0488159816A81C3
:100F00007B8140932D0F50932E0F60932F0F709382
:100F1000300F4093310F5093320F6093330F709323
:100F2000340F4093350F5093360F6093370F709303
:100F3000380F4093390F50933A0F60933B0F7093E3
:100F40003C0FBC0180E090E00E946C8820E030EC17
:100F50004FE754E40E94D3872CE53FE842E550E494
:100F60000E94E3892DE031E740E050E40E94E389EC
:100F7000688379838A839B830DE31FE0C12CD12C86
:100F8000E12CF12C699179918991999120E030E0DF
:100F900040EA50E40E94D3872C2D3D2D4E2D5F2D2D
:100FA0000E940687C62ED72EE82EF92EC017D1072D
:100FB00049F7462F572F682F792F4093C409509334
:100FC000C5096093C6097093C70926E636E646E66A
:100FD00050E46C2D7D2D0E94058728E939E949E10F
:100FE0005FE30E94D38720E030E048EC52E40E94A7
:100FF000E3896B017C0120E030E040E251E40E9493
:10100000E3890E9440888DEC689F812D112486958C
:1010100086958695880F982F990F990F890F681BD1
:10102000653070F0C701B6010E94408870E06F5FC4
:101030007F4F882777FD8095982F0E946E8809C082
:10104000C701B6010E94408870E080E090E00E94F5
:101050006C880E943B88862FDF91CF911F910F9162
:10106000FF90EF90DF90CF900895CF92DF92EF92B4
:10107000FF920F931F93CF93DF9300D000D0CDB793
:10108000DEB749835A836B837C838E010F5F1F4FCA
:101090006E0125E0C20ED11C7C01F80161918F0127
:1010A000C7010E94D08EFFEFEF1AFF0A0C151D0535
:1010B000A1F70F900F900F900F90DF91CF911F919C
:1010C0000F91FF90EF90DF90CF900895CF92DF9235
:1010D000EF92FF920F931F93CF93DF9300D000D036
:1010E000CDB7DEB719821A821B821C828E010F5F78
:1010F0001F4F6E0125E0C20ED11C7C01E01AF10ADF
:10110000C701800F911F0E94C88EF80181938F0143
:10111000EC15FD05A9F769817A818B819C810F907F
:101120000F900F900F90DF91CF911F910F91FF9033
:10113000EF90DF90CF9008951F920F920FB60F920D
:1011400011240BB60F922F933F934F935F936F939E
:101150007F938F939F93AF93BF93EF93FF93809170
:10116000B8098F5F8093B8099DEC899F912D112458
:1011700092959F70990F990F292F220F220F920F8E
:10118000891305C08091BC0981608093BC090E94CD
:10119000703FFF91EF91BF91AF919F918F917F91A0
:1011A0006F915F914F913F912F910F900BBE0F90D8
:1011B0000FBE0F901F9018951F920F920FB60F92AF
:1011C00011240BB60F928F93EF93FF93EBE1FFE0A7
:1011D00080818F5F8083E1E2FFE080818260808395
:1011E000FF91EF918F910F900BBE0F900FBE0F905C
:1011F0001F9018951F920F920FB60F9211248F9384
:101200008091BC0981608093BC098F910F900FBEC3
:101210000F901F901895449A8091B709806480932D
:10122000B709089544988091B7098F738093B709DF
:1012300008954F925F926F927F928F929F92AF929A
:10124000BF92CF92DF92EF92FF920F931F93CF93B3
:10125000DF93CDB7DEB72C970FB6F894DEBF0FBE85
:10126000CDBF29873A874B875C87E982FA820B8357
:101270001C832BED3FE049E450E40E94E38920E029
:1012800030E044E353E40E94D3872B013C012BED73
:101290003FE049E450E4C801B7010E94E38920E03F
:1012A00030E044E353E40E94D3876D837E838F83D1
:1012B0009887A30192010E94058720E030E040E07A
:1012C0005FE30E94E3890E94928A69837A838B8319
:1012D0009C83C301B2010E94D0872B013C016D8128
:1012E0007E818F8198850E94D0876D837E838F83D6
:1012F00098872BED3FE049E450E4C601B5010E9418
:10130000E38920E030E044E353E40E94D3874B01BB
:101310005C012BED3FE049E450E469857A858B85DB
:101320009C850E94E38920E030E044E353E40E947E
:10133000D3879B01AC01C501B4010E94058720E061
:1013400030E040E05FE30E94E3890E94928A4B0113
:101350005C0129813A814B815C81CA01B9010E94FB
:10136000E3896B017C012D813E814F815885C3014A
:10137000B2010E94E389A50194010E94E3899B01C7
:10138000AC01C501B4010E94E3899B01AC01C70116
:10139000B6010E9406876B017C019B01AC0160E0F5
:1013A00070E080E89FE30E9405870E949C8A4B01C1
:1013B0005C01C701B6010E949C8AA50194010E94AC
:1013C00079879B01AC010E94068720E73DE642EC4D
:1013D0005AE40E94E3892C960FB6F894DEBF0FBE44
:1013E000CDBFDF91CF911F910F91FF90EF90DF90D4
:1013F000CF90BF90AF909F908F907F906F905F90B5
:101400004F9008954F925F926F927F928F929F922A
:10141000AF92BF92CF92DF92EF92FF920F931F9302
:10142000CF93DF93CDB7DEB760970FB6F894DEBFEA
:101430000FBECDBF29833A834B835C832BED3FE006
:1014400049E450E40E94E38920E030E044E353E4BF
:101450000E94D3876D837E838F8398872BED3FE037
:1014600049E450E4C801B7010E94E38920E030E07C
:1014700044E353E40E94D3872B013C012BED3FE072
:1014800049E450E4C601B5010E94E38920E030E060
:1014900044E353E40E94D3876B017C012BED3FE0D2
:1014A00049E450E469817A818B819C810E94E389BF
:1014B00020E030E044E353E40E94D3879B01AC0179
:1014C000C701B6010E9405876B017C010E94928AC8
:1014D00069877A878B879C87C301B2010E94D08776
:1014E00069837A838B839C836D817E818F819885CC
:1014F0000E94D0876D877E878F87988BC301B2014A
:101500000E94928A2B013C016D817E818F8198859A
:101510000E94928A4B015C01C701B6010E94D087EC
:101520006D837E838F839887A30192016D857E856D
:101530008F8598890E94E3896B017C01A501940144
:1015400069817A818B819C810E94E3892D813E8112
:101550004F8158850E94E3899B01AC01C701B60108
:101560000E9405876B017C0129813A814B815C8156
:1015700069857A858B859C850E94E389A701960100
:101580000E9479872BED3FE049EC50E40E940687EA
:101590002BED3FE049EC50E40E94B08860960FB616
:1015A000F894DEBF0FBECDBFDF91CF911F910F9199
:1015B000FF90EF90DF90CF90BF90AF909F908F9073
:1015C0007F906F905F904F9008951F920F920FB68B
:1015D0000F9211240BB60F922F938F939F93EF933B
:1015E000FF939091C600943251F48091B709282F4F
:1015F0002C7029F410926E0981608093B7092091B4
:10160000B70920FF3CC080916E09E82FF0E0E15956
:10161000F64F90838F5F80936E09893420F02E7F80
:101620002093B7092CC08331C9F4809173098D349C
:1016300089F480917409833469F48091810981343B
:1016400029F02D7F20612093B70919C022602093D3
:10165000B70915C02C7F2093B70911C08A3239F41D
:1016600024FF0DC02E7E28602093B70908C0863461
:1016700031F421FF04C02C7F24602093B709FF912F
:10168000EF919F918F912F910F900BBE0F900FBEF6
:101690000F901F90189510924C0910924D091092BE
:1016A0004E0910924F091092480910924909109260
:1016B0004A0910924B091092440910924509109260
:1016C0004609109247091092400910924109109260
:1016D0004209109243090895FC01208130E0062E52
:1016E00002C0359527950A94E2F720FF17C0EFE076
:1016F000F7E23197F1F700C00000FC01808190E033
:101700009C0102C0359527956A95E2F720FD08C037
:1017100032E03A95F1F700C081E0089580E0089545
:1017200080E00895CF92DF92EF92FF92CF93DF9304
:10173000E4E8F0E0C081D181118210822BED3FE01E
:1017400049E450E40E94E38926E636E646E650E4A2
:101750000E94E3896B017C01BE0180E090E00E9461
:101760006C8820E030E040E05EE30E94E3892DEBEE
:1017700037E346E85AE30E94E3892AE037ED43EA7B
:101780005BE30E9406879B01AC01C701B6010E9482
:10179000D38720914C0930914D0940914E095091C9
:1017A0004F090E94068720E030E040E05FE30E949E
:1017B000E3896B017C0120E030E040E253E40E94C9
:1017C000D88988234CF4C0924C09D0924D09E092FC
:1017D0004E09F0924F0908C010924C0910924D0921
:1017E00010924E0910924F09DF91CF91FF90EF9028
:1017F000DF90CF9008950F931F9380911D0F40911C
:101800001F0F50E060E070E0032E35E1440F551FDC
:10181000661F771F3A95D1F7302D682B8091190FED
:1018200090E0A0E0B0E0072E7BE0880F991FAA1F90
:10183000BB1F7A95D1F7702D482B592B6A2B7B2B28
:1018400080911A0F90E0A0E0B0E0880F991FAA1FC6
:10185000BB1F880F991FAA1FBB1F880F991FAA1FA4
:10186000BB1F880F991FAA1FBB1F880F991FAA1F94
:10187000BB1F482B592B6A2B7B2B80911B0F90E0B1
:10188000A0E0B0E0B695A79597958795482B592B82
:101890006A2B7B2B8091200F90E04496AA2797FD1E
:1018A000A095BA2F072E79E1880F991FAA1FBB1F99
:1018B0007A95D1F7702D8A019B01082B192B2A2BC1
:1018C0003B2BC901B8011F910F9108950F931F93EE
:1018D000CF93DF93CDB7DEB7A9970FB6F894DEBFED
:1018E0000FBECDBF3C9A1092BD091092BC09109258
:1018F000BB091092BA091092B9091092B809109256
:1019000085001092840010926F0085E08093810022
:101910000E9A169A80E480937C00EAE7F0E083E078
:1019200080838081806880838081806480838081DF
:1019300086FDFDCF809178009091790089B1897FF3
:1019400089B98AB1897F8AB91092C50083E38093EF
:10195000C40086E08093C20080E88093C1001092AA
:101960006E098093B70910926A0910926B09109260
:101970006C0910926D0988E090E00E9466086093FF
:101980005E0970935F0980936009909361091092DA
:1019900066091092670910926809109269098CE033
:1019A00090E00E94660860935A0970935B098093E7
:1019B0005C0990935D091092560910925709109294
:1019C0005809109259091092550910925409109211
:1019D00053091092520910925109109250090E9415
:1019E0000B091F8A88E09BE0998F888F89E09FE030
:1019F0009B8F8A8F1EA21FA281E089A789EB94E0AA
:101A00009A83898388E09BE00E944A218FE0E3E18A
:101A1000F2E0DE01139601900D928A95E1F78EE0D7
:101A20008F8B00E010E0E3E0F0E0EC0FFD1FE10F32
:101A3000F11D20E0402F6081888D998D0E94A025A6
:101A40001F5F0A5F8F89181770F38FE0E2E2F2E000
:101A5000DE01139601900D928A95E1F78EE08F8B4F
:101A600000E010E0E3E0F0E0EC0FFD1FE10FF11DFE
:101A700028E0402F6081888D998D0E94A0251F5FEE
:101A80000A5F8F89181770F380E48F9387E48F9330
:101A90008EEA8F9384E18F9385E092E09F938F93FA
:101AA000CE0103969F938F930E943B8E8F8B0FB630
:101AB000F894DEBF0FBECDBF8823A1F000E010E098
:101AC000E3E0F0E0EC0FFD1FE10FF11D20E2402FFD
:101AD0006081888D998D0E94A0251F5F0A5F8F8984
:101AE000181770F3888D998D0E94F3218AE03FE7E3
:101AF00098E321E0315090402040E1F700C0000021
:101B00003FE798E321E0315090402040E1F700C0EA
:101B10000000815061F710921B0F80E090E00E945E
:101B2000C88E80931A0F81E090E00E94C88E809347
:101B3000190F82E090E00E94C88E80931D0F83E011
:101B400090E00E94C88E80931F0F84E090E00E9476
:101B5000C88E8093200F85E090E00E94C88E80930D
:101B6000220F86E090E00E94C88E8093230F89E0C8
:101B70009FE00E94A53689E09FE00E94D13780B7A0
:101B8000806880BFE1ECF0E080818061808382E04A
:101B900084BD86E287BDEEE6F0E0808182608083CE
:101BA00085B5856085BD7894A9960FB6F894DEBF9B
:101BB0000FBECDBFDF91CF911F910F910895CF93AD
:101BC000DF931F92CDB7DEB76983603209F49EC000
:101BD0002091BD0921602093BD09462F50E0FA01F4
:101BE000F097E634F10508F087C0EC5AFF4F0C94EB
:101BF0004D8587E08093BB0989C0DC0196962C91C6
:101C0000211104C087E08093BB0980C02150FC01F2
:101C100026A37CC02091BB09273031F4DC019596C6
:101C20008C918093BB0972C0FC0126A130A52317BB
:101C300008F06CC02F5F26A369C02091BB09273034
:101C400031F4DC0195968C918093BB095FC0FC0157
:101C500026A130A5231708F059C02F5F26A356C030
:101C6000DC0195966C919597462F50E097962C91B4
:101C7000979730E0215031094217530724F46F5FE2
:101C800095966C9343C0FC0115A240C0DC0195966B
:101C90002C919597222321F0215095962C9336C0B4
:101CA000FC0127A1215025A331C082EC99E00E94BC
:101CB0007935882329F082EC99E00E94BC3504C074
:101CC00082EC99E00E9430358091210F84FF1EC084
:101CD00080EC99E00E94BC358091BD098D7F809396
:101CE000BD0960E088E09BE00E94E921E1E2FFE0BD
:101CF00080818F7E80830AC0DC01ED91FC9104809D
:101D0000F581E02DBE016F5F7F4F09950F90DF9148
:101D1000CF910895CF92DF92EF92FF920F931F938E
:101D2000CF93DF93CDB7DEB72D970FB6F894DEBF14
:101D30000FBECDBF8C018091BB09813019F567E0E2
:101D400080E290E00E946C0B882339F063E371E13C
:101D500086E39FE30E94920BC8C08091840090911B
:101D600085008E389B4508F4C0C010928500109203
:101D7000840010924C0910924D0910924E09109255
:101D80004F09B3C0833009F0B0C0D80195968C914B
:101D90009597833081F596968C91813009F0A5C096
:101DA0008091BC0981FD14C080E00E946C3A8111D1
:101DB0001DC040E06DEB73E082E197E00E94475860
:101DC000892BA1F48091BC0982608093BC090EC06C
:101DD00082FD0CC040E06DEB73E080E090E00E947B
:101DE00047588091BC098D7F8093BC09F80186A17A
:101DF000815086A37AC0843009F077C0D8019696C6
:101E00008C91813009F071C08091BC0982FD59C06C
:101E100081FF57C080E00E94793B81114CC08091C6
:101E20001A0F1F928F938091190F1F928F93809199
:101E30001D0F1F928F9380911F0F1F928F9386E12A
:101E400093E09F938F93FE0131967F01FF92EF9372
:101E50000E943B8E42E1B70182EF94E00E94AD58B0
:101E60008BE293E09F938F930F2EF2EFEF2EF4E02F
:101E7000FF2EF02DFF92EF920E94AF6789E693E06C
:101E80009F938F93FF92EF920E94AF678CE793E04E
:101E90009F938F93FF92EF920E94AF678CEA93E03B
:101EA0009F938F93FF92EF920E94AF670FB6F894C3
:101EB000DEBF0FBECDBF8091BC0984608093BC099A
:101EC0000DC082EF94E00E94406182EF94E00E9496
:101ED0007C628091BC098B7F8093BC09D801969667
:101EE0008C919697815096968C938091BC0980FF37
:101EF0000DC08E7F8093BC098091BD098160809365
:101F0000BD098091B9098F5F8093B9098091210F34
:101F100081FF87C189E09FE00E94793788EC99E0D2
:101F20000E94E2208091BB09813009F057C0C09027
:101F30004C09D0904D09E0904E09F0904F09209146
:101F40004409309145094091460950914709C7011C
:101F5000B6010E94D889181644F4C0924409D09260
:101F60004509E0924609F092470920E030E040E858
:101F70005FE3C701B6010E94D88988239CF0809155
:101F8000400990914109A0914209B09143090196FD
:101F9000A11DB11D8093400990934109A09342096E
:101FA000B093430926E636E646E650E4C701B6019B
:101FB0000E94D3879B01AC01609148097091490947
:101FC00080914A0990914B090E94068760934809C5
:101FD0007093490980934A0990934B098091BC09F9
:101FE0008670863009F0EDC080911B0F1F928F9391
:101FF00080911A0F1F928F938091190F1F928F93C8
:102000008091200F90E08053984F9F938F93809101
:102010001F0F1F928F9380911D0F1F928F938EEB36
:1020200093E09F938F930F2EF2EFEF2EF4E0FF2EAD
:10203000F02DFF92EF920E94AF6720E030E048EC75
:1020400052E4609156097091570980915809909116
:1020500059090E94E3890E943B889F938F937F9345
:102060006F9320E030E543EC57E460916A0970918A
:102070006B0980916C0990916D090E94E3890E941F
:102080003B889F938F937F936F9320E034E244E7E4
:1020900059E460916609709167098091680990918F
:1020A00069090E94E3890E943B889F938F937F93E5
:1020B0006F938CED93E09F938F93FF92EF920E942A
:1020C000AF670FB6F894DEBF0FBECDBF20E030E0A3
:1020D00048EC52E460914C0970914D0980914E0991
:1020E00090914F090E94E3890E943B889F938F93B0
:1020F0007F936F9384EE93E09F938F93FF92EF9281
:102100000E94AF6720E030E040E251E46091D409E2
:102110007091D5098091D6099091D7090E94E389E1
:102120000E943B887F936F9320E030E048EC52E4BC
:102130006091C8097091C9098091CA099091CB0931
:102140000E94E3890E9440889F938F937F936F93AF
:1021500020E030E040E251E46091D0097091D10973
:102160008091D2099091D3090E94E3890E943B8813
:102170007F936F9389EE93E09F938F93FF92EF92FB
:102180000E94AF6720E030E048EC52E46091C4095F
:102190007091C5098091C6099091C7090E94E38991
:1021A0000E943B887F936F9384EF93E09F938F937C
:1021B000FF92EF920E94AF670FB6F894DEBF0FBE9A
:1021C000CDBF8091B9098093BA091092B909809165
:1021D000BD09982F91609093BD09E1E2FFE09081E5
:1021E0009D7F908381FF1DC08091280F811108C0C1
:1021F00081E08093280F82EC99E00E94303506C080
:102200001092280F82EC99E00E94BC356091280F53
:1022100088E09BE00E94E9218091BD098160809364
:10222000BD098091210F82FF13C08091BC09867087
:10223000863021F482EF94E00E9440618091BD09D4
:1022400081608093BD09E1E2FFE080818B7F808324
:102250008091210F8871883191F48091BD0983604C
:102260008093BD0980EC99E00E94303582EC99E0C2
:102270000E943035E1E2FFE08081877F808380919A
:10228000BD0980FF08C0D801ED91FC910680F7815F
:10229000E02DC80109952D960FB6F894DEBF0FBE4C
:1022A000CDBFDF91CF911F910F91FF90EF90DF9005
:1022B000CF9008954F925F926F927F928F929F92EC
:1022C000AF92BF92CF92DF92EF92FF920F931F9344
:1022D000CF93DF9300D000D0CDB7DEB78091B709A0
:1022E00082FFE0C288231CF080688093B709909138
:1022F00077099E5280917609880F8056282F220FE9
:10230000220F820F890F809355099091790990537C
:1023100080917809880F8056282F220F220F820F74
:10232000890F8093540990917B09905380917A0989
:10233000880F8056282F220F220F820F890F80933B
:1023400053098091830990E0C097BC01660F771F05
:10235000880F991F880F991F880F991F680F791F81
:10236000882777FD8095982F0E946E886B017C01ED
:102370006091840970E060537109882777FD80952A
:10238000982F0E946E88A70196010E9406874B0134
:102390005C018091850990E0C097BC01660F771FB2
:1023A000880F991F880F991F880F991F680F791F31
:1023B000882777FD8095982F0E946E886B017C019D
:1023C0006091860970E060537109882777FD8095D8
:1023D000982F0E946E88A70196010E9406876B01C4
:1023E0007C016091880970E060537109882777FD4E
:1023F0008095982F0E946E8820E030E040E251E402
:102400000E94D387A70196010E9406876B017C0179
:102410006091890970E060537109882777FD809584
:10242000982F0E946E8820E030E048EC52E40E9431
:10243000D387A70196010E9406876B017C016091FA
:102440008A0970E060537109882777FD8095982F7D
:102450000E946E8820E030E04AE754E40E94D3876F
:10246000A70196010E9406876B017C0160918B0990
:1024700070E060537109882777FD8095982F0E943E
:102480006E8820E030E44CE156E40E94D387A70137
:1024900096010E94068720E030E040E752E40E9467
:1024A000D387A50194010E9406876B017C0180916E
:1024B0008D098E3421F0F7FAF094F7F8F0948091BA
:1024C0008F0990E0C09724E6289FB001299F700DE6
:1024D0001124882777FD8095982F0E946E884B01E4
:1024E0005C018091900990E0C097BC01660F771F56
:1024F000880F991F880F991F880F991F680F791FE0
:10250000882777FD8095982F0E946E88A5019401F9
:102510000E9406874B015C016091910970E0605355
:102520007109882777FD8095982F0E946E88A501F4
:1025300094010E9406872B013C018091920990E052
:10254000C097BC01660F771F880F991F880F991FCE
:10255000880F991F680F791F882777FD8095982F1E
:102560000E946E884B015C016091930970E060539A
:102570007109882777FD8095982F0E946E88A501A4
:1025800094010E9406874B015C016091950970E0FF
:1025900060537109882777FD8095982F0E946E8877
:1025A00020E030E040E251E40E94D387A50194018D
:1025B0000E9406874B015C016091960970E06053B0
:1025C0007109882777FD8095982F0E946E8820E0FA
:1025D00030E048EC52E40E94D387A50194010E94A8
:1025E00006874B015C016091970970E060537109A7
:1025F000882777FD8095982F0E946E8820E030E034
:102600004AE754E40E94D387A50194010E940687FB
:102610004B015C016091980970E060537109882753
:1026200077FD8095982F0E946E8820E030E44CE181
:1026300056E40E94D387A50194010E94068720E0FA
:1026400030E040E752E40E94D387A30192010E9448
:10265000068720919A09253409F09058C0926A099A
:10266000D0926B09E0926C09F0926D096093660953
:102670007093670980936809909369098DE28C8350
:10268000EC81F0E0E159F64F80818E3291F48C813B
:1026900081508C838C818F5F8C83109256091092AD
:1026A000570910925809109259098C818E3228F4DA
:1026B00050C08C818F5F8C83E3CF712C812C912C47
:1026C000A12C0F2EFDE2BF2EF02D0B2D10E06C8102
:1026D00070E0601B710B61507109882777FD809550
:1026E000982F0E946E889B01AC0160E070E080E250
:1026F00091E40E94468A6B017C01F801E159F64F92
:10270000608170E060537109882777FD8095982F6C
:102710000E946E88A70196010E94E389272D382D1B
:10272000492D5A2D0E940687B3942C81B21628F4A5
:10273000762E872E982EA92EC8CF062F172F282F3A
:10274000392F009356091093570920935809309355
:102750005909EC811C81F0E0E159F64F618170E08C
:1027600060537109882777FD8095982F0E946E88A5
:102770002DEC3CEC4CEC5DE30E94E3892091560982
:102780003091570940915809509159090E94068784
:102790006B017C01E12FF0E0E159F64F628170E0BE
:1027A00060537109882777FD8095982F0E946E8865
:1027B0002AE037ED43E25CE30E94E3899B01AC0130
:1027C000C701B6010E94068726E53EE04DEE5FE3B5
:1027D0000E94E389609356097093570980935809C2
:1027E0009093590983E18C831B828B81873080F41D
:1027F000EC81F0E0E159F64F80818C3219F48B8145
:102800008F5F8B838C818F5F8C838B81873080F38C
:10281000AC81EC81B0E0A159B64F8C91880F805605
:10282000282F220F220F280FF0E0E159F64F818167
:1028300090E0C097820F911D80935209AC81EC818A
:10284000B0E0A159B64F12968C91880F8056282F70
:10285000220F220F280FF0E0E159F64F838190E01C
:10286000C097820F911D80935109AC81EC81B0E03B
:10287000A159B64F14968C91880F8056282F220F9D
:10288000220F280FF0E0E159F64F858190E0C097C4
:10289000820F911D809350098091B7098B7F80939F
:1028A000B70990C083FF8EC088231CF48F77809374
:1028B000B709909177099E5280917609880F8056CA
:1028C000282F220F220F820F890F80935509909194
:1028D0007909905380917809880F8056282F220F0C
:1028E000220F820F890F8093540990917B09905396
:1028F00080917A09880F8056282F220F220F820F8D
:10290000890F8093530983E18A83198289818730F3
:1029100080F4EA81F0E0E159F64F80818C3219F4BD
:1029200089818F5F89838A818F5F8A8389818730DC
:1029300080F3AA81EA81B0E0A159B64F8C91880F4B
:102940008056282F220F220F280FF0E0E159F64F72
:10295000818190E0C097820F911D80935209AA81D6
:10296000EA81B0E0A159B64F12968C91880F80563B
:10297000282F220F220F280FF0E0E159F64F838114
:1029800090E0C097820F911D80935109AA81EA813E
:10299000B0E0A159B64F14968C91880F8056282F1D
:1029A000220F220F280FF0E0E159F64F858190E0C9
:1029B000C097820F911D809350098091B709877F3E
:1029C0008093B7090F900F900F900F90DF91CF91E8
:1029D0001F910F91FF90EF90DF90CF90BF90AF903D
:1029E0009F908F907F906F905F904F900895CF93BE
:1029F000DF93CDB7DEB769970FB6F894DEBF0FBE91
:102A0000CDBF0E94660C8AE290E00E94F48BFC012C
:102A1000168A88E09BE0908F878B89E09FE0928FF9
:102A2000818F15A216A281E080A789E894E09183A6
:102A3000808345E558E662E770E049835A836B83FB
:102A40007C839E012F5F3F4FCF014B96AE01455FC8
:102A50005F4F890160E2702F721B743028F4D80137
:102A60007C91DC017C9302C0DC016C930F5F1F4FF3
:102A700001960417150779F711A683E080A7FA835A
:102A8000E98389E290E00E94F48B8C01FC01168AB4
:102A900088E09BE0908F878B89E09FE0928F818F09
:102AA00015A216A281E080A785E994E09183808336
:102AB00086E0E9EFF3E0DE01519601900D928A95F0
:102AC000E1F7CE014196D8015B969E01255E3F4F0E
:102AD000FC0140E25E2F581B563018F450815C9385
:102AE00001C04C9331961196E217F30799F70E94B3
:102AF0004B0B1C830B8389E290E00E94F48BDC017A
:102B000056961C92569728E03BE058963C932E939D
:102B1000579729E03FE05A963C932E935997959604
:102B20001C92959796961C92969721E098962C93D6
:102B3000989721EA34E02D933C9328E0EFEFF3E0FF
:102B4000DE01519601900D922A95E1F79E012F5ECC
:102B50003F4FDC015B96AE01455E5F4FF90160E2DD
:102B60007E2F721B783018F470817C9301C06C93B7
:102B700031961196E417F50799F727E0FC0120A795
:102B80009E838D8389E290E00E94F48BDC0156964F
:102B90001C92569728E03BE058963C932E9357970B
:102BA00029E03FE05A963C932E93599795961C92B4
:102BB000959796961C92969721E098962C939897C5
:102BC0002DED34E02D933C9329E0E7E0F4E0DE01C5
:102BD000519601900D922A95E1F79E012F5E3F4F8D
:102BE000DC015B96AE01455E5F4FF90160E27E2F2E
:102BF000721B793018F470817C9301C06C9331960C
:102C00001196E417F50799F725E0FC0127A39887AB
:102C10008F8389E290E00E94F48BDC0156961C922F
:102C2000569728E03BE058963C932E93579729E01F
:102C30003FE05A963C932E93599795961C92959700
:102C400096961C92969721E098962C93989721ED52
:102C500034E02D933C9329E0E0E1F4E0DE0151966D
:102C600001900D922A95E1F79E012F5E3F4FDC0106
:102C70005B96AE01455E5F4FF90160E27E2F721BED
:102C8000793018F470817C9301C06C933196119661
:102C9000E417F50799F723E0FC0127A39A878987B2
:102CA00089E290E00E94F48BDC0156961C925697C4
:102CB00028E03BE058963C932E93579729E03FE05D
:102CC0005A963C932E93599795961C929597969663
:102CD0001C92969721E098962C9398972DEA34E0D1
:102CE0002D933C9329E0E9E1F4E0DE015196019057
:102CF0000D922A95E1F79E012F5E3F4FDC015B9616
:102D0000AE01455E5F4FF90160E27E2F721B7930A4
:102D100018F470817C9301C06C9331961196E4177E
:102D2000F50799F725E0FC0127A39C878B8789E2AB
:102D300090E00E94F48BFC01168A0F2EF8E0EF2E33
:102D4000FBE0FF2EF02DF08EE78A09E01FE0128FE6
:102D5000018F15A216A2DD24D394D0A689EE94E0AB
:102D600091838083FE87ED8789E290E00E94F48B57
:102D7000DC0156961C9256975896FC92EE92579705
:102D80005A961C930E93599795961C9295979696E2
:102D90001C9296979896DC92989725EC34E02D93A8
:102DA0003C9326E0E2E2F4E0DE01519601900D92C0
:102DB0002A95E1F79E012F5E3F4FDC015B96AE0145
:102DC000455E5F4FF90160E27E2F721B763018F48A
:102DD00070817C9301C06C9331961196E417F507CE
:102DE00099F7FC0110A627E027A3988B8F8788EC22
:102DF00099E00E947C1C8CEF9AE00E94212CE091CB
:102E0000BB09F0E0EE0FFF1F21E030E02C0F3D1F6B
:102E1000E20FF31F682F808191810E94DF0DE09106
:102E2000BB09F0E0EE0FFF1F81E090E08C0F9D1FCB
:102E3000E80FF91F808191810E948A0E0E945A1129
:102E4000DACF2F923F924F925F926F927F928F9242
:102E50009F92AF92BF92CF92DF92EF92FF920F9329
:102E60001F93CF93DF93CDB7DEB766970FB6F89475
:102E7000DEBF0FBECDBF89E09FE00E94EB3788E048
:102E80009BE00E944A21912C0F2EFFE06F2EF02D27
:102E9000CE0101967C01782E8F2CB12C8D8BFE8A71
:102EA0000F2EFDECAF2EF02D0F2EFDE14F2EFFE08B
:102EB0005F2EF02D0F2EFFE1CF2EFFE0DF2EF02D45
:102EC000E8E2F4E0A72DB82D862D01900D928A95A9
:102ED000E1F7272C382C1B2DF10161911F012B2DBF
:102EE000412F88E09BE00E94A0251A5F1435A1F7CE
:102EF000E2E2F2E0A72DB82D862D01900D928A9581
:102F0000E1F72D883E881B2DF10161911F0128E01A
:102F1000412F88E09BE00E94A0251A5F1435A1F79D
:102F2000E9E1FFE080818A9D912D11249695969587
:102F300096959983990F292F220F220F920F891BA3
:102F40008A83FAE3FB83EAE1FFE080818A9D912D89
:102F500011249695969596959C83990F292F220F6B
:102F6000220F920F891B8D8380E28E83F201808174
:102F70008A9D912D11249695969596959F83990FEC
:102F8000292F220F220F920F891B88878EE28987B3
:102F9000F60190819A9D212D11242695269526953E
:102FA0002A87220F322F330F330F230F921B9B8759
:102FB0008C87E0E2FFE080818A9D912D1124969517
:102FC000969596959D87990F292F220F220F920F84
:102FD000891B8E873B2C01E01B2D04C01F5F0F5FF8
:102FE000F0E13F0E123069F020E1432DF701E10FCF
:102FF000F11D608188E09BE00E94EE25053070F3B2
:1030000008C024E148E26B8188E09BE00E94A02593
:10301000E5CF8E01095F1F4F2B2C0F2EF6E03F2EC0
:10302000F02D88E0381661F09BE0391649F020E277
:10303000422DF801608188E09BE00E94EE2509C0E6
:1030400028E248E0420DF801608188E09BE00E94A0
:10305000A02533940F5F1F4FF0E12F0E8EE0381242
:10306000E0CF88E09BE00E94F32188E09BE00E9493
:103070004A21892D90E08A30910508F047C2FC0171
:10308000E656FF4F0C944D858CEF9AE00E94472C3A
:10309000880F982F990F990F890F883108F46FC204
:1030A000E9E1FFE01082E7E3F4E0A72DB82D862DDB
:1030B00001900D928A95E1F72D883E881B2DF10134
:1030C00061911F0128E3412F88E09BE00E94A02529
:1030D0001A5F1435A1F757C28CEF9AE00E94472C73
:1030E000E9E1FFE0208190E0820F911D883110F42A
:1030F00080837CC2E9E1FFE01082E7E3F4E0A72DE2
:10310000B82D862D01900D928A95E1F72D883E8885
:103110001B2DF10161911F0128E3412F88E09BE005
:103120000E94A0251A5F1435A1F730C28CEF9AE0F7
:103130000E94472C880F982F990F990F890F8C3375
:1031400020F4EAE1FFE0808351C2EAE1FFE010826F
:10315000E6E4F4E0A72DB82D862D01900D928A9516
:10316000E1F72D883E881B2DF10161911F0128E3B5
:10317000412F88E09BE00E94A0251A5F1435A1F73B
:1031800008C28CEF9AE00E94472CEAE1FFE0208120
:1031900090E0820F911D8C3310F4808327C2EAE106
:1031A000FFE01082E6E4F4E0A72DB82D862D019013
:1031B0000D928A95E1F72D883E881B2DF1016191D2
:1031C0001F0128E3412F88E09BE00E94A0251A5FA1
:1031D0001435A1F7E1C18CEF9AE00E94472C880FCB
:1031E000982F990F990F890F803218F4F20180837C
:1031F000FDC1F20110828BE0E5E5F4E0A72DB82DCA
:1032000001900D928A95E1F72D883E881B2DF101E2
:1032100061911F0128E3412F88E09BE00E94A025D7
:103220001A5F1C33A1F7BBC18CEF9AE00E94472CB8
:10323000F201208190E0820F911D803210F4808392
:10324000D5C1F20110828BE0E5E5F4E0A72DB82DA1
:1032500001900D928A95E1F72D883E881B2DF10192
:1032600061911F0128E3412F88E09BE00E94A02587
:103270001A5F1C33A1F798C18CEF9AE00E94472C8B
:10328000880F982F990F990F890F8D3018F4F60138
:103290008083ACC1F60110828DE0E0E6F4E0A72D5A
:1032A000B82D01900D928A95E1F72D883E881B2D4F
:1032B000F10161911F0128E3412F88E09BE00E940A
:1032C000A0251A5F1834A1F774C18CEF9AE00E9410
:1032D000472CF601208190E0820F911D8D3010F473
:1032E00080831EC0F60110828DE0E0E6F4E0A72D99
:1032F000B82D01900D928A95E1F72D883E881B2DFF
:10330000F10161911F0128E3412F88E09BE00E94B9
:10331000A0251A5F1834A1F70F2EF5E09F2EF02D8F
:10332000F6019081892F8D7F843011F0893009F565
:10333000F20180818F3108F4EAC01082F601108218
:103340008BE0E5E5F4E0A72DB82D01900D928A956C
:10335000E1F72D883E881B2DF10161911F0128E3C3
:10336000412F88E09BE00E94A0251A5F1C33A1F743
:1033700025C1923009F0CBC0F20180818E3108F472
:10338000C6C01082F60110828BE0E5E5F4E0A72DBF
:10339000B82D01900D928A95E1F72D883E881B2D5E
:1033A000F10161911F0128E3412F88E09BE00E9419
:1033B000A0251A5F1C33A1F706C18CEF9AE00E948A
:1033C000472C880F982F990F990F890F823320F47B
:1033D000E0E2FFE080830AC1E0E2FFE010828CE0DF
:1033E000EDE6F4E0A72DB82D01900D928A95E1F756
:1033F0002D883E881B2DF10161911F0128E3412F8B
:1034000088E09BE00E94A0251A5F1234A1F7E0C07B
:103410008CEF9AE00E94472CE0E2FFE0208190E0F0
:10342000820F911D823310F480831FC0E0E2FFE021
:1034300010828CE0EDE6F4E0A72DB82D01900D92FE
:103440008A95E1F72D883E881B2DF10161911F01BE
:1034500028E3412F88E09BE00E94A0251A5F1234E8
:10346000A1F70F2EF7E09F2EF02DF601808182301C
:1034700009F04DC0E0E2FFE08081837021F5F201A8
:1034800080818E3108F443C01082F6011082E0E2A0
:10349000FFE010828BE0E5E5F4E0A72DB82D019068
:1034A0000D928A95E1F72D883E881B2DF1016191DF
:1034B0001F0128E3412F88E09BE00E94A0251A5FAE
:1034C0001C33A1F78AC0F20180818D3100F1108296
:1034D000F6011082E0E2FFE010828BE0E5E5F4E027
:1034E000A72DB82D01900D928A95E1F72D883E8881
:1034F0001B2DF10161911F0128E3412F88E09BE022
:103500000E94A0251A5F1C33A1F76CC0939493947A
:10351000FAE0F91508F0D4CC10921B0F10921C0F92
:1035200060911A0F80E090E00E94D08E6091190F98
:1035300081E090E00E94D08E60911D0F82E090E0CB
:103540000E94D08E60911F0F83E090E00E94D08E89
:103550006091200F84E090E00E94D08E88E09BE094
:103560000E944A2189E09FE00E94A53689E09FE001
:103570000E946C3689E09FE00E94D13739C0E9E1B2
:10358000FFE0808333C099249A9430C099249A94A0
:103590002DC0992493942AC09924939427C00F2E68
:1035A000F3E09F2EF02D22C00F2EF3E09F2EF02D82
:1035B0001DC00F2EF5E09F2EF02D18C00F2EF3E04A
:1035C0009F2EF02D13C00F2EF3E09F2EF02D0EC076
:1035D0000F2EF7E09F2EF02D09C00F2EF3E09F2E47
:1035E000F02D04C00F2EF3E09F2EF02D939468CCA5
:1035F00066960FB6F894DEBF0FBECDBFDF91CF91B8
:103600001F910F91FF90EF90DF90CF90BF90AF9000
:103610009F908F907F906F905F904F903F902F90F2
:10362000089589E09FE00E94DE3688E09BE00E94DA
:10363000DA218CEF9AE00E94352A87EF99E00E9408
:10364000893288EC99E00E94C31C41E062E482EC7C
:1036500099E00E94ED3442E062E480EC99E00E943F
:10366000ED3447E064E48EEB99E00E94ED34089578
:103670008EEB99E00E942F3580EC99E00E942F3567
:1036800082EC99E00E942F3588EC99E00E94A11B02
:1036900087EF99E00E94D72E8CEF9AE00E94482A8B
:1036A00088E09BE00E94462189E09FE00E945A3614
:1036B00008950895FC01208120FF04C025B5818173
:1036C000822B85BD089585B5887F85BD08950F93AC
:1036D0001F93CF93DF93EC018B010E94631BB80112
:1036E00080E090E00E946C889B01AC0160E074E295
:1036F00084EF96E40E94D3870E94408867BD16BC81
:10370000CE010E945A1BDF91CF911F910F91089516
:10371000CF93DF93EC0118822B98239A84B58164B0
:1037200084BD85B5886085BD84E0898368EE73E0DB
:10373000CE010E94671BCE010E94631BDF91CF91D7
:1037400008958E960E94102108950F931F93CF9392
:10375000DF93062F142FEC01AE96CE010E941121AB
:103760006EEECE010E942521602FCE010E94252100
:10377000612FCE010E942521CE010E941521DF91EB
:10378000CF911F910F9108951F93CF93DF93162F21
:10379000EC01AE96CE010E9411216EEECE010E9488
:1037A0002521612FCE010E942521CE010E941121E9
:1037B0006FEECE010E94252160E0CE010E943521EE
:1037C000182FCE010E941521812FDF91CF911F91DB
:1037D00008951F93CF93DF93162FEC01AE96CE0181
:1037E0000E9411216EEECE010E942521612FCE0193
:1037F0000E942521CE010E9411216FEECE010E9470
:10380000252160E0CE010E943521182FCE010E94B3
:103810001521812FDF91CF911F9108950F931F9351
:10382000CF93DF93EC01162F0E94C41B082F61E099
:10383000610FCE010E94E91B202F332727FD309511
:10384000322F2227A901480F511DCA01DF91CF91C4
:103850001F910F9108950F931F93CF93DF93EC0166
:10386000162F0E94E91B082F61E0610FCE010E9414
:10387000E91B202F30E0322F2227A901480F511DCC
:10388000CA01DF91CF911F910F910895FF920F937D
:103890001F93CF93DF938C01C62F0E94C41BD82F98
:1038A00061E06C0FC8010E94E91BF82E62E06C0F0A
:1038B000C8010E94E91B4F2D50E060E070E0762FB8
:1038C000652F542F44278A019B01080F111D211DCC
:1038D000311D8D2F90E0A0E0B0E0DC019927882712
:1038E000BC01CD01600F711F821F931FDF91CF912B
:1038F0001F910F91FF900895CF93DF93EC016AEA37
:103900000E940E1C998B888B6CEACE010E940E1CC3
:103910009B8B8A8B6EEACE010E940E1C9D8B8C8B3A
:1039200060EBCE010E942B1C99A388A362EBCE0111
:103930000E942B1C9BA38AA364EBCE010E942B1C2C
:103940009DA38CA366EBCE010E940E1C9F8B8E8BD9
:1039500068EBCE010E940E1C998F888F6AEBCE0116
:103960000E940E1C9B8F8A8F6CEBCE010E940E1C56
:103970009D8F8C8F6EEBCE010E940E1C9F8F8E8FC1
:10398000DF91CF910895CF93DF93EC018E960E9443
:103990000C211EA21FA218A619A61AA61BA61CA6B9
:1039A0001DA640E050E56DE774E44C835D836E83B3
:1039B0007F83CE010E947C1CDF91CF9108952F92CE
:1039C0003F924F925F926F927F928F929F92AF92AF
:1039D000BF92CF92DF92EF92FF920F931F93CF93FC
:1039E000DF93CDB7DEB728970FB6F894DEBF0FBED2
:1039F000CDBF9E838D834EE264EF0E94A51B8FE0B6
:103A000097E20197F1F700C0000066EF8D819E817B
:103A10000E940E1CED81FE8124A135A1821B930B17
:103A20006C0142A153A1AC2CBD2CC12CD12CE12C9A
:103A3000F12C00E010E0242F352F40E050E060E052
:103A400070E080E090E00E947C850FE00E94C986D3
:103A5000222E332E442E552E662E772E882E992E0A
:103A6000ED81FE81358D248D932F990F990B492F70
:103A7000592F692F792F892F0BE00E94B086B22F22
:103A8000A32F48875F8369837A838B839C83378DD9
:103A9000268D932F990F990B492F592F692F792F25
:103AA000892FA22CB32CC42CD52CE62CF72C082D56
:103AB000192D0E94E786A22EB32EC42ED52EE62EF7
:103AC000F72E082F192F2B2F3A2F48855F816981F8
:103AD0007A818B819C810E94D785A22EB32EC42E21
:103AE000D52ED601C501820D931DA41DB51DED81F6
:103AF000FE8186A397A3A0A7B1A7BC01CD01685FF3
:103B00007F4F8F4F9F4F0E946E8820E030E040E84B
:103B10005DE30E94E38920E030E040E251E40E944E
:103B2000D387ED81FE81608771878287938728968E
:103B30000FB6F894DEBF0FBECDBFDF91CF911F91BE
:103B40000F91FF90EF90DF90CF90BF90AF909F903C
:103B50008F907F906F905F904F903F902F9008953F
:103B60002F923F924F925F926F927F928F929F928D
:103B7000AF92BF92CF92DF92EF92FF920F931F937B
:103B8000CF93DF93CDB7DEB7A3970FB6F894DEBF20
:103B90000FBECDBF99A388A30E94DF1C44EF64EF42
:103BA00088A199A10E94A51B8FE19BEC0197F1F7D9
:103BB00000C0000066EF88A199A10E94461C7B010D
:103BC0008C0120E030E0A9016987FA860B871C8709
:103BD0002D873E874F87588BA8A1B9A196964D9007
:103BE0005D906D907C909997B0EA4B1ABFE05B0AAC
:103BF0006108710883017201110FEE08FE2C870124
:103C0000E982FA820B831C83A42CB52CC62CD72CFA
:103C1000E980FE2C0E2D1E2D242D352D462D572DE1
:103C2000602F702F802F9E2D0E947C850CE00E94BB
:103C3000C986298B3A8B4B8B5C8B6A8F7B8F8D8FE0
:103C4000292EA8A1B9A159963C91599758962C9123
:103C5000932F990F990BA988BA88C42ED52EE62EDA
:103C6000F72E082F122D492F592F692F792F892FC1
:103C70000E947C852D8B3E8B942E852E6F8B788FAA
:103C8000898F9C8FE8A1F9A133892289932F990FFD
:103C9000990BA42CB52CC62CD72CE980FE2C0E2D0C
:103CA0001E2D492F592F692F792F892F0E947C852E
:103CB000122FF32EE42ED52EC62EB72EA82E392E77
:103CC000A8A1B9A150968D919C915197FC01EE0F3E
:103CD000FF1FEE0FFF1FFBA3EAA3EF2FEE0FEE0B6C
:103CE0002D893E89492D582D6F89788D898D9C8D20
:103CF0000BE00E94C986A22FF32FB42F5F8B688F31
:103D0000798F982E892E212F3F2D4E2D5D2D6C2DD4
:103D10007B2D8A2D932D0E94C986A22EB32EC42EF0
:103D2000D52EE62EF72E082F192F2A2F3F2F4B2F97
:103D30005F89688D798D892D982D0E94E786A22E46
:103D4000B32EC42ED52EE62EF72E082F192F2AA11A
:103D50003BA14E2F5E2F6E2F7E2F8E2F9E2F0E9407
:103D6000E78603E00E94B086A2E00E94F0862D8BD9
:103D70003E8B4F8B588F698F7C8F8E8F9F8FA8A122
:103D8000B9A155963C91559754962C91932F990F24
:103D9000990BA42CB52CC62CD72CE980FE2C0E2D0B
:103DA0001E2D492F592F692F792F892F0E947C852D
:103DB0002983932E842E752E662E572E482E392E4B
:103DC000E8A1F9A1B788A6881B2D110F110BC12EF0
:103DD000D12EE12EF12E012F29893A894B895C8958
:103DE0006A8D7B8D8D8D922D0E947C85A22EB32EA7
:103DF000C42ED52EE62EF72E182F292E2981392DE7
:103E0000482D572D662D752D842D932D0DE00E9484
:103E1000C986622EB32FA42FF52FE62F972E882E5A
:103E2000792E2A2D3B2D4C2D5D2D6E2D7F2D812F32
:103E3000922D00E10E94C986A22EB32EC42ED52E4B
:103E4000E62EF72E082F192F262D3B2F4A2F5F2FF6
:103E50006E2F792D882D972D0E94E786A2E00E9473
:103E6000F08602E00E94C98630584F4F5F4F6F4F77
:103E70007F4F8F4F9F4FA8A1B9A19096ED91FC91D4
:103E800091971F01AE2EB32CC12CD12CE12CF12C1B
:103E900000E010E00E947C850FE00E94CB86298321
:103EA000398B442E352E262E7A8B8B8B9C8B298535
:103EB0003A854B855C8560E070E080E090E005E04D
:103EC0000E94C986722E832E942E652EB62FA72FA0
:103ED000E82F592E2D893E894F89588D698D7C8D0B
:103EE0008E8D9F8D02E00E94C986A22EB32EC42E15
:103EF000D52EE62EF72E082F192F272D382D492DD8
:103F0000562D6B2F7A2F8E2F952D0E94FC86722EA8
:103F1000832E942E552EB62FA72FF82FE92F03E0CE
:103F20000E94B086A72CB82CC92CD52CEB2EFA2ECB
:103F30000F2F1E2F0E94FC86A22EB32EC42ED52E2C
:103F4000E62EF72E682E192F03E00E94B086062D6C
:103F50000E94FC8603E00E94B086A72CB82CC92CD6
:103F6000D52CEB2EFA2E0F2F1E2F0E94FC8602E07E
:103F70000E94B0860F2F0E94FC8601E00E94B0864E
:103F80000F2F0E94FC8601E00E94B086722E832EC5
:103F9000942E652EB62FA72F582E99872F3FEFEF1F
:103FA0003E074E07EFE75E07610571058105910544
:103FB00009F0A8F40E94B086A980B988C42CD32C3B
:103FC000E22CFA880B891C890E940886222E332E47
:103FD000442E552E662E772E882E992E24C0A98029
:103FE000B988C42CD32CE22CFA880B891C89272D84
:103FF000382D492D562D6B2F7A2F852D99850E94AE
:104000000886A22EB32EC42ED52EE62EF72E082F0C
:10401000192F0E947C85222E332E442E552E662E7B
:10402000772E882E992E222D332D442D552D662D39
:10403000772D882D992D08E00E94C986A22EB32ED7
:10404000C42ED52EE62EF72E082F192F0E947C8520
:10405000A22EB32EC42ED52EE62EF72EE82F192F22
:1040600003E00E94B0860E2F0E94FC86A22EB32E83
:10407000C42ED52EE62EF72EE82F192F03E00E942E
:10408000B0860E2F0E94FC86A22EB32EC42ED52EF3
:10409000E62EF72EE82F192F05E00E94B0860E2F8E
:1040A0000E94FC8601E00E94B08629833987498BF3
:1040B0005A8B6B8B7C8B8A8F9B8F0F2EF3E4AF2EEA
:1040C000F02D0F2EF3EEBF2EF02DCC24CA94DD245C
:1040D000DA94EE24EA94FF24FA940FEF1FEF222DD6
:1040E000332D442D552D662D772D882D992D0E9429
:1040F0007C8500E10E94C986A22EB32EC42ED52E47
:1041000076016501FFECCF0EFEE0DF1EE11CF11C25
:104110002981398549895A896B897C898A8D9B8D4A
:1041200000E10E94C98629833A834B835C836D83B7
:104130007E838F83988709811A812B813C81C00EF1
:10414000D11EE21EF31ED701C601689413F8B5957F
:10415000A795979587951694D1F7BC01CD01620D6F
:10416000731D841D951DA8A1B9A19A966D937D9389
:104170008D939C939D970E946E8820E030E048ECE0
:1041800052E40E94D387E8A1F9A1608371838283FE
:104190009383A3960FB6F894DEBF0FBECDBFDF9119
:1041A000CF911F910F91FF90EF90DF90CF90BF9034
:1041B000AF909F908F907F906F905F904F903F90C7
:1041C0002F900895CF93DF93EC010E94B01D2C81B6
:1041D0003D814E815F81688179818A819B810E94C6
:1041E000D3872EEA3CED42E45EE30E94468A9B01BF
:1041F000AC0160E070E080E89FE30E94058720E06A
:104200003AE24DE257E40E94E3896C877D878E870E
:104210009F87DF91CF91089582E08093B800089541
:10422000089584EA8093BC00089584E98093BC00DB
:10423000089584EC8093BC000895ECEBF0E084E8F2
:10424000808380818F7B80830895ECEBF0E0808118
:104250008823ECF76093BB0084E88093BC00ECEB10
:10426000F0E080818823ECF70895662321F084EC48
:104270008093BC0003C084E88093BC00ECEBF0E0CA
:1042800080818823ECF78091BB0008959C5F0E9499
:1042900010210895FC0120E030E011922F5F3F4F84
:1042A000211584E03807C9F708951F93CF93DF9352
:1042B000162FEC01DC5FCE010E94112168E7CE01D0
:1042C0000E94252160E0CE010E942521612FCE01B0
:1042D0000E942521CE010E941521DF91CF911F91CF
:1042E0000895CF93DF93EC016EEA0E94552165EDAE
:1042F000CE010E94552160E8CE010E94552168EA56
:10430000CE010E9455216FE3CE010E94552163ED3D
:10431000CE010E94552160E0CE010E94552160E44B
:10432000CE010E9455216DE8CE010E94552164E125
:10433000CE010E94552160E2CE010E94552160E02D
:10434000CE010E94552161EACE010E94552168EC00
:10435000CE010E9455216AEDCE010E94552162E1F5
:10436000CE010E94552161E8CE010E9455216FECDB
:10437000CE010E94552169EDCE010E94552161EFC9
:10438000CE010E9455216BEDCE010E94552160E4C3
:10439000CE010E94552164EACE010E94552166EAB1
:1043A000CE010E9455216FEACE010E945521DF9176
:1043B000CF910895CF93DF93EC019C5F0E940C2175
:1043C000CE010E947121CE010E944A21DF91CF913E
:1043D0000895662321F067EA0E945521089566EA50
:1043E0000E9455210895EF92FF920F931F93CF9350
:1043F000DF938C0161E20E94552160E0C8010E94B8
:1044000055216FE7C8010E94552162E2C8010E9450
:10441000552160E0C8010E94552167E0C8010E9453
:10442000552178018CEFF81AC7010E94112168E725
:10443000C7010E94252160E4C7010E942521C0E038
:10444000D0E0F80161918F01C7010E9425212196DA
:10445000C115F4E0DF07A9F7C7010E941521DF911C
:10446000CF911F910F91FF90EF9008956623BCF1BB
:104470004034A8F5211119C0E42FE695E695E6959C
:1044800020E8E29FF0011124E60FF11DE80FF91F6B
:10449000477021E030E0C90102C0880F991F4A959A
:1044A000E2F79081892B80830895E42FE695E695C5
:1044B000E69530E8E39FF0011124E60FF11DE80FC7
:1044C000F91F477081E090E09C0102C0220F331F6A
:1044D0004A95E2F7A90140958081482340830895D9
:1044E000FF920F931F93CF93DF93EC01062F2223AC
:1044F00061F0F22EF40E142F20E0412F602FCE0138
:104500000E9436221F5F1F11F7CFDF91CF911F91BD
:104510000F91FF900895FF920F931F93CF93DF9316
:10452000EC01042F222361F0F22EF60E162F20E06C
:10453000402F612FCE010E9436221F5F1F11F7CF3F
:10454000DF91CF911F910F91FF9008955F926F922D
:104550007F928F929F92AF92BF92CF92DF92EF9213
:10456000FF920F931F93CF93DF936C01762E842ECF
:10457000C22FA22EA61AA394D02FD41BEE2059F03E
:10458000B12C1A141B049CF5E12CF12C0D2F10E01A
:10459000512C612C27C02A2D0E948B222A2D402FBE
:1045A000672DC6010E948B222D2F482D672DC60135
:1045B0000E9470222D2F482D6C2FC6010E94702260
:1045C00016C04C2F480D20E0692DC6010E943622EE
:1045D00021960C171D07ACF78FEFE81AF80AEA14BA
:1045E000FB042CF4C52DD62D972C9E0CEACFDF9121
:1045F000CF911F910F91FF90EF90DF90CF90BF90E0
:10460000AF909F908F907F906F905F900895CF9321
:10461000DF93CDB7DEB72C970FB6F894DEBF0FBE91
:10462000CDBF1C01013009F05BC000E0442E512CCD
:10463000612C712C862F90E0A0E0B0E089839A83F2
:10464000AB83BC83602F70E080E090E00E946E88B6
:104650002BED3FE049E450E40E94E38920E030E0A4
:1046600044E353E40E94D3876B017C010E94D0870E
:104670004B015C01C701B6010E94928A20E030E044
:10468000A9010E94E3896B017C01C301B2010E9470
:104690006E889B01AC01C701B6010E9406870E948B
:1046A0004088162F20E030E0A901C501B4010E9426
:1046B000E3896B017C0169817A818B819C810E94F5
:1046C0006E889B01AC01C701B6010E9406870E945B
:1046D000408820E0412FC1010E9436220F5FB2CFF7
:1046E00000E0822F90E0A0E0B0E089839A83AB8362
:1046F000BC83842F90E0A0E0B0E08D839E83AF83E5
:10470000B887862F90E0A0E0B0E089879A87AB87D2
:10471000BC8769817A818B819C810E946E886B0144
:104720007C01602F70E080E090E00E946E882BEDAD
:104730003FE049E450E40E94E38920E030E044E3B4
:1047400053E40E94D3874B015C010E94D0872B0168
:104750003C01C501B4010E94928A9B01AC01C701D2
:10476000B6010E94E3894B015C016D817E818F81DE
:1047700098850E946E889B01AC01C501B4010E941E
:1047800006870E944088B62EA3019201C701B60198
:104790000E94E3896B017C0169857A858B859C8504
:1047A0000E946E889B01AC01C701B6010E9406877A
:1047B0000E94408820E04B2DC1010E9436220F5FED
:1047C000A8CF2F923F924F925F926F927F928F92DB
:1047D0009F92AF92BF92CF92DF92EF92FF920F9390
:1047E0001F93CF93DF93CDB7DEB72B970FB6F89417
:1047F000DEBF0FBECDBF1C01D62EC42E29832223BF
:1048000009F469C0C801B7010E94D0872B013C019F
:10481000C801B7010E94928A4B015C011B861A866F
:104820008C2D90E0A0E0B0E08A839B83AC83BD83B5
:104830008D2D90E0A0E0B0E08E839F83A887B9879C
:10484000AA85BB85BD01882777FD8095982F0E949A
:104850006E88A50194010E94E3896B017C016A8145
:104860007B818C819D810E946E889B01AC01C70178
:10487000B6010E9406870E944088162F6A857B85B4
:10488000719561957109882777FD8095982F0E9411
:104890006E88A30192010E94E3896B017C016E8105
:1048A0007F81888599850E946E889B01AC01C70134
:1048B000B6010E9406870E94408820E0412FC10176
:1048C0000E943622EA85FB853196FB87EA87F981CB
:1048D000EF1708F4B5CF2B960FB6F894DEBF0FBED6
:1048E000CDBFDF91CF911F910F91FF90EF90DF909F
:1048F000CF90BF90AF909F908F907F906F905F9080
:104900004F903F902F9008952F923F924F925F9239
:104910006F927F928F929F92AF92BF92CF92DF92CF
:10492000EF92FF920F931F93CF93DF93CDB7DEB734
:104930002F970FB6F894DEBF0FBECDBF1C016F8757
:104940004983722EEA82FB820C831D83C601B50166
:1049500025E33AEF4EE85CE30E94E3894B015C01FA
:10496000672C66947B018C01262D49816F85C101DE
:104970000E94E1232BED3FE049E450E4C501B4017E
:104980000E9405877B018C01262D49816F85C1011D
:104990000E94E1236A817B818C819D810E94DD8A56
:1049A0006B017C01662D70E080E090E00E946E88D3
:1049B000A70196010E94E3890E9440886A872BED37
:1049C0003FE049EC5FE3C501B4010E9405876E83B7
:1049D0007F83888799877B018C012A8549816F8530
:1049E000C1010E94E1236A817B818C819D810E94AB
:1049F000D0876B017C01672D70E080E090E00E9421
:104A00006E882B013C01A7019601C701B6010E94E7
:104A100006879B01AC01C301B2010E94D3870E94AB
:104A200040886E872A85622F70E080E090E00E94C7
:104A30006E886A877B878C879D876E817F8188855A
:104A400099850E94D0876B017C01EF856E2F70E005
:104A500080E090E00E946E882B013C01A701960146
:104A60006A857B858C859D850E94E3899B01AC01CD
:104A7000C301B2010E9405870E9440886F876E8142
:104A80007F81888599850E94928A6B017C01F981DA
:104A90006F2F70E080E090E00E946E882B013C0157
:104AA000A70196016A857B858C859D850E94E38997
:104AB0009B01AC01C301B2010E9406870E9440889D
:104AC000D62EA50194016A817B818C819D810E94F3
:104AD00006877B018C012E854D2D6F85C1010E94BB
:104AE000E1232A813B814C815D81C501B4010E9493
:104AF00005872BED3FE049E450E40E9405877B01E8
:104B00008C012E854D2D6F85C1010E94E1232F96CA
:104B10000FB6F894DEBF0FBECDBFDF91CF911F91CE
:104B20000F91FF90EF90DF90CF90BF90AF909F904C
:104B30008F907F906F905F904F903F902F9008954F
:104B40000F931F93CF93DF93613208F442C0A42FD9
:104B5000B0E0022F06950695069530E8039F800188
:104B60001124ED01C00FD11F00581F4F0A0F1B1F4A
:104B70006152462F50E0FA01EE0FFF1FEE0FFF1FAC
:104B8000E40FF51FE65EF44FDC01AC0FBD1FAE0174
:104B900005968C0F9D1F2770649170E0022E02C055
:104BA000660F771F0A94E2F73C91362B3C93672FF0
:104BB00077276115710541F0ED01C41BD50BC00FBE
:104BC000D11F3881632B688331961196A817B907D6
:104BD00019F7DF91CF911F910F910895EF92FF92F6
:104BE0000F931F93CF93DF936A3008F066C050E0B5
:104BF000022F06950695069510E0D801B695BA2FB6
:104C0000AA27B795A7950F5F1F4F1695102F00275E
:104C1000179507957D0130E8E30EF11CE40EF51EB3
:104C2000E80EF91EEA01C00FD11F6097C80FD91F07
:104C3000040F151F00591F4F080F191FA40FB51F90
:104C4000A80FB91FE0E26E9FC001112440E050E0C0
:104C50008652964F2770FC01E40FF51FE491F0E0B7
:104C6000022E02C0EE0FFF1F0A94E2F7403168F4F3
:104C70003C913E2B3C936F2F77276115710589F08E
:104C8000F7013081362B30830CC038813E2B3883BE
:104C90006F2F77276115710521F0F8013081362BD0
:104CA00030834F5F5F4FFFEFEF1AFF0A21960F5FD0
:104CB0001F4F11964032510571F6DF91CF911F9130
:104CC0000F91FF90EF900895CF92DF92EF92FF92B5
:104CD0000F931F93CF93DF93643708F467C050E0BE
:104CE000022F06950695069510E0D801B695BA2FC5
:104CF000AA27B795A7950F5F1F4F1695102F00276E
:104D0000179507957D0130E8E30EF11CE40EF51EC2
:104D1000E80EF91EEA01C00FD11F6097C80FD91F16
:104D2000040F151F00591F4F080F191FA40FB51F9F
:104D3000A80FB91F645780E1689FB001112440E0BB
:104D400050E0665F7B4F2770FB01E40FF51FE49195
:104D5000F0E0022E02C0EE0FFF1F0A94E2F7483087
:104D600068F48C918E2B8C93CF2EDD24C114D1044A
:104D700089F0F70180818C2980830CC088818E2B7B
:104D80008883CF2EDD24C114D10421F0F801808165
:104D90008C2980834F5F5F4FFFEFEF1AFF0A219648
:104DA0000F5F1F4F11964031510571F6DF91CF9182
:104DB0001F910F91FF90EF90DF90CF9008952F9269
:104DC0003F924F925F926F927F928F929F92AF929B
:104DD000BF92CF92DF92EF92FF920F931F93CF93E8
:104DE000DF93CDB7DEB727970FB6F894DEBF0FBEBF
:104DF000CDBF9F838E836D83342E002309F429C198
:104E0000622F70E080E090E00E946E8820E030E049
:104E100040EC50E40E94E3892BED3FE049E450E48C
:104E20000E94E38920E030E044E353E40E94D3870A
:104E30002BED3FE049EC5FE30E9405876B017C01AD
:104E40000E94D0872B013C01C701B6010E94928AC3
:104E50004B015C0100E010E0B801882777FD8095E8
:104E6000982F0E946E886B017C01A50194010E941D
:104E7000E38920E030E048EF51E40E9406870E9479
:104E80004088262EA3019201C701B6010E94E38942
:104E900020E030E048EF51E40E9406870E944088FD
:104EA00020E0422D8E819F810E9436220F5F1F4F8E
:104EB0000931110589F6632D70E080E090E00E94D1
:104EC0006E8869837A838B839C8320E030E040EC9A
:104ED00050E40E94E3892BED3FE049E450E40E9456
:104EE000E38920E030E044E353E40E94D3872BEDD4
:104EF0003FE049EC5FE30E9405876B017C010E9463
:104F0000D0874B015C01C701B6010E94928A2B0138
:104F10003C0100E010E0B801882777FD8095982FCC
:104F20000E946E886B017C01A30192010E94E389BB
:104F300020E030E048EF51E40E9406870E9440885C
:104F4000362EA5019401C701B6010E94E38920E035
:104F500030E048EF51E40E9406870E94408820E03C
:104F6000432D8E819F810E9436220F5F1F4F053196
:104F7000110589F62D81622F70E080E090E00E949B
:104F80006E8820E030E040EF51E40E94E3896B013D
:104F90007C0120E030E040E05FE369817A818B8131
:104FA0009C810E94E3899B01AC01C701B6010E946C
:104FB00006872BED3FE049E450E40E94E38920E0BE
:104FC00030E044E353E40E94D3872BED3FE049EC0B
:104FD0005FE30E9405876B017C010E94D0872B0153
:104FE0003C01C701B6010E94928A4B015C0100E0BE
:104FF00010E0B801882777FD8095982F0E946E8871
:105000006B017C01A50194010E94E38920E030E05E
:1050100048EF51E40E9406870E944088362EA30183
:105020009201C701B6010E94E38920E030E048EF19
:1050300051E40E9406870E94408820E0432D8E8123
:105040009F810E9436220F5F1F4F0D30110589F698
:10505000CDC0642F70E080E090E00E946E8869838C
:105060007A838B839C8320E030E040EC50E40E9404
:10507000E3892BED3FE049E450E40E94E38920E01E
:1050800030E044E353E40E94D3872BED3FE049EC4A
:105090005FE30E9405876B017C010E94D0874B0172
:1050A0005C01C701B6010E94928A2B013C0100E01D
:1050B00010E0B801882777FD8095982F0E946E88B0
:1050C0006B017C01A30192010E94E38920E030E0A2
:1050D00048EF51E40E9406870E944088362EA501C1
:1050E0009401C701B6010E94E38920E030E048EF57
:1050F00051E40E9406870E94408820E0432D8E8163
:105100009F810E9436220F5F1F4F0931110589F6DA
:10511000ED816E2F70E080E090E00E946E8820E0CC
:1051200030E040EF51E40E94E3896B017C0120E014
:1051300030E040E05FE369817A818B819C810E944D
:10514000E3899B01AC01C701B6010E9406872BEDE4
:105150003FE049E450E40E94E38920E030E044E38A
:1051600053E40E94D3872BED3FE049EC5FE30E94BC
:1051700005876B017C010E94D0872B013C01C70190
:10518000B6010E94928A4B015C0100E010E0B80178
:10519000882777FD8095982F0E946E886B017C018F
:1051A000A50194010E94E38920E030E048EF51E43A
:1051B0000E9406870E944088362EA3019201C701F3
:1051C000B6010E94E38920E030E048EF51E40E94FC
:1051D00006870E94408820E0432D8E819F810E9497
:1051E00036220F5F1F4F0131110589F620E04AE199
:1051F00061E38E819F810E94A02520E040E262E36E
:105200008E819F810E94A0252CE14AE363E38E8179
:105210009F810E94A02528E34DE166E38E819F8156
:105220000E94A0252CE140E069E38E819F810E94CD
:10523000A02520E048E06CE28E819F810E9436220A
:1052400020E042E165E38E819F810E94362220E0CA
:105250004CE265E38E819F810E94362220E045E387
:105260006BE28E819F810E94362220E045E361E15E
:105270008E819F810E94362220E04CE268E08E8180
:105280009F810E94362220E041E168E08E819F816B
:105290000E94362220E048E062E18E819F810E94D8
:1052A000362227960FB6F894DEBF0FBECDBFDF9132
:1052B000CF911F910F91FF90EF90DF90CF90BF9013
:1052C000AF909F908F907F906F905F904F903F90A6
:1052D0002F900895EF92FF920F931F93CF93DF9338
:1052E000EC01F42E122F8FEF860F8A3068F4EE2433
:1052F000E39406E0020F6BE0640F262F41E0410FBC
:10530000CE010E94A6224DC0653174F4EE24E394D0
:1053100006E0020F2BE0240F41E0410F6AE06F0D21
:10532000CE010E94A6223DC06F3174F4EE24E394B6
:1053300006E0020F2BE0240F41E0410F68E06F0D03
:10534000CE010E94A6222DC0693274F4EE24E394AB
:1053500006E0020F2BE0240F41E0410F66E06F0DE5
:10536000CE010E94A6221DC0633374F4EE24E394A0
:1053700006E0020F2BE0240F41E0410F64E06F0DC7
:10538000CE010E94A6220DC0EE24E39406E0020F97
:105390002BE0240F41E0410F62E06F0DCE010E942F
:1053A000A62207E0010F2CE02F0D61E06F0DE12C2C
:1053B000412FCE010E94A62242E0410F20E06F2D36
:1053C000CE010E94362243E0410F20E06F2DCE0136
:1053D0000E94362244E0410F20E06F2DCE010E9452
:1053E0003622DF91CF911F910F91FF90EF9008959A
:1053F000DF92EF92FF920F931F93CF93DF93EC0115
:10540000D62E142FF22E07E0020F27E0240FE12CF6
:105410004F2D612F0E94A62281E0D8120EC003E01A
:105420000F0D26E0210F41E04F0D61E0610FEE24EA
:10543000E394CE010E94A62210C083E0D8120DC0D2
:1054400006E00F0D26E0210F41E04F0D61E0610FF6
:10545000EE24E394CE010E94A622DF91CF911F910A
:105460000F91FF90EF90DF9008952AB120662AB93E
:1054700028B1237F28B927B12C6027B92AB1237E10
:105480002AB9FC0180E011928F5F8C30E1F708951A
:105490000895FB01808190E0042E02C095958795C8
:1054A0000A94E2F780FF17C08FEC97E00197F1F7BD
:1054B00000C00000FB01808190E09C0102C0359596
:1054C00027954A95E2F720FD08C03AE13A95F1F7B1
:1054D00000C081E0089580E0089580E00895FB0118
:1054E000808190E0042E02C0959587950A94E2F79A
:1054F00080FF05C081E0F901808380E00895F90113
:105500008081813079F4FB01808190E0BC0102C090
:10551000759567954A95E2F760FD04C0F901108220
:1055200081E00895F901108280E00895462F50E04F
:10553000FA01B397E731F10508F0C4C0EC55FF4F0D
:105540000C944D85439A22E02A95F1F700C046E07D
:1055500069E270E00E94492A91E0811101C090E067
:105560005B98B1C05B9A22E02A95F1F700C045E054
:1055700069E270E00E94492A91E0811101C090E047
:105580004398A1C05B9A22E02A95F1F700C044E05D
:1055900069E270E00E94492A91E0811101C090E027
:1055A0005B9891C05A9A22E02A95F1F700C046E034
:1055B00069E270E00E94492A91E0811101C090E007
:1055C0005A9881C05A9A22E02A95F1F700C045E026
:1055D00069E270E00E94492A91E0811101C090E0E7
:1055E0005A9871C05A9A22E02A95F1F700C044E017
:1055F00069E270E00E94492A91E0811101C090E0C7
:105600005A9861C0599A22E02A95F1F700C046E005
:1056100069E270E00E94492A91E0811101C090E0A6
:10562000599851C0599A22E02A95F1F700C045E0F7
:1056300069E270E00E94492A91E0811101C090E086
:10564000599841C0599A22E02A95F1F700C044E0E8
:1056500069E270E00E94492A91E0811101C090E066
:10566000599831C0589A22E02A95F1F700C046E0D7
:1056700069E270E00E94492A91E0811101C090E046
:10568000589821C0589A22E02A95F1F700C045E0C9
:1056900069E270E00E94492A91E0811101C090E026
:1056A000589811C05B9A22E02A95F1F700C044E0B7
:1056B00069E270E00E94492A91E0811101C090E006
:1056C000589801C090E0892F08951F93CF93DF93DE
:1056D000EC01439A82E08A95F1F700C09E012E5FAB
:1056E0003F4F44E069E270E0CE010E946F2A8111D1
:1056F00016C09E012F5F3F4F43E069E270E0CE018C
:105700000E946F2A81110DC09E0142E069E270E0A3
:10571000CE010E946F2A811106C010E205C013E37A
:1057200003C012E301C011E34398429A82E08A95D4
:10573000F1F700C09E012B5F3F4F44E069E270E04B
:10574000CE010E946F2A811117C09E012C5F3F4F2E
:1057500043E069E270E0CE010E946F2A81110EC021
:105760009E012D5F3F4F42E069E270E0CE010E9452
:105770006F2A811105C005C016E303C015E301C0FF
:1057800014E342985E9A82E08A95F1F700C09E0188
:10579000285F3F4F44E069E270E0CE010E946F2A2B
:1057A000811117C09E01295F3F4F43E069E270E01D
:1057B000CE010E946F2A81110EC09E012A5F3F4FC9
:1057C00042E069E270E0CE010E946F2A811105C0BB
:1057D00005C019E303C018E301C017E35E985D9AA2
:1057E00082E08A95F1F700C09E01255F3F4F44E0BB
:1057F00069E270E0CE010E946F2A811117C09E01FC
:10580000265F3F4F43E069E270E0CE010E946F2ABD
:1058100081110EC09E01275F3F4F42E069E270E0B8
:10582000CE010E946F2A811105C005C013E203C09A
:1058300010E301C01AE25D98812FDF91CF911F9193
:1058400008950E94652B90E0FC01B397E731F105C4
:10585000D0F4E554FF4F0C944D8582E4089581E423
:1058600008958CE608958FE6089582E7089589E506
:10587000089584E6089588E5089585E6089580E30F
:1058800008958DE6089580E2089585E70895CF9301
:10589000DF93EC01CE010E94652B80538A30D0F754
:1058A000DF91CF91089506960E94102108950F93DD
:1058B0001F93CF93DF93062F142FEC012696CE0172
:1058C0000E9411216CE3CE010E942521602FCE01A0
:1058D0000E942521612FCE010E942521CE010E9428
:1058E0001521DF91CF911F910F910895CF93DF93F1
:1058F000EC0106960E940C2140E760E0CE010E9478
:10590000572C40E261E0CE010E94572C41E062E05A
:10591000CE010E94572C1982188218861F821B8282
:105920001A821A8619861D821C821C861B86DF91AC
:10593000CF910895CF93DF93EC0140E760E00E94A0
:10594000572C40E261E0CE010E94572C41E062E01A
:10595000CE010E94572C1982188218861F821B8242
:105960001A821A8619861D821C821C861B86DF916C
:10597000CF910895BF92CF92DF92EF92FF920F9353
:105980001F93CF93DF9300D000D000D0CDB7DEB708
:105990006C01F8947C0126E0E20EF11CC7010E9424
:1059A00011216CE3C7010E94252163E0C7010E9419
:1059B0002521C7010E9411216DE3C7010E94252105
:1059C0008E010F5F1F4FB12C84E08B1538F061E022
:1059D000C7010E943521F801808306C060E0C7013D
:1059E0000E943521F8018083B3940F5F1F4FF6E0CA
:1059F000BF12EACFC7010E941521898190E0982F3C
:105A000088272A81822BF601918380838B8190E005
:105A1000982F88272C81822B938382838D8190E01D
:105A2000982F88272E81822B958384837894F60182
:105A3000808191818115904F09F447C0F6018281E0
:105A400093818115904F09F442C0F60184819581BC
:105A50008115904FF1F1F60183E0DF012081318162
:105A600045855685421753078CF436872587438929
:105A70005489240F351F332314F42F5F3F4F35957E
:105A8000279518963C932E9317971AC063897489AB
:105A9000261737077CF4348B238B240F351F3323D1
:105AA00014F42F5F3F4F3595279518963C932E930E
:105AB000179706C047815085241B350B31832083FF
:105AC000815032968111C9CF05C081E003C081E0C9
:105AD00001C081E026960FB6F894DEBF0FBECDBFA1
