:100000000C948E060C94BD060C94BD060C94BD0693
:100010000C94BD060C94BD060C94BD060C94BD0654
:100020000C94BD060C94BD060C94BD060C941F08E0
:100030000C94BD060C943D080C94BD060C94BD06B2
:100040000C94DF070C94BD060C94BD060C94BD0601
:100050000C94460A0C94BD060C94BD060C94BD0687
:100060000C94BD060C94BD060C94BD060C94BD0604
:100070000C94BD060C94BD060C94BD060C94BD06F4
:100080000C94BD060C94BD060C94BD06F773FA7370
:100090001F74437467748C74B074047507752C7581
:1000A000507574759975BD75B50DDC0DDC0DDC0DE5
:1000B000DC0DDC0DDC0DDC0DDC0DDC0DDC0DDC0DF8
:1000C000DC0DDC0DDC0DDC0DDC0DDC0DDC0DDC0DE8
:1000D000DC0DDC0DDC0DDC0DDC0DDC0DDC0DDC0DD8
:1000E000DC0DDC0DDC0DDC0DDC0DDC0DDC0DDC0DC8
:1000F000DC0DDC0DDC0DDC0DDC0DDC0DDC0DDC0DB8
:10010000DC0DDC0DDC0DDC0DDC0DDC0DDC0DDC0DA7
:10011000900DDC0DDC0DDC0DDC0DDC0DDC0DDC0DE3
:100120005D0D590DDC0D7D0DDC0DDC0D6A0DDC0D5A
:10013000DC0DA60D16173E1768179317BD17E617A7
:100140000E183718AF18DA182D2A3D2A3D2A3D2AF5
:100150003D2A3D2A3D2A0D2A3D2A3D2A3D2A3D2A97
:100160003D2A1D2A7D298D299D29AD29BD29CD290D
:10017000DD29ED29FD291C2B1E2B1E2B1E2B1E2BD2
:100180001E2B1E2B182B1E2B1E2B1E2B1E2B1E2B2D
:100190001A2B082B202B0A2B0C2B0E2B102B122B7F
:1001A000142B162BEB3BF63B023EA43C023E023ED8
:1001B000023EF83D023E023E023E023E023E023E4A
:1001C000023E023E023E023E023E023E023E023E2F
:1001D000023E023E023E023E023E023E023E023E1F
:1001E000023E023E023E023E023E023E023E023E0F
:1001F000023E023E023E023E023E023E023E023EFF
:10020000023E023E023E023E7C3D853D9D3DB53DA7
:10021000D93DA1679067A767AD67AD67AD67AD676B
:10022000AD67AD67AD67AD67AD67AD67A467AD6737
:10023000AD67AD672967AD67A767AD67AD67AA67AB
:10024000084AD73B3BCE016E84BCBFFDC12F3D6C3D
:1002500074319ABD56833DDA3D00C77F11BED9E4A3
:10026000BB4C3E916BAAAABE000000803F05A84C83
:10027000CDB2D44EB93836A9020C50B9918688084F
:100280003CA6AAAA2ABE000000803F0664EC1B3CE4
:1002900004BC163E3BE5B93CC93C37C29E5A3D669C
:1002A0000498083EEA69AAAA3E000000803F07635E
:1002B0004236B79BD8A71A39685618AEBAAB558CD8
:1002C0001D3CB7CC5763BD6DEDFD753EF617723121
:1002D000BF000000803F08000000BE922449123E8B
:1002E000ABAAAA2ABECDCCCC4C3E00000080BEAB4F
:1002F000AAAAAA3E00000000BF000000803F000044
:10030000000000084178D3BB4387D1133D190E3C50
:10031000C3BD4282AD2B3E68EC8276BED98FE1A987
:100320003E4C80EFFFBE01C4FF7F3F000000000095
:100330006E616E00696E6600000000007C00FE1BAE
:10034000FE1B7C000000000000000E001E000000EC
:1003500000001E000E0000002001FC0FFC0F200119
:100360002001FC0FFC0F200138067C0C4408FF3FE5
:10037000FF3F84088C0F18071C18141E9C07E0010F
:10038000781C1E14061C0000BC1FFE104210C21078
:10039000FE1F3C0F801980100000000010001E009E
:1003A0000E0000000000000000000000F007FC1F2D
:1003B0000E380220000000000000000002200E386D
:1003C000FC1FF007000000008000A002E003C00155
:1003D000C001E003A0028000800080008000E003F4
:1003E000E0038000800080000000000000400078F2
:1003F00000380000000000008000800080008000C5
:1004000080008000800080000000000000000018D4
:1004100000180000000000000018001E8007E00126
:1004200078001E0006000000F807FC0F0618C21036
:10043000C2100618FC0FF807000008100C10FE1F71
:10044000FE1F001000100000041C061E0213821183
:10045000C21062103E181C18040806180210421040
:1004600042104210FE1FBC0FC001E0013001180114
:100470000C11FE1FFE1F00117E087E184210421054
:1004800042104210C21F820FF80FFC1F461042108C
:1004900042104210C01F800F060006000200021F1B
:1004A000C21FF2003E000E00BC0FFE1F42104210A1
:1004B00042104210FE1FBC0F3C007E104210421042
:1004C00042104218FE0FFC07000000000000300C34
:1004D000300C000000000000000000000020603C24
:1004E000601C0000000000008000C00160033006B6
:1004F000180C0C1804100000400240024002400298
:10050000400240024002400204100C18180C300651
:100510006003C00180000000040006000200821B8E
:10052000C21B62003E001C00FC0FFE1F0210821165
:10053000C213E213FE13FC03F01FF81F0C010601A7
:1005400006010C01F81FF01F0210FE1FFE1F4210D3
:1005500042104210FE1FBC0FF807FC0F06180210D5
:100560000210021006180C0C0210FE1FFE1F0210D3
:1005700002100618FC0FF8070210FE1FFE1F4210A3
:100580004210E210061806180210FE1FFE1F42104D
:100590004200E20006000600F807FC0F06180210F1
:1005A00082108210860F8C1FFE1FFE1F400040002D
:1005B00040004000FE1FFE1F000002100210FE1F40
:1005C000FE1F021002100000000C001C00100010A2
:1005D0000210FE1FFE0F02000210FE1FFE1FE000B1
:1005E000B00118030E1E061C0210FE1FFE1F021093
:1005F0000010001000180018FE1FFE1F1800F00069
:10060000F0001800FE1FFE1FFE1FFE1F38007000C6
:10061000E000C001FE1FFE1FFC0FFE1F02100210B3
:1006200002100210FE1FFC0F0210FE1FFE1F4210E0
:10063000420042007E003C00FC0FFE1F0210021C24
:1006400002380270FE5FFC0F0210FE1FFE1F420008
:100650004200C200FE1F3C1F1C0C3E1C62104210D8
:100660004210C2108E1F0C0F060006000210FE1F63
:10067000FE1F021006000600FE0FFE1F00100010F5
:1006800000100010FE1FFE0FFE03FE07000C0018F6
:100690000018000CFE07FE03FE07FE1F001CC0072B
:1006A000C007001CFE1FFE070E1C1E1E3003E001CB
:1006B000E00130031E1E0E1C1E003E006010C01F15
:1006C000C01F60103E001E00061E061F8211C210D1
:1006D000621032101E180E1800000000FE1FFE1FD0
:1006E00002100210000000000018001E8007E00148
:1006F00078001E000600000000000000021002103A
:10070000FE1FFE1F000000002000300018000C003B
:100710001800300020000000008000800080008071
:100720000080008000800080000000000000380091
:100730007800400000000000000E201F2011201152
:100740002011E00FC01F00100210FE1FFE0F20102E
:1007500020106010C01F800FC00FE01F201020105D
:100760002010201060184008800FC01F601020105B
:100770002210FE0FFE1F0010C00FE01F20112011DD
:1007800020112011E019C00900002010FC1FFE1FDD
:100790002210220006000400C04FE0DF20902090CD
:1007A0002090C0FFE07F20000210FE1FFE1F4000CF
:1007B00020002000E01FC01F000020102010EC1FB0
:1007C000EC1F001000100000006000C0208020809E
:1007D000ECFFEC7F000000000210FE1FFE1F8001F6
:1007E0008003C006601C2018000002100210FE1FCB
:1007F000FE1F001000100000E01FE01F6000C00F8F
:10080000C00F6000E01FC01F2000E01FC01F2000BD
:1008100020002000E01FC01FC00FE01F201020108C
:1008200020102010E01FC00F2080E0FFC0FF2090AC
:1008300020102010E01FC00FC00FE01F201020105C
:100840002090C0FFE0FF20802010E01FC01F60103C
:100850002000200060004000C008E0192011201195
:1008600020132012601E400C20002000FC0FFE1FF1
:100870002010201800080000E00FE01F00100010FA
:100880000010E00FE01F0010E003E007000C00186C
:100890000018000CE007E003E00FE01F0018000F55
:1008A000000F0018E01FE00F20106018C00C800738
:1008B0008007C00C60182010E08FE09F009000902F
:1008C000009000D0E07FE03F6018601C20162013ED
:1008D000A011E01060182018000000008000FC1F2C
:1008E0007E3F0220022000000000000000007C3E4D
:1008F0007C3E0000000000000000022002207E3F3D
:10090000FC1F80000000000000E0F8FCFE1E07074E
:1009100007071EFEFCF8F00000070F3F3F7C7070D9
:1009200070707C3F1F1F0700000000060707FFFFD5
:10093000FFFF0000000000000000000000007F7FBB
:100940007F7F00000000000000383C3E3E0F07079C
:1009500007CFFFFEFE3800000040406070787C7ECC
:100960007F7773717070000000181C1E1E0FC7C7C0
:10097000E7FFFEBE9C000000000C1C3C3C78707041
:1009800070797F3F1F0F0000000080C0E070381CAE
:100990001EFFFFFFFF00000006070707060606060A
:1009A000067F7F7F7F06060000000000F0FFFFFF4C
:1009B000E7E7E7E7C78700000000387871707070DC
:1009C0007070393F3F1F0F000080E0F0F8FC7F7F20
:1009D0006F67E1E1C0800000000F1F3F3F7870703B
:1009E0007070783F3F1F0F00000707070707C7E732
:1009F000F7FF7F3F1F0703010020387C7E3F0F0772
:100A000003000000000000000000001CBEFEFFE725
:100A1000C3C3E7FFFEBE1C0000000E3F3F7F7160B6
:100A20006060717F3F3F0F000078FCFEFE8F07077C
:100A300007078FFEFEFCF800000000014343737BB4
:100A40007F7F1F0F0703000000005F00000007000A
:100A50000700147F147F14242A7F2A1223130864AA
:100A60006236495522500005030000001C22410057
:100A70000041221C0014083E081408083E08080023
:100A800050300000080808080800606000002010CE
:100A90000804023E5149453E00427F4000426151F8
:100AA00049462141454B311814127F1027454545D1
:100AB000393C4A49493001710905033649494936EB
:100AC000064949291E003636000000563600000847
:100AD00014224100141414141400412214080201B9
:100AE000510906324979413E7E1111117E7F4949F3
:100AF00049363E414141227F4141221C7F494949BB
:100B0000417F090909013E4149497A7F0808087F68
:100B100000417F41002040413F017F081422417F76
:100B2000404040407F020C027F7F0408107F3E411E
:100B300041413E7F090909063E4151215E7F091965
:100B40002946464949493101017F01013F40404062
:100B50003F1F2040201F3F4038403F63140814636C
:100B600007087008076151494543007F4141000271
:100B7000040810200041417F0004020102044040AB
:100B8000404040000102040020545454787F4844FF
:100B900044383844444420384444487F38545454FA
:100BA00018087E0901020C5252523E7F0804047854
:100BB00000447D40002040443D007F102844000058
:100BC000417F40007C041804787C08040478384491
:100BD0004444387C14141408081414187C7C080449
:100BE00004084854545420043F4440203C404020D2
:100BF0007C1C2040201C3C4030403C4428102844B1
:100C00000C5050503C4464544C44000836410000A1
:100C1000007F00000041360800100808100800405E
:100C20007A10F35A00A0724E18090010A5D4E800FB
:100C300000E87648170000E40B54020000CA9A3B13
:100C4000000000E1F5050000809698000000404299
:100C50000F000000A0860100000010270000000027
:100C6000E803000000006400000000000A0000002B
:100C700000000100000000002C76D888DC674F08D7
:100C800023DFC1DFAE59E1B1B796E5E3E453C63ADD
:100C9000E651997696E8E6C28426EB898C9B62ED54
:100CA000407C6FFCEFBC9C9F40F2BAA56FA5F4900E
:100CB000055A2AF75C936B6CF9676DC11BFCE0E485
:100CC0000D47FEF520E6B500D0ED902E03009435DB
:100CD00077050080841E080000204E0A000000C82E
:100CE0000C333333330F986E12831141EF8D21147F
:100CF000893BE65516CFFEE6DB18D1844B381BF74F
:100D00007C1D901DA4BBE424203284725E228100ED
:100D1000C9F124ECA1E53D27E3190A1A11241FBEED
:100D2000CFEFD0E4DEBFCDBF14E0A0E0B1E0E2E75A
:100D3000FEE001E00BBF02C007900D92A23EB1079A
:100D4000D9F72FE0A2EEB4E001C01D92A833B2079C
:100D5000E1F71DE0CAE1DDE000E006C022970109ED
:100D6000FE010BBF0E94597FC831D10780E0080700
:100D7000A9F70E9457140C9427870C9400000E9436
:100D8000538408950E94EB840895ECE7F0E090818D
:100D90008F71907E982B9083EAE7F0E080818064E9
:100DA0008083808186FDFDCF8091780090917900CD
:100DB0000895CF92DF92EF92FF921F93CF93DF932C
:100DC000182FD62F662379F0C0E0C12CD12C7601E4
:100DD000812F0E94C506C80ED91EE11CF11CCF5FF1
:100DE000CD13F6CF03C0C12CD12C76012D2F30E0CE
:100DF00040E050E0C701B6010E94D87DC901DF91F3
:100E0000CF911F91FF90EF90DF90CF900895CF92F8
:100E1000DF92EF92FF920F931F93CF93DF9380E0C7
:100E20000E94C506C9E1DFE0488159816A817B8162
:100E300040931D0F50931E0F60931F0F7093200F50
:100E40004093210F5093220F6093230F7093240F30
:100E50004093250F5093260F6093270F7093280F10
:100E60004093290F50932A0F60932B0F70932C0FF0
:100E7000BC0180E090E00E94198120E030EC4FE757
:100E800054E40E9480802CE53FE842E550E40E9453
:100E900034822DE031E740E050E40E9434826883E0
:100EA00079838A839B830DE21FE0C12CD12CE12C36
:100EB000F12C699179918991999120E030E040EA93
:100EC00050E40E9480802C2D3D2D4E2D5F2D0E94E0
:100ED000B37FC62ED72EE82EF92EC017D10749F7BB
:100EE000462F572F682F792F4093B4095093B50997
:100EF0006093B6097093B70926E636E646E650E4F5
:100F00006C2D7D2D0E94B27F28E939E949E15FE32C
:100F10000E94808020E030E048EC52E40E9434825D
:100F20006B017C0120E030E040E251E40E94348219
:100F30000E94ED808DEC689F812D11248695869509
:100F40008695880F982F990F990F890F681B653028
:100F500070F0C701B6010E94ED8070E06F5F7F4FB7
:100F6000882777FD8095982F0E941B8109C0C701B3
:100F7000B6010E94ED8070E080E090E00E9419814F
:100F80000E94E880862FDF91CF911F910F91FF90F3
:100F9000EF90DF90CF900895F894F999FECF92BD2D
:100FA00081BD60BDFA9AF99A78940895F894F999F8
:100FB000FECF92BD81BDF89A789480B508951F92B6
:100FC0000F920FB60F9211240BB60F922F933F93EF
:100FD0004F935F936F937F938F939F93AF93BF9341
:100FE000EF93FF938091A8098F5F8093A8099DECF0
:100FF000899F912D112492959F70990F990F292FF8
:10100000220F220F920F891305C08091AC098160D5
:101010008093AC090E94153EFF91EF91BF91AF9173
:101020009F918F917F916F915F914F913F912F9100
:101030000F900BBE0F900FBE0F901F9018951F9230
:101040000F920FB60F9211240BB60F928F93EF935E
:10105000FF93EBE0FFE080818F5F8083E1E1FFE0C1
:10106000808182608083FF91EF918F910F900BBE02
:101070000F900FBE0F901F9018951F920F920FB6F2
:101080000F9211248F938091AC0981608093AC09F9
:101090008F910F900FBE0F901F901895449A8091DA
:1010A000A70980648093A709089544988091A709AF
:1010B0008F738093A70908954F925F926F927F92EA
:1010C0008F929F92AF92BF92CF92DF92EF92FF9258
:1010D0000F931F93CF93DF93CDB7DEB72C970FB647
:1010E000F894DEBF0FBECDBF29873A874B875C8758
:1010F000E982FA820B831C832BED3FE049E450E444
:101100000E94348220E030E044E353E40E94808077
:101110002B013C012BED3FE049E450E4C801B7014D
:101120000E94348220E030E044E353E40E94808057
:101130006D837E838F839887A30192010E94B27F83
:1011400020E030E040E05FE30E9434820E94E382CE
:1011500069837A838B839C83C301B2010E947D8063
:101160002B013C016D817E818F8198850E947D805D
:101170006D837E838F8398872BED3FE049E450E4B5
:10118000C601B5010E94348220E030E044E353E41C
:101190000E9480804B015C012BED3FE049E450E46C
:1011A00069857A858B859C850E94348220E030E0B9
:1011B00044E353E40E9480809B01AC01C501B4016B
:1011C0000E94B27F20E030E040E05FE30E94348282
:1011D0000E94E3824B015C0129813A814B815C8151
:1011E000CA01B9010E9434826B017C012D813E81CC
:1011F0004F815885C301B2010E943482A501940138
:101200000E9434829B01AC01C501B4010E9434826A
:101210009B01AC01C701B6010E94B37F6B017C0149
:101220009B01AC0160E070E080E89FE30E94B27F28
:101230000E94ED824B015C01C701B6010E94ED8264
:10124000A50194010E9426809B01AC010E94B37FFE
:1012500020E73DE642EC5AE40E9434822C960FB619
:10126000F894DEBF0FBECDBFDF91CF911F910F91DC
:10127000FF90EF90DF90CF90BF90AF909F908F90B6
:101280007F906F905F904F9008954F925F926F9212
:101290007F928F929F92AF92BF92CF92DF92EF9206
:1012A000FF920F931F93CF93DF93CDB7DEB7609775
:1012B0000FB6F894DEBF0FBECDBF29833A834B83B0
:1012C0005C832BED3FE049E450E40E94348220E04F
:1012D00030E044E353E40E9480806D837E838F83FB
:1012E00098872BED3FE049E450E4C801B7010E9424
:1012F000348220E030E044E353E40E9480802B01FC
:101300003C012BED3FE049E450E4C601B5010E94E9
:10131000348220E030E044E353E40E9480806B019B
:101320007C012BED3FE049E450E469817A818B81B7
:101330009C810E94348220E030E044E353E40E9428
:1013400080809B01AC01C701B6010E94B27F6B0196
:101350007C010E94E38269877A878B879C87C3011F
:10136000B2010E947D8069837A838B839C836D8127
:101370007E818F8198850E947D806D877E878F8793
:10138000988BC301B2010E94E3822B013C016D8165
:101390007E818F8198850E94E3824B015C01C701A9
:1013A000B6010E947D806D837E838F839887A30121
:1013B00092016D857E858F8598890E9434826B01AC
:1013C0007C01A501940169817A818B819C810E94B5
:1013D00034822D813E814F8158850E9434829B0149
:1013E000AC01C701B6010E94B27F6B017C0129816B
:1013F0003A814B815C8169857A858B859C850E94C9
:101400003482A70196010E9426806B017C012BED9E
:101410003FE049EC50E40E94298218165CF42BED61
:101420003FE049EC50E4C701B6010E94B27F6B0176
:101430007C0113C020E030E0A901C701B6010E9481
:101440007980882354F42BED3FE049EC50E4C70148
:10145000B6010E94B37F6B017C01C701B6016096A3
:101460000FB6F894DEBF0FBECDBFDF91CF911F91B5
:101470000F91FF90EF90DF90CF90BF90AF909F9033
:101480008F907F906F905F904F9008951F920F9272
:101490000FB60F9211240BB60F922F938F939F9339
:1014A000EF93FF939091C600943251F48091A70975
:1014B000282F2C7029F410925E0981608093A7096F
:1014C0002091A70920FF3CC080915E09E82FF0E041
:1014D000E15AF64F90838F5F80935E09893420F044
:1014E0002E7F2093A7092CC08331C9F48091630912
:1014F0008D3489F480916409833469F48091710991
:10150000813429F02D7F20612093A70919C0226022
:101510002093A70915C02C7F2093A70911C08A32F8
:1015200039F424FF0DC02E7E28602093A70908C03F
:10153000863431F421FF04C02C7F24602093A70956
:10154000FF91EF919F918F912F910F900BBE0F9074
:101550000FBE0F901F90189510923C0910923D09F4
:1015600010923E0910923F091092380910923909E1
:1015700010923A0910923B091092340910923509E1
:1015800010923609109237091092300910923109E1
:1015900010923209109233090895FC01208130E045
:1015A000062E02C0359527950A94E2F720FF17C052
:1015B000EFE0F7E23197F1F700C00000FC01808115
:1015C00090E09C0102C0359527956A95E2F720FDD1
:1015D00008C032E03A95F1F700C081E0089580E05C
:1015E000089580E00895CF92DF92EF92FF92CF931B
:1015F000DF93E4E8F0E0C081D181118210822BED0D
:101600003FE049E450E40E94348226E636E646E6AE
:1016100050E40E9434826B017C01BE0180E090E0C6
:101620000E94198120E030E040E05EE30E943482B5
:101630002DEB37E346E85AE30E9434822AE037ED87
:1016400043EA5BE30E94B37F9B01AC01C701B60193
:101650000E94808020913C0930913D0940913E09D3
:1016600050913F090E94B37F20E030E040E05FE30B
:101670000E9434826B017C0120E030E040E253E4C0
:101680000E94298288234CF4C0923C09D0923D09E3
:10169000E0923E09F0923F0908C010923C09109276
:1016A0003D0910923E0910923F09DF91CF91FF90C2
:1016B000EF90DF90CF9008950F931F9380910D0FBF
:1016C00040910F0F50E060E070E0032E35E1440FD1
:1016D000551F661F771F3A95D1F7302D682B8091E3
:1016E000090F90E0A0E0B0E0072E7BE0880F991F83
:1016F000AA1FBB1F7A95D1F7702D482B592B6A2B47
:101700007B2B80910A0F90E0A0E0B0E0880F991F3A
:10171000AA1FBB1F880F991FAA1FBB1F880F991FE5
:10172000AA1FBB1F880F991FAA1FBB1F880F991FD5
:10173000AA1FBB1F482B592B6A2B7B2B80910B0FA9
:1017400090E0A0E0B0E0B695A79597958795482BD7
:10175000592B6A2B7B2B8091100F90E04496AA277F
:1017600097FDA095BA2F072E79E1880F991FAA1F20
:10177000BB1F7A95D1F7702D8A019B01082B192B7D
:101780002A2B3B2BC901B8011F910F9108950F938C
:101790001F93CF93DF93CDB7DEB7A9970FB6F89419
:1017A000DEBF0FBECDBF3C9A1092AD091092AC09BE
:1017B0001092AB091092AA091092A9091092A809D7
:1017C000109285001092840010926F0085E0809343
:1017D00081000E9A169A80E480937C00EAE7F0E09C
:1017E00083E08083808180688083808180648083BF
:1017F000808186FDFDCF809178009091790089B13C
:10180000897F89B98AB1897F8AB91092C50083E33B
:101810008093C40086E08093C20080E88093C1007A
:1018200010925E098093A70910925A0910925B09E1
:1018300010925C0910925D098BE695EEA4E5B2E486
:1018400080934E0990934F09A0935009B09351098A
:10185000109256091092570910925809109259097E
:1018600082E591EFA8E1B1E480934A0990934B0996
:10187000A0934C09B0934D09109246091092470964
:101880001092480910924909109245091092440992
:101890001092430910924209109241091092400996
:1018A0000E944E081F8A88EF9AE0998F888F89EFEF
:1018B0009EE09B8F8A8F1EA21FA281E089A781ECE8
:1018C00094E09A83898388EF9AE00E941C208FE03D
:1018D000E3E1F2E0DE01139601900D928A95E1F7C3
:1018E0008EE08F8B00E010E0E3E0F0E0EC0FFD1FF6
:1018F000E10FF11D20E0402F6081888D998D0E94BD
:101900007B241F5F0A5F8F89181770F38FE0E2E274
:10191000F2E0DE01139601900D928A95E1F78EE0D8
:101920008F8B00E010E0E3E0F0E0EC0FFD1FE10F33
:10193000F11D28E0402F6081888D998D0E947B24C5
:101940001F5F0A5F8F89181770F380E48F9386E416
:101950008F9386E68F938F9385E092E09F938F938A
:10196000CE0103969F938F930E949A868F8B0FB61A
:10197000F894DEBF0FBECDBF8823A1F000E010E0D9
:10198000E3E0F0E0EC0FFD1FE10FF11D20E2402F3E
:101990006081888D998D0E947B241F5F0A5F8F89EB
:1019A000181770F3888D998D0E94C5208AE03FE753
:1019B00098E321E0315090402040E1F700C0000062
:1019C0003FE798E321E0315090402040E1F700C02C
:1019D0000000815061F710920B0F80E090E00E94B0
:1019E000D60780930A0F81E090E00E94D60780938B
:1019F000090F82E090E00E94D60780930D0F83E0EC
:101A000090E00E94D60780930F0F84E090E00E9440
:101A1000D6078093100F85E090E00E94D607809350
:101A2000120F86E090E00E94D6078093130F89EF93
:101A30009EE00E944A3589EF9EE00E94763680B78C
:101A4000806880BFE1ECF0E080818061808382E08B
:101A500084BD86E287BDEEE6F0E08081826080830F
:101A600085B5856085BD7894A9960FB6F894DEBFDC
:101A70000FBECDBFDF91CF911F910F910895CF93EE
:101A8000DF931F92CDB7DEB76983603209F49EC041
:101A90002091AD0921602093AD09462F50E0FA0155
:101AA000F097E634F10508F087C0EC5AFF4F0C942C
:101AB000FA7D85E08093AB0989C0DC0196962C9174
:101AC000211104C085E08093AB0980C02150FC0146
:101AD00026A37CC02091AB09253031F4DC0195961A
:101AE0008C918093AB0972C0FC0126A130A523170D
:101AF00008F06CC02F5F26A369C02091AB09253088
:101B000031F4DC0195968C918093AB095FC0FC01A8
:101B100026A130A5231708F059C02F5F26A356C071
:101B2000DC0195966C919597462F50E097962C91F5
:101B3000979730E0215031094217530724F46F5F23
:101B400095966C9343C0FC0115A240C0DC019596AC
:101B50002C919597222321F0215095962C9336C0F5
:101B6000FC0127A1215025A331C082EB99E00E94FE
:101B70001E34882329F082EB99E00E94613404C06E
:101B800082EB99E00E94D5338091110F84FF1EC033
:101B900080EB99E00E9461348091AD098D7F809344
:101BA000AD0960E088EF9AE00E94BB20E1E1FFE030
:101BB00080818F7E80830AC0DC01ED91FC910480DE
:101BC000F581E02DBE016F5F7F4F09950F90DF918A
:101BD000CF910895CF92DF92EF92FF920F931F93D0
:101BE000CF93DF93CDB7DEB72D970FB6F894DEBF56
:101BF0000FBECDBF8C018091AB09813019F567E034
:101C000080E290E00E94CD0A882339F063E371E11D
:101C100086E39FE30E94F30AC8C0809184009091FC
:101C200085008E389B4508F4C0C010928500109244
:101C3000840010923C0910923D0910923E091092C6
:101C40003F09B3C0833009F0B0C0D80195968C919C
:101C50009597833081F596968C91813009F0A5C0D7
:101C60008091AC0981FD14C080E00E94113981117E
:101C70001DC040E065EE73E082E097E00E94EC5604
:101C8000892BA1F48091AC0982608093AC090EC0CD
:101C900082FD0CC040E065EE73E080E090E00E94C1
:101CA000EC568091AC098D7F8093AC09F80186A138
:101CB000815086A37AC0843009F077C0D801969607
:101CC0008C91813009F071C08091AC0982FD59C0BE
:101CD00081FF57C080E00E941E3A81114CC0809164
:101CE0000A0F1F928F938091090F1F928F938091FB
:101CF0000D0F1F928F9380910F0F1F928F938EE382
:101D000093E09F938F93FE0131967F01FF92EF93B3
:101D10000E949A8642E1B70182EE94E00E945257F7
:101D200083E593E09F938F930F2EF2EEEF2EF4E076
:101D3000FF2EF02DFF92EF920E94546681E993E00E
:101D40009F938F93FF92EF920E94546684EA93E0F0
:101D50009F938F93FF92EF920E94546684ED93E0DD
:101D60009F938F93FF92EF920E9454660FB6F89460
:101D7000DEBF0FBECDBF8091AC0984608093AC09FB
:101D80000DC082EE94E00E94E55F82EE94E00E9436
:101D900021618091AC098B7F8093AC09D801969624
:101DA0008C919697815096968C938091AC0980FF88
:101DB0000DC08E7F8093AC098091AD0981608093C6
:101DC000AD098091A9098F5F8093A9098091110FB6
:101DD00081FF87C189EF9EE00E941E3688EB99E063
:101DE0000E94B41F8091AB09813009F057C0C090A8
:101DF0003C09D0903D09E0903E09F0903F092091C8
:101E00003409309135094091360950913709C7019D
:101E1000B6010E942982181644F4C0923409D09267
:101E20003509E0923609F092370920E030E040E8C9
:101E30005FE3C701B6010E94298288239CF080914C
:101E4000300990913109A0913209B091330901967E
:101E5000A11DB11D8093300990933109A0933209DF
:101E6000B093330926E636E646E650E4C701B601EC
:101E70000E9480809B01AC01609138097091390902
:101E800080913A0990913B090E94B37F6093380991
:101E90007093390980933A0990933B098091AC097A
:101EA0008670863009F0EDC080910B0F1F928F93E2
:101EB00080910A0F1F928F938091090F1F928F9329
:101EC0008091100F90E08053984F9F938F93809153
:101ED0000F0F1F928F9380910D0F1F928F9386EE9D
:101EE00093E09F938F930F2EF2EEEF2EF4E0FF2EF0
:101EF000F02DFF92EF920E94546620E030E048EC13
:101F000052E4609146097091470980914809909187
:101F100049090E9434820E94E8809F938F937F93A7
:101F20006F9320E030E543EC57E460915A097091DB
:101F30005B0980915C0990915D090E9434820E9446
:101F4000E8809F938F937F936F9320E034E244E780
:101F500059E4609156097091570980915809909100
:101F600059090E9434820E94E8809F938F937F9347
:101F70006F9384E094E09F938F93FF92EF920E947F
:101F800054660FB6F894DEBF0FBECDBF20E030E040
:101F900048EC52E460913C0970913D0980913E0902
:101FA00090913F090E9434820E94E8809F938F9312
:101FB0007F936F938CE094E09F938F93FF92EF92C7
:101FC0000E94546620E030E040E251E46091C40990
:101FD0007091C5098091C6099091C7090E94348209
:101FE0000E94E8807F936F9320E030E048EC52E459
:101FF0006091B8097091B9098091BA099091BB09B3
:102000000E9434820E94ED809F938F937F936F9301
:1020100020E030E040E251E46091C0097091C109D4
:102020008091C2099091C3090E9434820E94E88085
:102030007F936F9381E194E09F938F93FF92EF9250
:102040000E94546620E030E048EC52E46091B4090C
:102050007091B5098091B6099091B7090E943482B8
:102060000E94E8807F936F938CE194E09F938F931D
:10207000FF92EF920E9454660FB6F894DEBF0FBE37
:10208000CDBF8091A9098093AA091092A9098091D6
:10209000AD09982F91609093AD09E1E1FFE0908147
:1020A0009D7F908381FF1DC08091180F811108C012
:1020B00081E08093180F82EB99E00E94D53306C02F
:1020C0001092180F82EB99E00E9461346091180F12
:1020D00088EF9AE00E94BB208091AD0981608093D7
:1020E000AD098091110F82FF13C08091AC098670F9
:1020F000863021F482EE94E00E94E55F8091AD0984
:1021000081608093AD09E1E1FFE080818B7F808376
:102110008091110F8871883191F48091AD098360AD
:102120008093AD0980EB99E00E94D53382EB99E072
:102130000E94D533E1E1FFE08081877F8083809139
:10214000AD0980FF08C0D801ED91FC910680F781B0
:10215000E02DC80109952D960FB6F894DEBF0FBE8D
:10216000CDBFDF91CF911F910F91FF90EF90DF9046
:10217000CF9008954F925F926F927F928F929F922D
:10218000AF92BF92CF92DF92EF92FF920F931F9385
:10219000CF93DF9300D000D0CDB7DEB78091A709F1
:1021A00082FFE0C288231CF080688093A709909189
:1021B00067099E5280916609880F8056282F220F4A
:1021C000220F820F890F80934509909169099053DE
:1021D00080916809880F8056282F220F220F820FC6
:1021E000890F8093440990916B09905380916A09FB
:1021F000880F8056282F220F220F820F890F80937D
:1022000043098091730990E0C097BC01660F771F66
:10221000880F991F880F991F880F991F680F791FC2
:10222000882777FD8095982F0E941B816B017C0188
:102230006091740970E060537109882777FD80957B
:10224000982F0E941B81A70196010E94B37F4B012A
:102250005C018091750990E0C097BC01660F771F03
:10226000880F991F880F991F880F991F680F791F72
:10227000882777FD8095982F0E941B816B017C0138
:102280006091760970E060537109882777FD809529
:10229000982F0E941B81A70196010E94B37F6B01BA
:1022A0007C016091780970E060537109882777FD9F
:1022B0008095982F0E941B8120E030E040E251E49D
:1022C0000E948080A70196010E94B37F6B017C0170
:1022D0006091790970E060537109882777FD8095D6
:1022E000982F0E941B8120E030E048EC52E40E94CD
:1022F0008080A70196010E94B37F6B017C016091F1
:102300007A0970E060537109882777FD8095982FCE
:102310000E941B8120E030E04AE754E40E94808064
:10232000A70196010E94B37F6B017C0160917B093C
:1023300070E060537109882777FD8095982F0E947F
:102340001B8120E030E44CE156E40E948080A7012C
:1023500096010E94B37F20E030E040E752E40E9403
:102360008080A50194010E94B37F6B017C01809164
:102370007D098E3421F0F7FAF094F7F8F09480910B
:102380007F0990E0C09724E6289FB001299F700D37
:102390001124882777FD8095982F0E941B814B017F
:1023A0005C018091800990E0C097BC01660F771FA7
:1023B000880F991F880F991F880F991F680F791F21
:1023C000882777FD8095982F0E941B81A501940195
:1023D0000E94B37F4B015C016091810970E0605302
:1023E0007109882777FD8095982F0E941B81A50190
:1023F00094010E94B37F2B013C018091820990E0FF
:10240000C097BC01660F771F880F991F880F991F0F
:10241000880F991F680F791F882777FD8095982F5F
:102420000E941B814B015C016091830970E0605345
:102430007109882777FD8095982F0E941B81A5013F
:1024400094010E94B37F4B015C016091850970E0AB
:1024500060537109882777FD8095982F0E941B8112
:1024600020E030E040E251E40E948080A501940128
:102470000E94B37F4B015C016091860970E060535C
:102480007109882777FD8095982F0E941B8120E095
:1024900030E048EC52E40E948080A50194010E9443
:1024A000B37F4B015C016091870970E06053710953
:1024B000882777FD8095982F0E941B8120E030E0CF
:1024C0004AE754E40E948080A50194010E94B37FF2
:1024D0004B015C016091880970E0605371098827A5
:1024E00077FD8095982F0E941B8120E030E44CE11D
:1024F00056E40E948080A50194010E94B37F20E0F1
:1025000030E040E752E40E948080A30192010E94E3
:10251000B37F20918A09253409F09058C0925A0956
:10252000D0925B09E0925C09F0925D0960935609D4
:102530007093570980935809909359098DE28C83C1
:10254000EC81F0E0E15AF64F80818E3291F48C817B
:1025500081508C838C818F5F8C83109246091092FE
:10256000470910924809109249098C818E3228F44B
:1025700050C08C818F5F8C83E3CF712C812C912C88
:10258000A12C0F2EFDE2BF2EF02D0B2D10E06C8143
:1025900070E0601B710B61507109882777FD809591
:1025A000982F0E941B819B01AC0160E070E080E2EB
:1025B00091E40E9497826B017C01F801E15AF64F89
:1025C000608170E060537109882777FD8095982FAE
:1025D0000E941B81A70196010E943482272D382D6D
:1025E000492D5A2D0E94B37FB3942C81B21628F442
:1025F000762E872E982EA92EC8CF062F172F282F7C
:10260000392F0093460910934709209348093093C6
:102610004909EC811C81F0E0E15AF64F618170E0DC
:1026200060537109882777FD8095982F0E941B8140
:102630002DEC3CEC4CEC5DE30E9434822091460989
:102640003091470940914809509149090E94B37F50
:102650006B017C01E12FF0E0E15AF64F628170E0FE
:1026600060537109882777FD8095982F0E941B8100
:102670002AE037ED43E25CE30E9434829B01AC0127
:10268000C701B6010E94B37F26E53EE04DEE5FE351
:102690000E943482609346097093470980934809E9
:1026A0009093490983E18C831B828B81873080F46E
:1026B000EC81F0E0E15AF64F80818C3219F48B8185
:1026C0008F5F8B838C818F5F8C838B81873080F3CE
:1026D000AC81EC81B0E0A15AB64F8C91880F805646
:1026E000282F220F220F280FF0E0E15AF64F8181A8
:1026F00090E0C097820F911D80934209AC81EC81DC
:10270000B0E0A15AB64F12968C91880F8056282FB0
:10271000220F220F280FF0E0E15AF64F838190E05C
:10272000C097820F911D80934109AC81EC81B0E08C
:10273000A15AB64F14968C91880F8056282F220FDD
:10274000220F280FF0E0E15AF64F858190E0C09704
:10275000820F911D809340098091A7098B7F809300
:10276000A70990C083FF8EC088231CF48F778093C5
:10277000A709909167099E5280916609880F80563B
:10278000282F220F220F820F890F809345099091E5
:102790006909905380916809880F8056282F220F6D
:1027A000220F820F890F8093440990916B099053F7
:1027B00080916A09880F8056282F220F220F820FDE
:1027C000890F8093430983E18A8319828981873045
:1027D00080F4EA81F0E0E15AF64F80818C3219F4FE
:1027E00089818F5F89838A818F5F8A83898187301E
:1027F00080F3AA81EA81B0E0A15AB64F8C91880F8C
:102800008056282F220F220F280FF0E0E15AF64FB2
:10281000818190E0C097820F911D80934209AA8127
:10282000EA81B0E0A15AB64F12968C91880F80567B
:10283000282F220F220F280FF0E0E15AF64F838154
:1028400090E0C097820F911D80934109AA81EA818F
:10285000B0E0A15AB64F14968C91880F8056282F5D
:10286000220F220F280FF0E0E15AF64F858190E009
:10287000C097820F911D809340098091A709877F9F
:102880008093A7090F900F900F900F90DF91CF9139
:102890001F910F91FF90EF90DF90CF90BF90AF907E
:1028A0009F908F907F906F905F904F900895CF93FF
:1028B000DF93CDB7DEB765970FB6F894DEBF0FBED6
:1028C000CDBF0E94C70B8AE290E00E945384FC01B6
:1028D000168A88EF9AE0908F878B89EF9EE0928F1F
:1028E000818F15A216A281E080A781E994E09183EF
:1028F000808345E558E662E770E049835A836B833D
:102900007C839E012F5F3F4FCF014B96AE01455F09
:102910005F4F890160E2702F721B743028F4D80178
:102920007C91DC017C9302C0DC016C930F5F1F4F34
:1029300001960417150779F711A683E080A7FA839B
:10294000E98389E290E00E9453848C01FC01168A9D
:1029500088EF9AE0908F878B89EF9EE0928F818F2E
:1029600015A216A281E080A78DE994E0918380836F
:1029700086E0E1E3F2E0DE011D9601900D928A957A
:10298000E1F7CE010D96D8015B969E01295E3F4F7F
:10299000FC0140E25E2F581B563018F450815C93C6
:1029A00001C04C9331961196E217F30799F70E94F4
:1029B000AC0A1C830B8389E290E00E945384DC0103
:1029C00056961C92569728EF3AE058963C932E93D1
:1029D000579729EF3EE05A963C932E935997959638
:1029E0001C92959796961C92969721E098962C9318
:1029F000989729EA34E02D933C9328E0E7E3F2E04E
:102A0000DE011D9601900D922A95E1F79E01235F4C
:102A10003F4FDC015B96AE01495E5F4FF90160E21A
:102A20007E2F721B783018F470817C9301C06C93F8
:102A300031961196E417F50799F727E0FC0120A7D6
:102A40009E838D8389E290E00E945384DC01569638
:102A50001C92569728EF3AE058963C932E9357973E
:102A600029EF3EE05A963C932E93599795961C92E7
:102A7000959796961C92969721E098962C93989706
:102A800025EB34E02D933C9329E0E1E2F4E0DE0114
:102A90001D9601900D922A95E1F79E01235F3F4F0D
:102AA000DC015B96AE01495E5F4FF90160E27E2F6B
:102AB000721B793018F470817C9301C06C9331964D
:102AC0001196E417F50799F725E0FC0127A39887ED
:102AD0008F8389E290E00E945384FC01168A0F2EB6
:102AE000F8EFEF2EFAE0FF2EF02DF08EE78A09EFD7
:102AF0001EE0128F018F15A216A2DD24D394D0A65A
:102B000089ED94E091838083FA87E98789E290E0F8
:102B10000E945384DC0156961C9256975896FC925C
:102B2000EE9257975A961C930E93599795961C922E
:102B3000959796961C9296979896DC9298972DEC7E
:102B400034E02D933C9326E0EAE2F4E0DE011D96AA
:102B500001900D922A95E1F79E01235F3F4FDC0122
:102B60005B96AE01495E5F4FF90160E27E2F721BFA
:102B7000763018F470817C9301C06C933196119675
:102B8000E417F50799F7FC0110A625E027A39C8719
:102B90008B8788EB99E00E944E1B8CEE9AE00E9496
:102BA000FC2AE091AB09F0E0EE0FFF1F21E030E0DE
:102BB0002C0F3D1FE20FF31F682F808191810E942F
:102BC0003F0DE091AB09F0E0EE0FFF1F81E090E0D8
:102BD0008C0F9D1FE80FF91F808191810E94EA0DE3
:102BE0000E94BA10DACF2F923F924F925F926F926B
:102BF0007F928F929F92AF92BF92CF92DF92EF928D
:102C0000FF920F931F93CF93DF93CDB7DEB76697F5
:102C10000FB6F894DEBF0FBECDBF89EF9EE00E94D5
:102C2000903688EF9AE00E941C20912C0F2EFFE036
:102C30006F2EF02DCE0101967C01782E8F2CB12CB9
:102C40008D8BFE8A0F2EFDECAF2EF02D0F2EFDE0AA
:102C50004F2EFFE05F2EF02D0F2EFFE0CF2EFFE076
:102C6000DF2EF02DE0E3F4E0A72DB82D862D0190A6
:102C70000D928A95E1F7272C382C1B2DF1016191DB
:102C80001F012B2D412F88EF9AE00E947B241A5FB1
:102C90001435A1F7E2E2F2E0A72DB82D862D0190C0
:102CA0000D928A95E1F72D883E881B2DF1016191E7
:102CB0001F0128E0412F88EF9AE00E947B241A5FD1
:102CC0001435A1F7E9E0FFE080818A9D912D112460
:102CD0009695969596959983990F292F220F220FF5
:102CE000920F891B8A83FAE3FB83EAE0FFE080818D
:102CF0008A9D912D11249695969596959C83990F72
:102D0000292F220F220F920F891B8D8380E28E8341
:102D1000F20180818A9D912D112496959695969524
:102D20009F83990F292F220F220F920F891B8887CB
:102D30008EE28987F60190819A9D212D1124269596
:102D4000269526952A87220F322F330F330F230F14
:102D5000921B9B878C87E0E1FFE080818A9D912D0B
:102D600011249695969596959D87990F292F220F58
:102D7000220F920F891B8E873B2C01E01B2D04C074
:102D80001F5F0F5FF0E13F0E123069F020E1432D2D
:102D9000F701E10FF11D608188EF9AE00E94C924DC
:102DA000053070F308C024E148E26B8188EF9AE0B7
:102DB0000E947B24E5CF8E01095F1F4F2B2C0F2E25
:102DC000F6E03F2EF02D88E0381661F09BE03916D2
:102DD00049F020E2422DF801608188EF9AE00E94DC
:102DE000C92409C028E248E0420DF801608188EF5B
:102DF0009AE00E947B2433940F5F1F4FF0E12F0E67
:102E00008EE03812E0CF88EF9AE00E94C52088EF6C
:102E10009AE00E941C20892D90E08A30910508F0EC
:102E200047C2FC01E656FF4F0C94FA7D8CEE9AE007
:102E30000E94222B880F982F990F990F890F8831A4
:102E400008F46FC2E9E0FFE01082EFE3F4E0A72DA1
:102E5000B82D862D01900D928A95E1F72D883E8838
:102E60001B2DF10161911F0128E3412F88EF9AE0AA
:102E70000E947B241A5F1435A1F757C28CEE9AE0AA
:102E80000E94222BE9E0FFE0208190E0820F911D5B
:102E9000883110F480837CC2E9E0FFE01082EFE328
:102EA000F4E0A72DB82D862D01900D928A95E1F7BB
:102EB0002D883E881B2DF10161911F0128E3412FD0
:102EC00088EF9AE00E947B241A5F1435A1F730C284
:102ED0008CEE9AE00E94222B880F982F990F990F61
:102EE000890F8C3320F4EAE0FFE0808351C2EAE0EE
:102EF000FFE01082EEE4F4E0A72DB82D862D0190BE
:102F00000D928A95E1F72D883E881B2DF101619184
:102F10001F0128E3412F88EF9AE00E947B241A5F6B
:102F20001435A1F708C28CEE9AE00E94222BEAE049
:102F3000FFE0208190E0820F911D8C3310F480839C
:102F400027C2EAE0FFE01082EEE4F4E0A72DB82DFE
:102F5000862D01900D928A95E1F72D883E881B2DD4
:102F6000F10161911F0128E3412F88EF9AE00E944F
:102F70007B241A5F1435A1F7E1C18CEE9AE00E9420
:102F8000222B880F982F990F990F890F803218F4F0
:102F9000F2018083FDC1F20110828BE0EDE5F4E0E7
:102FA000A72DB82D01900D928A95E1F72D883E88C6
:102FB0001B2DF10161911F0128E3412F88EF9AE059
:102FC0000E947B241A5F1C33A1F7BBC18CEE9AE0F0
:102FD0000E94222BF201208190E0820F911D80320D
:102FE00010F48083D5C1F20110828BE0EDE5F4E0AE
:102FF000A72DB82D01900D928A95E1F72D883E8876
:103000001B2DF10161911F0128E3412F88EF9AE008
:103010000E947B241A5F1C33A1F798C18CEE9AE0C2
:103020000E94222B880F982F990F990F890F8D30AE
:1030300018F4F6018083ACC1F60110828DE0E8E659
:10304000F4E0A72DB82D01900D928A95E1F72D8817
:103050003E881B2DF10161911F0128E3412F88EF6C
:103060009AE00E947B241A5F1834A1F774C18CEE99
:103070009AE00E94222BF601208190E0820F911DA0
:103080008D3010F480831EC0F60110828DE0E8E6DA
:10309000F4E0A72DB82D01900D928A95E1F72D88C7
:1030A0003E881B2DF10161911F0128E3412F88EF1C
:1030B0009AE00E947B241A5F1834A1F70F2EF5E0E6
:1030C0009F2EF02DF6019081892F8D7F843011F095
:1030D000893009F5F20180818F3108F4EAC010824D
:1030E000F60110828BE0EDE5F4E0A72DB82D0190FC
:1030F0000D928A95E1F72D883E881B2DF101619193
:103100001F0128E3412F88EF9AE00E947B241A5F79
:103110001C33A1F725C1923009F0CBC0F2018081A8
:103120008E3108F4C6C01082F60110828BE0EDE506
:10313000F4E0A72DB82D01900D928A95E1F72D8826
:103140003E881B2DF10161911F0128E3412F88EF7B
:103150009AE00E947B241A5F1C33A1F706C18CEE13
:103160009AE00E94222B880F982F990F990F890FB0
:10317000823320F4E0E1FFE080830AC1E0E1FFE078
:1031800010828CE0E5E7F4E0A72DB82D01900D92B8
:103190008A95E1F72D883E881B2DF10161911F0171
:1031A00028E3412F88EF9AE00E947B241A5F1234B3
:1031B000A1F7E0C08CEE9AE00E94222BE0E1FFE054
:1031C000208190E0820F911D823310F480831FC014
:1031D000E0E1FFE010828CE0E5E7F4E0A72DB82DF8
:1031E00001900D928A95E1F72D883E881B2DF10103
:1031F00061911F0128E3412F88EF9AE00E947B2410
:103200001A5F1234A1F70F2EF7E09F2EF02DF60172
:103210008081823009F04DC0E0E1FFE08081837061
:1032200021F5F20180818E3108F443C01082F6014D
:103230001082E0E1FFE010828BE0EDE5F4E0A72DE5
:10324000B82D01900D928A95E1F72D883E881B2DAF
:10325000F10161911F0128E3412F88EF9AE00E945C
:103260007B241A5F1C33A1F78AC0F20180818D3163
:1032700000F11082F6011082E0E1FFE010828BE0A5
:10328000EDE5F4E0A72DB82D01900D928A95E1F7B8
:103290002D883E881B2DF10161911F0128E3412FEC
:1032A00088EF9AE00E947B241A5F1C33A1F76CC060
:1032B00093949394FAE0F91508F0D4CC10920B0F84
:1032C00010920C0F60910A0F80E090E00E94CC07F2
:1032D0006091090F81E090E00E94CC0760910D0F92
:1032E00082E090E00E94CC0760910F0F83E090E0B5
:1032F0000E94CC076091100F84E090E00E94CC0700
:1033000088EF9AE00E941C2089EF9EE00E944A35D7
:1033100089EF9EE00E94113589EF9EE00E9476368B
:1033200039C0E9E0FFE0808333C099249A9430C02B
:1033300099249A942DC0992493942AC09924939403
:1033400027C00F2EF3E09F2EF02D22C00F2EF3E0AA
:103350009F2EF02D1DC00F2EF5E09F2EF02D18C0D2
:103360000F2EF3E09F2EF02D13C00F2EF3E09F2EB3
:10337000F02D0EC00F2EF7E09F2EF02D09C00F2E5E
:10338000F3E09F2EF02D04C00F2EF3E09F2EF02DC2
:10339000939468CC66960FB6F894DEBF0FBECDBF8F
:1033A000DF91CF911F910F91FF90EF90DF90CF9021
:1033B000BF90AF909F908F907F906F905F904F9055
:1033C0003F902F90089589EF9EE00E94833588EF0B
:1033D0009AE00E94AC208CEE9AE00E94102987EEC1
:1033E00099E00E942E3188EB99E00E94951B41E004
:1033F00062E482EB99E00E94923342E062E480EB67
:1034000099E00E94923347E064E48EEA99E00E94DA
:10341000923308958EEA99E00E94D43380EB99E0CC
:103420000E94D43382EB99E00E94D43388EB99E078
:103430000E94731A87EE99E00E94B22D8CEE9AE0FA
:103440000E94232988EF9AE00E94182089EF9EE0CD
:103450000E94FF3408950895FC01208120FF04C0DC
:1034600025B58181822B85BD089585B5887F85BD71
:1034700008950F931F93CF93DF93EC018B010E946C
:10348000351AB80180E090E00E9419819B01AC01DF
:1034900060E074E284EF96E40E9480800E94ED80F8
:1034A00067BD16BCCE010E942C1ADF91CF911F91EF
:1034B0000F910895CF93DF93EC0118822B98239AF4
:1034C00084B5816484BD85B5886085BD84E08983C9
:1034D00068EE73E0CE010E94391ACE010E94351ABF
:1034E000DF91CF9108958E960E94E21F08950F9369
:1034F0001F93CF93DF93062F142FEC01AE96CE01CE
:103500000E94E31F6EEECE010E94F71F602FCE01D6
:103510000E94F71F612FCE010E94F71FCE010E946B
:10352000E71FDF91CF911F910F9108951F93CF93C4
:10353000DF93162FEC01AE96CE010E94E31F6EEED4
:10354000CE010E94F71F612FCE010E94F71FCE010E
:103550000E94E31F6FEECE010E94F71F60E0CE01D4
:103560000E940720182FCE010E94E71F812FDF91B4
:10357000CF911F9108951F93CF93DF93162FEC01E6
:10358000AE96CE010E94E31F6EEECE010E94F71FA1
:10359000612FCE010E94F71FCE010E94E31F6FEE44
:1035A000CE010E94F71F60E0CE010E940720182F75
:1035B000CE010E94E71F812FDF91CF911F910895C7
:1035C0000F931F93CF93DF93EC01162F0E94961A4F
:1035D000082F61E0610FCE010E94BB1A202F332714
:1035E00027FD3095322F2227A901480F511DCA010E
:1035F000DF91CF911F910F9108950F931F93CF9358
:10360000DF93EC01162F0E94BB1A082F61E0610FB7
:10361000CE010E94BB1A202F30E0322F2227A901B1
:10362000480F511DCA01DF91CF911F910F9108954D
:10363000FF920F931F93CF93DF938C01C62F0E94AD
:10364000961AD82F61E06C0FC8010E94BB1AF82EA1
:1036500062E06C0FC8010E94BB1A4F2D50E060E081
:1036600070E0762F652F542F44278A019B01080FA5
:10367000111D211D311D8D2F90E0A0E0B0E0DC0177
:1036800099278827BC01CD01600F711F821F931FEE
:10369000DF91CF911F910F91FF900895CF93DF930A
:1036A000EC016AEA0E94E01A998B888B6CEACE01E1
:1036B0000E94E01A9B8B8A8B6EEACE010E94E01A70
:1036C0009D8B8C8B60EBCE010E94FD1A99A388A381
:1036D00062EBCE010E94FD1A9BA38AA364EBCE018C
:1036E0000E94FD1A9DA38CA366EBCE010E94E01AF6
:1036F0009F8B8E8B68EBCE010E94E01A998F888F8A
:103700006AEBCE010E94E01A9B8F8A8F6CEBCE0190
:103710000E94E01A9D8F8C8F6EEBCE010E94E01A02
:103720009F8F8E8FDF91CF910895CF93DF93EC0120
:103730008E960E94DE1F1EA21FA218A619A61AA608
:103740001BA61CA61DA640E050E56DE774E44C8363
:103750005D836E837F83CE010E944E1BDF91CF91EC
:1037600008952F923F924F925F926F927F928F9225
:103770009F92AF92BF92CF92DF92EF92FF920F9300
:103780001F93CF93DF93CDB7DEB728970FB6F8948A
:10379000DEBF0FBECDBF9E838D834EE264EF0E94DD
:1037A000771A8FE097E20197F1F700C0000066EF0B
:1037B0008D819E810E94E01AED81FE8124A135A1B8
:1037C000821B930B6C0142A153A1AC2CBD2CC12CCC
:1037D000D12CE12CF12C00E010E0242F352F40E01B
:1037E00050E060E070E080E090E00E94297E0FE011
:1037F0000E94767F222E332E442E552E662E772E53
:10380000882E992EED81FE81358D248D932F990F71
:10381000990B492F592F692F792F892F0BE00E947F
:103820005D7FB22FA32F48875F8369837A838B8361
:103830009C83378D268D932F990F990B492F592FE4
:10384000692F792F892FA22CB32CC42CD52CE62CD0
:10385000F72C082D192D0E94947FA22EB32EC42E72
:10386000D52EE62EF72E082F192F2B2F3A2F48850D
:103870005F8169817A818B819C810E94847EA22EE6
:10388000B32EC42ED52ED601C501820D931DA41DC5
:10389000B51DED81FE8186A397A3A0A7B1A7BC01AA
:1038A000CD01685F7F4F8F4F9F4F0E941B8120E0AB
:1038B00030E040E85DE30E94348220E030E040E206
:1038C00051E40E948080ED81FE816087718782874C
:1038D000938728960FB6F894DEBF0FBECDBFDF9159
:1038E000CF911F910F91FF90EF90DF90CF90BF90FD
:1038F000AF909F908F907F906F905F904F903F9090
:103900002F9008952F923F924F925F926F927F92E5
:103910008F929F92AF92BF92CF92DF92EF92FF92DF
:103920000F931F93CF93DF93CDB7DEB7A3970FB657
:10393000F894DEBF0FBECDBF99A388A30E94B11B30
:1039400044EF64EF88A199A10E94771A8FE19BEC64
:103950000197F1F700C0000066EF88A199A10E94CD
:10396000181B7B018C0120E030E0A9016987FA86F1
:103970000B871C872D873E874F87588BA8A1B9A13D
:1039800096964D905D906D907C909997B0EA4B1A09
:10399000BFE05B0A6108710883017201110FEE0834
:1039A000FE2C8701E982FA820B831C83A42CB52CA0
:1039B000C62CD72CE980FE2C0E2D1E2D242D352D46
:1039C000462D572D602F702F802F9E2D0E94297E0F
:1039D0000CE00E94767F298B3A8B4B8B5C8B6A8F35
:1039E0007B8F8D8F292EA8A1B9A159963C9159970B
:1039F00058962C91932F990F990BA988BA88C42EA9
:103A0000D52EE62EF72E082F122D492F592F692F6C
:103A1000792F892F0E94297E2D8B3E8B942E852E07
:103A20006F8B788F898F9C8FE8A1F9A133892289C8
:103A3000932F990F990BA42CB52CC62CD72CE98069
:103A4000FE2C0E2D1E2D492F592F692F792F892FCE
:103A50000E94297E122FF32EE42ED52EC62EB72ECD
:103A6000A82E392EA8A1B9A150968D919C9151975D
:103A7000FC01EE0FFF1FEE0FFF1FFBA3EAA3EF2FCA
:103A8000EE0FEE0B2D893E89492D582D6F89788DCB
:103A9000898D9C8D0BE00E94767FA22FF32FB42F8F
:103AA0005F8B688F798F982E892E212F3F2D4E2D79
:103AB0005D2D6C2D7B2D8A2D932D0E94767FA22E5D
:103AC000B32EC42ED52EE62EF72E082F192F2A2F0F
:103AD0003F2F4B2F5F89688D798D892D982D0E94FE
:103AE000947FA22EB32EC42ED52EE62EF72E082FAD
:103AF000192F2AA13BA14E2F5E2F6E2F7E2F8E2FC6
:103B00009E2F0E94947F03E00E945D7FA2E00E94AE
:103B10009D7F2D8B3E8B4F8B588F698F7C8F8E8F27
:103B20009F8FA8A1B9A155963C91559754962C9179
:103B3000932F990F990BA42CB52CC62CD72CE98068
:103B4000FE2C0E2D1E2D492F592F692F792F892FCD
:103B50000E94297E2983932E842E752E662E572E41
:103B6000482E392EE8A1F9A1B788A6881B2D110F80
:103B7000110BC12ED12EE12EF12E012F29893A8968
:103B80004B895C896A8D7B8D8D8D922D0E94297E5B
:103B9000A22EB32EC42ED52EE62EF72E182F292EA8
:103BA0002981392D482D572D662D752D842D932D66
:103BB0000DE00E94767F622EB32FA42FF52FE62F03
:103BC000972E882E792E2A2D3B2D4C2D5D2D6E2D76
:103BD0007F2D812F922D00E10E94767FA22EB32EA1
:103BE000C42ED52EE62EF72E082F192F262D3B2F6B
:103BF0004A2F5F2F6E2F792D882D972D0E94947F4D
:103C0000A2E00E949D7F02E00E94767F30584F4FD5
:103C10005F4F6F4F7F4F8F4F9F4FA8A1B9A19096D5
:103C2000ED91FC9191971F01AE2EB32CC12CD12C9C
:103C3000E12CF12C00E010E00E94297E0FE00E94B0
:103C4000787F2983398B442E352E262E7A8B8B8BC9
:103C50009C8B29853A854B855C8560E070E080E02F
:103C600090E005E00E94767F722E832E942E652EC2
:103C7000B62FA72FE82F592E2D893E894F89588DB1
:103C8000698D7C8D8E8D9F8D02E00E94767FA22EA5
:103C9000B32EC42ED52EE62EF72E082F192F272D42
:103CA000382D492D562D6B2F7A2F8E2F952D0E9452
:103CB000A97F722E832E942E552EB62FA72FF82F64
:103CC000E92F03E00E945D7FA72CB82CC92CD52CCE
:103CD000EB2EFA2E0F2F1E2F0E94A97FA22EB32E9D
:103CE000C42ED52EE62EF72E682E192F03E00E9443
:103CF0005D7F062D0E94A97F03E00E945D7FA72CB7
:103D0000B82CC92CD52CEB2EFA2E0F2F1E2F0E946B
:103D1000A97F02E00E945D7F0F2F0E94A97F01E032
:103D20000E945D7F0F2F0E94A97F01E00E945D7FAE
:103D3000722E832E942E652EB62FA72F582E99877C
:103D40002F3FEFEF3E074E07EFE75E076105710576
:103D50008105910509F0A8F40E945D7FA980B988CA
:103D6000C42CD32CE22CFA880B891C890E94B57EC6
:103D7000222E332E442E552E662E772E882E992EE7
:103D800024C0A980B988C42CD32CE22CFA880B89D2
:103D90001C89272D382D492D562D6B2F7A2F852DD7
:103DA00099850E94B57EA22EB32EC42ED52EE62E66
:103DB000F72E082F192F0E94297E222E332E442EF3
:103DC000552E662E772E882E992E222D332D442D9A
:103DD000552D662D772D882D992D08E00E94767F30
:103DE000A22EB32EC42ED52EE62EF72E082F192F75
:103DF0000E94297EA22EB32EC42ED52EE62EF72E9B
:103E0000E82F192F03E00E945D7F0E2F0E94A97FEB
:103E1000A22EB32EC42ED52EE62EF72EE82F192F64
:103E200003E00E945D7F0E2F0E94A97FA22EB32E79
:103E3000C42ED52EE62EF72EE82F192F05E00E946E
:103E40005D7F0E2F0E94A97F01E00E945D7F298384
:103E50003987498B5A8B6B8B7C8B8A8F9B8F0F2E6C
:103E6000F3E4AF2EF02D0F2EF3EEBF2EF02DCC2469
:103E7000CA94DD24DA94EE24EA94FF24FA940FEF36
:103E80001FEF222D332D442D552D662D772D882D96
:103E9000992D0E94297E00E10E94767FA22EB32EEA
:103EA000C42ED52E76016501FFECCF0EFEE0DF1E9D
:103EB000E11CF11C2981398549895A896B897C89E2
:103EC0008A8D9B8D00E10E94767F29833A834B8304
:103ED0005C836D837E838F83988709811A812B8110
:103EE0003C81C00ED11EE21EF31ED701C6016894AC
:103EF00013F8B595A795979587951694D1F7BC01BA
:103F0000CD01620D731D841D951DA8A1B9A19A96BE
:103F10006D937D938D939C939D970E941B8120E0D0
:103F200030E048EC52E40E948080E8A1F9A160836F
:103F3000718382839383A3960FB6F894DEBF0FBE7E
:103F4000CDBFDF91CF911F910F91FF90EF90DF9048
:103F5000CF90BF90AF909F908F907F906F905F9029
:103F60004F903F902F900895CF93DF93EC010E94E4
:103F7000821C2C813D814E815F81688179818A819B
:103F80009B810E9480802EEA3CED42E45EE30E9429
:103F900097829B01AC0160E070E080E89FE30E94A3
:103FA000B27F20E03AE24DE257E40E9434826C870F
:103FB0007D878E879F87DF91CF91089582E08093E0
:103FC000B8000895089584EA8093BC00089584E9B8
:103FD0008093BC00089584EC8093BC000895ECEBC2
:103FE000F0E084E8808380818F7B80830895ECEB10
:103FF000F0E080818823ECF76093BB0084E8809335
:10400000BC00ECEBF0E080818823ECF70895662398
:1040100021F084EC8093BC0003C084E88093BC0052
:10402000ECEBF0E080818823ECF78091BB000895F1
:104030009C5F0E94E21F0895FC0120E030E0119295
:104040002F5F3F4F211584E03807C9F708951F936C
:10405000CF93DF93162FEC01DC5FCE010E94E31FAC
:1040600068E7CE010E94F71F60E0CE010E94F71FB3
:10407000612FCE010E94F71FCE010E94E71FDF9142
:10408000CF911F910895CF93DF93EC016EEA0E94C8
:10409000272065EDCE010E94272060E8CE010E9416
:1040A000272068EACE010E9427206FE3CE010E94FC
:1040B000272063EDCE010E94272060E0CE010E9400
:1040C000272060E4CE010E9427206DE8CE010E94E7
:1040D000272064E1CE010E94272060E2CE010E94E9
:1040E000272060E0CE010E94272061EACE010E94D5
:1040F000272068ECCE010E9427206AEDCE010E94A5
:10410000272062E1CE010E94272061E8CE010E94B3
:1041100027206FECCE010E94272069EDCE010E947E
:10412000272061EFCE010E9427206BEDCE010E9477
:10413000272060E4CE010E94272064EACE010E947D
:10414000272066EACE010E9427206FEACE010E9456
:104150002720DF91CF910895CF93DF93EC019C5FEF
:104160000E94DE1FCE010E944320CE010E941C202F
:10417000DF91CF910895662321F067EA0E942720FE
:10418000089566EA0E9427200895EF92FF920F9308
:104190001F93CF93DF938C0161E20E94272060E0A0
:1041A000C8010E9427206FE7C8010E94272062E211
:1041B000C8010E94272060E0C8010E94272067E014
:1041C000C8010E94272078018CEFF81AC7010E94CD
:1041D000E31F68E7C7010E94F71F60E4C7010E9460
:1041E000F71FC0E0D0E0F80161918F01C7010E9484
:1041F000F71F2196C115F4E0DF07A9F7C7010E9458
:10420000E71FDF91CF911F910F91FF90EF900895DD
:104210006623BCF14034A8F5211119C0E42FE695BE
:10422000E695E69520E8E29FF0011124E60FF11DE6
:10423000E80FF91F477021E030E0C90102C0880F84
:10424000991F4A95E2F79081892B80830895E42F86
:10425000E695E695E69530E8E39FF0011124E60F38
:10426000F11DE80FF91F477081E090E09C0102C04A
:10427000220F331F4A95E2F7A90140958081482318
:1042800040830895FF920F931F93CF93DF93EC0128
:10429000062F222361F0F22EF40E142F20E0412F7E
:1042A000602FCE010E9408211F5F1F11F7CFDF9101
:1042B000CF911F910F91FF900895FF920F931F933D
:1042C000CF93DF93EC01042F222361F0F22EF60E40
:1042D000162F20E0402F612FCE010E9408211F5F82
:1042E0001F11F7CFDF91CF911F910F91FF9008958C
:1042F0005F926F927F928F929F92AF92BF92CF9276
:10430000DF92EF92FF920F931F93CF93DF936C0195
:10431000762E842EC22FA22EA61AA394D02FD41BA1
:10432000EE2059F0B12C1A141B049CF5E12CF12C51
:104330000D2F10E0512C612C27C02A2D0E945D21E9
:104340002A2D402F672DC6010E945D212D2F482D5B
:10435000672DC6010E9442212D2F482D6C2FC601CA
:104360000E94422116C04C2F480D20E0692DC60145
:104370000E94082121960C171D07ACF78FEFE81A51
:10438000F80AEA14FB042CF4C52DD62D972C9E0CAC
:10439000EACFDF91CF911F910F91FF90EF90DF90C7
:1043A000CF90BF90AF909F908F907F906F905F90D5
:1043B0000895CF93DF93CDB7DEB72C970FB6F8945F
:1043C000DEBF0FBECDBF1C01013009F05BC000E0B5
:1043D000442E512C612C712C862F90E0A0E0B0E08F
:1043E00089839A83AB83BC83602F70E080E090E088
:1043F0000E941B812BED3FE049E450E40E9434828F
:1044000020E030E044E353E40E9480806B017C01B3
:104410000E947D804B015C01C701B6010E94E382CE
:1044200020E030E0A9010E9434826B017C01C301CD
:10443000B2010E941B819B01AC01C701B6010E9421
:10444000B37F0E94ED80162F20E030E0A901C50166
:10445000B4010E9434826B017C0169817A818B8175
:104460009C810E941B819B01AC01C701B6010E9487
:10447000B37F0E94ED8020E0412FC1010E940821FE
:104480000F5FB2CF00E0822F90E0A0E0B0E0898320
:104490009A83AB83BC83842F90E0A0E0B0E08D834F
:1044A0009E83AF83B887862F90E0A0E0B0E0898735
:1044B0009A87AB87BC8769817A818B819C810E94B6
:1044C0001B816B017C01602F70E080E090E00E9416
:1044D0001B812BED3FE049E450E40E94348220E050
:1044E00030E044E353E40E9480804B015C010E9471
:1044F0007D802B013C01C501B4010E94E3829B0138
:10450000AC01C701B6010E9434824B015C016D8190
:104510007E818F8198850E941B819B01AC01C50122
:10452000B4010E94B37F0E94ED80B62EA3019201D8
:10453000C701B6010E9434826B017C0169857A85CE
:104540008B859C850E941B819B01AC01C701B60134
:104550000E94B37F0E94ED8020E04B2DC1010E949C
:1045600008210F5FA8CF2F923F924F925F926F92D8
:104570007F928F929F92AF92BF92CF92DF92EF92F3
:10458000FF920F931F93CF93DF93CDB7DEB72B9797
:104590000FB6F894DEBF0FBECDBF1C01D62EC42EC1
:1045A0002983222309F469C0C801B7010E947D80D4
:1045B0002B013C01C801B7010E94E3824B015C0161
:1045C0001B861A868C2D90E0A0E0B0E08A839B8346
:1045D000AC83BD838D2D90E0A0E0B0E08E839F83FF
:1045E000A887B987AA85BB85BD01882777FD8095F7
:1045F000982F0E941B81A50194010E9434826B01B7
:104600007C016A817B818C819D810E941B819B0141
:10461000AC01C701B6010E94B37F0E94ED80162F46
:104620006A857B85719561957109882777FD8095ED
:10463000982F0E941B81A30192010E9434826B017A
:104640007C016E817F81888599850E941B819B01F9
:10465000AC01C701B6010E94B37F0E94ED8020E04B
:10466000412FC1010E940821EA85FB853196FB8715
:10467000EA87F981EF1708F4B5CF2B960FB6F894B7
:10468000DEBF0FBECDBFDF91CF911F910F91FF9085
:10469000EF90DF90CF90BF90AF909F908F907F90E2
:1046A0006F905F904F903F902F9008952F923F9280
:1046B0004F925F926F927F928F929F92AF92BF9232
:1046C000CF92DF92EF92FF920F931F93CF93DF93DE
:1046D000CDB7DEB760970FB6F894DEBF0FBECDBF83
:1046E0001C016F874D832983C601B50125E33AEF8D
:1046F0004EE85CE30E9434824B015C0125E33AEF13
:104700004EE85CE3C801B7010E9434826E837F8368
:10471000888799877980769485017401272D4D814A
:104720006F85C1010E94B3222BED3FE049E450E4C4
:10473000C501B4010E94B27F7B018C01272D4D8100
:104740006F85C1010E94B3226E817F818885998522
:104750000E942E836B017C01672D70E080E090E069
:104760000E941B81A70196010E9434820E94ED8065
:10477000688B2BED3FE049EC5FE3C501B4010E947B
:10478000B27F6A877B878C879D877B018C01288914
:104790004D816F85C1010E94B3226E817F81888522
:1047A00099850E947D806B017C012981622F70E0D8
:1047B00080E090E00E941B812B013C01A701960143
:1047C000C701B6010E94B37F9B01AC01C301B201D6
:1047D0000E9480800E94ED806E87E8896E2F70E0D5
:1047E00080E090E00E941B8169837A838B839C83A5
:1047F0006A857B858C859D850E947D806B017C010F
:10480000FF856F2F70E080E090E00E941B812B01FC
:104810003C01A701960169817A818B819C810E946C
:1048200034829B01AC01C301B2010E94B27F0E949D
:10483000ED806F876A857B858C859D850E94E382EC
:104840006B017C012D81622F70E080E090E00E947E
:104850001B812B013C01A701960169817A818B8123
:104860009C810E9434829B01AC01C301B2010E9471
:10487000B37F0E94ED80D62EA50194016E817F81C9
:10488000888599850E94B37F7B018C012E854D2DF3
:104890006F85C1010E94B3222E813F8148855985D1
:1048A000C501B4010E94B27F2BED3FE049E450E422
:1048B0000E94B27F7B018C012E854D2D6F85C10139
:1048C0000E94B32260960FB6F894DEBF0FBECDBF34
:1048D000DF91CF911F910F91FF90EF90DF90CF90DC
:1048E000BF90AF909F908F907F906F905F904F9010
:1048F0003F902F9008950F931F93CF93DF936132D2
:1049000008F442C0A42FB0E0022F06950695069544
:1049100030E8039F80011124ED01C00FD11F005822
:104920001F4F0A0F1B1F6152462F50E0FA01EE0F76
:10493000FF1FEE0FFF1FE40FF51FE85BF54FDC01D3
:10494000AC0FBD1FAE0105968C0F9D1F27706491A3
:1049500070E0022E02C0660F771F0A94E2F73C91C6
:10496000362B3C93672F77276115710541F0ED01D8
:10497000C41BD50BC00FD11F3881632B68833196C0
:104980001196A817B90719F7DF91CF911F910F91D1
:104990000895EF92FF920F931F93CF93DF936A30A6
:1049A00008F066C050E0022F06950695069510E0C7
:1049B000D801B695BA2FAA27B795A7950F5F1F4FB5
:1049C0001695102F0027179507957D0130E8E30E07
:1049D000F11CE40EF51EE80EF91EEA01C00FD11F0E
:1049E0006097C80FD91F040F151F00591F4F080FDC
:1049F000191FA40FB51FA80FB91FE0E26E9FC001D9
:104A0000112440E050E0885F964F2770FC01E40FCE
:104A1000F51FE491F0E0022E02C0EE0FFF1F0A9492
:104A2000E2F7403168F43C913E2B3C936F2F77279F
:104A30006115710589F0F7013081362B30830CC088
:104A400038813E2B38836F2F77276115710521F050
:104A5000F8013081362B30834F5F5F4FFFEFEF1A45
:104A6000FF0A21960F5F1F4F11964032510571F6D4
:104A7000DF91CF911F910F91FF90EF900895CF920A
:104A8000DF92EF92FF920F931F93CF93DF936437E0
:104A900008F467C050E0022F06950695069510E0D1
:104AA000D801B695BA2FAA27B795A7950F5F1F4FC4
:104AB0001695102F0027179507957D0130E8E30E16
:104AC000F11CE40EF51EE80EF91EEA01C00FD11F1D
:104AD0006097C80FD91F040F151F00591F4F080FEB
:104AE000191FA40FB51FA80FB91F645780E1689F55
:104AF000B001112440E050E0685C7C4F2770FB015E
:104B0000E40FF51FE491F0E0022E02C0EE0FFF1F4C
:104B10000A94E2F7483068F48C918E2B8C93CF2E58
:104B2000DD24C114D10489F0F70180818C298083B0
:104B30000CC088818E2B8883CF2EDD24C114D10434
:104B400021F0F80180818C2980834F5F5F4FFFEF58
:104B5000EF1AFF0A21960F5F1F4F11964031510542
:104B600071F6DF91CF911F910F91FF90EF90DF9041
:104B7000CF9008952F923F924F925F926F927F92C3
:104B80008F929F92AF92BF92CF92DF92EF92FF925D
:104B90000F931F93CF93DF93CDB7DEB727970FB651
:104BA000F894DEBF0FBECDBF9F838E836D83342EFE
:104BB000002309F429C1622F70E080E090E00E9498
:104BC0001B8120E030E040EC50E40E9434822BED69
:104BD0003FE049E450E40E94348220E030E044E3C6
:104BE00053E40E9480802BED3FE049EC5FE30E949C
:104BF000B27F6B017C010E947D802B013C01C701CB
:104C0000B6010E94E3824B015C0100E010E0B801B4
:104C1000882777FD8095982F0E941B816B017C016E
:104C2000A50194010E94348220E030E048EF51E475
:104C30000E94B37F0E94ED80262EA3019201C7013E
:104C4000B6010E94348220E030E048EF51E40E9437
:104C5000B37F0E94ED8020E0422D8E819F810E94D3
:104C600008210F5F1F4F0931110589F6632D70E090
:104C700080E090E00E941B8169837A838B839C8310
:104C800020E030E040EC50E40E9434822BED3FE025
:104C900049E450E40E94348220E030E044E353E4ED
:104CA0000E9480802BED3FE049EC5FE30E94B27FE1
:104CB0006B017C010E947D804B015C01C701B60144
:104CC0000E94E3822B013C0100E010E0B80188273C
:104CD00077FD8095982F0E941B816B017C01A301B9
:104CE00092010E94348220E030E048EF51E40E94BB
:104CF000B37F0E94ED80362EA5019401C701B60155
:104D00000E94348220E030E048EF51E40E94B37FFB
:104D10000E94ED8020E0432D8E819F810E9408211A
:104D20000F5F1F4F0531110589F62D81622F70E04D
:104D300080E090E00E941B8120E030E040EF51E4F1
:104D40000E9434826B017C0120E030E040E05FE3B0
:104D500069817A818B819C810E9434829B01AC01A4
:104D6000C701B6010E94B37F2BED3FE049E450E458
:104D70000E94348220E030E044E353E40E948080CB
:104D80002BED3FE049EC5FE30E94B27F6B017C01B9
:104D90000E947D802B013C01C701B6010E94E38285
:104DA0004B015C0100E010E0B801882777FD809599
:104DB000982F0E941B816B017C01A50194010E9428
:104DC000348220E030E048EF51E40E94B37F0E943B
:104DD000ED80362EA3019201C701B6010E943482F4
:104DE00020E030E048EF51E40E94B37F0E94ED8064
:104DF00020E0432D8E819F810E9408210F5F1F4F6D
:104E00000D30110589F6CDC0642F70E080E090E090
:104E10000E941B8169837A838B839C8320E030E02E
:104E200040EC50E40E9434822BED3FE049E450E432
:104E30000E94348220E030E044E353E40E9480800A
:104E40002BED3FE049EC5FE30E94B27F6B017C01F8
:104E50000E947D804B015C01C701B6010E94E38284
:104E60002B013C0100E010E0B801882777FD809518
:104E7000982F0E941B816B017C01A30192010E946B
:104E8000348220E030E048EF51E40E94B37F0E947A
:104E9000ED80362EA5019401C701B6010E9434822F
:104EA00020E030E048EF51E40E94B37F0E94ED80A3
:104EB00020E0432D8E819F810E9408210F5F1F4FAC
:104EC0000931110589F6ED816E2F70E080E090E0E8
:104ED0000E941B8120E030E040EF51E40E943482C8
:104EE0006B017C0120E030E040E05FE369817A8182
:104EF0008B819C810E9434829B01AC01C701B60169
:104F00000E94B37F2BED3FE049E450E40E943482DD
:104F100020E030E044E353E40E9480802BED3FE04A
:104F200049EC5FE30E94B27F6B017C010E947D80AF
:104F30002B013C01C701B6010E94E3824B015C01D9
:104F400000E010E0B801882777FD8095982F0E9437
:104F50001B816B017C01A50194010E94348220E039
:104F600030E048EF51E40E94B37F0E94ED80362E7E
:104F7000A3019201C701B6010E94348220E030E013
:104F800048EF51E40E94B37F0E94ED8020E0432D62
:104F90008E819F810E9408210F5F1F4F01311105F3
:104FA00089F620E04AE161E38E819F810E947B24A3
:104FB00020E040E262E38E819F810E947B242CE10D
:104FC0004AE363E38E819F810E947B2428E34DE1C5
:104FD00066E38E819F810E947B242CE140E069E39F
:104FE0008E819F810E947B2420E048E06CE28E81CC
:104FF0009F810E94082120E042E165E38E819F812C
:105000000E94082120E04CE265E38E819F810E948E
:10501000082120E045E36BE28E819F810E940821F8
:1050200020E045E361E18E819F810E94082120E01C
:105030004CE268E08E819F810E94082120E041E1DE
:1050400068E08E819F810E94082120E048E062E1B3
:105050008E819F810E94082127960FB6F894DEBFAB
:105060000FBECDBFDF91CF911F910F91FF90EF90B9
:10507000DF90CF90BF90AF909F908F907F906F9078
:105080005F904F903F902F900895EF92FF920F9373
:105090001F93CF93DF93EC01F42E122F8FEF860F27
:1050A0008A3068F4EE24E39406E0020F6BE0640FAC
:1050B000262F41E0410FCE010E9478214DC065317D
:1050C00074F4EE24E39406E0020F2BE0240F41E099
:1050D000410F6AE06F0DCE010E9478213DC06F3113
:1050E00074F4EE24E39406E0020F2BE0240F41E079
:1050F000410F68E06F0DCE010E9478212DC069320A
:1051000074F4EE24E39406E0020F2BE0240F41E058
:10511000410F66E06F0DCE010E9478211DC0633300
:1051200074F4EE24E39406E0020F2BE0240F41E038
:10513000410F64E06F0DCE010E9478210DC0EE2476
:10514000E39406E0020F2BE0240F41E0410F62E000
:105150006F0DCE010E94782107E0010F2CE02F0D8A
:1051600061E06F0DE12C412FCE010E94782142E0D9
:10517000410F20E06F2DCE010E94082143E0410F36
:1051800020E06F2DCE010E94082144E0410F20E075
:105190006F2DCE010E940821DF91CF911F910F91B9
:1051A000FF90EF900895DF92EF92FF920F931F937D
:1051B000CF93DF93EC01D62E142FF22E07E0020FCF
:1051C00027E0240FE12C4F2D612F0E94782181E0F0
:1051D000D8120EC003E00F0D26E0210F41E04F0D65
:1051E00061E0610FEE24E394CE010E94782110C0AB
:1051F00083E0D8120DC006E00F0D26E0210F41E03C
:105200004F0D61E0610FEE24E394CE010E947821FE
:10521000DF91CF911F910F91FF90EF90DF90089554
:105220002AB120662AB928B1237F28B927B12C607A
:1052300027B92AB1237E2AB9FC0180E011928F5F41
:105240008C30E1F708950895FB01808190E0042EF1
:1052500002C0959587950A94E2F780FF17C08FECFE
:1052600097E00197F1F700C00000FB01808190E01A
:105270009C0102C0359527954A95E2F720FD08C0AC
:105280003AE13A95F1F700C081E0089580E0089591
:1052900080E00895FB01808190E0042E02C0959586
:1052A00087950A94E2F780FF05C081E0F9018083C9
:1052B00080E00895F9018081813079F4FB018081DB
:1052C00090E0BC0102C0759567954A95E2F760FDD4
:1052D00004C0F901108281E00895F901108280E094
:1052E0000895462F50E0FA01B397E731F10508F031
:1052F000C4C0EC55FF4F0C94FA7D439A22E02A95E6
:10530000F1F700C046E069E270E00E94242991E0D4
:10531000811101C090E05B98B1C05B9A22E02A95B0
:10532000F1F700C045E069E270E00E94242991E0B5
:10533000811101C090E04398A1C05B9A22E02A95B8
:10534000F1F700C044E069E270E00E94242991E096
:10535000811101C090E05B9891C05A9A22E02A9591
:10536000F1F700C046E069E270E00E94242991E074
:10537000811101C090E05A9881C05A9A22E02A9582
:10538000F1F700C045E069E270E00E94242991E055
:10539000811101C090E05A9871C05A9A22E02A9572
:1053A000F1F700C044E069E270E00E94242991E036
:1053B000811101C090E05A9861C0599A22E02A9563
:1053C000F1F700C046E069E270E00E94242991E014
:1053D000811101C090E0599851C0599A22E02A9554
:1053E000F1F700C045E069E270E00E94242991E0F5
:1053F000811101C090E0599841C0599A22E02A9544
:10540000F1F700C044E069E270E00E94242991E0D5
:10541000811101C090E0599831C0589A22E02A9534
:10542000F1F700C046E069E270E00E94242991E0B3
:10543000811101C090E0589821C0589A22E02A9525
:10544000F1F700C045E069E270E00E94242991E094
:10545000811101C090E0589811C05B9A22E02A9512
:10546000F1F700C044E069E270E00E94242991E075
:10547000811101C090E0589801C090E0892F0895F3
:105480001F93CF93DF93EC01439A82E08A95F1F763
:1054900000C09E012E5F3F4F44E069E270E0CE0104
:1054A0000E944A29811116C09E012F5F3F4F43E0A1
:1054B00069E270E0CE010E944A2981110DC09E016F
:1054C00042E069E270E0CE010E944A29811106C0E3
:1054D00010E205C013E303C012E301C011E34398D7
:1054E000429A82E08A95F1F700C09E012B5F3F4F00
:1054F00044E069E270E0CE010E944A29811117C0A0
:105500009E012C5F3F4F43E069E270E0CE010E94B4
:105510004A2981110EC09E012D5F3F4F42E069E292
:1055200070E0CE010E944A29811105C005C016E332
:1055300003C015E301C014E342985E9A82E08A95A5
:10554000F1F700C09E01285F3F4F44E069E270E040
:10555000CE010E944A29811117C09E01295F3F4F49
:1055600043E069E270E0CE010E944A2981110EC039
:105570009E012A5F3F4F42E069E270E0CE010E9447
:105580004A29811105C005C019E303C018E301C011
:1055900017E35E985D9A82E08A95F1F700C09E015C
:1055A000255F3F4F44E069E270E0CE010E944A2946
:1055B000811117C09E01265F3F4F43E069E270E012
:1055C000CE010E944A2981110EC09E01275F3F4FE4
:1055D00042E069E270E0CE010E944A29811105C0D3
:1055E00005C013E203C010E301C01AE25D98812FE9
:1055F000DF91CF911F9108950E94402A90E0FC0115
:10560000B397E731F105D0F4E554FF4F0C94FA7DE0
:1056100082E4089581E408958CE608958FE6089564
:1056200082E7089589E5089584E6089588E5089558
:1056300085E6089580E308958DE6089580E2089553
:1056400085E70895CF93DF93EC01CE010E94402AB5
:1056500080538A30D0F7DF91CF91089506960E944B
:10566000E21F08950F931F93CF93DF93062F142FFC
:10567000EC012696CE010E94E31F6CE3CE010E944E
:10568000F71F602FCE010E94F71F612FCE010E94ED
:10569000F71FCE010E94E71FDF91CF911F910F915D
:1056A0000895CF93DF93EC0106960E94DE1F40E73A
:1056B00060E0CE010E94322B40E261E0CE010E9408
:1056C000322B41E062E0CE010E94322B1982188217
:1056D00018861F821B821A821A8619861D821C82D6
:1056E0001C861B86DF91CF910895CF93DF93EC0149
:1056F00040E760E00E94322B40E261E0CE010E9470
:10570000322B41E062E0CE010E94322B19821882D6
:1057100018861F821B821A821A8619861D821C8295
:105720001C861B86DF91CF910895BF92CF92DF92A6
:10573000EF92FF920F931F93CF93DF9300D000D08F
:1057400000D0CDB7DEB76C01F8947C0126E0E20E04
:10575000F11CC7010E94E31F6CE3C7010E94F71F01
:1057600063E0C7010E94F71FC7010E94E31F6DE3BA
:10577000C7010E94F71F8E010F5F1F4FB12C84E0FD
:105780008B1538F061E0C7010E940720F801808383
:1057900006C060E0C7010E940720F8018083B3942F
:1057A0000F5F1F4FF6E0BF12EACFC7010E94E71F4D
:1057B000898190E0982F88272A81822BF601918396
:1057C00080838B8190E0982F88272C81822B938374
:1057D00082838D8190E0982F88272E81822B95835C
:1057E00084837894F601808191818115904F09F42A
:1057F00047C0F601828193818115904F09F442C020
:10580000F601848195818115904FF1F1F60183E0D5
:10581000DF012081318145855685421753078CF47D
:105820003687258743895489240F351F332314F481
:105830002F5F3F4F3595279518963C932E931797DA
:105840001AC063897489261737077CF4348B238B3D
:10585000240F351F332314F42F5F3F4F35952795C1
:1058600018963C932E93179706C047815085241BAA
:10587000350B31832083815032968111C9CF05C009
:1058800081E003C081E001C081E026960FB6F89464
:10589000DEBF0FBECDBFDF91CF911F910F91FF9063
:1058A000EF90DF90CF90BF9008952F923F924F924C
:1058B0005F926F927F928F929F92AF92BF92CF92A0
:1058C000DF92EF92FF920F931F93CF93DF93CDB7A9
:1058D000DEB764970FB6F894DEBF0FBECDBF1C01D4
:1058E0004A015B01680179010E94952B8111FEC07C
:1058F000C701B6010E947D8069837A838B839C8374
:10590000F10162817381882777FD8095982F0E942D
:105910001B812B013C01C501B4010E94E3826D8310
:105920007E838F839887F10164817581882777FD55
:105930008095982F0E941B8169877A878B879C8727
:10594000C501B4010E947D804B015C01C701B60115
:105950000E94E3826D877E878F87988BA5019401D3
:10596000C301B2010E9434820E94E880882777FD3B
:105970008095982F0E941B816B017C0129853A85B7
:105980004B855C856D817E818F8198850E943482F4
:105990009B01AC01C701B6010E94B37F0E94E88061
:1059A000882777FD8095982F0E941B81698B7A8BC1
:1059B0008B8B9C8BF10160817181882777FD8095AD
:1059C000982F0E941B8129813A814B815C810E9422
:1059D00034820E94E880882777FD8095982F0E9466
:1059E0001B816B017C012D813E814F815885C30154
:1059F000B2010E9434829B01AC0169817A818B8162
:105A00009C810E9434829B01AC01C701B6010E94B7
:105A1000B37F0E94E880882777FD8095982F0E94A9
:105A20001B816B017C01A501940169857A858B85B9
:105A30009C850E9434822D853E854F8558890E9421
:105A400034829B01AC01C701B6010E94B37F0E9462
:105A5000E880882777FD8095982F0E941B812989EF
:105A60003A894B895C890E94268020E030E044E33B
:105A700053E40E9434822BED3FE049E450E40E945D
:105A8000808020E030E044E353E40E94B37F26E6C8
:105A900036E646E150E40E94B37F6B017C0120E0D2
:105AA00030E044EB53E40E94298288235CF020E03C
:105AB00030E044EB53E4C701B6010E94B27F6B01B2
:105AC0007C011CC020E030E0A901C701B6010E94A2
:105AD000798088239CF420E030E044EB53E4C70154
